:1000000000800020BD010000F97C0000B17C0000F0
:10001000B17C0000B17C0000B17C0000B17C00002C
:10002000B17C0000B17C0000B17C0000F97C0000D4
:10003000F97C0000B17C0000D1930000D594000051
:10004000F97C0000F97C0000F97C0000F97C0000DC
:10005000F97C0000F97C0000F97C0000F97C0000CC
:10006000F97C0000F97C0000F97C0000F97C0000BC
:10007000F97C0000F97C0000F97C0000F97C0000AC
:10008000F97C0000F97C0000F97C0000F97C00009C
:10009000F97C0000F97C0000F97C0000F97C00008C
:1000A000F13E0000F97C0000F97C0000F97C0000C2
:1000B000F97C0000F97C0000F97C0000F97C00006C
:1000C000F97C0000F97C0000F97C0000F97C00005C
:1000D000F97C0000F97C0000F97C0000F97C00004C
:1000E000F97C0000F97C0000F97C0000F97C00003C
:1000F000F97C0000DD980000F97C0000099A0000FE
:10010000F97C0000359B0000F97C0000F97C0000C0
:10011000F97C0000F97C0000F97C0000F97C00000B
:10012000F97C0000F97C0000F97C0000F97C0000FB
:10013000F97C0000F97C0000F97C0000F97C0000EB
:10014000F97C0000F97C0000F97C0000F97C0000DB
:10015000F97C0000F97C0000F97C0000F97C0000CB
:10016000F97C000015830000F97C0000F97C000098
:10017000F97C0000F97C0000F97C0000F97C0000AB
:10018000F97C0000F97C0000F97C0000F97C00009B
:10019000F97C0000F97C0000F97C0000F97C00008B
:1001A000F97C0000F97C0000F97C0000F97C00007B
:1001B000F97C0000F97C00008D910000564B4CF258
:1001C000205210B51A804DF628121A8000BF00BFC9
:1001D00000F09AFB514B4FF010621A60504A9A603F
:1001E000504ADA60504A136813F4807304D14F49BF
:1001F0000B604FF4A85313604D4B1A78110703D5C9
:100200001A7842F008021A704A4B4B492A221A7097
:100210004A4A4B4B8B4204D252F8040F43F8040B6A
:10022000F8E7484B484900228B4202D243F8042B9E
:10023000FAE74649464A002352F8230041F82300D2
:1002400001336F2BF8D1434B434A802103F8011B44
:100250009342FBD1414B3D4A1A60414B8A221A70AE
:10026000A3F5805324225A70A0221A709A7992071B
:10027000FCD59A79D406FCD43A4A937903F00C035E
:10028000082B384BF9D105221A7143225A719A79F9
:100290009006FCD5334A9179324B4906FBD5324A58
:1002A0004FF0817111600521516020221A709A79F6
:1002B00002F00C020C2AFAD12C4B2D4A1A602D4B5D
:1002C0002D4A1A6000225A60072243F8042C2B4A58
:1002D000C3F80C2D62B607F0F5FE144B1B68DA0765
:1002E00005D5274807F072FE264B274A1A60274B90
:1002F0001B785B0609D5234C234B22689A4204D114
:100300001F4807F063FE002323600AF0B3FF07F0E5
:10031000F7FC09F041FAFEE70E200540308004406A
:10032000823F04000100002B10D0034014D0034092
:1003300002D0074000E00740E00900201835010026
:1003400020F9FF1FE0090020D456002000F4FF1F11
:100350000000000000E400E05FE400E008ED00E0E1
:1003600000500640004006404480044004800440A1
:10037000C010050014E000E03F190100000020203B
:10038000B9BFC65C1CE00340A5C3945A00F0074007
:10039000FFFFFFFFFFFFFFFFFFFFFFFFFFFFFFFF6D
:1003A000FFFFFFFFFFFFFFFFFFFFFFFFFFFFFFFF5D
:1003B000FFFFFFFFFFFFFFFFFFFFFFFFFFFFFFFF4D
:1003C000FFFFFFFFFFFFFFFFFFFFFFFFFFFFFFFF3D
:1003D000FFFFFFFFFFFFFFFFFFFFFFFFFFFFFFFF2D
:1003E000FFFFFFFFFFFFFFFFFFFFFFFFFFFFFFFF1D
:1003F000FFFFFFFFFFFFFFFFFFFFFFFFFFFFFFFF0D
:10040000FFFFFFFFFFFFFFFFFFFFFFFFDEF9FFFF23
:1004100010B5054C237833B9044B13B10448AFF33E
:1004200000800123237010BDE009002000000000BF
:1004300014350100084B10B51BB108490848AFF34B
:1004400000800848036803B910BD074B002BFBD0A0
:10045000BDE81040184700BF00000000E40900207C
:1004600014350100E0090020000000000020704762
:10047000704700BF027C02F0080202F0FF0332B1B5
:10048000C36A406A181A48BF6FF0004070471846A8
:10049000704700BFF8B55548554D564C297803783C
:1004A0002278DFF868E1544F544E120442EA0323E5
:1004B000FF222A700270802022708EF800003870AF
:1004C000B2794F480B4312F00C0FC36002D1B379DD
:1004D000DC063DD4494A9379C3F38103032B40D012
:1004E000464B9A79C2F38102022A42D0434A937959
:1004F000C3F38103022B53D0404A9379C3F38103A2
:10050000022B61D03D4A9379C3F38103012B51D073
:100510003A4A9379C3F38103012B5CD0374B9A7924
:1005200012F00C0F03D19A79D20600D49B79354D85
:10053000354B2A7853F82240D4B1236820469B6873
:1005400098472B7804EB83046468002CF5D1F8BD40
:10055000B3799806EBD5294A9379C3F38103032B2A
:10056000BED19379D906BBD493799B06DFD4B7E784
:10057000F8BD9A79D706B9D49A799606B6D559783E
:1005800001F0020101F0FF020029AFD120211A7011
:100590001A461970937903F00C030C2BFAD1C6E7B5
:1005A0009379DD06A8D493799C06A5D4537898074F
:1005B000BDD5A1E79379DF06AAD593799E06A7D486
:1005C00053789D07B3D4A3E79379D9069AD4537887
:1005D0009B07ACD496E79379DC069FD59379980670
:1005E0009CD453789907A2D598E700BF06C007406E
:1005F00005C0074007C0074009C00740004006404B
:10060000AC560020845300204453002008C007400B
:1006100090F92410104B03604B1C06D0F0B40F4E21
:1006200056F82130984201D0F0BC70470C4F57F873
:10063000213033B18D0000245A1953685460002BC7
:10064000FAD1084C23780022013B237047F821207F
:1006500046F82120E8E700BF0C2501006453002084
:10066000445300208553002038B590F924506B1C6A
:100670001BD00E4B0E4953F825400E4BEDB24FF0F8
:10068000FF320D701A6084B1AD0002E02C44646842
:100690005CB194F82530002BF8D0236820462C4418
:1006A0001B6898476468002CF3D138BD4453002080
:1006B00084530020B8F3FF1F704700BF90F9241047
:1006C000104B03604B1C06D0F0B40F4E56F821308F
:1006D000984201D0F0BC70470C4F57F8213033B12D
:1006E0008D0000245A1953685460002BFAD1084C2D
:1006F00023780022013B237047F8212046F821206F
:10070000E8E700BF0C25010064530020445300209B
:100710008553002090F92410104B03604B1C06D029
:10072000F0B40F4E56F82130984201D0F0BC70471B
:100730000C4F57F8213033B18D0000245A195368FB
:100740005460002BFAD1084C23780022013B23701F
:1007500047F8212046F82120E8E700BF0C250100DA
:1007600064530020445300208553002010B500211D
:10077000044608F0CFFCB0B1B4F8B4319BB2C3B1B9
:10078000B4F8B031B4F8B2219BB20133632BC8BFC7
:10079000002392B2934207D09A1D04EB82029BB2CF
:1007A0005060A4F8B03110BDD4F8B8310133C4F8AA
:1007B000B831BDE8104008F069BC00BF103004F04B
:1007C0006DBA00BF00B583B002AB012203F8011D72
:1007D0001030194604F062FA03B05DF804FB00BF64
:1007E000103004F07DB900BF00B583B001220DF1D7
:1007F0000701103004F0AEF801280CBF9DF8070087
:100800004FF0FF3003B05DF804FB00BF103004F080
:100810003FBA00BF2DE9F0410E46804607F0D0FBFD
:10082000174D286005F0FAFF0746286805F0E8FF35
:100830000446286805F0D6FF6401C0B204F4FF54F2
:10084000BFB20443A7F2BC7744EA4724A8F80040AB
:10085000286805F09DFF0746286805F0A7FF0446B5
:10086000286805F0B1FFFF02640107F4FF2704F4D4
:10087000FF54C0F346003C4304433480BDE8F0819C
:10088000E44E0020B0F8B231B0F8B0119BB289B29A
:100890008B4202460FD00133632B86BF00210B46EB
:1008A00099B2063300EB83035868C2F8AC01A2F892
:1008B000B211043070470020704700BF38B50546BC
:1008C000D0F8AC0120B108F0E1FB0023C5F8AC3151
:1008D000B5F8B241B5F8B031A4B29BB29C420ED08B
:1008E0000134642C28BF0024A31D05EB8303586842
:1008F00008F0CCFBB5F8B0319BB29C42F0D19BB272
:10090000A5F8B23138BD00BF464A474B10201080D1
:100910001B781B0734D5F0B5444E454D454C317816
:100920002B782278DFF82CE1434F824042EA032300
:100930000B43FF22802132702A7022708EF8001043
:100940003970D9073D4A14D51A2393603C4F3D4E68
:100950003D4D3E4C3E49107900233B7053709370DF
:10096000D370D360337013712B70237013700870C1
:10097000F0BD1F0705D4DE0606D504239360E5E726
:10098000704721239360E1E79D0604D45C0604D5FB
:1009900016239360DAE79060D8E7180602D509239A
:1009A0009360D3E7D90502D50A239360CEE79F056C
:1009B00002D50D239360C9E75E0502D50B23936032
:1009C000C4E71D0502D51E239360BFE7DC0402D5F2
:1009D00002239360BAE7980402D507239360B5E732
:1009E000590402D506239360B0E71F0402D51523EE
:1009F0009360ABE7DE0302D524239360A6E79D0353
:100A000002D522239360A1E7DC0202D5252393605F
:100A10009CE71803F5D45903F3D49B0244BF232366
:100A2000936093E70020054002D0074005C00740CF
:100A300006C0074007C0074009C00740AC56002069
:100A400000C0074001C0074002C0074003C0074084
:100A500004C0074008C00740002976D02DE9F04FB8
:100A60000C469100631883B05D68002D57D06B1859
:100A70005E68002E50D073185F68002F49D07B1835
:100A8000D3F80480B8F1000F3CD008EB0103D3F891
:100A90000490B9F1000F32D009EB0103D3F804A0A0
:100AA000BAF1000F27D00AEB0103D3F804B0BBF171
:100AB000000F18D00BEB01035B6863B1194401937D
:100AC0004968FFF7C9FF019B93F825201AB11A68FE
:100AD0001846536898479BF8253023B1DBF800305F
:100AE00058465B6898479AF8253023B1DAF8003009
:100AF00050465B68984799F82530002B35D198F817
:100B0000253063BB97F825301BB13B6838465B68DE
:100B1000984796F82530CBB995F8253063B994F805
:100B2000253013B903B0BDE8F08F23685B68204619
:100B300003B0BDE8F04F18472B6828465B6898471C
:100B400094F82530002BEDD0EFE77047336830463E
:100B50005B68984795F82530002BE0D0ECE7D8F893
:100B6000003040465B689847CCE7D9F800304846EB
:100B70005B689847C3E700BF90F92420531C26D038
:100B80001B4B2DE9F04153F82240D2B2ECB1930057
:100B9000E1184D68B5B1E9184E6866B1F1184F68B3
:100BA00037B13B445968FFF757FF97F82530A3B991
:100BB00096F8253063B995F825301BB12B68284687
:100BC0005B68984794F8253063B9BDE8F0817047B9
:100BD000336830465B689847EDE73B6838465B68AA
:100BE0009847E5E7236820465B68BDE8F041184771
:100BF000445300202DE9F0472F4DB5F8B021B5F84A
:100C0000B23192B29BB29A4238BF6432D31A3F2BB0
:100C10003ADD2A4CDFF8A0A004F580494FF0000827
:100C20001AE006F06BFD304608F030FAC5F8AC81EA
:100C30002148FFF727FE4FF480720146204606F058
:100C40005DFDD5F8AC0118B108F020FACAF8AC8106
:100C500004F500744C4519D0D5F8AC61A4F5807743
:100C60004FF4807200213846002EDAD11248FFF787
:100C700009FEDAF8AC6101464FF48072384606F09E
:100C80003DFD002ED4D0CEE7BDE8F0874FF4804282
:100C90000B490C4804F002F8013005D00A4A1368E9
:100CA00020331360BDE8F0870121142006F0D8FF3F
:100CB000064B074A1A60F1E7F84E0020680B002047
:100CC000680A0020400A0020F44E00200CED00E0ED
:100CD0000400FA0508B50849084A094B098811803B
:100CE00008480022A3F8B42103F0D0FC6420BDE83A
:100CF000084007F097B900BFC45400209C5400205E
:100D0000F84E0020400A002070B517488EB003F05E
:100D1000BDFC16490EAD01F23C4003F015FE144B2C
:100D200045F8343D00244623124A0F498DF81440FB
:100D300005A84FF47A768DF815408DF808408DF8A7
:100D40001040039603F0A6FD9DF8143053B12922FC
:100D5000094905A803F0A2FF284608F0D7FB05A81B
:100D600003F094FC0EB070BDA84E00206C4A002029
:100D7000E82401003025010038250100264B1B68BE
:100D80000F2B0CD8DFE803F00C1014181C202428BB
:100D90002C3034383C404408204B214A1A607047BC
:100DA0001E4B204A1A6070471C4B1F4A1A6070473E
:100DB0001A4B1E4A1A607047184B1D4A1A6070473A
:100DC000164B1C4A1A607047144B1B4A1A60704736
:100DD000124B1A4A1A607047104B194A1A60704732
:100DE0000E4B184A1A6070470C4B174A1A6070472E
:100DF0000A4B164A1A607047084B154A1A6070472A
:100E0000064B144A1A607047044B134A1A60704725
:100E1000024B124A1A60704700FAFF1F445100202B
:100E2000BD549341103377C0993918C0BE0D68BFC7
:100E3000CE71153F8D090340CCC9624009A7A3407C
:100E40007DDBD140C416014154FC1741D0E830414C
:100E5000195546419FAB5F41A04176415E2E8641C8
:100E6000F0B5214BB0F9086059689A68054685B01D
:100E7000186801AC07C406F11E03B2074FEAA307C6
:100E8000297929D04FF0000E184E194ADC1B06FBB9
:100E900007F302FB0433012903EB0E0209DD01AB6A
:100EA000481E144C184413F8011B984204FB0122FD
:100EB000F9D16B78AE782C78E9780E48C3EB031340
:100EC0004FF461659B0005FB06332344013900FBA9
:100ED0000130104405B0F0BD064A032934BF4FF07D
:100EE000000E9646D0E700BF182501000085E201FC
:100EF0008033E1018051010070B472B61B491C4B74
:100F00001C4841250E2480220D70047019461A7069
:100F10000B78174A1806FBD5174B18481D78184C44
:100F200018490570033B247809781B78C370447016
:100F3000817062B672B60D490E4C41260F25802392
:100F40000E702570114613700B781B06FCD50A4CE9
:100F50000B490C4A0C4B2478097812781B78C37122
:100F600004714171827162B670BC70470700024023
:100F700000000240060002400B00024038510020F1
:100F80000A000240090002400800024038B500256E
:100F90000824152006F084FD09F04CFD4FF06A513D
:100FA00009F09CFD0146284609F090FC013C0546ED
:100FB000EFD1044909F092FD4FF0785109F08EFD10
:100FC00038BD00BFCDCCBC402DE9F04F95B006F048
:100FD000F7FFAE4EAE4C306005F012FC236898422D
:100FE00000F03B823068AB4FDFF8E4A205F008FC6C
:100FF0002060306805F012FC2368A7490246A74824
:101000000AF098FF00240123A44AA549C7F800A0CC
:1010100007A88DF81C408DF81D4003F0E1FBDFF8B8
:101020007C820021152006F0F7FF98F800200023AD
:101030002F2A8DF81C308DF81D3000F0A08107ACF0
:1010400020460123954A964903F024FC58B19DF8A7
:101050001C3013F0700F06D00FCC914D0FC50FCC84
:101060000FC523682B603068DFF8689205F0D6FB67
:101070000446306805F0C4FB0546306805F0B2FB55
:101080000590306805F084FB8346306805F08EFBE0
:101090000490306805F098FB059A049B8149009202
:1010A000039022460293CDF804B02B467E480AF006
:1010B00041FFC7F800A0FFF769FF0746784803F033
:1010C000E5FA7A4901F23C4003F03EFC0024462355
:1010D0000BA84FF47A75764A71498DF82C408DF83B
:1010E0002D408DF820408DF828400995CDF81C90B2
:1010F00003F0D0FB9DF82C30002B40F04E810121F5
:10110000142006F0ADFD6B4B6B4A1A6098F8002076
:10111000624900232F2A8DF81C308DF81D3000F015
:10112000218107A801235D4A5D4903F0B3FB60B14B
:101130009DF81C3013F0700F07D007AC0FCC584D42
:101140000FC50FCC0FC523682B604FF47A750024B0
:101150000995C223544A52498DF82C400BA80BAD77
:101160008DF82D408DF820408DF82840CDF81C904A
:1011700003F090FB0FCD514E9DF82040347106F1E5
:1011800010040FC40FCD0FC4099A9DF828302968A8
:10119000B2603373444821600AF032FF014642488E
:1011A000474FDFF810B1DFF810A107F0E7FD454821
:1011B00008F0ACF946E003F06DFB60B19DF81C301F
:1011C000374D13F0700F07AC05D00FCC0FC50FCC07
:1011D0000FC523682B604FF47A750024C223324A6E
:1011E0002F4909950BA80BAD8DF82C408DF82D409B
:1011F0008DF820408DF82840CDF81C9003F04AFB74
:101200000FCD314C9DF820E086F804E00FC40FCDDF
:101210000FC49DF82830099A33732968B2602248B8
:1012200021600AF0EDFE01461F4807F0A7FD2548A2
:1012300008F06CF90A2006F0F5FE3B68B3F57A7FFA
:1012400000F38980347C21491748002C44D13B6845
:1012500001331A463B600AF06DFE98F800500F4AC1
:101260000F498DF81C402F2D4FF0010307A88DF872
:101270001D40A0D15478002C9DD1084603F006FAF9
:101280000A4901F23C4003F05FFBA4E7E44E002072
:101290000C5200204053002064250100B85000206B
:1012A000A84E002070250100745100206C4A0020D7
:1012B000302501000CED00E00400FA05300A0020A2
:1012C000B450002080FFFF1F400A0020BC25010011
:1012D00015080000E82401006F4870490768704C49
:1012E000704A714B714D03C9206092E80300A06001
:1012F00093E8030010260123A382E382E0602661C5
:10130000384609F0D7FD3946A061384609F0DEFAC3
:1013100009F0D0FD664AE0612B68668492E803001C
:101320005B0203F124062C226062214602276148F9
:10133000A3622784666003F0B1FC09215E4807F0D0
:101340001DFD29685D4808F047F95C4808F0DEF8A3
:1013500015B0BDE8F08F0121142006F081FCCBF818
:1013600000A06FE74B78002B7FF4DBAE544803F00E
:101370008DF9544901F23C4003F0E6FAE5E698F8AD
:101380000130002B7FF45BAE4D4803F07FF94D49EF
:1013900001F23C4003F0D8FA65E64B484B4D0AF0A9
:1013A0002FFE494902460BA803F078FC14A92C2310
:1013B00001F8383D01220DEB030003F06FFC05F14D
:1013C000080607AC15F8011F00230A22204608F082
:1013D000C3F8AE42F6D114A92C25012201F8355DDF
:1013E0000DEB050003F05AFC394B186808F0CCFEF1
:1013F00002260B4602460096204608F0F5F814A98E
:10140000012201F8365D0DEB050003F047FC38467C
:1014100008F0BAFE00960B460246204608F0E4F8B3
:1014200014A9012201F8375D0DEB050003F036FC2D
:1014300028480AF0E5FD274902460DEB050003F0B8
:101440002DFC204608F062F83846234909F0E4FCF8
:1014500038B90BA803F01AF958E6204FDFF884A03A
:10146000DDE528221E490DEB050003F017FC2046A0
:1014700008F04CF80DEB050003F008F903E047F223
:10148000305006F0CFFDFFF781FD134909F0C4FC91
:101490000028F4D1DDE700BFF4510020C825010089
:1014A00050520020D0250100D8250100D451002041
:1014B000E0250100400A0020E825010080FFFF1F11
:1014C000A84E00206C4A00207451002037510020A3
:1014D0004451002008FAFF1F000040404053002004
:1014E000902501001508000010B5064CFFF76CFDB3
:1014F000054B002220461A60FFF7E0F90123A4F80B
:10150000B43110BDF84E0020F44E002070B58EB0FE
:1015100004460AF075FD00B201281BDDB4F9003065
:1015200044F25372934200F0A08016DD44F6545208
:10153000934260D045F25322934227D044F6521290
:10154000934207D10BAAE01C52490AF019FD524BF5
:101550000B9A1A6001200EB070BD44F24E429342C5
:101560000ED044F252429342F4D10BAAE01C4949F6
:101570000AF006FD494B0B9A1A6001200EB070BDAF
:10158000474B012201201A600EB070BD0AAD09A9B7
:1015900008AA05AB039502910192009307AA06AB36
:1015A000E01C4049404C0AF0EBFC079B0A98069A65
:1015B0000599099E089D8DF82C00A3F5FA630BA8E8
:1015C000ADF834308DF830208DF82F108DF82D6067
:1015D0008DF82E50FFF744FC12212060334807F0AD
:1015E000CDFB2168324807F0F7FF314807F08EFF46
:1015F00001200EB070BD0AAD09A908AA05AB03957C
:1016000002910192009307AA06ABE01C25490AF05B
:10161000B7FC079B0A98069A0599089C099D8DF8C6
:101620002C00A3F5FA630BA88DF830208DF82F104D
:10163000ADF834308DF82E408DF82D50FFF710FCAA
:10164000194B0446186006F0C1FC0B21194807F03D
:1016500095FB214600230A22154807F07DFF144818
:1016600007F054FF01200EB070BDE01C0BAA094921
:101670000AF086FC0B9B0F2B08D90F4B0421196035
:101680000E2006F0EDFA01200EB070BD0A4AD9B264
:101690001360F5E71426010040FAFF1F34FAFF1F1C
:1016A000640A0020F4250100EC4E002018260100F9
:1016B00080FFFF1F0826010000FAFF1F2DE9F043FD
:1016C000A3B000254FF47A76764F77480A968DF8C6
:1016D00030508DF831508DF824508DF82C500897EB
:1016E00002F0D4FF714901F23C4003F02DF90123CF
:1016F0006F4A6D49179619A88DF864508DF865509A
:101700008DF858508DF86050159703F0C3F80DF11F
:10171000640EBEE80F000CAE0FC6BEE80F000FC689
:101720009DF83080DEF800109DF85800179A9DF85B
:10173000603031608DF824000A928DF82C30B8F1B9
:10174000000F46D02E468DF800604FF000094FF094
:10175000FF08012215A90CA803F0FCF809F1010308
:1017600022AA01284A441BB224D01D2B02F8888CDF
:1017700005DC9946EDE71D2B01DC0A2AF9D1013B76
:101780009BB222AA1A4402F8886C9DF800202F2AE6
:1017900004D0012B02D96846FFF7B8FE9DF830301F
:1017A0001B0711D40CA802F071FF2DBB012023B040
:1017B000BDE8F0839DF854200D2A08BF4B4662D146
:1017C0001D2BDCDC9946C4E7139A119B9A42BAD1CF
:1017D000E8E71421374807F0D1FA374807F096FEBA
:1017E0000D223649364807F07DFE354807F08EFE5B
:1017F000404623B0BDE8F0830B21324807F0BEFA23
:1018000000230A2221462C4807F0A6FE2A4807F0AA
:101810007DFE254802F03AFF2449002501F23C40B4
:1018200003F092F84FF47A768DF864508DF8655095
:101830008DF858508DF8605063231D4A1A49179649
:1018400019A819AD159703F025F80FCD0CAE0FC6EA
:101850000FCD0FC62968179A9DF860309DF8585033
:1018600031600CA821460A928DF82C308DF8245056
:1018700003F06AF9022214490CA803F00FFA0CA82D
:1018800002F004FF92E722AB03EB0901542A09F1AD
:10189000010301F8882C1BB27FF46DAF119C054643
:1018A000013C8DE7E8240100A84E00206C4A00208E
:1018B0002C2601004826010080FFFF1F6026010042
:1018C0009C510020382601004426010030B583B029
:1018D00002AD079C05F8082D8DF80200069A8DF8D8
:1018E00004304E3428468DF801108DF805208DF80F
:1018F000064004F0A3FF06F069FB06F061FB024B13
:10190000186003B030BD00BF684A00202DE9F041E7
:10191000044604200D46164606F070FB8046032060
:1019200006F06CFB0746B8F1000F2ED1DFF8888077
:101930001F4AD8F800300121132B11702DDD01331F
:10194000C8F800300134BFB91A4F194A3B68012169
:10195000132B11701DDD092CC8BF3B6804F1FF3447
:10196000CCBF01330123AC423B600ADBB442C8BFA9
:101970002C462046BDE8F0810E4B0022AC421A6096
:10198000F4DA34462046BDE8F0810B4B00221A60A1
:10199000D9E7C82006F046FBDDE7C82006F042FB89
:1019A000D8F800300133C8F800300134CBE700BF6D
:1019B000E84E002004520020F051002010B5094CE0
:1019C000204605F059FC2046012105F0ABF92046E0
:1019D000022105F0A1F9002220461146BDE8104081
:1019E00005F096B99C5100202DE9F04383B006F034
:1019F000E7FA7E4B7E4D186001217E487E4C7F4F7A
:101A00007F4EDFF84C92DFF84C8205F085F901211A
:101A1000784805F087F912220021764805F078F918
:101A200004227849734807F05DFD2968714807F082
:101A3000D3FD022274496F4807F054FD6D4807F04A
:101A400065FD062271496B4807F04CFD2168694825
:101A500007F0C2FD03226E49664807F043FD654862
:101A600007F054FD3B6856F8230008F0E3FF69498E
:101A700009F0E8F808F088FB0B46024666495D4825
:101A800007F05CFD012265495A4807F02BFD644BC5
:101A9000186808F079FB0B4602466249554807F082
:101AA0004DFD07226049534807F01CFD01215148B4
:101AB00005F032F92D683B68284656F8237008F087
:101AC000B9FF06462068284408F0B4FF01463046B6
:101AD00009F0B8F8014604464FF07E5008F0F4FED5
:101AE000524B196808F0FAFF514B06461968204618
:101AF00008F0F4FF0146304608F0E8FE0146D9F848
:101B0000000009F09FF84B4908F0E8FF09F0D2F90E
:101B1000494B064618680023C8F8003000284ED00C
:101B200008F084FF8146680007FB00F02C3008F0C5
:101B300081FF4FF08E4108F0C9FE364909F082F866
:101B4000344909F07FF80146484609F07BF808F06F
:101B50001BFB08F02DF908F043FE034600FB05F0DF
:101B6000C8F8003008F062FF214609F06BF804461F
:101B7000304608F05BFF0146204609F06BF900BBD8
:101B800001462E221B4805F0C3F80D222B491948A7
:101B900007F0A8FC20462A4909F054F808F0F4FAA6
:101BA000022402460B460094124807F01DFD254909
:101BB0001048012203B0BDE8F04307F093BC0020B9
:101BC000D2E72E2200210B4805F0A2F80E221E4972
:101BD000084807F087FC1D490648A1FB0631090C9F
:101BE00000230A2207F0B8FCE1E700BFE44E002022
:101BF00034FAFF1F9C51002040FAFF1F30FAFF1FEC
:101C000014FAFF1F70260100782601007C260100CF
:101C10008426010000007A4488260100B0270100D4
:101C200044510020102801009426010038FAFF1FBB
:101C300044FAFF1F000061454C520020AC26010011
:101C400000C0A847042601009C26010007452EC2BB
:101C50003CFAFF1F0052002038B5054604F0DEFDB7
:101C60001E4C0146204607F0B7FC2D2007F00AF96C
:101C7000284604F0C5FD0146204607F0ADFC2D20A6
:101C800007F000F9284604F0ADFD0146204607F0B4
:101C9000A3FC0121124807F071F8284604F078FDF2
:101CA0000146204607F098FC3A2007F0EBF828465A
:101CB00004F07CFD0146204607F08EFC3A2007F038
:101CC000E1F8284604F080FD0146204607F084FC38
:101CD0002046BDE8384007F019BC00BF80FFFF1F59
:101CE000B027010038B5054605F0A0FF074C20706D
:101CF000681C05F09BFF6070A81C05F097FFA070A2
:101D0000E81C05F093FFE070206838BD48510020C2
:101D100008B50020FFF7E6FF154B18600420FFF719
:101D2000E1FF144B1860082005F080FF124B18707B
:101D3000092005F07BFF114B18700A2005F076FF93
:101D40000F4B18700B2005F071FF0E4B18700C2014
:101D500005F06CFF0C4B18600D2005F067FF0B4B76
:101D600018600E2005F062FF094B186008BD00BF27
:101D700034FAFF1F40FAFF1F2C0A002044520020B3
:101D800070510020F04E0020D851002030FAFF1F83
:101D900000FAFF1F38B50A4C0B460546C9B223604E
:101DA00005F05EFF6178681C05F05AFFA178A81C59
:101DB00005F056FFE178E81CBDE8384005F050BF5B
:101DC0004851002008B5174B00201968FFF7E2FFC3
:101DD000154B04201968FFF7DDFF144B0820197814
:101DE00005F03EFF124B0920197805F039FF114B21
:101DF0000A20197805F034FF0F4B0B20197805F0F5
:101E00002FFF0E4B0C20197805F02AFF0C4B0D20EC
:101E1000197805F025FF0B4B0E201978BDE8084016
:101E200005F01EBF34FAFF1F40FAFF1F2C0A0020E6
:101E30004452002070510020F04E0020D851002064
:101E400030FAFF1F00FAFF1F2DE9F04F83B00F4655
:101E50000190806800210130164608F001FE01461D
:101E6000294808F0EFFE0446304608F0DFFD014641
:101E700008F02CFD0646384608F0D8FD01463046ED
:101E800008F02CFE0146204608F0DCFE4FF0010869
:101E90004FF07E550746C1464FF0010A4FF0000B48
:101EA000504608F0C7FD394608F018FE044608F011
:101EB000DBFF08F0BFFD0146204608F005FD29467E
:101EC000064608F0A9FF4FF0874148B1204608F0C8
:101ED000A3FF28B1204609F00DF835468046D146CB
:101EE0001AF1010A4BF1000BBBF1000F08BFBAF168
:101EF000400FD5D1019809F1FF3208F1FF3380E896
:101F00000C0003B0BDE8F08F4054094C30B50A46D0
:101F1000102A85B0014627D0202A04BF012303934D
:101F200001A8FFF791FF1249124D0B68124C13489C
:101F300023F010430B60019A029B120302F47F22EC
:101F4000C3F30B0313432B609DF80C3043F0E063A5
:101F500023609DF80C3043F08E4303600B6843F020
:101F600010430B6005B030BD03230393D8E700BFD7
:101F700080F0024004F1024008F0024088F0024084
:101F80002DE9F04F05469D4E9D4FDFF88C8296F867
:101F900000E02F60FF2085F82400DFF8809298F899
:101FA0000000BEF1060F59F820E04FF000038DB09D
:101FB0000C4685F8253085F8263098BF3370BEF181
:101FC000000F00F0AD808E455ED07346810001E0C9
:101FD0009C4259D00B445B68002BF9D1734600E05A
:101FE00053460B44D3F804A0BAF1000FF8D15C605B
:101FF0003478029705EB010B4FFA80FCFF23062C87
:10200000CBF804A08DF82DA08DF82EA085F824C063
:102010008DF82C30744604D800233370002C00F067
:10202000B480A24229D0234601E0934225D00B443C
:102030005B68002BF9D104EB010EDEF80440002CA4
:10204000F9D1CEF804200CAB1944BCF1FF3F00F1EC
:1020500001034FF0000041F8240C88F800308DF89F
:102060002CC0029705D0674951F82C2002AB9A4248
:1020700076D028460DB0BDE8F08F013088F800001A
:1020800028460DB0BDE8F08F31780297FF24002379
:1020900006298DF82C408DF82D308DF82E30574CB8
:1020A00000D823709645E8D07346810001E09A423B
:1020B000E3D00B445B68002BF9D18E44DEF804407A
:1020C0002CB1A6468E44DEF80440002CF9D10CABAE
:1020D00046B219440130731CCEF8042088F8000081
:1020E00041F8244C02978DF82C60C2D0454951F834
:1020F000262002AB9A42BCD159F82630B00023B159
:102100001A1853685460002BFAD198F80030002256
:10211000013B88F8003049F8262041F82620A8E73E
:1021200000283AD0374B96F800E043F82050810061
:1021300005EB010C002349F820408DF82D30CCF838
:1021400004308DF82E304FFA80FCFF23BEF1060FCD
:10215000029785F824C08DF82C307FF65DAF5DE7DF
:1021600059F82C304FEA8C0423B11A195368506087
:10217000002BFAD198F800300022013B88F800309B
:1021800049F82C2041F82C2073E7E8B11D4B49F8A1
:10219000202002AA43F8202055E71B491B480B6862
:1021A000019243F080630B600368194923F0804378
:1021B0000360152005F03CFE164B019A4FF4001108
:1021C000196098F80000ADE70F4C104823680192A1
:1021D00043F08063236003680D4923F0804303606C
:1021E000152005F025FE0B4B019A4FF400111960E4
:1021F00098F800004FFA80FC8100C7E7BCF3FF1F8E
:102200000C25010064530020047004400070044059
:102210009504000000E100E08553002044530020B5
:102220002DE9F041584D594C594E05F0B7FC4FF08F
:10223000FF31584805F00CF82A68266000236372C5
:1022400023612372E3600AB99AE01A465369002BAE
:10225000FBD154610027504B4C486761A780E78051
:10226000236001F033FC4D4A4FF0010E02F11801DA
:102270003B4638461772D760166082F809E0116154
:10228000174600E0396941F82300517A434E013383
:102290009942F7DC29683C4B09B973E019464B6950
:1022A000002BFBD14A613E4B3E491C60002418467E
:1022B00054619480D480A2F8B0411160A2F8B24178
:1022C0005A60C2F8AC41A2F8B441C2F8B8411C72DD
:1022D0005C72DC6006F02AFF334A344B5069344AA2
:1022E0001A6008F0A7FB334D334B344E18604FF0A3
:1022F000FF08334B334A344985F8254028460127E7
:1023000085F824802B606C63AC6385F83C4085F8CD
:10231000267008F09DFF2D4B2A4A2D4986F824800F
:10232000304686F82540336086F8274086F82840F6
:1023300086F8267008F08CFF2A4631462548264D3F
:10234000FFF71EFE1F4A2549224808F081FF244A54
:10235000244B2549147464204FF47A765474147114
:102360001473DC7183F83C4483F83D4483F86A4479
:1023700083F8600496601560C3F86C14BDE8F081C2
:102380002C6067E71E608EE79854002054510020AF
:10239000DC2401009C510020A4280100F84E0020FC
:1023A0001C5100202C25010014FAFF1F2C51002085
:1023B00088280100D4500020F4510020145200203D
:1023C0004C290100FCF9FF1FBD0600006029010037
:1023D00015070000040A0020E8240100110600008F
:1023E000300A00206C4A00200000023870B5104C02
:1023F00006460D4620460A2101F0D4FEC6F3072109
:10240000204601F0A9FCF1B2204601F0A5FCC5F37D
:102410000721204601F0A0FCE9B2204601F09CFC17
:10242000204601F0D1FEB0FA80F0400970BD00BF37
:102430002453002008B500213020FFF7D7FF0021EA
:102440000220BDE80840FFF7D1BF00BF08B5A221B8
:102450003020FFF7CBFF43210220BDE80840FFF703
:10246000C5BF00BF0238032810B503DC002871DAAD
:10247000002400E00C2444F260013020FFF7B6FF96
:102480006C212620FFF7B2FF4FF4F8712820FFF7E8
:10249000ADFF00212A20FFF7A9FF40F622712C2072
:1024A000FFF7A4FF44F246413C20FFF79FFF40F2B4
:1024B00037112420FFF79AFFFFF7C8FF4FF4C870C9
:1024C00005F0B0FD41F619112E20FFF78FFF2146D0
:1024D0000420FFF78BFF4FF498710620FFF786FF6B
:1024E00000210A20FFF782FF08210E20FFF77EFF60
:1024F0004FF63C711020FFF779FF47F67F712220DD
:10250000FFF774FF00214FF49270FFF76FFF142163
:102510002420FFF76BFF104C00212A20FFF766FFF5
:1025200009210E4806F02AFC00230A2221680C48E3
:1025300007F012F80A4806F0E9FF21682020FFF7AB
:1025400055FF0146064807F047F8054806F0DEFF4C
:10255000012010BD84008EE700FAFF1FBC26010099
:1025600080FFFF1F10B5074B0446102153F82000D1
:10257000FFF7CCFC044801F095FC2046BDE8104074
:10258000FFF770BF14FAFF1F2453002010B501227B
:1025900004460849084806F0A5FF092C03DC302151
:1025A000054804F07BFB21460348BDE8104007F0D6
:1025B00013B800BFA02701009C51002038B5044685
:1025C0000D462348012104F0A7FB2AB20021204830
:1025D00004F09EFB204604F021F901461C4806F059
:1025E000FBFF2D211A4804F059FB204604F008F99E
:1025F0000146174806F0F0FF2D21154804F04EFB68
:10260000204604F0EFF80146114806F0E5FF0222EB
:1026100010490F4806F066FF204604F0B9F8092873
:1026200003DC30210A4804F039FB204604F0B0F8FE
:102630000146074806F0D0FF204604F0B7F8FFF740
:10264000A5FF204604F0C0F8BDE83840FFF79EBF64
:102650009C510020C82601002DE9F0419B4D2C68BB
:1026600024B1012C5BD030BFBDE8F08105F0A8FC9F
:10267000974E984C3060FFF7A1F90A229649974887
:1026800006F030FF954806F041FF20681421FFF75F
:1026900095FF30683721FFF791FF904804F066FFFF
:1026A0008F4A33681268934280F29A8022689A4275
:1026B00032DC8C4E3368002B4FD00D218A488B4E74
:1026C00006F05CFB8A4806F021FF8A4B8A4A2168A3
:1026D0001B68126889480B441A440E21226033603B
:1026E00006F04CFB05F06CFCFFF7B6FA0B218448B2
:1026F00006F044FB3068FFF7AFFA0B21814806F083
:102700003DFB2068FFF7A8FA0123AE2173482B6038
:1027100004F0BAFDFEF7E8FE2C68012CA3D1FEF709
:1027200069FA042005F06AFC0646032005F066FC01
:1027300006B9D0B1744C754B22681B689A4292DB83
:102740006D4B1E68002E51D1714801F09FFFFEF7BE
:102750003BFC266030BFBDE8F0810A210E20FFF768
:1027600045FE4FF0FF333360A7E7674B694D1B68A9
:10277000694E67485B02002203F124071146AB62F1
:10278000A6F8B4216F6002F0DFF929462C226048D8
:1027900002F084FA5E4801F079FF23463C220221D0
:1027A0004E4804F0D9FD642005F03CFCFFF706F923
:1027B00007225A49494806F095FE484806F0A6FE09
:1027C0002146464804F0A8FA10225549434806F02D
:1027D00089FE424806F09AFE404804F0C7FEFEE734
:1027E0000121052005F004FC33685FE7FEF772FA6B
:1027F000384B4C4E1C684C4F05F0E2FB4B4A4C4B9F
:102800001268201A841A24EAE47483FB0423234404
:10281000E017C0EBE32007F0A5FC07F0C9FA07F0CA
:10282000B7FF444B444A306003FB004482FB043250
:1028300022448046E017C0EB621007F093FC07F0DB
:10284000B7FA07F0A5FF0201131A821A04EB8204FB
:102850009B004FF4616202FB08333C60DFF8E880C4
:102860001C44092CC8F8000011DC0721334806F08D
:1028700085FA1F4806F04AFE01233C220221174830
:1028800004F06AFD00232B6030BFBDE8F081002119
:10289000022005F0ADFBFFF7CDFD642005F0C2FB83
:1028A0003B7898F800203178254803F059FE2548F8
:1028B00003F02CFC0121022005F09AFB4FF49670E6
:1028C00005F0B0FBFFF7C2FDCFE700BF000A002014
:1028D000E44E0020EC4E0020CC2601009C5100204C
:1028E000FC510020640A0020D8260100405100203D
:1028F00080FFFF1F34FAFF1F40FAFF1FE826010088
:10290000F826010004270100F44E0020D4510020D5
:10291000400A002050520020F84E002010270100ED
:1029200018270100DC510020F851002004FAFF1F95
:10293000C5B3A291F0F1FFFF898888882C27010098
:10294000D4500020040A00206C5100202DE9F04FE3
:10295000AF4DB048B04FB14EB14C87B0052106F035
:102960000DFA00230A222968AE4806F0F5FDAD48AD
:1029700006F0CCFD0B21AC4806F000FAA94806F0A1
:10298000C5FDFFF7C5F9FEF7F9F90521A14806F0E5
:10299000F5F900232968A3480A2206F0DDFDA148C5
:1029A00006F0B4FD05F00CFB3860FFF707F80922CC
:1029B0009E499F4806F096FD01219D4804F0ACF920
:1029C000102200219A4804F0A3F91222994998484C
:1029D00006F088FD964806F099FD00239148336083
:1029E00006F094FD8F4806F091FD0521924806F00F
:1029F000C5F98F4804F0BAFD0721904801F004FDA5
:102A00000E218E4801F05EFD04F58C680C218B4888
:102A100001F02AFD404604F26C414FF038430A228F
:102A200002F0F4FF002840F001831C21844806F0E6
:102A3000A5F97C4806F06AFD062282497C4806F02A
:102A400051FD7B4806F062FD794804F08FFD7E4A17
:102A50007E4B12689A4200F24583DFF820927B4B4E
:102A6000D9F800209A4200F24C83794B1A78172A41
:102A700000F25383774B1A783B2A00F25983764B46
:102A80001A78172A00F25F83744B1A783B2A00F2F7
:102A90006583DFF8EC81D8F80030012B06D90023DC
:102AA00019460C20C8F8003005F0DAF86C4B1B68AA
:102AB000042B00F261832B68554A0F2B00F25583DB
:102AC000684D694E082005F099FAE8B92B68013382
:102AD0002B6002E00A2005F0A5FA082005F08EFA26
:102AE0000028F7D02A68D8F80030A2F10901B3FA1B
:102AF00083F304294FEA531300F26082002B00F0A5
:102B00005D82584A0E231360FEF758FF05F058FA0D
:102B10003C682B683060041B0E2B28D8DFE813F0CC
:102B200087016B013E02C10100022D01F4003A0051
:102B3000B600270027002700270027000F00484B7A
:102B4000052200211868FEF7E1FE454B1860474B4F
:102B500053F8200007F06EFF454908F073F807F0BE
:102B600013FB02460B463248424906F0E7FCFEF7EB
:102B70003BFF05F025FA3721FFF720FD2C4804F034
:102B8000F5FC0A2005F04EFAB4F5167F9ADD07B081
:102B9000BDE8F08F03F00AFEDFF8E8B0DFF8E8A048
:102BA000CBF800003B220021FEF7B0FEDBF800303E
:102BB000CAF8000098421DD0306803F0E9FD834652
:102BC0003068DAF800A003F0FFFD0590306803F0EC
:102BD00009FE0490306803F013FE0390306803F0A0
:102BE0001DFE039900910190049B059A5146584699
:102BF000FEF76CFE072220490D4806F073FC05F035
:102C0000DFF903F0D3FD0146094806F0E5FCAEE725
:102C100000FAFF1F68270100684A00204C5200207C
:102C20006C4A002080FFFF1F702701007C270100F5
:102C30009C510020882701009C2701004CFAFF1FAF
:102C4000342701001828010034FAFF1FA086010074
:102C50002C0A00204452002070510020F04E002029
:102C600030FAFF1FD0500020E44E002014FAFF1F5E
:102C700000007A440C280100FC27010040FAFF1FE5
:102C8000D851002050510020E04E002003F09CFD60
:102C9000DFF870B3DFF870A3CBF800003B2200210F
:102CA000FEF734FEDBF80030CAF8000098421DD071
:102CB000306803F06DFD8346306803F077FD0590C2
:102CC0003068DAF800A003F08DFD0490306803F05E
:102CD00097FD0390306803F0A1FD039A00920190E4
:102CE000049B059952465846FEF7F0FD0722B84965
:102CF000B84806F0F7FB05F063F903F065FD0146FF
:102D0000B44806F069FC32E703F042FDDFF8FCA2AC
:102D100017220021CAF80000FEF7F8FDDAF80030AB
:102D2000984283461BD0306803F040FD82463068ED
:102D300003F04AFD0590306803F054FD04903068BC
:102D400003F05EFD0390306803F068FD0399009185
:102D50000190049B059A51465846FEF7B7FD05229F
:102D60009D499C4806F0BEFB05F02AF903F010FDD2
:102D70000146984806F030FCF9E603F033FDDFF831
:102D800090B2DFF890A2CBF800001F220121FEF7DD
:102D9000BDFDDBF80030CAF8000098421DD0306855
:102DA00003F0F6FC8346306803F000FD05903068C0
:102DB00003F00AFD04903068DAF800A003F020FD6B
:102DC0000390306803F02AFD039B00930190534663
:102DD000049A05995846FEF779FD04227F497D48FB
:102DE00006F080FB05F0ECF803F0FCFC01467948A6
:102DF00006F0F2FBBBE67A4B4FF4616201211868E2
:102E0000FEF784FD764B774918600422714806F07E
:102E100069FB734B19686F4806F0DEFB01227249AB
:102E20006C4806F05FFB6B4806F070FB9FE6DFF82E
:102E3000E8A19AF80030002B40F0A6810A226B49E5
:102E4000644806F04FFB042005F0D8F882460320C2
:102E500005F0D4F8BAF1000F7FF489AE00287FF4B2
:102E600086AEFEF7ABFDFEF7ADFF0A22604959487A
:102E700006F038FB574804F079FB40F2DC5005F0CF
:102E8000D1F8FEF7B1FD05F09BF83721FFF796FB6F
:102E9000504804F06BFB0A2007B0BDE8F04F05F086
:102EA000C1B803F0BBFCDFF874B1DFF874A1CBF854
:102EB000000040F634024FF4FA61FEF727FDDBF81C
:102EC0000030CAF8000098421CD0306803F060FC63
:102ED0008346306803F06AFC0590306803F074FCA8
:102EE0000490306803F07EFC0390306803F088FCA7
:102EF000DAF80030049A05998DE80900039B5846DA
:102F0000FEF7E4FC05223B49324806F0EBFA05F0F7
:102F100057F803F083FC01462E4806F05DFB26E6D9
:102F200003F06EFCDFF8FCB0DFF8FCA0CBF800008B
:102F30000C220121FEF7EAFCDBF80030CAF80000A1
:102F400098421DD0306803F023FC8346306803F0BC
:102F50002DFC0590306803F037FC0490306803F0D6
:102F600041FC03903068DAF800A003F057FCCDF87C
:102F700000A00190039B049A05995846FEF7A6FC11
:102F800006221D49134806F0ADFA05F019F803F0C2
:102F900037FC01460F4806F01FFBE8E5174AD9F851
:102FA00000000021FEF7B2FC1549C9F80000042218
:102FB000084806F097FAD9F800102CE70E2A7FF798
:102FC000A3AD002B3FF4A0AD00232B609CE500BF18
:102FD000042801009C510020F4270100EC27010087
:102FE00034FAFF1F70260100D0270100B827010026
:102FF000C4270100DC270100E42701008051010003
:10300000D42701001052002014510020FC09002098
:10301000CC50002048520020E84E002008520020EA
:103020004C510020405200201851002004F23C4036
:10303000C4F8008001F02AFB0121204602F09AFB2F
:10304000002800F0AA80DFF81C8208F23C494846BC
:10305000414601F079FC00283FF4E7AC98F83C3495
:1030600013F0700F3FF4E1AC704C714B08F58C60BD
:1030700022460921C3F8009002F0A8FD237813F03E
:10308000C00300F09280402B00F0C5800D216948FC
:1030900005F074FE002319460A22674806F05CFA20
:1030A000654806F033FA00240021316000230A222B
:1030B000624806F051FA01226149604806F012FAAE
:1030C00000230A2221465D4806F046FA5B4806F0D6
:1030D0001DFA5A4804F04AFA5A4A5B4B12689A425F
:1030E0007FF6BBAC3C23574ADFF87C91136019464E
:1030F0000020FEF74FFE544BD9F800209A427FF68D
:10310000B4AC3C2319460420C9F80030FEF742FE57
:103110004E4B1A78172A7FF6ADAC002211460820D4
:103120001A7004F09DFD4A4B1A783B2A7FF6A7AC33
:103130000022114609201A7004F092FD454B1A78BE
:10314000172A7FF6A1AC002211460A201A7004F05B
:1031500087FD414B1A783B2A7FF69BAC0022114633
:103160000B201A7004F07CFD93E4042319460E2012
:10317000136004F075FDA3E40323384A19460D20BB
:10318000136004F06DFD96E4FEF71CFE00238AF840
:10319000003004F015FF386050E60146204602F08A
:1031A000E9FA00287FF44FAF3FE4607AA379E2792F
:1031B00094F80AE06179247A00F00300400003F0FB
:1031C0000303920040EADE1001F00F0142EA83237C
:1031D000084443EA94130738013303FA00F007F078
:1031E00025FC1F4907F07AFC07F064FE0D21044618
:1031F000104805F0C3FD214600230A220E4806F0C0
:10320000ABF90D4806F082F9C72C7FF64DAFA4F15B
:10321000C80131604AE7637A227AE079013303EB2F
:10322000022303EB00408002D9E700BFE0510020F9
:103230003C530020A427010080FFFF1F9C51002069
:10324000B427010034FAFF1FA08601002C0A0020D9
:103250004452002070510020F04E002030FAFF1F31
:10326000BD37063A6C4A002040FAFF1F2DE9F84F9F
:10327000B24DB34FB34EFDF73FFE4FF4FA7004F07A
:10328000D1FE2968B04800230A2206F065F9AE484D
:1032900006F03CF92968AC4800230A2206F05CF9E4
:1032A000A94806F033F92968A74800230A22002418
:1032B00006F052F9A44806F029F964203C6004F0B5
:1032C000B1FE3968A0481022234606F045F99E4811
:1032D00006F01CF94FF430533B60642004F0A2FE6A
:1032E0004FF434533B60642004F09CFE974B9648A7
:1032F00019681022234606F02FF9934806F006F9C4
:10330000396891482346102206F026F98E4806F0C7
:10331000FDF88F4B8C4819681022234606F01CF9E3
:10332000894806F0F3F82968874823460A2206F000
:1033300013F9854806F0EAF84FF47A7004F072FE4B
:103340002968814823460A2206F006F97E4806F0DD
:10335000DDF84FF47A7004F065FE23460A222968EE
:10336000794806F0F9F8784806F0D0F8794800F086
:1033700099FD0121022004F04FFE0121142004F0E8
:103380004BFE2146152004F047FE204604F062FB68
:103390000121022004F02CFE0121142004F028FE5B
:1033A0000121062004F038FE2146062004F020FE0C
:1033B0002146062004F030FE2146042004F02CFEB5
:1033C0002146032004F028FE2146082004F024FEB4
:1033D0000121042004F00CFE0121032004F008FE6A
:1033E0000121082004F004FE04F0EAFD5A4B30608D
:1033F000984202DC594804F0E9FD01233C220221F5
:103400005748584C03F0A8FF8C2004F00BFEFEF741
:10341000D5FA0A225449524806F064F8504806F09A
:1034200075F84F4804F0A2F80121062004F0F4FDDD
:103430000021062004F0DCFDFEF7C0FA0A224A490A
:10344000474806F04FF8464806F060F8444804F054
:103450008DF80721454800F0D7FF04F58C650E2153
:10346000424801F02FF8284604F26C414FF03843EF
:103470000A2202F0CBFAE8B91C213D4805F07EFC97
:10348000314806F043F8FEF799FA122239493448D8
:1034900006F028F8324806F039F804F091FD37219B
:1034A000FFF78CF82E4804F061F84FF47A7004F0BE
:1034B000B9FDE8E704F23C40256001F0E7F801219E
:1034C000204602F057F90146002800F01281254CF1
:1034D00004F23C452846214601F036FA0028CBD0BC
:1034E00094F83C3413F0700FC6D0234BDFF898A04B
:1034F0001D60FEF7E3F8FFF729FA6E211F48DFF899
:103500008C8005F03FFD1E4A1E4B146853F82400C2
:1035100007F090FACAF800002046FFF723F8FDF7FD
:10352000F3FBFEF74BFAD8F800303C2B30DDB3F557
:10353000967FD4BF3C244FF496742AE000D0034019
:1035400010D00340E44E002080FFFF1F14D0034042
:1035500018D00340245300207FC1855680C1855672
:103560009C5100206C4A0020202801004CFAFF1FCB
:1035700034270100542701003C5300200082FF1F24
:1035800030FAFF1F14FAFF1FF451002040FAFF1F0A
:103590000A2404F015FDDFF8B091594FD9F8003036
:1035A00090FBF4F204FB0244564A3060E1181160CB
:1035B00018463C6007F03EFADAF80010524D534CC2
:1035C000DFF888A1DFF888B107F088FA4FF06E5174
:1035D00007F084FA4FF0745107F080FA06F0D4FD3A
:1035E00006F05EFB00224A4B06F022FE07F0D0F800
:1035F000484BD8F800201968474B2860521A22EA35
:10360000E27583FB05232B44E817C0EBE32006F0AB
:10361000A9FD06F0CDFB07F0BBF8404BCAF800004F
:1036200004FB005483FB04232344E017C0EB631026
:1036300006F098FD06F0BCFB07F0AAF8384DA0EBA9
:10364000001204EB8204034610213648CBF8003008
:103650002C6005F093FBDAF80010334805F0BCFF4E
:10366000DBF80010304805F0B7FF29682E4805F058
:10367000B3FF2D4805F04AFF08212C4805F07EFBDA
:10368000D9F80010284805F0A7FF274805F03EFFAD
:103690000821274805F072FBD8F80010224805F0F1
:1036A0009BFF214805F032FF0E21224805F066FB02
:1036B0003068FEF7D1FA0C211F4805F05FFB38682F
:1036C000FEF7CAFA3B6834681C481C1B152105F03C
:1036D00055FB2146144805F07FFF134805F016FFFF
:1036E0001749184B00204FF0FF3208601A60BDE800
:1036F000F88F204602F03EF800287FF4E8AEBBE6E3
:10370000EC4E002040510020D4510020F0F1FFFF8A
:103710000000404004FAFF1FC5B3A2918988888841
:10372000F85100202C28010080FFFF1F40280100D5
:103730004C280100E82601005828010068280100F3
:10374000000A00200C52002034FAFF1FDC51002038
:103750006C510020002070470020704738B52429A4
:1037600008BFC2800C46017A0E48154600F046FCA0
:10377000C4F307210B4800F0EFFAE1B2094800F06A
:10378000EBFAC5F30721074800F0E6FAE9B205486D
:1037900000F0E2FA034800F017FDB0FA80F04009AB
:1037A00038BD00BF2453002038B5012504460571FB
:1037B000334800F077FB052004F034FC204644F247
:1037C00060023021FFF7CAFF20466C222621FFF756
:1037D000C5FF20464FF4F9722821FFF7BFFF2046AE
:1037E00040F622722C21FFF7B9FF204644F24642F0
:1037F0003C21FFF7B3FF204640F237122421FFF7A8
:10380000ADFF204644F2FF023021FFF7A7FF7322ED
:1038100002212046FFF7A2FF4FF4C87004F002FC1B
:10382000204641F61D522E21FFF798FF0422114633
:103830002046FFF793FF20464FF498720621FFF7CA
:103840008DFF204610220A21FFF788FF2046002224
:103850000E21FFF783FF204643F63C421021FFF77D
:103860007DFF204647F67F722221FFF777FF204633
:1038700036222421FFF772FF6572284638BD00BF4B
:103880002453002038B50546F1B1802903799ABF49
:10389000C1F1800444EA0424002433B922462846B6
:1038A0002221BDE83840FFF759BFC288002322F02B
:1038B000100203712421FFF751FF224628462221DE
:1038C000BDE83840FFF74ABF0123037147F67F7216
:1038D0002221FFF743FFEA8842F01002284692B205
:1038E0002421BDE83840FFF739BF00BF0B4610B5B3
:1038F00007490446184607F0F1F8064906F0E6FFC6
:1039000007F0D8FA01462046BDE81040FFF7BABFDD
:1039100000000143EE7CFF3E10B5044619B10129B9
:1039200011D0002010BD55222021FFF717FF0028DD
:10393000F7D0E28842F00402204692B22421BDE88A
:103940001040FFF70BBF40F273122A21FFF706FF6A
:103950000028E6D0882220212046FFF7FFFE00281D
:10396000DFD0E288204622F004022421BDE8104086
:10397000FFF7F4BE10B5044605F0AEFC204610BDBE
:10398000024A0349034807F063BC00BFFCF9FF1F6C
:10399000753900007C5200201B4A1C4B11681C48E2
:1039A000096970B499421279027009D2194A1278E1
:1039B00032B3194A4FF08041116003F5807402E080
:1039C0001C46A3F58073154A154912680D68AAB103
:1039D000A5B1144E3088402810D841000A44403028
:1039E000294402320231308033F9040B22F8020FED
:1039F0009C4233F9020C21F8020FF5D870BC7047D5
:103A000003F58074DFE700BF8C520020B8F2FF1F7F
:103A10001F8000408652002008E200E094520020FF
:103A20008852002084520020F8B5064605F0DAFAE4
:103A30000446E8B105F0D6FA054600283AD072B639
:103A40001F4B1A887F2A19D8002C31D01D490A68CB
:103A500042B162B6204605F019FB2846BDE8F840A1
:103A600005F014BB18480C601A80056062B6F8BDFA
:103A7000054672B6124B1A887F2AE5D9114A1249B7
:103A80001768146000220C681A800D6062B639460F
:103A9000304605F025FB384605F0F8FA3046214659
:103AA000012205F01DFB2046BDE8F84005F0EEBA06
:103AB00062B6F8BD204605F0E9FA2C46BFE700BF24
:103AC000845200209452002088520020F8B5284CDF
:103AD000284E2046012105F09BFB00F083F8264B81
:103AE000264A27484FF480611960236800211A6034
:103AF00099802279186102F1804202F5043240F285
:103B00000110D8809E614FF48075022006278E2612
:103B1000DD82D960DD8398609F8398821170167072
:103B200005F01CFB1749184B2279184F08701A70C2
:103B300039682279164C174D174E41F0124141F069
:103B40000101531139609B00206803F1604302F1C9
:103B5000100703F5614302F01F02012140F01040FD
:103B600001FA02F2206045F827601A60F8BD00BF34
:103B70008C52002000FEFFFF14B00440A0F0024071
:103B8000B8F1FF1F865200201B80004080F00240E9
:103B900000F0024000F4FF1F99390000024A034977
:103BA000034807F055BB00BFFCF9FF1F7539000043
:103BB0008C520020024A0349034807F049BB00BF6A
:103BC000FCF9FF1F7539000098520020024A034992
:103BD000034807F03DBB00BFFCF9FF1F753900002B
:103BE000A0520020284B29491A68294842F4004273
:103BF0001A600A6842F002020A601A6842F0020281
:103C00001A600368002B3DDB224B1B68002B39DB5D
:103C1000214A4FF0864313601368002BFCDBF0B59C
:103C20001E4C1F48DFF8ACE01E491F4B1F4A204FB7
:103C3000204E214D47F2320CC4F800C0002404602D
:103C40000120CEF80000DFF890E0C1F800E04FF46A
:103C500080311960194B1360DFF880E0184A3A6030
:103C6000346028601748CEF80000174CB967174831
:103C7000174946F8503C4FF4C0632A612360036043
:103C80000B60F0BD704700BF3C80044040800440A2
:103C900000F0024080F0024000F1024004F10240D6
:103CA00060F0024008F002400CF0024010F00240C8
:103CB00014F00240E0F0024084F002401B0F0100CB
:103CC000000F0F0F0300004708B004400CB0044081
:103CD00018B0044004F002400300000788F00240DE
:103CE000024A0349034807F0B3BA00BFFCF9FF1FBB
:103CF00075390000A8520020024A0349034807F022
:103D0000A7BA00BFFCF9FF1F75390000B0520020B0
:103D1000024A0349034807F09BBA00BFFCF9FF1FA2
:103D200075390000B8520020024A0349034807F0E1
:103D30008FBA00BFFCF9FF1F75390000C052002088
:103D4000024A0349034807F083BA00BFFCF9FF1F8A
:103D500075390000C85200200A4B1B7813B90A4B72
:103D60001B786BB1094A1378202B07D810B4581C64
:103D7000074C1070E154012010BC704701230371FF
:103D80000020704736530020F9520020375300209E
:103D9000D8520020704700BF024A034B10781B78AE
:103DA000C01A70473553002034530020064A074993
:103DB00013780978994204D90548591CC05C1170E0
:103DC00070474FF0FF3070473453002035530020C8
:103DD000FC520020054B064A1B7812789A4286BF97
:103DE000044AD05C4FF0FF30704700BF34530020CE
:103DF00035530020FC52002070B50D4B1B78144643
:103E000013B90C4B1B788BB10B4E3578C5F12103E0
:103E1000A34202D201221C460271084822462844CD
:103E2000254403F06BFC3570204670BD184670BD0C
:103E300036530020F952002037530020D85200207A
:103E4000124BDB7803F020034BB1114A1378013396
:103E5000DBB2012B137012D9122004F06DB810B52B
:103E6000122003F0FF0404F067F80A4B1B685BB1F3
:103E700009490A4A0C701078BDE810401847084BF1
:103E80001B78002BE8D0704710BD00BF00600640D3
:103E900020530020D45200203453002035530020FA
:103EA000F95200200D4A0E4BF0B500200D4C107059
:103EB0002268DFF838E00C4F42F0400222604FF4F5
:103EC000197128260325202480229870CEF800102E
:103ED00039605E709D715C719A70F0BDF95200207E
:103EE000006006403480044008A004400CA0044058
:103EF00010B5384CE378DBB2D80623D5102259062A
:103F0000E2701ED503F0040303F0FF02002B33D050
:103F1000314B32491A68324C00230B702370002A4F
:103F20003BD090472378002B37D02E4B1B78294A63
:103F30002D49D02494701371264B01200222087061
:103F4000DA7010BD5A06DDD4A27802F0100202F039
:103F5000FF0042B313F001031BD1234920480A7824
:103F60000078904281BF1F4B501C9B5C08702371EE
:103F7000184BD0229A7008E01C48164B1749027063
:103F80000120C02208709A701B79124B0222DA704D
:103F900010BDC023A3702379F7E712490023012243
:103FA0000B702270C3E7124B1249187003221220C3
:103FB00003F046FF0D4923790A781F2ADBB2E4D8C3
:103FC000064800780028E0D00B4C501CA354087021
:103FD000DBE700BF006006401C530020D0520020E9
:103FE00037530020D852002038530020355300208A
:103FF00020530020413E0000FC5200200548064AA4
:1040000010B40123054C037049001370217010BCDB
:10401000704700BF3653002037530020D85200208D
:104020002DE9F047584C1223E370A37803F02003E6
:1040300082B0002B54D0B423DFF860A1A370DAF86B
:104040000020514C0020E378DBB2934218BF0120DE
:104050009F061A46F7D5002840F08D804B4B1B7801
:10406000002B34D003F1FF3C5FFA8CFC0027DAF818
:104070000020DFF82CE1444D0CF1010C3C464FF0E0
:1040800002081EF8013F2B715FFA87F9104601E024
:104090009E0608D5EB78DBB293421CBF184601247C
:1040A0009E071A46F4D585F80380EE78F6B2B3423F
:1040B0000EBF024632460124F30633D4B30631D58F
:1040C000F30744D401376745DBD1002C4AD10020E7
:1040D00000292ED12E4B00221A7002B0BDE8F087C5
:1040E0002C4DDFF8B8A003F0FF022B680093009E70
:1040F000DAF8000005E02B680193019B9B1B0F2B56
:104100001BD8E378DBB2834218BF012213F0200FE3
:104110001846F0D192BB20481B4B0024B0220470FB
:104120009A708CE70CBB184B80229A7004200029EF
:10413000D0D0154B80229A70CCE7CAB9124B00211F
:104140008022042099709A7002B0BDE8F087C4B94B
:104150000D4BB9F1000F4FF080020CBF022003207D
:104160009A70B7E7CAF80020B1E7CAF80020DAE78A
:10417000CAF80000E2E7CAF800306FE7CAF800307A
:10418000C9E7CAF80020E3E7006006403753002083
:104190003653002098530020F952002048FAFF1FA0
:1041A000D75200200548064A10B40123054C03707D
:1041B00049001370217010BC704700BF36530020B7
:1041C00037530020D85200200121FFF729BF00BF3C
:1041D000044B054A1A604FF47A71002299601A71F3
:1041E0001A73704724530020B028010010B4047FD4
:1041F0004160022CC26002D010BC05F087B8836811
:1042000010BC1847F0B4464B464A186BDC6A01797B
:104210001170454922790A709A6A00790870002A5B
:1042200046D05968C9688A423ED82168CC8B24049C
:1042300002F1FF3065D4C0F30E00C883C88B80B292
:10424000C882196B0968C88B000452D4C2F30E00EF
:10425000C883C88B002480B212F1FF32C88218BF15
:1042600001229C62D96A2E4809680D6800F1240475
:10427000A54236D00068C46814F0804F0C680D6801
:1042800015BF248824780235013544F000440D60C0
:104290004463196B254B09791970214912B1CA6A17
:1042A00012791A70F0BC7047521A9A620122D9E74B
:1042B000586B196805681E4C0A63CC62CC682D687F
:1042C0001C4E24F080440327B542CC6083F825704F
:1042D0001FD1037F4260022BC2601ED0F0BC05F0EC
:1042E00015B8016890F82400CC6840F0004048639D
:1042F000CFE7CC8BC2F3080004F47E442043C8838C
:10430000A7E7CC8BC0F3080004F47E442043C883A5
:1043100094E72B461146F0BC18478368F0BC184759
:104320004CFAFF1F1F8000401C8000401B80004093
:1043300000000FFFED41000090E80C00F0B41C6895
:1043400059682568164F174E29432160164D1749A5
:104350001760D66015611160417A154A5C180A3100
:1043600094F8244053F8215002EBC40149680D60D1
:10437000017A5C1803EB8101247ECD6902EBC40154
:1043800049680D60817A581803EB810390F830007A
:10439000596B02EBC002F0BC53681960704700BF54
:1043A00001401F00011000380110007800001F803C
:1043B000242F01004268036805CA10B40468224330
:1043C0000260D868840100F0E06205D5080900F4B5
:1043D000706021F470410143D8681143814209D0D3
:1043E0001A68500408D40748186041F08040D9602A
:1043F00018611A6010BC704741F08042D96010BC4F
:104400001A61704701401F004268437A134493F8D1
:1044100024308B4209D0F0B492F824408C4205D06D
:1044200092F825408C421AD0F0BC704700242146F7
:104430001668556836682E420FD00A4D05EBC30347
:1044400000275E685318376093F8243005EBC305E6
:104450000A316B6852F821201A604472E4E70124A3
:104460002146E5E7242F01004268037A13441B7EAE
:104470008B4207D0F0B4147E8C4204D0547E8C4220
:104480001AD0F0BC7047002421461668556836687B
:104490002E420FD00A4D05EBC30300275E68531868
:1044A00037601B7E063105EBC30502EB81026B68AA
:1044B00052681A600472E4E701242146E5E700BF70
:1044C000242F01004268837A134493F830308B42E2
:1044D00009D0F0B492F830408C4205D092F83140C7
:1044E0008C421BD0F0BC70470024214616685568EA
:1044F00036682E4210D00B4D05EBC30300275E68D3
:104500005318376093F830300C3105EBC30502EBDC
:1045100081026B6852681A608472E3E701242146C5
:10452000E4E700BF242F010038B504460D462422DD
:10453000002107F0ABFAA560EB79102B08D0202BF7
:1045400004D1402301202370A07038BD002038BD65
:10455000202301202370A07038BD00BF2DE9F04159
:10456000037803F020032BB903F0FF044269204BCA
:104570009A4203D900263046BDE8F081837801696C
:10458000054663F07F038068AB7005F1100201F00F
:1045900099F806460028EDD02969A86801F02EF8A0
:1045A0000746A86839462430052200F0F1FF80460E
:1045B0000028DFD04FF40072214607F067FAAB689D
:1045C0001A79012A0FD9012403E0AB681A79A242B3
:1045D00009D9E1191868424601F094FB0134E4B2AC
:1045E0000028F2D1C6E76B6903EB42226A61C2E799
:1045F000FFFD1F0010B5044680680A462430A169FB
:1046000000F0C6FF20B1A38803F00F0300EB4310B6
:1046100010BD00BF38B590F90230002B044612DB04
:10462000A56805F1240000F0E1FF28B9637843F0A4
:1046300001036370002038BD05F50C7000F0D6FF53
:104640000028F3D038BD0121FFF7D4FF054600282C
:10465000ECD00378E52BE9D023780B4A1B0744BF45
:10466000E369C361236A126843831B0C83822AB106
:1046700000F11601183090472B8B6B82A37803F062
:104680007F03A370CCE700BF4053002010B5037830
:1046900004461BB900232370012010BDFFF7BAFFA9
:1046A0000023237010BD00BF2DE9F0430D7815F0F5
:1046B000700F89B003D1002009B0BDE8F083C32397
:1046C00004460D4600F05EFD0028F4D001221023C0
:1046D000A27023702046FFF741FF0028EBD023781B
:1046E00022692262002B6ED101212046FFF782FF52
:1046F00006460028DFD01023C37282687168F36811
:104700000068B6F81480B6F81A906F460FC7716942
:10471000B269F369306908AE0FC72E2306F8203D51
:104720000DF10A013346202203F8012F8B42FBD101
:10473000216AA06800F062FFA3680146012203F12C
:10474000240000F025FF86460028B4D03746ADF897
:104750001480ADF81A900FCFCEF80000CEF80410F8
:10476000CEF80820CEF80C300FCFCEF81000CEF8DF
:104770001410CEF81820CEF81C302B6AADF81A3081
:104780002E221B0C3546ADF814308DF801200FCDCC
:104790000EF12006CEF820007160B260F3600FCDFC
:1047A00030617161B261F361A46804F1240000F02A
:1047B0001DFF00283FF47FAF04F50C7009B0BDE881
:1047C000F04300F013BF636913B1002323616361F9
:1047D0002046FFF71FFF00283FF46DAF84E700BFBE
:1047E000F0B5064693B03578019200208DF824008C
:1047F0008DF825002DB91F460B7813F0700F0C466D
:1048000002D1002013B0F0BD13782F2B104628D012
:1048100001AA03A900F034FB03AA214601230028C2
:10482000EFD0019D2D783046002D2CD000F0AAFC51
:1048300040B9002FE5D0214603AA3046FFF734FFE8
:104840000028DED035460FCD09AC0FC40FCD0FC404
:1048500033782A68226093B900233370019809AC39
:10486000D6E70130019003782F2BFAD0A16809A870
:10487000FFF75AFE0028C4D0019809ACC8E73046BB
:10488000FFF7C8FEE8E703AA21463046FFF70CFF12
:1048900013B0F0BDF0B5064693B035780192002014
:1048A0008DF824008DF825002DB91F460B7813F0E4
:1048B000700F0C4602D1002013B0F0BD13782F2BDF
:1048C000104616D10130019003782F2BFAD0002B1F
:1048D00034D0A16809A8FFF727FE0028EBD0019883
:1048E00009AC06E03046FFF795FE002301983370CF
:1048F00009AC01AA03A900F0C3FA03AA21460123C7
:104900000028D8D0019D2D7830467DB100F03AFCCA
:10491000354609AC0028CED00FCD0FC40FCD0FC443
:1049200033782A682260002BDFD0DBE73B4603AAFE
:104930002146304600F026FC13B0F0BDA168304699
:10494000FFF7F2FDB8E700BF03780BB10020704716
:10495000FFF7EABD2DE9F04F0F46017883B0054619
:1049600011B18378DC0708D46B784FF0FF3043F047
:1049700002036B7003B0BDE8F08F0B07914600F1A6
:104980008580880608D5AA686B691289C3EB421333
:104990009BB2994528BF9946B9F1000F00F0948069
:1049A0006B698A064E464FF0000805F1100AC3F302
:1049B000080B3DD5AA68116A01EB5321BBF1000F2A
:1049C00050D1B6F5007F4DD3D36A99424AD0B6F59F
:1049D000806F64D328788006C6F3472B06D41079FD
:1049E000C8EB0000C0B2834528BF834699424FEA16
:1049F0004B240BD85B44994208D202F12400019168
:104A000000F0F4FD0028AFD0AA68019910685B4659
:104A10003A4601F02FF90028A6D06B69361B2344D3
:104A200027446B6150D029788A06C3F3080BC1D4A0
:104A3000A86890F8058008EA5328BBF1000F2CD134
:104A4000B8F1000F29D1002B33D14C064CBF016ABD
:104A5000296A296100F0D2FDAA6808EB0001BBF1C8
:104A6000000FAED002F12400002200F091FD0028DA
:104A70003FF47AAFCBF50074B44228BF344600EB64
:104A80000B012246384602F039FEC6E7EB696A6937
:104A90009B1A994528BF99467EE72969DAE710688D
:104AA0003A4601F06DF800283FF45EAF4FF4007411
:104AB000B3E75246296900F0A7FD0028FFF654AF7E
:104AC00008D0A8682969C5E70026C6EB090003B02D
:104AD000BDE8F08F2B7813F0700FF6D144E700BFDC
:104AE00070B582B001220DF10701044646690569DF
:104AF000FFF730FF012805BF9DF8070066614FF002
:104B0000FF30256102B070BD30B54369C3F3431572
:104B100083B0044605B189B901220DF10701204691
:104B2000FFF718FF40B201280BD163691F3363619F
:104B3000A068303000EB451003B030BD2033436136
:104B4000F6E7002003B030BD2DE9F0410378076996
:104B5000044693B142698A420E4636D021B921619A
:104B600066610120BDE8F08118070AD499060BD5CB
:104B7000A3681B89B6EB431FF2D927610020BDE86B
:104B8000F081E1698E42F8D8D4F808E09EF806502A
:104B9000511E05F10900751EC140C540A94200D84B
:104BA000B2B95B064CBFDEF82030236A236104F102
:104BB00010084246002DD3D02169A06800F024FDE2
:104BC000002805F1FF35F4DCD7E70120BDE8F081CE
:104BD0006D1AECE72DE9F0418846154600212422A4
:104BE00004461E469DF8187006F050FFD8F80800DD
:104BF000D8F82030E36005F00F02520100F13001D7
:104C00001144A060A580CB7A1B0714D4831893F8B5
:104C10003B3003F017032370C97AE77011F0180FC7
:104C200004BF43F00803237016F0320F07D0237837
:104C300013F0110F03D000202070BDE8F08106F0C2
:104C40000F05A5700244C36AA361B2F84410B2F81C
:104C50004A30F70643EA014107D42162D36CE3618D
:104C6000B30607D40120BDE8F08151B965F07F0596
:104C7000A570F5E7E1692046FFF766FF0028F1D14E
:104C8000D9E700F05BFD0028D5D0A578EEE700BF9E
:104C900003780BB1FFF7BEBC012070472DE9F84F38
:104CA00003781E0704466ED583789D076BD55B0796
:104CB0000F46904600F1CB806369DA43904562D895
:104CC000B8F1000F00F0B48046464FF0000932E022
:104CD000002940F08180216A002900F0888021614C
:104CE00000F08CFC0146B6F5007F54D3B6F5806F1A
:104CF00065D3A2681379D06A5B1BDBB2C6F3472584
:104D0000AB4228BF2B4681424FEA432508D81844BE
:104D1000814205D282F824904FF0FF30D062A26821
:104D200010683A4601F080F868B36369761B2B443B
:104D30002F4463617CD0A0682169457915EA532529
:104D4000C3F3080A34D1BAF1000FC1D000F056FC09
:104D50000146CAF50075B54228BF35460122A06854
:104D6000243000F015FC70B150442A463946AA445C
:104D700002F0C4FCBAF5007FD7D1A068243000F05F
:104D800035FC0028D1D1637843F0010363704FF004
:104D9000FF30BDE8F88F6369E269B6F5007F3546FC
:104DA00028BF4FF40075934234BF01220522D6E795
:104DB00000F024FC2918BAF1000F94D0C9E7A368C9
:104DC000DA6A914221D018683A4600F09BFF002829
:104DD000D9D04FF40075A8E704F1100B5A4600F043
:104DE00013FC0028CFDB17D0A068216978E7A378EF
:104DF00063F07F03A37004F1100200F063FC00284D
:104E0000C1D021692162A0686AE783F824904FF03D
:104E1000FF32DA62A368D6E7A3782169A06863F05D
:104E20007F035A46A37000F04DFC0028DCD1AAE7AE
:104E3000E2699A4212D2A278E36142F08003A37041
:104E40001A0701D523788BB94046BDE8F88FE16990
:104E5000FFF77AFE00287FF42FAF94E7074B1B681B
:104E600053B1A37843F08003A370E9E72046FFF72E
:104E7000D1FB0028E8D186E7A378E1E74053002082
:104E80002DE9F04F0378202B03D110F8013F202BA0
:104E9000FBD088600378002B00F007812F2B2FD0E8
:104EA0005C2B22D0A3F12204E4B21D2C20D9DFF820
:104EB00018E2461C00247C2BA3F12005374614D0B1
:104EC0005E2D12D816F8013BA3F12205EDB2013494
:104ED000002B00F0D3802F2B13D05C2B2EFA05F77C
:104EE00003D01D2DE7D8FF07E5D50020BDE8F08FE2
:104EF000754D25FA04F4E407D9D50020BDE8F08FFC
:104F0000002407193E4625462F2302E016F8013FEC
:104F10000135202BFAD02F2BF8D0054415604CB169
:104F20003A4612F8013D2E2B02D0202B40F0A980EA
:104F3000013CF6D14FF0FF3523464B6001F11706D7
:104F400001F10C03202203F8012FB342FBD1461ECE
:104F5000002200E0013216F8013F2E2BFAD0202B60
:104F6000F8D0B2FA82FC6E1C4FEA5C1C0CD0475D94
:104F70002E2F00EB050604D106E016F8017D2E2F3A
:104F800002D015F1FF35F8D2A2424FF0000980F2AD
:104F900091804E46CA4607274FF0080825E02E2B81
:104FA00047D0222B0BD07C2B09D0A3F12A0EBEF1C7
:104FB000050F48D9A3F13A0EBEF1050F58D8954216
:104FC00039D0B74229D34FF0000C5F2306F1010E10
:104FD00001EB060B5FFA8EF6062E8BF80D3000D82B
:104FE0000E730132A24207DA835C202BD7D1013243
:104FF000A2424FF0000CF7DB4B7B202B3FF475AF48
:10500000BCF1000F47D01AEA090F18BF4FF0020990
:1050100081F800900120BDE8F08F0A2F37D095422B
:1050200035DB2A460A2708264FF010084FF0000CFF
:10503000D7E79542DBD10A2F29D02A460A2708262E
:105040004FF01008CDE72D2BB9D1A3F1210EBEF101
:105050005D0FB4D89542EED0B742DED3A3F1610E16
:10506000BEF1190F28D8203BDBB248EA0909ADE7A9
:10507000A3F15B0EBEF1020FA1D9E6E71760071995
:105080004EE7FF2C3FF731AF651E234655E74B7BBC
:10509000202B3FF42AAF0B7B0B4401207E243122CE
:1050A00008705C739A73BDE8F08F10601C464FF077
:1050B000FF3542E7CA469FE7A3F1410EBEF1190F43
:1050C00098BF48EA0A0A81E7010100352DE9F84353
:1050D0000F7B0E46044601F10D054FF002084FF01C
:1050E0007E097068B16808EB00039BB240B10844C8
:1050F00011F8012B03EB4313534088429BB2F7D1C5
:10510000032F28BF03273A1DD2B203F00F01B018B6
:10511000013A0929D2B294BF3031373197424FEA70
:1051200013134173F1D3F319002183F80D90204636
:10513000FFF70AFD01212046FFF7E6FC0B2203469C
:105140000146A8B193F800E02846BEF1000F15D043
:10515000DB7A1B07EED406F003FC0028EAD108F145
:1051600001081FFA88F8B8F1640FBAD1BDE8F883D6
:105170006078B0FA80F04009BDE8F8830120BDE80E
:10518000F88300BF2DE9F04F0C7814F0700F8BB04E
:1051900001D004781CB100200BB0BDE8F08F14786A
:1051A000D2F804B0A40740D14FF001090E46924650
:1051B0000990002130460F460893FFF7C5FC0AF11D
:1051C0000D03079703973C46B84606970593756904
:1051D00001213046C5F34F15FFF796FC002800F07B
:1051E000A1800378E52B39D0002B37D04C4538BF50
:1051F00000242E2B2FD0C27A0F2A3DD002F00802B5
:1052000002F0FF033ABBB8F1000F40F066810B22B9
:10521000059906F0A5FB0028D9D19AF80030DB07E4
:1052200040F16F8101230693D1E7BF4D0BF10C04D0
:10523000A5FB04494FEA990909F101095FFA89F9C7
:10524000B4E7039A013AD2B29342039203D1437B6B
:10525000079A9A421BD04FF00008B8E7002C08BF0D
:105260002F464C453CBF0134E4B2002B5ED0E52B09
:10527000BFD14FF00008AAE7B8F1000FE1D15A06FC
:10528000A5D503F01F08437BCDF80C800793039B43
:10529000013B03EB430503EB8505AB45DBD9C5EBD0
:1052A0000B0C0023049018E0DAF80800D2B2A2F147
:1052B000410E415CBEF1190F98BF2032A1F1410EA1
:1052C00098BFD2B2BEF1190F9CBF2031C9B2914232
:1052D000C1D101330D2B3FF47AAFDAB2042A05EBCA
:1052E00003010DD90A2A17D904985A1C00EB42026F
:1052F00092889C450BD0FF2AD6D94FF0000866E76C
:10530000049A02EB43029C45B2F80120F3D1002A33
:1053100018BF4FF000085AE704985A1E00EB4202EB
:10532000D288E6E77378002B7FF435AF089B03F053
:105330004203422B7FF42FAF002C18BF3D464C4553
:1053400003D31AE0DCB2A14517D900213046FFF79C
:10535000DBFB631C0028F5D1737823B11BE7B3682E
:105360001B79012B09D8A14507D93046FFF7F6F87C
:105370001034E4B20028F2D10DE7069B33B1514658
:105380003046FFF7A3FE00283FF405AF6901304621
:10539000FFF7DAFB00283FF4FEAE09F1FF3818F002
:1053A000FF0866D048F04003DBB203934446002573
:1053B00000213046FFF7A8FB00283FF4ECAEB268AE
:1053C000039992F82430A04543F0010308BF8E46AC
:1053D0004FF00F0718BFA64682F824300AF10C01DF
:1053E000C772057380F800E00AF11707002311F86F
:1053F00001CF5A0842EAC3135CFA83F38F42DBB24F
:10540000F5D10EF01F0E0EF1FF3E4373DAF80830AF
:1054100085760EEB4E020EEB820203EB0209C57697
:1054200000230FE0042B19F8031000EB430EDFB24A
:1054300014D90A2F72D8AEF8041001330D2B02F1E3
:10544000010212D09345EDD814BF4FF0FF31002177
:10545000042B89B200EB430EDFB2EAD801330D2BE7
:10546000AEF8011002F10102ECD1013C14F0FF048E
:105470009ED1002130467569FFF746FBC5F34F15F5
:10548000044600283FF487AE2022002106F0FEFAF1
:105490005346264953F80D2F5868606022601A89D8
:1054A0009B7AA37222819AF800200B6802F01802FE
:1054B0002273002B3CD004F10E0104F11000984738
:1054C000238AE189B26863822383E18292F82430DF
:1054D00043F0010382F8243017E0039A012A7FF495
:1054E0005AAE441E0A3014F8011F5A0842EAC31388
:1054F00051FA83F3A042DBB2F5D1079A9A427FF4C6
:105500004AAE089B1F063FF546AECDF80080089BCB
:1055100009982A463146FFF75DFB3DE6013300EB73
:105520004307B9808AE700BF4FECC44E40530020C8
:1055300021212822A37308232174E37362744FF49A
:10554000006142F62103BDE7F8B54368816800F1C8
:105550000C0604463246186800F0D4FB40B12378AC
:105560009A07054607D423F0010323702846F8BDA7
:1055700000252846F8BD6368A7681969186832468F
:10558000394400F0BFFB0028F2D02378EBE700BFDE
:10559000F8B583688B42064614460FD00378DA07C5
:1055A0000F4612D4630716D506F10C05002304F04C
:1055B00003041C4334702846B760F8BD10F90C3B57
:1055C00004F003041C433470F8BDFFF7BDFF00284E
:1055D000E8D10020F8BD736806F10C0518682A466A
:1055E000394600F0CDFA0028E0D1F2E70378DB0776
:1055F00001D401207047FFF7A7BF00BF837940693E
:10560000023999400844704770B5C379202B04468D
:105610000D46164618D0102B13D18369C1F307210C
:105620001944022200F50C70FFF7B2FF48B1EDB249
:1056300030F81530E26993429ABF012033600020B0
:1056400070BD4FF0FF3070BD8169022201EBD511B2
:1056500000F50C70FFF79CFF0028F2D005F07F05E5
:1056600050F8253023F07043E4E700BF38B5C37924
:10567000202B0C46154614D0102B01D0002038BD2D
:105680008369C1F30721194400F50C700322FFF769
:105690007FFF03460028F1D0E4B2012023F8145024
:1056A00038BD8169032200F50C7001EBD411FFF7BE
:1056B0006FFF03460028E1D004F07F04012043F887
:1056C000245038BD2DE9F041054682B090460F4682
:1056D000C1B9C668344604E001D0019BA3B1B4420D
:1056E0000BD0EB6901349C4288BF0224214601AAF9
:1056F0002846FFF789FF0028EEDA0026304602B080
:10570000BDE8F0810E46E5E76FF07042214628467D
:10571000FFF7ACFF06460028EFD037B9EC60304603
:10572000C8F8004002B0BDE8F0813946284622465C
:10573000FFF79CFF0028F2D1DFE700BF70B50546F8
:1057400082B00C4608E0FFF791FF80B1EB689C4205
:1057500038BFEC60019C5EB101AA21462846FFF7E4
:1057600053FF061E21464FF000022846EBDA0020C8
:1057700002B070BDF8B5044600224FF0FF3301209F
:10578000A462C4F83442E060E27184F8242084F812
:105790003022E362C4F838320D46C1B1042901D980
:1057A0000020F8BD04F1240630461146FFF7F0FE54
:1057B0000028F5D000EB051393F8AE315B06EFD16E
:1057C0001B3500EB0515D5F8065015B9E8E704F1CF
:1057D0002406304600222946FFF7DAFE0028DFD0F3
:1057E000B0F80B30B3F5007FDAD1037C022BD7D1B0
:1057F000C389002BD4D0467B2671731E0021012E55
:105800006371A1710ED001210A4600E019465200D1
:10581000D2B24B1C9642DBB203D0092BF6D1A17158
:10582000BEE7A171C38A4BB31F462761C6892E44C8
:10583000A661B0F8113023815A0102F2FF1206EB83
:10584000470303EB622262612362B0F8133003B9AD
:10585000036AAD1A1D4425FA01F140F6F4734A1C9F
:105860009942E2610CD94FF6F473994285BFC36A3D
:10587000236210232023E3710120F8BD476AD4E797
:105880000C23E3718CE700BF10B50446406800F0BC
:10589000EDFA63680021187902F0AAFB0123237254
:1058A00010BD00BF10B5436804460121187902F00D
:1058B0009FFB6068FF2100F0C1FB606800F026FBE1
:1058C0000023237210BD00BF2DE9F041214D82B0AD
:1058D0002B680093009C80460E461746A4B207E052
:1058E0002B680193019B9BB21B1BB3F5967F16DCC3
:1058F000D8F8040000F028FBFF2888F80900EFD052
:10590000FE2810D0502388F8003098F8080018B10D
:105910004046FFF7C7FF002002B0BDE8F0815423E6
:1059200088F80030F1E73A463146D8F8040000F034
:1059300021FB88F8090018B1602388F80030E4E7FB
:10594000D8F8040000F000FBD8F8040000F0FCFADE
:105950000120E1E798530020F0B50D4D83B02B688E
:105960000093009C06460F46A4B206E02B68019304
:10597000019B9BB21B1BBB4207DC706800F0E4FA82
:10598000FF28F3D1012003B0F0BD002003B0F0BD2B
:1059900098530020F0B5037A83B004460F46019275
:1059A0000BB9FFF771FF4FF416712046FFF7D4FFD4
:1059B00047F04001606800F041FB01AE02AD15F810
:1059C000011D606800F03AFBB542F8D1A7B187210C
:1059D000606800F033FB0C2F13D00025606800F0E6
:1059E000B3FA0306607201D403B0F0BD0135B5F51A
:1059F000807FF3D103B0F0BD9521606800F01EFBFD
:105A0000EBE7606800F0A0FAE7E700BF2DE9F0419E
:105A10000024594E0470054684B0376841600097F1
:105A200008462C721146AC729846009F00F05CFA52
:105A30006B682A7A51491960002A4CD018790121E3
:105A400002F0D6FA0A24FF21686800F0F7FA611E16
:105A500011F0FF04F7D16B682146187902F0C8FAFB
:105A6000BCB207E033680193019B9BB21B1BB3F5EB
:105A7000FA6F25DC002211462846FFF78BFF01282C
:105A8000F0D14FF4D57208212846FFF783FF05288F
:105A900026D00424686800F057FA631E13F0FF0450
:105AA0006872F7D1AA2843D033680293029ABBB236
:105AB00092B2D31AB3F5FA6FE3DD25232B7001E020
:105AC00020232B70287A18B12846FFF7EBFE002020
:105AD00004B0BDE8F0812846FFF7D6FE6B68ADE75D
