:1000000000800020BD010000D9AC000091AC0000D0
:1000100091AC000091AC000091AC000091AC0000EC
:1000200091AC000091AC000091AC0000D9AC000094
:10003000D9AC000091AC000039C8000089CA0000AA
:10004000D9AC0000D9AC0000D9AC0000D9AC00009C
:10005000D9AC0000D9AC0000D9AC0000D9AC00008C
:10006000D9AC0000D9AC0000D9AC0000D9AC00007C
:10007000D9AC0000D9AC0000D9AC0000D9AC00006C
:10008000D9AC0000D9AC0000D9AC0000D9AC00005C
:10009000D9AC0000D9AC0000D9AC0000D9AC00004C
:1000A000794D0000D9AC0000D9AC0000D9AC0000FB
:1000B000D9AC0000D9AC0000D9AC0000D9AC00002C
:1000C000D9AC0000D9AC0000D9AC0000D9AC00001C
:1000D000D9AC0000D9AC0000D9AC0000D9AC00000C
:1000E000D9AC0000D9AC0000D9AC0000D9AC0000FC
:1000F000D9AC00005DD10000D9AC000089D200006D
:10010000D9AC0000B5D30000D9AC0000D9AC0000D8
:10011000D9AC0000D9AC0000D9AC0000D9AC0000CB
:10012000D9AC0000D9AC0000D9AC0000D9AC0000BB
:10013000D9AC0000D9AC0000D9AC0000D9AC0000AB
:10014000D9AC0000D9AC0000D9AC0000D9AC00009B
:10015000D9AC0000D9AC0000D9AC0000D9AC00008B
:10016000D9AC000031B40000D9AC0000D9AC00001B
:10017000D9AC0000D9AC0000D9AC0000D9AC00006B
:10018000D9AC0000D9AC0000D9AC0000D9AC00005B
:10019000D9AC0000D9AC0000D9AC0000D9AC00004B
:1001A000D9AC0000D9AC0000D9AC0000D9AC00003B
:1001B000D9AC0000D9AC0000C5C50000564B4CF2CC
:1001C000205210B51A804DF628121A8000BF00BFC9
:1001D00000F058FB514B4FF010621A60504A9A6081
:1001E000504ADA60504A136813F4807304D14F49BF
:1001F0000B604FF4A85313604D4B1A78110703D5C9
:100200001A7842F008021A704A4B4B492A221A7097
:100210004A4A4B4B8B4204D252F8040F43F8040B6A
:10022000F8E7484B484900228B4202D243F8042B9E
:10023000FAE74649464A002352F8230041F82300D2
:1002400001336F2BF8D1434B434A802103F8011B44
:100250009342FBD1414B3D4A1A60414B8A221A70AE
:10026000A3F5805324225A70A0221A709A7992071B
:10027000FCD59A79D406FCD43A4A937903F00C035E
:10028000082B384BF9D103221A7140225A719A79FE
:100290009006FCD5334A9179324B4906FBD5324A58
:1002A000324911600221516020221A709A7902F0BD
:1002B0000C020C2AFAD12E4B2E4A1A602E4B4BF60A
:1002C0007F321A6000225A60072243F8042C2B4A1E
:1002D000C3F80C2D62B60AF021FE144B1B68DA0736
:1002E00005D527480AF008FE264B274A1A60274BF7
:1002F0001B785B0609D5234C234B22689A4204D114
:100300001F480AF0F9FD002323600EF01FFC0AF0DD
:10031000E7FC0CF081FEFEE70E2005403080044033
:10032000823F04000100002B10D0034014D0034092
:1003300002D0074000E00740E0090020B06D010056
:1003400020F9FF1FE0090020D456002000F4FF1F11
:100350000000000000E400E05FE400E008ED00E0E1
:100360000050064000400640448004400000131145
:1003700004800440C010050014E000E000002020CC
:1003800039D89F5B1CE00340A5C3945A00F0074096
:10039000FFFFFFFFFFFFFFFFFFFFFFFFFFFFFFFF6D
:1003A000FFFFFFFFFFFFFFFFFFFFFFFFFFFFFFFF5D
:1003B000FFFFFFFFFFFFFFFFFFFFFFFFFFFFFFFF4D
:1003C000FFFFFFFFFFFFFFFFFFFFFFFFFFFFFFFF3D
:1003D000FFFFFFFFFFFFFFFFFFFFFFFFFFFFFFFF2D
:1003E000FFFFFFFFFFFFFFFFFFFFFFFFFFFFFFFF1D
:1003F000FFFFFFFFFFFFFFFFFFFFFFFFFFFFFFFF0D
:10040000FFFFFFFFFFFFFFFFFFFFFFFFDEF9FFFF23
:1004100010B5054C237833B9044B13B10448AFF33E
:1004200000800123237010BDE009002000000000BF
:10043000AC6D0100084B10B51BB108490848AFF37B
:1004400000800848036803B910BD074B002BFBD0A0
:10045000BDE81040184700BF00000000E40900207C
:10046000AC6D0100E0090020000000000020704792
:10047000704700BF027C02F0080202F0FF0332B1B5
:10048000C36A406A181A48BF6FF0004070471846A8
:10049000704700BFF8B55548554D564C297803783C
:1004A0002278DFF868E1544F544E120442EA0323E5
:1004B000FF222A700270802022708EF800003870AF
:1004C000B2794F480B4312F00C0FC36002D1B379DD
:1004D000DC063DD4494A9379C3F38103032B40D012
:1004E000464B9A79C2F38102022A42D0434A937959
:1004F000C3F38103022B53D0404A9379C3F38103A2
:10050000022B61D03D4A9379C3F38103012B51D073
:100510003A4A9379C3F38103012B5CD0374B9A7924
:1005200012F00C0F03D19A79D20600D49B79354D85
:10053000354B2A7853F82240D4B1236820469B6873
:1005400098472B7804EB83046468002CF5D1F8BD40
:10055000B3799806EBD5294A9379C3F38103032B2A
:10056000BED19379D906BBD493799B06DFD4B7E784
:10057000F8BD9A79D706B9D49A799606B6D559783E
:1005800001F0020101F0FF020029AFD120211A7011
:100590001A461970937903F00C030C2BFAD1C6E7B5
:1005A0009379DD06A8D493799C06A5D4537898074F
:1005B000BDD5A1E79379DF06AAD593799E06A7D486
:1005C00053789D07B3D4A3E79379D9069AD4537887
:1005D0009B07ACD496E79379DC069FD59379980670
:1005E0009CD453789907A2D598E700BF06C007406E
:1005F00005C0074007C0074009C00740004006404B
:10060000AC560020845300204453002008C007400B
:1006100090F92410104B03604B1C06D0F0B40F4E21
:1006200056F82130984201D0F0BC70470C4F57F873
:10063000213033B18D0000245A1953685460002BC7
:10064000FAD1084C23780022013B237047F821207F
:1006500046F82120E8E700BFCC5D0100645300208C
:10066000445300208553002038B590F924506B1C6A
:100670001BD00E4B0E4953F825400E4BEDB24FF0F8
:10068000FF320D701A6084B1AD0002E02C44646842
:100690005CB194F82530002BF8D0236820462C4418
:1006A0001B6898476468002CF3D138BD4453002080
:1006B00084530020B8F3FF1F704700BF90F9241047
:1006C000104B03604B1C06D0F0B40F4E56F821308F
:1006D000984201D0F0BC70470C4F57F8213033B12D
:1006E0008D0000245A1953685460002BFAD1084C2D
:1006F00023780022013B237047F8212046F821206F
:10070000E8E700BFCC5D01006453002044530020A3
:100710008553002090F92410104B03604B1C06D029
:10072000F0B40F4E56F82130984201D0F0BC70471B
:100730000C4F57F8213033B18D0000245A195368FB
:100740005460002BFAD1084C23780022013B23701F
:1007500047F8212046F82120E8E700BFCC5D0100E2
:1007600064530020445300208553002010B500211D
:1007700004460BF0EBFEB0B1B4F8B4319BB2C3B198
:10078000B4F8B031B4F8B2219BB20133632BC8BFC7
:10079000002392B2934207D09A1D04EB82029BB2CF
:1007A0005060A4F8B03110BDD4F8B8310133C4F8AA
:1007B000B831BDE810400BF085BE00BF103005F029
:1007C000CBBA00BF00B583B002AB012203F8011D14
:1007D0001030194605F0C0FA03B05DF804FB00BF05
:1007E000103005F095B900BF00B583B001220DF1BE
:1007F0000701103005F0C6F801280CBF9DF807006E
:100800004FF0FF3003B05DF804FB00BF103005F07F
:1008100055BA00BF2DE9F0410E4680460AF066FB4E
:10082000174D286007F02EFD0746286807F006FDE3
:100830000446286807F0F0FC6401C0B204F4FF54D9
:10084000BFB20443A7F2BC7744EA4724A8F80040AB
:10085000286807F005FD0746286807F0B9FC04463C
:10086000286807F0C7FCFF02640107F4FF2704F4BF
:10087000FF54C0F346003C4304433480BDE8F0819C
:10088000E44E0020464A474B102010801B781B077F
:1008900034D5F0B5444E454D454C31782B7822780F
:1008A000DFF82CE1434F824042EA03230B43FF224F
:1008B000802132702A7022708EF800103970D907AA
:1008C0003D4A14D51A2393603C4F3D4E3D4D3E4C5E
:1008D0003E49107900233B7053709370D370D360FE
:1008E000337013712B70237013700870F0BD1F07E5
:1008F00005D4DE0606D504239360E5E7704721237F
:100900009360E1E79D0604D45C0604D5162393604A
:10091000DAE79060D8E7180602D509239360D3E799
:10092000D90502D50A239360CEE79F0502D50D2392
:100930009360C9E75E0502D50B239360C4E71D05EC
:1009400002D51E239360BFE7DC0402D50223936027
:10095000BAE7980402D507239360B5E7590402D596
:1009600006239360B0E71F0402D515239360ABE71D
:10097000DE0302D524239360A6E79D0302D522233C
:100980009360A1E7DC0202D5252393609CE718035E
:10099000F5D45903F3D49B0244BF2323936093E718
:1009A0000020054002D0074005C0074006C00740B0
:1009B00007C0074009C00740AC56002000C00740F0
:1009C00001C0074002C0074003C0074004C0074001
:1009D00008C00740002976D02DE9F04F0C46910061
:1009E000631883B05D68002D57D06B185E68002EC9
:1009F00050D073185F68002F49D07B18D3F804805B
:100A0000B8F1000F3CD008EB0103D3F80490B9F122
:100A1000000F32D009EB0103D3F804A0BAF1000FA4
:100A200027D00AEB0103D3F804B0BBF1000F18D0B4
:100A30000BEB01035B6863B1194401934968FFF74D
:100A4000C9FF019B93F825201AB11A68184653680C
:100A500098479BF8253023B1DBF8003058465B6897
:100A600098479AF8253023B1DAF8003050465B6891
:100A7000984799F82530002B35D198F8253063BB7D
:100A800097F825301BB13B6838465B68984796F865
:100A90002530CBB995F8253063B994F8253013B9D2
:100AA00003B0BDE8F08F23685B68204603B0BDE863
:100AB000F04F18472B6828465B68984794F8253014
:100AC000002BEDD0EFE77047336830465B689847FE
:100AD00095F82530002BE0D0ECE7D8F80030404600
:100AE0005B689847CCE7D9F8003048465B68984780
:100AF000C3E700BF90F92420531C26D01B4B2DE9DF
:100B0000F04153F82240D2B2ECB19300E1184D68A5
:100B1000B5B1E9184E6866B1F1184F6837B13B447A
:100B20005968FFF757FF97F82530A3B996F8253095
:100B300063B995F825301BB12B6828465B68984748
:100B400094F8253063B9BDE8F081704733683046CA
:100B50005B689847EDE73B6838465B689847E5E790
:100B6000236820465B68BDE8F041184744530020E5
:100B70002DE9F8434F4CB4F8B021B4F8B23192B239
:100B80009BB29A4238BF6432D31A3F2B67DD4A4D7D
:100B9000D4F8AC91DFF81C8105F58047002637E0DA
:100BA0004FF48072002109F0B9FC48460BF08AFC32
:100BB000C4F8AC61B4F8B231B4F8B0219BB292B2CF
:100BC00093424ED00133632B86BF4FF0000E734625
:100BD0001FFA83FE063304EB83034FF48072D3F8CD
:100BE0000490C4F8AC9109F104012846A4F8B2E1DC
:100BF00009F094FCB9F1000F04D048460BF062FCF8
:100C0000C8F8AC6105F50075BD424FF0000934D05D
:100C1000A5F58070B9F1000FC2D1B4F8B231B4F8C3
:100C2000B0219BB292B293423DD00133632B86BF79
:100C3000CE4673461FFA83FE063304EB83034FF45C
:100C40008072D3F80490C4F8AC9109F10401A4F8BF
:100C5000B2E109F063FCB9F1000FABD0A5E7BDE844
:100C6000F88328464FF48072002105F5007509F0DD
:100C700055FCBD424FF00009CAD14FF480420F49E4
:100C80000F4805F069F8013005D00E4A136820338B
:100C90001360BDE8F8830121142009F093FF0A4B8B
:100CA0000A4A1A60F1E749464FF4807209F036FCAF
:100CB00080E700BFF84E0020680B0020680A002083
:100CC0003C0A0020F44E00200CED00E00400FA0580
:100CD00008B50849084A094B0988118008480022CC
:100CE000A3F8B42104F0F6FB6420BDE808400AF044
:100CF00077BA00BFC45400209C540020F84E002056
:100D00003C0A00202DE9F04F95B00AF0EFF8DFF82B
:100D10002893B84CC9F8000007F090FA236898426D
:100D200000F05882D9F80000B34EB44F07F086FAAD
:100D30002060D9F8000007F0A5FA2368B049024600
:100D4000B0480EF067FD00240123AE4AAE4937607B
:100D500007A88DF81C408DF81D4004F0D7FCDFF883
:100D6000A482002115200AF0FFF998F80020002342
:100D70002F2A8DF81C308DF81D3000F0B48107AC9F
:100D8000204601239F4AA04904F05CFD58B19DF81C
:100D90001C3013F0700F06D00FCC9B4D0FC50FCC3D
:100DA0000FC523682B60D9F8000007F06BFA0446E2
:100DB000D9F8000007F042FA8246D9F8000007F09F
:100DC0002BFA0590D9F8000007F04AFA8346D9F8C3
:100DD000000007F0FDF90490D9F8000007F00AFAC6
:100DE000059A049B0092039002932246CDF804B02A
:100DF0005346864986480EF00DFD002508243760CD
:100E0000152009F0C3FD0DF081FA4FF06A510DF085
:100E1000D1FA014628460DF0C5F9013C0546EFD14F
:100E20007948DFF8189204F055FB7A4901F23C400A
:100E300004F088FD4FF47A7646230BA8764A72496F
:100E40008DF82C408DF82D408DF820408DF82840ED
:100E50000996CDF81C9004F0F5FC9DF82C30002B81
:100E600040F04F810121142009F0ACFE6B4B6C4A1D
:100E70001A6098F80020634900232F2A8DF81C304F
:100E80008DF81D3000F0228107A801235D4A5E49DC
:100E900004F0D8FC60B19DF81C3013F0700F07D03F
:100EA00007AC0FCC584D0FC50FCC0FC523682B6076
:100EB0004FF47A7500240995C223554A52498DF89A
:100EC0002C400BA80BAD8DF82D408DF820408DF8EF
:100ED0002840CDF81C9004F0B5FC0FCD514E9DF884
:100EE0002040347106F110040FC40FCD0FC4099ACD
:100EF0009DF828302968B2603373454821600EF0B0
:100F0000DFFC01464248484FDFF810B1DFF810A17E
:100F10000BF000F945480BF04DFE46E004F092FC62
:100F200060B19DF81C30384D13F0700F07AC05D040
:100F30000FCC0FC50FCC0FC523682B604FF47A750B
:100F40000024C223324A304909950BA80BAD8DF815
:100F50002C408DF82D408DF820408DF82840CDF89C
:100F60001C9004F06FFC0FCD314C9DF820E086F80A
:100F700004E00FC40FCD0FC49DF82830099A3373D5
:100F80002968B260224821600EF09AFC0146204890
:100F90000BF0C0F825480BF00DFE0A200AF020F9EE
:100FA0003B68B3F57A7F00F38A80347C2149184886
:100FB000002C45D13B6801331A463B600EF02AFCF9
:100FC00098F800500F4A10498DF81C402F2D4FF013
:100FD000010307A88DF81D40A0D15478002C9DD1A5
:100FE000084604F077FA0B4901F23C4004F0AAFCF1
:100FF000A4E700BF0C520020405300201508000059
:10100000F05D0100B8500020A84E0020FC5D0100FA
:10101000745100206C4A00201C5E01000CED00E0C1
:101020000400FA052C0A0020B450002080FFFF1FA6
:101030003C0A0020505E0100E44E0020A85D010043
:101040007E487F4907687F4C7F4A804B804D03C9AB
:10105000206092E80300A06093E8030010260123BB
:10106000A382E382E060266138460DF08FFB3946AB
:10107000A06138460DF096F80DF088FB754AE061E6
:101080002B68668492E803005B0203F124062C229D
:101090006062214602277048A3622784666004F0DC
:1010A0005BFE09216D480BF035F829686C480BF0A0
:1010B00007FD6B480BF07EFD15B0BDE8F08F0121F8
:1010C000142009F07FFDCBF800A06EE74B78002BD1
:1010D0007FF4DAAE634804F0FDF9634901F23C4065
:1010E00004F030FCE4E698F80130002B7FF447AEC2
:1010F0005C4804F0EFF95C4901F23C4004F022FC4A
:1011000051E65A485A4E0EF0DBFB584902460BA8EE
:1011100004F022FE14A92C2301F8383D01220DEB26
:10112000030004F019FE06F1080707AC16F8011FCA
:1011300000230A2220460BF08DFDB742F6D1284647
:101140004C490DF037F94FF078510DF033F914A9EF
:101150002C250646012201F8355D0DEB050004F053
:10116000FBFD454B18680CF07BFC02270B46024642
:10117000009720460BF0CCFD14A9012201F8365D42
:101180000DEB050004F0E8FD30460CF069FC00971B
:101190000B46024620460BF0BBFD14A9012201F8C4
:1011A000375D0DEB050004F0D7FD34480EF088FBE9
:1011B000324902460DEB050004F0CEFD20460BF04F
:1011C000F9FC30462E490DF093FA30B90BA804F023
:1011D00081F94EE62B4E2C4FC1E528222B490DEB11
:1011E000050004F0B9FD20460BF0E4FC0DEB050012
:1011F00004F070F900250824152009F0C7FB0DF054
:1012000085F84FF06A510DF0D5F8014628460CF0EC
:10121000C9FF013C0546EFD116490DF0CBF84FF060
:1012200078510DF0C7F816490DF062FA0028CDD0BC
:1012300047F2305009F0D4FFDCE700BFF451002042
:101240005C5E010050520020645E01006C5E010093
:10125000D4510020745E01003C0A00207C5E010035
:1012600080FFFF1FA84E00206C4A00207451002010
:1012700033510020CDCCBC404451002008FAFF1F60
:10128000000040404053002015080000245E01008B
:1012900038B5154DFFF736FD144BD5F8AC010024D9
:1012A0001C6018B10BF00EF9C5F8AC41B5F8B241AD
:1012B000B5F8B031A4B29BB29C420ED00134642C7C
:1012C00028BF0024A31D05EB830358680BF0FAF830
:1012D000B5F8B0319BB2A342F0D1A4B20123A5F876
:1012E000B241A5F8B43138BDF84E0020F44E0020CC
:1012F0002DE9F0438FB004460EF0E2FA00B2012867
:101300001CDDB4F9003044F25372934200F087813F
:1013100018DD44F65452934200F0D58045F2532232
:1013200093422AD044F65212934207D10BAAE01CF2
:10133000C3490EF095FAC34B0B9A1A6001200FB007
:10134000BDE8F08344F24E4293420FD044F2524241
:101350009342F3D10BAAE01CB9490EF081FABA4BC3
:101360000B9A1A6001200FB0BDE8F083B74B012241
:1013700001201A600FB0BDE8F0830AAD09A908AAE0
:1013800005ABE01C039502910192009307AA06ABFE
:10139000AF490EF065FAAF4B079D596818689A6817
:1013A0000A9EDDF824E0DDF820C0A5F5FA65ADB2AF
:1013B0000BAF2CB207C7069F05991E3415F0030F1B
:1013C0004FEAA408FDB240F03981A34B022D8CBF37
:1013D0001F460027A148A24BC8EB040400FB08F0FD
:1013E0006A1E03FB0400002A00EB070347DD9DF89B
:1013F0002C409948012A00FB043340D09DF82D4031
:10140000022A00FB04333AD09DF82E40032A00FB49
:10141000043334D09DF82F40042A00FB04332ED02F
:101420009DF83040052A00FB043328D09DF8314058
:10143000062A00FB043322D09DF83240072A00FB25
:1014400004331CD09DF83340082A00FB043316D027
:101450009DF83440092A00FB043310D09DF8354034
:101460000A2A00FB04330AD00B2A9DF8364018BF25
:101470009DF8372000FB043318BF00FB02335FFAEE
:101480008EF2C2EB02125FFA8CF04FF461649200AC
:1014900004FB0022704D734C7348C9B2013952FAF3
:1014A00086F205FB01221344122123600AF032FE6A
:1014B00021686E480BF004FB6C480BF07BFB0120AD
:1014C0000FB0BDE8F0830AAD09A908AA05ABE01C7E
:1014D000039502910192009307AA06AB5C490EF0B6
:1014E000BFF95C4B079F9A68186859680A9EDDF837
:1014F00024E0DDF820C0A7F5FA67BFB20BAC3DB21F
:1015000007C4069A059C1E3517F0030F4FEAA5087D
:10151000D7B240F09080504B022F8CBF99464FF0CD
:1015200000094E494E4BC8EB050501FB08F17A1E38
:1015300003FB0510002A00EB090347DD9DF82C0092
:101540004549012A01FB003340D09DF82D00022AB5
:1015500001FB00333AD09DF82E00032A01FB003333
:1015600034D09DF82F00042A01FB00332ED09DF8C3
:101570003000052A01FB003328D09DF83100062AEF
:1015800001FB003322D09DF83200072A01FB003313
:101590001CD09DF83300082A01FB003316D09DF8BB
:1015A0003400092A01FB003310D09DF835000A2AC7
:1015B00001FB00330AD00B2A9DF8360018BF9DF8B6
:1015C000372001FB003318BF01FB02335FFA8EF2B4
:1015D000C2EB02125FFA8CF04FF46165920005FBDA
:1015E0000022E1B21C4C1F4D52FA86F2013904FB75
:1015F00001241C4420462C6009F07EFC0B211C4871
:101600000AF088FD214600230A2218480BF022FB2D
:1016100016480BF0CFFA01200FB0BDE8F0830BAAFB
:10162000E01C07490EF01CF9124B0B9A1A600120BE
:101630000FB0BDE8F0834FF0000972E70027C9E65C
:10164000D45E010040FAFF1F34FAFF1F640A002035
:10165000B45E0100D85D0100805101000085E20107
:101660008033E101EC4E0020D85E010080FFFF1FB7
:10167000C85E010000FAFF1F2DE9F043A3B000256A
:101680004FF47A76764F77480A968DF830508DF879
:1016900031508DF824508DF82C50089703F01AFF24
:1016A000714901F23C4004F04DF901236F4A6D4944
:1016B000179619A88DF864508DF865508DF858501C
:1016C0008DF86050159704F0BDF80DF1640EBEE87A
:1016D0000F000CAE0FC6BEE80F000FC69DF830809D
:1016E000DEF800109DF85800179A9DF860303160C0
:1016F0008DF824000A928DF82C30B8F1000F46D0F6
:101700002E468DF800604FF000094FF0FF080122CF
:1017100015A90CA804F036F909F1010322AA012841
:101720004A441BB224D01D2B02F8888C05DC994654
:10173000EDE71D2B01DC0A2AF9D1013B9BB222AA5D
:101740001A4402F8886C9DF800202F2A04D0012B3F
:1017500002D96846FFF7CCFD9DF830301B0711D445
:101760000CA803F0B7FE2DBB012023B0BDE8F08329
:101770009DF854200D2A08BF4B4662D11D2BDCDC9E
:101780009946C4E7139A119B9A42BAD1E8E714210B
:1017900037480AF0BFFC37480BF00CFA0D223649E7
:1017A00036480BF079F935480BF004FA404623B07F
:1017B000BDE8F0830B2132480AF0ACFC00230A227A
:1017C00021462C480BF046FA2A480BF0F3F925483D
:1017D00003F080FE2449002501F23C4004F0B2F8F9
:1017E0004FF47A768DF864508DF865508DF8585026
:1017F0008DF8605063231D4A1A49179619A819AD30
:10180000159704F01FF80FCD0CAE0FC60FCD0FC605
:101810002968179A9DF860309DF8585031600CA8DF
:1018200021460A928DF82C308DF8245004F0A4F94A
:10183000022214490CA804F08FFA0CA803F04AFE07
:1018400092E722AB03EB0901542A09F1010301F8E5
:10185000882C1BB27FF46DAF119C0546013C8DE7CF
:10186000A85D0100A84E00206C4A0020EC5E01003B
:10187000085F010080FFFF1F205F01009C510020D6
:10188000F85E0100045F01002DE9F04383B009F028
:101890002DFB744B744D186001217448744C754FC6
:1018A000754EDFF81492DFF8148207F075FC012101
:1018B0006E4807F077FC122200216C4807F068FCA4
:1018C00004226E4969480BF0E7F8296867480BF075
:1018D000F7F802226A4965480BF0DEF863480BF01E
:1018E00069F90622674961480BF0D6F821685F481C
:1018F0000BF0E6F8032264495C480BF0CDF85B4836
:101900000BF058F93B6856F823000CF0FFFC5F49D8
:101910000CF004FE0CF0A4F802460B4653485C4958
:101920000BF08AF90121514807F036FC2D683B681D
:10193000284656F823700CF0E9FC06462068284437
:101940000CF0E4FC014630460CF0E8FD014604468C
:101950004FF07E500CF024FC4E4B19680CF02AFD21
:101960004D4B0646196820460CF024FD01463046D2
:101970000CF018FC0146D9F800000CF0CFFD4749E7
:101980000CF018FD0CF002FF454B064618680023CA
:10199000C8F8003000284ED00CF0B4FC8146680036
:1019A00007FB00F02C300CF0B1FC4FF08E410CF036
:1019B000F9FB36490CF0B2FD34490CF0AFFD01469D
:1019C00048460CF0ABFD0CF04BF80BF05DFE0CF054
:1019D00073FB034600FB05F0C8F800300CF092FCE6
:1019E00021460CF09BFD044630460CF08BFC014672
:1019F00020460CF09BFE00BB01462E221B4807F040
:101A0000C7FB0D22274919480BF046F82046264906
:101A10000CF084FD0CF024F8022402460B460094DE
:101A200012480BF075F921491048012203B0BDE8B6
:101A3000F0430BF031B80020D2E72E2200210B48F2
:101A400007F0A6FB0E221A4908480BF025F81949A1
:101A50000648A1FB0631090C00230A220BF0FAF814
:101A6000E1E700BFE44E002034FAFF1F9C51002044
:101A700040FAFF1F30FAFF1F14FAFF1F305F01000A
:101A8000385F01003C5F0100445F010000007A44C0
:101A9000485F010038FAFF1F44FAFF1F000061454C
:101AA0004C520020645F010000C0A847C45E0100E2
:101AB000545F010007452EC23CFAFF1F0052002070
:101AC00038B5054606F0DEFB1E4C014620460AF0FE
:101AD000F7FF2D200AF0F2FB284606F0AFFB014687
:101AE00020460AF0EDFF2D200AF0E8FB284606F01C
:101AF00093FB014620460AF0E3FF012112480AF059
:101B000009FB284606F0ACFB014620460AF0D8FF48
:101B10003A200AF0D3FB284606F05AFB014620463D
:101B20000AF0CEFF3A200AF0C9FB284606F062FB15
:101B3000014620460AF0C4FF2046BDE838400BF0BD
:101B400039B800BF80FFFF1FAC5F010010B5002057
:101B500008F0E2FF214C2070012008F0DDFF6070EA
:101B6000022008F0D9FFA070032008F0D5FF1C4B1D
:101B7000E07022681A60042008F0CEFF2070052073
:101B800008F0CAFF6070062008F0C6FFA0700720AA
:101B900008F0C2FF134BE07022681A60082008F0BA
:101BA000BBFF114B1870092008F0B6FF0F4B1870DF
:101BB0000A2008F0B1FF0E4B18700B2008F0ACFFA4
:101BC0000C4B18700C2008F0A7FF0B4B18600D2071
:101BD00008F0A2FF094B186010BD00BF485100205B
:101BE00034FAFF1F40FAFF1F280A00204452002049
:101BF00070510020F04E0020D851002030FAFF1F15
:101C0000234B10B51968234C00202160C9B208F09D
:101C1000D9FF6178012008F0D5FFA178022008F0F3
:101C2000D1FFE178032008F0CDFF1B4B196821603C
:101C30000420C9B208F0C6FF6178052008F0C2FF91
:101C4000A178062008F0BEFFE178072008F0BAFF6F
:101C5000124B0820197808F0B5FF114B09201978AC
:101C600008F0B0FF0F4B0A20197808F0ABFF0E4BBD
:101C70000B20197808F0A6FF0C4B0C20197808F0FF
:101C8000A1FF0B4B0D201978BDE8104008F09ABF5A
:101C900034FAFF1F4851002040FAFF1F280A002095
:101CA0004452002070510020F04E0020D8510020F6
:101CB00030FAFF1F2DE9F04F102983B00C4606467D
:101CC0007FD0202976D04FF0000A5FFA8AFA4AF0D6
:101CD000E0630021009301204AF08E4301930CF051
:101CE0002BFB01463A480CF019FC074620460CF045
:101CF00009FB01460CF056FA044630460CF002FB94
:101D0000014620460CF056FB014638460CF006FC16
:101D10004FF001084FF07E550746C1464FF0010ACB
:101D20004FF0000B50460CF0F1FA39460CF042FB34
:101D300004460CF005FD0CF0E9FA014620460CF0D3
:101D40002FFA294606460CF0D3FC4FF0874148B1E4
:101D500020460CF0CDFC28B120460CF037FD35466E
:101D60008046D1461AF1010A4BF1000BBBF1000F7E
:101D700008BFBAF1400FD5D11649174C0D68174866
:101D8000174E09F1FF3208F1FF33120302F47F22EC
:101D9000C3F30B03134325F010420A602360009B3A
:101DA0000360019B33600B6843F010430B6003B08A
:101DB000BDE8F08F0B4B019303F140430A4F0093B2
:101DC00094E70A4B019303F14043094F00938DE7D9
:101DD000001B374C80F0024004F1024008F0024042
:101DE00088F0024001000047001BB74B030000478A
:101DF000001B374B2DE9F04F0546DFF87C82974EEC
:101E0000974F98F800E02E60FF2085F82400DFF857
:101E10006C92387859F820C00023BEF1060F8DB0BF
:101E20000C4685F8253085F826309CBF88F80030B0
:101E30009E46BCF1000F00F0A8808C455BD0634645
:101E4000810001E09C4256D00B445B68002BF9D125
:101E5000634603EB010ADAF80430002BF9D105EBF5
:101E6000010BCAF80440BEF1060F4FF0FF044FFA11
:101E700080FACBF804308DF82C4002968DF82D3086
:101E80008DF82E3085F824A0644605D8002388F804
:101E90000030002C00F0A980A24226D0234601E0A9
:101EA000934222D00B445B68002BF9D104EB010C68
:101EB000DCF80440002CF9D1CCF804200CAB194418
:101EC0000024431CBAF1FF3F41F8244C3B708DF8CD
:101ED0002CA0029605D0634951F82A3002AA9342F9
:101EE00072D028460DB0BDE8F08F0130387028461A
:101EF0000DB0BDE8F08F0023FF21BEF1060F029662
:101F00008DF82C108DF82D308DF82E3001D888F8F2
:101F100000309445E9D06346810001E09A42E4D064
:101F20000B445B68002BF9D18C44DCF804402CB1E5
:101F3000A4468C44DCF80440002CF9D10CAB1944C5
:101F40004FFA80FE431CBEF1FF3FCCF804203B70EB
:101F500041F8244C02968DF82CE0C2D0414951F84A
:101F60002E3002AA9342BCD159F82E304FEA8E0689
:101F700023B19A1953685460002BFAD100233870AA
:101F800049F82E3041F82E30ABE7B0B38100DFF8CE
:101F9000D4A049F8204005EB010C00234AF820505A
:101FA000BEF1060FCCF804304FFA80FA4FF0FF0C68
:101FB00002968DF82D308DF82E3085F824A08DF8FE
:101FC0002CC07FF663AF64E759F82A304FEA8A06DF
:101FD00023B19A1953685460002BFAD1002338704A
:101FE00049F82A3041F82A307BE7F0B11D4B49F817
:101FF000202002AA43F8202060E71B491B480B68F9
:10200000019243F080630B600368194923F0804319
:102010000360152008F09EFE164B98F800E0019A28
:102020004FF4001119603878B0E70F4C0F4823685F
:10203000019243F08063236003680D4923F08043DD
:102040000360152008F086FE0A4B019A4FF4001138
:10205000196038784FFA80FA8100C7E7CC5D01003B
:102060008553002064530020047004400070044035
:102070009504000000E100E0BCF3FF1F4453002082
:102080002DE9F041584D594C594E08F0FDFC042102
:10209000584807F04DFE2A682660002363722361CA
:1020A0002372E3600AB99AE01A465369002BFBD108
:1020B00054610027504B4D486761A780E78023603B
:1020C00002F048FC4D4A4FF0010E02F118013B4668
:1020D00038461772D760166082F809E0116117461A
:1020E00000E0396941F82300517A444E01339942A6
:1020F000F7DC29683C4B09B973E019464B69002BA2
:10210000FBD14A613E4B3F491C6000241846546194
:102110009480D480A2F8B0411160A2F8B2415A6014
:10212000C2F8AC41A2F8B441C2F8B8411C725C726A
:10213000DC600AF017FA344A344B5069344A1A60AA
:102140000CF0E4F8334D344B344E18604FF0FF0878
:10215000334B344A344985F825402846012785F811
:1021600024802B606C63AC6385F83C4085F8267056
:102170000CF0DAFC2D4B2B4A2D4986F82480304692
:1021800086F82540336086F8274086F8284086F890
:1021900026700CF0C9FC2A4631462648264DFFF72A
:1021A00029FE204A254923480CF0BEFC244A254B31
:1021B0002549147464204FF47A765474147114739E
:1021C000DC7183F83C4483F83D4483F86A4483F827
:1021D000600496601560C3F86C14BDE8F0812C6053
:1021E00067E71E608EE700BF98540020545100201E
:1021F0009C5D01009C5100203C610100F84E0020D4
:1022000018510020EC5D010014FAFF1F2851002036
:1022100020610100D0500020F45100201452002011
:10222000E4610100FCF9FF1FBD060000F861010038
:1022300015070000000A0020A85D0100110600003B
:102240002C0A00206C4A00200110013810B5184CEF
:102250000A21204602F0ECFE2046002102F0C0FCDC
:102260002046302102F0BCFC2046002102F0B8FCE0
:102270000021204602F0B4FC204602F0EBFE20468E
:102280000A2102F0D5FE2046002102F0A9FC2046DA
:10229000022102F0A5FC2046002102F0A1FC20460C
:1022A000002102F09DFC2046BDE8104002F0D2BEA5
:1022B0002453002010B5184C0A21204602F0B8FE25
:1022C0002046002102F08CFC2046302102F088FCE0
:1022D0002046002102F084FCA221204602F080FC6E
:1022E000204602F0B7FE20460A2102F0A1FE204659
:1022F000002102F075FC2046022102F071FC20460C
:10230000002102F06DFC2046432102F069FC2046CA
:10231000BDE8104002F09EBE24530020023803287E
:1023200010B504DC002880F2D981002400E00C24E0
:102330000A21CA4802F07CFE0021C84802F050FC85
:102340003021C64802F04CFC4021C44802F048FC51
:102350006021C24802F044FCC04802F07BFE0A2122
:10236000BE4802F065FE0021BC4802F039FC26217F
:10237000BA4802F035FC0021B84802F031FC6C216B
:10238000B64802F02DFCB54802F064FE0A21B348BD
:1023900002F04EFE0021B14802F022FC2821AF4895
:1023A00002F01EFC0121AD4802F01AFCF021AB48FE
:1023B00002F016FCA94802F04DFE0A21A74802F0DF
:1023C00037FE0021A54802F00BFC2A21A34802F0A9
:1023D00007FC0021A14802F003FC00219F4802F005
:1023E000FFFB9E4802F036FE0A219C4802F020FEC8
:1023F00000219A4802F0F4FB2C21984802F0F0FBEF
:102400000F21964802F0ECFB2221944802F0E8FBF1
:10241000924802F01FFE0A21904802F009FE0021B6
:102420008E4802F0DDFB3C218C4802F0D9FB4421B0
:102430008A4802F0D5FB4621884802F0D1FB874844
:1024400002F008FE0A21854802F0F2FD00218348CF
:1024500002F0C6FB2421814802F0C2FB01217F4823
:1024600002F0BEFB37217D4802F0BAFB7B4802F048
:10247000F1FD0A21794802F0DBFD0021774802F0E6
:10248000AFFB3021754802F0ABFB0021734802F02E
:10249000A7FBA221714802F0A3FB704802F0DAFD0D
:1024A0000A216E4802F0C4FD00216C4802F098FB3E
:1024B00002216A4802F094FB0021684802F090FB78
:1024C0004321664802F08CFB644802F0C3FD4FF4E0
:1024D000C87008F085FE0A21604802F0A9FD0021BD
:1024E0005E4802F07DFB2E215C4802F079FB192149
:1024F0005A4802F075FB1921584802F071FB574801
:1025000002F0A8FD0A21554802F092FD002153482F
:1025100002F066FB0421514802F062FB00214F48A3
:1025200002F05EFB21464D4802F05AFB4B4802F098
:1025300091FD0A21494802F07BFD0021474802F045
:102540004FFB0621454802F04BFB0121434802F0B6
:1025500047FB3021414802F043FB404802F07AFD3E
:102560000A213E4802F064FD00213C4802F038FB9D
:102570000A213A4802F034FB0021384802F030FBCF
:102580000021364802F02CFB344802F063FD0A219A
:10259000324802F04DFD0021304802F021FB0E21AF
:1025A0002E4802F01DFB00212C4802F019FB0821E7
:1025B0002A4802F015FB294802F04CFD0A21274861
:1025C00002F036FD0021254802F00AFB10212348C5
:1025D00002F006FBFF21214802F002FB3C211F48CC
:1025E00002F0FEFA1D4802F035FD0A211B4802F0F8
:1025F0001FFD0021194802F0F3FA2221174802F0CA
:10260000EFFA7F21154802F0EBFA7F21134802F020
:10261000E7FA124802F01EFD0A21104802F008FDF8
:1026200001210E4802F0DCFA24210C4802F0D8FA0D
:1026300000210A4802F0D4FA0021084802F0D0FA3A
:10264000064802F007FD0A21044802F0F1FC0021CF
:10265000024802F0C5FA242102E000BF2453002002
:10266000204802F0BDFA00211E4802F0B9FA1421F8
:102670001C4802F0B5FA1B4802F0ECFC0A2119488C
:1026800002F0D6FC0021174802F0AAFA2A211548C8
:1026900002F0A6FA0021134802F0A2FA0021114824
:1026A00002F09EFA0F4802F0D5FC0A210D4802F014
:1026B000BFFC00210B4802F093FA2021094802F0E8
:1026C0008FFA0021074802F08BFA0021054802F03A
:1026D00087FA044802F0BEFC012010BD8000C4B29D
:1026E00026E600BF2453002038B5304B304C102173
:1026F000054653F82000FFF7DDFA2E4802F016FBDE
:102700002846FFF70BFE22782B48114601F0A0FD6A
:1027100023680F2B0CD8DFE803F00C1014181C20D2
:1027200024282C3034383C404408244B244A1A6076
:1027300038BD224B234A1A6038BD204B224A1A600A
:1027400038BD1E4B214A1A6038BD1C4B204A1A6006
:1027500038BD1A4B1F4A1A6038BD184B1E4A1A6002
:1027600038BD164B1D4A1A6038BD144B1C4A1A60FE
:1027700038BD124B1B4A1A6038BD104B1A4A1A60FA
:1027800038BD0E4B194A1A6038BD0C4B184A1A60F6
:1027900038BD0A4B174A1A6038BD084B164A1A60F2
:1027A00038BD064B154A1A6038BD00BF14FAFF1F2A
:1027B00000FAFF1F2453002028510020445100201C
:1027C000BD549341103377C0993918C0BE0D68BF0E
:1027D000CE71153F8D090340CCC9624009A7A340C3
:1027E0007DDBD140C416014154FC1741D0E8304193
:1027F000195546419FAB5F41A04176415E2E86410F
:1028000038B501210446314806F0C6FC37220021C4
:102810002E4806F0BDFC204605F034FD01462B484D
:102820000AF04EF92D21294806F078FC204605F0E3
:1028300005FD014625480AF043F92D21234806F0FD
:102840006DFC204605F0E8FC014620480AF038F906
:1028500002221F491D480AF01FF9204605F000FD1D
:10286000092803DC3021194806F058FC204605F001
:10287000F7FC014615480AF023F9204605F0A8FCAC
:1028800001220546134911480AF006F9092D03DC17
:1028900030210E4806F042FC29460C480AF010F997
:1028A000204605F0A7FC012204460A4907480AF021
:1028B000F3F8092C03DC3021044806F02FFC2146F4
:1028C0000248BDE838400AF0FBB800BF9C51002028
:1028D000745F01009C5F01002DE9F04F87B0FFF7A6
:1028E00035F908F003FBA44FA44D3860A448A54C6B
:1028F00007F032FA0121A24806F054FC0221A04858
:1029000006F04AFC002211469D4806F041FC0822D0
:102910009D499B480AF0C0F80121994806F03CFC0B
:1029200010220021964806F033FC12229749944861
:102930000AF0B2F892480AF03DF9002394482B605F
:102940000AF038F992480AF035F90521914809F062
:10295000E1FB8B4807F03CFC07218F4802F09AFC12
:102960000E218D4802F0F4FC04F58C660C218A4897
:1029700002F0C0FC304604F26C414FF038430A22AA
:1029800004F0B0FB002840F0EB851C21834809F0DF
:10299000C1FB7F480AF00EF90622814978480AF007
:1029A0007BF877480AF006F9754807F011FC7D4A74
:1029B0007D4B12689A4202D97A4A3C2313607B4AC3
:1029C000794B12689A4202D9784A3C231360784BBB
:1029D000DFF808A21A78172A84BF00221A70754BF4
:1029E0001A783B2A84BF00221A70734B1A78172A70
:1029F00084BF00221A70714B1A783B2A84BF0022D0
:102A00001A70DAF80030012B84BF0023CAF80030B6
:102A10006B4B1B68042B00F2FA846A4DDFF8C0810F
:102A2000694E082008F092FBE8B92B6801332B604F
:102A300002E00A2008F0D4FB082008F087FB0028F9
:102A4000F7D02A68DAF80030A2F10901B3FA83F36B
:102A500004294FEA531300F2D084002B00F0CD84F8
:102A6000584A0E231360464807F076F9012144487E
:102A700006F098FB0221424806F08EFB0022114628
:102A80003F4806F085FB08F031FA3B682C6830605F
:102A9000C3EB00090E2C5BD8DFE814F06B042704AD
:102AA000D8033C03BC023C02A7012701A6005A0040
:102AB0005A005A005A005A000F00414B04201C686B
:102AC00008F044FB0190032008F040FB019B834683
:102AD000002B40F0E184D8F800303C4A0121132B50
:102AE000117040F312860133C8F800300134BBF195
:102AF000000F40F0D884DFF8ECB0344ADBF8003047
:102B00000121132B117040F30786092CC8BFDBF895
:102B1000003004F1FF34CCBF01330123002CCBF88B
:102B20000030C0F2C684062CA8BF0024284B244ADB
:102B300053F8240014600BF0E9FB26490BF0EEFC7F
:102B40000AF08EFF02460B460D4823490AF074F83E
:102B5000FEF79AFE08F0CAF9FFF752FE084807F0A0
:102B600037FB0A2008F03CFBB9F5167F7FF759AF19
:102B700007B0BDE8F08F00BF684A00204C5200202B
:102B80009C5100206C4A0020785F0100845F0100A6
:102B900080FFFF1F985F01004CFAFF1F14600100C7
:102BA0003460010034FAFF1FA086010040FAFF1FC5
:102BB000280A00204452002070510020F04E0020CE
:102BC00030FAFF1FCC500020E44E0020E84E0020D9
:102BD00014FAFF1F00007A4408600100D851002059
:102BE000F05100200452002005F004FBBE4C0346C7
:102BF00004202360029308F0A9FA0190032008F052
:102C0000A5FA019A029B8346002A40F03584D8F841
:102C10000020B6490120132A087040F38285013252
:102C2000C8F800200133BBF1000F40F02C84DFF81E
:102C3000E0B2AE49DBF800200120132A087040F30F
:102C40007985092BC8BFDBF8002003F1FF33CCBF27
:102C500001320122002BCBF80020C0F21A843C2B59
:102C6000A8BF00232268A24C9A4223602FD030686C
:102C700005F0F6FA0390306805F0AAFA216802918F
:102C80008346306805F0C8FA0446306805F0D6FA85
:102C90000190306805F0F6FA0DF1180E02990EF861
:102CA000081D00F14E0C039A019B8DF8122070460E
:102CB0008DF816C08DF815308DF814408DF811B0D0
:102CC00005F0F4FA08F018F908F010F93860072256
:102CD0008849894809F0E0FE08F008F905F08AFA09
:102CE0000146854809F0ECFE32E705F071FA834CA5
:102CF000034604202360029308F028FA0190032081
:102D000008F024FA019A029B8346002A40F00184CD
:102D1000D8F8002075490120132A087040F3B984BF
:102D20000132C8F800200133BBF1000F40F0F883F6
:102D3000DFF8DCB16D49DBF800200120132A0870B0
:102D400040F3B084092BC8BFDBF8002003F1FF3348
:102D5000CCBF01320122002BCBF80020C0F2E68369
:102D60003C2BA8BF00232268654C9A4223602ED0DA
:102D7000306805F075FA03903068246805F03AFA77
:102D80000290306805F048FA8346306805F056FA3C
:102D90000190306805F076FA0DF1180E02990EF8E0
:102DA000081D00F14E0C039A019B8DF8122070460D
:102DB0008DF816C08DF815308DF814B08DF81140CF
:102DC00005F074FA08F098F808F090F838600722D7
:102DD0004C49494809F060FE08F088F805F0F8F918
:102DE0000146454809F06CFEB2E605F039FA464C5A
:102DF000034604202360029308F0A8F90190032001
:102E000008F0A4F9019A029B8346002A40F07283DD
:102E1000D8F8002035490120132A087040F349846E
:102E20000132C8F800200133BBF1000F40F0698384
:102E3000DFF8DCB02D49DBF800200120132A0870F0
:102E400040F34084092BC8BFDBF8002003F1FF33B7
:102E5000CCBF01320122002BCBF80020C0F25783F7
:102E6000182BA8BF0023226801939A422DD0306806
:102E700005F0AEF90390306805F0BCF902903068B7
:102E800005F0CAF90446306805F0D8F98346306881
:102E900005F0F8F90DF1180E02990EF8081D00F171
:102EA0004E0C039A019B8DF8112070468DF816C0C8
:102EB0008DF812308DF815B08DF8144005F0F6F944
:102EC00008F01AF808F012F8386005220F490A488D
:102ED00009F0E2FD08F00AF805F0C2F901460648DB
:102EE00009F0EEFD34E600BF10520020E84E00204D
:102EF00010510020006001009C5100205051002022
:102F0000E04E0020F85F0100DC510020F05F01007E
:102F10000452002005F080F9C04C034604202360D1
:102F2000029308F013F90190032008F00FF9019AB9
:102F3000029B8346002A40F0CE82D8F80020B84990
:102F40000120132A087040F3C4830132C8F800201E
:102F50000133BBF1000F40F0C582DFF8ECB2B0499D
:102F6000DBF800200120132A087040F3BA83092BF4
:102F7000C8BFDBF8002003F1FF33CCBF01320122D0
:102F8000002BCBF8002040F3B382202BA8BF0123F5
:102F90002268A44C9A4223602ED0306805F060F974
:102FA0000390306805F014F98346306805F022F983
:102FB00002903068246805F041F90190306805F00E
:102FC00061F90DF1180E029A0EF8082D00F14E0C61
:102FD000039B01998DF8123070468DF816C08DF85C
:102FE00015108DF814408DF811B005F05FF907F059
:102FF00083FF07F07BFF386004228B498B4809F080
:103000004BFD07F073FF05F007F90146874809F00B
:1030100057FD9DE505F012F9854C03460420236019
:10302000029308F093F80190032008F08FF8019ABA
:10303000029B8346002A40F03F82D8F8002078495E
:103040000120132A087040F352830132C8F800208F
:103050000133BBF1000F40F03682DFF8ECB170496C
:10306000DBF800200120132A087040F34883092B65
:10307000C8BFDBF8002003F1FF33CCBF01320122CF
:10308000002BCBF8002040F324820D2BA8BF012396
:103090002268684C9A4223602ED0306805F0E0F830
:1030A0000390306805F094F88346306805F0A2F884
:1030B0000290306805F0B0F801903068246805F09F
:1030C000E1F80DF1180E02990EF8081D00F14E0CF2
:1030D000039A019B8DF8122070468DF816C08DF86A
:1030E00014308DF815408DF811B005F0DFF807F0B9
:1030F00003FF07F0FBFE386006224F494B4809F0FA
:10310000CBFC07F0F3FE05F099F80146474809F0BB
:10311000D7FC1DE505F0B6F8484C034604202360B3
:10312000029308F013F80190032008F00FF8019AB9
:10313000029B8346002A40F07E81D8F8002038495F
:103140000120132A087040F30A830132C8F80020D6
:103150000133BBF1000F40F07581DFF8ECB030496E
:10316000DBF800200120132A087040F30083092BAC
:10317000C8BFDBF8002003F1FF33CCBF01320122CE
:10318000B3F5FA6FCBF80020C0F2638140F6340249
:103190009342C8BF4FF4FA632268294C9A422360D5
:1031A0002ED0306805F05CF80390306805F010F818
:1031B0008346306805F01EF80190306805F02CF861
:1031C0000290306805F03AF80DF1180E9DF80420D1
:1031D0000EF8082D23680399029A8DF815004E33D6
:1031E00070468DF812108DF816308DF814208DF879
:1031F00011B005F05BF807F07FFE07F077FE38604E
:1032000005221049094809F047FC07F06FFE05F058
:1032100039F80146054809F053FC99E46C51002047
:10322000E84E002048520020E85F01009C51002039
:103230004052002014510020E05F0100085200209D
:103240004C510020D85F010004520020B84B0420EC
:103250001C6807F07BFF0190032007F077FF019BBC
:103260008346002B40F0D880D8F80030B14A0121C5
:10327000132B117040F381820133C8F80030013400
:10328000BBF1000F40F0CF80DFF8D0B2A94ADBF8E5
:1032900000300121132B117040F37582092CC8BF37
:1032A000DBF8003004F1FF34CCBF01330123002CE4
:1032B000CBF80030C0F2BD809F4B9C42C8BF0024B9
:1032C0009B4B9E499E481C60042209F0E5FB984BED
:1032D00019689B4809F0F4FB01229A49984809F0C3
:1032E000DBFB974809F066FC32E4974B04201B682F
:1032F000029307F02BFF0190032007F027FF019AAC
:10330000029B8346002A40F0A780D8F80020894914
:103310000120132A087040F314820132C8F80020FB
:103320000133BBF1000F40F09E80DFF830B28149DD
:10333000DBF800200120132A087040F30A82092BD1
:10334000C8BFDBF8004003F1FF33C8BF0134002BD6
:10335000CBF8004040F38D80B3F5616FC8BF012307
:10336000794C7A4976482360042209F095FB23467C
:10337000AEE7704C2378002B40F047810A22744955
:103380006F4809F089FB042007F0E0FE04460320A3
:1033900007F0DCFE002C7FF4DBAB00287FF4D8AB19
:1033A000674806F0D9FC0121654805F0FBFE0221C3
:1033B000634805F0F1FE00221146614805F0E8FE81
:1033C000FEF71EFC0A2263495D4809F065FB5C4874
:1033D00006F0FEFE40F2DC5007F002FFFEF754FA62
:1033E00007F084FDFFF70CFA554806F0F1FE0A20BD
:1033F00007F0F6FE07B0BDE8F08F0E2A7FF733AB7B
:10340000002B3FF430AB00232B60FFF72CBB524A5C
:1034100005231360FFF701BB0023C8F80030BBF1A0
:10342000000F3FF431AF4D4B0022002C1A60BFF665
:1034300043AF414C44E70022C8F80020BBF1000F25
:103440003FF48BAE454A0021B3F5FA6F1160BFF629
:103450009DAE40F634039FE60022C8F80020BBF181
:10346000000F3FF462AF3D4A0021002B11603FF78F
:1034700073AF4FF4616373E70022C8F80020BBF11B
:10348000000F3FF4D4AB354A0021002B1160BFF68A
:10349000E6AB3B23FFF7E6BB0023C8F80030BBF1E7
:1034A000000F3FF428AB2D4B0022002C1A60BFF612
:1034B0003AAB0524FFF73ABB0022C8F80020BBF165
:1034C000000F3FF4CAAD254A0021002B11603FF7E1
:1034D000DCAD0C23DCE50022C8F80020BBF1000FB6
:1034E0003FF43BAD1D4A0021002B11603FF74DAD6D
:1034F0001F234DE50022C8F80020BBF1000F3FF468
:1035000097AC164A0021002B1160BFF6A9AC172317
:10351000A9E40022C8F80020BBF1000F3FF408AC7A
:103520000E4A0021002B1160BFF61AAC3B231AE4AF
:1035300040FAFF1FE84E002080510100D05F0100DB
:103540009C510020CC5F010034FAFF1F305F010066
:10355000B45F0100C05F010030FAFF1F0452002079
:1035600004F23C40266001F0B5FF0121204603F043
:10357000BDFC002852D08B4E06F23C4840463146F6
:1035800002F0E0F900283FF400AA96F83C3413F06A
:10359000700F3FF4FAA9844C844B06F58C602246E8
:1035A0000921C3F8008003F095FF237813F0C003CE
:1035B0003CD0402B00F0EB800D217D4808F0AAFDA7
:1035C000002319460A227B4809F044FB794809F098
:1035D000F1FA00240026314600230A2276482E60A4
:1035E00009F038FB01227549734809F055FA214664
:1035F00000230A22704809F02DFB6F4809F0DAFA1F
:103600006D4806F0E5FDFFF7D2B9FEF7F9FA4FF085
:103610000003237007F06AFC3860AFE601462046DD
:1036200003F064FC0028A6D1FFF7AFB9607AA37954
:10363000E279A67A6179247A00F00300400003F071
:103640000303920040EAD61001F00F0142EA8323FF
:10365000084443EA94130738013303FA00F00AF0F0
:1036600051FE57490AF0A6FE0BF090F80D210446D2
:103670004F4808F04FFD214600230A224D4809F02B
:10368000E9FA4C4809F096FAC72CA3D9A4F1C80668
:10369000A1E7C820019307F0A3FD4A4B1A68019BDC
:1036A000FFF73EBBC820019307F09AFD019BFFF78F
:1036B00049BBC820019307F093FD424B1A68019B58
:1036C000FFF7AEBBC820019307F08AFD019BFFF70F
:1036D000B9BBC820019307F083FD3A4B1A68019BE0
:1036E00033E4C820019307F07BFD019B3FE4C82031
:1036F000019307F075FD334B1A68019BA5E4C820C0
:10370000019307F06DFD019BB1E4C82007F068FD4F
:103710002C4B1B68FFF7E7B9C82007F061FDFFF7E6
:10372000F4B9C820019307F05BFD264B1A68019B92
:10373000FFF775BAC820019307F052FD019BFFF710
:1037400080BAC820019307F04BFD1E4B1A68019BFD
:10375000E3E5C820019307F043FD019BEFE5C82096
:10376000019307F03DFD174B1A68019BEDE4C8205B
:10377000019307F035FD019BF9E4C82007F030FD07
:10378000104B1B6878E5C82007F02AFD86E5637AB0
:10379000227AE079013303EB022303EB004080023D
:1037A0005DE700BF6C4A0020E05100203C53002040
:1037B000A05F010080FFFF1F9C510020B05F01004F
:1037C000BD37063AF05100202DE9F04F8FB072B6A8
:1037D000BF49C04BC04841250E2480220D700470A3
:1037E00019461A700B78BB4A1806FBD5BB49BC4B6F
:1037F0000D78BC4CBC481D700339247800780978DA
:10380000D9705C70987062B672B6B149B24C4126FC
:103810000F2580200E702570114610700A78120650
:10382000FCD5AE4CAF48B049B04A2478007809784E
:103830001278DA711C715871997162B6AC4DAD4F46
:10384000AD4E4FF4FA7007F0CBFC2968AB4800236B
:103850000A2209F0FFF9A94809F0ACF92968A7483C
:1038600000230A2209F0F6F9A44809F0A3F929680F
:10387000A24800230A22002409F0ECF99F4809F02D
:1038800099F964203C6007F0ABFC39689B48102232
:10389000234609F0DFF9994809F08CF94FF43053C9
:1038A0003B60642007F09CFC4FF434533B60642081
:1038B00007F096FC924B914819681022234609F0B4
:1038C000C9F98E4809F076F939688C4823461022E8
:1038D00009F0C0F9894809F06DF98A4B87481968E1
:1038E0001022234609F0B6F9844809F063F92968E3
:1038F000824823460A2209F0ADF9804809F05AF9B6
:103900004FF47A7007F06CFC29687C4823460A2241
:1039100009F0A0F9794809F04DF94FF47A7007F0F1
:103920005FFC23460A222968744809F093F973481A
:1039300009F040F9744801F0F9F90121022007F07B
:1039400013FC0121142007F00FFC2146152007F07D
:103950000BFC204606F08EFF0121022007F0D2FB6F
:103960000121142007F0CEFB0121062007F0FCFB0B
:103970002146062007F0C6FB2146062007F0F4FB8F
:103980002146042007F0F0FB2146032007F0ECFB62
:103990002146082007F0E8FB0121042007F0B2FBD4
:1039A0000121032007F0AEFB0121082007F0AAFB4C
:1039B00007F09CFA554B3060984202DC544807F0FF
:1039C0009BFA01233C2202215248534C06F0F6FA9E
:1039D0008C2007F005FC4F4806F0BEF901214D4848
:1039E00005F0E0FB02214B4805F0D6FB0022114612
:1039F000484805F0CDFB0A224849464809F04CF8F2
:103A0000444809F0D7F8434806F0E2FB01210620BC
:103A100007F0AAFB0021062007F074FB3D4806F0E2
:103A20009BF901213B4805F0BDFB0221394805F017
:103A3000B3FB00221146374805F0AAFB0A2237499A
:103A4000344809F029F8334809F0B4F8314806F051
:103A5000BFFB0721324801F01DFC04F58C650E21E7
:103A60002F4801F075FC284604F26C414FF03843B2
:103A70000A2203F037FB002858D11C21294808F0FE
:103A800049FB1E4809F096F8224806F065F9012125
:103A9000204805F087FB02211E4805F07DFB00222F
:103AA00011461C4805F074FB12221F49194808F002
:103AB000F3FF184809F07EF807F018FAFEF7A0FEA9
:103AC000144806F085FB4FF47A7007F089FBDBE7BA
:103AD0000700024000000240060002400B000240C6
:103AE000345100200A000240090002400800024050
:103AF00000D0034010D00340E44E002080FFFF1FA1
:103B000014D0034018D00340245300207FC18556B1
:103B100080C185569C5100206C4A00203C60010009
:103B20004CFAFF1F146001004860010004F23C40A1
:103B3000256001F0CFFC0121204603F0D7F90146B2
:103B4000002800F01781954D05F23C442046294697
:103B500001F0F8FE002890D095F83C3413F0700F77
:103B60008BD08F4BDFF8A0A21C60FDF785FD6E2186
:103B70008C4808F023FCFEF7AFFE8B4A8B4B17688E
:103B800053F827000AF0C2FBCAF800003846FEF7D7
:103B9000ABFD204601F09EFC294620460EAD01F00B
:103BA000D1FE834B45F8343D002321468DF8143077
:103BB0008DF815308DF808308DF810307D4A462389
:103BC00005A84FF47A74039401F03CFE9DF814307C
:103BD000002B40F0D6807848DFF8308206F0BCF841
:103BE0000121754805F0DEFA0221734805F0D4FA88
:103BF00000221146704805F0CBFAD8F800303C2B73
:103C000006DDB3F5967FD4BF3C244FF4967400E0F4
:103C10000A2407F06BF9DFF8F891684FD9F8003003
:103C200090FBF4F204FB0244654A3060E118116035
:103C300018463C600AF06AFBDAF80010614D624CED
:103C4000DFF8D0A1DFF8D0B10AF0B4FB4FF06E512D
:103C50000AF0B0FB4FF074510AF0ACFB09F000FF22
:103C600009F08AFC0022594B09F04EFF0AF0FCF9DA
:103C7000574BD8F800201968564B2860521A22EA90
:103C8000E27583FB05232B44E817C0EBE32009F022
:103C9000D5FE09F0F9FC0AF0E7F94F4BCAF800002D
:103CA00004FB005483FB04232344E017C0EB6310A0
:103CB00009F0C4FE09F0E8FC0AF0D6F9474DA0EB84
:103CC000001204EB8204034610214548CBF8003073
:103CD0002C6008F01FFADAF80010424808F0F0FEF5
:103CE000DBF800103F4808F0EBFE29683D4808F07B
:103CF000E7FE3C4808F05EFF08213B4808F00AFA5E
:103D0000D9F80010374808F0DBFE364808F052FFBB
:103D10000821364808F0FEF9D8F80010314808F0BC
:103D2000CFFE304808F046FF0E21314808F0F2F986
:103D30003068FDF7C5FE0C212E4808F0EBF9386815
:103D4000FDF7BEFE3B6834682B481C1B152108F0AC
:103D5000E1F92146234808F0B3FE224808F02AFF83
:103D60002649274B00204FF0FF3208601A600FB041
:103D7000BDE8F08F204603F0B9F800287FF4E3AEE9
:103D80007BE629221F4905A801F0E6FF284608F036
:103D900011FF05A801F09EFB1DE700BF6C4A002043
:103DA0003C5300200082FF1F30FAFF1F14FAFF1F50
:103DB000A85D01001C5E01009C510020EC4E00201B
:103DC0003C510020D4510020F0F1FFFF00004040A2
:103DD00004FAFF1FC5B3A29189888888F851002092
:103DE0005C60010080FFFF1F706001007C600100CB
:103DF0008860010098600100A8600100FC090020B3
:103E00000C520020885E0100F451002040FAFF1F90
:103E100034FAFF1F600A00204051002038B50446E4
:103E20000D463148012105F0B7F92AB200212E488C
:103E300005F0AEF9204604F025FA01462A4808F0BC
:103E40003FFE2D21284805F069F9204604F0F6F9D7
:103E50000146254808F034FE2D21234805F05EF97F
:103E6000204604F0D9F901461F4808F029FE022235
:103E70001E491D4808F010FE204604F0F1F90928FB
:103E800003DC3021184805F049F9204604F0E8F930
:103E90000146154808F014FE204604F099F9012265
:103EA00005461349104808F0F7FD092D03DC3021C1
:103EB0000D4805F033F929460B4808F001FE20466D
:103EC00004F098F9012204460949074808F0E4FD86
:103ED000092C03DC3021044805F020F92146024872
:103EE000BDE8384008F0ECBD9C510020745F010033
:103EF0009C5F01002DE9F041B24D2C6824B1012CEA
:103F000068D030BFBDE8F08106F0F0FFAE4FAF4E95
:103F10003860AF4805F020FF0121AD4805F042F9B7
:103F20000221AB4805F038F922462146A84805F0A1
:103F30002FF90A22A749A64808F0AEFDA44808F0C8
:103F400039FE14213068FFF769FF3868FEF758FC26
:103F50009F4806F03DF9A04A3B681268934280F200
:103F6000BC8032689A4232DC9C4F3C68002C50D0B6
:103F70000D219B489B4C08F0CDF89B4808F01AFE99
:103F80009A4B9B4A31681B6812689A480B441A4442
:103F90000E213260236008F0BDF806F0A7FFFDF7A0
:103FA0008FFD0B21944808F0B5F82068FDF788FDD7
:103FB0000B21924808F0AEF83068FDF781FD01232F
:103FC000AE2183482B6005F0CFFEFDF761F92C6828
:103FD000012C96D1FCF7CCFD042007F0B7F806467B
:103FE000032007F0B3F80EB900282DD0844C854B80
:103FF00022681B689A4284DB7D4B1E68002E72D1BA
:10400000814801F067FAFCF77DFE266030BFBDE80D
:10401000F0810A217D4801F00BF821467B4800F031
:10402000DFFD0E21794800F0DBFD2146774800F0E6
:10403000D7FD0A21754800F0D3FD744801F00AF855
:104040004FF0FF333B6093E76D4B714E1B68714A35
:104050006D485B02002503F124072946B362A2F8EC
:10406000B451776001F088FD31462C22664801F09A
:1040700073FE654801F02EFA23463C220221544883
:1040800005F09CFF642007F0ABF8514805F064FE92
:1040900021464F4805F086F802214D4805F07CF88E
:1040A0002A4629464A4805F073F807225A494848E3
:1040B00008F0F2FC464808F07DFD2146444805F032
:1040C0006BF810225549424808F0E6FC404808F0D9
:1040D00071FD3F4806F07CF8FEE70121052007F05E
:1040E00011F83B683DE7FCF7F3FD384B4C4E1C687C
:1040F0004C4F06F0FBFE4C4A4C4B1268201A841AB7
:1041000024EAE47483FB04232344E017C0EBE32098
:1041100009F094FC09F0B8FA09F0A6FF444B454AAF
:10412000306003FB004482FB043222448046E017E7
:10413000C0EB621009F082FC09F0A6FA09F094FFC6
:104140000201131A821A04EB82049B004FF461628D
:1041500002FB08333C60DFF8EC801C44092CC8F8F3
:10416000000011DC0721344807F0D4FF1E4808F096
:1041700021FD01233C220221154805F01FFF0023E9
:104180002B6030BFBDE8F0810021022006F0BAFFAD
:10419000FEF75CF8642007F023F83B7898F80020DD
:1041A0003178264803F0ACFE254803F071FC01216C
:1041B000022006F0A7FF4FF4967007F011F8FEF703
:1041C00079F8CFE7FC090020E44E0020EC4E0020F7
:1041D0009C510020C0600100FC510020640A0020B6
:1041E000CC6001003C51002080FFFF1F34FAFF1F0C
:1041F00040FAFF1F88600100DC600100E8600100F8
:10420000F44E0020D45100203C0A0020245300200A
:1042100050520020F84E0020F4600100FC600100C4
:10422000600A0020F851002004FAFF1FC5B3A291D4
:10423000F0F1FFFF8988888810610100D0500020CC
:10424000000A0020405100200020704700207047E5
:1042500038B50F29114C28BF0F210F2A28BF0F2274
:104260000D46017A204642EA051500F00BFE204675
:10427000002100F0B5FC2046202100F0B1FC2046D2
:10428000002100F0ADFCE9B2204600F0A9FC204678
:1042900000F0E0FEB0FA80F0400938BD2453002061
:1042A000F8B5C34C012605460671204600F03EFDD8
:1042B000052006F095FF297A204600F0E3FD204610
:1042C000002100F08DFC2046302100F089FC2046C2
:1042D000402100F085FC6021204600F081FC204652
:1042E00000F0B8FE297A204600F0CCFD20460021DF
:1042F00000F076FC2046262100F072FC20460021CA
:1043000000F06EFC6C21204600F06AFC204600F0B4
:10431000A1FE297A204600F0B5FD2046002100F0DC
:104320005FFC2046282100F05BFC3146204600F06F
:1043300057FCF221204600F053FC204600F08AFE94
:10434000297A204600F09EFD2046002100F048FC1E
:1043500020462C2100F044FC20460F2100F040FCB8
:104360002221204600F03CFC204600F073FE297A12
:10437000204600F087FD2046002100F031FC204659
:104380003C2100F02DFC2046442100F029FC462170
:10439000204600F025FC204600F05CFE40F237137A
:1043A000EB80297A204600F06DFD2046002100F0C8
:1043B00017FC2046242100F013FC3146204600F073
:1043C0000FFC3721204600F00BFC204600F042FE97
:1043D000297A204600F056FD2046002100F000FC1E
:1043E0002046302100F0FCFB2046402100F0F8FB85
:1043F000FF21204600F0F4FB204600F02BFE297A36
:10440000204600F03FFD2046002100F0E9FB204659
:10441000022100F0E5FB2046002100F0E1FB7321C2
:10442000204600F0DDFB204600F014FE4FF4C8707B
:1044300006F0D6FE297A204600F024FD2046002111
:1044400000F0CEFB20462E2100F0CAFB20461D21A5
:1044500000F0C6FB1D21204600F0C2FB204600F004
:10446000F9FD297A204600F00DFD2046002100F0DC
:10447000B7FB2046042100F0B3FB2046002100F0EA
:10448000AFFB0421204600F0ABFB204600F0E2FD2C
:10449000297A204600F0F6FC2046002100F0A0FB1F
:1044A0002046062100F09CFB3146204600F098FB98
:1044B0003021204600F094FB204600F0CBFD297A05
:1044C000204600F0DFFC2046002100F089FB20465A
:1044D0000A2100F085FB2046002100F081FB10211D
:1044E000204600F07DFB204600F0B4FD297A2046EE
:1044F00000F0C8FC2046002100F072FB20460E218F
:1045000000F06EFB2046002100F06AFB00212046EF
:1045100000F066FB204600F09DFD297A204600F061
:10452000B1FC2046002100F05BFB2046102100F08A
:1045300057FB20463C2100F053FB3C21204600F075
:104540004FFB204600F086FD297A204600F09AFCB9
:104550002046002100F044FB2046222100F040FBD1
:1045600020467F2100F03CFB7F21204600F038FBF5
:104570003627204600F06EFD297AEF80204600F0B5
:1045800081FC2046002100F02BFB2046242100F076
:1045900027FB2046002100F023FB3946204600F08F
:1045A0001FFB204600F056FD6E723046F8BD00BF7E
:1045B000245300200B462DE9F04145490546184695
:1045C00009F0F8FE434909F0EDFD0AF0DFF8044672
:1045D00000284CD080281FD92B79002426462BBBDD
:1045E000297A3D4800F04EFC00213B4800F0F8FAE3
:1045F0002221394800F0F4FA3146374800F0F0FA49
:104600002146354800F0ECFA334800F023FDB0FABB
:1046100080F04009BDE8F081C0F180042B7944EAC4
:104620000424C4F30726E4B2002BD9D0EF88297AFA
:10463000294827F010074FF00008EF8085F8048024
:1046400000F020FC4146244800F0CAFA2421224808
:1046500000F0C6FA390A204800F0C2FA07F0EF016C
:104660001D4800F0BDFA1C4800F0F4FCB8E7012337
:104670002B71297A184800F005FC2146164800F0F5
:10468000AFFA2221144800F0ABFA7F21124800F063
:10469000A7FA7F21104800F0A3FA0F4800F0DAFCD7
:1046A000EE88297A0C4846F01006B6B2EE8000F08B
:1046B000E9FB2146084800F093FA2421064800F05F
:1046C0008FFA310A044800F08BFAF1B299E700BF83
:1046D00000000143EE7CFF3E2453002070B50546E8
:1046E0000C4619B101293BD0002070BD017A424827
:1046F00000F0C8FB2146404800F072FA20213E48F5
:1047000000F06EFA21463C4800F06AFA55213A481A
:1047100000F066FA384800F09DFC06460028E3D118
:10472000EC88297A344844F00404A4B2EC8000F008
:10473000A9FB3146304800F053FA24212E4800F0FE
:104740004FFA210A2C4800F04BFAE1B22A4800F057
:1047500047FA294800F07EFCB0FA80F0400970BDAD
:10476000017A254800F08EFB0021234800F038FA3A
:104770002A21214800F034FA21461F4800F030FA7F
:1047800073211D4800F02CFA1B4800F063FC04461E
:104790000028A9D1297A184800F074FB2146164850
:1047A00000F01EFA2021144800F01AFA214612489F
:1047B00000F016FA8821104800F012FA0E4800F0B6
:1047C00049FC044600288FD1EE88297A0A4826F051
:1047D0000406EE8000F056FB2146074800F000FA80
:1047E0002421054800F0FCF9310A034800F0F8F9EB
:1047F00006F0FB01AAE700BF2453002010B50446D1
:1048000007F0C0FF204610BD024A034903480AF0E2
:104810008BB900BFFCF9FF1FFD4700007C52002050
:104820001B4A1C4B11681C48096970B499421279E3
:10483000027009D2194A127832B3194A4FF08041F6
:10484000116003F5807402E01C46A3F58073154ADD
:10485000154912680D68AAB1A5B1144E30884028D8
:1048600010D841000A4440302944023202313080DD
:1048700033F9040B22F8020F9C4233F9020C21F8A1
:10488000020FF5D870BC704703F58074DFE700BFF6
:104890008C520020B8F2FF1F1F800040865200207B
:1048A00008E200E094520020885200208452002048
:1048B000F8B5064607F0B2FD0446E8B107F0AEFDD4
:1048C000054600283AD072B61F4B1A887F2A19D89D
:1048D000002C31D01D490A6842B162B6204607F06B
:1048E000F1FD2846BDE8F84007F0ECBD18480C6023
:1048F0001A80056062B6F8BD054672B6124B1A887A
:104900007F2AE5D9114A12491768146000220C6801
:104910001A800D6062B63946304607F0FDFD384614
:1049200007F0D0FD30462146012207F0F5FD204674
:10493000BDE8F84007F0C6BD62B6F8BD204607F0F6
:10494000C1FD2C46BFE700BF8452002094520020D6
:1049500088520020F8B5284C284E2046012107F047
:1049600073FE00F083F8264B264A27484FF48061F7
:104970001960236800211A6099802279186102F178
:10498000804202F5043240F20110D8809E614FF45B
:104990008075022006278E26DD82D960DD8398602F
:1049A0009F8398821170167007F0F4FD1749184B19
:1049B0002279184F08701A7039682279164C174DF1
:1049C000174E41F0124141F00101531139609B0033
:1049D000206803F1604302F1100703F5614302F020
:1049E0001F02012140F0104001FA02F2206045F858
:1049F00027601A60F8BD00BF8C52002000FEFFFF48
:104A000014B00440A0F00240B8F1FF1F865200200D
:104A10001B80004080F0024000F0024000F4FF1FC5
:104A200021480000024A034903480AF07DB800BF4C
:104A3000FCF9FF1FFD4700008C520020024A034989
:104A400003480AF071B800BFFCF9FF1FFD470000E2
:104A500098520020024A034903480AF065B800BF93
:104A6000FCF9FF1FFD470000A0520020284B2949F8
:104A70001A68294842F400421A600A6842F00202A9
:104A80000A601A6842F002021A600368002B3DDBDC
:104A9000224B1B68002B39DB214A4FF08643136001
:104AA0001368002BFCDBF0B51E4C1F48DFF8ACE0B0
:104AB0001E491F4B1F4A204F204E214D41F2100C22
:104AC000C4F800C0002404600120CEF80000DFF824
:104AD00090E0C1F800E04FF480311960194B136089
:104AE000DFF880E0184A3A60346028601748CEF852
:104AF0000000174CB9671748174946F8503C4FF467
:104B0000C0632A61236003600B60F0BD704700BF83
:104B10003C8004404080044000F0024080F00240AD
:104B200000F1024004F1024060F0024008F002404F
:104B30000CF0024010F0024014F00240E0F002409D
:104B400084F002401B0F0100000F0F0F030000470D
:104B500008B004400CB0044018B0044004F0024017
:104B60000300000788F00240024A0349034809F0A5
:104B7000DBBF00BFFCF9FF1FFD470000A85200206B
:104B8000024A0349034809F0CFBF00BFFCF9FF1FE9
:104B9000FD470000B0520020024A0349034809F0D3
:104BA000C3BF00BFFCF9FF1FFD470000B852002043
:104BB000024A0349034809F0B7BF00BFFCF9FF1FD1
:104BC000FD470000C0520020024A0349034809F093
:104BD000ABBF00BFFCF9FF1FFD470000C85200201B
:104BE0000A4B1B7813B90A4B1B786BB1094A13782F
:104BF000202B07D810B4581C074C1070E15401202A
:104C000010BC704701230371002070473653002009
:104C1000F952002037530020D8520020704700BFBF
:104C2000024A034B10781B78C01A70473553002096
:104C300034530020064A074913780978994204D969
:104C40000548591CC05C117070474FF0FF30704729
:104C50003453002035530020FC520020054B064AF7
:104C60001B7812789A4286BF044AD05C4FF0FF301E
:104C7000704700BF3453002035530020FC52002001
:104C800070B50D4B1B78144613B90C4B1B788BB1C8
:104C90000B4E3578C5F12103A34202D201221C46F6
:104CA0000271084822462844254405F037FC357037
:104CB000204670BD184670BD36530020F9520020C2
:104CC00037530020D8520020124BDB7803F020032A
:104CD0004BB1114A13780133DBB2012B137012D997
:104CE000122006F0BFB810B5122003F0FF0406F042
:104CF000B9F80A4B1B685BB109490A4A0C70107875
:104D0000BDE810401847084B1B78002BE8D07047CF
:104D100010BD00BF0060064020530020D452002088
:104D20003453002035530020F95200200D4A0E4B19
:104D3000F0B500200D4C10702268DFF838E00C4F01
:104D400042F0400222604FF41971272604252024E6
:104D500080229870CEF8001039605E709D715C7191
:104D60009A70F0BDF9520020006006403480044083
:104D700008A004400CA0044010B5384CE378DBB226
:104D8000D80623D510225906E2701ED503F004037D
:104D900003F0FF02002B33D0314B32491A68324CFA
:104DA00000230B702370002A3BD090472378002B00
:104DB00037D02E4B1B78294A2D49D024947013717B
:104DC000264B012002220870DA7010BD5A06DDD48D
:104DD000A27802F0100202F0FF0042B313F00103C8
:104DE0001BD1234920480A780078904281BF1F4B8D
:104DF000501C9B5C08702371184BD0229A7008E0FD
:104E00001C48164B174902700120C02208709A7086
:104E10001B79124B0222DA7010BDC023A3702379D4
:104E2000F7E71249002301220B702270C3E7124BEF
:104E3000124918700322122005F094FF0D492379BE
:104E40000A781F2ADBB2E4D8064800780028E0D0B0
:104E50000B4C501CA3540870DBE700BF00600640F9
:104E60001C530020D052002037530020D85200207D
:104E7000385300203553002020530020C94C000037
:104E8000FC5200200548064A10B40123054C03706B
:104E900049001370217010BC704700BF36530020CA
:104EA00037530020D85200202DE9F043594C1223EB
:104EB000E370A37803F0200383B0002B55D0B42314
:104EC000DFF86881A370D8F80030524D1C460020EE
:104ED000EA78D2B29A421CBF1446012096061346C5
:104EE000F6D5002840F08C804B4B1B78002B33D03C
:104EF00003F1FF3E5FFA8EFE0026D8F80040474FD0
:104F0000444D0EF1010E30464FF0020C17F8013FF0
:104F10002B715FFA86F902E013F0200F09D0EB78CD
:104F2000DBB293421CBF1C46012013F0020F1A464D
:104F3000F2D085F803C0EA78D2B293421CBF14467F
:104F40000120D30633D4930631D5D30744D4013698
:104F50007645DBD100284AD1002000292ED1304BE4
:104F600000221A7003B0BDE8F0832E4DDFF8BC803C
:104F700003F0FF022B680093009ED8F8000005E0C4
:104F80002B680193019B9B1B0F2B1BD8E378DBB293
:104F9000834218BF012213F0200F1846F0D192BBB4
:104FA00021481C4B0024B02204709A708BE708BB88
:104FB000184B80229A7004200029D0D0154B8022F3
:104FC0009A70CCE7CAB9134B002180220420997053
:104FD0009A7003B0BDE8F083C0B90E4BB9F1000F71
:104FE0004FF080020CBF022003209A70B7E7C8F888
:104FF0000040B1E7C8F80040DAE7C8F80000E2E78F
:10500000C8F8004070E7C8F80030C9E7C8F80040A9
:10501000E3E700BF0060064037530020D75200206E
:105020003653002098530020F952002048FAFF1F01
:105030000548064A10B40123054C0370490013705B
:10504000217010BC704700BF36530020375300203A
:10505000D85200200121FFF727BF00BF044B054AAB
:105060001A604FF47A71002299601A711A737047AE
:10507000245300204861010010B4047F4160022CD9
:10508000C26002D010BC07F097BB836810BC184701
:10509000F0B4464B464A186BDC6A017911704549F9
:1050A00022790A709A6A00790870002A46D05968F5
:1050B000C9688A423ED82168CC8B240402F1FF30B3
:1050C00065D4C0F30E00C883C88B80B2C882196B48
:1050D0000968C88B000452D4C2F30E00C883C88B81
:1050E000002480B212F1FF32C88218BF01229C62F4
:1050F000D96A2E4809680D6800F12404A54236D00B
:105100000068C46814F0804F0C680D6815BF2488CF
:1051100024780235013544F000440D604463196B76
:10512000254B09791970214912B1CA6A12791A708E
:10513000F0BC7047521A9A620122D9E7586B19687D
:1051400005681E4C0A63CC62CC682D681C4E24F0A6
:1051500080440327B542CC6083F825701FD1037FBC
:105160004260022BC2601ED0F0BC07F025BB016874
:1051700090F82400CC6840F000404863CFE7CC8B27
:10518000C2F3080004F47E442043C883A7E7CC8B15
:10519000C0F3080004F47E442043C88394E72B4600
:1051A0001146F0BC18478368F0BC18474CFAFF1F43
:1051B0001F8000401C8000401B80004000000FFF4B
:1051C0007950000090E80C00F0B41C68596825681C
:1051D000164F174E29432160164D17491760D660A8
:1051E00015611160417A154A5C180A3194F824401F
:1051F00053F8215002EBC40149680D60017A5C1834
:1052000003EB8101247ECD6902EBC40149680D6086
:10521000817A581803EB810390F83000596B02EB48
:10522000C002F0BC53681960704700BF01401F0006
:10523000011000380110007800001F80BC670100D9
:105240004268036805CA10B4046822430260D86843
:10525000840100F0E06205D5080900F4706021F4D3
:1052600070410143D8681143814209D01A68500443
:1052700008D40748186041F08040D96018611A606E
:1052800010BC704741F08042D96010BC1A61704771
:1052900001401F004268437A134493F824308B4244
:1052A00009D0F0B492F824408C4205D092F8254001
:1052B0008C421AD0F0BC704700242146166855680D
:1052C00036682E420FD00A4D05EBC30300275E68F7
:1052D0005318376093F8243005EBC3050A316B6827
:1052E00052F821201A604472E4E701242146E5E7E0
:1052F000BC6701004268037A13441B7E8B4207D0CF
:10530000F0B4147E8C4204D0547E8C421AD0F0BC8F
:105310007047002421461668556836682E420FD023
:105320000A4D05EBC30300275E68531837601B7EE8
:10533000063105EBC30502EB81026B6852681A6007
:105340000472E4E701242146E5E700BFBC670100E1
:105350004268837A134493F830308B4209D0F0B41A
:1053600092F830408C4205D092F831408C421BD0EC
:10537000F0BC7047002421461668556836682E42F6
:1053800010D00B4D05EBC30300275E685318376040
:1053900093F830300C3105EBC30502EB81026B68EA
:1053A00052681A608472E3E701242146E4E700BFF3
:1053B000BC67010038B590F90230002B044612DBBF
:1053C000A56805F1240001F0FDF928B9637843F0E0
:1053D00001036370002038BD05F50C7001F0F2F98F
:1053E0000028F3D038BD8068A1692430012201F083
:1053F000A3F90028EAD0A38803F00F035B01C518C6
:10540000E4D0C35CE52BE1D023780B4A1B0744BFF3
:10541000E369EB61236A12686B831B0CAB8232B1C8
:1054200005F1160105F1180090472B8B6B82A378CC
:1054300003F07F03A370C3E7405300202DE9F04140
:10544000037803F020032BB903F0FF044269204BDB
:105450009A4203D900263046BDE8F081837801697D
:10546000054663F07F038068AB7005F1100201F020
:105470001DFB06460028EDD02969A86801F0CAF98D
:105480000746A86839462430052201F055F98046C0
:105490000028DFD04FF40072214609F067FFAB68A7
:1054A0001A79012A0FD9012403E0AB681A79A242C4
:1054B00009D9E1191868424602F040F80134E4B213
:1054C0000028F2D1C6E76B6903EB42226A61C2E7AA
:1054D000FFFD1F0038B5037804461BB90023237075
:1054E000012038BD90F90230002B14DBA56805F1CE
:1054F000240001F067F938B9637843F00103637061
:1055000000232370002038BD05F50C7001F05AF916
:105510000028F1D0E2E78068A1692430012201F07F
:105520000BF90028E8D0A38803F00F035B01C5182E
:10553000E2D0C35CE52BDFD023780B4A1B0744BFC6
:10554000E369EB61236A12686B831B0CAB8232B197
:1055500005F1160105F1180090472B8B6B82A3789B
:1055600003F07F03A370C1E7405300202DE9F0470B
:105570000D7815F0700F88B003D1002008B0BDE899
:10558000F087C32304460D4600F07EFE0028F4D0C9
:105590005D4B6269012610219A42A6702170ECD8F9
:1055A00081236218A3702169A06801F07FFA0028A6
:1055B000E3D02169A06801F02DF90746A0683946BB
:1055C0002430052201F0B8F880460028D5D04FF4E9
:1055D0000072002109F0CAFE08E0F1190068424695
:1055E00001F0ACFF0136F6B20028C6D0A0680279FF
:1055F000B242F2D8636921782669266203EB42231E
:105600006361002974D124300122A16901F094F86A
:105610000028B2D0A68806F00F0610EB4616ACD0D4
:105620001023F372B26830687168F368B6F81490AA
:10563000B6F81AA06F460FC730697169B269F3698D
:1056400008AE0FC74FF02E084FF02033216AA06834
:1056500006F8208DCDF80530CDF80130ADF80930D1
:1056600001F0D8F8A3680146012203F1240001F0FB
:1056700063F88646002880D03746ADF81490ADF820
:105680001AA00FCFCEF80000CEF80410CEF80820F4
:10569000CEF80C300FCFCEF81000CEF81410CEF8A4
:1056A0001820CEF81C302B6A8DF801801A0C354674
:1056B000ADF81A30ADF814200FCD0EF12006CEF85B
:1056C00020007160B260F3600FCD30617161B26132
:1056D000F361A46804F1240001F074F800283FF499
:1056E0004CAF04F50C7008B0BDE8F04701F06AB8A3
:1056F00013B10023236163612046FFF75BFE00289E
:105700003FF43BAFA0687EE7FFFD1F002DE9F041AD
:10571000064692B03478019200208DF824008DF86E
:10572000250024B90D46097811F0700F03D100202F
:1057300012B0BDE8F081144612782F2A2DD00DF159
:10574000040803AF002B53D042463946204600F0F0
:10575000F5FB3A46294601230028E8D0019C24782D
:105760003046002C61D000F08FFD3A46294620B922
:105770003046FFF7FBFE0028D9D035460FCD09ACE7
:105780000FC40FCD0FC433782A682260002B48D194
:1057900000233370019C09ADD6E7013401942278CF
:1057A0002F2AFAD0AD680093242209A8002109F01D
:1057B000DDFD0B95EA79009B102A3ED0202AB6D158
:1057C00040228DF82420012209AD8DF826200DF10C
:1057D000040803AF63B1B7E70FCD0FC40FCD0FC4FB
:1057E00033782A682260C3B90023019C337009AD65
:1057F00042463946204600F0A1FB3A46294601239D
:10580000002894D0019C2478304674B100F03CFD0F
:10581000354609AC00288AD0DEE73046FFF7CAFDDE
:10582000E2E73046FFF7C6FDB2E73A462946304682
:10583000FFF79CFE12B0BDE8F08120228DF82420F5
:10584000C1E700BF2DE9F041064692B034780192DD
:1058500000208DF824008DF825002CB91F460B7808
:1058600013F0700F0D4603D1002012B0BDE8F08197
:1058700013782F2B144624D10134019494F800801E
:10588000B8F12F0FF8D0B8F1000F45D0AD6809A8D6
:105890002422002109F06AFD0B95EB79102B37D0FB
:1058A000202BE1D140238DF82430012309AD8DF860
:1058B000263006E03046FFF77DFD0023019C337063
:1058C00009AD01AA03A9204600F038FB03AA294626
:1058D00001230028C8D0019C247830467CB100F018
:1058E000D3FC354609AC0028BED00FCD0FC40FCD78
:1058F0000FC433782A682260002BDED0DAE73B46FB
:1059000003AA2946304600F0BFFC12B0BDE8F08182
:1059100020238DF82430C8E7AC6824224146304665
:1059200009F024FDB460E379102B06D0202B07D1B9
:10593000402333700120B07097E720233370F9E7DC
:10594000404692E770B504780CB1002070BD054662
:105950000E462422214609F009FDAE60F379102B92
:1059600009D0202B05D1012440232B70AC70204698
:1059700070BD204670BD012420232B70AC702046E2
:1059800070BD00BF2DE9F04F0F46017883B005468A
:1059900011B18378DC0708D46B784FF0FF3043F007
:1059A00002036B7003B0BDE8F08F0B07914600F166
:1059B0008580880608D5AA686B691289C3EB4213F3
:1059C0009BB2994528BF9946B9F1000F00F0948029
:1059D0006B698A064E464FF0000805F1100AC3F3C2
:1059E000080B3DD5AA68116A01EB5321BBF1000FEA
:1059F00050D1B6F5007F4DD3D36A99424AD0B6F55F
:105A0000806F64D328788006C6F3472B06D41079BC
:105A1000C8EB0000C0B2834528BF834699424FEAD5
:105A20004B240BD85B44994208D202F12400019127
:105A300000F0C8FE0028AFD0AA68019910685B4644
:105A40003A4601F023FC0028A6D06B69361B23449C
:105A500027446B6150D029788A06C3F3080BC1D460
:105A6000A86890F8058008EA5328BBF1000F2CD1F4
:105A7000B8F1000F29D1002B33D14C064CBF016A7D
:105A8000296A296100F0C6FEAA6808EB0001BBF193
:105A9000000FAED002F12400002200F04DFE0028DD
:105AA0003FF47AAFCBF50074B44228BF344600EB24
:105AB0000B012246384604F031FDC6E7EB696A69FE
:105AC0009B1A994528BF99467EE72969DAE710684D
:105AD0003A4601F0C5FC00283FF45EAF4FF4007475
