:1000000000800020BD010000C9A2000081A2000004
:1000100081A2000081A2000081A2000081A2000054
:1000200081A2000081A2000081A20000C9A20000FC
:10003000C9A2000081A2000029BE000079C0000012
:10004000C9A20000C9A20000C9A20000C9A2000004
:10005000C9A20000C9A20000C9A20000C9A20000F4
:10006000C9A20000C9A20000C9A20000C9A20000E4
:10007000C9A20000C9A20000C9A20000C9A20000D4
:10008000C9A20000C9A20000C9A20000C9A20000C4
:10009000C9A20000C9A20000C9A20000C9A20000B4
:1000A00045470000C9A20000C9A20000C9A2000083
:1000B000C9A20000C9A20000C9A20000C9A2000094
:1000C000C9A20000C9A20000C9A20000C9A2000084
:1000D000C9A20000C9A20000C9A20000C9A2000074
:1000E000C9A20000C9A20000C9A20000C9A2000064
:1000F000C9A20000EDC60000C9A2000019C8000096
:10010000C9A2000045C90000C9A20000C9A20000A0
:10011000C9A20000C9A20000C9A20000C9A2000033
:10012000C9A20000C9A20000C9A20000C9A2000023
:10013000C9A20000C9A20000C9A20000C9A2000013
:10014000C9A20000C9A20000C9A20000C9A2000003
:10015000C9A20000C9A20000C9A20000C9A20000F3
:10016000C9A2000021AA0000C9A20000C9A2000083
:10017000C9A20000C9A20000C9A20000C9A20000D3
:10018000C9A20000C9A20000C9A20000C9A20000C3
:10019000C9A20000C9A20000C9A20000C9A20000B3
:1001A000C9A20000C9A20000C9A20000C9A20000A3
:1001B000C9A20000C9A20000B5BB0000564B4CF21A
:1001C000205210B51A804DF628121A8000BF00BFC9
:1001D00000F08AFB514B4FF010621A60504A9A604F
:1001E000504ADA60504A136813F4807304D14F49BF
:1001F0000B604FF4A85313604D4B1A78110703D5C9
:100200001A7842F008021A704A4B4B492A221A7097
:100210004A4A4B4B8B4204D252F8040F43F8040B6A
:10022000F8E7484B484900228B4202D243F8042B9E
:10023000FAE74649464A002352F8230041F82300D2
:1002400001336F2BF8D1434B434A802103F8011B44
:100250009342FBD1414B3D4A1A60414B8A221A70AE
:10026000A3F5805324225A70A0221A709A7992071B
:10027000FCD59A79D406FCD43A4A937903F00C035E
:10028000082B384BF9D103221A7140225A719A79FE
:100290009006FCD5334A9179324B4906FBD5324A58
:1002A000324911600221516020221A709A7902F0BD
:1002B0000C020C2AFAD12E4B2E4A1A602E4B4BF60A
:1002C0007F321A6000225A60072243F8042C2B4A1E
:1002D000C3F80C2D62B60AF019F9144B1B68DA0743
:1002E00005D527480AF000F9264B274A1A60274B04
:1002F0001B785B0609D5234C234B22689A4204D114
:100300001F480AF0F1F8002323600DF025FE09F0E4
:10031000DFFF0CF049F9FEE70E2005403080044075
:10032000823F04000100002B10D0034014D0034092
:1003300002D0074000E00740B8FFFF1FC060010087
:1003400020EFFF1FB8FFFF1FE40B002000EAFF1F94
:100350000000000000E400E05FE400E008ED00E0E1
:100360000050064000400640448004400000131145
:1003700004800440C010050014E000E000002020CC
:10038000F6B2275B1CE00340A5C3945A00F0074077
:10039000FFFFFFFFFFFFFFFFFFFFFFFFFFFFFFFF6D
:1003A000FFFFFFFFFFFFFFFFFFFFFFFFFFFFFFFF5D
:1003B000FFFFFFFFFFFFFFFFFFFFFFFFFFFFFFFF4D
:1003C000FFFFFFFFFFFFFFFFFFFFFFFFFFFFFFFF3D
:1003D000FFFFFFFFFFFFFFFFFFFFFFFFFFFFFFFF2D
:1003E000FFFFFFFFFFFFFFFFFFFFFFFFFFFFFFFF1D
:1003F000FFFFFFFFFFFFFFFFFFFFFFFFFFFFFFFF0D
:10040000FFFFFFFFFFFFFFFFFFFFFFFFDEF9FFFF23
:1004100010B5054C237833B9044B13B10448AFF33E
:1004200000800123237010BDB8FFFF1F00000000F3
:10043000BC600100084B10B51BB108490848AFF378
:1004400000800848036803B910BD074B002BFBD0A0
:10045000BDE81040184700BF00000000BCFFFF1FB0
:10046000BC600100B8FFFF1F0000000000207047C3
:10047000704700BF027C02F0080202F0FF0332B1B5
:10048000C36A406A181A48BF6FF0004070471846A8
:10049000704700BFF8B55548554D564C297803783C
:1004A0002278DFF868E1544F544E120442EA0323E5
:1004B000FF222A700270802022708EF800003870AF
:1004C000B2794F480B4312F00C0FC36002D1B379DD
:1004D000DC063DD4494A9379C3F38103032B40D012
:1004E000464B9A79C2F38102022A42D0434A937959
:1004F000C3F38103022B53D0404A9379C3F38103A2
:10050000022B61D03D4A9379C3F38103012B51D073
:100510003A4A9379C3F38103012B5CD0374B9A7924
:1005200012F00C0F03D19A79D20600D49B79354D85
:10053000354B2A7853F82240D4B1236820469B6873
:1005400098472B7804EB83046468002CF5D1F8BD40
:10055000B3799806EBD5294A9379C3F38103032B2A
:10056000BED19379D906BBD493799B06DFD4B7E784
:10057000F8BD9A79D706B9D49A799606B6D559783E
:1005800001F0020101F0FF020029AFD120211A7011
:100590001A461970937903F00C030C2BFAD1C6E7B5
:1005A0009379DD06A8D493799C06A5D4537898074F
:1005B000BDD5A1E79379DF06AAD593799E06A7D486
:1005C00053789D07B3D4A3E79379D9069AD4537887
:1005D0009B07ACD496E79379DC069FD59379980670
:1005E0009CD453789907A2D598E700BF06C007406E
:1005F00005C0074007C0074009C00740004006404B
:10060000BC0B0020940800205408002008C00740BC
:1006100090F92410104B03604B1C06D0F0B40F4E21
:1006200056F82130984201D0F0BC70470C4F57F873
:10063000213033B18D0000245A1953685460002BC7
:10064000FAD1084C23780022013B237047F821207F
:1006500046F82120E8E700BF34510100740800206B
:10066000540800209508002038B590F924506B1CE0
:100670001BD00E4B0E4953F825400E4BEDB24FF0F8
:10068000FF320D701A6084B1AD0002E02C44646842
:100690005CB194F82530002BF8D0236820462C4418
:1006A0001B6898476468002CF3D138BD54080020BB
:1006B0009408002090E9FF1F704700BF90F92410B4
:1006C000104B03604B1C06D0F0B40F4E56F821308F
:1006D000984201D0F0BC70470C4F57F8213033B12D
:1006E0008D0000245A1953685460002BFAD1084C2D
:1006F00023780022013B237047F8212046F821206F
:10070000E8E700BF345101007408002054080020BD
:100710009508002090F92410104B03604B1C06D064
:10072000F0B40F4E56F82130984201D0F0BC70471B
:100730000C4F57F8213033B18D0000245A195368FB
:100740005460002BFAD1084C23780022013B23701F
:1007500047F8212046F82120E8E700BF3451010086
:10076000740800205408002095080020083004F088
:100770003BBE00BF103004F037BE00BF00B583B0F1
:1007800002AB012203F8011D0830194604F02CFECB
:1007900003B05DF804FB00BF00B583B002AB0122DB
:1007A00003F8011D1030194604F01EFE03B05DF879
:1007B00004FB00BF2DE9F0410E46804609F08EFE95
:1007C000174D286007F056F80746286807F02EF8FE
:1007D0000446286807F018F86401C0B204F4FF5416
:1007E000BFB20443A7F2BC7744EA4724A8F800400C
:1007F000286807F02DF80746286806F0E1FF044650
:10080000286806F0EFFFFF02640107F4FF2704F4F5
:10081000FF54C0F346003C4304433480BDE8F081FC
:10082000C0040020103004F0BBBC00BF00B583B092
:1008300001220DF10701103004F0ECFB01280CBF80
:100840009DF807004FF0FF3003B05DF804FB00BFD8
:10085000103004F07BBD00BF083004F077BD00BF4E
:1008600000B51B48ADF5017D03F004FD4FF4807227
:100870000146684609F04AF9154803F019FD144885
:1008800003F0F8FC4FF4807201460DEB020009F012
:100890003DF90F4803F00CFD69464FF400720D4816
:1008A00004F0A2FD01300BD00B480C4902680B6824
:1008B0000132013302600B600DF5017D5DF804FB30
:1008C0000121142009F076FC054B064A1A60EBE77B
:1008D000D404002090040020D0040020D80500207B
:1008E0000CED00E00400FA05404A414B1020108056
:1008F0001B781B072CD5F0B53E4E3F4D3F4C317851
:100900002B7822783E4FDFF810E1824042EA032341
:100910000B43FF22802132702A7022708EF8001063
:100920003970DF07374A0CD51A239360364D374CA0
:100930003748384900232B70D360237003700B7045
:10094000F0BD1E0705D4DD0606D504239360EDE750
:10095000704721239360E9E79C0604D4590604D527
:1009600016239360E2E79060E0E71F0602D50923B3
:100970009360DBE7DE0502D50A239360D6E79D0589
:1009800002D50D239360D1E75C0502D50B2393605C
:10099000CCE7180502D51E239360C7E7D90402D51A
:1009A00002239360C2E79F0402D507239360BDE74B
:1009B0005E0402D506239360B8E71D0402D5152313
:1009C0009360B3E7DC0302D524239360AEE798037A
:1009D00002D522239360A9E7D90202D5252393608B
:1009E000A4E79B0244BF232393609FE700200540B8
:1009F00002D0074005C0074006C0074007C00740B7
:100A000009C00740BC0B002000C0074001C00740E0
:100A100002C0074003C0074008C00740002976D045
:100A20002DE9F04F0C469100631883B05D68002DEE
:100A300057D06B185E68002E50D073185F68002F77
:100A400049D07B18D3F80480B8F1000F3CD008EBF4
:100A50000103D3F80490B9F1000F32D009EB010380
:100A6000D3F804A0BAF1000F27D00AEB0103D3F8A2
:100A700004B0BBF1000F18D00BEB01035B6863B14E
:100A8000194401934968FFF7C9FF019B93F825209A
:100A90001AB11A681846536898479BF8253023B155
:100AA000DBF8003058465B6898479AF8253023B148
:100AB000DAF8003050465B68984799F82530002BEB
:100AC00035D198F8253063BB97F825301BB13B68CA
:100AD00038465B68984796F82530CBB995F82530AD
:100AE00063B994F8253013B903B0BDE8F08F2368DB
:100AF0005B68204603B0BDE8F04F18472B682846D6
:100B00005B68984794F82530002BEDD0EFE77047ED
:100B1000336830465B68984795F82530002BE0D065
:100B2000ECE7D8F8003040465B689847CCE7D9F846
:100B3000003048465B689847C3E700BF90F924201F
:100B4000531C26D01B4B2DE9F04153F82240D2B262
:100B5000ECB19300E1184D68B5B1E9184E6866B183
:100B6000F1184F6837B13B445968FFF757FF97F8C2
:100B70002530A3B996F8253063B995F825301BB117
:100B80002B6828465B68984794F8253063B9BDE820
:100B9000F0817047336830465B689847EDE73B6803
:100BA00038465B689847E5E7236820465B68BDE800
:100BB000F04118475408002008B50849084A094B75
:100BC000098811800848002283F8F62003F0CAFF44
:100BD0006420BDE8084009F0FBBD00BFD409002037
:100BE000AC090020D4040020900400202DE9F04F2F
:100BF00093B009F073FC9F4C9F4D206006F016FEE9
:100C00002B68984200F0CD8120689C4E9C4F06F0E6
:100C10000DFE2860206806F02DFE2B6899490246DB
:100C200099480DF0FFFF00250123974A9749376047
:100C300005A88DF814508DF8155004F0AFF8002178
:100C4000152009F089FD206806F0DEFD8046206849
:100C500006F0FEFD8246206806F0B2FD814620685F
:100C600006F0C0FDCDF800A00290CDF804904346F8
:100C7000854A874987480DF0D5FF0025082437604D
:100C8000152009F07BF90CF081FD4FF06A510CF052
:100C9000D1FD014628460CF0C5FC0546022009F0AE
:100CA00097FD013CECD1462309A84FF47A76DFF892
:100CB0002492794A75498DF824408DF825408DF8A5
:100CC00018408DF820400796CDF8149004F002F9F2
:100CD0009DF82430002B40F001810121142009F0FF
:100CE00069FA6E4B6E4A1A604FF47A750024C2237B
:100CF000684A6649079509A809AD8DF824408DF822
:100D000025408DF818408DF82040CDF8149004F05F
:100D1000E1F80FCDDFF8C0819DF8184088F8044055
:100D200008F110040FC40FCD0FC4079A9DF82030AE
:100D30002968C8F8082088F80C30564821600DF062
:100D4000DFFF01465348574FDFF850B1DFF850A19D
:100D50000AF0D8FC54480BF025FA642009F038FD5D
:100D600046463AE03B6801331A464FF47A753B60D9
:100D70000DF058FFC223474A4449079509A809AD19
:100D80008DF824408DF825408DF818408DF82040CE
:100D9000CDF8149004F09EF80FCD444C9DF818E067
:100DA00086F804E00FC40FCD0FC49DF82030079AD9
:100DB00033732968B260374821600DF0A1FF014606
:100DC00034480AF09FFC38480BF0ECF90A2009F08F
:100DD000FFFC3B68B3F57A7F44DC98F81040344957
:100DE0002C48002CBED0334833490768334C344A72
:100DF000344B354D03C9206092E80300A06093E8AE
:100E0000030010260123A382E382E06026613846B6
:100E10000CF0FCFE3946A06138460CF003FC0CF0E7
:100E2000F5FE2A4AE0612B68668492E803005B02C3
:100E300003F124062C226062214602271B48A3628C
:100E40002784666004F0D0FA092121480AF05AFC90
:100E5000296815480BF02CF913480BF0A3F913B0CF
:100E6000BDE8F08F0121142009F0A4F9CBF800A00F
:100E7000B3E700BFC0040020200700205008002076
:100E8000B50700004C510100D005002010040020DF
:100E90005851010080060020705101000CED00E067
:100EA0000400FA05CC05002058F5FF1F900400202F
:100EB000A451010010F0FF1FB05101006007002095
:100EC000B8510100C0510100D4060020C8510100F2
:100ED000D0510100F8500100800400204B484C4CD8
:100EE0000DF00EFF4949024609A804F07DFA12A947
:100EF0002C2301F8383D012209A804F075FA04F109
:100F0000080614F8011F00230A2205A80BF06CF94B
:100F1000A642F6D128463F490CF08CFC4FF07851A0
:100F20000CF088FC12A92C240546012201F8354D4D
:100F300009A804F059FA384B18680BF0D1FF0226C3
:100F40000B460246009605A80BF0AAF912A9012249
:100F500001F8364D09A804F047FA28460BF0C0FF07
:100F600000960B46024605A80BF09AF912A9012239
:100F700001F8374D09A804F037FA28480DF0C0FEF3
:100F80002649024609A804F02FFA05A80BF00AF931
:100F9000284623490CF0ECFD30B909A803F0E2FD26
:100FA000A2E6204E204F4AE62822204909A804F054
:100FB0001BFA05A80BF0F6F809A803F0D3FD0025ED
:100FC0000824152008F0DAFF0CF0E0FB4FF06A511E
:100FD0000CF030FC014628460CF024FB05460220AC
:100FE00009F0F6FB013CECD10A4928460CF022FC42
:100FF0004FF078510CF01EFC09490CF0B9FD0028A7
:10100000CBD047F2305009F0E3FBD8E78006002050
:1010100043060020CDCCBC405006002004F0FF1F4A
:101020000000404050080020B50700007851010042
:101030002DE9F0438FB004460DF062FE00B20128A6
:101040001CDDB4F9003044F25372934200F0878102
:1010500018DD44F65452934200F0D58045F25322F5
:1010600093422AD044F65212934207D10BAAE01CB5
:10107000C3490DF0FDFDC34B0B9A1A6001200FB060
:10108000BDE8F08344F24E4293420FD044F2524204
:101090009342F3D10BAAE01CB9490DF0E9FDBA4B1C
:1010A0000B9A1A6001200FB0BDE8F083B74B012204
:1010B00001201A600FB0BDE8F0830AAD09A908AAA3
:1010C00005ABE01C039502910192009307AA06ABC1
:1010D000AF490DF0CDFDAF4B079D596818689A6870
:1010E0000A9EDDF824E0DDF820C0A5F5FA65ADB272
:1010F0000BAF2CB207C7069F05991E3415F0030FDE
:101100004FEAA408FDB240F03981A34B022D8CBFF9
:101110001F460027A148A24BC8EB040400FB08F0BF
:101120006A1E03FB0400002A00EB070347DD9DF85D
:101130002C409948012A00FB043340D09DF82D40F3
:10114000022A00FB04333AD09DF82E40032A00FB0C
:10115000043334D09DF82F40042A00FB04332ED0F2
:101160009DF83040052A00FB043328D09DF831401B
:10117000062A00FB043322D09DF83240072A00FBE8
:1011800004331CD09DF83340082A00FB043316D0EA
:101190009DF83440092A00FB043310D09DF83540F7
:1011A0000A2A00FB04330AD00B2A9DF8364018BFE8
:1011B0009DF8372000FB043318BF00FB02335FFAB1
:1011C0008EF2C2EB02125FFA8CF04FF4616492006F
:1011D00004FB0022704D734C7348C9B2013952FAB6
:1011E00086F205FB01221344122123600AF08AFAD9
:1011F00021686E480AF05CFF6C480AF0D3FF0120BA
:101200000FB0BDE8F0830AAD09A908AA05ABE01C40
:10121000039502910192009307AA06AB5C490DF079
:1012200027FD5C4B079F9A68186859680A9EDDF88D
:1012300024E0DDF820C0A7F5FA67BFB20BAC3DB2E1
:1012400007C4069A059C1E3517F0030F4FEAA50840
:10125000D7B240F09080504B022F8CBF99464FF090
:1012600000094E494E4BC8EB050501FB08F17A1EFB
:1012700003FB0510002A00EB090347DD9DF82C0055
:101280004549012A01FB003340D09DF82D00022A78
:1012900001FB00333AD09DF82E00032A01FB0033F6
:1012A00034D09DF82F00042A01FB00332ED09DF886
:1012B0003000052A01FB003328D09DF83100062AB2
:1012C00001FB003322D09DF83200072A01FB0033D6
:1012D0001CD09DF83300082A01FB003316D09DF87E
:1012E0003400092A01FB003310D09DF835000A2A8A
:1012F00001FB00330AD00B2A9DF8360018BF9DF879
:10130000372001FB003318BF01FB02335FFA8EF276
:10131000C2EB02125FFA8CF04FF46165920005FB9C
:101320000022E1B21C4C1F4D52FA86F2013904FB37
:1013300001241C4420462C6009F0D6F80B211C48DF
:101340000AF0E0F9214600230A2218480AF04CFF6F
:1013500016480AF027FF01200FB0BDE8F0830BAA62
:10136000E01C07490DF084FC124B0B9A1A60012017
:101370000FB0BDE8F0834FF0000972E70027C9E61F
:101380002852010018F0FF1F14F0FF1FB4040020C2
:101390000852010040510100805101000085E20126
:1013A0008033E101C80400202C52010058F5FF1FD2
:1013B0001C5201001CF0FF1F2DE9F043A3B00025D3
:1013C0004FF47A766E4F6F4A6F490A96012319A837
:1013D00017968DF830508DF831508DF824508DF8D7
:1013E0002C508DF864508DF865508DF858508DF85C
:1013F00060500897159703F06DFD0DF1640EBEE87F
:101400000F000CAE0FC6BEE80F000FC69DF830806F
:10141000DEF800109DF85800179A9DF86030316092
:101420008DF824000A928DF82C30B8F1000F46D0C8
:101430002E468DF800604FF000094FF0FF080122A2
:1014400015A90CA803F0E6FD09F1010322AA012861
:101450004A441BB224D01D2B02F8888C05DC994627
:10146000EDE71D2B01DC0A2AF9D1013B9BB222AA30
:101470001A4402F8886C9DF800202F2A04D0012B12
:1014800002D96846FFF7D4FD9DF830301B0711D410
:101490000CA803F067FB2DBB012023B0BDE8F0834F
:1014A0009DF854200D2A08BF4B465AD11D2BDCDC79
:1014B0009946C4E7139A119B9A42BAD1E8E71421DE
:1014C00032480AF01FF932480AF06CFE0D22314909
:1014D00031480AF0D9FD30480AF064FE404623B096
:1014E000BDE8F0830B212D480AF00CF921460023BA
:1014F0000A2227480AF078FE002525480AF052FE05
:101500004FF47A768DF864508DF865508DF8585008
:101510008DF8605063231B4A1B49179619A819AD13
:10152000159703F0D7FC0FCD0CAE0FC60FCD0FC62D
:101530002968179A9DF860309DF8585031600CA8C2
:1015400021460A928DF82C308DF8245003F05CFE71
:10155000022213490CA803F047FF0CA803F002FB7A
:101560009AE722AB03EB0901542A09F1010301F8C0
:10157000882C1BB27FF475AF119C0546013C95E7A2
:10158000F850010040520100100400205C5201009C
:1015900058F5FF1F745201009C0600204C520100B8
:1015A0005852010038B5054606F064F91E4C014654
:1015B00020460AF07DFD2D200AF078F9284606F035
:1015C00035F9014620460AF073FD2D200AF06EF928
:1015D000284606F019F9014620460AF069FD012166
:1015E00012480AF08FF8284606F032F901462046E4
:1015F0000AF05EFD3A200AF059F9284606F0E0F8B4
:10160000014620460AF054FD3A200AF04FF92846D8
:1016100006F0E8F8014620460AF04AFD2046BDE8FB
:1016200038400AF0BFBD00BF58F5FF1FD851010078
:1016300010B5002008F068FD1E4C2070012008F055
:1016400063FD6070022008F05FFDA070032008F0C9
:101650005BFD194BE07022681A60042008F054FD0D
:101660002070052008F050FD6070062008F04CFD49
:10167000A070072008F048FD104BE07022681A6047
:10168000082008F041FD0E4B1870092008F03CFDC1
:101690000C4B18700A2008F037FD0B4B18700B200C
:1016A00008F032FD094B18700C2008F02DFD084B96
:1016B000186010BD5406002014F0FF1F18F0FF1F23
:1016C0007C040020540700207C060020CC0400206D
:1016D000D8060020214B10B51968214C002021604C
:1016E000C9B208F067FD6178012008F063FDA178B8
:1016F000022008F05FFDE178032008F05BFD194B44
:10170000196821600420C9B208F054FD61780520F1
:1017100008F050FDA178062008F04CFDE178072084
:1017200008F048FD104B0820197808F043FD0F4BD6
:101730000920197808F03EFD0D4B0A20197808F0B1
:1017400039FD0C4B0B20197808F034FD0A4B0C20A6
:101750001978BDE8104008F02DBD00BF14F0FF1F40
:101760005406002018F0FF1F7C04002054070020BE
:101770007C060020CC040020D80600202DE9F04F84
:101780000546DFF84C828D4E8D4F98F800E02E60B4
:10179000FF2085F82400DFF83C92387859F820C003
:1017A0000023BEF1060F8DB00C4685F8253085F874
:1017B00026309CBF88F800309E46BCF1000F00F038
:1017C000A8808C455BD06346810001E09C4256D0E6
:1017D0000B445B68002BF9D1634603EB010ADAF88E
:1017E0000430002BF9D105EB010BCAF80440BEF11F
:1017F000060F4FF0FF044FFA80FACBF804308DF853
:101800002C4002968DF82D308DF82E3085F824A0CE
:10181000644605D8002388F80030002C00F0A98029
:10182000A24226D0234601E0934222D00B445B68BB
:10183000002BF9D104EB010CDCF80440002CF9D1A9
:10184000CCF804200CAB19440024431CBAF1FF3F30
:1018500041F8244C3B708DF82CA0029605D05949D4
:1018600051F82A3002AA934272D028460DB0BDE842
:10187000F08F0130387028460DB0BDE8F08F00239E
:10188000FF21BEF1060F02968DF82C108DF82D3039
:101890008DF82E3001D888F800309445E9D06346A1
:1018A000810001E09A42E4D00B445B68002BF9D13F
:1018B0008C44DCF804402CB1A4468C44DCF8044091
:1018C000002CF9D10CAB19444FFA80FE431CBEF139
:1018D000FF3FCCF804203B7041F8244C02968DF871
:1018E0002CE0C2D0374951F82E3002AA9342BCD125
:1018F00059F82E304FEA8E0623B19A195368546076
:10190000002BFAD10023387049F82E3041F82E30E0
:10191000ABE7B0B38100DFF8ACA049F8204005EB9D
:10192000010C00234AF82050BEF1060FCCF8043019
:101930004FFA80FA4FF0FF0C02968DF82D308DF89B
:101940002E3085F824A08DF82CC07FF663AF64E7B5
:1019500059F82A304FEA8A0623B19A19536854601D
:10196000002BFAD10023387049F82A3041F82A3088
:101970007BE7A0B1134B49F8202002AA43F82020AE
:1019800060E711490192152008F0DCFC0F4B98F834
:1019900000E0019A4FF4001119603878BAE70A495B
:1019A0000192152008F0CEFC084B019A4FF400116B
:1019B000196038784FFA80FA8100DBE73451010072
:1019C00095080020740800209504000000E100E064
:1019D00094E9FF1F540800202DE9F0415A4D5B4C5B
:1019E0005B4E08F049FB04215A4807F099FC2A682D
:1019F00026600023637223612372E3600AB99EE0CC
:101A00001A465369002BFBD154610027524B4F48B3
:101A10006761A780E780236002F094FA4F4A4FF095
:101A2000010E02F118013B4638461772D760166066
:101A300082F809E01161174600E0396941F8230096
:101A4000517A464E01339942F7DC29683E4B09B979
:101A500077E019464B69002BFBD14A61404B414965
:101A60001C600024184654619480D48082F8F440AD
:101A70005A6082F8F5401160C2F8F04082F8F640F2
:101A80001C725C72DC600AF065F8374A374B1168EB
:101A9000374A1A600A221A724FF087400BF07EFF15
:101AA000344D354B354E18604FF0FF08344B354AF6
:101AB000354985F825400127284685F824802B6084
:101AC00085F826706C63AC6385F83C400CF032FA04
:101AD0002E4B2C4A2E4986F82480304686F8254025
:101AE000336086F826700CF025FA2A4631462948DC
:101AF000294F2A4DFFF742FE224A294925480CF07A
:101B000019FA284A284B2949294814744FF47A763F
:101B100096606426547414711473DC7183F83C4429
:101B200083F83D4483F86A4483F860640C724C7215
:101B30000C711760C3F86C540860BDE8F0812C602C
:101B400063E71E608AE700BFA80900206006002046
:101B5000EC5001009C06002040540100D4040020F9
:101B6000280600204C54010010F0FF1F380600200A
:101B700024540100DC0500201C060020280700205A
:101B8000F4540100FCEFFF1FBD06000008550100E2
:101B90001507000054040020F8500100011001381E
:101BA0001106000080040020D4FFFF1FE80600207B
:101BB0001C51010010B5E94C0A21204602F01EFF1D
:101BC0002046002102F0F2FC2046302102F0EEFC1B
:101BD0002046402102F0EAFC6021204602F0E6FCAB
:101BE000204602F01DFF20460A2102F007FF204692
:101BF000002102F0DBFC2046262102F0D7FC204623
:101C0000002102F0D3FC6C21204602F0CFFC2046DC
:101C100002F006FF20460A2102F0F0FE20460021D5
:101C200002F0C4FC2046282102F0C0FC204601211D
:101C300002F0BCFCF021204602F0B8FC204602F085
:101C4000EFFE20460A2102F0D9FE2046002102F0D4
:101C5000ADFC20462A2102F0A9FC2046002102F01A
:101C6000A5FC0021204602F0A1FC204602F0D8FE8F
:101C700020460A2102F0C2FE2046002102F096FC16
:101C800020462C2102F092FC20460F2102F08EFC0F
:101C90002221204602F08AFC204602F0C1FE2046A6
:101CA0000A2102F0ABFE2046002102F07FFC204614
:101CB0003C2102F07BFC2046442102F077FC4621C7
:101CC000204602F073FC204602F0AAFE20460A21BC
:101CD00002F094FE2046002102F068FC20462421F8
:101CE00002F064FC2046012102F060FC372120460E
:101CF00002F05CFC204602F093FE20460A2102F02E
:101D00007DFE2046002102F051FC2046302102F0E9
:101D10004DFC2046002102F049FCA221204602F0A1
:101D200045FC204602F07CFE20460A2102F066FEB9
:101D30002046002102F03AFC2046022102F036FC47
:101D40002046002102F032FC4321204602F02EFC06
:101D5000204602F065FE4FF4C87008F039FD2046B9
:101D60000A2102F04BFE2046002102F01FFC204613
:101D70002E2102F01BFC2046192102F017FC19212C
:101D8000204602F013FC204602F04AFE20460A21BB
:101D900002F034FE2046002102F008FC2046042117
:101DA00002F004FC2046002102F000FC0421204641
:101DB00002F0FCFB204602F033FE20460A2102F02E
:101DC0001DFE2046002102F0F1FB2046062102F014
:101DD000EDFB2046012102F0E9FB3021204602F014
:101DE000E5FB204602F01CFE20460A2102F006FE1A
:101DF0002046002102F0DAFB20460A2102F0D6FB41
:101E00002046002102F0D2FB0021204602F0CEFB4A
:101E1000204602F005FE20460A2102F0EFFD204692
:101E2000002102F0C3FB20460E2102F0BFFB20463A
:101E3000002102F0BBFB0821204602F0B7FB204640
:101E400002F0EEFD20460A2102F0D8FD20460021D6
:101E500002F0ACFB2046102102F0A8FB2046FF2137
:101E600002F0A4FB3C21204602F0A0FB204602F039
:101E7000D7FD20460A2102F0C1FD2046002102F0D4
:101E800095FB2046222102F091FB20467F2102F0A3
:101E90008DFB7F21204602F089FB204602F0C0FD29
:101EA00020460A2102F0AAFD2046012102F07EFB15
:101EB0002046242102F07AFB2046002102F076FB26
:101EC0000021204602F072FB204602F0A9FD2046C8
:101ED0000A2102F093FD2046002102F067FB204614
:101EE000242102F063FB2046002102F05FFB142155
:101EF000204602F05BFB204602F092FD20460A21BC
:101F000002F07CFD2046002102F050FB20462A21F1
:101F100002F04CFB2046002102F048FB0021204645
:101F200002F044FB204602F07BFD20460A2102F02D
:101F300065FD2046002102F039FB2046202102F0F9
:101F400035FB2046002102F031FB0021204602F043
:101F50002DFB204602F064FD012010BD3408002056
:101F600010B52A4CFFF726FE22782948114601F0C9
:101F700067FC23680F2B0CD8DFE803F00C10141853
:101F80001C2024282C3034383C404408214B224A61
:101F90001A6010BD1F4B214A1A6010BD1D4B204A0C
:101FA0001A6010BD1B4B1F4A1A6010BD194B1E4A08
:101FB0001A6010BD174B1D4A1A6010BD154B1C4A04
:101FC0001A6010BD134B1B4A1A6010BD114B1A4A00
:101FD0001A6010BD0F4B194A1A6010BD0D4B184AFC
:101FE0001A6010BD0B4B174A1A6010BD094B164AF8
:101FF0001A6010BD074B154A1A6010BD054B144AF4
:102000001A6010BD034B134A1A6010BD1CF0FF1F6D
:102010003806002050060020BD549341103377C08D
:10202000993918C0BE0D68BFCE71153F8D090340A8
:10203000CCC9624009A7A3407DDBD140C416014151
:1020400054FC1741D0E83041195546419FAB5F41E0
:10205000A04176415E2E864138B5012104463148C3
:1020600006F092FB372200212E4806F089FB20461D
:1020700005F000FC01462B480AF01AF82D212948EA
:1020800006F044FB204605F0D1FB014625480AF046
:102090000FF82D21234806F039FB204605F0B4FB4C
:1020A000014620480AF004F802221F491D4809F0A1
:1020B000EBFF204605F0CCFB092803DC3021194852
:1020C00006F024FB204605F0C3FB0146154809F045
:1020D000EFFF204605F074FB012205461349114825
:1020E00009F0D2FF092D03DC30210E4806F00EFB6B
:1020F00029460C4809F0DCFF204605F073FB01225D
:1021000004460A49074809F0BFFF092C03DC3021C7
:10211000044806F0FBFA21460248BDE8384009F0C1
:10212000C7BF00BF9C060020845201005C53010021
:1021300038B504460D463148012106F025FB2AB288
:1021400000212E4806F01CFB204605F093FB0146BB
:102150002A4809F0ADFF2D21284806F0D7FA20467D
:1021600005F064FB0146254809F0A2FF2D21234814
:1021700006F0CCFA204605F047FB01461F4809F05F
:1021800097FF02221E491D4809F07EFF204605F0F8
:102190005FFB092803DC3021184806F0B7FA204617
:1021A00005F056FB0146154809F082FF204605F070
:1021B00007FB012205461349104809F065FF092D68
:1021C00003DC30210D4806F0A1FA29460B4809F03E
:1021D0006FFF204605F006FB012204460949074827
:1021E00009F052FF092C03DC3021044806F08EFA76
:1021F00021460248BDE8384009F05ABF9C0600203D
:10220000845201005C5301002DE9F843034D2C6812
:1022100034B1012C00F08180BDE8F8835004002027
:1022200008F05CF9C14FC24E3860C24807F08CF824
:102230000121C04806F0AEFA0221BE4806F0A4FA19
:1022400022462146BB4806F09BFA0A22BA49B94801
:1022500009F01AFFB74809F0A5FF14213068FFF70D
:1022600067FF3868FFF7F8FEB24807F0A9FA08F0F0
:1022700035F9234601460A22B04809F0B5FFAF48B8
:1022800009F090FFAE4A3B681268934280F28C815D
:1022900032689342C0F24881AA4F3C68002C00F09B
:1022A00091810D21A848A94CA94F09F02BFAA34808
:1022B00009F078FFA74BA84A31681B681268A74845
:1022C0000B441A440E213260236009F01BFA08F017
:1022D00005F9FFF767F90B21A14809F013FA206807
:1022E000FFF760F90B219F4809F00CFA3068FFF7FF
:1022F00059F90126AE218F482E6007F02DF8FEF720
:1023000075FC994B002238461A6001F08DFF2C684D
:1023100087F8F660012C7FF47FAF8D4801F078FFDD
:10232000012801DDFEF79CFA8F4C904B22681B6858
:102330009A42FFF671AF884B1E68002E00F03A817A
:10234000FEF73AFC7A4BDFF85C821C68884F894EB6
:1023500008F0C4F8884A894B1268201A841A24EAC3
:10236000E47483FB04232344E017C0EBE3200AF06A
:10237000A5FD0AF0C9FB0BF0B7F8814A814BC8F8FC
:10238000000002FB004483FB042323448146E01742
:10239000C0EB63100AF092FD0AF0B6FB0BF0A4F854
:1023A000A0EB0012034604EB820449466348336005
:1023B0003C6009F07DFE614809F0F4FE31685F4839
:1023C00009F076FE5D4809F0EDFE39685B4809F0DA
:1023D0006FFE5A4809F0E6FE3368D8F800103A68F4
:1023E000C3EB03139B004FF4616000FB01331A44FD
:1023F000092A40F390801221634809F083F94F487D
:1024000009F0D0FE0021022008F074F90E215F4887
:1024100009F078F9494809F0C5FE0A215C4802F044
:10242000EDFA00215A4802F0C1F83021584802F074
:10243000BDF80021564802F0B9F80021544802F0D6
:10244000B5F8534802F0ECFA0A21514802F0D6FAE6
:1024500000214F4802F0AAF802214D4802F0A6F8E8
:1024600000214B4802F0A2F80021494802F09EF8F2
:10247000474802F0D5FA1021464809F043F92F48A1
:1024800009F090FE642008F0A3F90E21424809F0FB
:1024900039F92A4809F086FE642008F099F93B785A
:1024A000327898F800103D4805F030F83C4804F0C8
:1024B00003FE0121022008F01DF90A21344802F030
:1024C0009DFA0021324802F071F83021304802F0C4
:1024D0006DF800212E4802F069F8A2212C4802F084
:1024E00065F82B4802F09CFA0A21294802F086FA86
:1024F0000021274802F05AF80221254802F056F838
:102500000021234802F052F84321214802F04EF8FE
:102510001F4802F085FA01233C220221054807F0FA
:1025200045F800232B6077E62C6872E6C004002093
:10253000C80400209C0600208852010058F5FF1FA7
:1025400014070020B4040020945201004C0600201F
:10255000D404002014F0FF1F18F0FF1FA452010044
:10256000B4520100C0520100D0040020D406002063
:102570004C0400207806002000F0FF1FC5B3A29194
:10258000F0F1FFFF89888888CC520100E0520100F9
:1025900034080020F052010004530100DC05002043
:1025A00054040020DC0600200121052008F0A2F8D8
:1025B0003B686DE6114802F0D5FAFEF717FB26607E
:1025C000BDE8F8830A210E4802F018FA21460C48AB
:1025D00001F0ECFF0E210A4801F0E8FF214608480F
:1025E00001F0E4FF0A21064801F0E0FF044802F090
:1025F00017FA4FF0FF333B6053E600BF9004002012
:102600003408002010B507F069FF434B0121186022
:10261000424806F0B9F80121404806F0BBF8122202
:1026200000213E4806F0ACF804223D493B4809F041
:102630002BFD3C4B3948196809F03AFD01223A4913
:10264000364809F021FD354809F0ACFD062237492E
:10265000324809F019FD364B3048196809F028FD59
:10266000012231492D4809F00FFD2C4809F09AFD4F
:10267000304B1B68012B00D010BD2F4C2F49274831
:10268000082209F001FD217809293FDD00230A22F3
:10269000224809F0A9FD2A4B2A491C781F4801222B
:1026A00009F0F2FC092C03DC30211C4806F02EF85E
:1026B00021461A48244C09F0FBFC24491748012202
:1026C00009F0E2FC217809291ADD00230A221348C7
:1026D00009F08AFD1E4B1B491C781048012209F0A5
:1026E000D3FC092C03DC30210C4806F00FF82146FE
:1026F0000A4809F0DDFC0948BDE8104009F052BD68
:102700003021064806F002F82178DEE73021034840
:1027100005F0FCFF2178B9E7C00400209C060020EA
:102720001453010014F0FF1F1C530100205301003B
:1027300018F0FF1FD80600207C0400202853010059
:10274000540700205C5301007C0600203453010034
:10275000CC0400202DE9F04F87B0FEF769FF07F0A9
:10276000BDFE844B844F1A68844B38609A4202D96C
:10277000804A3C231360824A804B12689A4202D9F5
:102780007F4A3C2313607F4BDFF824A21A78DFF8DE
:1027900024827D4E7D4D172A84BF00221A707C4B07
:1027A0001A783B2A84BF00221A707A4B1A78172AAB
:1027B00084BF00221A70784B1A783B2A84BF00220B
:1027C0001A70DAF80030012B84BF0023CAF80030F9
:1027D000082007F0B3FFA0B933680133336002E08B
:1027E0000A2007F0F5FF082007F0A8FF0028F7D01F
:1027F000DAF800302BB93368634A082BC4BF0023D2
:102800001360664806F0A0FD0121644805F0C2FF90
:102810000221624805F0B8FF002211465F4805F02A
:10282000AFFF07F05BFE3B6834682860C3EB00092C
:10283000082C00F28B80DFE814F0FF03A2025302A1
:102840007D03E602BD014101C100090004F0CAFF99
:10285000534C034604202360029307F06FFF01905E
:10286000032007F06BFF019A029B8346002A40F089
:102870003784D8F800204B490120132A087040F310
:10288000C6840132C8F800200133BBF1000F40F0CC
:102890001E84DFF824B14349DBF800200120132A0D
:1028A000087040F3A784092BC8BFDBF8002003F1B0
:1028B000FF33CCBF01320122002BCBF80020C0F245
:1028C0000C843C2BA8BF00232268374C9A4223601B
:1028D0002FD0286804F0BCFF0390286804F070FF34
:1028E000216802918346286804F08EFF0446286818
:1028F00004F09CFF0190286804F0BCFF0DF1180E55
:1029000002990EF8081D00F14E0C039A019B8DF8F8
:10291000122070468DF816C08DF815308DF81440D1
:102920008DF811B004F0BAFF07F0DEFD07F0D6FD18
:1029300038601E491948072209F0A6FB07F0CEFDB2
:1029400004F050FF0146154809F0B2FBFFF75AFEAC
:1029500007F0C4FDFFF780FB104806F031FF0A20A6
:1029600007F036FFB9F5167F7FF732AF07B0BDE845
:10297000F08F00BF14F0FF1FB8040020A0860100F4
:1029800018F0FF1F7C040020E0060020C004002097
:10299000540700207C060020CC0400209C06002068
:1029A00024070020C40400202006002080530100DA
:1029B000D8060020E40600201807002004F000FFDD
:1029C000BC4C034604202360029307F0B7FE01903D
:1029D000032007F0B3FE019A029B8346002A40F0D1
:1029E0009383D8F80020B4490120132A087040F3DB
:1029F0001B840132C8F800200133BBF1000F40F006
:102A00008A83DFF8D8B2AC49DBF800200120132A12
:102A1000087040F3DD83092BC8BFDBF8002003F109
:102A2000FF33CCBF01320122002BCBF80020C0F2D3
:102A300078833C2BA8BF00232268A04C9A422360D5
:102A40002ED0286804F004FF03902868246804F05E
:102A5000C9FE0290286804F0D7FE8346286804F077
:102A6000E5FE0190286804F005FF0DF1180E0299AB
:102A70000EF8081D00F14E0C039A019B8DF81220F0
:102A800070468DF816C08DF815308DF814B08DF89D
:102A9000114004F003FF07F027FD07F01FFD386029
:102AA00007228749874809F0EFFA07F017FD04F07D
:102AB00087FE0146834809F0FBFA47E704F0C8FEA9
:102AC000814C034604202360029307F037FE0190F7
:102AD000032007F033FE019A029B8346002A40F050
:102AE0004183D8F8002074490120132A087040F36C
:102AF000BD830132C8F800200133BBF1000F40F064
:102B00002583DFF8D8B16C49DBF800200120132AB7
:102B1000087040F35783092BCABFDBF8002001225D
:102B20000132013BCBF80020002BC0F2EB82182BC6
:102B3000A8BF0023226801939A422DD0286804F090
:102B40003FFE0390286804F04DFE0290286804F0D0
:102B50005BFE0446286804F069FE8346286804F09A
:102B600089FE0DF1180E02990EF8081D00F14E0CA9
:102B7000039A019B8DF8112070468DF816C08DF8D0
:102B800012308DF815B08DF8144004F087FE07F070
:102B9000ABFC07F0A3FC386005224C49494809F01A
:102BA00073FA07F09BFC04F053FE0146454809F018
:102BB0007FFACBE604F028FE454C03460420236050
:102BC000029307F0BBFD0190032007F0B7FD019AC7
:102BD000029B8346002A40F0AA82D8F8002036499A
:102BE0000120132A087040F34D830132C8F80020F9
:102BF0000133BBF1000F40F0A182DFF8E0B02E49B5
:102C0000DBF800200120132A087040F3ED82092B25
:102C1000C8BFDBF8002003F1FF33CCBF0132012233
:102C2000002BCBF8002040F38F82202BA8BF01237C
:102C30002268284C9A4223602ED0286804F008FEAF
:102C40000390286804F0BCFD8346286804F0CAFDA0
:102C500002902868246804F0E9FD0190286804F0D7
:102C600009FE0DF1180E029A0EF8082D00F14E0C17
:102C7000039B01998DF8123070468DF816C08DF8BF
:102C800015108DF814408DF811B004F007FE07F010
:102C90002BFC07F023FC386004220F49094809F097
:102CA000F3F907F01BFC04F0AFFD0146054809F0FD
:102CB000FFF94BE65C060020C4040020BC040020A1
:102CC000785301009C060020480400207053010046
:102CD0005C070020580700206853010018070020F7
:102CE000884B04201C6807F029FD0190032007F0A1
:102CF00025FD019B8346002B40F03A82D8F8003036
:102D0000814A0121132B117040F3C8820133C8F8A6
:102D100000300134BBF1000F40F01C82DFF810B22C
:102D2000794ADBF800300121132B117040F3468201
:102D3000092CC8BFDBF8003004F1FF34CCBF0133ED
:102D40000123002CCBF80030C0F20A826F4B9C426A
:102D5000C8BF00246B4B6E496E481C60042209F00A
:102D600093F9684B19686B4809F0A2F901226A4986
:102D7000684809F089F9674809F014FAE6E5674BF5
:102D800004201B68029307F0D9FC0190032007F090
:102D9000D5FC019A029B8346002A40F0AF81D8F807
:102DA000002059490120132A087040F38182013222
:102DB000C8F800200133BBF1000F40F09681DFF826
:102DC00070B15149DBF800200120132A087040F34C
:102DD0000582092BC8BFDBF8004003F1FF33C8BFF1
:102DE0000134002BCBF8004040F38581B3F5616FCF
:102DF000C8BF0123494C4A4946482360042209F0D0
:102E000043F92346AEE704F011FD464C0346042087
:102E10002360029307F092FC0190032007F08EFCE0
:102E2000019A029B8346002A40F0AA81D8F800202C
:102E300035490120132A087040F346820132C8F850
:102E400000200133BBF1000F40F09681DFF8E0B0C5
:102E50002D49DBF800200120132A087040F3A881D7
:102E6000092BCABFDBF8002001220132013BCBF85D
:102E70000020002B40F37A810D2BA8BF012322688C
:102E8000294C9A4223602ED0286804F0E1FC03907C
:102E9000286804F095FC8346286804F0A3FC02909F
:102EA000286804F0B1FC01902868246804F0E2FC72
:102EB0000DF1180E02990EF8081D00F14E0C039A40
:102EC000019B8DF8122070468DF816C08DF81430D5
:102ED0008DF815408DF811B004F0E0FC07F004FB0C
:102EE00007F0FCFA3860062210490A4809F0CCF8CD
:102EF00007F0F4FA04F09AFC0146064809F0D8F805
:102F000024E500BF18F0FF1FC40400208051010019
:102F1000505301009C0600201C53010014F0FF1FB9
:102F200014530100500700202406002060530100C4
:102F30001807002004F09EFCC24C034604202360C6
:102F4000029307F0FBFB0190032007F0F7FB019AC7
:102F5000029B8346002A40F0E680D8F80020BA4958
:102F60000120132A087040F317810132C8F80020AD
:102F70000133BBF1000F40F0A680DFF8E4B2B249A4
:102F8000DBF800200120132A087040F33A81092B56
:102F9000CABFDBF8002001220132013BCBF8002040
:102FA000B3F5FA6FC0F28C8040F634029342C8BF8A
:102FB0004FF4FA632268A54C9A4223602ED0286809
:102FC00004F046FC0390286804F0FAFB8346286866
:102FD00004F008FC0190286804F016FC02902868B0
:102FE00004F024FC0DF1180E9DF804200EF8082DB5
:102FF00023680399029A8DF815004E3370468DF8B8
:1030000012108DF816308DF814208DF811B004F0E0
:1030100045FC07F069FA07F061FA386005228C492F
:103020008C4809F031F807F059FA04F023FC014606
:10303000884809F03DF889E4834C2378002B40F060
:10304000A3800A228449834809F01EF8042007F06F
:1030500075FB0446032007F071FB002C7FF476AC6F
:1030600000287FF473AC7B4806F06EF901217948A3
:1030700005F090FB0221774805F086FB00221146FF
:10308000744805F07DFBFEF725FB0A227349714861
:1030900008F0FAFF6F4806F093FB40F2DC5007F0AF
:1030A00097FBFFF7AFFA07F019FAFEF7D5FF69486B
:1030B00006F086FB0A2007F08BFB07B0BDE8F08F17
:1030C00040F6340376E7664A0021116068E7644AF7
:1030D0000021002B1160BFF6F4AB3B23FFF7F4BBDC
:1030E0000022C8F80020FFF7D0BB5D4A0021002B6A
:1030F00011603FF77BAE4FF461637BE60022C8F8B6
:10310000002058E6172315E50022C8F80020BBF17F
:10311000000F3FF476AC524A0021002B1160BFF63D
:1031200088AC3B2388E40022C8F8002021E7002275
:10313000C8F80020BBF1000F3FF45FAD484A002102
:10314000002B11603FF771AD1F2371E5444A002148
:103150001160E9E4424B0022002C1A60BFF6F6AD84
:10316000404CF7E50022C8F80020C6E40C2386E6B0
:103170000023C8F80030CDE5394A0021116078E617
:103180000022C8F800205DE6FEF7A4FA00232370B1
:1031900007F0A4F9386054E7C820019307F018FB42
:1031A000314B1A68019B0132C8F800200133E0E678
:1031B000C820019307F00CFB019B51E6C82007F0E3
:1031C00007FBB5E5C820019307F002FB019BA2E4D1
:1031D000C820019307F0FCFA019B1CE4C82001936E
:1031E00007F0F6FA019BF4E5C820019307F0F0FA26
:1031F000019B0CE5C820019307F0EAFA019BFFF759
:1032000052BBC820019307F0E3FA019BBFE6C82038
:10321000019307F0DDFA144B1A68019B0132C8F8DC
:1032200000200133FFF731BBC820019307F0D0FA2B
:103230000D4B1A68019B0132C8F800200133FFF7DB
:10324000DCBB00BF1C070020C4040020580600207F
:10325000585301009C0600203853010044530100DC
:103260001807002080510100E4060020C8200193C7
:1032700007F0AEFA1A4B1A68019B0132C8F8002019
:1032800001333AE4C820019307F0A2FA144B1A68FC
:10329000019B0132C8F800200133AAE4C82007F0DE
:1032A00097FA0F4B1B680133C8F80030013431E541
:1032B000C820019307F08CFA094B1A68019B013270
:1032C000C8F80020013376E5C820019307F080FAA2
:1032D000034B1A68019B0132C8F800200133B1E5A5
:1032E000E40600202DE9F04F8FB072B68F49904B65
:1032F000904841250E2480220D70047019461A70E2
:103300000B788B4A1806FBD58B498C4B0D788C4C6F
:103310008C481D700339247800780978D9705C7066
:10332000987062B672B68149824C41260F25802082
:103330000E702570114610700A781206FCD57E4C6E
:103340007F488049804A2478007809781278DA71B9
:103350001C715871997162B67C4D7D4C4FF4FA70B6
:1033600007F036FA29687B4800230A2208F03CFF60
:10337000784808F017FF4FF47A7007F029FA2968A7
:10338000744800230A2208F02FFF724808F00AFF51
:103390004FF47A7007F01CFA00230A2229686D485E
:1033A00008F022FF6B4808F0FDFE6B4801F0A4F91D
:1033B0000121022007F0D0F90121142007F0CCF9F7
:1033C0000021152007F0C8F9002006F04BFD01216F
:1033D000022007F08FF90121142007F08BF900215A
:1033E000042007F0B9F90021032007F0B5F9002106
:1033F000082007F0B1F90121042007F07BF9012131
:10340000032007F077F90121082007F073F94FF442
:10341000FA7007F0DDF907F061F8504B2060984230
:1034200002DC4F4807F060F801233C2202214D489E
:103430004D4D06F0BBF8642007F0CAF9494805F085
:1034400083FF0121474805F0A5F90221454805F011
:103450009BF900221146434805F092F90A2243499C
:10346000404808F011FE3F4808F09CFE3D4806F039
:10347000A7F93C4805F068FF01213A4805F08AF9B0
:103480000221384805F080F900221146354805F040
:1034900077F90A223549334808F0F6FD314808F03B
:1034A00081FE304806F08CF9C82007F091F9072119
:1034B0002F4801F019F805F58C660E212C4801F013
:1034C00043F8304605F26C414FF038430A2203F0CE
:1034D00051F9002852D11C21264808F013F91D4843
:1034E00008F060FE1F4805F02FFF01211D4805F080
:1034F00051F902211B4805F047F9002211461948ED
:1035000005F03EF912221C49164808F0BDFD154889
:1035100008F048FE06F0E2FFFEF79EFD114806F0B7
:103520004FF94FF47A7007F053F9DBE707000240D8
:1035300000000240060002400B000240440600204A
:103540000A000240090002400800024000D0034087
:10355000C004002058F5FF1F340800207FC18556A5
:1035600080C185569C060020D4FFFF1F88530100B0
:1035700020F0FF1FFC5301009453010005F23C4072
:103580002E6001F0EFFA0121284602F0F7FF014614
:10359000002800F002818A4D05F23C46304629465B
:1035A00001F018FD002896D095F83C3413F0700F08
:1035B00091D0844B0EAD1E60FDF7FEFE6421824863
:1035C00008F0F4F9FEF7CCFCFFF7C4F87F4B45F8A0
:1035D000343D002331468DF814308DF815308DF8C8
:1035E00008308DF810307A4A462305A84FF47A76D1
:1035F000039601F06FFC9DF81430002B40F0D4804E
:103600000021042007F076F80021032007F072F86B
:103610000021082007F06EF86E486F4F6F4D704E16
:10362000DFF80492DFF80482DFF804A2DFF804B2C6
:1036300005F08AFE0121674805F0ACF802216548D3
:1036400005F0A2F800221146624805F099F806F04C
:1036500045FF644A034682FB0321DA17C2EB61127D
:103660004FF4967101FB1232386823609B1A0B44A9
:103670005D4A2B60034413600AF088F85B4B1968BD
:103680000AF0D8F84FF06E510AF0D4F80AF098FA20
:10369000574B31681A68C9F80000564BC2EB010954
:1036A00029EAE97983FB09234B444FEAE970C0EB2F
:1036B000E32009F003FC09F027FA09F015FF4E4B4F
:1036C000C8F8000003FB00994C4B83FB09234B44D3
:1036D0004FEAE970C0EB631009F0F0FB09F014FA4F
:1036E00009F002FFA0EB0013024609EB830310214F
:1036F0004348CBF80020CAF8003008F003F8D8F8A7
:103700000010404808F0D4FCDBF800103D4808F0F9
:10371000CFFCDAF800103B4808F0CAFC394808F042
:1037200041FD0821384807F0EDFF3968354808F0B9
:10373000BFFC344808F036FD0821344807F0E2FFAA
:103740003168304808F0B4FC2E4808F02BFD0E21FB
:103750002F4807F0D7FF2068FDF724FF0C212D48E4
:1037600007F0D0FF2868FDF71DFF2B6824682A4862
:103770001C1B152107F0C6FF2146224808F098FCC3
:10378000204808F00FFD2549254B00204FF0FF325F
:1037900008601A600FB0BDE8F08F284602F0EEFE18
:1037A00000287FF4F8AE96E629221E4905A801F00C
:1037B0001BFE284608F0F6FC05A801F0D3F91FE728
:1037C000D4FFFF1F4C0800200082FF1FF8500100AB
:1037D000705101009C06002014F0FF1FC804002057
:1037E00018F0FF1FB5814E1B4C06002010F0FF1F84
:1037F00000F0FF1FC5B3A291F0F1FFFF8988888810
:10380000A853010058F5FF1FBC530100C853010025
:10381000A4520100D4530100E453010050040020DD
:1038200020070020DC510100D4060020DC06002027
:103830004C040020780600200020704700207047CC
:1038400038B50F29114C28BF0F210F2A28BF0F228E
:103850000D46017A204642EA051500F0F9FF2046A0
:10386000002100F0A3FE2046202100F09FFE20460C
:10387000002100F09BFEE9B2204600F097FE2046B2
:1038800001F0CEF8B0FA80F0400938BD34080020CD
:10389000F8B5C34C012605460671204600F02CFF02
:1038A000052006F095FF297A204600F0D1FF20463A
:1038B000002100F07BFE2046302100F077FE2046FC
:1038C000402100F073FE6021204600F06FFE20468C
:1038D00001F0A6F8297A204600F0BAFF2046002120
:1038E00000F064FE2046262100F060FE2046002104
:1038F00000F05CFE6C21204600F058FE204601F0EE
:103900008FF8297A204600F0A3FF2046002100F01E
:103910004DFE2046282100F049FE3146204600F0A9
:1039200045FEF221204600F041FE204601F078F8E5
:10393000297A204600F08CFF2046002100F036FE58
:1039400020462C2100F032FE20460F2100F02EFEF2
:103950002221204600F02AFE204601F061F8297A53
:10396000204600F075FF2046002100F01FFE204693
:103970003C2100F01BFE2046442100F017FE4621AA
:10398000204600F013FE204601F04AF840F23713BB
:10399000EB80297A204600F05BFF2046002100F0F2
:1039A00005FE2046242100F001FE3146204600F0AD
:1039B000FDFD3721204600F0F9FD204601F030F8EA
:1039C000297A204600F044FF2046002100F0EEFD59
:1039D0002046302100F0EAFD2046402100F0E6FDBF
:1039E000FF21204600F0E2FD204601F019F8297A77
:1039F000204600F02DFF2046002100F0D7FD204694
:103A0000022100F0D3FD2046002100F0CFFD7321FC
:103A1000204600F0CBFD204601F002F84FF4C870BC
:103A200006F0D6FE297A204600F012FF204600213B
:103A300000F0BCFD20462E2100F0B8FD20461D21DF
:103A400000F0B4FD1D21204600F0B0FD204600F03E
:103A5000E7FF297A204600F0FBFE2046002100F017
:103A6000A5FD2046042100F0A1FD2046002100F024
:103A70009DFD0421204600F099FD204600F0D0FF76
:103A8000297A204600F0E4FE2046002100F08EFD59
:103A90002046062100F08AFD3146204600F086FDD2
:103AA0003021204600F082FD204600F0B9FF297A3F
:103AB000204600F0CDFE2046002100F077FD204694
:103AC0000A2100F073FD2046002100F06FFD102157
:103AD000204600F06BFD204600F0A2FF297A204628
:103AE00000F0B6FE2046002100F060FD20460E21C9
:103AF00000F05CFD2046002100F058FD002120462A
:103B000000F054FD204600F08BFF297A204600F09B
:103B10009FFE2046002100F049FD2046102100F0C4
:103B200045FD20463C2100F041FD3C21204600F0AF
:103B30003DFD204600F074FF297A204600F088FE03
:103B40002046002100F032FD2046222100F02EFD0B
:103B500020467F2100F02AFD7F21204600F026FD2F
:103B60003627204600F05CFF297AEF80204600F0DF
:103B70006FFE2046002100F019FD2046242100F0B0
:103B800015FD2046002100F011FD3946204600F0C9
:103B90000DFD204600F044FF6E723046F8BD00BFB8
:103BA000340800200B462DE9F041454905461846EA
:103BB00009F040FE434909F035FD0AF027F80446B4
:103BC00000284CD080281FD92B79002426462BBBF7
:103BD000297A3D4800F03CFE00213B4800F0E6FC1D
:103BE0002221394800F0E2FC3146374800F0DEFC83
:103BF0002146354800F0DAFC334800F011FFB0FAF6
:103C000080F04009BDE8F081C0F180042B7944EADE
:103C10000424C4F30726E4B2002BD9D0EF88297A14
:103C2000294827F010074FF00008EF8085F804803E
:103C300000F00EFE4146244800F0B8FC2421224842
:103C400000F0B4FC390A204800F0B0FC07F0EF01A6
:103C50001D4800F0ABFC1C4800F0E2FEB8E7012371
:103C60002B71297A184800F0F3FD2146164800F020
:103C70009DFC2221144800F099FC7F21124800F09D
:103C800095FC7F21104800F091FC0F4800F0C8FE21
:103C9000EE88297A0C4846F01006B6B2EE8000F0A5
:103CA000D7FD2146084800F081FC2421064800F099
:103CB0007DFC310A044800F079FCF1B299E700BFBD
:103CC00000000143EE7CFF3E3408002070B505463D
:103CD0000C4619B101293BD0002070BD017A424841
:103CE00000F0B6FD2146404800F060FC20213E482F
:103CF00000F05CFC21463C4800F058FC55213A4855
:103D000000F054FC384800F08BFE06460028E3D152
:103D1000EC88297A344844F00404A4B2EC8000F022
:103D200097FD3146304800F041FC24212E4800F038
:103D30003DFC210A2C4800F039FCE1B22A4800F091
:103D400035FC294800F06CFEB0FA80F0400970BDE7
:103D5000017A254800F07CFD0021234800F026FC74
:103D60002A21214800F022FC21461F4800F01EFCB9
:103D700073211D4800F01AFC1B4800F051FE044658
:103D80000028A9D1297A184800F062FD214616487A
:103D900000F00CFC2021144800F008FC21461248D9
:103DA00000F004FC8821104800F000FC0E4800F0F0
:103DB00037FE044600288FD1EE88297A0A4826F07B
:103DC0000406EE8000F044FD2146074800F0EEFBBB
:103DD0002421054800F0EAFB310A034800F0E6FB25
:103DE00006F0FB01AAE700BF3408002010B5044626
:103DF00007F0C0FF204610BD024A034903480AF0FD
:103E000099B800BFFCEFFF1FED3D00008C070020BC
:103E10001B4A1C4B11681C48096970B499421279FD
:103E2000027009D2194A127832B3194A4FF0804110
:103E3000116003F5807402E01C46A3F58073154AF7
:103E4000154912680D68AAB1A5B1144E30884028F2
:103E500010D841000A4440302944023202313080F7
:103E600033F9040B22F8020F9C4233F9020C21F8BB
:103E7000020FF5D870BC704703F58074DFE700BF10
:103E80009C07002090E8FF1F1F800040960700203D
:103E900008E200E0A4070020980700209407002013
:103EA000F8B5064607F0B2FD0446E8B107F0AEFDEE
:103EB000054600283AD072B61F4B1A887F2A19D8B7
:103EC000002C31D01D490A6842B162B6204607F085
:103ED000F1FD2846BDE8F84007F0ECBD18480C603D
:103EE0001A80056062B6F8BD054672B6124B1A8894
:103EF0007F2AE5D9114A12491768146000220C681C
:103F00001A800D6062B63946304607F0FDFD38462E
:103F100007F0D0FD30462146012207F0F5FD20468E
:103F2000BDE8F84007F0C6BD62B6F8BD204607F010
:103F3000C1FD2C46BFE700BF94070020A407002066
:103F400098070020F8B5284C284E2046012107F09C
:103F500073FE00F083F8264B264A27484FF4806111
:103F60001960236800211A6099802279186102F192
:103F7000804202F5043240F20110D8809E614FF475
:103F80008075022006278E26DD82D960DD83986049
:103F90009F8398821170167007F0F4FD1749184B33
:103FA0002279184F08701A7039682279164C174D0B
:103FB000174E41F0124141F00101531139609B004D
:103FC000206803F1604302F1100703F5614302F03A
:103FD0001F02012140F0104001FA02F2206045F872
:103FE00027601A60F8BD00BF9C07002000FEFFFF9D
:103FF00014B00440A0F0024090E7FF1F9607002095
:104000001B80004080F0024000F0024000EAFF1FE9
:10401000113E0000024A0349034809F08BBF00BF6C
:10402000FCEFFF1FED3D00009C070020024A034902
:10403000034809F07FBF00BFFCEFFF1FED3D00000C
:10404000A8070020024A0349034809F073BF00BFD4
:10405000FCEFFF1FED3D0000B0070020284B294971
:104060001A68294842F400421A600A6842F00202C3
:104070000A601A6842F002021A600368002B3DDBF6
:10408000224B1B68002B39DB214A4FF0864313601B
:104090001368002BFCDBF0B51E4C1F48DFF8ACE0CA
:1040A0001E491F4B1F4A204F204E214D41F2100C3C
:1040B000C4F800C0002404600120CEF80000DFF83E
:1040C00090E0C1F800E04FF480311960194B1360A3
:1040D000DFF880E0184A3A60346028601748CEF86C
:1040E0000000174CB9671748174946F8503C4FF481
:1040F000C0632A61236003600B60F0BD704700BF9E
:104100003C8004404080044000F0024080F00240C7
:1041100000F1024004F1024060F0024008F0024069
:104120000CF0024010F0024014F00240E0F00240B7
:1041300084F002401B0F0100000F0F0F0300004727
:1041400008B004400CB0044018B0044004F0024031
:104150000300000788F00240024A0349034809F0BF
:10416000E9BE00BFFCEFFF1FED3D0000B8070020D7
:10417000024A0349034809F0DDBE00BFFCEFFF1F00
:10418000ED3D0000C0070020024A0349034809F042
:10419000D1BE00BFFCEFFF1FED3D0000C8070020AF
:1041A000024A0349034809F0C5BE00BFFCEFFF1FE8
:1041B000ED3D0000D0070020024A0349034809F002
:1041C000B9BE00BFFCEFFF1FED3D0000D807002087
:1041D00010B50021044607F0B1FC98B194F8F63010
:1041E0008BB194F8F43094F8F5200133342BC8BF28
:1041F0000023934207D09A1D04EB8202DBB2506089
:1042000084F8F43010BDBDE8104007F053BC00BF87
:1042100090F8F42090F8F530D0B2DBB2984238BF75
:104220003530C01A704700BF38B50546D0F8F000E9
:1042300020B107F03FFC0023C5F8F03095F8F540B9
:1042400095F8F430E4B2DBB29C420ED00134352C48
:1042500028BF0024A31D05EB8303586807F02AFC40
:1042600095F8F430DBB29C42F0D1DBB285F8F53042
:1042700038BD00BF0246D0F8F000B0B992F8F53072
:1042800092F8F410DBB28B4210D00133342B86BF8E
:1042900001460B46D9B2063302EB83035868C2F8D5
:1042A000F00082F8F510043070470020704700BF1E
:1042B000D0F8F03043B110B50446184607F0FAFBC9
:1042C0000023C4F8F03010BD704700BF10B4047F65
:1042D0004160022CC26002D010BC07F065BD83684B
:1042E00010BC1847F0B4464B464A186BDC6A01799B
:1042F0001170454922790A709A6A00790870002A7B
:1043000046D05968C9688A423ED82168CC8B2404BB
:1043100002F1FF3065D4C0F30E00C883C88B80B2B1
:10432000C882196B0968C88B000452D4C2F30E000E
:10433000C883C88B002480B212F1FF32C88218BF34
:1043400001229C62D96A2E4809680D6800F1240494
:10435000A54236D00068C46814F0804F0C680D6820
:1043600015BF248824780235013544F000440D60DF
:104370004463196B254B09791970214912B1CA6A36
:1043800012791A70F0BC7047521A9A620122D9E76A
:10439000586B196805681E4C0A63CC62CC682D689E
:1043A0001C4E24F080440327B542CC6083F825706E
:1043B0001FD1037F4260022BC2601ED0F0BC07F009
:1043C000F3BC016890F82400CC6840F000404863DA
:1043D000CFE7CC8BC2F3080004F47E442043C883AB
:1043E000A7E7CC8BC0F3080004F47E442043C883C5
:1043F00094E72B461146F0BC18478368F0BC184779
:1044000020F0FF1F1F8000401C8000401B800040E8
:1044100000000FFFCD42000090E80C00F0B41C68D3
:1044200059682568164F174E29432160164D1749C4
:104430001760D66015611160417A154A5C180A311F
:1044400094F8244053F8215002EBC40149680D60F0
:10445000017A5C1803EB8101247ECD6902EBC40173
:1044600049680D60817A581803EB810390F8300099
:10447000596B02EBC002F0BC53681960704700BF73
:1044800001401F00011000380110007800001F805B
:10449000CC5A01004268036805CA10B4046822437C
:1044A0000260D868840100F0E06205D5080900F4D4
:1044B000706021F470410143D8681143814209D0F2
:1044C0001A68500408D40748186041F08040D96049
:1044D00018611A6010BC704741F08042D96010BC6E
:1044E0001A61704701401F004268437A134493F8F1
:1044F00024308B4209D0F0B492F824408C4205D08D
:1045000092F825408C421AD0F0BC70470024214616
:104510001668556836682E420FD00A4D05EBC30366
:1045200000275E685318376093F8243005EBC30505
:104530000A316B6852F821201A604472E4E70124C2
:104540002146E5E7CC5A01004268837A134493F888
:1045500030308B4209D0F0B492F830408C4205D014
:1045600092F831408C421BD0F0BC704700242146A9
:104570001668556836682E4210D00B4D05EBC30304
:1045800000275E685318376093F830300C3105EB24
:10459000C30502EB81026B6852681A608472E3E71C
:1045A00001242146E4E700BFCC5A01000A4B1B78E6
:1045B00013B90A4B1B786BB1094A1378202B07D823
:1045C00010B4581C074C1070E154012010BC704707
:1045D00001230371002070474608002009080020CD
:1045E00047080020E8070020704700BF024A034B3D
:1045F00010781B78C01A7047450800204408002036
:10460000064A074913780978994204D90548591C84
:10461000C05C117070474FF0FF30704744080020B5
:10462000450800200C080020054B064A1B7812782C
:104630009A4286BF044AD05C4FF0FF30704700BFFB
:1046400044080020450800200C08002070B50D4BE0
:104650001B78144613B90C4B1B788BB10B4E357875
:10466000C5F12103A34202D201221C46027108486F
:1046700022462844254405F049FA3570204670BD8D
:10468000184670BD46080020090800204708002091
:10469000E8070020124BDB7803F020034BB1114AEE
:1046A00013780133DBB2012B137012D9122005F0FD
:1046B000D1BE10B5122003F0FF0405F0CBFE0A4B6B
:1046C0001B685BB109490A4A0C701078BDE81040BC
:1046D0001847084B1B78002BE8D0704710BD00BF6F
:1046E0000060064030080020E40700204408002055
:1046F00045080020090800200D4A0E4BF0B50020A7
:104700000D4C10702268DFF838E00C4F42F0400288
:1047100022604FF4197127260425202480229870E6
:10472000CEF8001039605E709D715C719A70F0BDBA
:1047300009080020006006403480044008A00440BE
:104740000CA0044010B5384CE378DBB2D80623D572
:1047500010225906E2701ED503F0040303F0FF0295
:10476000002B33D0314B32491A68324C00230B7086
:104770002370002A3BD090472378002B37D02E4B54
:104780001B78294A2D49D02494701371264B01209F
:1047900002220870DA7010BD5A06DDD4A27802F049
:1047A000100202F0FF0042B313F001031BD12349B2
:1047B00020480A780078904281BF1F4B501C9B5CB8
:1047C00008702371184BD0229A7008E01C48164BD1
:1047D000174902700120C02208709A701B79124B91
:1047E0000222DA7010BDC023A3702379F7E71249C3
:1047F000002301220B702270C3E7124B124918707C
:104800000322122005F0A6FD0D4923790A781F2AFC
:10481000DBB2E4D8064800780028E0D00B4C501CEE
:10482000A3540870DBE700BF006006402C0800209E
:10483000E007002047080020E80700204808002083
:104840004508002030080020954600000C08002094
:104850000548064A10B40123054C03704900137043
:10486000217010BC704700BF460800204708002098
:10487000E80700202DE9F043594C1223E370A37898
:1048800003F0200383B0002B55D0B423DFF86881F8
:10489000A370D8F80030524D1C460020EA78D2B2FE
:1048A0009A421CBF1446012096061346F6D50028EE
:1048B00040F08C804B4B1B78002B33D003F1FF3E34
:1048C0005FFA8EFE0026D8F80040474F444D0EF1A7
:1048D000010E30464FF0020C17F8013F2B715FFAC2
:1048E00086F902E013F0200F09D0EB78DBB2934297
:1048F0001CBF1C46012013F0020F1A46F2D085F8A7
:1049000003C0EA78D2B293421CBF14460120D306FA
:1049100033D4930631D5D30744D401367645DBD161
:1049200000284AD1002000292ED1304B00221A70D5
:1049300003B0BDE8F0832E4DDFF8BC8003F0FF022A
:104940002B680093009ED8F8000005E02B680193C7
:10495000019B9B1B0F2B1BD8E378DBB2834218BF54
:10496000012213F0200F1846F0D192BB21481C4BB6
:104970000024B02204709A708BE708BB184B802289
:104980009A7004200029D0D0154B80229A70CCE771
:10499000CAB9134B00218022042099709A7003B089
:1049A000BDE8F083C0B90E4BB9F1000F4FF08002A3
:1049B0000CBF022003209A70B7E7C8F80040B1E7A7
:1049C000C8F80040DAE7C8F80000E2E7C8F800409D
:1049D00070E7C8F80030C9E7C8F80040E3E700BF57
:1049E0000060064047080020E70700204608002036
:1049F000A80800200908002058F0FF1F0548064AB3
:104A000010B40123054C037049001370217010BCD1
:104A1000704700BF4608002047080020E807002034
:104A20000121FFF727BF00BF044B054A1A604FF46E
:104A30007A71002299601A711A7370473408002045
:104A4000D054010038B590F90230002B044612DB37
:104A5000A56805F1240001F0FDF928B9637843F059
:104A600001036370002038BD05F50C7001F0F2F908
:104A70000028F3D038BD8068A1692430012201F0FC
:104A8000A3F90028EAD0A38803F00F035B01C5183F
:104A9000E4D0C35CE52BE1D023780B4A1B0744BF6D
:104AA000E369EB61236A12686B831B0CAB8232B142
:104AB00005F1160105F1180090472B8B6B82A37846
:104AC00003F07F03A370C3E7500800202DE9F041F5
:104AD000037803F020032BB903F0FF044269204B55
:104AE0009A4203D900263046BDE8F08183780169F7
:104AF000054663F07F038068AB7005F1100201F09A
:104B00001DFB06460028EDD02969A86801F0CAF906
:104B10000746A86839462430052201F055F9804639
:104B20000028DFD04FF40072214609F027FEAB6861
:104B30001A79012A0FD9012403E0AB681A79A2423D
:104B400009D9E1191868424602F00CF80134E4B2C0
:104B50000028F2D1C6E76B6903EB42226A61C2E723
:104B6000FFFD1F0038B5037804461BB900232370EE
:104B7000012038BD90F90230002B14DBA56805F147
:104B8000240001F067F938B9637843F001036370DA
:104B900000232370002038BD05F50C7001F05AF990
:104BA0000028F1D0E2E78068A1692430012201F0F9
:104BB0000BF90028E8D0A38803F00F035B01C518A8
:104BC000E2D0C35CE52BDFD023780B4A1B0744BF40
:104BD000E369EB61236A12686B831B0CAB8232B111
:104BE00005F1160105F1180090472B8B6B82A37815
:104BF00003F07F03A370C1E7500800202DE9F047C0
:104C00000D7815F0700F88B003D1002008B0BDE812
:104C1000F087C32304460D4600F07EFE0028F4D042
:104C20005D4B6269012610219A42A6702170ECD872
:104C300081236218A3702169A06801F07FFA00281F
:104C4000E3D02169A06801F02DF90746A068394634
:104C50002430052201F0B8F880460028D5D04FF462
:104C60000072002109F08AFD08E0F119006842464F
:104C700001F078FF0136F6B20028C6D0A0680279AC
:104C8000B242F2D8636921782669266203EB422397
:104C90006361002974D124300122A16901F094F8E4
:104CA0000028B2D0A68806F00F0610EB4616ACD04E
:104CB0001023F372B26830687168F368B6F8149024
:104CC000B6F81AA06F460FC730697169B269F36907
:104CD00008AE0FC74FF02E084FF02033216AA068AE
:104CE00006F8208DCDF80530CDF80130ADF809304B
:104CF00001F0D8F8A3680146012203F1240001F075
:104D000063F88646002880D03746ADF81490ADF899
:104D10001AA00FCFCEF80000CEF80410CEF808206D
:104D2000CEF80C300FCFCEF81000CEF81410CEF81D
:104D30001820CEF81C302B6A8DF801801A0C3546ED
:104D4000ADF81A30ADF814200FCD0EF12006CEF8D4
:104D500020007160B260F3600FCD30617161B261AB
:104D6000F361A46804F1240001F074F800283FF412
:104D70004CAF04F50C7008B0BDE8F04701F06AB81C
:104D800013B10023236163612046FFF75BFE002817
:104D90003FF43BAFA0687EE7FFFD1F002DE9F04127
:104DA000064692B03478019200208DF824008DF8E8
:104DB000250024B90D46097811F0700F03D10020A9
:104DC00012B0BDE8F081144612782F2A2DD00DF1D3
:104DD000040803AF002B53D042463946204600F06A
:104DE000F5FB3A46294601230028E8D0019C2478A7
:104DF0003046002C61D000F08FFD3A46294620B99C
:104E00003046FFF7FBFE0028D9D035460FCD09AC60
:104E10000FC40FCD0FC433782A682260002B48D10D
:104E200000233370019C09ADD6E701340194227848
:104E30002F2AFAD0AD680093242209A8002109F096
:104E40009DFC0B95EA79009B102A3ED0202AB6D112
:104E500040228DF82420012209AD8DF826200DF185
:104E6000040803AF63B1B7E70FCD0FC40FCD0FC474
:104E700033782A682260C3B90023019C337009ADDE
:104E800042463946204600F0A1FB3A462946012316
:104E9000002894D0019C2478304674B100F03CFD89
:104EA000354609AC00288AD0DEE73046FFF7CAFD58
:104EB000E2E73046FFF7C6FDB2E73A4629463046FC
:104EC000FFF79CFE12B0BDE8F08120228DF824206F
:104ED000C1E700BF2DE9F041064692B03478019257
:104EE00000208DF824008DF825002CB91F460B7882
:104EF00013F0700F0D4603D1002012B0BDE8F08111
:104F000013782F2B144624D10134019494F8008097
:104F1000B8F12F0FF8D0B8F1000F45D0AD6809A84F
:104F20002422002109F02AFC0B95EB79102B37D0B5
:104F3000202BE1D140238DF82430012309AD8DF8D9
:104F4000263006E03046FFF77DFD0023019C3370DC
:104F500009AD01AA03A9204600F038FB03AA29469F
:104F600001230028C8D0019C247830467CB100F091
:104F7000D3FC354609AC0028BED00FCD0FC40FCDF1
:104F80000FC433782A682260002BDED0DAE73B4674
:104F900003AA2946304600F0BFFC12B0BDE8F081FC
:104FA00020238DF82430C8E7AC68242241463046DF
:104FB00009F0E4FBB460E379102B06D0202B07D175
:104FC000402333700120B07097E720233370F9E756
:104FD000404692E770B504780CB1002070BD0546DC
:104FE0000E462422214609F0C9FBAE60F379102B4E
:104FF00009D0202B05D1012440232B70AC70204612
:1050000070BD204670BD012420232B70AC7020465B
:1050100070BD00BF2DE9F04F0F46017883B0054603
:1050200011B18378DC0708D46B784FF0FF3043F080
:1050300002036B7003B0BDE8F08F0B07914600F1DF
:105040008580880608D5AA686B691289C3EB42136C
:105050009BB2994528BF9946B9F1000F00F09480A2
:105060006B698A064E464FF0000805F1100AC3F33B
:10507000080B3DD5AA68116A01EB5321BBF1000F63
:1050800050D1B6F5007F4DD3D36A99424AD0B6F5D8
:10509000806F64D328788006C6F3472B06D4107936
:1050A000C8EB0000C0B2834528BF834699424FEA4F
:1050B0004B240BD85B44994208D202F124000191A1
:1050C00000F0C8FE0028AFD0AA68019910685B46BE
:1050D0003A4601F023FC0028A6D06B69361B234416
:1050E00027446B6150D029788A06C3F3080BC1D4DA
:1050F000A86890F8058008EA5328BBF1000F2CD16E
:10510000B8F1000F29D1002B33D14C064CBF016AF6
:10511000296A296100F0C6FEAA6808EB0001BBF10C
:10512000000FAED002F12400002200F04DFE002856
:105130003FF47AAFCBF50074B44228BF344600EB9D
:105140000B012246384604F0E1FCC6E7EB696A69C8
:105150009B1A994528BF99467EE72969DAE71068C6
:105160003A4601F0C5FC00283FF45EAF4FF40074EE
:10517000B3E75246296900F09BFE0028FFF654AFC2
:1051800008D0A8682969C5E70026C6EB090003B066
:10519000BDE8F08F2B7813F0700FF6D144E700BF15
:1051A00070B582B001220DF1070104464669056918
:1051B000FFF730FF012805BF9DF8070066614FF03B
:1051C000FF30256102B070BD30B54369C3F34315AC
:1051D00083B0044605B189B901220DF107012046CB
:1051E000FFF718FF40B201280BD163691F336361D9
:1051F000A068303000EB451003B030BD2033436170
:10520000F6E7002003B030BD2DE9F04103780769CF
:10521000044693B142698A420E4636D021B92161D3
:1052200066610120BDE8F08118070AD499060BD504
:10523000A3681B89B6EB431FF2D927610020BDE8A4
:10524000F081E1698E42F8D8D4F808E09EF8065063
:10525000511E05F10900751EC140C540A94200D884
:10526000B2B95B064CBFDEF82030236A236104F13B
:1052700010084246002DD3D02169A06800F018FE26
:10528000002805F1FF35F4DCD7E70120BDE8F08107
:105290006D1AECE72DE9F0418846154600212422DD
:1052A00004461E469DF8187009F068FAD8F8080000
:1052B000D8F82030E36005F00F02520100F1300110
:1052C0001144A060A580CB7A1B0713D4831893F8F0
:1052D0003B5005F017052570CB7AE77013F0180FD7
:1052E00004BF45F00805257016F0320F06D015F002
:1052F000110F03D000202070BDE8F08106F00F05EB
:10530000A5700244C36AA361B2F84410B2F84A30EF
:10531000F70643EA014107D42162D36CE361B30687
:1053200007D40120BDE8F08151B965F07F05A57073
:10533000F5E7E1692046FFF767FF0028F1D1D9E7DB
:1053400000F0CCFF0028D5D0A578EEE738B503787B
:10535000B3B190F90230002B044613DBA56805F1C8
:10536000240000F077FD28B9637843F001036370EF
:10537000002038BD05F50C7000F06CFD0028F3D05E
:10538000012038BD8068A1692430012200F01CFD95
:105390000028E9D0A38803F00F035B01C518E3D010
:1053A000C35CE52BE0D023780E4A1B0744BFE369BA
:1053B000EB61236A12686B831B0CAB8232B105F17F
:1053C000160105F1180090472B8B6B82A378A56816
:1053D00003F07F03A37005F1240000F03BFD0028DB
:1053E000C2D0C7E7500800202DE9F84F03781E0708
:1053F00004466ED583789D076BD55B070F469046B4
:1054000000F1CB806369DA43904562D8B8F1000FB0
:1054100000F0B48046464FF0000932E0002940F029
:105420008180216A002900F08880216100F03AFD26
:105430000146B6F5007F54D3B6F5806F65D3A268F8
:105440001379D06A5B1BDBB2C6F34725AB4228BF9A
:105450002B4681424FEA432508D81844814205D2A1
:1054600082F824904FF0FF30D062A26810683A466C
:1054700001F006FC68B36369761B2B442F4463611B
:105480007CD0A0682169457915EA5325C3F3080A41
:1054900034D1BAF1000FC1D000F004FD0146CAF5C5
:1054A0000075B54228BF35460122A068243000F0BF
:1054B0008BFC70B150442A463946AA4404F026FBBE
:1054C000BAF5007FD7D1A068243000F0C3FC0028D3
:1054D000D1D1637843F0010363704FF0FF30BDE832
:1054E000F88F6369E269B6F5007F354628BF4FF44F
:1054F0000075934234BF01220522D6E700F0D2FCAA
:105500002918BAF1000F94D0C9E7A368DA6A91426A
:1055100021D018683A4601F025FB0028D9D04FF475
:105520000075A8E704F1100B5A4600F0C1FC0028F2
:10553000CFDB17D0A068216978E7A37863F07F03F9
:10554000A37004F1100200F0F9FD0028C1D0216918
:105550002162A0686AE783F824904FF0FF32DA6294
:10556000A368D6E7A3782169A06863F07F035A4651
:10557000A37000F0E3FD0028DCD1AAE7E2699A42BB
:1055800012D2A278E36142F08003A3701A0701D51A
:1055900023788BB94046BDE8F88FE169FFF734FE08
:1055A00000287FF42FAF94E7074B1B6853B1A37813
:1055B00043F08003A370E9E72046FFF743FA002891
:1055C000E8D186E7A378E1E7500800202DE9F04F05
:1055D0000378202B03D110F8013F202BFBD08860EB
:1055E0000378002B00F003812F2B2FD05C2B22D0CF
:1055F000A3F12204E4B21D2C20D9DFF810E2461CEE
:1056000000247C2BA3F12005374614D05E2D12D840
:1056100016F8013BA3F12205EDB20134002B00F096
:10562000CF802F2B13D05C2B2EFA05F703D01D2D26
:10563000E7D8FF07E5D50020BDE8F08F734D25FAC8
:1056400004F4E407D9D50020BDE8F08F0024061942
:1056500033461F4613F8015B202DFAD02F2DF8D0CA
:1056600017604CB1324612F8013D2E2B02D0202B90
:1056700040F0A980013CF6D14FF0FF35234601F1FF
:105680000D024FF020374B60C1F80D70461E576079
:10569000C2F80770002200E0013216F8013F2E2BFD
:1056A000FAD0202BF8D0B2FA82FC6E1C4FEA5C1CB8
:1056B0000CD0475D2E2F00EB050604D106E016F84E
:1056C000017D2E2F02D015F1FF35F8D2A2424FF006
:1056D000000980F291804E46CA4607274FF008081D
:1056E00025E02E2B47D0222B0BD07C2B09D0A3F109
:1056F0002A0EBEF1050F48D9A3F13A0EBEF1050FEF
:1057000058D8954239D0B74229D34FF0000C5F23C7
:1057100006F1010E01EB060B5FFA8EF6062E8BF8F2
:105720000D3000D80E730132A24207DA835C202BC1
:10573000D7D10132A2424FF0000CF7DB4B7B202B7C
:105740003FF479AFBCF1000F47D01AEA090F18BF38
:105750004FF0020981F800900120BDE8F08F0A2F78
:1057600037D0954235DB2A460A2708264FF0100825
:105770004FF0000CD7E79542DBD10A2F29D02A46FB
:105780000A2708264FF01008CDE72D2BB9D1A3F139
:10579000210EBEF15D0FB4D89542EED0B742DED3F4
:1057A000A3F1610EBEF1190F28D8203BDBB248EA05
:1057B0000909ADE7A3F15B0EBEF1020FA1D9E6E73F
:1057C000176006194EE7FF2C3FF735AF651E2346DD
:1057D00055E74B7B202B3FF42EAF0B7B0B44012076
:1057E0007E24312208705C739A73BDE8F08F1060DC
:1057F0001C464FF0FF3542E7CA469FE7A3F1410E32
:10580000BEF1190F98BF48EA0A0A81E70101003585
:105810002DE9F8430D7B0E46044602274FF07E0823
:105820007068B1683B189BB240B1084411F8012B75
:1058300003EB4313534088429BB2F7D1032D03F08F
:105840000F0228BF0325291D092A8CBF02F137004A
:1058500002F13000C9B2EA1C3144D2B29542487319
:105860004FEA23134CD203F00F0109298CBF01F139
:10587000370001F13000B118AA1CD2B2954248732A
:105880004FEA23133DD203F00F0109298CBF01F128
:10589000370001F13000B1186A1CD2B2954248734A
:1058A0004FEA23132DD2DBB2092B8CBF37333033B1
:1058B0003244DBB22946537373182046002183F823
:1058C0000D80FFF7A1FC06F10D0901212046FFF72D
:1058D0007BFC0B2203460146A8B193F800E0484642
:1058E000BEF1000F15D0DB7A1B07EED408F0B0FE36
:1058F0000028EAD10137BFB2642F91D1BDE8F88307
:1059000003252946D8E76078B0FA80F04009BDE861
:10591000F8830120BDE8F8832DE9F04F0C7814F0EE
:10592000700F8BB001D004781CB100200BB0BDE823
:10593000F08F1478D2F804B0A4073DD14FF00109DC
:105940000E4692460990002130460F460893FFF715
:105950005BFC0AF10D03079703973C46B846069790
:105960000593756901213046C5F34F15FFF72CFCEF
:10597000002800F09E800378E52B36D0002B34D031
:105980004C4538BF00242E2B2CD0C27A0F2A3AD097
:10599000120727D4B8F1000F40F0A8810B22059917
:1059A00008F056FE0028DCD19AF80030DB0740F101
:1059B000EB8101230693D4E79C4D0BF10C04A5FB6E
:1059C00004494FEA990909F101095FFA89F9B7E732
:1059D000039A013AD2B29342039203D1437B079ACE
:1059E0009A421BD04FF00008BBE7002C08BF2F469F
:1059F0004C453CBF0134E4B2002B5ED0E52BC2D154
:105A00004FF00008ADE7B8F1000FE1D15906A8D575
:105A100003F01F08437BCDF80C800793039B013BE9
:105A200003EB430503EB8505AB45DBD9C5EB0B0C5D
:105A30000023049018E0DAF80800D2B2A2F1410E77
:105A4000415CBEF1190F98BF2032A1F1410E98BF01
:105A5000D2B2BEF1190F9CBF2031C9B29142C1D15F
:105A600001330D2B3FF47DAFDAB2042A03EB0501BD
:105A70000DD90A2A17D904985A1C00EB42029288C1
:105A800063450BD0FF2AD6D94FF0000869E7049A86
:105A900002EB43026345B2F80120F3D1002A18BF9C
:105AA0004FF000085DE704985A1E00EB4202D288CE
:105AB000E6E77378002B7FF438AF089B03F04203CE
:105AC000422B7FF432AF002C18BF3D464C4503D328
:105AD0001AE0DCB2A14517D900213046FFF774FB6C
