:1000000000800020BD01000045D40000FDD30000A9
:10001000FDD30000FDD30000FDD30000FDD30000A0
:10002000FDD30000FDD30000FDD3000045D4000047
:1000300045D40000FDD300003DF000008DF200002B
:1000400045D4000045D4000045D4000045D400004C
:1000500045D4000045D4000045D4000045D400003C
:1000600045D4000045D4000045D4000045D400002C
:1000700045D4000045D4000045D4000045D400001C
:1000800045D4000045D4000045D4000045D400000C
:1000900045D4000045D4000045D4000045D40000FC
:1000A0002D4A000045D4000045D4000045D400008E
:1000B00045D4000045D4000045D4000045D40000DC
:1000C00045D4000045D4000045D4000045D40000CC
:1000D00045D4000045D4000045D4000045D40000BC
:1000E00045D4000045D4000045D4000045D40000AC
:1000F00045D4000089F7000045D40000B5F80000A1
:1001000045D40000E1F9000045D4000045D40000CA
:1001100045D4000045D4000045D4000045D400007B
:1001200045D4000045D4000045D4000045D400006B
:1001300045D4000045D4000045D4000045D400005B
:1001400045D4000045D4000045D4000045D400004B
:1001500045D4000045D4000045D4000045D400003B
:1001600045D400009DDB000045D4000045D40000CC
:1001700045D4000045D4000045D4000045D400001B
:1001800045D4000045D4000045D4000045D400000B
:1001900045D4000045D4000045D4000045D40000FB
:1001A00045D4000045D4000045D4000045D40000EB
:1001B00045D4000045D40000C9ED0000564B4CF278
:1001C000205210B51A804DF628121A8000BF00BFC9
:1001D00000F0BAFB514B4FF010621A60504A9A601F
:1001E000504ADA60504A136813F4807304D14F49BF
:1001F0000B604FF4A85313604D4B1A78110703D5C9
:100200001A7842F008021A704A4B4B492A221A7097
:100210004A4A4B4B8B4204D252F8040F43F8040B6A
:10022000F8E7484B484900228B4202D243F8042B9E
:10023000FAE74649464A002352F8230041F82300D2
:1002400001336F2BF8D1434B434A802103F8011B44
:100250009342FBD1414B3D4A1A60414B8A221A70AE
:10026000A3F5805324225A70A0221A709A7992071B
:10027000FCD59A79D406FCD43A4A937903F00C035E
:10028000082B384BF9D103221A7140225A719A79FE
:100290009006FCD5334A9179324B4906FBD5324A58
:1002A000324911600221516020221A709A7902F0BD
:1002B0000C020C2AFAD12E4B2E4A1A602E4B4BF60A
:1002C0007F321A6000225A60072243F8042C2B4A1E
:1002D000C3F80C2D62B60DF0D7F9144B1B68DA0782
:1002E00005D527480DF0BEF9264B274A1A60274B43
:1002F0001B785B0609D5234C234B22689A4204D114
:100300001F480DF0AFF90023236010F0C7FE0DF079
:100310009DF80FF097F9FEE70E200540308004406D
:10032000823F04000100002B10D0034014D0034092
:1003300002D0074000E00740C8FFFF1FD89201002D
:1003400020EFFF1FC8FFFF1F181F002000EAFF1F3C
:100350000000000000E400E05FE400E008ED00E0E1
:100360000050064000400640448004400000131145
:1003700004800440C010050014E000E000002020CC
:100380003979FC5A1CE00340A5C3945A00F0074099
:10039000FFFFFFFFFFFFFFFFFFFFFFFFFFFFFFFF6D
:1003A000FFFFFFFFFFFFFFFFFFFFFFFFFFFFFFFF5D
:1003B000FFFFFFFFFFFFFFFFFFFFFFFFFFFFFFFF4D
:1003C000FFFFFFFFFFFFFFFFFFFFFFFFFFFFFFFF3D
:1003D000FFFFFFFFFFFFFFFFFFFFFFFFFFFFFFFF2D
:1003E000FFFFFFFFFFFFFFFFFFFFFFFFFFFFFFFF1D
:1003F000FFFFFFFFFFFFFFFFFFFFFFFFFFFFFFFF0D
:10040000FFFFFFFFFFFFFFFFFFFFFFFFDEF9FFFF23
:1004100010B5054C237833B9044B13B10448AFF33E
:1004200000800123237010BDC8FFFF1F00000000E3
:10043000D4920100084B10B51BB108490848AFF32E
:1004400000800848036803B910BD074B002BFBD0A0
:10045000BDE81040184700BF00000000CCFFFF1FA0
:10046000D4920100C8FFFF1F000000000020704769
:10047000704700BFF8B55548554D564C297803785C
:100480002278DFF868E1544F544E120442EA032305
:10049000FF222A700270802022708EF800003870CF
:1004A000B2794F480B4312F00C0FC36002D1B379FD
:1004B000DC063DD4494A9379C3F38103032B40D032
:1004C000464B9A79C2F38102022A42D0434A937979
:1004D000C3F38103022B53D0404A9379C3F38103C2
:1004E000022B61D03D4A9379C3F38103012B51D094
:1004F0003A4A9379C3F38103012B5CD0374B9A7945
:1005000012F00C0F03D19A79D20600D49B79354DA5
:10051000354B2A7853F82240D4B1236820469B6893
:1005200098472B7804EB83046468002CF5D1F8BD60
:10053000B3799806EBD5294A9379C3F38103032B4A
:10054000BED19379D906BBD493799B06DFD4B7E7A4
:10055000F8BD9A79D706B9D49A799606B6D559785E
:1005600001F0020101F0FF020029AFD120211A7031
:100570001A461970937903F00C030C2BFAD1C6E7D5
:100580009379DD06A8D493799C06A5D4537898076F
:10059000BDD5A1E79379DF06AAD593799E06A7D4A6
:1005A00053789D07B3D4A3E79379D9069AD45378A7
:1005B0009B07ACD496E79379DC069FD59379980690
:1005C0009CD453789907A2D598E700BF06C007408E
:1005D00005C0074007C0074009C00740004006406B
:1005E000F01E00205C1900201C19002008C00740E4
:1005F00090F92410104B03604B1C06D0F0B40F4E42
:1006000056F82130984201D0F0BC70470C4F57F893
:10061000213033B18D0000245A1953685460002BE7
:10062000FAD1084C23780022013B237047F821209F
:1006300046F82120E8E700BF008301003C190020B4
:100640001C1900205D19002038B590F924506B1C4E
:100650001BD00E4B0E4953F825400E4BEDB24FF018
:10066000FF320D701A6084B1AD0002E02C44646862
:100670005CB194F82530002BF8D0236820462C4438
:100680001B6898476468002CF3D138BD1C19002002
:100690005C19002090E9FF1F704700BF90F92410FB
:1006A000104B03604B1C06D0F0B40F4E56F82130AF
:1006B000984201D0F0BC70470C4F57F8213033B14D
:1006C0008D0000245A1953685460002BFAD1084C4D
:1006D00023780022013B237047F8212046F821208F
:1006E000E8E700BF008301003C1900201C1900202E
:1006F0005D19002090F92410104B03604B1C06D0AC
:10070000F0B40F4E56F82130984201D0F0BC70473B
:100710000C4F57F8213033B18D0000245A1953681B
:100720005460002BFAD1084C23780022013B23703F
:1007300047F8212046F82120E8E700BF00830100A8
:100740003C1900201C1900205D190020704700BFD3
:1007500010B5002104460EF0AFFA98B194F88A3132
:10076000B3B194F8883194F889210133592BC8BF6B
:100770000023934207D09A1D04EB8202DBB2506043
:1007800084F8883110BDD4F88C310133C4F88C3131
:10079000BDE810400EF04CBA10B5034B03600446A0
:1007A00004F0B0FD204610BDDC820100836C13B163
:1007B000184606F0D7BFC06C08B104F0DBBF4FF09D
:1007C000FF3070472DE9F0410E4680460CF044FFA3
:1007D000234C206009F0E8F90546206809F0C0F9CB
:1007E0000746206809F0AAF9A5F2BC739BB27F2BDB
:1007F00002D8FAB20C2A28D90023A8F800302068C1
:1008000009F0C0F90746206809F074F90546206828
:1008100009F082F9FBB2172B13D8EBB23B2B10D89F
:10082000C3B23B2B0DD8FB026D0103F4FF2305F48B
:10083000FF552B43C0F3460003439BB23380BDE812
:10084000F08100233380BDE8F081C0B21F28D3D8E7
:100850007F0107F4FF57384340EA43239BB2CCE7BC
:100860001815002010B504460EF066FA204610BD9B
:10087000826C62B1137803F0080303F0FF0003B346
:10088000D3695069181A48BF6FF000407047C16CB7
:10089000C1B191F8313003F0080303F0FF0083B1D8
:1008A000D1E90423D1E90001101A30B463EB01014E
:1008B00000256FF000448D4208BF844200D22046DC
:1008C00030BC70470846704700B5836C83B063B195
:1008D000184601220DF1070106F07CFE01280CD11B
:1008E0009DF8070003B05DF804FBC06C28B101223D
:1008F0000DF1070104F064FEF0E74FF0FF30F1E77F
:10090000836C13B1184607F001B8C06C08B105F04C
:100910000BBB704700B5836C83B08DF8071043B1F3
:10092000184601220DF1070107F04AF803B05DF8FF
:1009300004FBC06C0028F9D001220DF1070105F07D
:100940001FFD03B05DF804FB404A414B10201080AE
:100950001B781B072CD5F0B53E4E3F4D3F4C3178F0
:100960002B7822783E4FDFF810E1824042EA0323E1
:100970000B43FF22802132702A7022708EF8001003
:100980003970DF07374A0CD51A239360364D374C40
:100990003748384900232B70D360237003700B70E5
:1009A000F0BD1E0705D4DD0606D504239360EDE7F0
:1009B000704721239360E9E79C0604D4590604D5C7
:1009C00016239360E2E79060E0E71F0602D5092353
:1009D0009360DBE7DE0502D50A239360D6E79D0529
:1009E00002D50D239360D1E75C0502D50B239360FC
:1009F000CCE7180502D51E239360C7E7D90402D5BA
:100A000002239360C2E79F0402D507239360BDE7EA
:100A10005E0402D506239360B8E71D0402D51523B2
:100A20009360B3E7DC0302D524239360AEE7980319
:100A300002D522239360A9E7D90202D5252393602A
:100A4000A4E79B0244BF232393609FE70020054057
:100A500002D0074005C0074006C0074007C0074056
:100A600009C00740F01E002000C0074001C0074039
:100A700002C0074003C0074008C00740002976D0E5
:100A80002DE9F04F0C469100631883B05D68002D8E
:100A900057D06B185E68002E50D073185F68002F17
:100AA00049D07B18D3F80480B8F1000F3CD008EB94
:100AB0000103D3F80490B9F1000F32D009EB010320
:100AC000D3F804A0BAF1000F27D00AEB0103D3F842
:100AD00004B0BBF1000F18D00BEB01035B6863B1EE
:100AE000194401934968FFF7C9FF019B93F825203A
:100AF0001AB11A681846536898479BF8253023B1F5
:100B0000DBF8003058465B6898479AF8253023B1E7
:100B1000DAF8003050465B68984799F82530002B8A
:100B200035D198F8253063BB97F825301BB13B6869
:100B300038465B68984796F82530CBB995F825304C
:100B400063B994F8253013B903B0BDE8F08F23687A
:100B50005B68204603B0BDE8F04F18472B68284675
:100B60005B68984794F82530002BEDD0EFE770478D
:100B7000336830465B68984795F82530002BE0D005
:100B8000ECE7D8F8003040465B689847CCE7D9F8E6
:100B9000003048465B689847C3E700BF90F92420BF
:100BA000531C26D01B4B2DE9F04153F82240D2B202
:100BB000ECB19300E1184D68B5B1E9184E6866B123
:100BC000F1184F6837B13B445968FFF757FF97F862
:100BD0002530A3B996F8253063B995F825301BB1B7
:100BE0002B6828465B68984794F8253063B9BDE8C0
:100BF000F0817047336830465B689847EDE73B68A3
:100C000038465B689847E5E7236820465B68BDE89F
:100C1000F04118471C1900202DE9F843554C94F871
:100C2000883194F88921D9B2D3B2994238BF5A3168
:100C3000CB1A0F2B40F384804F4DD4F88491DFF80A
:100C4000348105F580570026B9F1000F35D04FF4F7
:100C50008072314628460CF017F848460DF0E8FF40
:100C6000C4F8846194F8893194F88821DBB2934206
:100C70004CD00133592B86BF4FF0000E73465FFAFC
:100C800083FE063304EB83034FF48072D3F80490A1
:100C9000C4F8849109F10401284684F889E10BF035
:100CA000F3FFB9F1000F04D048460DF0C1FFC8F8BA
:100CB000846105F50075AF4232D094F8893194F81B
:100CC0008821DBB293424ED00133592B86BF4FF0BF
:100CD000000E73465FFA83FE063304EB83034FF482
:100CE0008072D3F80490C4F8849109F10401284675
:100CF00084F889E10BF0C8FFB9F1000FADD194F889
:100D0000893194F88821DBB29342B2D128464FF45E
:100D10008072002105F500750BF0B6FFAF42CCD113
:100D2000164B986C70B14FF48052134906F048FE90
:100D3000013010D0124A136808331360BDE8F883FD
:100D4000BDE8F883D86C0028F4D04FF480520A49EB
:100D500005F016FBECE7012114200CF0E9FA094B31
:100D6000094A1A60E6E74FF48072002128460BF02A
:100D70008BFF77E72C1500206C0000201800002066
:100D8000281500200CED00E00400FA0508B508491C
:100D9000084A094B098811800848002283F88A21F3
:100DA00004F0B0FA6420BDE808400CF0CFBD00BFED
:100DB000081D0020E01C00202C1500201800002039
:100DC0002DE9F04F9BB00CF047FCC84DC84C286093
:100DD00008F0C6FE2368984200F0BD812868C54E21
:100DE000DFF84C83DFF84C9308F0BAFE20602868E7
:100DF00008F0DAFE2368C0490246C04810F05EFFE2
:100E0000D6F87874C8F80090002F00F04E8106AC38
:100E100007F23C41204600270123B84A8DF818709C
:100E20008DF8197006F0AAFA152000210CF052FD79
:100E3000D6F87804AF4B002800F08481AF4907F062
:100E400037FF286808F07AFE8246286808F09AFE84
:100E50008346286808F04EFE0390286808F05CFE80
:100E6000039B009301905B465246A549A54810F0AC
:100E700025FF00270825C8F8009015200CF03CF944
:100E80000FF0D4FC4FF06A510FF024FD01463846B4
:100E90000FF018FC074602200CF058FD013DECD184
:100EA000D6F87854934B002D00F0118105F23C48A0
:100EB000404606F0B7F92946404606F06BFB46234C
:100EC000914A8C49204604F0EFFA189B002B00F061
:100ED000AF818C4810F054FF8A49024620460EF03C
:100EE000DDF918982C238DF81430002800F0AC811F
:100EF000012205A906F064FD844D05F1080815F8E6
:100F0000011F00230A2220460EF05AFAA845F6D106
:100F100018982C238DF81730002800F02381012227
:100F20000DF1170106F04CFD794B18680FF028F809
:100F3000022502460B46009520460EF081FA1898CD
:100F40002C238DF81630002800F0918101220DF13C
:100F5000160106F035FD38466E490FF0BBFC4FF028
:100F600078510FF0B7FC05460FF00AF80227024649
:100F70000B46009720460EF063FA18982C238DF844
:100F80001530002800F0698101220DF1150106F0ED
:100F900017FD614810F0F4FE5F49024620460EF04E
:100FA0007DF920460EF0E6F928465C490FF030FE48
:100FB000002840F06681204604F0A4F9DFF878812B
:100FC000CDF81880204604F09DF9D6F87804494BF6
:100FD000002800F02481494907F06AFE504F494A31
:100FE0004449504DDFF854B1DFF854A1C2232046E4
:100FF00004F05AFA2146384604F036F92046CDF876
:10100000188004F07FF93F4810F0BAFE01463D48D1
:101010000DF036FC44480EF0ADF964200CF096FC5F
:10102000B94622E007F044FEC223364A3149204641
:1010300004F03AFA21463A4804F016F92046CDF871
:10104000188004F05FF92F4810F09AFE01462D48F1
:101050000DF016FC34480EF08DF90A200CF076FCE9
:101060002B68B3F57A7F00F3CB80BB6C2F49254802
:10107000002B40F08180D9F84C20002A7CD12B68CD
:1010800001331A462B6010F019FED6F878341B494C
:10109000184A1846002BC5D1D2F87C341749184697
:1010A000002BC1D005F01CFFBEE7D6F87C1406ACBF
:1010B00000293FF4B9AE01F58861204601230F4AAB
:1010C0008DF849708DF84A7005F02EF8ACE6D3F82B
:1010D0007C54002D3FF4F3AE05F58868404604F0DB
:1010E000F5F92946404604F057FAE8E618150020BD
:1010F000E81700207010002024830100C016002093
:10110000308301007017002048830100331700204E
:1011100040170020CDCCBC4008F0FF1F000040402D
:1011200018000020BC1600206CF5FF1F888301000A
:1011300018190020C5070000DC8201000CED00E05A
:101140000400FA05D3F87C0400283FF47AAE66491F
:1011500005F0C6FE75E6DFF8CC81DFF8CC91634E72
:1011600006AC61E6199800283FF4DEAE01220DF1CD
:10117000170105F005F9D7E65D485E4906685E4C43
:101180005E4D5F4A039303C9206095E80300A060A9
:1011900092E8030010250122A282E282E06025612C
:1011A00030460FF083FD3146A06130460FF08AFAD9
:1011B0000FF07CFDDFF874815249D8F80020E0611F
:1011C00003C95202039B6584022602F1240126848E
:1011D0006062A2626160D3B1214618462C2206F0FB
:1011E000EFFB092148480DF04BFBD8F800104748A9
:1011F0000EF068F845480EF0BDF81BB0BDE8F08F62
:10120000012114200CF094F8CBF800A02DE7F86C25
:101210000028E6D021462C2205F0B2F8E1E7D3F809
:101220007C0400283FF4DAAE2F4905F059FED5E6DC
:10123000199B002B7FF44DAE012114200CF078F89F
:10124000334B344A1A60B9E6199800283FF454AE7B
:10125000012205A905F094F84EE6199800283FF4FC
:1012600098AE01220DF1150105F08AF891E6199862
:1012700000283FF470AE01220DF1160105F080F850
:1012800069E62822244920460EF008F820460EF090
:1012900071F8204604F036F80027082515200BF0D9
:1012A0002BFF0FF0C3FA4FF06A510FF013FB01460A
:1012B00038460FF007FA074602200CF047FB013DC5
:1012C000ECD1164938460FF005FB4FF078510FF07E
:1012D00001FB13490FF09CFC00283FF46CAE47F271
:1012E00030500CF033FBD7E7C01600207010002000
:1012F000D417002094830100281800209C8301004B
:10130000A4830100AC8301007C8301006CF5FF1F06
:101310000CED00E00400FA0550830100CDCCBC4088
:101320000000404018190020C5070000C417002025
:1013300038B5144DFFF744FD134BD5F88401002454
:101340001C6018B10DF074FCC5F8844195F8894112
:1013500095F88831E4B29C420DD001345A2C28BF54
:101360000024A31D05EB830358680DF061FC95F87C
:101370008831A342F1D1E4B2012385F8894185F88F
:101380008A3138BD2C1500202815002030B51D4BA2
:10139000D3F8784495B014B304F23C45284605F0E0
:1013A00041FF2146284606F0F5F846236846164ACE
:1013B000144904F079F8129BFBB1292213496846BD
:1013C0000DF06CFF68460DF0D5FF684603F09AFFFC
:1013D0000F4B0093684603F095FF15B030BDD3F86E
:1013E0007C44002CE1D004F58865284604F06EF8B2
:1013F0002146284604F0D0F8D7E7139B002BDCD118
:10140000E6E700BF7010002048830100B4830100AC
:10141000DC8201002DE9F0438FB0044610F0B0FCEF
:1014200000B201281CDDB4F9003044F2537293423B
:1014300000F0878118DD44F65452934200F0D580C5
:1014400045F2532293422AD044F65212934207D1D6
:101450000BAAE01CC34910F057FCC34B0B9A1A604F
:1014600001200FB0BDE8F08344F24E4293420FD00A
:1014700044F252429342F3D10BAAE01CB94910F056
:1014800043FCBA4B0B9A1A6001200FB0BDE8F08301
:10149000B74B012201201A600FB0BDE8F0830AADFE
:1014A00009A908AA05ABE01C0395029101920093DB
:1014B00007AA06ABAF4910F027FCAF4B079D596850
:1014C00018689A680A9EDDF824E0DDF820C0A5F5CA
:1014D000FA65ADB20BAF2CB207C7069F05991E3453
:1014E00015F0030F4FEAA408FDB240F03981A34B79
:1014F000022D8CBF1F460027A148A24BC8EB040455
:1015000000FB08F06A1E03FB0400002A00EB07033F
:1015100047DD9DF82C409948012A00FB043340D058
:101520009DF82D40022A00FB04333AD09DF82E404E
:10153000032A00FB043334D09DF82F40042A00FB1B
:1015400004332ED09DF83040052A00FB043328D008
:101550009DF83140062A00FB043322D09DF832402A
:10156000072A00FB04331CD09DF83340082A00FBF7
:10157000043316D09DF83440092A00FB043310D000
:101580009DF835400A2A00FB04330AD00B2A9DF847
:10159000364018BF9DF8372000FB043318BF00FB0E
:1015A00002335FFA8EF2C2EB02125FFA8CF04FF454
:1015B0006164920004FB0022704D734C7348C9B201
:1015C000013952FA86F205FB0122134412212360ED
:1015D0000DF056F921686E480DF074FE6C480DF060
:1015E000C9FE01200FB0BDE8F0830AAD09A908AA21
:1015F00005ABE01C039502910192009307AA06AB8C
:101600005C4910F081FB5C4B079F9A681868596829
:101610000A9EDDF824E0DDF820C0A7F5FA67BFB226
:101620000BAC3DB207C4069A059C1E3517F0030F9C
:101630004FEAA508D7B240F09080504B022F8CBFE4
:1016400099464FF000094E494E4BC8EB050501FB8A
:1016500008F17A1E03FB0510002A00EB090347DDA1
:101660009DF82C004549012A01FB003340D09DF82C
:101670002D00022A01FB00333AD09DF82E00032AE8
:1016800001FB003334D09DF82F00042A01FB003306
:101690002ED09DF83000052A01FB003328D09DF89C
:1016A0003100062A01FB003322D09DF83200072AC0
:1016B00001FB00331CD09DF83300082A01FB0033E6
:1016C00016D09DF83400092A01FB003310D09DF894
:1016D00035000A2A01FB00330AD00B2A9DF8360098
:1016E00018BF9DF8372001FB003318BF01FB023300
:1016F0005FFA8EF2C2EB02125FFA8CF04FF4616572
:10170000920005FB0022E1B21C4C1F4D52FA86F2FA
:10171000013904FB01241C4420462C600BF0A2FF7D
:101720000B211C480DF0ACF8214600230A22184872
:101730000DF046FE16480DF01DFE01200FB0BDE86D
:10174000F0830BAAE01C074910F0DEFA124B0B9A4B
:101750001A6001200FB0BDE8F0834FF0000972E776
:101760000027C9E6008401002CF0FF1F28F0FF1FAE
:1017700068000020E08301000C830100805101001B
:101780000085E2018033E10120150020048401007E
:101790006CF5FF1FF483010000F0FF1F2DE9F04FEF
:1017A000DFF86882974FD8F87854B1B000234FF42F
:1017B0007A7208978DF824308DF82C301A931B9389
:1017C0000A92002D00F08D8005F23C46304605F06F
:1017D00029FD2946304605F0DDFE01238A4A8B4962
:1017E0001CA803F061FE1CA908A803F03DFD1CA87D
:1017F0001C9703F087FD1A98002800F0C780002589
:101800002E468DF800604FF0000A4FF0FF0990B1AE
:1018100001221CA905F0DEFE012815D00AF1010302
:1018200030AA92441BB21D2B0AF8C09C15DC1A98F2
:101830009A460028ECD11B980028EFD001221CA961
:1018400003F0BEFE0128E9D19DF870200D2A08BFE3
:10185000534640F0B7801D2BE9DD013B9BB230AA17
:101860001A4402F8C06C9DF800202F2A04D0012BE6
:1018700002D96846FFF7CEFD1A98B8B10378190768
:101880000DD408A803F03EFD002D39D1012408A88D
:10189000089703F037FD204631B0BDE8F08FC369EB
:1018A00042699A1AADD4002AABD1EAE71B9B002B00
:1018B000E7D093F831201207E3D5D3E904ABD3E99D
:1018C0000023BAEB02026BEB03034FF0000B6FF047
:1018D000004A9B4508BF924538BF5246002A90D126
:1018E000CFE7D8F87C54002D3FF477AF05F5886634
:1018F000304603F0EBFD2946304603F04DFE6CE721
:101900000B2143480CF0BCFF00230A22214641482A
:101910000DF056FD3F480DF02DFDD8F878543B4BA7
:1019200035B305F23C46304605F07CFC294630468E
:1019300005F030FE6323344A34491CA803F0B4FD9B
:101940001CA908A803F090FC1CA81C9703F0DAFC63
:101950001A9B83B32146184605F03AFF02222E490E
:1019600008A80DF09BFC08A803F0CCFC01248EE72E
:10197000D3F87C54002DDDD005F58866304603F0A1
:10198000A5FD2946304603F007FED3E71B9D002D39
:101990007FF435AF142121480CF072FF1D480DF083
:1019A000E9FC0D221E491F480DF078FC1D482C460D
:1019B0000DF0E0FC6BE71B980028CFD0224603F027
:1019C000F1FECBE730AB03EB0A01542A0AF1010325
:1019D00001F8C02C1BB20DD11A9A1AB15469013CFE
:1019E000012538E71B9A12B11468013CF8E74FF063
:1019F000FF34F5E71D2B3FF730AF0A2A3FF42DAF38
:101A000015E700BFDC82010018840100701000207F
:101A1000248401006CF5FF1F308401003484010030
:101A20004C8401008C17002038B5054608F0BCF83E
:101A30001E4C014620460DF045FC2D200CF0F4FF15
:101A4000284608F08DF8014620460DF03BFC2D207D
:101A50000CF0EAFF284608F071F8014620460DF028
:101A600031FC012112480CF00BFF284608F08AF8DF
:101A7000014620460DF026FC3A200CF0D5FF284602
:101A800008F038F8014620460DF01CFC3A200CF016
:101A9000CBFF284608F040F8014620460DF012FC26
:101AA0002046BDE838400DF065BC00BF6CF5FF1F57
:101AB0008483010010B500200BF0E4FB214C207062
:101AC00001200BF0DFFB607002200BF0DBFBA0704D
:101AD00003200BF0D7FB1C4BE07022681A60042037
:101AE0000BF0D0FB207005200BF0CCFB60700620C3
:101AF0000BF0C8FBA07007200BF0C4FB134BE07089
:101B000022681A6008200BF0BDFB114B18700920E9
:101B10000BF0B8FB0F4B18700A200BF0B3FB0E4B09
:101B200018700B200BF0AEFB0C4B18700C200BF058
:101B3000A9FB0B4B18600D200BF0A4FB094B1860A0
:101B400010BD00BF4417002028F0FF1F2CF0FF1F1E
:101B5000140000201C1800206C1700202415002001
:101B6000C817002024F0FF1F234B10B51968234C21
:101B700000202160C9B20BF0DBFB617801200BF083
:101B8000D7FBA17802200BF0D3FBE17803200BF008
:101B9000CFFB1B4B196821600420C9B20BF0C8FBB6
:101BA000617805200BF0C4FBA17806200BF0C0FB88
:101BB000E17807200BF0BCFB124B082019780BF0E2
:101BC000B7FB114B092019780BF0B2FB0F4B0A2021
:101BD00019780BF0ADFB0E4B0B2019780BF0A8FB1E
:101BE0000C4B0C2019780BF0A3FB0B4B0D20197834
:101BF000BDE810400BF09CBB28F0FF1F44170020ED
:101C00002CF0FF1F140000201C1800206C1700206F
:101C100024150020C817002024F0FF1F2DE9F84FDD
:101C2000054608460EF0FEFD01460EF04BFD04464B
:101C300028460EF0F7FD014620460EF04BFE014609
:101C400027480EF0FBFE4FF0010A4FF07E57814609
:101C5000D3460124002520460EF0E8FD49460EF04B
:101C600039FE06460EF0FCFF0EF0E0FD0146304660
:101C70000EF026FD394680460EF0CAFF4FF0874130
:101C800048B130460EF0C4FF28B130460FF046F898
:101C900047468246A346013445F10005002D08BFA2
:101CA000202CD8D10F4A104E1168104C1048114DFD
:101CB000114F0BF1FF331B030AF1FF3A03F47F23AB
:101CC000CAF30B0A43EA0A0321F0104111603360A2
:101CD00025600760136843F010431360BDE8F88F78
:101CE000001BB74B80F0024004F1024008F00240B4
:101CF00088F0024001000007010000472DE9F04F85
:101D00000546DFF84C828D4E8D4F98F800E02E602E
:101D1000FF2085F82400DFF83C92387859F820C07D
:101D20000023BEF1060F8DB00C4685F8253085F8EE
:101D300026309CBF88F800309E46BCF1000F00F0B2
:101D4000A8808C455BD06346810001E09C4256D060
:101D50000B445B68002BF9D1634603EB010ADAF808
:101D60000430002BF9D105EB010BCAF80440BEF199
:101D7000060F4FF0FF044FFA80FACBF804308DF8CD
:101D80002C4002968DF82D308DF82E3085F824A049
:101D9000644605D8002388F80030002C00F0A980A4
:101DA000A24226D0234601E0934222D00B445B6836
:101DB000002BF9D104EB010CDCF80440002CF9D124
:101DC000CCF804200CAB19440024431CBAF1FF3FAB
:101DD00041F8244C3B708DF82CA0029605D059494F
:101DE00051F82A3002AA934272D028460DB0BDE8BD
:101DF000F08F0130387028460DB0BDE8F08F002319
:101E0000FF21BEF1060F02968DF82C108DF82D30B3
:101E10008DF82E3001D888F800309445E9D063461B
:101E2000810001E09A42E4D00B445B68002BF9D1B9
:101E30008C44DCF804402CB1A4468C44DCF804400B
:101E4000002CF9D10CAB19444FFA80FE431CBEF1B3
:101E5000FF3FCCF804203B7041F8244C02968DF8EB
:101E60002CE0C2D0374951F82E3002AA9342BCD19F
:101E700059F82E304FEA8E0623B19A1953685460F0
:101E8000002BFAD10023387049F82E3041F82E305B
:101E9000ABE7B0B38100DFF8ACA049F8204005EB18
:101EA000010C00234AF82050BEF1060FCCF8043094
:101EB0004FFA80FA4FF0FF0C02968DF82D308DF816
:101EC0002E3085F824A08DF82CC07FF663AF64E730
:101ED00059F82A304FEA8A0623B19A195368546098
:101EE000002BFAD10023387049F82A3041F82A3003
:101EF0007BE7A0B1134B49F8202002AA43F8202029
:101F000060E71149019215200BF0DAFA0F4B98F8AF
:101F100000E0019A4FF4001119603878BAE70A49D5
:101F2000019215200BF0CCFA084B019A4FF40011E6
:101F3000196038784FFA80FA8100DBE700830100EE
:101F40005D1900203C1900207504000000E100E04C
:101F500094E9FF1F1C1900202DE9F0415F4D604CF2
:101F6000604E0BF047F904215F4809F073FB2A68C3
:101F700026600023637223612372E3600AB9A9E03B
:101F80001A465369002BFBD154610027574B544824
:101F90006761A780E780A772236002F035FB544A8F
:101FA0004FF0010E02F118013B4638461772D76018
:101FB000166082F809E01161174600E0396941F8BE
:101FC0002300517A4A4E01339942F7DC2968434B8A
:101FD00009B981E019464B69002BFBD14A61454D97
:101FE000454B2C600024284654619480D480947220
:101FF00082F88841136082F88941C2F8844182F8EE
:102000008A41C2F88C412C726A606C72EC602C744C
:102010000CF05EFE39493A4A3A4F3B4E28460FF0E3
:102020002BF83A4A3A4BD0683A4A1A600EF0FEFB57
:10203000394D38604FF0FF08384B85F825400127AF
:1020400085F824802E4A36496C632846AC6385F8AF
:102050003C402B6085F826700FF00EF8314B86F867
:10206000248086F82540264A2F493360304686F87A
:1020700026700FF001F82A4631462C482C4DFFF708
:102080003DFE1F4A2B4929480EF0F6FF2A4B1C4AF9
:102090001C714FF47A761C739E6028499C64184624
:1020A000DC641D600EF0E8FF254B264D83F8974455
:1020B000262683F89464C3F87844C3F87C44C3F8B4
:1020C0009844C3F89C540E4A1F491846BDE8F04195
:1020D0000EF0D2BF2C6058E71E6080E7DC1C0020A9
:1020E00050170020D08201008C1700203886010094
:1020F0002C15002014170020208301006508000023
:10210000FCEFFF1FD4170020F017002014F0FF1F72
:10211000281700201C860100CC160020E88601004C
:102120009D060000FC860100F5060000ECFFFF1F85
:10213000DC820100F1050000180000209907000072
:1021400070100020011001384D07000038B5EB4C2D
:1021500005460A21204602F0C5FD2046002102F076
:1021600099FB2046302102F095FB2046402102F0E9
:1021700091FB6021204602F08DFB204602F0C4FD59
:1021800020460A2102F0AEFD2046002102F082FB2B
:102190002046262102F07EFB2046002102F07AFB39
:1021A0006C21204602F076FB204602F0ADFD204671
:1021B0000A2102F097FD2046002102F06BFB204629
:1021C000282102F067FB2046012102F063FBF02189
:1021D000204602F05FFB204602F096FD20460A21D1
:1021E00002F080FD2046002102F054FB20462A2107
:1021F00002F050FB2046002102F04CFB002120465B
:1022000002F048FB204602F07FFD20460A2102F042
:1022100069FD2046002102F03DFB20462C2102F002
:1022200039FB20460F2102F035FB2221204602F027
:1022300031FB204602F068FD20460A2102F052FDE3
:102240002046002102F026FB20463C2102F022FB22
:102250002046442102F01EFB4621204602F01AFBD4
:10226000204602F051FD20460A2102F03BFD2046A7
:10227000002102F00FFB2046242102F00BFB204638
:10228000012102F007FB3721204602F003FB204624
:1022900002F03AFD20460A2102F024FD20460021EA
:1022A00002F0F8FA2046302102F0F4FA204600212C
:1022B00002F0F0FAA221204602F0ECFA204602F0E9
:1022C00023FD20460A2102F00DFD2046002102F0E8
:1022D000E1FA2046022102F0DDFA2046002102F058
:1022E000D9FA4321204602F0D5FA204602F00CFD2F
:1022F0004FF4C8700BF02AFB20460A2102F0F2FCD2
:102300002046002102F0C6FA20462E2102F0C2FA31
:102310002046192102F0BEFA1921204602F0BAFA2D
:10232000204602F0F1FC20460A2102F0DBFC2046A8
:10233000002102F0AFFAAD002046042102F0AAFA13
:10234000C5F30721204602F0A5FA05F0FC0120465E
:1023500002F0A0FA204602F0D7FC20460A2102F043
:10236000C1FC2046002102F095FA2046062102F029
:1023700091FA2046012102F08DFA3021204602F028
:1023800089FA204602F0C0FC20460A2102F0AAFC8D
:102390002046002102F07EFA20460A2102F07AFA55
:1023A0002046002102F076FA0021204602F072FA5F
:1023B000204602F0A9FC20460A2102F093FC2046A8
:1023C000002102F067FA20460E2102F063FA20464F
:1023D000002102F05FFA0821204602F05BFA204655
:1023E00002F092FC20460A2102F07CFC20460021EB
:1023F00002F050FA2046102102F04CFA2046FF214C
:1024000002F048FA3C21204602F044FA204602F04D
:102410007BFC20460A2102F065FC2046002102F0E8
:1024200039FA2046222102F035FA20467F2102F0B7
:1024300031FA7F21204602F02DFA204602F064FC9A
:1024400020460A2102F04EFC2046012102F022FA29
:102450002046242102F01EFA2046002102F01AFA3A
:102460000021204602F016FA204602F04DFC2046DC
:102470000A2102F037FC2046002102F00BFA204628
:10248000242102F007FA2046002102F003FA142169
:10249000204602F0FFF9204602F036FC20460A21D1
:1024A00002F020FC2046002102F0F4F920462A2107
:1024B00002F0F0F92046002102F0ECF9002120465C
:1024C00002F0E8F9204602F01FFC20460A2102F043
:1024D00009FC2046002102F0DDF92046202102F00F
:1024E000D9F92046002102F0D5F90021204602F05A
:1024F000D1F9204602F008FC012038BDFC1800206C
:1025000038B5304B304C1021054653F82000FFF70A
:1025100085FB2E4802F064FA2846FFF717FE227862
:102520002B48114601F0EEFC23680F2B0CD8DFE896
:1025300003F00C1014181C2024282C3034383C4094
:102540004408244B244A1A6038BD224B234A1A609F
:1025500038BD204B224A1A6038BD1E4B214A1A60F2
:1025600038BD1C4B204A1A6038BD1A4B1F4A1A60EE
:1025700038BD184B1E4A1A6038BD164B1D4A1A60EA
:1025800038BD144B1C4A1A6038BD124B1B4A1A60E6
:1025900038BD104B1A4A1A6038BD0E4B194A1A60E2
:1025A00038BD0C4B184A1A6038BD0A4B174A1A60DE
:1025B00038BD084B164A1A6038BD064B154A1A60DA
:1025C00038BD00BF14F0FF1F00F0FF1FFC180020F3
:1025D0002817002040170020BD549341103377C0C6
:1025E000993918C0BE0D68BFCE71153F8D090340E3
:1025F000CCC9624009A7A3407DDBD140C41601418C
:1026000054FC1741D0E83041195546419FAB5F411A
:10261000A04176415E2E864138B504460D463148CC
:10262000012108F04BFA2AB200212E4808F042FAA4
:10263000204607F0B9FA01462A480CF043FE2D2146
:10264000284808F0FDF9204607F08AFA0146254897
:102650000CF038FE2D21234808F0F2F9204607F04F
:102660006DFA01461F480CF02DFE02221E491D483E
:102670000CF014FE204607F085FA092803DC30210F
:10268000184808F0DDF9204607F07CFA01461548A5
:102690000CF018FE204607F02DFA012205461349DA
:1026A00010480CF0FBFD092D03DC30210D4808F02B
:1026B000C7F929460B480CF005FE204607F02CFA16
:1026C00001220446094907480CF0E8FD092C03DC07
:1026D0003021044808F0B4F921460248BDE83840EA
:1026E0000CF0F0BD8C1700205C84010048850100CF
:1026F00038B501210446314808F0E0F937220021BD
:102700002E4808F0D7F9204607F04EFA01462B482C
:102710000CF0D8FD2D21294808F092F9204607F049
:102720001FFA014625480CF0CDFD2D21234808F065
:1027300087F9204607F002FA014620480CF0C2FD56
:1027400002221F491D480CF0A9FD204607F01AFA85
:10275000092803DC3021194808F072F9204607F0F7
:1027600011FA014615480CF0ADFD204607F0C2F9FC
:1027700001220546134911480CF090FD092D03DC98
:1027800030210E4808F05CF929460C480CF09AFDFF
:10279000204607F0C1F9012204460A4907480CF017
:1027A0007DFD092C03DC3021044808F049F921465D
:1027B0000248BDE838400CF085BD00BF8C170020F2
:1027C0005C840100488501002DE9F047C04D2C686C
:1027D00024B1012C69D030BFBDE8F0870AF03CFF7E
:1027E000BC4FBD4E3860BD4808F048FF0121BB48D2
:1027F00008F06AF90221B94808F060F9224621463A
:10280000B64808F057F90A22B549B4480CF046FD1D
:10281000B2480CF0AFFD14213068FFF7FDFE3868B8
:10282000FFF766FFAD4809F065F9AE4A3B681268EC
:10283000934280F240813268934233DBAA4F3C6876
:10284000002C00F085810D21A848A94C0CF018F847
:10285000A8480CF08FFDA84BA84A31681B68126885
:10286000A7480B441A440E21326023600CF008F88C
:102870000AF0F2FEFFF7D8F80B21A2480CF000F89E
:102880002068FFF7D1F80B219F480BF0F9FF306863
:10289000FFF7CAF80123AE2190482B6008F0F6FE3E
:1028A000FEF746FD2C68012C95D1FEF7B5F9974E41
:1028B000974B32681B689A428DDB904B1F68002F44
:1028C00000F0FF80FEF762FA834BDFF87C921E680F
:1028D000DFF878828F4F0AF0BFFE8F4A8F4B126865
:1028E000301A861A26EAE67683FB06233344F0176D
:1028F000C0EBE3200DF032FB0DF056F90DF044FE75
:10290000874A884BC9F8000002FB006683FB062358
:1029100033448246F017C0EB63100DF01FFB0DF03F
:1029200043F90DF031FEA0EB0012034606EB8206E0
:10293000514670483B60C8F800600CF0C3FC6D481D
:102940000CF018FD39686B480CF0BCFC69480CF0C1
:1029500011FDD8F8001067480CF0B4FC65480CF085
:1029600009FD3B68D9F80010D8F80020C3EB031329
:102970009B004FF4616000FB01331A44092A40F3C5
:102980009180122168480BF07BFF5A480CF0F2FC52
:10299000002102200AF06CFF0E2164480BF070FF4A
:1029A00054480CF0E7FC0A21614802F09BF9002131
:1029B0005F4801F06FFF30215D4801F06BFF00219F
:1029C0005B4801F067FF0021594801F063FF584858
:1029D00002F09AF90A21564802F084F9002154487D
:1029E00001F058FF0221524801F054FF00215048E5
:1029F00001F050FF00214E4801F04CFF4C4802F01E
:102A000083F910214B480BF03BFF3A480CF0B2FC25
:102A100064200AF09BFF0E2147480BF031FF354838
:102A20000CF0A8FC64200AF091FF98F800303A7886
:102A300099F80010414806F003FF414806F0D6FC23
:102A4000214602200AF014FF0A21394802F04AF90F
:102A50000021374801F01EFF3021354801F01AFFF0
:102A60000021334801F016FFA221314801F012FF86
:102A70002F4802F049F90A212D4802F033F90021CC
:102A80002B4801F007FF0221294801F003FF002134
:102A9000274801F0FFFE4321254801F0FBFE2448B2
:102AA00002F032F901233C2202210C4808F018FF01
:102AB00000232B608FE6012105200AF0D9FE3B6838
:102AC000B9E6204802F01EFCFEF77AF9376082E68C
:102AD000E8FFFF1F18150020201500208C1700208C
:102AE00060840100DC170020680000206C84010075
:102AF0003C1700206CF5FF1F28F0FF1F2CF0FF1F74
:102B00007C8401008C840100988401002815002039
:102B1000C41700206817002004F0FF1FC5B3A2915E
:102B2000F0F1FFFF89888888A4840100B88401003F
:102B3000FC180020C8840100DC840100CC160020B1
:102B4000ECFFFF1F18000020CC170020D817002032
:102B50000A210D4802F0C6F821460B4801F09AFE02
:102B60000E21094801F096FE2146074801F092FE29
:102B70000A21054801F08EFE034802F0C5F84FF027
:102B8000FF333B605FE600BFFC18002010B50AF081
:102B900063FD4C4B012118604B4807F08FFF01216A
:102BA000494807F091FF12220021474807F082FFB1
:102BB0000422464944480CF071FB454B42481968D1
:102BC0000CF080FB012243493F480CF067FB3E4874
:102BD0000CF0D0FB062240493B480CF05FFB3F4B1A
:102BE000394819680CF06EFB01223A4936480CF05E
:102BF00055FB35480CF0BEFB394B1B68012B13D03D
:102C0000384A394B126853F822000DF00FFE37494D
:102C10000DF014FF0DF0B4F9BDE8104002460B466C
:102C2000294833490CF0BEBB324C334926480822B0
:102C30000CF034FB217809293EDD00230A222248CA
:102C40000CF0BEFB2D4B2E491C781F4801220CF0C6
:102C500025FB092C03DC30211B4807F0F1FE21463F
:102C60001948284C0CF02EFB2749174801220CF07C
:102C700015FB2178092919DD00230A2212480CF0DE
:102C80009FFB224B1E491C780F4801220CF006FBCB
:102C9000092C03DC30210C4807F0D2FE21460A48FB
:102CA0000CF010FB08480CF065FBA9E73021064842
:102CB00007F0C6FE2178DFE73021034807F0C0FEA9
:102CC0002178BAE7181500208C170020EC84010049
:102CD00028F0FF1FF4840100F88401002CF0FF1F8E
:102CE000C817002024F0FF1F14F0FF1F00007A44D3
:102CF0001085010014000020008501001C18002030
:102D0000488501006C1700200C8501002415002067
:102D10002DE9F04F87B0FEF7CDFE0AF09DFCB44BD5
:102D2000B44F1A68B44B38609A4202D9B04A3C2377
:102D30001360B24AB04B12689A4202D9AF4A3C23A0
:102D40001360AF4BDFF8F4A21A78172A84BF002271
:102D50001A70AC4B1A783B2A84BF00221A70AA4B17
:102D60001A78172A84BF00221A70A84B1A783B2AB7
:102D700084BF00221A70DAF80030012B84BF0023D0
:102D8000CAF80030A24B1B68032B02D9A04A0323C8
:102D90001360A04DDFF8A8829F4E08200AF08CFD3A
:102DA000E8B92B6801332B6002E00A200AF0CEFD5F
:102DB00008200AF081FD0028F7D02A68DAF80030F0
:102DC000A2F10901B3FA83F304294FEA531300F285
:102DD000C384002B00F0C0848E4A0E2313608F48FA
:102DE00008F04CFC01218D4807F06EFE02218B4853
:102DF00007F064FE00221146884807F05BFE0AF0E7
:102E00002BFC3B682C683060C3EB00090E2C5BD8B0
:102E1000DFE814F05E040E04B2032E03AE021802C3
:102E20009A011A016D005A005A005A005A005A00BD
:102E30000F00774B04201C680AF03EFD0190032030
:102E40000AF03AFD019B8346002B40F00A85D8F832
:102E50000030734A0121132B117040F32185013397
:102E6000C8F800300134BBF1000F40F00185DFF8F5
:102E7000D4B16B4ADBF800300121132B117040F301
:102E80001685092CC8BFDBF8003004F1FF34CCBF35
:102E900001330123002CCBF80030C0F2EF84042C66
:102EA000A8BF00245F4B5A4A53F8240014600DF069
:102EB000BDFC5D490DF0C2FD0DF062F802460B4607
:102EC00056485A490CF06EFAFFF760FE0AF0C4FB50
:102ED000FFF70EFC514808F00DFE0A200AF036FDFF
:102EE000B9F5167F7FF759AF07B0BDE8F08F06F050
:102EF00013FE4F4C03460420236002930AF0DCFCCF
:102F0000019003200AF0D8FC019A029B8346002A14
:102F100040F09784D8F8002041490120132A087016
:102F200040F3CA840132C8F800200133BBF1000F1E
:102F300040F08E84DFF80CB13949DBF80020012025
:102F4000132A087040F3C184092BC8BFDBF80020A6
:102F500003F1FF33CCBF01320122002BCBF800205C
:102F6000C0F27C843C2BA8BF00232268314C9A42DB
:102F700023602FD0306806F005FE0390306806F01D
:102F8000B9FD216802918346306806F0D7FD0446FA
:102F9000306806F0E5FD0190306806F005FE0DF1A1
:102FA000180E02990EF8081D00F14E0C039A019BB1
:102FB0008DF8122070468DF816C08DF815308DF8FA
:102FC00014408DF811B006F003FE0AF04BFB0AF036
:102FD00043FB38600722184910480CF05FF90AF0EB
:102FE0003BFB06F099FD01460C480CF06BF96BE7D2
:102FF00028F0FF1F6C100020A08601002CF0FF1F9E
:10300000140000201C1800206C170020241500203C
:1030100024F0FF1FC8160020181500208C17002070
:103020001C15002014F0FF1F00007A447485010075
:10303000EC1700200C1700206C850100C817002039
:10304000D0170020E017002006F054FDBD4C0346C9
:103050000420236002930AF02FFC019003200AF061
:103060002BFC019A029B8346002A40F0DB83D8F8B0
:103070000020B5490120132A087040F32D84013245
:10308000C8F800200133BBF1000F40F0D283DFF815
:10309000DCB2AD49DBF800200120132A087040F3B0
:1030A0002484092BC8BFDBF8002003F1FF33CCBF19
:1030B00001320122002BCBF80020C0F2C0833C2B50
:1030C000A8BF00232268A14C9A4223602ED030680A
:1030D00006F058FD03903068246806F01DFD02904C
:1030E000306806F02BFD8346306806F039FD01900C
:1030F000306806F059FD0DF1180E02990EF8081D02
:1031000000F14E0C039A019B8DF8122070468DF849
:1031100016C08DF815308DF814B08DF8114006F0FA
:1031200057FD0AF09FFA0AF097FA3860072288499B
:1031300088480CF0B3F80AF08FFA06F0DBFC014681
:1031400084480CF0BFF8BFE606F01CFD824C034635
:103150000420236002930AF0AFFB019003200AF0E1
:10316000ABFB019A029B8346002A40F04C83D8F8BF
:10317000002075490120132A087040F3BD830132F5
:10318000C8F800200133BBF1000F40F04383DFF8A3
:10319000DCB16D49DBF800200120132A087040F3F0
:1031A000B383092BC8BFDBF8002003F1FF33CCBF8A
:1031B00001320122002BCBF80020C0F23183182B02
:1031C000A8BF0023226801939A422DD0306806F0F0
:1031D00091FC0390306806F09FFC0290306806F086
:1031E000ADFC0446306806F0BBFC8346306806F050
:1031F000DBFC0DF1180E02990EF8081D00F14E0CC3
:10320000039A019B8DF8112070468DF816C08DF839
:1032100012308DF815B08DF8144006F0D9FC0AF084
:1032200021FA0AF019FA386005224C4949480CF095
:1032300035F80AF011FA06F0A5FC014645480CF0F5
:1032400041F841E606F07AFC454C03460420236031
:1032500002930AF031FB019003200AF02DFB019A42
:10326000029B8346002A40F0BF82D8F800203649EE
:103270000120132A087040F34D830132C8F8002062
:103280000133BBF1000F40F0B682DFF8E0B02E4909
:10329000DBF800200120132A087040F34383092B38
:1032A000C8BFDBF8002003F1FF33CCBF013201229D
:1032B000002BCBF8002040F3A482202BA8BF0123D1
:1032C0002268284C9A4223602ED0306806F05AFCBF
:1032D0000390306806F00EFC8346306806F01CFC54
:1032E00002903068246806F03BFC0190306806F0DC
:1032F0005BFC0DF1180E029A0EF8082D00F14E0C31
:10330000039B01998DF8123070468DF816C08DF828
:1033100015108DF814408DF811B006F059FC0AF024
:10332000A1F90AF099F9386004220F4909480BF015
:10333000B5FF0AF091F906F001FC014605480BF0D3
:10334000C1FFC1E54C1700201C15002014150020FA
:10335000648501008C170020E4FFFF1F5C850100DD
:10336000241800202018002054850100E0170020B8
:1033700006F0F6FBA24C03460420236002930AF0F9
:103380009BFA019003200AF097FA019A029B834668
:10339000002A40F01A82D8F800209A490120132A06
:1033A000087040F3C5820132C8F800200133BBF138
:1033B000000F40F01182DFF874B29249DBF8002070
:1033C0000120132A087040F3BB82092BC8BFDBF829
:1033D000002003F1FF33CCBF01320122002BCBF8D8
:1033E000002040F3FF810D2BA8BF01232268864CEB
:1033F0009A4223602ED0306806F0C4FB03903068F8
:1034000006F078FB8346306806F086FB0290306851
:1034100006F094FB01903068246806F0C5FB0DF1BE
:10342000180E02990EF8081D00F14E0C039A019B2C
:103430008DF8122070468DF816C08DF814308DF876
:1034400015408DF811B006F0C3FB0AF00BF90AF035
:1034500003F9386006226D496D480BF01FFF0AF032
:10346000FBF806F07DFB014669480BF02BFF2BE5CE
:1034700006F09AFB674C03460420236002930AF08F
:103480001BFA019003200AF017FA019A029B834667
:10349000002A40F08981D8F800205A490120132AD7
:1034A000087040F367820132C8F800200133BBF195
:1034B000000F40F08081DFF874B15249DBF8002042
:1034C0000120132A087040F35D82092BC8BFDBF886
:1034D000002003F1FF33CCBF01320122B3F5FA6FB4
:1034E000CBF80020C0F26E8140F634029342C8BF90
:1034F0004FF4FA632268484C9A4223602ED0306819
:1035000006F040FB0390306806F0F4FA834630681A
:1035100006F002FB0190306806F010FB0290306864
:1035200006F01EFB0DF1180E9DF804200EF8082D74
:1035300023680399029A8DF815004E3370468DF872
:1035400012108DF816308DF814208DF811B006F099
:103550003FFB0AF087F80AF07FF8386005222F4910
:103560002B480BF09BFE0AF077F806F01DFB014696
:1035700027480BF0A7FEA7E4294B04201C680AF09B
:103580009BF9019003200AF097F9019B8346002BD9
:1035900040F0FB80D8F800301A4A0121132B11703B
:1035A00040F3F6810133C8F800300134BBF1000F5D
:1035B00040F0F280DFF874B0124ADBF800300121ED
:1035C000132B117040F3EA81092CC8BFDBF80030DF
:1035D00004F1FF34CCBF01330123002CCBF80030C1
:1035E000C0F2E0800F4B9C42C8BF00240C4B0E4938
:1035F00007481C6004220BF051FE094B5AE000BF43
:10360000181800201C150020101700204C85010000
:103610008C170020E4170020481700204485010083
:103620002CF0FF1F805101003C850100E0170020B5
:10363000C64B04201B6802930AF03EF90190032058
:103640000AF03AF9019A029B8346002A40F08E80E4
:10365000D8F80020BE490120132A087040F3A28147
:103660000132C8F800200133BBF1000F40F0858023
:10367000DFF8F4B2B649DBF800200120132A087005
:1036800040F30881092BC8BFDBF8004003F1FF338A
:10369000C8BF0134002BCBF8004073DDB3F5616F78
:1036A000C8BF0123A94CAB49AB48236004220BF0EF
:1036B000F5FD23461968A8480BF004FE0122A7492E
:1036C000A5480BF0EBFDA4480BF054FEFFF7FCBB44
:1036D0009F4C2378002B40F0D4800A22A0499E48BA
:1036E0000BF0DCFD04200AF0E7F8044603200AF0A2
:1036F000E3F8002C7FF4E8AB00287FF4E5AB9648B4
:1037000007F0BCFF0121944807F0DEF9022192483E
:1037100007F0D4F9002211468F4807F0CBF9FEF7E5
:1037200023FA0A228F498C480BF0B8FD8A4808F02A
:10373000E1F940F2DC500AF009F9FFF727FA09F045
:103740008BFFFEF7D5FF844808F0D4F90A200AF071
:10375000FDF807B0BDE8F08F0E2A7FF740AB002BD5
:103760003FF43DAB00232B60FFF739BB0022C8F8C4
:103770000020BBF1000F3FF47BAF7B4A0021002B00
:1037800011608BDC4FF461638CE70023C8F80030D4
:10379000BBF1000F3FF40EAF734B0022002C1A60F8
:1037A000BFF620AF714C21E70022C8F80020BBF122
:1037B000000F3FF480AE6C4A0021B3F5FA6F116040
:1037C000BFF692AE40F6340394E60022C8F800201B
:1037D000BBF1000F3FF4EFAD634A0021002B1160F5
:1037E0003FF701AE0C2301E60022C8F80020BBF130
:1037F000000F3FF44AAD5C4A0021002B11603FF7F7
:103800005CAD1F235CE50022C8F80020BBF1000F6F
:103810003FF4BDAC544A0021002B1160BFF6CFAC81
:103820001723CFE40022C8F80020BBF1000F3FF4BB
:103830002EAC4D4A0021002B1160BFF640AC3B235B
:1038400040E40022C8F80020BBF1000F3FF472AB47
:10385000454A0021002B1160BFF684AB3B23FFF7E4
:1038600084BB0023C8F80030BBF1000F3FF4FFAA6F
:103870003D4B0022002C1A60BFF611AB0324FFF76A
:1038800011BBFEF771F94FF00003237009F0E4FE5D
:10389000386022E7C82001930AF058F8019BF1E64E
:1038A000C8200AF053F8324B1B68FFF7D8BAC8207B
:1038B0000AF04CF8FFF7E5BAC82001930AF046F881
:1038C0002B4B1A68019BFFF72DBBC82001930AF010
:1038D0003DF8019BFFF738BBC82001930AF036F88A
:1038E000234B1A68019BFFF7CABBC82001930AF05B
:1038F0002DF8019BFFF7D5BBC82001930AF026F8ED
:103900001B4B1A68019B3AE4C82001930AF01EF889
:10391000019B46E4C82001930AF018F8144B1A687A
:10392000019BAAE4C82001930AF010F8019BB6E4B9
:10393000C82001930AF00AF80D4B1A68019B32E582
:10394000C82001930AF002F8019B3EE528F0FF1F12
:103950001C150020EC8401008C170020F484010069
:103960002485010030850100E0170020805101000E
:10397000D0170020C820019309F0E8FF0D4B1A680A
:10398000019B90E5C820019309F0E0FF019B9CE5B5
:10399000C82009F0DBFF074B1B6803E6C82009F0CD
:1039A000D5FF11E6C820019309F0D0FF014B1A683A
:1039B000019B55E6D01700202DE9F04F85B072B677
:1039C000A149A24BA24841250E2480220D7004700B
:1039D00019461A700B789D4A1806FBD59D499E4BD7
:1039E0000D789E4C9E481D70033924780078097824
:1039F000D9705C70987062B672B69349944C412647
:103A00000F2580200E702570114610700A7812065E
:103A1000FCD5904C91489249924A247800780978D4
:103A20001278DA711C715871997162B68E4C8F4D93
:103A30004FF4FA7009F08AFF21688D4800230A22AA
:103A40000BF0BEFC8A480BF095FC4FF47A7009F03D
:103A50007DFF2168864800230A220BF0B1FC8448D0
:103A60000BF088FC4FF47A7009F070FF00230A22F3
:103A700021687F480BF0A4FC7D480BF07BFC7D485F
:103A800000F0AEFF0121022009F024FF01211420E3
:103A900009F020FF0021152009F01CFF002009F08B
:103AA0009FFA0121022009F0E3FE0121142009F010
:103AB000DFFE0121062009F00DFF0021062009F09C
:103AC000D7FE0021062009F005FF0021042009F09F
:103AD00001FF0021032009F0FDFE0021082009F06C
:103AE000F9FE0121042009F0C3FE0121032009F0A1
:103AF000BFFE0121082009F0BBFE4FF4FA7009F067
:103B000025FF09F0A9FD5C4B2860984202DC5B4868
:103B100009F0A8FD01233C2202215948594E07F023
:103B2000DFFE642009F012FF554807F0A7FD0121D0
:103B3000534806F0C9FF0221514806F0BFFF00229A
:103B400011464F4806F0B6FF0A224F494C480BF089
:103B5000A5FB4B480BF00EFC494807F0CBFF0121B9
:103B6000062009F0B7FE0021062009F081FE444836
:103B700007F084FD0121424806F0A6FF02214048DB
:103B800006F09CFF002211463D4806F093FF0A22F2
:103B90003D493B480BF082FB39480BF0EBFB3848C2
:103BA00007F0A8FFC82009F0D1FE0721374801F02F
:103BB000C7FA0E21354801F00BFB4FF038400A21BF
:103BC0000022FF2302908DF80C108DF80E3006F5C0
:103BD00091678DF80D2004AB384613E90C0006F50B
:103BE000936105F0DDF896F89444C6F88474002CCF
:103BF00052D01C2126480AF043FE1D480BF0BAFBA8
:103C00001F4807F03BFD01211D4806F05DFF022122
:103C10001B4806F053FF00221146194806F04AFFE0
:103C200012221C4916480BF039FB15480BF0A2FB79
:103C300009F012FDFEF75CFD114807F05BFF4FF441
:103C40007A7009F083FEDBE70700024000000240C3
:103C5000060002400B000240341700200A00024018
:103C6000090002400800024000D00340181500205F
:103C70006CF5FF1FFC1800207FC1855680C185565A
:103C80008C170020701000208085010034F0FF1F89
:103C90008C850100AC8501003946304601F094FB6B
:103CA0000028A6D0FDF77AFD794B7A48019364216C
:103CB0000AF03AFFFFF72CF87749784AD1F800A0CC
:103CC000DFF8249252F82A00DFF82082744E754FF4
:103CD000DFF81CB20CF0AAFDC9F800005046FEF750
:103CE0000FFCFDF753FB2146042009F0C1FD2146DE
:103CF000032009F0BDFD2146082009F0B9FD01218E
:103D0000042009F0E7FD0121032009F0E3FD012172
:103D1000082009F0DFFD6448DFF8D8A107F0AEFC09
:103D20000121614806F0D0FE02215F4806F0C6FE80
:103D3000224621465C4806F0BDFE09F08DFC5B4939
:103D4000024681FB023ED117C1EB6E114FF4967E05
:103D50000EFB1121D8F800002A60521A724454490F
:103D6000326002440A600CF061FDD9F80010DFF8FF
:103D700088910CF0AFFD4FF06E510CF0ABFD0CF0E4
:103D80006FFF4C49019B09683A681860521A4A4B08
:103D900022EAE27283FB02131344D017C0EBE32044
:103DA00001920CF0DBF80BF0FFFE0CF0EDFB019A3A
:103DB000424BCBF8000003FB0023414A019382FBF6
:103DC00003121A44D817C0EB62100CF0C7F80BF0BE
:103DD000EBFE0CF0D9FB019BA0EB0011024603EBBC
:103DE00081033848CAF800201021C9F800300AF0D1
:103DF00047FDDBF8001034480BF064FADAF80010E5
:103E000031480BF05FFAD9F800102F480BF05AFA3E
:103E10002D480BF0AFFA08212C480AF031FDD8F8F4
:103E2000001029480BF04EFA27480BF0A3FA08219E
:103E300027480AF025FD396823480BF043FA224849
:103E40000BF098FA0E2123480AF01AFD2868FDF7B6
:103E5000EBFD0C2120480AF013FD3068FDF7E4FD6E
:103E600033682D681D485D1B15210AF009FD2946A0
:103E700015480BF027FA14480BF07CFA184A194B36
:103E800014604FF0FF321A6005B0BDE8F08F00BF3C
:103E9000C41700200082FF1F24F0FF1F14F0FF1F33
:103EA000201500202CF0FF1F8C170020B5814E1B21
:103EB0003C17002004F0FF1FC5B3A291F0F1FFFFF3
:103EC00089888888C08501006CF5FF1FD4850100B2
:103ED000E08501007C840100EC850100FC85010087
:103EE000E8FFFF1FE8170020D417002028F0FF1F6D
:103EF000CC17002068170020D8170020002070473A
:103F00000020704738B50F29114C28BF0F210F2A08
:103F100028BF0F220D46017A204642EA051500F01F
:103F20000BFE2046002100F0B5FC2046202100F0C9
:103F3000B1FC2046002100F0ADFCE9B2204600F0C3
:103F4000A9FC204600F0E0FEB0FA80F0400938BD40
:103F5000FC180020F8B5C34C012605460671204622
:103F600000F03EFD052009F0F1FC297A204600F022
:103F7000E3FD2046002100F08DFC2046302100F0BA
:103F800089FC2046402100F085FC6021204600F09D
:103F900081FC204600F0B8FE297A204600F0CCFDD6
:103FA0002046002100F076FC2046262100F072FC1D
:103FB0002046002100F06EFC6C21204600F06AFCD7
:103FC000204600F0A1FE297A204600F0B5FD2046EB
:103FD000002100F05FFC2046282100F05BFC314608
:103FE000204600F057FCF221204600F053FC20460A
:103FF00000F08AFE297A204600F09EFD204600212E
:1040000000F048FC20462C2100F044FC20460F2103
:1040100000F040FC2221204600F03CFC204600F04D
:1040200073FE297A204600F087FD2046002100F02B
:1040300031FC20463C2100F02DFC2046442100F0BC
:1040400029FC4621204600F025FC204600F05CFEBD
:1040500040F23713EB80297A204600F06DFD2046B0
:10406000002100F017FC2046242100F013FC31460B
:10407000204600F00FFC3721204600F00BFC2046C4
:1040800000F042FE297A204600F056FD204600212D
:1040900000F000FC2046302100F0FCFB20464021CF
:1040A00000F0F8FBFF21204600F0F4FB204600F072
:1040B0002BFE297A204600F03FFD2046002100F02B
:1040C000E9FB2046022100F0E5FB2046002100F03C
:1040D000E1FB7321204600F0DDFB204600F014FEDA
:1040E0004FF4C87009F032FC297A204600F024FD14
:1040F0002046002100F0CEFB20462E2100F0CAFB16
:1041000020461D2100F0C6FB1D21204600F0C2FB09
:10411000204600F0F9FD297A204600F00DFD2046EA
:10412000002100F0B7FB2046042100F0B3FB20463D
:10413000002100F0AFFB0421204600F0ABFB20463D
:1041400000F0E2FD297A204600F0F6FC204600212E
:1041500000F0A0FB2046062100F09CFB31462046E3
:1041600000F098FB3021204600F094FB204600F040
:10417000CBFD297A204600F0DFFC2046002100F02C
:1041800089FB20460A2100F085FB2046002100F033
:1041900081FB1021204600F07DFB204600F0B4FD9D
:1041A000297A204600F0C8FC2046002100F072FB6E
:1041B00020460E2100F06EFB2046002100F06AFB35
:1041C0000021204600F066FB204600F09DFD297A84
:1041D000204600F0B1FC2046002100F05BFB2046A9
:1041E000102100F057FB20463C2100F053FB3C21FE
:1041F000204600F04FFB204600F086FD297A20463D
:1042000000F09AFC2046002100F044FB20462221C9
:1042100000F040FB20467F2100F03CFB7F21204640
:1042200000F038FB3627204600F06EFD297AEF803B
:10423000204600F081FC2046002100F02BFB2046A8
:10424000242100F027FB2046002100F023FB394603
:10425000204600F01FFB204600F056FD6E723046EF
:10426000F8BD00BFFC1800200B462DE9F041454980
:10427000054618460CF02EFB43490CF023FA0CF0CF
:1042800015FD044600284CD080281FD92B79002426
:1042900026462BBB297A3D4800F04EFC00213B48C6
:1042A00000F0F8FA2221394800F0F4FA3146374894
:1042B00000F0F0FA2146354800F0ECFA334800F0FF
:1042C00023FDB0FA80F04009BDE8F081C0F1800420
:1042D0002B7944EA0424C4F30726E4B2002BD9D096
:1042E000EF88297A294827F010074FF00008EF805F
:1042F00085F8048000F020FC4146244800F0CAFA0A
:104300002421224800F0C6FA390A204800F0C2FAF7
:1043100007F0EF011D4800F0BDFA1C4800F0F4FC66
:10432000B8E701232B71297A184800F005FC2146D3
:10433000164800F0AFFA2221144800F0ABFA7F21B2
:10434000124800F0A7FA7F21104800F0A3FA0F48A6
:1043500000F0DAFCEE88297A0C4846F01006B6B276
:10436000EE8000F0E9FB2146084800F093FA242192
:10437000064800F08FFA310A044800F08BFAF1B2D7
:1043800099E700BF00000143EE7CFF3EFC180020CF
:1043900070B505460C4619B101293BD0002070BD0F
:1043A000017A424800F0C8FB2146404800F072FA0A
:1043B00020213E4800F06EFA21463C4800F06AFA9F
:1043C00055213A4800F066FA384800F09DFC064650
:1043D0000028E3D1EC88297A344844F00404A4B2DC
:1043E000EC8000F0A9FB3146304800F053FA24215C
:1043F0002E4800F04FFA210A2C4800F04BFAE1B2A7
:104400002A4800F047FA294800F07EFCB0FA80F014
:10441000400970BD017A254800F08EFB0021234839
:1044200000F038FA2A21214800F034FA21461F48CA
:1044300000F030FA73211D4800F02CFA1B4800F000
:1044400063FC04460028A9D1297A184800F074FBBF
:104450002146164800F01EFA2021144800F01AFAEE
:104460002146124800F016FA8821104800F012FA8E
:104470000E4800F049FC044600288FD1EE88297AC6
:104480000A4826F00406EE8000F056FB2146074855
:1044900000F000FA2421054800F0FCF9310A034835
:1044A00000F0F8F906F0FB01AAE700BFFC180020B5
:1044B00010B504460AF068FD204610BD024A0349C3
:1044C00003480CF0D9BD00BFFCEFFF1FB144000052
:1044D000541800201B4A1C4B11681C48096970B411
:1044E00099421279027009D2194A127832B3194AE4
:1044F0004FF08041116003F5807402E01C46A3F583
:104500008073154A154912680D68AAB1A5B1144EF9
:104510003088402810D841000A44403029440232F3
:104520000231308033F9040B22F8020F9C4233F938
:10453000020C21F8020FF5D870BC704703F58074A7
:10454000DFE700BF6418002090E8FF1F1F800040D5
:104550005E18002008E200E06C18002060180020BF
:104560005C180020F8B506460AF00EFB0446E8B1D8
:104570000AF00AFB054600283AD072B61F4B1A888B
:104580007F2A19D8002C31D01D490A6842B162B681
:1045900020460AF04DFB2846BDE8F8400AF048BB2B
:1045A00018480C601A80056062B6F8BD054672B600
:1045B000124B1A887F2AE5D9114A124917681460EC
:1045C00000220C681A800D6062B6394630460AF047
:1045D00059FB38460AF02CFB3046214601220AF0EE
:1045E00051FB2046BDE8F8400AF022BB62B6F8BD98
:1045F00020460AF01DFB2C46BFE700BF5C180020D8
:104600006C18002060180020F8B5284C284E204671
:1046100001210AF01BFC00F083F8264B264A2748AC
:104620004FF480611960236800211A609980227913
:10463000186102F1804202F5043240F20110D88084
:104640009E614FF48075022006278E26DD82D96098
:10465000DD8398609F839882117016700AF09CFB2E
:104660001749184B2279184F08701A703968227947
:10467000164C174D174E41F0124141F001015311F4
:1046800039609B00206803F1604302F1100703F5D5
:10469000614302F01F02012140F0104001FA02F2D2
:1046A000206045F827601A60F8BD00BF641800203C
:1046B00000FEFFFF14B00440A0F0024090E7FF1F8F
:1046C0005E1800201B80004080F0024000F0024095
:1046D00000EAFF1FD5440000024A034903480CF0DA
:1046E000CBBC00BFFCEFFF1FB144000064180020EA
:1046F000024A034903480CF0BFBC00BFFCEFFF1F98
:10470000B144000070180020024A034903480CF02D
:10471000B3BC00BFFCEFFF1FB144000078180020BD
:10472000284B29491A68294842F400421A600A684D
:1047300042F002020A601A6842F002021A6003683C
:10474000002B3DDB224B1B68002B39DB214A4FF04D
:10475000864313601368002BFCDBF0B51E4C1F482A
:10476000DFF8ACE01E491F4B1F4A204F204E214D61
:1047700041F2100CC4F800C0002404600120CEF8FF
:104780000000DFF890E0C1F800E04FF480311960DC
:10479000194B1360DFF880E0184A3A6034602860F3
:1047A0001748CEF80000174CB9671748174946F864
:1047B000503C4FF4C0632A61236003600B60F0BD7E
:1047C000704700BF3C8004404080044000F002403D
:1047D00080F0024000F1024004F1024060F002402B
:1047E00008F002400CF0024010F0024014F00240C9
:1047F000E0F0024084F002401B0F0100000F0F0F99
:104800000300004708B004400CB0044018B0044056
:1048100004F002400300000788F00240024A034906
:1048200003480CF029BC00BFFCEFFF1FB14400009F
:1048300080180020024A034903480CF01DBC00BF49
:10484000FCEFFF1FB144000088180020024A034912
:1048500003480CF011BC00BFFCEFFF1FB144000087
:1048600090180020024A034903480CF005BC00BF21
:10487000FCEFFF1FB144000098180020024A0349D2
:1048800003480CF0F9BB00BFFCEFFF1FB144000070
:10489000A01800200A4B1B7813B90A4B1B786BB188
:1048A000094A1378202B07D810B4581C074C1070F5
:1048B000E154012010BC70470123037100207047B0
:1048C0000E190020D11800200F190020B018002068
:1048D000704700BF024A034B10781B78C01A70471C
:1048E0000D1900200C190020064A07491378097891
:1048F000994204D90548591CC05C117070474FF0AB
:10490000FF3070470C1900200D190020D41800202A
:10491000054B064A1B7812789A4286BF044AD05C3F
:104920004FF0FF30704700BF0C1900200D19002018
:10493000D418002070B50D4B1B78144613B90C4BDE
:104940001B788BB10B4E3578C5F12103A34202D2FF
:1049500001221C460271084822462844254408F0DA
:1049600093F93570204670BD184670BD0E190020B1
:10497000D11800200F190020B0180020124BDB784E
:1049800003F020034BB1114A13780133DBB2012B42
:10499000137012D9122008F01BBE10B5122003F0BC
:1049A000FF0408F015FE0A4B1B685BB109490A4A6F
:1049B0000C701078BDE810401847084B1B78002B8E
:1049C000E8D0704710BD00BF00600640F818002016
:1049D000AC1800200C1900200D190020D11800205F
:1049E0000D4A0E4BF0B500200D4C10702268DFF818
:1049F00038E00C4F42F0400222604FF41971272634
:104A00000425202480229870CEF8001039605E7052
:104A10009D715C719A70F0BDD11800200060064055
:104A20003480044008A004400CA0044010B5384C69
:104A3000E378DBB2D80623D510225906E2701ED5E2
:104A400003F0040303F0FF02002B33D0314B324953
:104A50001A68324C00230B702370002A3BD0904719
:104A60002378002B37D02E4B1B78294A2D49D02490
:104A700094701371264B012002220870DA7010BD69
:104A80005A06DDD4A27802F0100202F0FF0042B311
:104A900013F001031BD1234920480A780078904283
:104AA00081BF1F4B501C9B5C08702371184BD02298
:104AB0009A7008E01C48164B174902700120C0226A
:104AC00008709A701B79124B0222DA7010BDC02355
:104AD000A3702379F7E71249002301220B7022709B
:104AE000C3E7124B124918700322122008F0F0FCA1
:104AF0000D4923790A781F2ADBB2E4D806480078EA
:104B00000028E0D00B4C501CA3540870DBE700BF1A
:104B100000600640F4180020A81800200F1900209B
:104B2000B0180020101900200D190020F8180020DE
:104B30007D490000D41800200548064A10B401231E
:104B4000054C037049001370217010BC704700BF02
:104B50000E1900200F190020B01800202DE9F04395
:104B6000594C1223E370A37803F0200383B0002B89
:104B700055D0B423DFF86881A370D8F80030524DC7
:104B80001C460020EA78D2B29A421CBF144601208B
:104B900096061346F6D5002840F08C804B4B1B78C8
:104BA000002B33D003F1FF3E5FFA8EFE0026D8F8CB
:104BB0000040474F444D0EF1010E30464FF0020CBD
:104BC00017F8013F2B715FFA86F902E013F0200F0E
:104BD00009D0EB78DBB293421CBF1C46012013F0D6
:104BE000020F1A46F2D085F803C0EA78D2B2934297
:104BF0001CBF14460120D30633D4930631D5D30706
:104C000044D401367645DBD100284AD10020002962
:104C10002ED1304B00221A7003B0BDE8F0832E4D28
:104C2000DFF8BC8003F0FF022B680093009ED8F8E9
:104C3000000005E02B680193019B9B1B0F2B1BD8E9
:104C4000E378DBB2834218BF012213F0200F18462D
:104C5000F0D192BB21481C4B0024B02204709A7002
:104C60008BE708BB184B80229A7004200029D0D013
:104C7000154B80229A70CCE7CAB9134B00218022D1
:104C8000042099709A7003B0BDE8F083C0B90E4B50
:104C9000B9F1000F4FF080020CBF022003209A7080
:104CA000B7E7C8F80040B1E7C8F80040DAE7C8F84D
:104CB0000000E2E7C8F8004070E7C8F80030C9E734
:104CC000C8F80040E3E700BF006006400F1900206D
:104CD000AF1800200E190020DC1B0020D118002086
:104CE00030F0FF1F0548064A10B40123054C03703D
:104CF00049001370217010BC704700BF0E190020CE
:104D00000F190020B01800200121FFF727BF00BFB6
:104D1000044B054A1A604FF47A71002299601A71A7
:104D20001A737047FC1800204486010010B4047FF9
:104D30004160022CC26002D010BC0AF03FB9836807
:104D400010BC18472DE9F0410468E56815F0807F34
:104D5000794D256052D1DF0740F1B380002900F082
:104D6000E3800D78012B18BF45F0004565630131E4
:104D700090F8248003F1FF3C48EA0828BCF1000FBA
:104D800000F0A88021B14D7811F8028B45EA08287F
:104D900045682E7ABCF1020F06F1FF364FEA06365F
:104DA0000CBF48F0805548F01045B6B26563ACF1D1
:104DB000020C08E00AB114700132013B05F47045A1
:104DC000B54216D90468E56A15F0F00FF6D0A46B69
:104DD00013F0010F17464FEA242EEBD11AB107F852
:104DE00002EB54703A4605F47045B542A3F1020354
:104DF000E8D8BCF1000F6DD00468C3E7DD074CD5DF
:104E0000002900F089800D78012B18BF45F000457E
:104E10006563013103F1FF3E90F824C0BEF1000F3D
:104E200041D029B191F801C00D78023145EA0C2C2E
:104E300045682E7ABEF1020F06F1FF364FEA0636BC
:104E40000CBF4CF080554CF01045B6B26563AEF126
:104E5000020E08E00AB114700132013B05F47045FE
:104E6000B54215D90468E56A15F0F00FF6D013F0D5
:104E7000010F1746A46BEDD122B107F8024B2412A3
:104E800054703A4605F47045B542A3F10203E9D8DF
:104E9000BEF1000F07D00468C3E79E4690F824C017
:104EA000BEF1000FBDD11BB30468E16A11F0F00F31
:104EB000FBD0A16BDC071DD50AB111700132013B9B
:104EC000F1E790F824809C4648EA0828BCF1000FDE
:104ED0007FF458AF63B10468E16A11F0F00FFBD0C2
:104EE000DE07A16B0FD50AB111700132013BF1E76A
:104EF000BDE8F0812AB114460D1204F8021B55706A
:104F00002246023BCFE72AB114460D1204F8025B99
:104F100051702246023BDDE790F82450012B18BF68
:104F200045F00045656375E790F82450012B18BFE4
:104F300045F0004565631BE700041F80F0B4464B55
:104F4000464A186BDC6A01791170454922790A706A
:104F50009A6A00790870002A46D05968C9688A425E
:104F60003ED82168CC8B240402F1FF3065D4C0F315
:104F70000E00C883C88B80B2C882196B0968C88BC1
:104F8000000452D4C2F30E00C883C88B002480B240
:104F900012F1FF32C88218BF01229C62D96A2E48E2
:104FA00009680D6800F12404A54236D00068C46881
:104FB00014F0804F0C680D6815BF248824780235E2
:104FC000013544F000440D604463196B254B0979A9
:104FD0001970214912B1CA6A12791A70F0BC70476F
:104FE000521A9A620122D9E7586B196805681E4C5B
:104FF0000A63CC62CC682D681C4E24F080440327E1
:10500000B542CC6083F825701FD1037F4260022B2C
:10501000C2601ED0F0BC09F0D1BF016890F8240036
:10502000CC6840F000404863CFE7CC8BC2F3080067
:1050300004F47E442043C883A7E7CC8BC0F3080068
:1050400004F47E442043C88394E72B461146F0BC09
:1050500018478368F0BC184734F0FF1F1F800040DA
:105060001C8000401B80004000000FFF2D4D000001
:1050700090E80C00F0B41C6859682568164F174E6C
:1050800029432160164D17491760D66015611160DC
:10509000417A154A5C180A3194F8244053F821509B
:1050A00002EBC40149680D60017A5C1803EB8101D1
:1050B000247ECD6902EBC40149680D60817A5818DD
:1050C00003EB810390F83000596B02EBC002F0BC97
:1050D00053681960704700BF01401F00011000387D
:1050E0000110007800001F80D88C0100426803681E
:1050F00005CA10B4046822430260D868840100F035
:10510000E06205D5080900F4706021F470410143A4
:10511000D8681143814209D01A68500408D407485E
:10512000186041F08040D96018611A6010BC704767
:1051300041F08042D96010BC1A61704701401F00E5
:10514000204A43689A42F0B40FD0427A1A4492F847
:105150002420914207D093F824408C4215D093F834
:1051600025408C422AD0F0BC70470B2907D0072974
:10517000EBD1154C227842F001022270E5E7124C87
:10518000227822F001022270DFE7002421461E6807
:105190005D6836682E420FD00C4D05EBC202002729
:1051A00056685A18376092F8242005EBC2050A3178
:1051B0006A6853F8213013604472D4E70124214611
:1051C000E5E700BF608601002C1D0020D88C01009F
:1051D000204A43689A42F0B40FD0827A1A4492F877
:1051E0003020914207D093F830408C4215D093F88C
:1051F00031408C422BD0F0BC70470D2907D00E29CE
:10520000EBD1154C227842F004022270E5E7124CF3
:10521000227822F004022270DFE7002421461E6873
:105220005D6836682E4210D00C4D05EBC202002797
:1052300056685A18376092F830200C3105EBC205D9
:1052400003EB81036A685B6813608472D3E701240F
:105250002146E4E7608601002C1D0020D88C010067
:105260000BB1FFF76FBD70478842F8B506461AD0FC
:10527000806C0D46C8B101F0D5FFB0B10023B36416
:10528000AC6CF4B106F11001242004F0ADF8002359
:1052900003704370B064AD6C04460FCD0FC40FCDE6
:1052A0000FC42B6823603046F8BDF06C0028E7D0AF
:1052B00000F00CF90028E3D0AC6C0023F364002C60
:1052C000E0D1EB6C002BEED006F11001382004F099
:1052D0008BF880F8314080F83240F064EB6C024685
:1052E00003F130011D685C689868DF68D76010338F
:1052F0008B4215605460906002F11002F2D11B687D
:105300001360D0E710B50446806C28B101F08AFF25
:1053100010B10023A36410BDE06C28B100F0D6F8F2
:1053200010B10023E36410BD002010BD002947D058
:10533000F8B50446806C0D461F461646C8B101F00C
:1053400071FFB0B10023A364D5F87834F3B104F150
:105350001001242004F048F8002303704370324603
:10536000A0643B46D5F8781402F00CF930B3012064
:10537000F8BDE06C0028E7D000F0A8F80028E3D0E2
:105380000023E364D5F87834002BE0D1D5F87C34E1
:10539000C3B104F11001382004F026F8002380F88E
:1053A000313080F83230D5F87C14E0643B46324628
:1053B00000F0B8FC0028DAD1E064F8BDA064F8BDC4
:1053C000002070470020F8BD70B500260546C0F8E3
:1053D0008014C0F8786401464FF48F6004F004F83C
:1053E0000446466001F012F9C4F8106204F5037037
:1053F00001F00CF984F83C6484F8716484F87264F8
:10540000D5F88064C5F87C4431462046012201F07D
:10541000D5F970B104F58866304600F057F821469A
:10542000304600F0B9F858B11E4A2B4601201360EF
:1054300070BD02463146204601F0C0F90028E9D18E
:105440000026C5F87C6429464FF48C6003F0CCFF3D
:10545000C67180F83C6480F83D64D5F88064C5F876
:10546000780401223146044603F076FB90B104F241
:105470003C46304601F0D6FE2146304602F08AF81E
:105480000028D1D100221346C5F878241046054AD9
:10549000136070BD02463146204603F05DFB0028D4
:1054A000E5D1EFE71419002070B54FF47A75064E78
:1054B0008560002504460660057105738564C56432
:1054C000FFF734FF204670BDDC82010010B50446B2
:1054D00000F02AFD002384F8313010BDF0B50878C3
:1054E000202803D111F8010F2028FBD05160087843
:1054F00000284CD02F282BD05C2820D0A0F12204EB
:10550000E4B21D2C1DD9DFF88CE04E1C00247C2851
:10551000A0F12005374612D05E2D10D816F8010BE9
:10552000A0F12205EDB2013450B32F2811D05C2830
:105530002EFA05F703D01D2DE9D8FD07E7D5002089
:10554000F0BD144D25FA04F4E607DCD50020F0BDCB
:10555000002421440846064610F8015B202DFAD0AD
:105560002F2DF8D01E603CB111F8013D2E2B01D03B
:10557000202B08D1013CF7D1204610600120F0BD5E
:105580001F602144F0E7FF2CF6DD0020F0BD19601C
:10559000F3E700BF0101003590F831200AB1002087
:1055A000704738B504460D46114638220CF032F9E2
:1055B0004023012084F8313084F83300256238BD5F
:1055C0002DE9F04790F8313082B0044623B11646F9
:1055D00090F83320D0070AD494F832304FF0FF30DF
:1055E00043F0020384F8323002B0BDE8F08752067F
:1055F0000D4640F1AB80D4E90001D4E9042310EB5F
:10560000060841F100094B4508BF4245C0F0A280A1
:10561000002E00F0A180A146F9E80623B04653E031
:10562000134371D194F831305B064CBFD0F82C1481
:10563000E169A16190F83DE4D0F8243402397F0A91
:1056400001FA0EF2F9181144BAF1000F46D1B8F57B
:10565000007F43D3D0F8143299423FD0B8F5806F21
:1056600059D394F8332052064FEA582A07D401221E
:1056700002FA0EFEC7EB0E07BA4528BFBA4699429A
:105680004FEA4A270CD80AEB01029A4208D900F5E2
:105690000370019100F0F8FF00289DD0206A019965
:1056A000D0F8380453462A4603F0C4FC002893D0AF
:1056B00038460021D4E9002312184B41B8EB070803
:1056C0003D44C4E9002347D0206AD0F83074174025
:1056D000C7F3080A002FA3D0A169ABE700F5037058
:1056E000002200F099FF00283FF476AFCAF500775A
:1056F000474528BF474600EB0A013A46284607F0CF
:10570000C3FA38460021D5E794F83330590611D54D
:10571000A16901318DE7D0F8380401232A4603F04E
:1057200089FC00283FF458AF4FF4007000214FF47B
:105730000077BFE74A46A16901F0F4F940B20028BA
:10574000FFF64AAF0FD0206AA16973E71A073FF549
:1057500052AF5DE7161A5BE74FF00008C8EB060092
:1057600002B0BDE8F08794F8313013F0500FF5D156
:1057700032E700BFF0B583B001220DF10701044606
:10578000D0E900678569FFF71BFF012808BF9DF876
:105790000700A56118BF4FF0FF30C4E9006703B0F0
:1057A000F0BD00BF2DE9F84F90F83150D0F81880C7
:1057B00004469DB116461F4656EA070306D100234C
:1057C0008361C4E900670120BDE8F88F29070AD585
:1057D000D0E90423BB4208BFB24204D2C4F8188007
:1057E0000020BDE8F88FD4F8209094F8331099F891
:1057F0003DE40EF1090E5FFA8EFE16F1FF3247F11D
:10580000FF33CEF1200C03FA0CF022FA0EF2AEF1C7
:10581000200A024323FA0AFB42EA0B0B4A0603D58D
:10582000E5695D44A561CCE7D4E9000110F1FF32E0
:1058300041F1FF3322FA0EFE03FA0CFC4EEA0C0E85
:1058400023FA0AFA4EEA0A0EF34513D26B064CBF4E
:10585000D9F82C34E369A3615D4604F118094A467E
:10586000002DAED0A169206A01F05CF9013D00284D
:10587000F5D1B3E750EA0103E8D0CEEB0B0BEBE731
:105880002DE9F04F93B090F8314000920D469DF80D
:105890007010029106462CB99A4695F8313013F0F3
:1058A000500F05D1002086F8310013B0BDE8F08F0D
:1058B0001346002A00F00E8118462246514601F098
:1058C0003DFB95F831300490002B40F0FD80B64A46
:1058D0000AF10E0382FB03121A44DB17C3EBE20347
:1058E000029ADBB202F00F02059302334FF0000977
:1058F0005FFA83FB42F0400301924C464F4603930C
:1059000020220AA92846FFF75BFE00283DD0202868
:10591000C8D19DF828301A0663D4002C5ED12A68BD
:10592000A9690791203A08920134E4B26BB3C02B05
:1059300000F0A080C12B5FD0852BE1D1382200215F
:1059400030460BF067FF9DF82C309DF8292086F833
:10595000302003F03702DB0658BF42F0080286F819
:1059600031202B68296AAA697262203B3162B362D6
:1059700095F83330C3F3801386F82C3020220AA91F
:105980002846FFF71DFE0028C1D1029B03F0420309
:10599000422B87D1009B002B84D05C450DD39BE02C
:1059A00020287FF47FAF24B92A68A9690791203A9B
:1059B0000892DCB2A34540F28F8020220AA9284633
:1059C000FFF7FEFD631C0028EAD12846AF6900F00E
:1059D000D9FA00283FF466AFAF61EBE75C45A5D28A
:1059E000A2E7B9F1000FA2D15C4538BF0024852B96
:1059F00086D14FF00109A1E7C7EB0A085FFA88F8E2
:105A0000B8F10F0F28BF4FF00F0843463A460099F0
:105A10000AA801F0B1FA00284DD04744FFB2BA45B8
:105A20007FF46EAF029B18063FF53CAF13F0320FC8
:105A300005D096F8313013F0110F7FF433AF029A8E
:105A4000D106134640F1B2809A077FF52BAF96F846
:105A50003130002B3FF426AF002100220023B1613A
:105A6000C6E90023304600F0EFFB00283FF41AAFF0
:105A700001201AE79DF829309DF8042086F833208C
:105A80009F0744BF9DF80C3086F83330DDE90C23C6
:105A9000DDE91001C6E904230F9BF361009BC6E911
:105AA0000201002BBED09DF82B30534505D04FF09E
:105AB00000094F4624E7814622E7BDF82C30049ABE
:105AC0009342F4D100271BE700220023C5E90023FD
:105AD000AC61FCE60492FAE695F833303822C3F361
