:1000000000800020BD010000FDA90000B5A900008E
:10001000B5A90000B5A90000B5A90000B5A9000068
:10002000B5A90000B5A90000B5A90000FDA9000010
:10003000FDA90000B5A90000A5C10000A9C10000EC
:10004000FDA90000FDA90000FDA90000FDA9000018
:10005000FDA90000FDA90000FDA90000FDA9000008
:10006000FDA90000FDA90000FDA90000FDA90000F8
:10007000FDA90000FDA90000FDA90000FDA90000E8
:10008000FDA90000FDA90000FDA90000FDA90000D8
:10009000FDA90000FDA90000FDA90000FDA90000C8
:1000A000254E0000FDA90000FDA90000FDA90000EB
:1000B000FDA90000FDA90000FDA90000FDA90000A8
:1000C000FDA90000FDA90000FDA90000FDA9000098
:1000D000FDA90000FDA90000FDA90000FDA9000088
:1000E000FDA90000FDA90000FDA90000FDA9000078
:1000F000FDA90000FDA90000FDA90000FDA9000068
:10010000FDA90000FDA90000FDA90000FDA9000057
:10011000FDA90000FDA90000FDA90000FDA9000047
:10012000FDA90000FDA90000FDA90000FDA9000037
:10013000FDA90000FDA90000FDA90000FDA9000027
:10014000FDA90000FDA90000FDA90000FDA9000017
:10015000FDA90000FDA90000FDA90000FDA9000007
:10016000FDA900001DB00000FDA90000FDA90000D0
:10017000FDA90000FDA90000FDA90000FDA90000E7
:10018000FDA90000FDA90000FDA90000FDA90000D7
:10019000FDA90000FDA90000FDA90000FDA90000C7
:1001A000FDA90000FDA90000FDA90000FDA90000B7
:1001B000FDA90000FDA9000061BF0000564B4CF2F4
:1001C000205210B51A804DF628121A8000BF00BFC9
:1001D00000F0F2FB514B4FF010621A60504A9A60E7
:1001E000504ADA60504A136813F4807304D14F49BF
:1001F0000B604FF4A85313604D4B1A78110703D5C9
:100200001A7842F008021A704A4B4B492A221A7097
:100210004A4A4B4B8B4204D252F8040F43F8040B6A
:10022000F8E7484B484900228B4202D243F8042B9E
:10023000FAE74649464A002352F8230041F82300D2
:1002400001336F2BF8D1434B434A802103F8011B44
:100250009342FBD1414B3D4A1A60414B8A221A70AE
:10026000A3F5805324225A70A0221A709A7992071B
:10027000FCD59A79D406FCD43A4A937903F00C035E
:10028000082B384BF9D103221A7140225A719A79FE
:100290009006FCD5334A9179324B4906FBD5324A58
:1002A000324911600221516020221A709A7902F0BD
:1002B0000C020C2AFAD12E4B2E4A1A602E4B2F4AD2
:1002C0001A6000225A60072243F8042C2C4AC3F813
:1002D0000C2D62B60AF078FD144B1B68DA0705D5C1
:1002E00028480AF0F5FC284B284A1A60284B1B784E
:1002F0005B0609D5244C254B22689A4204D121483B
:100300000AF0E6FC002323600AF07CFB0DF0B2FC4F
:100310000CF0B2F8FEE700BF0E200540308004402C
:10032000823F04000100002B10D0034014D0034092
:1003300002D0074000E00740800A00207C610100F5
:1003400020F9FF1F800A00208C58002000F4FF1FB6
:100350000000000000E400E05FE400E008ED00E0E1
:100360000050064000400640448004400000030165
:1003700004800440C010050014E000E0FF76010096
:1003800000002020E04818641CE00340A5C3945AF4
:1003900000F00740FFFFFFFFFFFFFFFFFFFFFFFF32
:1003A000FFFFFFFFFFFFFFFFFFFFFFFFFFFFFFFF5D
:1003B000FFFFFFFFFFFFFFFFFFFFFFFFFFFFFFFF4D
:1003C000FFFFFFFFFFFFFFFFFFFFFFFFFFFFFFFF3D
:1003D000FFFFFFFFFFFFFFFFFFFFFFFFFFFFFFFF2D
:1003E000FFFFFFFFFFFFFFFFFFFFFFFFFFFFFFFF1D
:1003F000FFFFFFFFFFFFFFFFFFFFFFFFFFFFFFFF0D
:10040000FFFFFFFFFFFFFFFFFFFFFFFFDEF9FFFF23
:1004100010B5054C237833B9044B13B10448AFF33E
:1004200000800123237010BD800A0020000000001E
:1004300078610100084B10B51BB108490848AFF3BB
:1004400000800848036803B910BD074B002BFBD0A0
:10045000BDE81040184700BF00000000840A0020DB
:1004600078610100800A0020000000000020704731
:10047000704700BFF8B55548554D564C297803785C
:100480002278DFF868E1544F544E120442EA032305
:10049000FF222A700270802022708EF800003870CF
:1004A000B2794F480B4312F00C0FC36002D1B379FD
:1004B000DC063DD4494A9379C3F38103032B40D032
:1004C000464B9A79C2F38102022A42D0434A937979
:1004D000C3F38103022B53D0404A9379C3F38103C2
:1004E000022B61D03D4A9379C3F38103012B51D094
:1004F0003A4A9379C3F38103012B5CD0374B9A7945
:1005000012F00C0F03D19A79D20600D49B79354DA5
:10051000354B2A7853F82240D4B1236820469B6893
:1005200098472B7804EB83046468002CF5D1F8BD60
:10053000B3799806EBD5294A9379C3F38103032B4A
:10054000BED19379D906BBD493799B06DFD4B7E7A4
:10055000F8BD9A79D706B9D49A799606B6D559785E
:1005600001F0020101F0FF020029AFD120211A7031
:100570001A461970937903F00C030C2BFAD1C6E7D5
:100580009379DD06A8D493799C06A5D4537898076F
:10059000BDD5A1E79379DF06AAD593799E06A7D4A6
:1005A00053789D07B3D4A3E79379D9069AD45378A7
:1005B0009B07ACD496E79379DC069FD59379980690
:1005C0009CD453789907A2D598E700BF06C007408E
:1005D00005C0074007C0074009C00740004006406B
:1005E00064580020C45600208456002008C00740EC
:1005F00090F92410104B03604B1C06D0F0B40F4E42
:1006000056F82130984201D0F0BC70470C4F57F893
:10061000213033B18D0000245A1953685460002BE7
:10062000FAD1084C23780022013B237047F821209F
:1006300046F82120E8E700BF004F0100A456002043
:1006400084560020C556002038B590F924506B1C04
:100650001BD00E4B0E4953F825400E4BEDB24FF018
:10066000FF320D701A6084B1AD0002E02C44646862
:100670005CB194F82530002BF8D0236820462C4438
:100680001B6898476468002CF3D138BD845600205D
:10069000C4560020B8F3FF1F704700BF90F9241024
:1006A000104B03604B1C06D0F0B40F4E56F82130AF
:1006B000984201D0F0BC70470C4F57F8213033B14D
:1006C0008D0000245A1953685460002BFAD1084C4D
:1006D00023780022013B237047F8212046F821208F
:1006E000E8E700BF004F0100A45600208456002018
:1006F000C556002090F92410104B03604B1C06D007
:10070000F0B40F4E56F82130984201D0F0BC70473B
:100710000C4F57F8213033B18D0000245A1953681B
:100720005460002BFAD1084C23780022013B23703F
:1007300047F8212046F82120E8E700BF004F0100DC
:10074000A456002084560020C5560020704700BFE4
:1007500010B5002104460BF06DFBB0B1B4F8B43114
:100760009BB2C3B1B4F8B031B4F8B2219BB201333B
:10077000632BC8BF002392B2934207D09A1D04EBAB
:1007800082029BB25060A4F8B03110BDD4F8B831E9
:100790000133C4F8B831BDE810400BF007BB00BF0F
:1007A00010B5044B044640F8103B07F027FE2046E6
:1007B00010BD00BFB84E010010B504460BF07AFB27
:1007C000204610BDB0F8B231B0F8B0119BB289B27A
:1007D0008B4202460FD00133632B86BF00210B46AC
:1007E00099B2063300EB83035868C2F8AC01A2F853
:1007F000B211043070470020704700BF826C62B1B4
:10080000137803F0080303F0FF0003B3D3695069C2
:10081000181A48BF6FF000407047C16CC1B191F821
:10082000313003F0080303F0FF0083B1D1E9042362
:10083000D1E90001101A30B463EB010100256FF01B
:1008400000448D4208BF844200D2204630BC70472D
:1008500008467047836C13B1184606F049BFC06C58
:1008600008B105F05BBD704700B5836C83B063B120
:10087000184601220DF1070106F084FD01280CD174
:100880009DF8070003B05DF804FBC06C28B101229D
:100890000DF1070105F082F8F0E74FF0FF30F1E7C6
:1008A000836C13B1184606F037BEC06C08B105F072
:1008B00045B94FF0FF307047836C13B1184606F00E
:1008C0001DBFC06C08B105F0C7BE704700B5836C92
:1008D00083B08DF8071043B1184601220DF10701CE
:1008E00006F00CFF03B05DF804FBC06C0028F9D0E3
:1008F00001220DF1070105F0AFFE03B05DF804FB26
:1009000070B5044608460D460EF07AF82368024694
:10091000294620465B68BDE870401847002310B4A4
:10092000104C4172026104600372C36041B1194608
:1009300000E0026942F82310427A01339A42F8DC5F
:10094000094B1A680AB90BE01A465369002BFBD110
:100950005061002343618380C380837210BC704761
:100960001860F6E7AC4E0100D857002038B50546B0
:10097000D0F8AC0120B10BF019FA0023C5F8AC3166
:10098000B5F8B241B5F8B031A4B29BB29C420ED0DA
:100990000134642C28BF0024A31D05EB8303586891
:1009A0000BF004FAB5F8B0319BB29C42F0D19BB287
:1009B000A5F8B23138BD00BF464A474B1020108021
:1009C0001B781B0734D5F0B5444E454D454C317866
:1009D0002B782278DFF82CE1434F824042EA032350
:1009E0000B43FF22802132702A7022708EF8001093
:1009F0003970D9073D4A14D51A2393603C4F3D4EB8
:100A00003D4D3E4C3E49107900233B70537093702E
:100A1000D370D360337013712B7023701370087010
:100A2000F0BD1F0705D4DE0606D504239360E5E775
:100A3000704721239360E1E79D0604D45C0604D54A
:100A400016239360DAE79060D8E7180602D50923E9
:100A50009360D3E7D90502D50A239360CEE79F05BB
:100A600002D50D239360C9E75E0502D50B23936081
:100A7000C4E71D0502D51E239360BFE7DC0402D541
:100A800002239360BAE7980402D507239360B5E781
:100A9000590402D506239360B0E71F0402D515233D
:100AA0009360ABE7DE0302D524239360A6E79D03A2
:100AB00002D522239360A1E7DC0202D525239360AF
:100AC0009CE71803F5D45903F3D49B0244BF2323B6
:100AD000936093E70020054002D0074005C007401F
:100AE00006C0074007C0074009C0074064580020FF
:100AF00000C0074001C0074002C0074003C00740D4
:100B000004C0074008C00740002976D02DE9F04F07
:100B10000C469100631883B05D68002D57D06B18A8
:100B20005E68002E50D073185F68002F49D07B1884
:100B3000D3F80480B8F1000F3CD008EB0103D3F8E0
:100B40000490B9F1000F32D009EB0103D3F804A0EF
:100B5000BAF1000F27D00AEB0103D3F804B0BBF1C0
:100B6000000F18D00BEB01035B6863B119440193CC
:100B70004968FFF7C9FF019B93F825201AB11A684D
:100B80001846536898479BF8253023B1DBF80030AE
:100B900058465B6898479AF8253023B1DAF8003058
:100BA00050465B68984799F82530002B35D198F866
:100BB000253063BB97F825301BB13B6838465B682E
:100BC000984796F82530CBB995F8253063B994F855
:100BD000253013B903B0BDE8F08F23685B68204669
:100BE00003B0BDE8F04F18472B6828465B6898476C
:100BF00094F82530002BEDD0EFE77047336830468E
:100C00005B68984795F82530002BE0D0ECE7D8F8E2
:100C1000003040465B689847CCE7D9F8003048463A
:100C20005B689847C3E700BF90F92420531C26D087
:100C30001B4B2DE9F04153F82240D2B2ECB19300A6
:100C4000E1184D68B5B1E9184E6866B1F1184F6802
:100C500037B13B445968FFF757FF97F82530A3B9E0
:100C600096F8253063B995F825301BB12B682846D6
:100C70005B68984794F8253063B9BDE8F081704708
:100C8000336830465B689847EDE73B6838465B68F9
:100C90009847E5E7236820465B68BDE8F0411847C0
:100CA0008456002008B50C4B0C491A680C48022ADF
:100CB00008BF0C4A4FF00003A1F8B43108BFA2F8F6
:100CC000B431094A094B12881A8007F097FB642057
:100CD000BDE808400AF02AB80CFAFF1F684F002050
:100CE000D85400202451002004580020DC57002054
:100CF000264B1B680F2B0CD8DFE803F00C101418E0
:100D00001C2024282C3034383C404408204B214AF5
:100D10001A6070471E4B204A1A6070471C4B1F4ACE
:100D20001A6070471A4B1E4A1A607047184B1D4ACA
:100D30001A607047164B1C4A1A607047144B1B4AC6
:100D40001A607047124B1A4A1A607047104B194AC2
:100D50001A6070470E4B184A1A6070470C4B174ABE
:100D60001A6070470A4B164A1A607047084B154ABA
:100D70001A607047064B144A1A607047044B134AB6
:100D80001A607047024B124A1A60704700FAFF1F40
:100D9000B0540020BD549341103377C0993918C026
:100DA000BE0D68BFCE71153F8D090340CCC96240AE
:100DB00009A7A3407DDBD140C416014154FC174173
:100DC000D0E83041195546419FAB5F41A041764183
:100DD0005E2E864138B50121142009F0C3FD234B56
:100DE0001B68012B3DD00021072009F085FF002161
:100DF0000C2009F081FF00210E2009F07DFF052164
:100E0000072009F08DFF1A4C1A4D05210C2009F01E
:100E100087FF05210E2009F083FF2078002109F0CB
:100E20006BFF2878002109F067FF0521287809F079
:100E300077FF4FF4FA6009F079FF0121207809F07B
:100E40005BFF4FF4FA6009F071FF2078002109F090
:100E500053FF4FF4FA6009F069FF074B074A1A6025
:100E600038BD074807F0CAFABDE700BFA00A002056
:100E700084530020D85300200CED00E00400FA0554
:100E8000D85400202DE9F84F6D4F3B68012B5ED000
:100E9000022B01D0BDE8F88F6A4DB5F8B031B5F836
:100EA000B22199B293B2994238BF6431CB1A1F2B49
:100EB000F0DDDFF8A8A1DFF89CB1DFF888910AF532
:100EC0008047D8460026D5F8AC310024002B39D015
:100ED000DBF8AC3100208BB304F58071534634F954
:100EE000022B23F8042C30F9022B23F8022C8C421D
:100EF00003F10403F3D1D5F8AC0118B10AF056FFA1
:100F0000C9F8AC61DBF8AC0118B10AF04FFFC8F8C2
:100F1000AC610AF5007A5745D5D14B4B986C002847
:100F200075D04FF48042494906F0E8FB013077D094
:100F3000474A136820331360BDE8F88F4548FFF730
:100F400041FCC9E73F48FFF73DFC0446C0E73D4D83
:100F5000B5F8B031B5F8B22199B293B2994238BF21
:100F60006431CB1A3F2B95DD3B4CDFF8D8A0012133
:100F7000112009F0C1FE04F580494FF000081AE085
:100F800009F006FA30460AF011FFC5F8AC812D4889
:100F9000FFF718FC4FF480720146204609F0F8F97B
:100FA000D5F8AC0118B10AF001FFCAF8AC8104F51C
:100FB00000744C4517D0D5F8AC61A4F5807B4FF494
:100FC000807200215846002EDAD11E48FFF7FAFB46
:100FD000DAF8AC6101464FF48072584609F0D8F94E
:100FE000002ED4D0CEE71120002109F085FE164B4B
:100FF000986CD8B14FF48042144906F07FFB013061
:1010000011D013493B680A6820320A6040E7D86C67
:1010100000288DD04FF480420C4905F01DFB85E778
:10102000FFF7D8FE84E7FFF7D5FEEAE7D86C002883
:10103000E7D04FF48042054905F00EFBDFE700BF23
:101040000CFAFF1F684F0020C8540020AC0A002093
:10105000644F002024510020AC0B0020B00A002077
:1010600038B500250824152009F09EFB0CF0D0F9B6
:101070004FF06A510CF020FA014628460CF014F9A2
:10108000013C0546EFD104490CF016FA4FF07851B7
:101090000CF012FA38BD00BF0000B840064A074BFA
:1010A000116853F8211031B1116853F82120013A29
:1010B00043F821207047FEE7805500202855002086
:1010C00010B582B004460DF09BFC00B2012816DD7D
:1010D000B4F9003044F25242934233D012DD44F26C
:1010E000537293421DD044F65212934207D101AA83
:1010F000E01C1C490DF044FC1B4B019A1A600120B6
:1011000002B010BD44F24E429342F8D101AAE01C55
:1011100014490DF035FC154B019A1A60012002B0FC
:1011200010BDE01C01AA0F490DF02AFC019B0F2BFA
:1011300013D90F4B042119600F2009F013FC012073
:1011400002B010BD01AAE01C06490DF019FC094BC4
:10115000019A1A60012002B010BD054AD9B213608D
:10116000EAE700BF184F010094FAFF1FA80A002009
:1011700000FAFF1F8CFAFF1F2DE9F04FDFF898826D
:10118000A04BD8F878549FB04FF47A720A9300239A
:101190008DF82C308DF834301C931D930C92002D5B
:1011A00000F0CF8005F23C46304605F081FF29462D
:1011B000304606F0E1F8DFF87492D9F800100EAF6F
:1011C00021B138460023904A07F02CF91C980028DA
:1011D00000F0D48000252E468DF808604FF0000BFB
:1011E0004FF0FF0A98B101220DF1070106F0CAF88D
:1011F000012817D00BF101031EAA93441BB21D2B2B
:101200000BF870AC17DC1C989B460028EBD11D9B9B
:10121000002B55D0184601220DF1070104F0BEFB4A
:101220000128E7D19DF807200D2A08BF5B4640F052
:10123000C9801D2BE7DD013B9BB21EAA1A4402F8B0
:10124000706C9DF808202F2A04D0012B02D902A827
:10125000FFF736FF1C98C0B1037819070ED4384643
:1012600007F0CCF8002D36D10124684B0A9338469C
:1012700007F0C4F820461FB0BDE8F08FC36942698B
:101280009A1AA9D4002AA7D1E9E71D9B002BE6D022
:1012900093F831201207E2D5D3E904ABD3E9002358
:1012A000BAEB02026BEB03034FF0000B6FF0004A46
:1012B0009B4508BF924538BF5246002A8CD1CEE7E5
:1012C0000BF101031EAA93441BB21D2B0BF870AC4B
:1012D000B1DC9B4699E70B214D480AF0DFFB002368
:1012E0000A2221464B480AF0A7FF4A480AF07AFF33
:1012F000D8F87854484B9DB305F23C46304605F08B
:10130000D7FE2946304606F037F8D9F8001029B143
:1013100044F202233C4A384607F084F81C9B002B19
:1013200049D02146184606F02DF91C9800283AD0DD
:1013300002223A4906F0E2F9384607F05FF8012444
:1013400093E7D8F87C54002D3FF435AF05F5886657
:10135000304604F0A3FA2946304604F0A9FA2AE7F9
:10136000D3F87C54002DD0D005F58866304604F0C3
:1013700095FA2946304604F09BFAC6E71D9D002DDC
:101380007FF428AF142126480AF088FB21480AF090
:1013900029FF0D22234924480AF00EFF22482C463B
:1013A0000AF020FF61E71D980028C5D002221B49E2
:1013B00005F052F9C0E71D980028BDD0224604F080
:1013C000D5FBB2E71EAB03EB0B01542A0BF1010373
:1013D00001F8702C1BB20DD11C9818B14469013C66
:1013E000012526E71D9A12B11468013CF8E74FF079
:1013F000FF34F5E71D2B3FF71EAF0A2A3FF41BAF62
:1014000001E700BFDC4E01001C4F0100B84E010097
:10141000284F010020000020B04A0020344F010076
:10142000384F0100504F01000C5300207856002027
:101430002DE9F041044604200D46164609F062FCF1
:101440008046032009F05EFC0746B8F1000F2AD160
:10145000DFF89C80244AD8F800300121132B11704A
:1014600039DD0133642BC8F800303ADDC82BD4BF16
:1014700005343C3467B91D4F1B4A3B680121132BCF
:10148000117022DD3C2C16DC01233B60013C02E0A4
:10149000164B00221A60AC4209DBB442C8BF2C468E
:1014A0002046BDE8F081124B00221A60E2E7344684
:1014B0002046BDE8F0813B680133642B3B60E5DDED
:1014C000C82BD4BF053C3C3CE5E7C82009F02EFC06
:1014D0003C2CD9DDEFE7C82009F028FCD8F8003013
:1014E000BFE70134C6E700BF584F00203855002041
:1014F000C054002010B5094C204608F005FD2046D8
:10150000012108F057FA2046022108F04DFA002286
:1015100020461146BDE8104008F042BA0C530020A6
:1015200038B5054607F0C2FF1E4C014620460AF0BA
:10153000C3FE2D200AF036FB284607F0A9FF01461E
:1015400020460AF0B9FE2D200AF02CFB284607F0B1
:1015500091FF014620460AF0AFFE012112480AF031
:101560009DFA284607F05CFF014620460AF0A4FEDB
:101570003A200AF017FB284607F060FF0146204694
:101580000AF09AFE3A200AF00DFB284607F064FFA5
:10159000014620460AF090FE2046BDE838400AF099
:1015A00021BE00BF200000206C51010038B5054667
:1015B00009F0BEF9074C2070681C09F0B9F9607099
:1015C000A81C09F0B5F9A070E81C09F0B1F9E070A9
:1015D000206838BD6C53002008B50020FFF7E6FFF7
:1015E0001D4B18600420FFF7E1FF1C4B186008201A
:1015F00009F09EF91A4B1870092009F099F9194B56
:1016000018700A2009F094F9174B18700B2009F094
:101610008FF9164B18700C2009F08AF9144B1860DA
:101620000D2009F085F9134B18600E2009F080F9A0
:10163000114B18700F2009F07BF9104B1860102027
:1016400009F076F90E4B18601220FFF7AFFF0D4B33
:1016500080B2188008BD00BF8CFAFF1F94FAFF1FEC
:10166000A40A00207C55002020540020604F002058
:10167000B454002080FAFF1F88FAFF1F00FAFF1FF2
:101680000CFAFF1FA60A002038B50A4C0B46054687
:10169000C9B2236009F066F96178681C09F062F943
:1016A000A178A81C09F05EF9E178E81CBDE8384093
:1016B00009F058B96C53002008B51F4B0020196879
:1016C000FFF7E2FF1D4B04201968FFF7DDFF1C4BFD
:1016D0000820197809F046F91A4B0920197809F001
:1016E00041F9194B0A20197809F03CF9174B0B20E6
:1016F000197809F037F9164B0C20197809F032F9EE
:10170000144B0D20197809F02DF9134B0E20197880
:1017100009F028F9114B0F20197809F023F9104B23
:101720001020197809F01EF90E4B1988122089B281
:10173000BDE80840FFF7A8BF8CFAFF1F94FAFF1F0F
:10174000A40A00207C55002020540020604F002077
:10175000B454002080FAFF1F88FAFF1F00FAFF1F11
:101760000CFAFF1FA60A002070B5154C154D204637
:10177000022108F019F9144B2A6853F82260304608
:101780000DF03EF93146024620460AF015FD20468E
:101790000AF028FD2046012108F006F92A680B4BC3
:1017A00053F8225028460DF02BF9294602462046D0
:1017B0000AF002FD2046BDE870400AF013BD00BFEC
:1017C0000C5300208053002060FAFF1FC0FAFF1F57
:1017D00030B50F4C83B02046012108F0E5F8002217
:1017E0002046642108F0DCF8FFF73AFC0BF0BAF968
:1017F000012502460B46009520460AF065FD054985
:101800002A46204603B0BDE830400AF0D5BC00BFF0
:101810000C530020604F010008B501210F4808F06B
:10182000C3F8082264210D4808F0BAF80C4B1B6875
:10183000012B0BD008225A21084808F0B1F80622E3
:1018400008490648BDE808400AF0B6BC042206492B
:101850000248BDE808400AF0AFBC00BF0C530020AE
:101860000CFAFF1F6C4F0100644F01002DE9F04F8F
:1018700083B00F46019080680021013016460BF0BE
:10188000DDFD014629480BF0CBFE044630460BF047
:10189000BBFD01460BF008FD064638460BF0B4FDD3
:1018A000014630460BF008FE014620460BF0B8FE1C
:1018B0004FF001084FF07E550746C1464FF0010A30
:1018C0004FF0000B50460BF0A3FD39460BF0F4FD32
:1018D00004460BF0B7FF0BF09BFD014620460BF0D2
:1018E000E1FC294606460BF085FF4FF0874148B1E1
:1018F00020460BF07FFF28B120460CF001F835465A
:101900008046D1461AF1010A4BF1000BBBF1000FE2
:1019100008BFBAF1400FD5D1019809F1FF3208F1A3
:10192000FF3380E80C0003B0BDE8F08F001B374C9C
:101930002DE9F04110298AB00C46074663D02029D2
:1019400004BF012309932246394607A8FFF78EFFFB
:101950000798089E099D0294431C013601350393A4
:10196000049605950BF050FD4FF07E510BF09CFC5A
:1019700026490BF0A1FD804630460BF045FD01469F
:1019800040460BF04DFE4FF07C510BF095FD0646A6
:1019900028460BF039FD014630460BF041FE054666
:1019A00060000BF035FD014628460BF039FE0BF0C8
:1019B00049FF174B01901A46009716491648174DD4
:1019C000174C0AF02BFC174917480B6823F01043FB
:1019D0000B60079A089B120302F47F22C3F30B03E8
:1019E00013432B609DF8243043F0E06323609DF89F
:1019F000243043F08E4303600B6843F010430B60C8
:101A00000AB0BDE8F081032309939CE7001BB74CA3
:101A100000D8B805744F01002000002004F10240F6
:101A200008F0024080F0024088F002402DE9F04FBB
:101A300005469D4E9D4FDFF88C8296F800E02F60A2
:101A4000FF2085F82400DFF8809298F80000BEF1AE
:101A5000060F59F820E04FF000038DB00C4685F8D2
:101A6000253085F8263098BF3370BEF1000F00F0A6
:101A7000AD808E455ED07346810001E09C4259D016
:101A80000B445B68002BF9D1734600E053460B44CE
:101A9000D3F804A0BAF1000FF8D15C603478029753
:101AA00005EB010B4FFA80FCFF23062CCBF804A0BA
:101AB0008DF82DA08DF82EA085F824C08DF82C303F
:101AC000744604D800233370002C00F0B480A24286
:101AD00029D0234601E0934225D00B445B68002BBC
:101AE000F9D104EB010EDEF80440002CF9D1CEF858
:101AF00004200CAB1944BCF1FF3F00F101034FF08F
:101B0000000041F8240C88F800308DF82CC00297B2
:101B100005D0674951F82C2002AB9A4276D028466E
:101B20000DB0BDE8F08F013088F8000028460DB0F8
:101B3000BDE8F08F31780297FF24002306298DF845
:101B40002C408DF82D308DF82E30574C00D8237056
:101B50009645E8D07346810001E09A42E3D00B44F9
:101B60005B68002BF9D18E44DEF804402CB1A64608
:101B70008E44DEF80440002CF9D10CAB46B2194477
:101B80000130731CCEF8042088F8000041F8244C82
:101B900002978DF82C60C2D0454951F8262002AB3F
:101BA0009A42BCD159F82630B00023B11A185368B4
:101BB0005460002BFAD198F800300022013B88F8DD
:101BC000003049F8262041F82620A8E700283AD01E
:101BD000374B96F800E043F82050810005EB010CEC
:101BE000002349F820408DF82D30CCF804308DF8D2
:101BF0002E304FFA80FCFF23BEF1060F029785F8C6
:101C000024C08DF82C307FF65DAF5DE759F82C309D
:101C10004FEA8C0423B11A1953685060002BFAD193
:101C200098F800300022013B88F8003049F82C2059
:101C300041F82C2073E7E8B11D4B49F8202002AA97
:101C400043F8202055E71B491B480B68019243F0DD
:101C500080630B600368194923F0804303601520FB
:101C600008F068FF164B019A4FF40011196098F8BC
:101C70000000ADE70F4C10482368019243F08063E9
:101C8000236003680D4923F080430360152008F0AA
:101C900051FF0B4B019A4FF40011196098F80000A6
:101CA0004FFA80FC8100C7E7BCF3FF1F004F010023
:101CB000A456002004700440007004407504000025
:101CC00000E100E0C5560020845600202DE9F047D1
:101CD00008F0E8FD4FF0FF316748684D08F000F963
:101CE0006749684B0A682B6000236B722B612B726B
:101CF000EB600AB9BDE01A465369002BFBD1556170
:101D00000024614E614F624B6C61AC80EC80AC7220
:101D10005A482B60DFF8C891DFF8C8A1DFF8C88106
:101D200002F06EFE06F1180230460121FEF7F6FDC4
:101D300007F1180201213846A6F8B041C6F8AC41B7
:101D4000A6F8B241C6F8B841A6F8B441C6F800A05A
:101D5000FEF7E4FD4846A7F8B04189E86000A7F81F
:101D6000B241C7F800A0C7F8AC41C7F8B841A7F81E
:101D7000B44189F8084089F80940C9F80C4089F84D
:101D800010400AF063F8434A4349444EDFF85CA12F
:101D900048460AF07DFD4FF00109404688E8A00062
:101DA00088F80940C8F80C4088F8104088F8089076
:101DB0000AF04CF83849374A394D40460AF068FD78
:101DC000384A394B506A394A1A600BF021FBFF2719
:101DD000CAF80000364B86F8254086F824702D4A54
:101DE000344974633046B46386F83C4086F82690E4
:101DF00033600AF04DFD304B85F8247085F825409E
:101E0000244A2E492B60284685F8269085F82740DD
:101E100085F828400AF03CFD324629462848294DDD
:101E2000FFF704FE1B4A284925480AF031FD274BDD
:101E3000184AC3F878442826C3F87C4483F89844A9
:101E400083F89564C3F8A0542149224D18460AF03E
:101E50001FFD214B0F4A1C714FF47A761C739C6452
:101E6000DC649E601D601D491846BDE8F0470AF01D
:101E70000FBD0D6044E700BF0C530020F05300205D
:101E8000D8570020AC4E0100684F0020245100209C
:101E900070540100FCF9FF1FB907000094530020A3
:101EA000485500203CFAFF1F6053002054540100A5
:101EB000AC5501009D060000C0550100F50600006C
:101EC0008854002001100138F1050000B04A0020BC
:101ED0004D070000DC4E0100C8540020A10700009F
:101EE000E0520020144F0100F45200201855002049
:101EF0002DE9F84F424C434FDFF80C810A9E0B9DB1
:101F000081468A462046396893461F4603F0C0F949
:101F10002046002102F0BAFE88FB0B314FEAEB733A
:101F2000C3EBA10101EB8102ABEB420B0BF00F0BFA
:101F30004BEA0111C9B2204602F0A8FE88FB0A3123
:101F40004FEAEA73C3EBA10101EB8103AAEB430A59
:101F50000AF00F0A4AEA0111C9B2204602F096FEC1
:101F600088FB09314FEAE973C3EBA10303EB83015B
:101F7000A9EB41011B0103F0300301F00F011943EC
:101F8000204602F083FE2046012102F07FFE88FBFE
:101F90000731FB17C3EBA10101EB8103A7EB43075B
:101FA00007F00F0747EA0111C9B2204602F06EFEA2
:101FB00088FB0631F317C3EBA10101EB8103A6EB0C
:101FC000430606F00F0646EA0111C9B2204602F0A8
:101FD0005DFE88FB0538E917C1EBA80808EB88010E
:101FE000A5EB410505F00F0545EA08112046C9B2E9
:101FF00002F04CFE2046BDE8F84F03F05BB900BF8D
:1020000060560020E0FAFF1F6766666670B5104CE8
:1020100006460D4620460A2103F03AF9C6F3072189
:10202000204602F033FEF1B2204602F02FFEC5F347
:102030000721204602F02AFEE9B2204602F026FEE1
:10204000204603F037F9B0FA80F0400970BD00BFB8
:102050006056002008B500213020FFF7D7FF00218F
:102060000220BDE80840FFF7D1BF00BF08B5E2215C
:102070003020FFF7CBFF43210220BDE80840FFF7E7
:10208000C5BF00BF0238032810B503DC00285FDAA3
:10209000002400E00C2444F260013020FFF7B6FF7A
:1020A0006C212620FFF7B2FF4FF4F8712820FFF7CC
:1020B000ADFF40F622712C20FFF7A8FF00213C2045
:1020C000FFF7A4FFFFF7D2FF21460420FFF79EFF92
:1020D0004FF498710620FFF799FF00210A20FFF7BF
:1020E00095FF08210E20FFF791FF4FF6FF7110209A
:1020F000FFF78CFF47F67F712220FFF787FF002153
:102100004FF49270FFF782FF4FF48A712420FFF79B
:102110007DFF104C00212A20FFF778FF09210E488F
:1021200009F0BCFC21680D480AF0C6F80B480AF01B
:1021300059F82168202041EA0111FFF767FF0146A5
:1021400006480AF0B9F805480AF04CF8012010BD1D
:102150008400A0E700FAFF1F904F0100200000203C
:1021600010B5074B0446102153F82000FFF7E0FBA1
:10217000044802F031FE2046BDE81040FFF782BF60
:102180003CFAFF1F60560020F0B50D2185B0544C7D
:10219000544809F083FC54480AF024F82168534855
:1021A00003F076F80021514802F070FD00214F48FD
:1021B00002F0D0FE21684D480023072203F062F8A8
:1021C0004A4802F083FD0DF1FF36002504E002F0DD
:1021D00087FD06F8010F0135444802F077FD0446FB
:1021E0004248002CF3D103F065F8072D09D00F21E8
:1021F0003F4809F053FC3C4809F0F4FF204605B085
:10220000F0BD9DF800509DF801409DF804009DF838
:1022100005109DF802209DF80630364FDFF8ECC01F
:102220002E1106EB860605F00F0505EB4606251177
:1022300005EB850504F00F0404EB4505041104EBE0
:10224000840400F00F0000EB4404081100EB800050
:1022500001F00F0101EB400EF6B2C2F301113E7026
:10226000181101EB8101244E02F00F0202EB410232
:1022700000EB8000EDB203F00F038CF8005003EB8D
:10228000400332701D4D1E4A1E485FFA8EF1E4B2C3
:10229000DBB22C700170137097F800E09CF80070AE
:1022A00036782C78017813788DF808E01E3302A870
:1022B0008DF80E308DF80D108DF809708DF80A60CC
:1022C0008DF80C4007F002F90F4B014606481960E3
:1022D00009F0F2FF044809F085FF012005B0F0BDC8
:1022E000E0FAFF1F9C4F01002000002060560020F4
:1022F000AC4F01000853002024550020B4550020A5
:1023000009530020594F0020544F002070530020E3
:102310002DE9F04383B00446FFF736FF50B324B9EC
:10232000174C206803B0BDE8F083154C206807F017
:1023300077F80546206807F081F80646206807F020
:102340008BF80746206807F095F88046206807F06C
:102350009FF88146206807F0A9F8CDF80090019019
:10236000434628463A46314600F0B4FA206803B0A6
:10237000BDE8F08303B0BDE8F04308F0A3BC00BFA4
:10238000544F00202DE9F04F01209DB0FFF7C0FF12
:10239000A14CA24D206007F07BF82B6883422CD023
:1023A0009F4B1B684BB320689E4E07F071F8286066
:1023B000206807F07BF82B689B4902469B480CF08D
:1023C000B9FAD6F87854002D00F0FD8005F23C41B2
:1023D00001230025954A8DF838500EA88DF8395004
:1023E0008DF83A5004F0FEFED6F878048D4B0028A4
:1023F00000F001818D4905F0DBFF0021152008F078
:102400008FFCFEF72DFE804689488A4D06F0BEFC03
:10241000206807F04BF80646206807F039F80746B1
:10242000206807F027F88346206806F0F9FF0D9032
:10243000206807F003F8814620687F4C07F00CF80D
:102440007E4A0A92824640460AF08CFBCDE908019A
:102450007B4B18680AF086FBCDE90601CDF800B089
:10246000606821680D9B019332463B4605900491BC
:10247000CDF80CA07349CDF8089073480CF05AFAC7
:1024800071480CF0BDFA01466F4809F007FB6F4830
:1024900009F0A8FE1AE0654905F08AFF296829B10C
:1024A00040F60123684A6A4805F0BCFF66480CF014
:1024B000A7FA0146644809F0F1FA644809F092FE6F
:1024C0000A2008F033FC2368142B75D8296841B121
:1024D000604C5D4A04F1100040F6012305F0A2FFB4
:1024E000A8B95D4C5D492368574801331A462360FB
:1024F0000CF020FA4B4BD3F878040028CBD1D3F85A
:102500007C040028CAD0494904F08EFCC6E7544830
:102510005449D0F800A0544D544A554B554EDFF85D
:102520006081D6F8009003C9286092E80300A86093
:1025300093E80300102701231FFA89F6AB82E860B5
:10254000EE8250462F610BF0A3F95146A861504628
:102550000AF0AAFE824648460AF05AFF0146504653
:102560000AF0AAFF0BF094F9434AD8F80030E8616A
:1025700092E803005B02A26C6F84760003F12401F1
:102580002E846862AB626960002A3DD010462946FD
:102590002C2205F0B3F80921384809F07FFAD8F861
:1025A00000102A4800230A2209F046FE274809F0B5
:1025B00019FE1DB0BDE8F08FFEF70CFC4FF47A70E9
:1025C00008F0B4FB82E7D6F87C1400293FF415AF7D
:1025D000012301F58861154A8DF869500EA88DF820
:1025E0006A508DF86B5003F06BFFD6F878040D4BF2
:1025F00000287FF4FFAED3F87C0400283FF4FDAE42
:102600000A4904F011FCF8E6E06C0028C3D0294622
:102610002C2204F021F8BEE7544F00204055002042
:1026200094FAFF1FB04A0020BC4F0100085400205C
:10263000C9260000785600207453002034FAFF1F8A
:10264000B0540020C84F0100245400202000002076
:10265000D8540020C8540020845500203050010078
:102660001855002010500100885500201850010016
:10267000205001000CFAFF1F2850010004500100F7
:102680004C53002038B50C4CFFF77CFE0B4B00225E
:1026900020461A60FEF76AF9094B1B680125022BD8
:1026A000A4F8B45100D038BD064C2046FEF75EF9C0
:1026B000A4F8B45138BD00BF684F0020644F00201B
:1026C0000CFAFF1F245100202DE9F0418046012023
:1026D0000E46FFF71DFE244C206006F0E7FE05467F
:1026E000206806F0D5FE0746206806F0C3FEA5F276
:1026F000BC739BB27F2B02D8FAB20C2A28D90023D4
:10270000A8F80030206806F08BFE0746206806F027
:1027100095FE0546206806F09FFEFBB2172B13D8E6
:10272000EBB23B2B10D8C3B23B2B0DD8FB026D0193
:1027300003F4FF2305F4FF552B43C0F34600034386
:102740009BB23380BDE8F08100233380BDE8F08187
:10275000C0B21F28D3D87F0107F4FF57384340EA9F
:1027600043239BB2CCE700BF544F00202DE9F04338
:102770004F4A504BDFF85491DFF854814E4F117897
:1027800098F800401A7899F80060386883B03C23C4
:1027900013FB064613FB012406F042FE054638688B
:1027A00006F04CFEC5EB051500EB8505386806F014
:1027B0007DFE00F14E0338688DF8063006F068FEA5
:1027C0008DF80500386806F055FEA6428DF8040025
:1027D0000AD2AE4249D8AC4247D3A41BC4EB04147E
:1027E000364D3748A40010E0AE4201D9AC421AD3AE
:1027F000C4EB0414A300A6EB061403EB840404F555
:10280000A8342E4D2E4804F5C07410212C6009F018
:1028100045F929682B4809F04FFD2A4809F0E2FCE8
:1028200003B0BDE8F08302A8002598F8003099F8BD
:10283000002000F8085D8DF801308DF8022006F0C8
:1028400045FE38602846FFF763FD3B68984204DD8B
:1028500003F5A83303F5C0733B600F211A4809F054
:102860001DF93868FEF75CFEC2E702A8002599F85A
:10287000002098F8003000F8085D8DF802208DF8EF
:10288000013006F023FE38602846FFF741FD3B6823
:10289000094A984204DD03F5A83303F5C0731360B9
:1028A0000F21094809F0FAF83868FEF739FE94E775
:1028B00020540020604F00205C4F0020485300202F
:1028C0004C500100200000203C500100A40A0020D0
:1028D0007C55002030B583B002AD079C05F8082D6B
:1028E0008DF80200069A8DF804304E3428468DF893
:1028F00001108DF805208DF8064006F0E7FD08F080
:10290000E7F90020FFF704FD014B186003B030BD6C
:10291000AC4A00202DE9F04F002083B0FFF7F8FC0F
:10292000B84BB94E18600121B848DFF85083B84F52
:10293000B84D07F039F80121B44807F03BF82622DA
:102940000021B24807F02CF80322B349AF4809F040
:1029500033FC26221921AD4807F022F80322AF49A3
:10296000AA4809F029FC26223221A84807F018F8C5
:102970000322AB49A54809F01FFC26224B21A3489E
:1029800007F00EF80222A749A04809F015FC2E22F4
:1029900000219E4807F004F8002331689B480A2272
:1029A00009F04AFC2E221921984806F0F9FF00236D
:1029B000D8F8001095480A2209F03EFC2E22322158
:1029C000924806F0EDFF3B6855F823000AF020FD21
:1029D00095490AF025FE0AF0C5F80B4602469349D0
:1029E0008A4809F01BFC2E224B21884806F0D8FFAC
:1029F0008F4B18680AF0B6F80B4602468B4983489D
:102A000009F00CFC8B4B1C68012C00F05E81022C41
:102A100000F0D380884B3F68D3F80090D6F800A030
:102A200050460AF0F1FC834620460AF0F1FC0146CC
:102A30000AF03AFC59460AF03FFD044655F82700D3
:102A40000AF0E6FC014620460AF036FD7B490AF012
:102A50002BFC4FF08E410AF027FC73490AF0E0FD91
:102A600071490AF0DDFD764B764A1B681060012B38
:102A7000054600F005814FF07E5059460AF01CFDD6
:102A80008346D8F80000704C704F50440AF0BCFCEC
:102A9000014658460AF0C4FD6D4B009083461878F5
:102AA0000AF0B6FC6B4B19680AF006FD59468046E1
:102AB0004FF07E500AF0F6FB674B19680AF0FCFCF9
:102AC0004946019058460AF0F7FC019B014618461A
:102AD0000AF0EAFB014640460AF0A2FD5F490AF00F
:102AE000EBFC0AF0D5FE0026019004F110094FF02E
:102AF000000857F8040B44F8048B0AF085FC0146E3
:102B0000834628460AF08AFE294600285DD15846A9
:102B10000AF086FD0AF026F809F032FE0AF04EFBB4
:102B2000034644F8043C00FB0AF00AF06DFC014641
:102B300030460AF0B9FBA1450646DAD100990AF001
:102B40006FFD019D044628460AF05EFC01462046C2
:102B50000AF06EFE26225C21002838D02B4806F0B1
:102B60001FFF05223E49294809F026FB2E225C2141
:102B7000264806F015FF3B4B24482A4683FB0223D8
:102B80002B44E917C1EB234109F096FB012236499A
:102B90001E4809F011FB732137221C4806F000FF84
:102BA000274B1A481A68012A0EBF304930490122C2
:102BB00003B0BDE8F04F09F0FFBA3F682D4A1E4B45
:102BC00052F82790C3F8009028E70021B0E70F489B
:102BD00006F0E6FE052228490C4809F0EDFA2E22FF
:102BE0005C210A4806F0DCFE20460AF02BFE1D4957
:102BF000034681FB03211944DB170448C3EB214141
:102C0000C2E700BF544F00208CFAFF1F0C53002076
:102C100080FAFF1F3CFAFF1F605001006450010062
:102C2000685001006C50010000007A4470500100AF
:102C3000B05400200CFAFF1FE4FAFF1F00003042DE
:102C4000B454002020550020285500205053002067
:102C500088FAFF1F90FAFF1F08FAFF1F0000614566
:102C60007850010007452EC2805001008C500100B1
:102C70009050010098FAFF1F8450010094FAFF1F42
:102C8000164A174B10781B78834286BFC3F118038E
:102C9000C018C01A0AF0BCFB124A134B06461B7838
:102CA0001078834286BFC3F13C03C018C01A0AF0F3
:102CB000AFFB0E49044630460AF0FEFB21460AF0FF
:102CC000F3FA0B490AF0ACFCD7E63F68094A0A4B15
:102CD00052F82790C3F80090A0E600BF20540020CF
:102CE000A40A0020604F00207C55002000007042A4
:102CF0000000B44410FAFF1FE4FAFF1F10B50122D0
:102D000004460849084809F057FA092C03DC302129
:102D1000054806F00BFE21460348BDE8104009F0C7
:102D2000CBBA00BFA85001000C53002038B50446B0
:102D30000D462348012106F037FE2AB20021204823
:102D400006F02EFE204606F0B1FB01461C4809F0B5
:102D5000B3FA2D211A4806F0E9FD204606F098FB4B
:102D60000146174809F0A8FA2D21154806F0DEFDA6
:102D7000204606F07FFB0146114809F09DFA022229
:102D800010490F4809F018FA204606F049FB0928B7
:102D900003DC30210A4806F0C9FD204606F040FB5E
:102DA0000146074809F088FA204606F047FBFFF77E
:102DB000A5FF204606F050FBBDE83840FFF79EBF58
:102DC0000C530020945001002DE9F047AB4D2C68C6
:102DD0002CB1012C00F0828030BFBDE8F087204686
:102DE000FFF796FAA64FDFF810833860FEF782FBF4
:102DF0000A22A449A448A54E09F0DEF9A24809F028
:102E0000F1F90121A04806F0CFFD122221469E488B
:102E100006F0C6FD05229E499B4809F0CDF9D8F879
:102E200000109948013109F047FA01229949964862
:102E300009F0C2F9D8F80020974B934853F82210B4
:102E400023460A2209F0F8F930682821FFF76EFFBF
:102E500038683721FFF76AFF8B4807F0CFF93A68E7
:102E600033689A4236DB8D4C2368002B00F0E880F3
:102E7000022B00F099810D21894808F00FFE894846
:102E800009F0B0F9884B1B68002B00F0CE80012BB5
:102E900000F0DC80854C86480E2108F0FFFD002004
:102EA000FFF736FAFEF73CFB0B21824808F0F6FDEF
:102EB0002068FEF735FB0B217F4808F0EFFD3068F6
:102EC000FEF72EFB0123AE216F482B6007F024F89C
:102ED000FFF7D8FB2C68012C7FF47EAFFDF7D2FF03
:102EE000042007F00FFF0446032007F00BFF14B97E
:102EF000002800F00781714F714B3A681B689A42B5
:102F0000FFF46AAF6F4B684A1B681468B3FA83F327
:102F10005B090020844214BF002603F00106012C47
:102F200014BF002403F00104FFF7F2F95F4B1B68A4
:102F30009842ACBF002004F00100002840F0398125
:102F4000002E40F03681FDF7ADFEFEF7A7F84F4B9F
:102F50005D4F1C68DFF8A481DFF8A4A13046FFF7BD
:102F6000D7F95A4A5A4B1268201A841A24EAE47490
:102F700083FB04232344E017C0EBE32009F0E0FDCA
:102F800009F0FEFB0AF0F2F8524A534B386002FB9C
:102F9000004483FB042323448146E017C0EB631005
:102FA00009F0CEFD09F0ECFB0AF0E0F803011A1A73
:102FB000C31A04EB830492004FF4616303FB0929F5
:102FC000C8F800404C44092CCAF8000024DD314602
:102FD000022007F091FEFFF73DF8404A136823F006
:102FE00010431360642007F0A1FE98F800309AF8AF
:102FF000002039783A4806F0FFF83A4805F0D2FE4A
:103000000121022007F078FE4FF4967007F08EFE43
:10301000354B1868FFF7A4F801233C2202211A4817
:1030200006F0E2FF00232B60D6E6304B254A3168DC
:103030001B6812681D4C0B441A44326023602AE757
:103040000A210E20FEF7E2FF236811E71D4B1A68E4
:10305000002A40F0B880264A33681768134C254987
:10306000104803F5A83202F5C0723B443260236079
:10307000FDF746FC2068FEF753FA0CE7A00A002093
:10308000544F0020985001000C5300205C4F00204A
:10309000A45001006C51010028550020A80A00200E
:1030A000AC50010020000020B45400207C530020CC
:1030B000CC500100DC500100E8500100644F0020BA
:1030C0004C53002094FAFF1FB854002004FAFF1F4D
:1030D000C5B3A291F0F1FFFF8988888880F0024093
:1030E000945300208854002080FAFF1F8CFAFF1FA1
:1030F00048530020BC500100805500201C55002082
:103100001C540020354B364C1B68364A364E374D22
:10311000A06C5B02002103F12407A6F8B4115760EC
:103120009362A5F8B411002836D004F02BFAA06CF5
:103130002B4B48B32C222B4904F0E0FA2C4805F025
:103140005DF901233C2202212A4806F04DFF64204C
:1031500007F0ECFDFEF7CEF907222749254809F0D4
:103160002BF8244809F03EF80121224806F01CFC07
:10317000102222491F4809F01FF81E4809F032F8B2
:103180001C4807F03BF8FEE7D86C0028D6D02C226C
:10319000144903F061FAD1E7E06C0028CED0002298
:1031A000002302F0E3FCC2E70B210E20FEF72EFF06
:1031B00061E60F4805F022F9FDF770FFFFF7E2F82E
:1031C00000233B6008E60E4B31681B680D4C0B4436
:1031D0001A4432602360FFF7C9FA5CE6644F0020AE
:1031E000C854002088550020684F0020245100203A
:1031F000D85400200C530020F4500100FC50010072
:103200008CFAFF1F7C5300202DE9F04F91B0FEF7A0
:10321000E3F9FDF76DFD0821B148DFF84CB3B14E7D
:10322000B14C08F03BFCB14808F0DCFF0020FFF790
:103230006FF8CBF80000FEF75DF90922AC49AD4804
:1032400008F0BAFF0121AB4806F0AEFB10220021C6
:10325000A84806F0A5FB1222A749A64808F0ACFF33
:10326000A44808F0BFFFA54B0121187807F044FDE2
:103270004FF47A7007F05AFD0721A14802F036FAA0
:103280000E219F4802F0BEFA0C219D4802F076FA0A
:103290009C4B964800251D6008F0A4FF934808F059
:1032A000A1FF0521984808F0F9FB01218F4809F09A
:1032B00003F88E4808F096FF01218E4808F0FCFFC5
:1032C000042292498B4808F077FF8A4806F096FF5F
:1032D000642007F02BFD8E4B8DF81D501F7809954B
:1032E0008DF81C70089607AB93E807000AAB83E8DB
:1032F00007008DF829500C958DF828700B9693E8EF
:1033000007000DAB83E807000F9A009204F5916562
:103310000CCB284604F29C4105F0E2F994F8953470
:10332000C4F884547BB11C217A4808F0B7FB6F487D
:1033300008F058FF092278496E4808F03DFF6D48B3
:1033400006F05CFFFEE72946204605F0ADF80028B0
:10335000E9D0D4F87804002800F0FF8504F046FF97
:10336000054608216D4808F099FB29465F4808F09A
:10337000A3FF5E4808F036FF28460AF049F868497E
:103380000AF09AF8D4F87834574A0546002B00F032
:10339000508618790AF038F8014628460AF08CF869
:1033A0000AF076FA0546D4F8840405F073FB0AF0B7
:1033B0002BF85B490AF080F80AF06AFA0A21044601
:1033C000584808F06BFB214600230A22474808F0C2
:1033D00033FF464808F006FFC72D00F2B985494A79
:1033E000002313601121504808F058FB45493F481D
:1033F000096800230A2208F01FFF3C4808F0F2FE8B
:1034000040493C48096800230A2208F015FF0122C0
:103410004649384808F0D0FE00230A2221463548A4
:1034200008F00AFF334808F0DDFE324806F0E6FEF9
:103430004FF47A7007F07AFCFDF79EFEFDF758FC1A
:10344000FEF73AF93A4B1A683A4B9A4200F2C385B2
:10345000394A384B12689A4200F28885374B1A78FD
:10346000172A00F28F85364B1A783B2A00F2958591
:10347000344B1A78172A00F29B85334B1A783B2A73
:1034800000F2A185314B1A68012A05D900221146A4
:103490000C201A6007F066FA2D4B1B68082B00F20F
:1034A000BF852C4B1B780C2B00F2B1852A4B1B6877
:1034B0000F2B00F2A385294A1368013B012B05D984
:1034C000012319461020136007F04CFA244B1B8887
:1034D0009BB2B3F5B77F80F08785224E354668E012
:1034E0001051010080F0FA02B04A002020000020B4
:1034F0001C5101000C53002028510100845300206E
:10350000ECFAFF1F50530020A45001003C51010071
:10351000D85300207451010094510100445101001E
:10352000BD37063A505101005C5101007051010055
:103530008CFAFF1FA086010094FAFF1FA40A002046
:103540007C55002020540020604F0020B4540020FF
:1035500080FAFF1F88FAFF1F00FAFF1F0CFAFF1FF7
:10356000A60A0020544F0020AC4A0020032007F098
:10357000C9FB002860D0082007F0C4FB002844D015
:10358000FDF7B8FFFEF7F0F8FFF7C4F9FEF720F9F2
:10359000FEF742F90020FEF7BBFE3721FFF7C6FB1E
:1035A0009A4806F02BFE0A2007F0C0FB002C40F0E2
:1035B000CC840020FEF7ACFEDBF800403060041B3A
:1035C000B4F5167F4FF00400D4BF0024012407F0A7
:1035D00099FB0028CAD1042007F094FB38B90A20CF
:1035E00007F0A4FB042007F08DFB0028F7D0884AE1
:1035F00088491368096801338B421360A4BF002314
:103600001360B3E70A2007F091FB082007F07AFB6C
:103610000028F7D07E4B1B68072B00F28584DFE87B
:1036200013F0250444003C01DF00C0035101A00059
:1036300072000A2007F07AFB032007F063FB0028E2
:10364000F7D0734A1368013B002B136093DA714B78
:103650001B68013B13608EE76F4B1868FDF7E8FEAF
:103660006D4B1860FDF746FF07226C49674808F06C
:10367000A3FD664808F0B6FD674964480968002361
:103680000A2208F0D9FD3A466549604808F094FDE1
:103690005E4808F0A7FDFFF73DF9FEF799F85B4893
:1036A00006F0ACFD022007F041FB082007F02AFBE2
:1036B0000128074601464FF46162CDD0082007F08B
:1036C00021FB0028FAD0524B00221A6000F02CBCDB
:1036D000544B188880B2FDF7ABFE524B80B2188075
:1036E000FDF708FF0A225049484808F065FD4D4B98
:1036F0004648198889B208F0DFFD444806F07EFD8F
:10370000022007F013FB082007F0FCFA012840F222
:103710006D124FF00001DBD0082007F0F3FA00280B
:10372000D1D1082007F0EEFA0028F5D0CBE73F4BC7
:103730001878FDF77DFE3D4B1870FDF7DBFE092282
:103740003B49324808F038FD3849304809780023B1
:103750000A2208F071FD2D4806F050FD022007F006
:10376000E5FA082007F0CEFA012801464FF00C02D6
:10377000DDD0082007F0C6FA0028A4D1082007F001
:10378000C1FA0028F5D09EE72A4B1868FDF750FED5
:10379000284B1860FDF7AEFE27491C48042208F0AC
:1037A0000BFD1A4808F01EFD224A244B126853F8FC
:1037B000220009F02DFE224909F032FF09F0D2F96A
:1037C00002460B4611481F4908F028FDFFF7A2F8F2
:1037D000FDF7FEFF0D4806F011FD022007F0A6FAE6
:1037E000082007F08FFA01284FF008024FF000017F
:1037F000CAD0082007F086FA00287FF464AF0820BA
:1038000007F080FA0028F4D05DE700BF0C530020D9
:1038100080530020BCFAFF1F8CFAFF1FFC510100EF
:1038200004520100A60A00205C52010088FAFF1F22
:103830006852010080FAFF1F105201003CFAFF1F7E
:1038400000007A4418520100B64B1868FDF7F0FDED
:10385000B44B1860FDF74EFE0622B349B34808F09A
:10386000ABFCB24808F0BEFCAE49B0480968002382
:103870000A2208F0E1FC3A46AD49AC4808F09CFC4D
:10388000AA4808F0AFFCFFF745F8FDF7A1FFA748ED
:1038900006F0B4FC022007F049FA082007F032FADB
:1038A00001280746A34A4FF00001CDD0082007F0B9
:1038B00029FA00287FF407AF082007F023FA002830
:1038C000F4D000E79C4FDFF88882049450E0306821
:1038D00005F0ECFD40F634024FF4FA613860FDF774
:1038E000A7FD3B68C8F80000984224D0286805F07E
:1038F00097FD8146286805F0A1FD8246286805F0FD
:10390000ABFD0446286805F0B5FD0390286805F076
:10391000BFFD0090D8F80030A3F5FA6E2246039B55
:10392000CDF804E051464846FEF7E2FA0020FEF7E3
:10393000EFFCCBF80000FDF7DDFD05227F497B4859
:1039400008F03AFC794808F04DFC0020FEF7E0FC56
:1039500005F0ACFD0146754808F0AEFCFEF7DAFF55
:10396000FDF736FF714806F049FC022007F0DEF94A
:10397000082007F0C7F90128A9D0049C082007F007
:10398000C1F90028FAD0022007F0D0F96C4FDFF817
:10399000C48105944FE0306805F07AFD49460C2259
:1039A0003860FDF745FD3B68C8F80000984225D017
:1039B000286805F035FD8146286805F03FFD824600
:1039C000286805F049FD0446286805F053FDD8F83D
:1039D000001004902868039105F068FD0399009198
:1039E000A0F5FA600190049B224651464846FEF736
:1039F0007FFA0020FEF78CFCCBF80000FDF77AFD83
:103A000006225049494808F0D7FB484808F0EAFB2D
:103A10000020FEF77DFC05F03BFD0146434808F021
:103A20004BFCFEF777FFFDF7D3FE404806F0E6FBC0
:103A3000022007F07BF9082007F064F9012881468D
:103A4000A9D0059C082007F05DF90028FAD00220D3
:103A500007F06CF93C4FDFF8008105944FE03068C7
:103A600005F008FD49461F223860FDF7E1FC3B6880
:103A7000C8F80000984225D0286805F0D1FC81469E
:103A8000286805F0DBFC8246286805F0E5FCD8F8DC
:103A9000003004930446286805F0FAFC0390286877
:103AA00005F004FD03990091A0F5FA600190049BD4
:103AB000224651464846FEF71BFA0020FEF728FC36
:103AC000CBF80000FDF716FD04222049174808F046
:103AD00073FB164808F086FB0020FEF719FC05F082
:103AE000C9FC0146114808F0E7FBFEF713FFFDF79C
:103AF0006FFE0E4806F082FB022007F017F908203F
:103B000007F000F901288146A9D0059C082007F09C
:103B1000F9F80028FAD0022007F008F9DFF83C8015
:103B200004946BE094FAFF1F085201000C5300202C
:103B300004520100805101003C5500202C5201002C
:103B40007455002034520100BC5400203C52010046
:103B5000E853002078550020D45300209C0A002010
:103B6000306805F05DFC17220021C8F80000FDF761
:103B70005FFCD8F800309842074622D0286805F04C
:103B80005DFC8146286805F067FC8246286805F0E0
:103B900071FC0446286805F07BFC0390286805F05A
:103BA00085FC039A0092A0F5FA60019023465246E4
:103BB00049463846FEF79CF90020FEF7A9FBCBF8F2
:103BC0000000FDF797FC05229B499C4808F0F4FA99
:103BD0009A4808F007FB0020FEF79AFB05F020FC4E
:103BE0000146964808F068FBFEF794FEFDF7F0FDED
:103BF000924806F003FB022007F098F8082007F02F
:103C000081F80128ACD0049C082007F07BF800283C
:103C1000FAD0022007F08AF8894FDFF84482059431
:103C20004EE0306805F00AFC3B2200213860FDF7C9
:103C3000FFFB3B68C8F80000984224D0286805F0D4
:103C4000EFFB81462868D8F800A005F005FC044683
:103C5000286805F00FFC0490286805F019FC039013
:103C6000286805F023FC03990091A0F5FA60019003
:103C7000049B224651464846FEF73AF90020FEF7DB
:103C800047FBCBF80000FDF735FC07226D496B4878
:103C900008F092FA694808F0A5FA0020FEF738FB10
:103CA00005F0CCFB0146654808F006FBFEF732FE46
:103CB000FDF78EFD614806F0A1FA022007F036F804
:103CC000082007F01FF80128ABD0059C082007F05A
:103CD00019F80028FAD0022007F028F85A4FDFF828
:103CE000848105944EE0306805F0B6FB3B2200214C
:103CF0003860FDF79DFB3B68C8F80000984224D06F
:103D0000286805F08DFB8146286805F097FB824600
:103D10002868D8F8004005F0ADFB0490286805F04D
:103D2000B7FB0390286805F0C1FB03990091A0F54B
:103D3000FA600190049B224651464846FEF7D8F8A7
:103D40000020FEF7E5FACBF80000FDF7D3FB0722D1
:103D50003E493A4808F030FA384808F043FA002063
:103D6000FEF7D6FA05F078FB0146344808F0A4FACD
:103D7000FEF7D0FDFDF72CFD304806F03FFA02209B
:103D800006F0D4FF082006F0BDFF0128ABD0059C4B
:103D9000082006F0B7FF0028FAD02D4B00221A6049
:103DA000C2E0DFF8C4802FE02A4B1868FDF740FB23
:103DB000284B1860FCF79CFFFDF79CFB0522264969
:103DC0001E4808F0F9F9234B1C48196808F074FAEA
:103DD0001A4808F007FAD8F8000008F0C3FE009768
:103DE0000B460246154808F06FFA3A461B4913483D
:103DF00008F0E2F9FEF78EFDFDF7EAFC0F4806F049
:103E0000FDF9384606F092FF082006F07BFF0128F6
:103E10004FF002074FF00F024FF00001C4D008200E
:103E200006F070FF00287FF44EAC082006F06AFF11
:103E30000028F4D047E400BF445201000C53002096
:103E4000EC5300204C520100445500205452010014
:103E50008053002000FAFF1F245201006C50010023
:103E6000C454002044530020B05400207A4CFDF785
:103E700041FBFDF721FC0D21784807F00FFE21687A
:103E8000774808F019FA764808F0ACF90821754827
:103E900007F004FE744B186808F064FE022702461F
:103EA0000B4600976E4808F00FFA6D4808F09AF933
:103EB00008216E4807F0F2FD23686D4A684852F801
:103EC000231000230A2208F0B7F9654808F08AF9A0
:103ED0001321684807F0E2FD2268674B604853F8F9
:103EE000221000230A2208F0A7F95D4808F07AF9A9
:103EF0000A226249624808F05FF9614808F072F9E5
:103F000001215F4805F050FD13225E495C4808F02E
:103F100053F95B4806F072F90120FEF7F9F94FF406
:103F2000FA6006F003FF0124574F3B78002B3FF463
:103F300027ABFDF7C1FB4FF0000300203B70FEF7FD
:103F4000E7F9CBF80000FFF71BBB11B0BDE8F08F1D
:103F5000474BC83D1D60FFF745BAD4F87C040028E4
:103F600073D002F01BFF0546FFF7FBB93C23474A1D
:103F7000194604201360FDF787FB454B1A78172A72
:103F80007FF671AA0022114608201A7006F0EAFC9A
:103F9000404B1A783B2A7FF66BAA00221146092073
:103FA0001A7006F0DFFC3C4B1A78172A7FF665AAD8
:103FB000002211460A201A7006F0D4FC374B1A78FA
:103FC0003B2A7FF65FAA002211460B201A7006F0EA
:103FD000C9FCFFF757BA3C23314A19460020136049
:103FE000FDF752FBFFF734BA2E4A002313801188E5
:103FF000122089B2FDF748FBFFF76FBA04232A4A63
:1040000019460F20136006F0ADFCFFF754BA0123E8
:10401000264A19460E20137006F0A4FCFFF746BA94
:104020000423234A19460D20136006F09BFCFFF77A
:1040300038BAD2F87C345BB193F83D340120984013
:1040400009F0E2F90146FFF7A8B90546FFF789B97B
:104050000021FFF7A2B900BF80550020A051010048
:1040600020000020B051010020550020BC5101006B
:1040700050530020C851010028550020DC51010098
:104080000C530020E8510100584F002094FAFF1F04
:10409000A40A00207C55002020540020604F0020FE
:1040A0008CFAFF1FA60A002000FAFF1F88FAFF1FE4
:1040B00080FAFF1FCC4ACD4B1168CD482DE9F04F57
:1040C00019605768CB4ECC495F600468CB4ACC4D31
:1040D000DFF898E30A27142337608FB00B6040F2B3
:1040E000EE27137843B12B78DB0705D50368DEF89C
:1040F00000105B1A0E2B08D8036811781B1B0029CF
:1041000000F0DC81B3F5FA6FEBD94FF4FA7006F0EA
:104110000DFEBC4FBC4DDFF858A3DFF85883DFF825
:10412000589301211120002406F0FAFD01211120ED
:1041300006F0E2FD3C60642006F0F8FD4FF43053D9
:104140003B60642006F0F2FD4FF434533B60642082
:1041500006F0ECFD2968AD48AD4F23460A2208F071
:104160006BF8AA4808F03EF84FF47A7006F0DEFDCE
:104170002968A64823460A2208F05EF8A34808F0FA
:1041800031F84FF47A7006F0D1FD23460A222968EF
:104190009E48A04D08F050F89C4808F023F89E482F
:1041A00000F01AFE2146152006F0BAFD204606F062
:1041B000D5FA0121022006F0B3FD0121022006F00C
:1041C0009BFD0121142006F0ABFD0121062006F025
:1041D000A7FD2146142006F08FFD0121062006F0E0
:1041E0008BFD0221042006F09BFD0221032006F036
:1041F00097FD0221082006F093FD01233C220221B5
:10420000864805F0F1FE8C2006F090FDFDF772F96E
:104210000A228349814807F0CFFF804807F0E2FF78
:104220007E4805F0EBFF6E217E4807F03BFDDAF893
:10423000004058F8240009F0EBF838602046FDF7FC
:104240008FFFFEF7E1FFDAF8004058F8240009F08C
:10425000DFF838602046FDF783FFFDF74BF9D9F80A
:1042600000303B2B06D9B3F5967F34BF3C234FF487
:1042700096732B606C4CDFF804820120FEF748F83F
:1042800029682288694D90FBF1F392B201FB03117A
:1042900005FB0213B4F800E0D8F80010644CDFF816
:1042A000E0C1644D206019441FFA8EF2CCF8001072
:1042B0002B60002A40F0068100211220FDF7E4F96E
:1042C000D8F800005C4EDFF8BCA1DFF8BCB109F003
:1042D0009BF8396809F0F0F84FF06E5109F0ECF8EE
:1042E0004FF0745109F0E8F808F03CFC08F0C0F910
:1042F0000022524B08F08AFC08F038FF504AD9F8E7
:10430000003017684F4ADF1B4F4B126827EAE777E8
:1043100083FB071302FB00F23B44F8173260C0EB4B
:10432000E32008F00DFC08F02BFA08F01FFF474EC1
:10433000474BCAF8000006FB007683FB0623334494
:10434000F017C0EB631008F0FBFB08F019FA08F057
:104350000DFF404FA0EB0012034606EB8206102132
:104360003D48CBF800303E6007F098FBDAF80010CB
:10437000264807F0A1FFDBF80010244807F09CFF57
:104380003968224807F098FF204807F02BFF0821E2
:10439000324807F083FBD8F800101C4800230A229B
:1043A00007F04AFF194807F01DFF08212C4807F0C5
:1043B00075FB0A220023D9F80010144807F03CFFCF
:1043C000124807F00FFF0E21264807F067FB206810
:1043D000FDF7A6F80C21244807F060FB2868FDF7DC
:1043E0009FF82B68246851E05880044074530020E3
:1043F000D8560020D853002084530020BC570020FA
:10440000D457002010D0034000D0034020000020EB
:104410001855002084FAFF1F605600200C5300201E
:10442000745201000082FF1FA60A00208051010083
:10443000544F00205C4F00204C53002000004040AF
:1044400004FAFF1F0CFAFF1FC5B3A291F0F1FFFFA2
:10445000898888881C550020A8520100BC520100A0
:10446000C8520100CC500100D452010084580020F1
:1044700080FAFF1F3CFAFF1F94FAFF1F8CFAFF1F00
:104480007C530020B85400201C54002072481C1B90
:10449000152107F003FB2146704807F00DFF6F4818
:1044A00007F0A0FE6E496F4B00204FF0FF3208600E
:1044B0001A600FB0BDE8F04FFCF7F0BDBB427FF6CD
:1044C00010AE22E60021022006F016FC0021142086
:1044D00006F012FC2A6823685F48D31A152103935B
:1044E00007F0DCFA03995D4807F0E6FE5B4807F049
:1044F00079FE4FF01E0BFCF7FDFF05225A495B4881
:1045000007F05AFE594807F06DFE0120FDF700FF45
:1045100001212060554805F047FA052254495348C7
:1045200007F04AFE514807F05DFE1A212868FEF7A1
:10453000FDFB37212068FEF7F9FB4C4805F05EFED5
:104540004FF47A7006F0F2FBBBF1010BD3D1039B61
:104550003C2B28DDAE21454805F0DEFC0121112071
:1045600006F0CAFB002211461423424804F044FE20
:104570000A2006F0DBFB0021112006F0BDFB3E48BF
:1045800004F010FC0121062006F0B6FB0120FDF727
:10459000BFFE00212060062006F0AEFB2B682268DB
:1045A0009B1A3C2BD6DC0121022006F0A5FB012141
:1045B000142006F0A1FB0121062006F09DFB4FF41C
:1045C0007A7006F0B3FB07212C48DFF8B4B001F095
:1045D0008DF80E21294801F015F90C21274801F02A
:1045E000CDF896F800C0DFF89CE08DF814C00026E6
:1045F0008DF815600796CDF818E005AB93E8070035
:1046000008AB83E807008DF821600A968DF820C07A
:10461000CDF824E093E807000BAB83E807000D9A80
:1046200000920BF591660CCB30460BF29C4104F0E6
:1046300057F89BF89534CBF8846423B1DAF800007E
:10464000FDF78EFD38E63146584603F02DFFDAF8C7
:104650000000FDF785FD2FE68052010020000020BC
:10466000A00A002040550020985201000C53002061
:10467000A05201009453002088540020ECFAFF1F40
:10468000B04A002080F0FA020020704700207047F6
:1046900038B5242908BFC2800C46017A0E48154659
:1046A00000F046FCC4F307210B4800F0EFFAE1B23A
:1046B000094800F0EBFAC5F30721074800F0E6FAD5
:1046C000E9B2054800F0E2FA034800F0F3FDB0FA61
:1046D00080F0400938BD00BF6056002038B5012584
:1046E00004460571334800F077FB052006F01EFBF9
:1046F000204644F260023021FFF7CAFF20466C22B8
:104700002621FFF7C5FF20464FF4F9722821FFF755
:10471000BFFF204640F622722C21FFF7B9FF20464A
:1047200044F246423C21FFF7B3FF204640F23712E5
:104730002421FFF7ADFF204644F2FF023021FFF7AE
:10474000A7FF732202212046FFF7A2FF4FF4C87093
:1047500006F0ECFA204641F61D522E21FFF798FF95
:10476000042211462046FFF793FF20464FF498722B
:104770000621FFF78DFF204610220A21FFF788FF50
:10478000204600220E21FFF783FF204643F63C42DD
:104790001021FFF77DFF204647F67F722221FFF7A9
:1047A00077FF204636222421FFF772FF65722846E4
:1047B00038BD00BF6056002038B50546F1B18029EC
:1047C00003799ABFC1F1800444EA0424002433B978
:1047D000224628462221BDE83840FFF759BFC2884B
:1047E000002322F0100203712421FFF751FF22461B
:1047F00028462221BDE83840FFF74ABF0123037154
:1048000047F67F722221FFF743FFEA8842F0100249
:10481000284692B22421BDE83840FFF739BF00BFD7
:104820000B4610B507490446184608F045FE0649F0
:1048300008F03AFD09F02CF801462046BDE810408A
:10484000FFF7BABF00000143EE7CFF3E10B50446FF
:1048500019B1012911D0002010BD55222021FFF7E8
:1048600017FF0028F7D0E28842F00402204692B2F7
:104870002421BDE81040FFF70BBF40F273122A213C
:10488000FFF706FF0028E6D0882220212046FFF708
:10489000FFFE0028DFD0E288204622F00402242117
:1048A000BDE81040FFF7F4BE10B5044607F0FEFB6C
:1048B000204610BD024A0349034807F0E9BF00BF84
:1048C000FCF9FF1FA9480000B85500201B4A1C4BEB
:1048D00011681C48096970B499421279027009D2B2
:1048E000194A127832B3194A4FF08041116003F52A
:1048F000807402E01C46A3F58073154A15491268BE
:104900000D68AAB1A5B1144E3088402810D84100D6
:104910000A444030294402320231308033F9040B1A
:1049200022F8020F9C4233F9020C21F8020FF5D84D
:1049300070BC704703F58074DFE700BFC8550020E6
:10494000B8F2FF1F1F800040C255002008E200E0BF
:10495000D0550020C4550020C0550020F8B50646AB
:1049600007F0D0F90446E8B107F0CCF90546002875
:104970003AD072B61F4B1A887F2A19D8002C31D032
:104980001D490A6842B162B6204607F00FFA284670
:10499000BDE8F84007F00ABA18480C601A800560B4
:1049A00062B6F8BD054672B6124B1A887F2AE5D961
:1049B000114A12491768146000220C681A800D60B1
:1049C00062B63946304607F01BFA384607F0EEF972
:1049D00030462146012207F013FA2046BDE8F84090
:1049E00007F0E4B962B6F8BD204607F0DFF92C46BF
:1049F000BFE700BFC0550020D0550020C45500209F
:104A0000F8B5284C284E2046012107F0EBFA00F0BB
:104A100083F8264B264A27484FF4806119602368A3
:104A200000211A6099802279186102F1804202F512
:104A3000043240F20110D8809E614FF4807502204C
:104A400006278E26DD82D960DD8398609F83988259
:104A50001170167007F06CFA1749184B2279184F2D
:104A600008701A7039682279164C174D174E41F0AC
:104A7000124141F00101531139609B00206803F19C
:104A8000604302F1100703F5614302F01F020121A8
:104A900040F0104001FA02F2206045F827601A60E9
:104AA000F8BD00BFC855002000FEFFFF14B0044051
:104AB000A0F00240B8F1FF1FC25500201B8000404B
:104AC00080F0024000F0024000F4FF1FCD480000DB
:104AD000024A0349034807F0DBBE00BFFCF9FF1F91
:104AE000A9480000C8550020024A0349034807F0BE
:104AF000CFBE00BFFCF9FF1FA9480000D45500201D
:104B0000024A0349034807F0C3BE00BFFCF9FF1F78
:104B1000A9480000DC550020284B29491A6829487B
:104B200042F400421A600A6842F002020A601A68FF
:104B300042F002021A600368002B3DDB224B1B6827
:104B4000002B39DB214A4FF0864313601368002B9A
:104B5000FCDBF0B51E4C1F48DFF8ACE01E491F4BD4
:104B60001F4A204F204E214D41F2100CC4F800C0C6
:104B7000002404600120CEF80000DFF890E0C1F8C6
:104B800000E04FF480311960194B1360DFF880E0CA
:104B9000184A3A60346028601748CEF80000174C75
:104BA000B9671748174946F8503C4FF4C0632A616B
:104BB000236003600B60F0BD704700BF3C80044081
:104BC0004080044000F0024080F0024000F10240CA
:104BD00004F1024060F0024008F002400CF0024094
:104BE00010F0024014F00240E0F0024084F0024075
:104BF0001B0F0100000F0F0F0300004708B0044017
:104C00000CB0044018B0044004F002400300000758
:104C100088F00240024A0349034807F039BE00BF4A
:104C2000FCF9FF1FA9480000E4550020024A03498F
:104C3000034807F02DBE00BFFCF9FF1FA948000084
:104C4000EC550020024A0349034807F021BE00BF8B
:104C5000FCF9FF1FA9480000F4550020024A03494F
:104C6000034807F015BE00BFFCF9FF1FA94800006C
:104C7000FC550020024A0349034807F009BE00BF63
:104C8000FCF9FF1FA9480000045600200A4B1B78BE
:104C900013B90A4B1B786BB1094A1378202B07D83C
:104CA00010B4581C074C1070E154012010BC704720
:104CB00001230371002070477256002035560020F2
:104CC0007356002014560020704700BF024A034B61
:104CD00010781B78C01A704771560020705600205B
:104CE000064A074913780978994204D90548591C9E
:104CF000C05C117070474FF0FF3070477056002055
:104D00007156002038560020054B064A1B78127851
:104D10009A4286BF044AD05C4FF0FF30704700BF14
:104D200070560020715600203856002070B50D4B8B
:104D30001B78144613B90C4B1B788BB10B4E35788E
:104D4000C5F12103A34202D201221C460271084888
:104D500022462844254405F01BFB3570204670BDD3
:104D6000184670BD7256002035560020735600203C
:104D700014560020124BDB7803F020034BB1114A8C
:104D800013780133DBB2012B137012D9122005F016
:104D900055BF10B5122003F0FF0405F04FFF0A4B7A
:104DA0001B685BB109490A4A0C701078BDE81040D5
:104DB0001847084B1B78002BE8D0704710BD00BF88
:104DC000006006405C5600201056002070560020FF
:104DD00071560020355600200D4A0E4BF0B50020CC
:104DE0000D4C10702268DFF838E00C4F42F04002A2
:104DF00022604FF419712726042520248022987000
:104E0000CEF8001039605E709D715C719A70F0BDD3
:104E100035560020006006403480044008A004405D
:104E20000CA0044010B5384CE378DBB2D80623D58B
:104E300010225906E2701ED503F0040303F0FF02AE
:104E4000002B33D0314B32491A68324C00230B709F
:104E50002370002A3BD090472378002B37D02E4B6D
:104E60001B78294A2D49D02494701371264B0120B8
:104E700002220870DA7010BD5A06DDD4A27802F062
:104E8000100202F0FF0042B313F001031BD12349CB
:104E900020480A780078904281BF1F4B501C9B5CD1
:104EA00008702371184BD0229A7008E01C48164BEA
:104EB000174902700120C02208709A701B79124BAA
:104EC0000222DA7010BDC023A3702379F7E71249DC
:104ED000002301220B702270C3E7124B1249187095
:104EE0000322122005F02EFE0D4923790A781F2A8D
:104EF000DBB2E4D8064800780028E0D00B4C501C08
:104F0000A3540870DBE700BF00600640585600203D
:104F10000C560020735600201456002074560020B2
:104F2000715600205C560020754D00003856002058
:104F30000548064A10B40123054C0370490013705C
:104F4000217010BC704700BF7256002073560020BD
:104F5000145600202DE9F047584C1223E370A37833
:104F600003F0200382B0002B54D0B423DFF860A1FB
:104F7000A370DAF80020514C0020E378DBB29342B2
:104F800018BF01209F061A46F7D5002840F08D80F3
:104F90004B4B1B78002B34D003F1FF3C5FFA8CFCA9
:104FA0000027DAF80020DFF82CE1444D0CF1010C69
:104FB0003C464FF002081EF8013F2B715FFA87F95B
:104FC000104601E09E0608D5EB78DBB293421CBF89
:104FD000184601249E071A46F4D585F80380EE781A
:104FE000F6B2B3420EBF024632460124F30633D472
:104FF000B30631D5F30744D401376745DBD1002C24
:105000004AD1002000292ED12E4B00221A7002B066
:10501000BDE8F0872C4DDFF8B8A003F0FF022B6845
:105020000093009EDAF8000005E02B680193019BD5
:105030009B1B0F2B1BD8E378DBB2834218BF0122E6
:1050400013F0200F1846F0D192BB20481B4B0024D0
:10505000B02204709A708CE70CBB184B80229A70B7
:1050600004200029D0D0154B80229A70CCE7CAB911
:10507000124B00218022042099709A7002B0BDE882
:10508000F087C4B90D4BB9F1000F4FF080020CBF8F
:10509000022003209A70B7E7CAF80020B1E7CAF8E7
:1050A0000020DAE7CAF80000E2E7CAF800306FE74C
:1050B000CAF80030C9E7CAF80020E3E700600640FC
:1050C0007356002072560020D85600203556002016
:1050D000E8FAFF1F135600202DE9F04F624E634D92
:1050E000DFF8989100201224287089F80000F470ED
:1050F000B07800F02000002855D0B420DFF880A15F
:10510000B070490041F00101574EC9B23171DAF86F
:10511000000000240546F178C9B281421CBF0D464B
:1051200001248F070846F6D5002C40F091804E48A8
:105130000224C470C078C0B2884218BFCAF8000008
:1051400010F0110076D1002A44D0012A78D0464DC3
:10515000474FA021A97002F1FF3BA2F1020E29796D
:10516000DAF8004006465FFA8BFC5FFA8EFE4FF0DD
:105170000208E978C9B2A14218BF01200C46A10774
:10518000F7D5711CB64585F80380CEB22AD02979AF
:1051900007F8011F6645ECD108B1CAF80040354E4A
:1051A000E34610462AE0DFF8D8A0DAF8004000F025
:1051B000FF05F078C0B2A04218BF01250446A00642
:1051C000F7D4002D47D12C4C274800252570B0245A
:1051D000847096E7002B244B0CBFA02280229A708B
:1051E000BDE8F08F002839D11F49224EA8208870D1
:1051F000097906F80E105FFA8BFB1046DAF80040CA
:10520000194F0025F978C9B28C4218BF01250C4608
:10521000A107F7D52DBB1449B0240225CD708C70A1
:105220000C7906F80B400BB180238B7089F80020B5
:10523000BDE8F08F0C4B80229A700020BDE8F08F03
:1052400009490C4EA8248C70834609791046D5E78D
:10525000CAF800506BE7CAF80040B4E7CAF800404B
:10526000C2E7CAF80040D6E700600640705600204A
:105270003756002038560020355600207156002041
:10528000E8FAFF1FDBB2D2B2C9B2FFF725BF00BFF9
:105290000548064A10B40123054C037049001370F9
:1052A000217010BC704700BF72560020735600205A
:1052B000145600200121FFF74DBE00BF044B054AE4
:1052C0001A604FF47A71002299601A711A7370474C
:1052D000605600207C54010010B4047F4160022C11
:1052E000C26002D010BC06F0FBBE836810BC184739
:1052F0002DE9F0410468E56815F0807F794D25605F
:1053000052D1DF0740F1B380002900F0E3800D782F
:10531000012B18BF45F000456563013190F82480EA
:1053200003F1FF3C48EA0828BCF1000F00F0A88018
:1053300021B14D7811F8028B45EA082845682E7A8C
:10534000BCF1020F06F1FF364FEA06360CBF48F0FB
:10535000805548F01045B6B26563ACF1020C08E028
:105360000AB114700132013B05F47045B54216D9FB
:105370000468E56A15F0F00FF6D0A46B13F0010F86
:1053800017464FEA242EEBD11AB107F802EB5470FE
:105390003A4605F47045B542A3F10203E8D8BCF1E2
:1053A000000F6DD00468C3E7DD074CD5002900F07D
:1053B00089800D78012B18BF45F0004565630131E8
:1053C00003F1FF3E90F824C0BEF1000F41D029B197
:1053D00091F801C00D78023145EA0C2C45682E7A0F
:1053E000BEF1020F06F1FF364FEA06360CBF4CF055
:1053F00080554CF01045B6B26563AEF1020E08E080
:105400000AB114700132013B05F47045B54215D95B
:105410000468E56A15F0F00FF6D013F0010F174697
:10542000A46BEDD122B107F8024B241254703A4616
:1054300005F47045B542A3F10203E9D8BEF1000FAF
:1054400007D00468C3E79E4690F824C0BEF1000F61
:10545000BDD11BB30468E16A11F0F00FFBD0A16B62
:10546000DC071DD50AB111700132013BF1E790F85C
:1054700024809C4648EA0828BCF1000F7FF458AF0E
:1054800063B10468E16A11F0F00FFBD0DE07A16B95
:105490000FD50AB111700132013BF1E7BDE8F0818F
:1054A0002AB114460D1204F8021B55702246023B25
:1054B000CFE72AB114460D1204F8025B5170224660
:1054C000023BDDE790F82450012B18BF45F0004562
:1054D000656375E790F82450012B18BF45F000452F
:1054E00065631BE700041F80F0B4464B464A186B07
:1054F000DC6A01791170454922790A709A6A00794B
:105500000870002A46D05968C9688A423ED8216886
:10551000CC8B240402F1FF3065D4C0F30E00C883A5
:10552000C88B80B2C882196B0968C88B000452D43A
:10553000C2F30E00C883C88B002480B212F1FF3280
:10554000C88218BF01229C62D96A2E4809680D687A
:1055500000F12404A54236D00068C46814F0804FDE
:105560000C680D6815BF248824780235013544F095
:1055700000440D604463196B254B0979197021496A
:1055800012B1CA6A12791A70F0BC7047521A9A6244
:105590000122D9E7586B196805681E4C0A63CC6272
:1055A000CC682D681C4E24F080440327B542CC60A3
:1055B00083F825701FD1037F4260022BC2601ED08A
:1055C000F0BC06F08DBD016890F82400CC6840F076
:1055D00000404863CFE7CC8BC2F3080004F47E445C
:1055E0002043C883A7E7CC8BC0F3080004F47E44B3
:1055F0002043C88394E72B461146F0BC18478368C4
:10560000F0BC1847ECFAFF1F1F8000401C800040D0
:105610001B80004000000FFFD952000090E80C00F2
:10562000F0B41C6859682568164F174E294321604D
:10563000164D17491760D66015611160417A154AF9
:105640005C180A3194F8244053F8215002EBC4014D
:1056500049680D60017A5C1803EB8101247ECD69F5
:1056600002EBC40149680D60817A581803EB81038D
:1056700090F83000596B02EBC002F0BC536819601F
:10568000704700BF01401F00011000380110007872
:1056900000001F80845B01004268036805CA10B4E3
:1056A000046822430260D868840100F0E06205D5F6
:1056B000080900F4706021F470410143D868114377
:1056C000814209D01A68500408D40748186041F094
:1056D0008040D96018611A6010BC704741F0804268
:1056E000D96010BC1A61704701401F00204A43680E
:1056F0009A42F0B40FD0427A1A4492F82420914290
:1057000007D093F824408C4215D093F825408C4262
:105710002AD0F0BC70470B2907D00729EBD1154CD4
:10572000227842F001022270E5E7124C227822F042
:1057300001022270DFE7002421461E685D6836689A
:105740002E420FD00C4D05EBC202002756685A18A6
:10575000376092F8242005EBC2050A316A6853F8D5
:10576000213013604472D4E701242146E5E700BFED
:10577000245501001D580020845B01001E4A436827
:105780009A42F0B40CD0027A1A44127E914205D0AB
:105790001C7E8C4214D05C7E8C422AD0F0BC7047B8
:1057A0000C2907D00829EED1144C227842F00202CD
:1057B0002270E8E7114C227822F002022270E2E720
:1057C000002421461E685D6836682E420FD00C4DBD
:1057D00005EBC202002756685A183760127E063160
:1057E00005EBC20503EB81036A685B681360047212
:1057F000D4E701242146E5E7245501001D58002087
:10580000845B0100204A43689A42F0B40FD0827A48
:105810001A4492F83020914207D093F830408C42DD
:1058200015D093F831408C422BD0F0BC70470D2935
:1058300007D00E29EBD1154C227842F004022270D9
:10584000E5E7124C227822F004022270DFE7002400
:1058500021461E685D6836682E4210D00C4D05EB5F
:10586000C202002756685A18376092F830200C316F
:1058700005EBC20503EB81036A685B681360847201
:10588000D3E701242146E4E7245501001D580020F8
:10589000845B01000BB1FFF72BBD704710B50446C8
:1058A00000F03CFD002384F8313084F8333010BD23
:1058B00090F831200AB10020704738B504460D46F3
:1058C0001146382208F0E2FD4023012084F83130EF
:1058D00084F83300256238BDF0B50878202803D15C
:1058E00011F8010F2028FBD051600878002851D012
:1058F0002F282BD05C2820D0A0F12204E4B21D2C4C
:105900001DD9DFF894E04E1C00247C28A0F120056E
:10591000374612D05E2D10D816F8010BA0F12205E3
:10592000EDB2013478B32F2811D05C282EFA05F798
:1059300003D01D2DE9D8FD07E7D50020F0BD164D99
:1059400025FA04F4E607DCD50020F0BD00240F1989
:105950003E4625462F2002E016F8010F013520288B
:10596000FAD02F28F8D02944196044B1394611F8EB
:10597000013D2E2B01D0202B08D1013CF7D1204630
:1059800010600120F0BD1F600F19EFE7FF2CF6DD5E
:105990000020F0BD1960F3E7010100352DE9F04763
:1059A00090F83330DD0782B0044640F1AD805806F0
:1059B0000D46164640F1B380D4E90001D4E9042332
:1059C00010EB060841F100094B4508BF4245C0F005
:1059D000AC80002E00F0AB80A146F9E80623B0466B
:1059E00050E013436CD194F831305A064CBFD0F8D4
:1059F0002C14E169A16190F83DC4D0F82424023947
:105A00007F0A01FA0CFEB9187144BAF1000F43D1B4
:105A1000B8F5007F40D3D0F8142291423CD0B8F5BD
:105A2000806F54D34FF0010A0AFA0CFCC7EB0C0745
:105A30004FEA582ABA4528BFBA4691424FEA4A2748
:105A40000CD80AEB0103934208D900F503700191C9
:105A500000F0B2FF002857D0206A0199D0F838042E
:105A600053462A4603F058F800284DD03846002106
:105A7000D4E9002312184B41B8EB07083D44C4E9B0
:105A8000002354D0206AD0F830741740C7F3080AB6
:105A9000002FA6D0A169AEE700F50370002200F048
:105AA00023FF88B3CAF50077474528BF474600EB78
:105AB0000A013A46284604F06BFC38460021D7E735
:105AC00094F833305B060FD5A169013192E7D0F825
:105AD000380401232A4603F01FF8A8B14FF40070E0
