:1000000000800020BD010000916C0000556C0000D4
:10001000556C0000556C0000556C0000556C0000DC
:10002000556C0000556C0000556C0000916C000090
:10003000916C0000556C0000916C0000456C000054
:10004000916C0000916C0000916C0000916C0000BC
:10005000916C0000916C0000916C0000916C0000AC
:10006000916C0000916C0000916C0000916C00009C
:10007000916C0000916C0000916C0000916C00008C
:10008000916C0000916C0000916C0000916C00007C
:10009000916C0000916C0000916C0000916C00006C
:1000A000D1340000916C0000916C0000916C000054
:1000B000916C0000916C0000916C0000916C00004C
:1000C000916C0000916C0000916C0000916C00003C
:1000D000916C0000916C0000916C0000916C00002C
:1000E000916C0000916C0000916C0000916C00001C
:1000F000916C0000F98B0000916C00005D93000092
:10010000916C0000D9980000916C0000916C000087
:10011000916C0000916C0000916C0000916C0000EB
:10012000916C0000916C0000916C0000916C0000DB
:10013000916C0000916C0000916C0000916C0000CB
:10014000916C0000916C0000916C0000916C0000BB
:10015000916C0000916C0000916C0000916C0000AB
:10016000916C0000B1740000916C0000916C000073
:10017000916C0000916C0000916C0000916C00008B
:10018000916C0000916C0000916C0000916C00007B
:10019000916C0000916C0000916C0000916C00006B
:1001A000916C0000916C0000916C0000916C00005B
:1001B000916C0000916C000071810000574B4CF273
:1001C000205210B51A804DF628121A8000BF00BFC9
:1001D00000F042FB524B4FF010621A60514A9A6095
:1001E000514ADA60A3F53043203B1A6812F480725A
:1001F00004D14E490A604FF4A8521A604C4B1A7849
:10020000110703D51A7842F008021A70494B4A4C7C
:100210004A482A221A704A4A00239918A14203D256
:10022000195899500433F8E7464B474900228B424E
:1002300002D243F8042BFAE74448454900235A58B0
:100240001A500433B3F5DE7FF9D1424B424A802184
:1002500003F8011B9342FBD1404B3C4A1A60404BD0
:100260008A221A70A3F5805324225A70A0221A7091
:100270009A799207FCD59A79D406FCD4394A9379B5
:1002800003F00C03082B374BF9D103221A714022DB
:100290005A719A799006FCD5324A9179314B4906C8
:1002A000FBD5314A314911600221516020221A7078
:1002B0009A7902F00C020C2AFAD12D4B2D4A1A60C1
:1002C0002D4B4BF67F321A6000225A60072243F80A
:1002D000042C2A4AC3F80C2D62B606F0A9FF134B72
:1002E0001B68DA0705D5264806F0D8FE254B264AB6
:1002F0001A60264B1B785B0609D5224C224A2368DC
:10030000934204D11E4806F0C9FE002323600BF07F
:100310000FF906F0C1FC08F0EFF8FEE70E200540EB
:1003200030800440823F04000100002B14D00340C1
:1003300002D0074000E00740E8FCFF1F383401000E
:1003400060EFFF1FE8FCFF1F8407002000EAFF1F8B
:100350000000000000E400E05FE400E008ED00E0E1
:100360000050064000400640448004400000131145
:1003700004800440C010050014E000E000002020CC
:10038000910E1F591CE00340A5C3945A00F007408A
:10039000FFFFFFFFFFFFFFFFFFFFFFFFFFFFFFFF6D
:1003A000FFFFFFFFFFFFFFFFFFFFFFFFFFFFFFFF5D
:1003B000FFFFFFFFFFFFFFFFFFFFFFFFFFFFFFFF4D
:1003C000FFFFFFFFFFFFFFFFFFFFFFFFFFFFFFFF3D
:1003D000FFFFFFFFFFFFFFFFFFFFFFFFFFFFFFFF2D
:1003E000FFFFFFFFFFFFFFFFFFFFFFFFFFFFFFFF1D
:1003F000FFFFFFFFFFFFFFFFFFFFFFFFFFFFFFFF0D
:10040000FFFFFFFFFFFFFFFFFFFFFFFFDEF9FFFF23
:1004100010B5054C237833B9044B13B10448AFF33E
:1004200000800123237010BDE8FCFF1F00000000C6
:100430003034010008B5064B1BB106480649AFF33E
:1004400000800648036813B1054B03B1984708BD07
:100450000000000030340100ECFCFF1FE8FCFF1F2F
:100460000000000070B56748047867490D78674A56
:100470001678FF2303700B70137080230132137002
:1004800001321370320442EA05222243604BDA60E3
:10049000604B9B7913F00C0F40F082805D4B9B7991
:1004A00013F0100F7CD05B4B9B7913F0200F64D0BE
:1004B00076E0584B9B7913F0100F77D1554B9B7911
:1004C00013F0200F59D171E0524B9B7913F0100FAC
:1004D00072D1504B9B7913F0200F6DD04D4B5B7850
:1004E00013F0020F00F0868066E04A4B9B7913F010
:1004F000100F67D1474B9B7913F0200F62D1454B0A
:100500005B7813F0020F38D05CE0424B9B7913F01C
:10051000100F5DD13F4B5B7813F0020F2DD157E0E8
:100520003C4B9B7913F0100F58D03A4B9B7913F04A
:10053000200F53D1374B5B7813F0020F1DD14DE0E4
:10054000344B9B7913F0100F4ED0324B9B7913F044
:10055000200F49D12F4B5B7813F0020F0DD043E0F1
:100560002C4B9B7913F0100F07D12A4B9B7904E099
:10057000937903F00C030C2BFAD1274B1A78274BF5
:1005800053F82240002C3CD0234D23689B68204622
:1005900098472B7804EB83046468002CF5D170BD78
:1005A0001C4B9B79C3F38103032B82D0194B9B799E
:1005B000C3F38103022B87D0164B9B79C3F38103CE
:1005C000022B92D0134B9B79C3F38103022B9CD057
:1005D000104B9B79C3F38103012BA1D00D4B9B7969
:1005E000C3F38103012BABD00A4B9B7913F00C0FA3
:1005F000B6D0C2E7074B00221A7020221A701A46A2
:10060000B6E770BD05C0074006C0074007C00740F9
:100610005C070020004006408C0300204C030020B3
:1006200010B4154B036090F824305AB2B2F1FF3F7A
:100630001FD01346114A52F82310814219D1104A93
:1006400052F8233043B1002491F9242003EB8202B5
:1006500053685460002BF7D191F9243000220849E7
:1006600041F82320054941F82320064B1A78013A26
:100670001A705DF8044B7047A82301006C0300203A
:100680004C0300208D03002038B590F824305AB276
:10069000B2F1FF3F19D0DDB20C4A15704FF0FF31B7
:1006A0000B4A11605BB20B4A52F823406CB1AD00AB
:1006B00094F8253013F0FF0F03D023681B68204601
:1006C00098472C446468002CF2D138BD8C0300207C
:1006D00094E9FF1F4C030020704700BF144B0360D8
:1006E00090F824305AB2B2F1FF3F1FD01346114A9E
:1006F00052F82320904219D10F4A52F8233043B1C7
:10070000002190F9242003EB820253685160002BF2
:10071000F7D190F924300022074941F823200549F8
:1007200041F82320054B1A78013A1A70704700BF30
:10073000A82301006C0300204C0300208D0300203F
:10074000144B036090F824305AB2B2F1FF3F1FD02F
:100750001346114A52F82320904219D10F4A52F8F9
:10076000233043B1002190F9242003EB8202536827
:100770005160002BF7D190F924300022074941F84D
:100780002320054941F82320054B1A78013A1A70B5
:10079000704700BFA82301006C0300204C03002019
:1007A0008D0300202DE9F04106460D4606F070FC51
:1007B000164C206005F002F80746206804F0F6FFAA
:1007C0008046206804F0EAFF5FFA88F8C0B240EA89
:1007D0004818BFB2A7F2BC7748EA4728A6F80080BD
:1007E000206804F0C3FF0646206804F0C7FF0746F0
:1007F000206804F0CBFFFFB2F6B2F60246EA4717D4
:10080000C0F3460007432F80BDE8F08168FDFF1F5D
:100810000F4B03604172026100230372C36039B160
:100820001946026942F823100133427A9A42F8DCF1
:10083000084B1A680AB9186004E053690BB11A46EC
:10084000FBE75061002343618380C380704700BF92
:10085000982301002405002030B41022534B1A8045
:1008600003F1021303F530431B7813F0080F00F077
:100870009B804F4C23784F4805784F490A781204E3
:1008800042EA05221A43FF23237003700B70802372
:1008900001310B7001310B7012F0010F03D01A22DD
:1008A000464B9A6075E012F0080F03D02122434BAB
:1008B0009A606EE012F0100F03D004223F4B9A6052
:1008C00067E012F0200F03D010223C4B9A6060E0EA
:1008D00012F0400F03D01622384B9A6059E012F004
:1008E000800F03D00922354B9A6052E012F4807FCA
:1008F00003D00A22314B9A604BE012F4007F03D000
:100900000D222E4B9A6044E012F4806F03D00B222C
:100910002A4B9A603DE012F4006F03D01E22274B51
:100920009A6036E012F4805F03D00222234B9A6073
:100930002FE012F4005F03D00722204B9A6028E0DA
:1009400012F4804F03D006221C4B9A6021E012F46F
:10095000004F03D01522194B9A601AE012F4803F21
:1009600003D02422154B9A6013E012F4003F03D009
:100970002222124B9A600CE012F4801F03D0252231
:100980000E4B9A6005E012F4001F02D023220B4B9D
:100990009A6000230A4A13700132137001321370F7
:1009A00001321370054AD36030BC70470020054007
:1009B00005C0074006C0074007C007405C0700208D
:1009C00000C007402DE9F04F83B00D46002900F02C
:1009D0008B8001EB82035C68002C7CD004EB8203EB
:1009E0005E68002E6ED006EB82035F68002F60D039
:1009F00007EB8203D3F80480B8F1000F50D008EB66
:100A00008203D3F80490B9F1000F3FD009EB8203C1
:100A1000D3F804A0BAF1000F2ED00AEB8203D3F86A
:100A200004B0BBF1000F1DD00BEB82035B68019398
:100A300073B103EB82035968FFF7C4FF019991F882
:100A4000253013F0FF0F03D00B685B68084698470A
:100A50009BF8253013F0FF0F04D0DBF800305B6803
:100A6000584698479AF8253013F0FF0F04D0DAF86B
:100A700000305B685046984799F8253013F0FF0F17
:100A800004D0D9F800305B684846984798F825307C
:100A900013F0FF0F04D0D8F800305B684046984749
:100AA00097F8253013F0FF0F03D03B685B6838469A
:100AB000984796F8253013F0FF0F03D033685B6832
:100AC0003046984794F8253013F0FF0F03D0236881
:100AD0005B682046984795F8253013F0FF0F03D048
:100AE0002B685B682846984703B0BDE8F08F00BFCD
:100AF0002DE9F04F83B090F8242053B2B3F1FF3FBB
:100B000000F0A3801946524B53F82140D2B2002C7A
:100B100000F09B8004EB82035D68002D00F08C8068
:100B200005EB82035E68002E7DD006EB82035F68D2
:100B3000002F6FD007EB8203D3F80480B8F1000FC9
:100B40005FD008EB8203D3F80490B9F1000F4ED0C8
:100B500009EB8203D3F804A0BAF1000F3DD00AEBF1
:100B60008203D3F804B0BBF1000F2CD00BEB82034F
:100B70005B680093EBB103EB82035B68019373B195
:100B800003EB82035968FFF71DFF019991F82530A7
:100B900013F0FF0F03D00B685B6808469847009A74
:100BA00092F8253013F0FF0F03D013685B681046EE
:100BB00098479BF8253013F0FF0F04D0DBF8003086
:100BC0005B68584698479AF8253013F0FF0F04D019
:100BD000DAF800305B685046984799F8253013F0F2
:100BE000FF0F04D0D9F800305B684846984798F862
:100BF000253013F0FF0F04D0D8F800305B68404672
:100C0000984797F8253013F0FF0F03D03B685B68D7
:100C10003846984796F8253013F0FF0F03D0336815
:100C20005B683046984795F8253013F0FF0F03D0E6
:100C30002B685B682846984794F8253013F0FF0F1F
:100C400003D023685B682046984703B0BDE8F08F67
:100C50004C03002008B50022064B83F8F620064B13
:100C60001A78064B1A70064802F030FE642006F02F
:100C7000C9FA08BD7CFDFF1F3105002028050020B2
:100C80003CFDFF1F70B485B00646214A01AB1068D9
:100C90005168926807C3328911B21E318B1012F06D
:100CA000030F05D13279022A1A4898BF002000E0CC
:100CB0000020C91A184A02FB03F3A2F5A832A2F5D4
:100CC000C07202FB0132024435796B1E002B0BDD32
:100CD0000DF103030DF102010D440E4C13F8011F39
:100CE00004FB0122AB42F9D1B0787378C3EB031354
:100CF00099004FF4616303FB001331780B44F078E3
:100D00000138044901FB0030104405B070BC704745
:100D1000B8230100805101000085E20108B51420CC
:100D2000012105F06DFF024A024B1A6008BD00BFA9
:100D30000400FA050CED00E010B472B641240E4B2D
:100D40001C70013B18708020063B18701846037811
:100D500013F0800FFBD0094B1B788B54084B1B788A
:100D60000A445370074B1B789370074B1B78D37062
:100D700062B65DF8044B7047070002400B0002406A
:100D80000A000240090002400800024010B5064C6B
:100D90000E2021460022FFF7CFFF0F20214604221C
:100DA000FFF7CAFF10BD00BFE8FEFF1F2DE9F041AD
:100DB000082400254FF015084FF06A5702264046D8
:100DC00005F02AFE09F084FE394609F0D5FE0146F9
:100DD000284609F0C9FD0546304606F013FA013CE5
:100DE000EDD12846044909F0C7FE4FF0785109F0CB
:100DF000C3FEBDE8F08100BFCDCCBC4030B58FB0A4
:100E000004460BF011FA00B2012840F3A480B4F9B3
:100E1000003044F65212934256D008DC44F252425B
:100E2000934248D044F25372934256D093E044F632
:100E30005452934204D045F25322934256D08AE052
:100E400005AB009308AB019309AB02930AAB039384
:100E5000E01C424907AA06AB0BF03EF90A9B8DF84D
:100E60002C30099B8DF82D30089B8DF82E30059B7A
:100E70008DF82F30069B8DF83030079BA3F5FA6371
:100E8000ADF834300BA8FFF7FDFE0546344B186073
:100E900006F004F9334C23685B68204632490B2284
:100EA0009847204629460A22002307F03BFA2046AD
:100EB00007F028FA4FE0E01C2C490BAA0BF00CF9C4
:100EC0000B9B2B4A136046E0E01C28490BAA0BF051
:100ED00003F90B9B274A13603DE0E01C23490BAA52
:100EE0000BF0FAF80B9B244A136034E005AB009337
:100EF00008AB019309AB02930AAB0393E01C1749BB
:100F000007AA06AB0BF0E8F80A9B8DF82C30099B7A
:100F10008DF82D30089B8DF82E30059B8DF82F30E5
:100F2000069B8DF83030079BA3F5FA63ADF834309B
:100F30000BA8FFF7A7FE0A4D28600A4C23685B68E0
:100F400020460E49122298472046296807F026FAC3
:100F5000204607F0D7F901200FB030BDC4230100AF
:100F600070FDFF1F54050020D8230100E423010079
:100F700070EFFF1F74EFFF1F64EFFF1FE8230100F6
:100F800008B5092804DC034803681B68302198472A
:100F900008BD00BF40FFFF1F38B50546074C23685A
:100FA0005B6820460649012298472846FFF7E8FF7C
:100FB0002046294607F0F2F938BD00BF40FFFF1F69
:100FC0004824010010B582B0059C4E348DF80640CF
:100FD000049C8DF805408DF804308DF802008DF8E2
:100FE000011002A800F8082D684604F0F1FB06F095
:100FF00055F806F04DF8024B186002B010BD00BF66
:1010000060FDFF1FF8B504460D461646042006F0A5
:1010100079F80746032006F075F8D7B90122224B6C
:101020001A70224B1B680A2B0EDD02F1663282FB1E
:101030000412E417C4EBA20404EB84046400142B30
:10104000D4BF0A346E3400E001340133174A136010
:1010500002E00022154B1A60D0B90122124B1A701F
:10106000134B1B680A2B0EDD02F1663282FB041261
:10107000E417C4EBA20404EB84046400142BD4BF73
:101080000A3C6E3C00E0013C0133094A136002E077
:101090000022074B1A60AC4203DBB442C8BF2C46A7
:1010A00000E034462046F8BD6CFDFF1F88FFFF1F9F
:1010B00090FFFF1F10B5094C204605F099F8204617
:1010C000012104F0F1FD2046022104F0E7FD204655
:1010D00000210A4604F0DEFD10BD00BF40FFFF1FE7
:1010E00038B505F0D5FF344B1860344C204601214B
:1010F00004F0D4FD2046012104F0D6FD2046002155
:10110000122204F0C7FD23685B6820462C490422A4
:10111000984720462B4B196807F040F923682A4D61
:101120005B682046294601229847204607F0EAF8E6
:1011300023685B6820462549062298472046244BB1
:10114000196807F02BF923685B68204629460122BD
:101150009847204607F0D6F81E4B1B68012B2AD172
:1011600023685B6820461C49082298471B4D287855
:10117000FFF706FF204629780A22002307F0D2F85D
:10118000174B1878FFF708FF23685B68204615495E
:1011900001229847144D2878FFF7F2FE204629785F
:1011A0000A22002307F0BEF8104B1878FFF7F4FE70
:1011B000204607F0A7F838BD68FDFF1F40FFFF1F5E
:1011C000FC23010070EFFF1F04240100082401002C
:1011D00074EFFF1F7CFFFF1F1024010034FDFF1F71
:1011E000C8FFFF1F1C24010020FFFF1F74FDFF1F0D
:1011F00070B505460E46234C2046012104F04EFDF5
:101200002046002132B204F045FD284604F0D6FA0B
:101210000146204607F0C2F823681B6820462D21AE
:101220009847284604F0C2FA0146204607F0B6F86F
:1012300023681B6820462D219847284604F0AEFA03
:101240000146204607F0AAF823685B6820460E494D
:1012500002229847284604F089FAFFF791FE2846B3
:1012600004F084FA0146204607F098F8284604F076
:1012700085FAFFF791FE284604F088FAFFF78CFE06
:1012800070BD00BF40FFFF1F2024010038B5054698
:1012900004F094FA0146224C204607F07FF82368B8
:1012A0001B6820462D219847284604F07FFA014606
:1012B000204607F073F823681B6820462D219847C5
:1012C000284604F06BFA0146204607F067F82368C9
:1012D0005B682046134901229847284604F046FAE5
:1012E0000146204607F05AF823681B6820463A2139
:1012F0009847284604F042FA0146204607F04EF887
:1013000023681B6820463A219847284604F03EFA95
:101310000146204607F042F8204606F0F3FF38BDAC
:10132000540500202025010038B5054605F052FC83
:10133000074C2070681C05F04DFC6070A81C05F07F
:1013400049FCA070E81C05F045FCE070206838BD41
:10135000F8FEFF1F08B50020FFF7E6FF104B1860EE
:101360000420FFF7E1FF0F4B1860082005F032FC66
:101370000D4B1870092005F02DFC0C4B18700A203D
:1013800005F028FC0A4B18700B2005F023FC094BD4
:1013900018700C2005F01EFC074B186008BD00BF3C
:1013A00070EFFF1F74EFFF1F34FDFF1FC8FFFF1F0B
:1013B00020FFFF1F74FDFF1F7CFFFF1F38B5054690
:1013C000084C2160C9B205F01BFC681C617805F06F
:1013D00017FCA81CA17805F013FCE81CE17805F0C7
:1013E0000FFC38BDF8FEFF1F08B50020114B19682F
:1013F000FFF7E4FF0420104B1968FFF7DFFF082018
:101400000E4B197805F0FCFB09200D4B197805F0FF
:10141000F7FB0A200B4B197805F0F2FB0B200A4B67
:10142000197805F0EDFB0C20084B197805F0E8FB66
:1014300008BD00BF70EFFF1F74EFFF1F34FDFF1FDB
:10144000C8FFFF1F20FFFF1F74FDFF1F7CFFFF1F52
:101450002DE9F04F85B0FFF77DFF05F019FE8B4BAE
:1014600018608B4B1A688B4B9A4202D93C22884BEE
:101470001A60894B1A68874B9A4202D93C22864BE4
:101480001A60864B1B78172B02D90022834B1A70E7
:10149000834B1B783B2B02D90022814B1A70814B66
:1014A0001B78172B02D900227E4B1A707E4B1B78BB
:1014B0003B2B02D900227C4B1A707C4B1B68012B02
:1014C00040F24A820022794B1A6045E2082005F07A
:1014D00019FE40B92B6801332B60082B03DDD8F8C7
:1014E000003003B92B60FFF7E5FD05F0D1FD20606A
:1014F000664B1E68861B2B68082B00F21B82DFE8F8
:1015000013F00900480069008900ED002901650118
:10151000A201DE01664B1B7843B1FFF765FF002295
:10152000634B1A7005F0B4FD584B186061480368AE
:101530005B6861490A229847042005F0E3FD0746ED
:10154000032005F0DFFD002840F0F481002F40F07B
:10155000F181FFF7AFFDFFF747FF564C23685B684B
:10156000204656490A229847204604F0B1FF40F22F
:10157000DC5005F047FEFFF7B3FD05F089FD37218C
:10158000FFF736FE204604F0A3FFC82005F03AFE20
:10159000E7E1DFF8FC90D9F8000001214FF4616227
:1015A000FFF730FDC9F80000424F3B685B683846E2
:1015B0004349042298473846D9F8001006F0EEFE59
:1015C0003B685B6838463F4901229847384606F039
:1015D00099FEAFE1DFF8C090D9F8000000213A4A47
:1015E000FFF710FDC9F80000324F3B685B683846D2
:1015F0003649042298473846D9F8001006F0CEFE46
:101600003B685B6838462F4901229847384606F008
:1016100079FE8FE104F0D2F82D4F38604FF4FA6173
:1016200040F63402FFF7EEFC2A4B18603B68984204
:101630001CD0206804F09AF88346206804F09EF8D5
:101640008246206804F0A2F88146206804F0A6F8DB
:101650000746206804F0AAF800901E4B1B6801930F
:10166000584651464A463B46FFF7ACFC114F3B6893
:101670005B68384618490522984705F009FD04F0D3
:101680009DF80146384606F089FE53E160FDFF1FD4
:1016900070EFFF1FA086010074EFFF1F34FDFF1FD6
:1016A000C8FFFF1F20FFFF1F74FDFF1F7CFFFF1FF0
:1016B0006CFDFF1F40FFFF1F2424010030240100A8
:1016C000FC23010004240100805101003C2401009E
:1016D00078FDFF1FFCFEFF1F4424010004F066F8A4
:1016E000A14F386001210C22FFF78CFC9F4B186042
:1016F0003B6898421ED0206804F038F88346206882
:1017000004F03CF88246206804F040F881462068E6
:1017100004F044F80746954B1B680393206804F0D7
:101720004DF8039B00930190584651464A463B466C
:10173000FFF748FC8E4F3B685B6838468D490622B0
:10174000984705F0A5FC04F031F80146384606F04C
:1017500025FEEFE004F022F8874F386001211F22B8
:10176000FFF750FC854B18603B6898421ED02068FC
:1017700003F0FCFF8246206804F000F881462068F0
:1017800004F004F807467D4B1B680393206804F0BF
:101790000DF88346206804F011F8CDF800B00190F0
:1017A000504649463A46039BFFF70CFC704F3B6896
:1017B0005B68384672490422984705F069FC03F0DB
:1017C000EDFF0146384606F0E9FDB3E003F0CEFF39
:1017D000DFF8D891C9F8000000211722FFF712FCAA
:1017E0000746684B1860D9F8003098421BD0206833
:1017F00003F0C4FF8246206803F0C8FF81462068DA
:1018000003F0CCFF8346206803F0D0FF03902068EC
:1018100003F0D4FF039A00920190384651464A469D
:101820005B46FFF7CFFB524F3B685B683846564933
:101830000522984705F02CFC03F098FF0146384636
:1018400006F0ACFD76E003F099FF504F38600021C0
:101850003B22FFF7D7FB4E4B18603B6898421ED0E7
:10186000206803F083FF8246494B1B68039320687E
:1018700003F08CFF8146206803F090FF0746206844
:1018800003F094FF8346206803F098FFCDF800B082
:101890000190504603994A463B46FFF793FB344F6D
:1018A0003B685B6838463B490722984705F0F0FBE8
:1018B00003F064FF0146384606F070FD3AE003F09D
:1018C00065FF354F386000213B22FFF79BFB334B10
:1018D00018603B6898421ED0206803F047FF82469C
:1018E000206803F04BFF81462C4B1B680393206854
:1018F00003F054FF0746206803F058FF8346206832
:1019000003F05CFFCDF800B0019050464946039AC1
:101910003B46FFF757FB164F3B685B68384620494C
:101920000722984705F0B4FB03F030FF0146384624
:1019300006F034FDFFF7D4FB05F0AAFB3721FFF7D3
:1019400057FC0B4804F0C4FDC82005F05BFCB6F55D
:10195000167F7FF7BBAD04E0124DDFF85480124CC8
:10196000B4E505B0BDE8F08FC4FFFF1FD4FEFF1F34
:1019700040FFFF1F4C24010094FFFF1FF4FEFF1FD8
:1019800054240100FCFFFF1F5C24010000FFFF1F27
:1019900064FDFF1F6424010098FFFF1FD0FEFF1F9E
:1019A0006C24010084FFFF1F68FDFF1F80FFFF1FE5
:1019B0007CFFFF1F70B506460D46114C20460A21DC
:1019C00001F0A6FE23681B682046C6F3072198474E
:1019D00023681B682046F1B2984723681B6820469D
:1019E000C5F30721984723681B682046E9B298474A
:1019F000204601F093FED0F1010038BF002070BDF9
:101A0000C800002008B5302044F26001FFF7D2FF83
:101A100026206C21FFF7CEFF28204FF4F871FFF746
:101A2000C9FF2A200021FFF7C5FF2C2040F62271B4
:101A3000FFF7C0FF3C2044F24641FFF7BBFF2420E4
:101A400040F23711FFF7B6FF3020A221FFF7B2FFB7
:101A500002204321FFF7AEFF4FF4C87005F0D2FB20
:101A600004200146FFF7A6FF06204FF49871FFF708
:101A7000A1FF0A201021FFF79DFF0E200C21FFF788
:101A800099FF10204FF6FF71FFF794FF222047F6D1
:101A90007F71FFF78FFF4FF492700021FFF78AFFED
:101AA00024204FF48A71FFF785FF2A200021FFF7D9
:101AB00081FF20200021FFF77DFF012008BD00BF2E
:101AC00008B5FFF79FFF034B1A780348114601F052
:101AD00003F908BD64EFFF1FDCFEFF1F08B53020CF
:101AE0000021FFF767FF02200021FFF763FF08BD19
:101AF00008B53020A221FFF75DFF02204321FFF748
:101B000059FF08BD70B505460C46274B0360FF23FF
:101B100080F82430002380F8253080F82630234BCD
:101B20001B78062B02D80022204B1A70204B187805
:101B30000646204B53F820207AB1A24206D101E09C
:101B40009C4205D101301A4B18702BE013468100DE
:101B50000B445B68002BF3D111E038B9152016490E
:101B600005F02EFA4FF40012144B1A60104B1B783C
:101B7000134A42F823500F4A42F8234008E0B100CC
:101B800053185B680BB11A46FAE702EB8002546007
:101B9000074A137805EB83010020486085F824305C
:101BA00001331370284670BDA823010090E9FF1F80
:101BB0008D0300204C0300206504000000E100E0DC
:101BC0006C030020F0B595B004F0C0FF604804211C
:101BD00004F0FAFA5F4E304600210A46FEF718FE7E
:101BE0005D4B3360304601F035F95C4D28460121EC
:101BF00005F11802FEF70CFE594B2B600024C5F8C6
:101C0000F04085F8F44085F8F54085F8F6405548F1
:101C10000660456004724472C46006F07BFA524B61
:101C2000524A1A600A221A724FF08740504B1968C4
:101C300009F056F84F4B18604F48FF2580F82450A4
:101C400080F825404D4B03604463846380F83C403A
:101C5000012780F826704A4E4A49324609F058FC5E
:101C6000494880F8245080F82540484B036080F8AC
:101C700026704749324609F04BFC464B464A1A60EB
:101C800083F8245083F8254083F82640434B1B7883
:101C9000062B01D8414B1C70414B1C782546414B0B
:101CA00053F82420AAB1384B9A420AD101E083426A
:101CB0000AD10AA83049FFF725FF0AA8FEF7B0FCB1
:101CC00035E01346A10030480B445B68002BEED191
:101CD00013E03CB91520344905F072F94FF40012B5
:101CE000324B1A602E4B1B782A49314A42F8231096
:101CF00025492C4A42F8231009E0A90053185B68D3
:101D00000BB11A46FAE702EB84021F4B5360244BD7
:101D10001A78204B03EB82010020486083F82420CE
:101D200068461549FFF7EEFE6846FEF779FC144C4D
:101D300018482049224609F0EBFB1F4D284601F0C8
:101D400083FD28461D49224609F0E2FB15B0F0BD8F
:101D500040FFFF1F04FFFF1FB02601007CFDFF1F97
:101D6000C026010074FEFF1FDCFEFF1F902601004D
:101D70006CEFFF1FCCFEFF1F8CFEFF1F38270100FA
:101D800060EFFF1FDD0600009CFFFF1F50270100D2
:101D9000410700000CFDFF1FA823010090E9FF1F71
:101DA0008D0300204C0300206504000000E100E0EA
:101DB0006C030020210600003CFDFF1F6538000079
:101DC00030B5ADF5017D1A4801F0C0F901282CDDD0
:101DD000174C204601F0ECF901464FF48075684637
:101DE0002A4604F045FC204601F000FA204601F0A6
:101DF000DFF901460DEB05002A4604F039FC2046C8
:101E000001F0F4F90B4869464FF4007201F0A0FCB0
:101E1000B0F1FF3F01D1FEF781FF074B1A68013295
:101E20001A60064B1A6801321A600DF5017D30BD4B
:101E30007CFDFF1F3CFDFF1F000000208CFFFF1FEB
:101E40002DE9F0439DB005F023F9774B186003F0BE
:101E5000ADFC764B1B68984216D0734C206803F09B
:101E6000A5FC724D2860206803F0A8FC0246704C67
:101E7000204670492B680AF009F96F4A6F4B1A60C7
:101E80006F48214601F014FF1520002105F048F9A4
:101E9000654C206803F082FC0546206803F066FC70
:101EA0000746206803F06AFC0646206803F06EFCD3
:101EB000009701960290634863495D4A2B460AF0F9
:101EC000E5F85D4A5D4B1A60FEF770FF814604A895
:101ED0005B495E4A162301F06DFE04A801F002FD85
:101EE000002864D0574D28460AF09EF902461CACE3
:101EF00054F8603D5B682046294698471CAD55F86C
:101F0000603D1B6820462C219847514B5C1E03F115
:101F100007080A270026284614F8011F3A463346C8
:101F200006F000FA4445F6D11CAC54F8603D1B683D
:101F300020462C2198472046464B196806F02EFA79
:101F4000049B1B6820462C219847484608F080F9DE
:101F500002460B4602210091204606F029FA20464F
:101F600006F0D0F948463C4908F0A4FFD8B11CACB3
:101F700054F8603D5B68204638492822984720463F
:101F800006F0C0F9204601F0A1FC334C47F2305571
:101F900002E0284605F036F9FEF708FF214608F072
:101FA00089FF0028F5D104A801F090FC01E0FEF7BC
:101FB000B5FE04A801F056FC224D0CA820492A4683
:101FC000322301F0F7FD264B9DF834201A710E9A4A
:101FD0009A609DF83C201A731CAC54F8336D60680D
:101FE000A168C3F80D60C3F81100C3F81510217B78
:101FF0005976139ADA610CA801F034FC28460AF0ED
:1020000013F90246174C23685B6820462946984717
:10201000204606F077F9642005F0F4F8104C124FD2
:10202000A046DFF8489060E068FDFF1FD8FEFF1F64
:1020300084FEFF1F94240100A50700003C0100203E
:10204000E000002024FFFF1FA0240100B8240100AD
:10205000E8FEFF1F64EFFF1F00004040C0240100A6
:102060003CFDFF1F54050020F8FFFF1FEC2401007A
:102070003A6801323A60284649460AF007F814A83F
:102080003E492A46322301F095FD9DF854302371D4
:10209000169BA3609DF85C3023731CAB53F8136D43
:1020A00058689968C4F80D60C4F81100C4F8151098
:1020B0001B7B63761B9BE36114A801F0D3FB2846CE
:1020C0000AF0B2F802462E4E33685B683046294665
:1020D0009847304606F016F90A2005F093F83B6859
:1020E000B3F57A7F01DDFEF719FE404601F0FAFBF9
:1020F0000028BDD0234C244B93E803002060234BE1
:1021000093E80300A060224B93E80300E0601026F0
:1021100026610123A382E3821E4B1D68284608F036
:1021200017FFA0612846294608F01EFC08F010FFA2
:10213000E061022323846684174B93E80300606206
:10214000164D2B685B0203F124026260A3621448FF
:1021500021462C2201F0FCFA094C23685B682046DA
:102160001049092298472046296806F017F92046A9
:1021700006F0C8F81DB0BDE8F08300BFE000002005
:1021800054050020CCFFFF1FF824010000250100AA
:10219000082501006CEFFF1F1025010078FFFF1FCD
:1021A0003CFDFF1F1825010010B5FFF749FE002276
:1021B000044B1A60044C204600F0D4FF012384F83D
:1021C000F63010BD000000207CFDFF1F2DE9F0411E
:1021D0009A4B1B68002B70D104F05AFF984D286071
:1021E000FEF768FF974C23685B68204696490A22F1
:1021F0009847204606F086F8944B18681421FEF79D
:10220000F7FF28683721FEF7F3FF204604F060F956
:1022100004F03EFF01468E4C20460A22002306F0C1
:1022200081F8204606F06EF82A688A4B1B689A42AD
:1022300003DB0520012104F041FF814B1A68834B29
:102240001B689A4239DB824C23685B6820468249CE
:102250000D229847204606F055F87C4D2B687F4AA2
:10226000126813447E4E33607E4A126813442B601A
:1022700023685B6820467C490E22984704F008FFDB
:10228000FFF704F823685B68204678490B229847DB
:102290003068FEF7FBFF23685B68204674490B2219
:1022A00098472868FEF7F2FF0122644B1A606548E0
:1022B000AE2103F0A7FFFFF777FF604B1B68012BF0
:1022C00040F0B980FFF77CFD6A4B1A686A4B1B68C7
:1022D0009A42C0F2B080634B1B684BB9674801F06B
:1022E000F5FAFFF7ADFD0022624B1A60BDE8F08100
:1022F000FEF7B0FC554B1C6804F0CAFE201A604B78
:102300001B68C41A24EAE4745E4880FB043020444D
:10231000E317C3EBE02007F089FF07F07DFD08F02D
:1023200085FA0746DFF88881C8F80000564B03FBA2
:102330000044564880FB04302044E317C3EB601090
:1023400007F074FF07F068FD08F070FA504E306037
:10235000504DA0EB001004EB80042C603C4C204658
:10236000394606F01BF8204605F0CCFF20463168C0
:1023700006F014F8204605F0C5FF2046296806F04F
:102380000DF8204605F0BEFFD8F800103368C3EB07
:1023900003139A004FF4616303FB01232A6813447B
:1023A000092B3FDD23685B6820463B491222984792
:1023B000204605F0A7FF0220002104F07FFE2368DD
:1023C0005B68204635490E229847204605F09AFF63
:1023D000FFF784FB23685B68204631491022984749
:1023E000204605F08FFF642004F00CFF23685B6833
:1023F00020462C490E229847204605F083FF642092
:1024000004F000FF284898F8001032782B7803F089
:10241000B7F8264802F076FE0220012104F04EFEB5
:10242000FFF766FB074802213C22012303F054FF1B
:102430000022024B1A60BDE8F08100BF08FDFF1FBB
:1024400068FDFF1F40FFFF1F2425010070FDFF1FD7
:10245000540500205CFDFF1F3025010070EFFF1FB9
:10246000F0FEFF1F74EFFF1F402501005025010003
:102470005C2501000000002078FFFF1F3CFDFF1FCE
:1024800068EFFF1FC5B3A291F0F1FFFF898888882C
:102490001CFFFF1F04FDFF1F682501007C250100B4
:1024A0008C250100A02501008CFEFF1F0CFDFF1FE5
:1024B00038FDFF1F2DE9F04FA1B008A801F0C4F9C5
:1024C00010A86C496C4A012301F074FB9DF844305C
:1024D0008DF82430129B0A939DF84C308DF82C30E7
:1024E00020AB53F8330D59689A68CDF82D00CDF81C
:1024F0003110CDF835201B7B8DF83930179B0F93A9
:1025000010A801F0AFF908A801F0ECF9002800F0DC
:102510008C8000273E46BA464FF0010BD9468DF815
:102520000060554600E0254608A801F025F9C0B234
:102530000D2800F092806C1CA4B220AA02FA85F546
:1025400005F8800C542809D108A801F09DF900F184
:10255000FF3823B21D2B0ADC4F46E4E723B21D2BC4
:1025600002DD05E02C4603E00A28DCD100E05F46EE
:10257000013CA4B220AA02FA84F303F8806C9DF80F
:1025800000302F2B05D024B2012C02DD6846FEF767
:1025900035FC08A801F086F90028C0D108A801F090
:1025A00095F9002F57D0354C23685B682046344995
:1025B0000B229847204641460A22002305F0B2FE2E
:1025C000204605F09FFE18A82A492B4A132301F044
:1025D000F1FA9DF864308DF824301A9B0A939DF827
:1025E0006C308DF82C3020AB53F8130D59689A6875
:1025F000CDF82D00CDF83110CDF835201B7B8DF8AE
:1026000039301F9B0F9318A801F02CF908A84146F8
:1026100001F02EF9089B5B6808A81A490222984726
:1026200008A801F053F901241CE0144C23685B68EE
:102630002046154914229847204605F063FE134CA6
:1026400023685B68204612490D229847204605F012
:1026500059FE002406E0012404E02BB21D2B81DC8E
:102660002C4660E708A801F0FDF8204621B0BDE83F
:10267000F08F00BFE0000020B025010054050020CD
:10268000BC250100C8250100CC25010040FFFF1F2B
:10269000E42501002DE9F84FFEF778FB4FF4FA70BE
:1026A00004F0B0FD614800F0F1FE0220012104F0C9
:1026B00037FD1420012104F033FD1520002104F022
:1026C0002FFD002004F07CF90220002104F0F6FC2C
:1026D0001420012104F0F2FC0620012104F020FD69
:1026E0000620002104F0EAFC0620002104F018FD79
:1026F0000420002104F014FD0320002104F010FD4B
:102700000820002104F00CFD0420012104F0D6FC77
:102710000320012104F0D2FC0820012104F0CEFCAA
:102720004FF4FA7004F06EFD04F0B2FC404B1860F8
:10273000404B984202DC404804F0B0FC3F4C20463D
:1027400002213C22012303F0C7FD642004F05AFD5E
:10275000FEF7B0FC23683A4D5B68204629460A2202
:102760009847204605F0CEFD204603F0B1FE062036
:10277000012104F0D5FC0620002104F09FFCFEF7A7
:1027800099FC23685B68204629460A229847204620
:1027900005F0B8FD204603F09BFEC82004F032FD92
:1027A000284B1B7843F001022749096811F4805F28
:1027B00002D0934240F0398122490A7043F0050368
:1027C0002149096811F4805F02D09A4240F03781B4
:1027D0001C4A13701D480A2101F04CF900283DD114
:1027E0001B4C23685B6820461A491C2298472046E8
:1027F00005F088FD114C184E1225FEF75BFC23688E
:102800005B68204631462A469847204605F07AFD07
:1028100004F03EFC3721FEF7EBFC204603F058FEA7
:102820004FF47A7004F0EEFCE7E700BFC800002028
:1028300068FDFF1F7FC1855680C1855640FFFF1F81
:10284000F4250100500500203C800440E0000020F9
:10285000540500200026010020260100FFF72AFE73
:102860000220002104F02AFCFEF7F2FD04200021E2
:1028700004F024FC0320002104F020FC08200021A7
:1028800004F01CFC0420012104F04AFC0320012177
:1028900004F046FC0820012104F042FCFEF70AFC8B
:1028A00004F0F6FB6B4D28606B4A82FB0032C317C5
:1028B000C3EB62134FF4967202FB1303C31A134463
:1028C000664E3360DFF8E881D8F800000344644ABC
:1028D000136008F0FDF8634B196808F04DF94FF0EC
:1028E0006E5108F049F908F00DFB5F4B18605F4F1F
:1028F0003B685F4A12689B1A23EAE3795D4880FBD4
:10290000093048444FEAE973C3EBE02007F08EFC3E
:1029100007F082FA07F08AFFDFF898B1CBF80000E1
:10292000554C04FB0094554880FB04302044E317C9
:10293000C3EB601007F07AFC07F06EFA07F076FF41
:10294000DFF874A1CAF80000DFF87091A0EB001066
:1029500004EB8004C9F80040494C23685B682046BA
:102960004849102298472046DBF8001005F016FD74
:102970002046DAF8001005F011FD2046D9F80010C5
:1029800005F00CFD204605F0BDFC23685B68204681
:102990003D49082298472046D8F8001005F0FEFC73
:1029A000204605F0AFFC23685B68204637490822C3
:1029B00098472046396805F0F1FC204605F0A2FC56
:1029C00023685B68204632490E2298472868FEF744
:1029D0005DFC23685B6820462E490C2298473068CE
:1029E000FEF754FC32682B68D51A23685B682046D2
:1029F0002949152298472046294605F0CFFC204654
:102A000005F080FC2548642105F0B6FAFFF758F878
:102A10000220012104F052FB0022214B1A604FF0EA
:102A2000FF32204B1A60BDE8F88F4FF4A2701E49A8
:102A300008604FF4007001F57F610860BCE64FF458
:102A4000A2711A4A11604FF4007102F57F621160A1
:102A5000BEE600BF68FDFF1FB5814E1B70FDFF1F66
:102A6000F0FEFF1F6CEFFF1F78FFFF1F74EFFF1FCB
:102A700068EFFF1FC5B3A291F0F1FFFF8988888836
:102A80005405002034260100482601005426010088
:102A90004025010060260100702601000082FF1F12
:102AA00008FDFF1FD8FEFF1F18B0044014B00440FB
:102AB00070EFFF1F38FDFF1F1CFFFF1F04FDFF1FEE
:102AC000002070470020704770B503460D4616463B
:102AD000242908BFC280114C2046197A00F088FDD5
:102AE00023681B682046C5F30721984723681B68A5
:102AF0002046E9B2984723681B682046C6F30721A1
:102B0000984723681B682046F1B29847204600F09A
:102B100005FED0F1010038BF002070BDC8000020C4
:102B200010B5044679B920215522FFF7CDFF0346A1
:102B300018B3E28842F004022046242192B2FFF743
:102B4000C3FF034619E0012916D12A2140F273126E
:102B5000FFF7BAFF034680B1204620218822FFF705
:102B6000B3FF034648B1E28822F004022046242144
:102B7000FFF7AAFF034600E00023184610BD00BF80
:102B800038B5044601250571334800F07FFC052067
:102B900004F038FB2046302144F26002FFF794FF36
:102BA000204626216C22FFF78FFF204628214FF474
:102BB000F972FFF789FF20462C2140F62272FFF7B9
:102BC00083FF20463C2144F24642FFF77DFF20462A
:102BD000242140F23712FFF777FF2046302144F2DC
:102BE000FF02FFF771FF204602217322FFF76CFFFF
:102BF0004FF4C87004F006FB20462E2141F61D520A
:102C0000FFF762FF204604210A46FFF75DFF2046DA
:102C100006214FF49872FFF757FF20460A21102231
:102C2000FFF752FF20460E210022FFF74DFF2046FE
:102C3000102143F63C42FFF747FF2046222147F68A
:102C40007F72FFF741FF204624213622FFF73CFF29
:102C50006572284638BD00BFC800002038B504465C
:102C60000D4679B901230371222147F67F72FFF7E0
:102C70002BFFE28842F010022046242192B2FFF797
:102C800023FF38BD802994BFC1F180050025037959
:102C90003BB100230371C28822F010022421FFF708
:102CA00013FF2046222145EA0522FFF70DFF38BD1C
:102CB00010B504460846064907F05EFF054907F0CF
:102CC00053FE08F045F901462046FFF7C7FF10BD47
:102CD00000000143EE7CFF3E08B50F2934BF0B46D0
:102CE0000F230F2A28BF0F22202142EA0312FFF7E9
:102CF000EBFE08BD10B5044605F0D6FA204610BD1F
:102D000008B503480349044A08F002FC08BD00BFA7
:102D100004000020F52C000060EFFF1F30B41E4BB4
:102D20001A68126919791D4B19701D4B9A420CD201
:102D30001C4B1B786BB14FF080421B4B1A601B4B36
:102D400003F5007403F5807308E0184B03F58074F5
:102D500004E0164B03F5007403F58073144A116800
:102D6000144A1268A9B1A2B113480088402810D8AB
:102D70004500294404312A44043240300E4D288055
:102D8000188821F8020B588822F8020B04339C4261
:102D9000F6D830BC704700BF140000201F800040F0
:102DA00090E8FF1F0E00002008E200E090E7FF1F00
:102DB0001C000020100000200C000020F8B5064682
:102DC00005F00AF9044640B105F006F9054628B9B0
:102DD000204605F05DF9002400E0002572B61A4B8C
:102DE0001B887F2B19D9194B1F681C60184B1C6856
:102DF0001D600022144B1A8062B63046394605F039
:102E000067F9384605F044F930462146012205F0BD
:102E10005FF9204605F03CF9F8BD9CB10B4B1B68EF
:102E200043B90A4B1C600A4B1D600022064B1A80F6
:102E300062B6F8BD62B6204605F02AF9284605F0CC
:102E400027F9F8BD62B6F8BD0C0000201C00002078
:102E50001000002010B5324C2046012105F0C6F9C3
:102E600000F09CF84FF480622E4B1A6023681A68B9
:102E700000222D49196023681A715A710121997134
:102E8000D971022119725A729A72DA721A735A73CC
:102E90009A73DA7318692548186119755A75D98AB1
:102EA0004FF48071D9821A766FF0010058764FF096
:102EB000FF309876D876D88BD983998B0621998361
:102EC000237903F1804303F504331A708E221A70BC
:102ED00005F038F9164B18702279164B1A70164AFD
:102EE000136843F0124343F001031360134B1A6855
:102EF00042F010421A60227902F110011048114B81
:102F000043F8210053119B0003F1604303F5614333
:102F100002F01F02012101FA02F21A6010BD00BF87
:102F20001400002014B00440A0F0024090E7FF1FFE
:102F30000E0000201B80004080F0024000F00240A4
:102F40001D2D000000EAFF1F08B503480349044A8D
:102F500008F0DEFA08BD00BF14000020F52C0000C8
:102F600060EFFF1F08B503480349044A08F0D0FA90
:102F700008BD00BF20000020F52C000060EFFF1FFF
:102F800008B503480349044A08F0C2FA08BD00BF67
:102F900028000020F52C000060EFFF1F30B4274B05
:102FA0001A6842F400421A60254A116841F0020191
:102FB00011601A6842F002021A60224B1B68002B53
:102FC0003ADB214B1B68002B36DB4FF086421F4B50
:102FD0001A601A461368002BFCDB41F210021C4BEE
:102FE0001A600024A43B1C6001205C3B1860194A55
:102FF00004331A604FF4803104331960164A0433E5
:103000001A60164B164D2B60CC352C60154C206089
:10301000154C164804600430016015490A60154AD1
:1030200013604FF4C06302F5DF3202F5BA72136029
:10303000043213600C32136030BC70473C80044093
:103040004080044000F0024080F0024000F1024065
:1030500004F10240030000071B0F0100000F0F0FD7
:1030600014F0024084F002400300004788F0024060
:1030700090F0024094F0024008B503480349044A26
:1030800008F046FA08BD00BF30000020F52C000013
:1030900060EFFF1F08B503480349044A08F038FAF7
:1030A00008BD00BF38000020F52C000060EFFF1FB6
:1030B00008B503480349044A08F02AFA08BD00BFCE
:1030C00040000020F52C000060EFFF1F08B503480A
:1030D0000349044A08F01CFA08BD00BF480000205C
:1030E000F52C000060EFFF1F08B503480349044AB0
:1030F00008F00EFA08BD00BF50000020F52C0000BB
:1031000060EFFF1F10B50446002104F0F7FFE0B1A7
:1031100094F8F63013F0FF0F02D104F0B9FF10BDA0
:1031200094F8F4300133352B28BF002394F8F510C0
:10313000C9B28B4202D104F0ABFF10BD991D04EB64
:1031400081014860DBB284F8F43010BD90F8F420BF
:10315000D2B290F8F530DBB29A4238BF3532D01A8D
:10316000704700BF38B50546D0F8F00020B104F034
:103170008FFF0023C5F8F03095F8F540E4B295F8DC
:10318000F430DBB29C420ED00134352C28BF002431
:10319000A31D05EB8303586804F07AFF95F8F4301B
:1031A000DBB29C42F0D1E4B285F8F54038BD00BFF7
:1031B000D0F8F030B3B990F8F530DBB290F8F420E5
:1031C000D2B2934210D00133352B28BF00239A1D71
:1031D00000EB82025268C0F8F020DBB280F8F530D4
:1031E000101D7047002070470020704710B504463E
:1031F000D0F8F00020B104F04BFF0023C4F8F03009
:1032000010BD00BF0B4BDB68834211D0094B1A681D
:1032100012F4804F04D0D86040F0804018617047AD
:10322000044B05491960D86040F0804018611A606D
:10323000704700BF00C0024001401F00184B1A68D1
:1032400042F480521A60174B174A1A60174ADA6024
:1032500002F180421A61164A1A60164B1B7813F06D
:10326000010F07BF4FF41072134B4FF40072134B52
:103270001A60104B1B7813F0020F4FF400720CBF52
:103280000F4B104B1A600B4B1B7813F0040F07BF4A
:103290004FF410720C4B4FF400720C4B1A607047D5
:1032A0003C80044000C0024001401F000110003873
:1032B00000001F805005002018B0044008C00440E2
:1032C0001CB004400CC0044014B0044004C00440CE
:1032D00008B50B4B1A6842F480521A60094BDB6840
:1032E00003F0E06213F0007F05D020F4704300F497
:1032F000704043EA10101043FFF784FF08BD00BF81
:103300003C80044000C00240044BD878C0B2044B5B
:103310001B6898421CBF024B186070470060064053
:1033200078EFFF1F0B4B1B7813B90B4B1B7873B156
:103330000A4B1B78202B03D901230371002070470F
:10334000581C064A1070064AD154012070470020CC
:10335000704700BFDA0000209C000020DB00002046
:1033600078000020704700BF024B1878024B1B7892
:10337000C01A7047D9000020D8000020074B1B78E6
:10338000074A12789A4205D9591C044A1170054A15
:10339000D05C70474FF0FF30704700BFD80000206E
:1033A000D9000020A0000020054B1B78054A1278A8
:1033B0009A4286BF044AD05C4FF0FF30704700BF8E
:1033C000D8000020D9000020A000002008B5104B34
:1033D000DB7813F0200F0CD1122003F041FE0D4BCF
:1033E0001B689BB100210C4A11700C4A1078984759
:1033F00008BD0B4A13780133DBB21370012B02D8DE
:10340000084B1B7813B9122003F02AFE08BD00BF39
:103410000060064074000020D8000020D900002081
:10342000C40000209C00002038B514460D4B1B78CA
:1034300013B90D4B1B7893B10C4B1D78C5F12103CB
:10344000A34202D2012202711C46094828442246A6
:1034500003F00EF92544054B1D70204638BD0020B1
:1034600038BD00BFDA0000209C000020DB000020F7
:1034700078000020002202714FF47A71816002739B
:10348000014A0260704700BFD026010000220C4BA9
:103490001A700C4B196841F0400119600A4B9A7080
:1034A0004FF4197209490A6004390A6027225A70D8
:1034B00004229A7120225A7180229A70704700BFAC
:1034C0009C00002034800440006006400CA00440B2
:1034D00008B53D4BDB78DBB213F0100F06D010219E
:1034E000394AD17013F0400F03D108BD13F0400FDB
:1034F0002CD013F0040F1BD00023344A1370344A2D
:103500001370344B1B681BB19847314B1B782BB998
:1035100001222F4B1A7000222F4B1A702A4BD022F7
:103520009A702D4A12781A7101222C4B1A7009E0F8
:103530000122264B1A700022294B1A70224BC022FE
:103540009A701B790222204BDA7008BD1E4A9278CD
:1035500012F0100F1CD013F0010F14D11F4B1B7869
:103560001B4A12789A4207D9591C1C4A11701A4AF0
:10357000D25C154B1A7102E00022134B1A71D02253
:10358000114B9A701BE0104BC0229A701B7916E009
:103590000022144B1A7012201349032203F018FD65
:1035A000094B1B79DAB20E4B1B781F2B07D8074942
:1035B000097821B1581C0A4908700C49CA540222E2
:1035C000014BDA7008BD00BF0060064071000020AA
:1035D000DB000020C000002078000020DC0000207C
:1035E000D9000020C4000020CD330000A00000203E
:1035F0004900044B19700123034A1370034A1370E6
:10360000704700BF78000020DA000020DB000020B7
:103610002DE9F04182B08846374B1222DA709B7850
:1036200013F0200F03D0B422334B9A701DE0334BBC
:103630001B680093009D314C0CE023680193019BB3
:103640005B1B0F2B06D92C4B00229A7080229A709C
:1036500004204EE0FFF758FE10F0200FEDD10022BD
:10366000274B1A70B022244B9A70FFF74DFE10F0D2
:10367000200FFAD0234B1B787BB30024224E1E4D23
:10368000204F335D2B71FFF73FFE10F0020F02D188
:1036900010F0200FF7D10223EB70FFF735FE10F08A
:1036A000100F04D08022144B9A70042018E010F000
:1036B000200F04D18022104B9A70042010E010F0EB
:1036C000010F04D0002C0CBF022003200BE00134BA
:1036D000E4B23B78A342D4D801E0002000E000200F
:1036E000B8F1000F02D08022034B9A700022074BE2
:1036F0001A7002B0BDE8F081006006402C04002082
:103700009C000020DB00002078000020DA00002070
:1037100008B5C9B2FFF76CFF08BD00BF08B50121AD
:10372000FFF776FF08BD00BF08B50248FFF7A2FE0D
:1037300008BD00BFC800002010B582B002AB03F87E
:10374000011D0268546819460122A04702B010BD4D
:1037500010B50446C3691BB901230371002010BDD5
:1037600000201871E06901F0AFF9E3691B7913B12A
:1037700001232371002010BD00B583B0C06960B182
:103780000DF10701012200F0C7FE01280CBF9DF8D2
:1037900007004FF6FF7000B201E04FF0FF3003B0BA
:1037A0005DF804FB30B583B00446C06978B10DF113
:1037B0000701012200F0B0FE01280AD19DF8075050
:1037C000E069C168013900F057FF284603E0002096
:1037D00001E04FF0FF3003B030BD00BF08B5C06955
:1037E00008B100F081FF08BD2DE9F04104460E4606
:1037F0009046002303714FF47A7282600373114B79
:103800000360242007F0BCFEE061B8B135460746EE
:1038100006F1200E3E4628686968AA68EB680FC664
:10382000103537467545F5D12868306004F10D0034
:1038300041460C2208F082FD002363762046BDE855
:10384000F08100BFF0260100002202714FF47A716E
:103850008160027302490160C2614273704700BF18
:10386000F0260100014B0360704700BFF026010005
:1038700008B5C06928B100F0FFFE003018BF012074
:1038800008BD002008BD00BFC3690BB1D8687047F0
:103890004FF0FF30704700BFC3690BB198697047A4
:1038A0000020704738B50446C36963B1FFF7F4FFE1
:1038B00005462046FFF7E8FF281A47F6FF739842AF
:1038C00028BF184638BD002038BD00BF10B50446DB
:1038D000C06930B100F034FFE06907F059FE002301
:1038E000E36110BDC36923B19879003018BF01208E
:1038F00070470020704700BF10B58AB004460A46E2
:1039000000238DF80830094901918DF80A3001A88B
:103910002146012300F0C6FF041C18BF012414B186
:1039200001A800F00DFF20460AB010BD18270100C5
:10393000F0B58BB007460E4600248DF80840094DBF
:1039400001958DF80A40FFF7D7FF034638B901A863
:103950003946324601F03CF8031B18BF01231846D4
:103960000BB0F0BD18270100F0B40C68035D2F2BDD
:103970001CD101341AE0002563B11EE00135013489
:1039800007F8013F0C2D05D016F8013F2F2B01D071
:10399000002BF3D100235355035D2F2B08BF0134B7
:1039A0000C60005D003018BF01200BE00619035DBC
:1039B0002F2B08BF0025EDD0DDE70134137017462B
:1039C0000125E1E7F0BC70472DE9F04F99B0824640
:1039D0000F469146984600238DF81C30244A0692E3
:1039E0008DF81E308DF840300F928DF842300193E3
:1039F0000C4606AE4FF0010B03E00FAC23463446F5
:103A00001E46504601A902AAFFF7AEFF054680F008
:103A10000102204602A9D2B24346C84730B9BC428F
:103A20001CD0204600F08CFE00201EE07DB1304608
:103A3000214602AA5B4600F035FF0546BC4211D084
:103A4000204600F07DFE002DD8D100200DE0BC42C4
:103A500006D0204600F074FE012006E0002004E0BD
:103A6000012002E00028C8D1002019B0BDE8F08F85
:103A70001827010038B504460A46012100F06AFA09
:103A8000A8B1251D28462146012201F0A1FA28B936
:103A900028462146002201F09BFA50B104F12C0087
:103AA000294600F00FFD003018BF012038BD00206E
:103AB00038BD002038BD00BF2DE9F04F99B08146D8
:103AC0009346019300238DF81C30394A06928DF8F5
:103AD0001E308DF840300F928DF8423006A8043128
:103AE00000F0F0FC5C460FAE06AD4FF02F084FF033
:103AF000000A2CE023782F2B01D1013427E03F1B53
:103B0000FFB20C2F28BF0C2702A821463A4608F026
:103B100015FC18AB3B4403F858AC304600F010FEDF
:103B20003046294602AA012300F0BCFE40B900231A
:103B300089F804301E4AC9F8002089F8063032E0BE
:103B40003C44284600F0FCFD2B4635461E462046E8
:103B5000414608F0EFFA07460028CBD1CBEB04042E
:103B6000019B1C602B7989F80430114BC9F8003097
:103B70006B7989F80530AB7989F80630AB68C9F8FC
:103B80000830EB68C9F80C302B69C9F810302B7D70
:103B900089F81430AB69C9F81830EB69C9F81C30E2
:103BA0002B6AC9F82030484619B0BDE8F08F00BF35
:103BB00018270100F0B5A7B0044615461F4602A815
:103BC00001ABFFF779FF01996E18695C19BB9DF88D
:103BD0000C308DF85430344B14939DF80D308DF823
:103BE00055309DF80E308DF85630049B1693059B8A
:103BF0001793069B18939DF81C308DF86430089B32
:103C00001A93099B1B930A9B1C93204614A9274ACD
:103C1000FFF7EAFD45E000218DF83010224B0B93B1
:103C20008DF832109DF80E301BB92046FFF70CFEC0
:103C300037E00BA802A932463B4600F033FE18B924
:103C40002046FFF701FE2CE002A800F079FD17F0F6
:103C5000060F03D00BA8119900F00EFD9DF830302F
:103C60008DF87830104B1D939DF831308DF87930F8
:103C70009DF832308DF87A300D9B1F930E9B209368
:103C80000F9B21939DF840308DF88830119B239332
:103C9000129B2493139B259320461DA93246FFF7C0
:103CA000A3FD204627B0F0BD18270100082701001A
:103CB00008B500F12C0308461946024A0023FFF715
:103CC00083FE08BD31390000064B00229A700221A4
:103CD000596083F8242083F830200349D96283F89F
:103CE00032207047E000002018270100084B1A68B6
:103CF00042F480621A604FF00042DA62FF225A6397
:103D00001A46D36A002BFCDA014B986BC0B270479D
:103D100000C00240064B1A6842F480621A604FF0FD
:103D20000042DA6258631A46D36A002BFCDA704705
:103D300000C0024008B505281ED8DFE800F00308DF
:103D40000D1115194FF038420E4B1A6017E04FF065
:103D500038420C4B1A6012E00B4A0A4B1A600EE014
:103D60000A4A084B1A600AE0094A064B1A6006E044
:103D7000084A044B1A6002E0074A024B1A60FFF738
:103D80005DFA08BD3401002000000138011001383F
:103D900003200038032001380650003808B50078A9
:103DA000012103F08BF9114B1B78F3B100220F4B6B
:103DB0001A700F4B1B78C3B113F0010F03D00D4BDA
:103DC0001A680D4B1A600A4B1B7813F0020F03D0D0
:103DD000084B5A68094B1A60054B1B7813F0040F07
:103DE00003D0044B9A68064B1A6008BD38010020C6
:103DF000700000206400002000E100E004E100E029
:103E000008E100E010B5244B1B78002B3ED10122C5
:103E1000214B1A70214B1A68214B1B78002B28D09C
:103E200072B61F4B1B7813F0010F07D01D4B1C6897
:103E30001D49096821401D4C21601960184B1B78F1
:103E400013F0020F07D01A4B1C681749496821402C
:103E5000164C61601960124B1B7813F0040F07D0E9
:103E6000144B1C68104989682140104CA1601960EE
:103E700062B6114BDB68934208D00F4B0F491960B3
:103E8000DA6042F080421A610D4A1A60007800211F
:103E900003F014F910BD00BF3801002034010020E8
:103EA0007000002080E100E0580000206400002045
:103EB00084E100E088E100E000C0024001401F0012
:103EC00000001F8070B582B00E460B4B1B6800933C
:103ED000009C094DA4B2FFF709FFFF2807D02B680B
:103EE0000193019B9BB21B1BB342F4DB01E0012059
:103EF00000E0002002B070BD2C040020F8B505469B
:103F00000F4616464FF49671FFF7DCFF47F040006E
:103F1000FFF700FF182426FA04F0C0B2FFF7FAFEFC
:103F2000083C14F1080FF6D127B1082F0CBF8720E9
:103F3000FF2000E09520FFF7EDFE0024FFF7D6FEFE
:103F4000687010F0800F03D00134B4F5807FF5D194
:103F5000F8BD00BF2DE9F04F87B004460191002362
:103F6000837002707D4B1B680393039FBFB21046A2
:103F7000012103F0A3F82078012103F0D1F8207883
:103F8000012103F09BF8764B1A6842F480521A60C4
:103F90000620FFF7CFFE734B1A68734B1B78002B7C
:103FA00028D072B6704B1B7813F0010F07D06F4BFF
:103FB00018686F49096801406E48016019606A4BD2
:103FC0001B7813F0020F07D06B4B186868494968DB
:103FD0000140684841601960634B1B7813F0040F7F
:103FE00007D0664B18686249896801406148816062
:103FF000196062B6624BDB68934200F0A080604BB0
:1040000060491960DA6042F080421A615E4A1A60C3
:1040100095E02846FFF77EFE013E16F0FF06F8D138
:10402000514B1B78C3B113F0010F03D0514B1A68E9
:10403000564B1A604C4B1B7813F0020F03D04D4BBC
:104040005A68534B1A60484B1B7813F0040F03D087
:10405000484B9A684F4B1A602046FFF7D3FE4FF04B
:104060000008DFF8F89008E0D9F800300493049BCA
:10407000DB1B9BB2B3F5FA6F5DD820464146424642
:10408000FFF73CFF054660700128EDD1204608216E
:104090004FF4D572FFF732FF10F0040F04D0012364
:1040A000A3704FF0000A0FE04FF00408FFF71EFE68
:1040B000607008F1FF3313F0FF08F7D1AA283AD156
:1040C0000223A3704FF0804A4FF037094FF00008E9
:1040D000DFF888B008E0DBF800300593059BDB1BB8
:1040E0009BB2B3F5FA6F26D8204649464246FFF701
:1040F00005FF204629215246FFF700FF6070002887
:10410000E9D1A378022B0ED120463A210022FFF7F5
:10411000F5FE80B9FFF7EAFD00F0C000C02811D11C
:104120000323A3700EE02046FFF738FE0198FFF747
:1041300001FE2E460DE02046FFF730FE09E00A267C
:10414000FF2566E7FFF7D2FDFFF7D0FDFFF7CEFDB5
:10415000E9E7304607B0BDE8F08F00BF2C0400202F
:104160003C800440340100207000002080E100E029
:10417000580000206400002084E100E088E100E0B5
:1041800000C0024001401F0000001F8000E100E06D
:1041900004E100E008E100E070B582B004460E4B97
:1041A0001B680093009D0C4EADB207E0336801938D
:1041B000019B9BB25B1BB3F5967F09DCFFF796FD75
:1041C0006070FF28F2D0FE2814BF0020012000E01C
:1041D000002002B070BD00BF2C040020F8B50446DA
:1041E0000D4616468378032B18BF4D02FFF70AFED3
:1041F000204611212A46FFF781FE002847D120469C
:10420000FFF7CAFF002842D0234B244A1A60244AF1
:104210005A635A635A6306F5FD7E764513D2B01C85
:1042200006F5FE771946CB6A13F0F00FFBD04A6310
:104230008B6BC3F3072500F8025C00F8013C0230E9
:10424000B842F0D100E0B64606F5007676450DD9C5
:104250007146114AD36A13F0F00FFBD0936BC3F38E
:10426000072008704B7002318E42F3D80A4B0B4A7C
:104270001A600B4A5A631A46D36A13F0F00FFBD048
:10428000054B9B6B2046FFF789FD0120F8BD2046BA
:10429000FFF784FD0020F8BD00C0024000041F802D
:1042A000FFFF0090F8B506461E4B186840F480608A
:1042B00018604FF00040D8625963114602F500774C
:1042C0000446DA6A002A08DBFBE7DA6A002A0DDB1B
:1042D000FBE7D36A002B15DBFBE708460A781D686D
:1042E00045F480651D60DC625A63EEE742781D6824
:1042F00045F480651D60DC625A630231B942E0D149
:10430000084AE6E7FF20FFF705FDFF20FFF702FD63
:10431000FFF7ECFC707000F01F00052814BF0020B0
:104320000120F8BD00C0024070B5044616460D4697
:1043300029B38378032B18BF4D02FFF763FD204696
:1043400018212A46FFF7DAFDC8B92046FE21324679
:10435000FFF7A8FF98B120464FF41671FFF7B2FDA2
:1043600068B120460D210022FFF7C8FD38B9FFF7DC
:10437000BDFC20B92046FFF711FD012070BD20468D
:10438000FFF70CFD002070BD014A024B1A60704718
:10439000011001383401002010B50446006A0121E3
:1043A00004F1080200F08AFD034650B1E3693BB90D
:1043B000A368E361637963F07F036371012300E025
:1043C0000123184610BD00BF70B50646FFF7E4FF95
:1043D0000346E0B1336AB268023A197C02FA01F589
:1043E0005A6915441C794CB1013D281900F09CFC18
:1043F000034660B1013C14F0FF04F6D1336A1B7C24
:104400004FF400729A40B3691344B3610123184614
:1044100070BD00BF10B50446006900F061FC20B11A
:10442000207D034B03EB401010BD002010BD00BFEA
:10443000480100202DE9F00100232022CA54013355
:104440000B2BFBD10138002507264FF008084FF051
:104450000A0C1B4F21E02E2C01D03A4606E00A2E12
:1044600024D04546664618E0A34221D012F8013F09
:10447000002BF9D1AE421DD3A4F12103DBB25D2B99
:104480001AD86B1CDBB20D44A4F16102D2B2192A16
:104490009CBF203CE4B22C701D4610F8014F002C4C
:1044A000D9D10878203818BF012006E0002004E0A8
:1044B000002002E0002000E00020BDE8F00170478D
:1044C0001F27010038B504460D4683790BBB91F8D0
:1044D0002020102A07D1022383710023C3614B8C53
:1044E0005B0183610CE0202A14D103238371496AA4
:1044F000C161284604F1180200F06CFC034648B183
:104500002562012363710022A260E26022612275AC
:1045100000E00023184638BD2DE9F04F83B0044673
:1045200088468379002B62D0437913F0010F61D064
:104530008169C368CB1A9A4228BF1A460192002AA1
:1045400053D01646DFF8E8A0DFF8E890DFF8E8B0CF
:10455000E368C3F30807A279022A04D1226A516AE8
:1045600001EB53211BE0206A0579013D05EA532543
:10457000EDB25FB955B913B9E369A36006E022460D
:1045800052F8081F00F0F0FB002836D0226AA3681A
:10459000023B117C03FA01F1526911442944C7F529
:1045A0000075AE42B8BF3546637913F0400F02D1B3
:1045B000B5F5007F2AD1D9F8003099422DD125E0F8
:1045C000A8440DE057447819874209D03B4642463B
:1045D00013F8011B02F8011B8342F9D1C71BB84431
:1045E000E3682B44E360761BB2D101981DE04FF0E5
:1045F000FF301AE04FF0FF3017E04FF0FF3014E0CB
:104600004FF0FF3011E04FF0FF300EE00846002180
:1046100000F066FB0028D5D1F2E7DBF80000424647
:10462000FFF7DCFD0028CBD1EDE703B0BDE8F08F4C
:10463000480100207CEFFF1F4401002030B583B00B
:1046400004468379012B0FD9C5680DF107010122BA
:10465000FFF762FF012809D1E3681F33E36005F427
:10466000F070044B184402E0002000E0002003B08A
:1046700030BD00BF48010020F8B504460F468379DD
:104680007BB382698A422BD3022B02D1E1600123E2
:1046900027E021B900238360C360012321E0C368C0
:1046A000026A157C09355A1EEA40013921FA05F5DE
:1046B000AA4200D813B9E369A3600AE0AD1A08E082
:1046C000206AA168324600F04FFB013D034610B955
:1046D00007E004F10806002DF2D1E760012300E0B5
:1046E00000231846F8BD00BF38B50446807918B3DA
:1046F00094F90530002B1BDA20460121FFF78AFED2
:104700000546C0B1A379012B9CBFA369C361A38BEC
:104710004383E38B8382094B1B682BB1183005F16F
:10472000160198472B8B6B82637903F07F036371CB
:1047300000F0AAFA38BD002038BD00BF3C010020BF
:1047400010B50446FFF7D0FF034610B10023A37154
:104750000123184610BD00BFF0B583B004460D46D6
:104760008379012B4ED1427902F0020202F0FF015F
:10477000002A49D08269AA4248D3002A47D0C66895
:104780002946FFF779FF0346002840D04DB9206A3B
:10479000E16900F0F7FB0346002838D00023E3610D
:1047A0001DE0206AA16801AA00F0DEFAA8B1206A23
:1047B000019990F820704FF6F872164B102F08BF31
:1047C000134699420BD200F0DDFB30B1206AA1689C
:1047D0006FF0704200F02AFB08B9002317E0A561D2
:1047E000637963F07F0363712046FFF77DFF034623
:1047F00068B12046B54234BF29463146FFF73CFF39
:10480000034604E0002302E00B4600E000231846C4
:1048100003B0F0BDF8FFFF0F38B5044615461F4B37
:1048200003EB4113DA7A12F0110F02D015F0420FA8
:104830002CD121751A4A12682261998A0904E16112
:104840005A8B1143E161D87A10F0180004D1DB696A
:10485000A3610123A3710AE0102819D1206A04F191
:10486000180200F0B7FA0346A8B10423A37105F0BB
:104870000F0363710023A360E36015F0400F09D0BC
:1048800020461946FFF768FF034604E0002302E0D4
:10489000002300E00123184638BD00BF4801002076
:1048A0007CEFFF1F2DE9F04F85B005460C469A4678
:1048B0008679002E7FD1104601A9FFF7BBFD0028A5
:1048C0007BD0236A2B620027A760E760DFF8FC90AB
:1048D0004FF0010825E0C1F3431B2046FFF7AEFE71
:1048E000014600286AD003780BB1E52B09D12FB916
:1048F00085F814B0D9F800302B6147460B7883B99E
:1049000013E001A80B2207F0E7F850B90AF03003D2
:10491000302B53D0284659465246FFF77DFF0646B6
:104920004CE0E168A3699942D5D30AF01203122B37
:1049300044D137B128460121FFF76CFD044660B928
:104940003CE0A379022B39D02046FFF73DFD064617
:10495000002833D000232B751A4C2046002120223A
:1049600007F04EF901AB03CB206061601A889B7899
:104970002281A372144B1B682BB104F1100004F1C7
:104980000E01984707E02123237428236374002332
:10499000A3730823E373238A63822383E389E38277
:1049A00000F072F9064648B12846297D5246FFF7C5
:1049B00033FF064602E0002600E00646304605B01A
:1049C000BDE8F08F480100203C0100207CEFFF1F74
:1049D000F0B589B004460D463323FFF763FF034665
:1049E00000286AD0012363710423A3712046FFF7D6
:1049F000EBFC0346002860D02046FFF775FE034617
:104A000000285AD020460121FFF704FD0746002860
:104A100052D01023C3726E4600687968BA68FB688A
:104A20000FC638697969BA69FB690FC6BE8A7F8B80
:104A30006B460DF10A01202203F8012F8B42FBD1B6
:104A40002E238DF80030236AE269023A197C02FABB
:104A500001F05B691844012100F042F9034660B39C
:104A6000ADF81460ADF81A70154E6F460FCF0FC633
:104A700097E80F0086E80F002E238DF80130AB7900
:104A8000023BDBB2012B03D9EA6993B2120C01E0BD
:104A900000231A46ADF81420ADF81A30094D6E46C1
:104AA0000FCE0FC596E80F0085E80F004023E360A6
:104AB00000F0EAF8034600E00023184609B0F0BD14
:104AC00048010020680100202DE9F04F85B0044620
:104AD000884601928379012B40F0B380437913F02B
:104AE000020F00F0AE8013F0040F08D08169C36894
:104AF0008B4204D0FFF7C0FD002800F0A28001988F
:104B0000002800F083800646DFF85CA1DFF85CB186
:104B1000206AE76890F8049009F1FF3909EA5729FB
:104B2000C7F3080719F0FF0923D117BBA16841B9E2
:104B3000E36923B92046FFF72FFCD0B981E0A360D9
:104B400017E003AA00F010F9002800F08180039B11
:104B5000226A92F820104FF6F8723F48102918BFC9
:104B60000246934204D32046FFF716FC08B968E0DA
:104B7000A360C7F50075ADB2B54288BFB5B2236A70
:104B8000A268023A197C8A405B691A449144B5F5DF
:104B9000007F12D1DBF800304B4504BF4FF0FF33EC
:104BA000CBF800302D4B186849464246FFF7BCFB56
:104BB000002846D008F5007823E07FB9E268A369B1
:104BC0009A420BD300F060F800283AD0CBF800905E
:104BD000234B1A7842F001021A7004E04846012182
:104BE00000F07EF868B357447819874209D03B46F5
:104BF000424612F8011B03F8011B8342F9D1C71B7F
:104C0000B844E3682B44E360761B81D1E368A26972
:104C1000934205D9A361637963F07F03637108E070
:104C2000104B1B682BB1019B1BB1637963F07F03B1
:104C30006371637913F0080F07D02046FFF754FD26
:104C400028B901232371002002E0019800E00198B7
:104C500005B0BDE8F08F00BFF8FFFF0F4401002052
:104C6000480300203C010020480100207CEFFF1F8A
:104C700000B583B002AB03F8011D19460122FFF70E
:104C800023FF03B05DF804FB08B5104B1B78D3B1CC
:104C90000F4B18680F4B19680F4AFFF745FB034687
:104CA00090B10E4B196849B1094B18680A4AFFF7D1
:104CB0003BFB034640B10022084B1A600022034B25
:104CC0001A70012300E00123184608BD48030020A4
:104CD000440100207CEFFF1F48010020400100201C
:104CE00038B504460D460C4B1B6883420DD0FFF7C8
:104CF000CBFF034670B1094B18682146084AFFF7FD
:104D00006DFA034630B1044B1C60064B1A7815430C
:104D10001D700123184638BD7CEFFF1F44010020A1
:104D2000480100204803002010B50446FFF7ACFFFF
:104D3000034680B109494B1E01F2FF11002203F81E
:104D4000012F8B42FBD1064B1C60064B1A7842F0B8
:104D500001021A700123184610BD00BF480100204F
:104D60007CEFFF1F4803002070B504460D46164631
:104D7000C36801338B4225D3C36990F82020102AE1
:104D80000CBF080AC8091844104B1B68984204D08D
:104D90000021FFF7A5FF0346A8B194F82030102B9F
:104DA00006D1EDB20A4B33F81530336001230AE027
:104DB00005F07F05064B53F8253023F07043336030
:104DC000012300E00023184670BD00BF7CEFFF1FE9
:104DD000480100202DE9F04383B0044602AE46F8B6
:104DE000041D914600254FF400780F4F204601998D
:104DF0003246FFF7B9FF034688B1237C08FA03F374
:104E00001D4494F820104FF6F873102914BF39464A
:104E10001946019B8B42E9D3C9F80050012318467B
:104E200003B0BDE8F08300BFF8FFFF0FF8B50446FC
:104E30000D461746012931D9C368013399422FD84D
:104E4000C36990F82020102A0CBF0E0ACE091E4418
:104E5000164B1B689E4205D030460021FFF740FFED
:104E6000034600B394F82030102B04D1EDB2104B60
:104E700023F8157004E005F07F050D4B43F825700D
:104E80000C4B1A7842F001021A70237E012B09D9CB
:104E9000A3681E44084B1E60012304E0002302E0C7
:104EA000002300E001231846F8BD00BF7CEFFF1F80
:104EB0004801002048030020400100202DE9F04F68
:104EC00085B006468A46009217681FB10137002355
:104ED000019305E00768012914BF00230123019312
:104EE000F36803F10108DBB13C4600254FF00209ED
:104EF000CB46A0453CBF4C465F463046214603AA00
:104F0000FFF732FF60B1039B0BB1671C03E0631C2A
:104F1000DB1B534506D001350134F368AB42E8D8BA
:104F200000232AE0304621466FF07042FFF77EFFF3
:104F3000034648B921E0651E304629462246FFF760
:104F400075FF034618B918E0BC42F4D803E0BD422F
:104F500001D92C46EFE7009B196829B130463A4643
:104F6000FFF764FF034640B1009B1F60019B1BB12C
:104F700001373760012300E00123184605B0BDE882
:104F8000F08F00BFF0B583B005460C4602230360E6
:104F900000260E4F2846214601AAFFF7E5FE80B104
:104FA000284621463246FFF741FF50B1019C95F853
:104FB00020104FF6F873102918BF3B469C42E9D3E6
:104FC00001E0002000E0012003B0F0BDF8FFFF0F7A
:104FD000F8B50546494B19601446DAB1042A7FD862
:104FE00000200146FFF77CFE0346002800F0838086
:104FF000434B03EB041494F8AE3104F5D47413F06E
:105000007F036FD1D4F81210632974D9D4F80E40FD
:105010000CB970E0002420460021FFF761FE034632
:10502000002868D0364BB3F80B30B3F5007F5BD166
:10503000334B1B7C002B5ED0314AD289002A55D0DD
:105040002F4A517B002953D02B76297100232B74D2
:10505000012003E05A1C2A74072B4BD82B7C1E46D8
:1050600000FA03F29142F5D1254BD98A01B9596A68
:10507000A960234BDA892244EA61B3F8110087B2B0
:1050800068841B7C03FB01236B627A0102F2FF122E
:1050900003EB62236B611A4AB2F813200AB9184A6B
:1050A000126AE31A134423FA06F6EE6040F6F4732C
:1050B0009E4204D80C2385F8203001231BE04FF6D4
:1050C000F4739E4204D8102385F82030012312E0A7
:1050D0000B4BDB6A6B62202385F8203001230AE04A
:1050E000002308E0002306E0002304E0002302E0A0
:1050F0000B4600E000231846F8BD00BF4401002025
:105100004801002010B504460322A04B1A70036822
:105110001B6898479E4B9B7913F00C0F40F0488119
:105120009B4B9B7913F0100F00F04281984B9B79B9
:1051300013F0200F00F09C803AE1954B9B7913F01F
:10514000100F40F03C81924B9B7913F0200F40F000
:10515000608134E18E4B9B7913F0100F40F0368163
:105160008B4B9B7913F0200F00F03081884B5B78DC
:1051700013F0020F7CD029E1854B9B7913F0100FBF
:1051800040F02B81824B9B7913F0200F40F025815A
:105190007F4B5B7813F0020F6AD01EE17C4B9B794A
:1051A00013F0100F40F02081794B5B7813F0020F61
:1051B0005ED119E1764B9B7913F0100F00F01B8143
:1051C000734B9B7913F0200F40F01581704B5B7887
:1051D00013F0020F4CD10EE16D4B9B7913F0100FC1
:1051E00000F010816A4B9B7913F0200F40F00A8188
:1051F000674B5B7813F0020F3AD003E1644B9B7965
:1052000013F0100F34D1624B9B7931E0937903F0A6
:105210000C03082BFAD15E4B5A7902F0BF025A7187
:105220001A46937913F0200FFBD1594B5A7842F06C
:1052300001025A7064221A701A46937913F0100F03
:10524000FBD0534A937913F0010FFBD0504A937966
:1052500003F00C03042BFAD14D4B5A7842F00202B2
:105260005A704FF48032A3F5DF33A3F5DE731A6072
:10527000484B1B7813F0040F16D1474B00221A70CD
:105280001B78444A137813F0010FFBD0424B4022A5
:105290001A701B78414A137813F0040FFBD13D4A72
:1052A000137813F0040FFBD03D4B1A6822F0020272
:1052B0001A60EFF3108372B6BFF35F8FBFF34F8FA7
:1052C000BFF36F8F30BF83F31088BFF35F8FBFF3DF
:1052D0004F8FBFF36F8FBFF35F8FBFF34F8FBFF35E
:1052E0006F8F2F4B1A6842F002021A60294B1B780D
:1052F00013F0040F0DD0284B00221A701B78274A98
:10530000137813F0040FFBD0224A137813F0010F27
:10531000FBD01F4B5A7802F0FD025A70A0221A707F
:105320001A46937913F0020FFBD0194A937913F0C0
:10533000100FFBD1164A937903F00C03082BFAD116
:10534000134B03221A7140225A711A46937913F0B3
:10535000200FFBD00E4A937913F0400FFBD0114A77
:10536000114B1A6020220A4B1A701A46937903F0E7
:105370000C030C2BFAD123685B6820469847002267
:10538000024B1A70094B186810BD00BF90E9FF1F4F
:105390000040064003E0074001E0074002D007401C
:1053A00010E000E0000013114480044094E9FF1F66
:1053B0001A4B9B79C3F38103032B3FF4BEAE174B0B
:1053C0009B79C3F38103022B3FF4C4AE134B9B794B
:1053D000C3F38103022B3FF4CFAE104B9B79C3F391
:1053E0008103022B3FF4DAAE0C4B9B79C3F38103AC
:1053F000012B3FF4DFAE094B9B79C3F38103012BF3
:105400003FF4EAAE054B9B7913F00C0F3FF4F6AE78
:105410002EE7A022014B1A701A46F7E6004006401C
:10542000094B1B6813F0005F0DD0084B1A6801325E
:1054300008331A60064B1B78032B01D0052B02D1D1
:105440002322044B1A6070473C80044000D0034084
:1054500090E9FF1F94E9FF1F08B5FFF7E1FF08BDC2
:1054600010B504460D4B1B78012B16D0032B01D031
:10547000052B0FD194F8313013B90422084B1A6070
:1054800094F83020074B1A7072B64220A16A01F0DE
:1054900097FD62B6A26B044B1A6010BD90E9FF1F26
:1054A00088E100E042E400E01CD0034038B5044647
:1054B0002A4B1B78012B4FD0032B01D0052B1AD17F
:1054C000274B1B7884F8303001F0F2FBFF2804DC16
:1054D00010380028D8BF802000E08020C0B2204BC8
:1054E000187072B61F4BD3F84831A36242201E4990
:1054F00001F066FD62B61D4B1B6813F0005F03D020
:10550000012384F83C3004E0184B1A6842F0005242
:105510001A60124B1B78032B01D0052B0BD1144BB7
:105520001B6803F00403DBB284F8313043B9042272
:105530000F4B1A6004E00F4B1A7942F020021A71E7
:105540000D4D2B68A36301F0A3FDE36A013B1844F2
:105550000A4A106004232B6038BD00BF90E9FF1F8A
:1055600042E400E000EAFF1F215400003C800440B8
:1055700008E100E05C0700201CD0034008D0034095
:1055800010B4012480F82540C2EB021292004FF4BF
:10559000616404FB01210B44C3625DF8044B704756
:1055A0000022014B1A60704700600340034B48F62D
:1055B000A3721A60024A1A60704700BF006003407D
:1055C000A28F01002DE9F00F5B4BA3FB00425209B3
:1055D000C2EB0214A0EB84000870A3FB02A35B09DA
:1055E000C3EB0310A2EB80024A70544CA4FB0308E7
:1055F0004FEA181808EB4802A3EBC2038B7047462A
:1056000008F104004E4AA0FB0223C21A03EB520326
:105610009B08C3EBC303C01A0130C87000200246C8
:1056200040F26D1C474C4FF064094FF4B77BC5B294
:1056300005F2B273ABB113F0030F14D184FB03A6D0
:10564000761109FB163686B984FB03A6F6114FF4D2
:10565000C87A06FB1A36002E0CBF4FF4B7766646A2
:1056600004E0664602E0664600E05E4632440130F1
:105670009742DCD28D71CBB113F0030F19D13148B1
:1056800080FB03404011642404FB1030A0B92D4876
:1056900080FB03A0C0114FF4C87400FB1430002835
:1056A00040F26D1408BF4FF4B77407E040F26D1478
:1056B00004E040F26D1401E04FF4B774121BC2EB2A
:1056C0000804204F87FB03074FEA671C642202FB94
:1056D0001C3CFF114FF4C87202FB173700221A4E10
:1056E0004FF01C0803F0030A4FF01D09D0B2012847
:1056F0000BD163B1BAF1000F0BD1BCF1000F0AD18D
:10570000002F0CBF1D251C2506E0955D04E04546D5
:1057100002E0454600E04D46A54205D8641B013035
:10572000C0B201320C2AE1D10130487101340C7150
:10573000BDE8F00F704700BF89888888ABAAAAAA85
:10574000254992241F85EB516027010010B50446BE
:10575000044B1B68984204D00349FFF733FF014B09
:105760001C6010BD900300209403002008B5FFF7D3
:10577000EDFF014B987808BD9403002008B5FFF7B2
:10578000E5FF014B587808BD9403002008B5FFF7EA
:10579000DDFF014B187808BD9403002008B5FFF722
:1057A000D5FF014B187908BD9403002008B5FFF719
:1057B000CDFF014B587908BD9403002008B5FFF7D1
:1057C000C5FF024B987900F2B27008BD9403002027
:1057D0002DE9F00390F806C0374A02FB0CF2BCF149
:1057E000000F24D00CF2B27440F2B273334F4FF07A
:1057F00064084FF4C879002B16DD13F0030F13D1A2
:1058000087FB0365DE17C6EB651508FB15353DB94B
:1058100087FB0356DD17C5EBE61509FB153119B9F2
:1058200002F5A83202F5C0720133A342E3D14479F4
:10583000012C2DDD0CF2B277204B83FB07684FEA79
:10584000681C642303FB1C7C4FEAE8184FF4C87300
:1058500003FB187801231A4E1A4D07F00309022B97
:105860000ED16FB1B9F1000F0AD1BCF1000F02D116
:10587000B8F1000F04D102F5181202F56E5204E0DF
:10588000F11811F8011C05FB01220133A342E6DBEC
:1058900084784378C3EB031399004FF4616303FBEF
:1058A000041301780B4400790138064901FB0030EC
:1058B0001044BDE8F00370478033E1011F85EB51D0
:1058C00060270100805101002DE9F04F83B00746A9
:1058D0000C4616469846BDF93030BDF834B0C2EBE0
:1058E0000309B9F1000FB8BFC9F10009C1EB080203
:1058F000002AB8BF52429145D4BF4FF000094FF083
:105900000109B9F1000F04D04246984613463446C7
:105910000E46444505DD32461E46134622464446A1
:105920009046C4EB080292B20092C6EB030ABAF1A9
:10593000000FB8BFCAF1000A15B205EBD575C5F363
:105940004F054FF6FF729E42B8BF012201924445B7
:1059500024DCB9F1000F08D03B68D3F808C0384602
:10596000314622465B46E04707E03B68D3F808C073
:105970003846214632465B46E047CAEB0505ABB2E6
:105980009DB215F4004F05D0019A164436B2009D21
:105990001D44ADB2013424B2A045DADA03B0BDE84B
:1059A000F08F00BF2DE9F04782B00446894690464B
:1059B0009A46BDF92860BDF82C50076800957F69AC
:1059C000B8472368721E424400955F6920464946E5
:1059D00012B25346B847236800951F6920464946CE
:1059E00042463346B84723680AF1FF3A0AEB0901F9
:1059F00000951D69204609B242463346A84702B0C9
:105A0000BDE8F08710B582B00468013B13441BB2B7
:105A10000093BDF810300193E4680B46A04702B034
:105A200010BD00BF30B583B00468013B0B44009249
:105A3000BDF818500195E4681BB2A04703B030BD13
:105A40002DE9F04782B005460C469246BDF92890F4
:105A5000BDF82C80CF18B9420CDA2968CDF8008047
:105A60000E692846214652464B46B047013424B2BF
:105A7000BC42F2DB02B0BDE8F08700BF10B582B0D7
:105A80000468B0F90A30B0F90C2000920191E46981
:105A900000210A46A04702B010BD00BF704700BFFA
:105AA00030B400240471094D0560C1800281418138
:105AB0008281C475C4810482012282754FF6FF7110
:105AC000818241820276447630BC7047782701009B
:105AD0002DE9F04F8DB081460991BDF85800039033
