:1000000000800020BD010000D9A9000091A90000D6
:1000100091A9000091A9000091A9000091A90000F8
:1000200091A9000091A9000091A90000D9A90000A0
:10003000D9A9000091A9000081C1000085C100007C
:10004000D9A90000D9A90000D9A90000D9A90000A8
:10005000D9A90000D9A90000D9A90000D9A9000098
:10006000D9A90000D9A90000D9A90000D9A9000088
:10007000D9A90000D9A90000D9A90000D9A9000078
:10008000D9A90000D9A90000D9A90000D9A9000068
:10009000D9A90000D9A90000D9A90000D9A9000058
:1000A000014E0000D9A90000D9A90000D9A900007B
:1000B000D9A90000D9A90000D9A90000D9A9000038
:1000C000D9A90000D9A90000D9A90000D9A9000028
:1000D000D9A90000D9A90000D9A90000D9A9000018
:1000E000D9A90000D9A90000D9A90000D9A9000008
:1000F000D9A90000D9A90000D9A90000D9A90000F8
:10010000D9A90000D9A90000D9A90000D9A90000E7
:10011000D9A90000D9A90000D9A90000D9A90000D7
:10012000D9A90000D9A90000D9A90000D9A90000C7
:10013000D9A90000D9A90000D9A90000D9A90000B7
:10014000D9A90000D9A90000D9A90000D9A90000A7
:10015000D9A90000D9A90000D9A90000D9A9000097
:10016000D9A90000F9AF0000D9A90000D9A9000061
:10017000D9A90000D9A90000D9A90000D9A9000077
:10018000D9A90000D9A90000D9A90000D9A9000067
:10019000D9A90000D9A90000D9A90000D9A9000057
:1001A000D9A90000D9A90000D9A90000D9A9000047
:1001B000D9A90000D9A900003DBF0000564B4CF260
:1001C000205210B51A804DF628121A8000BF00BFC9
:1001D00000F0F2FB514B4FF010621A60504A9A60E7
:1001E000504ADA60504A136813F4807304D14F49BF
:1001F0000B604FF4A85313604D4B1A78110703D5C9
:100200001A7842F008021A704A4B4B492A221A7097
:100210004A4A4B4B8B4204D252F8040F43F8040B6A
:10022000F8E7484B484900228B4202D243F8042B9E
:10023000FAE74649464A002352F8230041F82300D2
:1002400001336F2BF8D1434B434A802103F8011B44
:100250009342FBD1414B3D4A1A60414B8A221A70AE
:10026000A3F5805324225A70A0221A709A7992071B
:10027000FCD59A79D406FCD43A4A937903F00C035E
:10028000082B384BF9D103221A7140225A719A79FE
:100290009006FCD5334A9179324B4906FBD5324A58
:1002A000324911600221516020221A709A7902F0BD
:1002B0000C020C2AFAD12E4B2E4A1A602E4B2F4AD2
:1002C0001A6000225A60072243F8042C2C4AC3F813
:1002D0000C2D62B60AF066FD144B1B68DA0705D5D3
:1002E00028480AF0E3FC284B284A1A60284B1B7860
:1002F0005B0609D5244C254B22689A4204D121483B
:100300000AF0D4FC002323600AF06AFB0DF0A2FC83
:100310000CF0A2F8FEE700BF0E200540308004403C
:10032000823F04000100002B10D0034014D0034092
:1003300002D0074000E00740880A00202C6101003D
:1003400020F9FF1F880A00209058002000F4FF1FAA
:100350000000000000E400E05FE400E008ED00E0E1
:100360000050064000400640448004400000030165
:1003700004800440C010050014E000E0FF76010096
:1003800000002020C64E81661CE00340A5C3945A9D
:1003900000F00740FFFFFFFFFFFFFFFFFFFFFFFF32
:1003A000FFFFFFFFFFFFFFFFFFFFFFFFFFFFFFFF5D
:1003B000FFFFFFFFFFFFFFFFFFFFFFFFFFFFFFFF4D
:1003C000FFFFFFFFFFFFFFFFFFFFFFFFFFFFFFFF3D
:1003D000FFFFFFFFFFFFFFFFFFFFFFFFFFFFFFFF2D
:1003E000FFFFFFFFFFFFFFFFFFFFFFFFFFFFFFFF1D
:1003F000FFFFFFFFFFFFFFFFFFFFFFFFFFFFFFFF0D
:10040000FFFFFFFFFFFFFFFFFFFFFFFFDEF9FFFF23
:1004100010B5054C237833B9044B13B10448AFF33E
:1004200000800123237010BD880A00200000000016
:1004300028610100084B10B51BB108490848AFF30B
:1004400000800848036803B910BD074B002BFBD0A0
:10045000BDE81040184700BF000000008C0A0020D3
:1004600028610100880A0020000000000020704779
:10047000704700BFF8B55548554D564C297803785C
:100480002278DFF868E1544F544E120442EA032305
:10049000FF222A700270802022708EF800003870CF
:1004A000B2794F480B4312F00C0FC36002D1B379FD
:1004B000DC063DD4494A9379C3F38103032B40D032
:1004C000464B9A79C2F38102022A42D0434A937979
:1004D000C3F38103022B53D0404A9379C3F38103C2
:1004E000022B61D03D4A9379C3F38103012B51D094
:1004F0003A4A9379C3F38103012B5CD0374B9A7945
:1005000012F00C0F03D19A79D20600D49B79354DA5
:10051000354B2A7853F82240D4B1236820469B6893
:1005200098472B7804EB83046468002CF5D1F8BD60
:10053000B3799806EBD5294A9379C3F38103032B4A
:10054000BED19379D906BBD493799B06DFD4B7E7A4
:10055000F8BD9A79D706B9D49A799606B6D559785E
:1005600001F0020101F0FF020029AFD120211A7031
:100570001A461970937903F00C030C2BFAD1C6E7D5
:100580009379DD06A8D493799C06A5D4537898076F
:10059000BDD5A1E79379DF06AAD593799E06A7D4A6
:1005A00053789D07B3D4A3E79379D9069AD45378A7
:1005B0009B07ACD496E79379DC069FD59379980690
:1005C0009CD453789907A2D598E700BF06C007408E
:1005D00005C0074007C0074009C00740004006406B
:1005E00068580020C85600208856002008C00740E0
:1005F00090F92410104B03604B1C06D0F0B40F4E42
:1006000056F82130984201D0F0BC70470C4F57F893
:10061000213033B18D0000245A1953685460002BE7
:10062000FAD1084C23780022013B237047F821209F
:1006300046F82120E8E700BFC04E0100A856002080
:1006400088560020C956002038B590F924506B1CFC
:100650001BD00E4B0E4953F825400E4BEDB24FF018
:10066000FF320D701A6084B1AD0002E02C44646862
:100670005CB194F82530002BF8D0236820462C4438
:100680001B6898476468002CF3D138BD8856002059
:10069000C8560020B8F3FF1F704700BF90F9241020
:1006A000104B03604B1C06D0F0B40F4E56F82130AF
:1006B000984201D0F0BC70470C4F57F8213033B14D
:1006C0008D0000245A1953685460002BFAD1084C4D
:1006D00023780022013B237047F8212046F821208F
:1006E000E8E700BFC04E0100A85600208856002051
:1006F000C956002090F92410104B03604B1C06D003
:10070000F0B40F4E56F82130984201D0F0BC70473B
:100710000C4F57F8213033B18D0000245A1953681B
:100720005460002BFAD1084C23780022013B23703F
:1007300047F8212046F82120E8E700BFC04E01001D
:10074000A856002088560020C9560020704700BFD8
:1007500010B5002104460BF05BFBB0B1B4F8B43126
:100760009BB2C3B1B4F8B031B4F8B2219BB201333B
:10077000632BC8BF002392B2934207D09A1D04EBAB
:1007800082029BB25060A4F8B03110BDD4F8B831E9
:100790000133C4F8B831BDE810400BF0F5BA00BF22
:1007A00010B5044B044640F8103B07F015FE2046F8
:1007B00010BD00BF784E010010B504460BF068FB79
:1007C000204610BDB0F8B231B0F8B0119BB289B27A
:1007D0008B4202460FD00133632B86BF00210B46AC
:1007E00099B2063300EB83035868C2F8AC01A2F853
:1007F000B211043070470020704700BF826C62B1B4
:10080000137803F0080303F0FF0003B3D3695069C2
:10081000181A48BF6FF000407047C16CC1B191F821
:10082000313003F0080303F0FF0083B1D1E9042362
:10083000D1E90001101A30B463EB010100256FF01B
:1008400000448D4208BF844200D2204630BC70472D
:1008500008467047836C13B1184606F037BFC06C6A
:1008600008B105F049BD704700B5836C83B063B132
:10087000184601220DF1070106F072FD01280CD186
:100880009DF8070003B05DF804FBC06C28B101229D
:100890000DF1070105F070F8F0E74FF0FF30F1E7D8
:1008A000836C13B1184606F025BEC06C08B105F084
:1008B00033B94FF0FF307047836C13B1184606F020
:1008C0000BBFC06C08B105F0B5BE704700B5836CB6
:1008D00083B08DF8071043B1184601220DF10701CE
:1008E00006F0FAFE03B05DF804FBC06C0028F9D0F6
:1008F00001220DF1070105F09DFE03B05DF804FB38
:1009000070B5044608460D460EF05AF823680246B4
:10091000294620465B68BDE870401847002310B4A4
:10092000104C4172026104600372C36041B1194608
:1009300000E0026942F82310427A01339A42F8DC5F
:10094000094B1A680AB90BE01A465369002BFBD110
:100950005061002343618380C380837210BC704761
:100960001860F6E76C4E0100DC57002038B50546EC
:10097000D0F8AC0120B10BF007FA0023C5F8AC3178
:10098000B5F8B241B5F8B031A4B29BB29C420ED0DA
:100990000134642C28BF0024A31D05EB8303586891
:1009A0000BF0F2F9B5F8B0319BB29C42F0D19BB29A
:1009B000A5F8B23138BD00BF464A474B1020108021
:1009C0001B781B0734D5F0B5444E454D454C317866
:1009D0002B782278DFF82CE1434F824042EA032350
:1009E0000B43FF22802132702A7022708EF8001093
:1009F0003970D9073D4A14D51A2393603C4F3D4EB8
:100A00003D4D3E4C3E49107900233B70537093702E
:100A1000D370D360337013712B7023701370087010
:100A2000F0BD1F0705D4DE0606D504239360E5E775
:100A3000704721239360E1E79D0604D45C0604D54A
:100A400016239360DAE79060D8E7180602D50923E9
:100A50009360D3E7D90502D50A239360CEE79F05BB
:100A600002D50D239360C9E75E0502D50B23936081
:100A7000C4E71D0502D51E239360BFE7DC0402D541
:100A800002239360BAE7980402D507239360B5E781
:100A9000590402D506239360B0E71F0402D515233D
:100AA0009360ABE7DE0302D524239360A6E79D03A2
:100AB00002D522239360A1E7DC0202D525239360AF
:100AC0009CE71803F5D45903F3D49B0244BF2323B6
:100AD000936093E70020054002D0074005C007401F
:100AE00006C0074007C0074009C0074068580020FB
:100AF00000C0074001C0074002C0074003C00740D4
:100B000004C0074008C00740002976D02DE9F04F07
:100B10000C469100631883B05D68002D57D06B18A8
:100B20005E68002E50D073185F68002F49D07B1884
:100B3000D3F80480B8F1000F3CD008EB0103D3F8E0
:100B40000490B9F1000F32D009EB0103D3F804A0EF
:100B5000BAF1000F27D00AEB0103D3F804B0BBF1C0
:100B6000000F18D00BEB01035B6863B119440193CC
:100B70004968FFF7C9FF019B93F825201AB11A684D
:100B80001846536898479BF8253023B1DBF80030AE
:100B900058465B6898479AF8253023B1DAF8003058
:100BA00050465B68984799F82530002B35D198F866
:100BB000253063BB97F825301BB13B6838465B682E
:100BC000984796F82530CBB995F8253063B994F855
:100BD000253013B903B0BDE8F08F23685B68204669
:100BE00003B0BDE8F04F18472B6828465B6898476C
:100BF00094F82530002BEDD0EFE77047336830468E
:100C00005B68984795F82530002BE0D0ECE7D8F8E2
:100C1000003040465B689847CCE7D9F8003048463A
:100C20005B689847C3E700BF90F92420531C26D087
:100C30001B4B2DE9F04153F82240D2B2ECB19300A6
:100C4000E1184D68B5B1E9184E6866B1F1184F6802
:100C500037B13B445968FFF757FF97F82530A3B9E0
:100C600096F8253063B995F825301BB12B682846D6
:100C70005B68984794F8253063B9BDE8F081704708
:100C8000336830465B689847EDE73B6838465B68F9
:100C90009847E5E7236820465B68BDE8F0411847C0
:100CA0008856002008B50C4B0C491A680C48022ADB
:100CB00008BF0C4A4FF00003A1F8B43108BFA2F8F6
:100CC000B431094A094B12881A8007F085FB642069
:100CD000BDE808400AF018B80CFAFF1F704F00205A
:100CE000E05400202C51002008580020E05700203C
:100CF000264B1B680F2B0CD8DFE803F00C101418E0
:100D00001C2024282C3034383C404408204B214AF5
:100D10001A6070471E4B204A1A6070471C4B1F4ACE
:100D20001A6070471A4B1E4A1A607047184B1D4ACA
:100D30001A607047164B1C4A1A607047144B1B4AC6
:100D40001A607047124B1A4A1A607047104B194AC2
:100D50001A6070470E4B184A1A6070470C4B174ABE
:100D60001A6070470A4B164A1A607047084B154ABA
:100D70001A607047064B144A1A607047044B134AB6
:100D80001A607047024B124A1A60704700FAFF1F40
:100D9000B8540020BD549341103377C0993918C01E
:100DA000BE0D68BFCE71153F8D090340CCC96240AE
:100DB00009A7A3407DDBD140C416014154FC174173
:100DC000D0E83041195546419FAB5F41A041764183
:100DD0005E2E864138B50121142009F0B1FD234B68
:100DE0001B68012B3DD00021072009F073FF002173
:100DF0000C2009F06FFF00210E2009F06BFF052188
:100E0000072009F07BFF1A4C1A4D05210C2009F030
:100E100075FF05210E2009F071FF2078002109F0EF
:100E200059FF2878002109F055FF0521287809F09D
:100E300065FF4FF4FA6009F067FF0121207809F09F
:100E400049FF4FF4FA6009F05FFF2078002109F0B4
:100E500041FF4FF4FA6009F057FF074B074A1A6049
:100E600038BD074807F0B8FABDE700BFA80A002060
:100E70008C530020E05300200CED00E00400FA0544
:100E8000E05400202DE9F84F6D4F3B68012B5ED0F8
:100E9000022B01D0BDE8F88F6A4DB5F8B031B5F836
:100EA000B22199B293B2994238BF6431CB1A1F2B49
:100EB000F0DDDFF8A8A1DFF89CB1DFF888910AF532
:100EC0008047D8460026D5F8AC310024002B39D015
:100ED000DBF8AC3100208BB304F58071534634F954
:100EE000022B23F8042C30F9022B23F8022C8C421D
:100EF00003F10403F3D1D5F8AC0118B10AF044FFB3
:100F0000C9F8AC61DBF8AC0118B10AF03DFFC8F8D4
:100F1000AC610AF5007A5745D5D14B4B986C002847
:100F200075D04FF48042494906F0D6FB013077D0A6
:100F3000474A136820331360BDE8F88F4548FFF730
:100F400041FCC9E73F48FFF73DFC0446C0E73D4D83
:100F5000B5F8B031B5F8B22199B293B2994238BF21
:100F60006431CB1A3F2B95DD3B4CDFF8D8A0012133
:100F7000112009F0AFFE04F580494FF000081AE097
:100F800009F0F4F930460AF0FFFEC5F8AC812D48AF
:100F9000FFF718FC4FF480720146204609F0E6F98D
:100FA000D5F8AC0118B10AF0EFFECAF8AC8104F52F
:100FB00000744C4517D0D5F8AC61A4F5807B4FF494
:100FC000807200215846002EDAD11E48FFF7FAFB46
:100FD000DAF8AC6101464FF48072584609F0C6F960
:100FE000002ED4D0CEE71120002109F073FE164B5D
:100FF000986CD8B14FF48042144906F06DFB013073
:1010000011D013493B680A6820320A6040E7D86C67
:1010100000288DD04FF480420C4905F00BFB85E78A
:10102000FFF7D8FE84E7FFF7D5FEEAE7D86C002883
:10103000E7D04FF48042054905F0FCFADFE700BF36
:101040000CFAFF1F704F0020D0540020B40A00207B
:101050006C4F00202C510020B40B0020B80A002057
:1010600038B500250824152009F08CFB0CF0C0F9D8
:101070004FF06A510CF010FA014628460CF004F9C2
:10108000013C0546EFD104490CF006FA4FF07851C7
:101090000CF002FA38BD00BF9A999940064A074BF6
:1010A000116853F8211031B1116853F82120013A29
:1010B00043F821207047FEE7845500202C5500207E
:1010C00010B582B004460DF07BFC00B2012816DD9D
:1010D000B4F9003044F25242934233D012DD44F26C
:1010E000537293421DD044F65212934207D101AA83
:1010F000E01C1C490DF034FC1B4B019A1A600120C6
:1011000002B010BD44F24E429342F8D101AAE01C55
:1011100014490DF025FC154B019A1A60012002B00C
:1011200010BDE01C01AA0F490DF01AFC019B0F2B0A
:1011300013D90F4B042119600F2009F001FC012085
:1011400002B010BD01AAE01C06490DF009FC094BD4
:10115000019A1A60012002B010BD054AD9B213608D
:10116000EAE700BFD84E010098FAFF1FB00A00203E
:1011700000FAFF1F90FAFF1F2DE9F04FDFF8988269
:10118000A04BD8F878549FB04FF47A720A9300239A
:101190008DF82C308DF834301C931D930C92002D5B
:1011A00000F0CF8005F23C46304605F06FFF29463F
:1011B000304606F0CFF8DFF87492D9F800100EAF81
:1011C00021B138460023904A07F01AF91C980028EC
:1011D00000F0D48000252E468DF808604FF0000BFB
:1011E0004FF0FF0A98B101220DF1070106F0B8F89F
:1011F000012817D00BF101031EAA93441BB21D2B2B
:101200000BF870AC17DC1C989B460028EBD11D9B9B
:10121000002B55D0184601220DF1070104F0ACFB5C
:101220000128E7D19DF807200D2A08BF5B4640F052
:10123000C9801D2BE7DD013B9BB21EAA1A4402F8B0
:10124000706C9DF808202F2A04D0012B02D902A827
:10125000FFF736FF1C98C0B1037819070ED4384643
:1012600007F0BAF8002D36D10124684B0A933846AE
:1012700007F0B2F820461FB0BDE8F08FC36942699D
:101280009A1AA9D4002AA7D1E9E71D9B002BE6D022
:1012900093F831201207E2D5D3E904ABD3E9002358
:1012A000BAEB02026BEB03034FF0000B6FF0004A46
:1012B0009B4508BF924538BF5246002A8CD1CEE7E5
:1012C0000BF101031EAA93441BB21D2B0BF870AC4B
:1012D000B1DC9B4699E70B214D480AF0CDFB00237A
:1012E0000A2221464B480AF095FF4A480AF068FF57
:1012F000D8F87854484B9DB305F23C46304605F08B
:10130000C5FE2946304606F025F8D9F8001029B167
:1013100044F202233C4A384607F072F81C9B002B2B
:1013200049D02146184606F01BF91C9800283AD0EF
:1013300002223A4906F0D0F9384607F04DF8012468
:1013400093E7D8F87C54002D3FF435AF05F5886657
:10135000304604F091FA2946304604F097FA2AE71D
:10136000D3F87C54002DD0D005F58866304604F0C3
:1013700083FA2946304604F089FAC6E71D9D002D00
:101380007FF428AF142126480AF076FB21480AF0A2
:1013900017FF0D22234924480AF0FCFE22482C4660
:1013A0000AF00EFF61E71D980028C5D002221B49F4
:1013B00005F040F9C0E71D980028BDD0224604F092
:1013C000C3FBB2E71EAB03EB0B01542A0BF1010385
:1013D00001F8702C1BB20DD11C9818B14469013C66
:1013E000012526E71D9A12B11468013CF8E74FF079
:1013F000FF34F5E71D2B3FF71EAF0A2A3FF41BAF62
:1014000001E700BF9C4E0100DC4E0100784E010058
:10141000E84E010024000020B84A0020F44E0100EC
:10142000F84E0100104F0100145300207C5600209C
:101430002DE9F041044604200D46164609F050FC03
:101440008046032009F04CFC0746B8F1000F2AD172
:10145000DFF89C80244AD8F800300121132B11704A
:1014600039DD0133642BC8F800303ADDC82BD4BF16
:1014700005343C3467B91D4F1B4A3B680121132BCF
:10148000117022DD3C2C16DC01233B60013C02E0A4
:10149000164B00221A60AC4209DBB442C8BF2C468E
:1014A0002046BDE8F081124B00221A60E2E7344684
:1014B0002046BDE8F0813B680133642B3B60E5DDED
:1014C000C82BD4BF053C3C3CE5E7C82009F01CFC18
:1014D0003C2CD9DDEFE7C82009F016FCD8F8003025
:1014E000BFE70134C6E700BF604F00203C55002035
:1014F000C854002010B5094C204608F0F3FC2046E3
:10150000012108F045FA2046022108F03BFA0022AA
:1015100020461146BDE8104008F030BA14530020B0
:1015200038B5054607F0B0FF1E4C014620460AF0CC
:10153000B1FE2D200AF024FB284607F097FF014654
:1015400020460AF0A7FE2D200AF01AFB284607F0D5
:101550007FFF014620460AF09DFE012112480AF055
:101560008BFA284607F04AFF014620460AF092FE11
:101570003A200AF005FB284607F04EFF01462046B8
:101580000AF088FE3A200AF0FBFA284607F052FFDC
:10159000014620460AF07EFE2046BDE838400AF0AB
:1015A0000FBE00BF240000201C51010038B50546C5
:1015B00009F0ACF9074C2070681C09F0A7F96070BD
:1015C000A81C09F0A3F9A070E81C09F09FF9E070CD
:1015D000206838BD7453002008B50020FFF7E6FFEF
:1015E0001D4B18600420FFF7E1FF1C4B186008201A
:1015F00009F08CF91A4B1870092009F087F9194B7A
:1016000018700A2009F082F9174B18700B2009F0A6
:101610007DF9164B18700C2009F078F9144B1860FE
:101620000D2009F073F9134B18600E2009F06EF9C4
:10163000114B18700F2009F069F9104B1860102039
:1016400009F064F90E4B18601220FFF7AFFF0D4B45
:1016500080B2188008BD00BF90FAFF1F98FAFF1FE4
:10166000AC0A00208055002028540020684F00203C
:10167000BC54002080FAFF1F8CFAFF1F00FAFF1FE6
:101680000CFAFF1FAE0A002038B50A4C0B4605467F
:10169000C9B2236009F054F96178681C09F050F967
:1016A000A178A81C09F04CF9E178E81CBDE83840A5
:1016B00009F046B97453002008B51F4B0020196883
:1016C000FFF7E2FF1D4B04201968FFF7DDFF1C4BFD
:1016D0000820197809F034F91A4B0920197809F013
:1016E0002FF9194B0A20197809F02AF9174B0B200A
:1016F000197809F025F9164B0C20197809F020F912
:10170000144B0D20197809F01BF9134B0E20197892
:1017100009F016F9114B0F20197809F011F9104B47
:101720001020197809F00CF90E4B1988122089B293
:10173000BDE80840FFF7A8BF90FAFF1F98FAFF1F07
:10174000AC0A00208055002028540020684F00205B
:10175000BC54002080FAFF1F8CFAFF1F00FAFF1F05
:101760000CFAFF1FAE0A002070B5154C154D20462F
:10177000022108F007F9144B2A6853F8226030461A
:101780000DF01EF93146024620460AF003FD2046C0
:101790000AF016FD2046012108F0F4F82A680B4BE8
:1017A00053F8225028460DF00BF9294602462046F0
:1017B0000AF0F0FC2046BDE870400AF001BD00BF11
:1017C000145300208853002060FAFF1FC4FAFF1F43
:1017D00030B50F4C83B02046012108F0D3F8002229
:1017E0002046642108F0CAF8FFF73AFC0BF0AAF98A
:1017F000012502460B46009520460AF055FD054995
:101800002A46204603B0BDE830400AF0C3BC00BF02
:1018100014530020204F010008B501210F4808F0A3
:10182000B1F8082264210D4808F0A8F80C4B1B6899
:10183000012B0BD008225A21084808F09FF80622F5
:1018400008490648BDE808400AF0A4BC042206493D
:101850000248BDE808400AF09DBC00BF14530020B8
:101860000CFAFF1F2C4F0100244F01002DE9F04F0F
:1018700083B00F46019080680021013016460BF0BE
:10188000CDFD014629480BF0BBFE044630460BF067
:10189000ABFD01460BF0F8FC064638460BF0A4FD04
:1018A000014630460BF0F8FD014620460BF0A8FE3D
:1018B0004FF001084FF07E550746C1464FF0010A30
:1018C0004FF0000B50460BF093FD39460BF0E4FD52
:1018D00004460BF0A7FF0BF08BFD014620460BF0F2
:1018E000D1FC294606460BF075FF4FF0874148B101
:1018F00020460BF06FFF28B120460BF0F1FF354674
:101900008046D1461AF1010A4BF1000BBBF1000FE2
:1019100008BFBAF1400FD5D1019809F1FF3208F1A3
:10192000FF3380E80C0003B0BDE8F08F001B374C9C
:101930002DE9F04110298AB00C46074663D02029D2
:1019400004BF012309932246394607A8FFF78EFFFB
:101950000798089E099D0294431C013601350393A4
:10196000049605950BF040FD4FF07E510BF08CFC7A
:1019700026490BF091FD804630460BF035FD0146BF
:1019800040460BF03DFE4FF07C510BF085FD0646C6
:1019900028460BF029FD014630460BF031FE054686
:1019A00060000BF025FD014628460BF029FE0BF0E8
:1019B00039FF174B01901A46009716491648174DE4
:1019C000174C0AF019FC174917480B6823F010430D
:1019D0000B60079A089B120302F47F22C3F30B03E8
:1019E00013432B609DF8243043F0E06323609DF89F
:1019F000243043F08E4303600B6843F010430B60C8
:101A00000AB0BDE8F081032309939CE7001BB74CA3
:101A100000D8B805344F01002400002004F1024032
:101A200008F0024080F0024088F002402DE9F04FBB
:101A300005469D4E9D4FDFF88C8296F800E02F60A2
:101A4000FF2085F82400DFF8809298F80000BEF1AE
:101A5000060F59F820E04FF000038DB00C4685F8D2
:101A6000253085F8263098BF3370BEF1000F00F0A6
:101A7000AD808E455ED07346810001E09C4259D016
:101A80000B445B68002BF9D1734600E053460B44CE
:101A9000D3F804A0BAF1000FF8D15C603478029753
:101AA00005EB010B4FFA80FCFF23062CCBF804A0BA
:101AB0008DF82DA08DF82EA085F824C08DF82C303F
:101AC000744604D800233370002C00F0B480A24286
:101AD00029D0234601E0934225D00B445B68002BBC
:101AE000F9D104EB010EDEF80440002CF9D1CEF858
:101AF00004200CAB1944BCF1FF3F00F101034FF08F
:101B0000000041F8240C88F800308DF82CC00297B2
:101B100005D0674951F82C2002AB9A4276D028466E
:101B20000DB0BDE8F08F013088F8000028460DB0F8
:101B3000BDE8F08F31780297FF24002306298DF845
:101B40002C408DF82D308DF82E30574C00D8237056
:101B50009645E8D07346810001E09A42E3D00B44F9
:101B60005B68002BF9D18E44DEF804402CB1A64608
:101B70008E44DEF80440002CF9D10CAB46B2194477
:101B80000130731CCEF8042088F8000041F8244C82
:101B900002978DF82C60C2D0454951F8262002AB3F
:101BA0009A42BCD159F82630B00023B11A185368B4
:101BB0005460002BFAD198F800300022013B88F8DD
:101BC000003049F8262041F82620A8E700283AD01E
:101BD000374B96F800E043F82050810005EB010CEC
:101BE000002349F820408DF82D30CCF804308DF8D2
:101BF0002E304FFA80FCFF23BEF1060F029785F8C6
:101C000024C08DF82C307FF65DAF5DE759F82C309D
:101C10004FEA8C0423B11A1953685060002BFAD193
:101C200098F800300022013B88F8003049F82C2059
:101C300041F82C2073E7E8B11D4B49F8202002AA97
:101C400043F8202055E71B491B480B68019243F0DD
:101C500080630B600368194923F0804303601520FB
:101C600008F056FF164B019A4FF40011196098F8CE
:101C70000000ADE70F4C10482368019243F08063E9
:101C8000236003680D4923F080430360152008F0AA
:101C90003FFF0B4B019A4FF40011196098F80000B8
:101CA0004FFA80FC8100C7E7BCF3FF1FC04E010064
:101CB000A856002004700440007004407504000021
:101CC00000E100E0C9560020885600202DE9F047C9
:101CD00008F0D6FD4FF0FF316448654D08F0EEF88E
:101CE0006449654B0A682B6000236B722B612B7271
:101CF000EB600AB9B7E01A465369002BFBD1556176
:101D000000245E4E5E4F5F4B6C61AC80EC80AC7229
:101D100057482B60DFF8B481DFF8B4A1DFF8B49145
:101D200002F05CFE06F1180230460121FEF7F6FDD6
:101D300007F1180201213846A6F8B041C6F8AC41B7
:101D4000A6F8B241C6F8B841A6F8B441C6F800A05A
:101D5000FEF7E4FD4046A7F8B04188E86000C7F808
:101D600000A0A7F8B24188F8084088F80940C8F8F0
:101D70000C4088F81040C7F8AC41C7F8B841A7F844
:101D8000B4410AF051F8404A4049414E40460AF0F9
:101D90006FFD4FF0010A484689E8A00089F8094024
:101DA000C9F80C4089F8104089F808A00AF03CF8FE
:101DB0004846354A3549374DDFF81C810AF058FD51
:101DC000354B3560354986F82540FF2586F8245087
:101DD00019602D4A324974633046B46386F83C403A
:101DE00086F826A00AF044FD2E4B88F82450264A97
:101DF0002D4988F825404046C8F8003088F826A0CC
:101E000088F8274088F828400AF032FD32464146DB
:101E10002648274DFFF70AFE1B4A264923480AF0A9
:101E200027FD254B184AC3F878442826C3F87C447C
:101E300083F8984483F89564C3F8A0541F49204D53
:101E400018460AF015FD1F4B0F4A1C714FF47A76A5
:101E50001C739C64DC649E601D601B491846BDE8D1
:101E6000F0470AF005BD0D604AE700BF145300209B
:101E7000F8530020DC5700206C4E0100704F00200A
:101E80002C51002020540100FCF9FF1FB90700006D
:101E90009C5300205C55010068530020045401004D
:101EA0009D06000070550100F506000090540020CA
:101EB00001100138F1050000B84A00204D0700006C
:101EC0009C4E0100D0540020A1070000E8520020E1
:101ED000D44E0100FC5200204C5500202DE9F84F53
:101EE000424C434FDFF80C810A9E0B9D81468A4687
:101EF0002046396893461F4603F0B8F92046002172
:101F000002F0B2FE88FB0B314FEAEB73C3EBA10189
:101F100001EB8102ABEB420B0BF00F0B4BEA011113
:101F2000C9B2204602F0A0FE88FB0A314FEAEA73EC
:101F3000C3EBA10101EB8103AAEB430A0AF00F0AEC
:101F40004AEA0111C9B2204602F08EFE88FB09312F
:101F50004FEAE973C3EBA10303EB8301A9EB410152
:101F60001B0103F0300301F00F011943204602F07A
:101F70007BFE2046012102F077FE88FB0731FB172C
:101F8000C3EBA10101EB8103A7EB430707F00F07A8
:101F900047EA0111C9B2204602F066FE88FB06310D
:101FA000F317C3EBA10101EB8103A6EB430606F097
:101FB0000F0646EA0111C9B2204602F055FE88FB21
:101FC0000538E917C1EBA80808EB8801A5EB410526
:101FD00005F00F0545EA08112046C9B202F044FE9B
:101FE0002046BDE8F84F03F053B900BF6456002007
:101FF000E4FAFF1F6766666670B5104C06460D462C
:1020000020460A2103F032F9C6F30721204602F0E8
:102010002BFEF1B2204602F027FEC5F30721204631
:1020200002F022FEE9B2204602F01EFE204603F036
:102030002FF9B0FA80F0400970BD00BF645600204F
:1020400008B500213020FFF7D7FF00210220BDE8AE
:102050000840FFF7D1BF00BF08B5E2213020FFF7ED
:10206000CBFF43210220BDE80840FFF7C5BF00BFFA
:102070000238032810B503DC00285FDA002400E0F2
:102080000C2444F260013020FFF7B6FF6C212620BB
:10209000FFF7B2FF4FF4F8712820FFF7ADFF40F6CD
:1020A00022712C20FFF7A8FF00213C20FFF7A4FF9E
:1020B000FFF7D2FF21460420FFF79EFF4FF49871EF
:1020C0000620FFF799FF00210A20FFF795FF08215E
:1020D0000E20FFF791FF4FF6FF711020FFF78CFFE6
:1020E00047F67F712220FFF787FF00214FF492709F
:1020F000FFF782FF4FF48A712420FFF77DFF104C19
:1021000000212A20FFF778FF09210E4809F0B4FCCE
:1021100021680D480AF0BEF80B480AF051F8216812
:10212000202041EA0111FFF767FF014606480AF047
:10213000B1F805480AF044F8012010BD8400A0E77A
:1021400000FAFF1F504F01002400002010B5074B7C
:102150000446102153F82000FFF7EAFB044802F080
:1021600029FE2046BDE81040FFF782BF3CFAFF1F62
:1021700064560020F0B54F4C4F48216885B003F0FD
:1021800075F800214C4802F06FFD00214A4802F02A
:10219000CFFE216848480023072203F061F8464833
:1021A00002F082FD0DF1FF36002504E002F086FD0D
:1021B00006F8010F0135404802F076FD04463E481E
:1021C000002CF3D103F064F8072D09D00F213B4810
:1021D00009F052FC3A4809F0F3FF204605B0F0BD83
:1021E0009DF800509DF801409DF804009DF80510F1
:1021F0009DF802209DF80630324FDFF8E0C02E1126
:1022000006EB860605F00F0505EB4606251105EBE6
:10221000850504F00F0404EB4505041104EB840468
:1022200000F00F0000EB4404081100EB800001F007
:102230000F0101EB400EF6B2C2F301113E7018110E
:1022400001EB8101204E02F00F0202EB410200EB94
:102250008000EDB203F00F038CF8005003EB400355
:1022600032701A4D1A4A1B485FFA8EF1E4B2DBB2A3
:102270002C700170137097F800E09CF800703678AD
:102280002C78017813788DF80C401E3302A88DF855
:102290000E308DF808E08DF809708DF80A608DF821
:1022A0000D1007F001F90C4B01241860204605B011
:1022B000F0BD00BFE4FAFF1F645600205C4F010030
:1022C000240000201053002028550020B85500207D
:1022D00011530020614F00205C4F002078530020F4
:1022E0002DE9F04383B00446FFF744FF50B324B90F
:1022F000174C206803B0BDE8F083154C206807F048
:102300007DF80546206807F087F80646206807F044
:1023100091F80746206807F09BF88046206807F090
:10232000A5F88146206807F0AFF8CDF8009001903D
:10233000434628463A46314600F0B4FA206803B0D6
:10234000BDE8F08303B0BDE8F04308F0A9BC00BFCE
:102350005C4F00202DE9F04F01209DB0FFF7C0FF3A
:10236000A14CA24D206007F081F82B6883422CD04D
:102370009F4B1B684BB320689E4E07F077F8286090
:10238000206807F081F82B689B4902469B480CF0B7
:10239000C1FAD6F87854002D00F0FD8005F23C41DA
:1023A00001230025954A8DF838500EA88DF8395034
:1023B0008DF83A5004F004FFD6F878048D4B0028CD
:1023C00000F001818D4905F0E1FF0021152008F0A2
:1023D00095FCFEF745FE804689488A4D06F0C4FC10
:1023E000206807F051F80646206807F03FF80746D6
:1023F000206807F02DF88346206806F0FFFF0D9057
:10240000206807F009F8814620687F4C07F012F831
:102410007E4A0A92824640460AF094FBCDE90801C2
:102420007B4B18680AF08EFBCDE90601CDF800B0B1
:10243000606821680D9B019332463B4605900491EC
:10244000CDF80CA07349CDF8089073480CF062FAEF
:1024500071480CF0B5FA01466F4809F00DFB6F4862
:1024600009F0AEFE1AE0654905F090FF296829B130
:1024700040F60123684A6A4805F0C2FF66480CF03E
:102480009FFA0146644809F0F7FA644809F098FE9B
:102490000A2008F039FC2368142B75D8296841B14B
:1024A000604C5D4A04F1100040F6012305F0A8FFDE
:1024B000A8B95D4C5D492368574801331A4623602B
:1024C0000CF028FA4B4BD3F878040028CBD1D3F882
:1024D0007C040028CAD0494904F094FCC6E754485B
:1024E0005449D0F800A0544D544A554B554EDFF88E
:1024F0006081D6F8009003C9286092E80300A860C4
:1025000093E80300102701231FFA89F6AB82E860E5
:10251000EE8250462F610BF0ABF95146A861504650
:102520000AF0B2FE824648460AF062FF0146504673
:102530000AF0B2FF0BF09CF9434AD8F80030E8618A
:1025400092E803005B02A26C6F84760003F1240121
:102550002E846862AB626960002A3DD0104629462D
:102560002C2205F0B9F80921384809F085FAD8F885
:1025700000102A4800230A2209F04CFE274809F0DF
:102580001FFE1DB0BDE8F08FFEF724FC4FF47A70FB
:1025900008F0BAFB82E7D6F87C1400293FF415AFA7
:1025A000012301F58861154A8DF869500EA88DF850
:1025B0006A508DF86B5003F071FFD6F878040D4B1C
:1025C00000287FF4FFAED3F87C0400283FF4FDAE72
:1025D0000A4904F017FCF8E6E06C0028C3D029464D
:1025E0002C2204F027F8BEE75C4F00204455002061
:1025F00098FAFF1FB84A00206C4F010010540020C9
:10260000992600007C5600207C53002034FAFF1FDE
:10261000B8540020784F01002C54002024000020E2
:10262000E0540020D054002088550020E04F0100E5
:1026300088FAFF1FC04F01008C550020C84F0100D1
:10264000D04F01000CFAFF1FD84F0100B44F01001A
:102650005453002038B50C4CFFF77CFE0B4B002286
:1026600020461A60FEF782F9094B1B680125022BF0
:10267000A4F8B45100D038BD064C2046FEF776F9D8
:10268000A4F8B45138BD00BF704F00206C4F00203B
:102690000CFAFF1F2C5100202DE9F041804601204B
:1026A0000E46FFF71DFE244C206006F0EDFE0546A9
:1026B000206806F0DBFE0746206806F0C9FEA5F29A
:1026C000BC739BB27F2B02D8FAB20C2A28D9002304
:1026D000A8F80030206806F091FE0746206806F052
:1026E0009BFE0546206806F0A5FEFBB2172B13D80B
:1026F000EBB23B2B10D8C3B23B2B0DD8FB026D01C4
:1027000003F4FF2305F4FF552B43C0F346000343B6
:102710009BB23380BDE8F08100233380BDE8F081B7
:10272000C0B21F28D3D87F0107F4FF57384340EACF
:1027300043239BB2CCE700BF5C4F00202DE9F04360
:102740004F4A504BDFF85491DFF854814E4F1178C7
:1027500098F800401A7899F80060386883B03C23F4
:1027600013FB064613FB012406F048FE05463868B5
:1027700006F052FEC5EB051500EB8505386806F03E
:1027800083FE00F14E0338688DF8063006F06EFEC9
:102790008DF80500386806F05BFEA6428DF804004F
:1027A0000AD2AE4249D8AC4247D3A41BC4EB0414AE
:1027B000364D3748A40010E0AE4201D9AC421AD3DE
:1027C000C4EB0414A300A6EB061403EB840404F585
:1027D000A8342E4D2E4804F5C07410212C6009F049
:1027E0004BF929682B4809F055FD2A4809F0E8FC07
:1027F00003B0BDE8F08302A8002598F8003099F8EE
:10280000002000F8085D8DF801308DF8022006F0F8
:102810004BFE38602846FFF763FD3B68984204DDB5
:1028200003F5A83303F5C0733B600F211A4809F084
:1028300023F93868FEF774FEC2E702A8002599F86C
:10284000002098F8003000F8085D8DF802208DF81F
:10285000013006F029FE38602846FFF741FD3B684D
:10286000094A984204DD03F5A83303F5C0731360E9
:102870000F21094809F000F93868FEF751FE94E786
:1028800028540020684F0020644F0020505300203F
:10289000FC4F010024000020EC4F0100AC0A002096
:1028A0008055002030B583B002AD079C05F8082D97
:1028B0008DF80200069A8DF804304E3428468DF8C3
:1028C00001108DF805208DF8064006F0EDFD08F0AA
:1028D000EDF90020FFF704FD014B186003B030BD97
:1028E000B44A00202DE9F04F002083B0FFF7F8FC38
:1028F000B84BB94E18600121B848DFF85083B84F83
:10290000B84D07F03FF80121B44807F041F82622FE
:102910000021B24807F032F80322B349AF4809F06A
:1029200039FC26221921AD4807F028F80322AF49C7
:10293000AA4809F02FFC26223221A84807F01EF8E9
:102940000322AB49A54809F025FC26224B21A348C8
:1029500007F014F80222A749A04809F01BFC2E2218
:1029600000219E4807F00AF8002331689B480A229C
:1029700009F050FC2E221921984806F0FFFF002391
:10298000D8F8001095480A2209F044FC2E22322182
:10299000924806F0F3FF3B6855F823000AF028FD43
:1029A00095490AF02DFE0AF0CDF80B4602469349F0
:1029B0008A4809F021FC2E224B21884806F0DEFFD0
:1029C0008F4B18680AF0BEF80B4602468B498348C5
:1029D00009F012FC8B4B1C68012C00F05E81022C6C
:1029E00000F0D380884B3F68D3F80090D6F800A061
:1029F00050460AF0F9FC834620460AF0F9FC0146ED
:102A00000AF042FC59460AF047FD044655F82700F3
:102A10000AF0EEFC014620460AF03EFD7B490AF032
:102A200033FC4FF08E410AF02FFC73490AF0E8FDA9
:102A300071490AF0E5FD764B764A1B681060012B60
:102A4000054600F005814FF07E5059460AF024FDFE
:102A50008346D8F80000704C704F50440AF0C4FC14
:102A6000014658460AF0CCFD6D4B0090834618781D
:102A70000AF0BEFC6B4B19680AF00EFD5946804601
:102A80004FF07E500AF0FEFB674B19680AF004FD18
:102A90004946019058460AF0FFFC019B0146184642
:102AA0000AF0F2FB014640460AF0AAFD5F490AF02F
:102AB000F3FC0AF0DDFE0026019004F110094FF04E
:102AC000000857F8040B44F8048B0AF08DFC01460B
:102AD000834628460AF092FE294600285DD15846D2
:102AE0000AF08EFD0AF02EF809F03AFE0AF056FBC5
:102AF000034644F8043C00FB0AF00AF075FC01466A
:102B000030460AF0C1FBA1450646DAD100990AF029
:102B100077FD019D044628460AF066FC01462046E2
:102B20000AF076FE26225C21002838D02B4806F0D9
:102B300025FF05223E49294809F02CFB2E225C2165
:102B4000264806F01BFF3B4B24482A4683FB022302
:102B50002B44E917C1EB234109F09CFB01223649C4
:102B60001E4809F017FB732137221C4806F006FFA8
:102B7000274B1A481A68012A0EBF304930490122F2
:102B800003B0BDE8F04F09F005BB3F682D4A1E4B6E
:102B900052F82790C3F8009028E70021B0E70F48CB
:102BA00006F0ECFE052228490C4809F0F3FA2E2223
:102BB0005C210A4806F0E2FE20460AF033FE1D4979
:102BC000034681FB03211944DB170448C3EB214171
:102BD000C2E700BF5C4F002090FAFF1F1453002093
:102BE00080FAFF1F3CFAFF1F105001001450010033
:102BF000185001001C50010000007A4420500100D0
:102C0000B85400200CFAFF1FE8FAFF1F0000304202
:102C1000BC540020245500202C550020585300207F
:102C20008CFAFF1F94FAFF1F08FAFF1F000061458E
:102C30002850010007452EC2305001003C500100D1
:102C4000405001009CFAFF1F3450010098FAFF1F0A
:102C5000164A174B10781B78834286BFC3F11803BE
:102C6000C018C01A0AF0C4FB124A134B06461B7860
:102C70001078834286BFC3F13C03C018C01A0AF023
:102C8000B7FB0E49044630460AF006FC21460AF01E
:102C9000FBFA0B490AF0B4FCD7E63F68094A0A4B35
:102CA00052F82790C3F80090A0E600BF28540020F7
:102CB000AC0A0020684F00208055002000007042C0
:102CC0000000B44410FAFF1FE8FAFF1F10B50122FC
:102CD00004460849084809F05DFA092C03DC302154
:102CE000054806F011FE21460348BDE8104009F0F2
:102CF000D1BA00BF585001001453002038B5044623
:102D00000D462348012106F03DFE2AB2002120484D
:102D100006F034FE204606F0B7FB01461C4809F0D9
:102D2000B9FA2D211A4806F0EFFD204606F09EFB69
:102D30000146174809F0AEFA2D21154806F0E4FDCA
:102D4000204606F085FB0146114809F0A3FA02224D
:102D500010490F4809F01EFA204606F04FFB0928DB
:102D600003DC30210A4806F0CFFD204606F046FB82
:102D70000146074809F08EFA204606F04DFBFFF7A2
:102D8000A5FF204606F056FBBDE83840FFF79EBF82
:102D900014530020445001002DE9F047AB4D2C683E
:102DA0002CB1012C00F0828030BFBDE8F0872046B6
:102DB000FFF796FAA64FDFF810833860FEF79AFB0C
:102DC0000A22A449A448A54E09F0E4F9A24809F052
:102DD000F7F90121A04806F0D5FD122221469E48B0
:102DE00006F0CCFD05229E499B4809F0D3F9D8F89E
:102DF00000109948013109F04DFA0122994996488D
:102E000009F0C8F9D8F80020974B934853F82210DE
:102E100023460A2209F0FEF930682821FFF76EFFE9
:102E200038683721FFF76AFF8B4807F0D5F93A6811
:102E300033689A4236DB8D4C2368002B00F0E88023
:102E4000022B00F099810D21894808F015FE894870
:102E500009F0B6F9884B1B68002B00F0CE80012BDF
:102E600000F0DC80854C86480E2108F005FE00202D
:102E7000FFF736FAFEF754FB0B21824808F0FCFD01
:102E80002068FEF74DFB0B217F4808F0F5FD306808
:102E9000FEF746FB0123AE216F482B6007F02AF8AE
:102EA000FFF7D8FB2C68012C7FF47EAFFDF7EAFF1B
:102EB000042007F015FF0446032007F011FF14B9A2
:102EC000002800F00781714F714B3A681B689A42E5
:102ED000FFF46AAF6F4B684A1B681468B3FA83F358
:102EE0005B090020844214BF002603F00106012C78
:102EF00014BF002403F00104FFF7F2F95F4B1B68D5
:102F00009842ACBF002004F00100002840F0398155
:102F1000002E40F03681FDF7C5FEFEF7BFF84F4B9F
:102F20005D4F1C68DFF8A481DFF8A4A13046FFF7ED
:102F3000D7F95A4A5A4B1268201A841A24EAE474C0
:102F400083FB04232344E017C0EBE32009F0E8FDF2
:102F500009F006FC0AF0FAF8524A534B386002FBBB
:102F6000004483FB042323448146E017C0EB631035
:102F700009F0D6FD09F0F4FB0AF0E8F803011A1A8B
:102F8000C31A04EB830492004FF4616303FB092925
:102F9000C8F800404C44092CCAF8000024DD314632
:102FA000022007F097FEFFF74BF8404A136823F022
:102FB00010431360642007F0A7FE98F800309AF8D9
:102FC000002039783A4806F005F93A4805F0D8FE6D
:102FD0000121022007F07EFE4FF4967007F094FE68
:102FE000354B1868FFF7B2F801233C2202211A483A
:102FF00006F0E8FF00232B60D6E6304B254A316807
:103000001B6812681D4C0B441A44326023602AE787
:103010000A210E20FEF7F0FF236811E71D4B1A6806
:10302000002A40F0B880264A33681768134C2549B7
:10303000104803F5A83202F5C0723B4432602360A9
:10304000FDF75EFC2068FEF76BFA0CE7A80A00208B
:103050005C4F00204850010014530020644F0020B2
:10306000545001001C5101002C550020B00A0020D2
:103070005C50010024000020BC5400208453002038
:103080007C5001008C500100985001006C4F0020D2
:103090005453002098FAFF1FC054002004FAFF1F69
:1030A000C5B3A291F0F1FFFF8988888880F00240C3
:1030B0009C5300209054002080FAFF1F90FAFF1FBD
:1030C000505300206C5001008455002020550020F2
:1030D00024540020354B364C1B68364A364E374D4B
:1030E000A06C5B02002103F12407A6F8B41157601D
:1030F0009362A5F8B411002836D004F031FAA06C20
:103100002B4B48B32C222B4904F0E6FA2C4805F04F
:1031100063F901233C2202212A4806F053FF642070
:1031200007F0F2FDFEF7E6F907222749254809F0E6
:1031300031F8244809F044F80121224806F022FC25
:10314000102222491F4809F025F81E4809F038F8D6
:103150001C4807F041F8FEE7D86C0028D6D02C2296
:10316000144903F067FAD1E7E06C0028CED00022C2
:10317000002302F0E9FCC2E70B210E20FEF73CFF22
:1031800061E60F4805F028F9FDF788FFFFF7E2F840
:1031900000233B6008E60E4B31681B680D4C0B4466
:1031A0001A4432602360FFF7C9FA5CE66C4F0020D6
:1031B000D05400208C550020704F00202C5100204E
:1031C000E054002014530020A4500100AC50010032
:1031D00090FAFF1F845300202DE9F04F91B0FEF7C5
:1031E000FBF9FDF785FD0821B148DFF84CB3B14E7E
:1031F000B14C08F041FCB14808F0E2FF0020FFF7B5
:103200006FF8CBF80000FEF775F90822AC49AD481D
:1032100008F0C0FF0121AB4806F0B4FB10220021EA
:10322000A84806F0ABFB1222A749A64808F0B2FF57
:10323000A44808F0C5FFA54B0121187807F04AFD06
:103240004FF47A7007F060FD0721A14802F03CFAC4
:103250000E219F4802F0C4FA0C219D4802F07CFA2E
:103260009C4B964800251D6008F0AAFF934808F083
:10327000A7FF0521984808F0FFFB01218F4809F0BE
:1032800009F88E4808F09CFF01218E4809F002F8E9
:10329000042292498B4808F07DFF8A4806F09CFF83
:1032A000642007F031FD8E4B8DF81D501F78099575
:1032B0008DF81C70089607AB93E807000AAB83E80B
:1032C00007008DF829500C958DF828700B9693E81F
:1032D00007000DAB83E807000F9A009204F5916593
:1032E0000CCB284604F29C4105F0E8F994F895349B
:1032F000C4F884547BB11C217A4808F0BDFB6F48A8
:1033000008F05EFF092278496E4808F043FF6D48D7
:1033100006F062FFFEE72946204605F0B3F80028D4
:10332000E9D0D4F87804002800F0FF8504F04CFFC1
:10333000054608216D4808F09FFB29465F4808F0C4
:10334000A9FF5E4808F03CFF28460AF051F868499A
:103350000AF0A2F8D4F87834574A0546002B00F05A
:10336000508618790AF040F8014628460AF094F889
:103370000AF07EFA0546D4F8840405F079FB0AF0D9
:1033800033F85B490AF088F80AF072FA0A21044619
:10339000584808F071FB214600230A22474808F0EC
:1033A00039FF464808F00CFFC72D00F2B985494A9D
:1033B000002313601121504808F05EFB45493F4847
:1033C000096800230A2208F025FF3C4808F0F8FEAF
:1033D00040493C48096800230A2208F01BFF0122EB
:1033E0004649384808F0D6FE00230A2221463548CF
:1033F00008F010FF334808F0E3FE324806F0ECFE18
:103400004FF47A7007F080FCFDF7B6FEFDF770FC14
:10341000FEF752F93A4B1A683A4B9A4200F2C385CA
:10342000394A384B12689A4200F28885374B1A782D
:10343000172A00F28F85364B1A783B2A00F29585C1
:10344000344B1A78172A00F29B85334B1A783B2AA3
:1034500000F2A185314B1A68012A05D900221146D4
:103460000C201A6007F06CFA2D4B1B68082B00F239
:10347000BF852C4B1B780C2B00F2B1852A4B1B68A7
:103480000F2B00F2A385294A1368013B012B05D9B4
:10349000012319461020136007F052FA244B1B88B1
:1034A0009BB2B3F5B77F80F08785224E354668E042
:1034B000C050010080F0FA02B84A00202400002029
:1034C000CC50010014530020D85001008C53002030
:1034D000F0FAFF1F5853002054500100EC50010037
:1034E000E05300202451010044510100F450010038
:1034F000BD37063A005101000C5101002051010076
:1035000090FAFF1FA086010098FAFF1FAC0A002066
:103510008055002028540020684F0020BC54002013
:1035200080FAFF1F8CFAFF1F00FAFF1F0CFAFF1F23
:10353000AE0A00205C4F0020B44A0020032007F0B0
:10354000CFFB002860D0082007F0CAFB002844D039
:10355000FDF7D0FFFEF708F9FFF7C4F9FEF738F9D9
:10356000FEF75AF90020FEF7BBFE3721FFF7C6FB36
:103570009A4806F031FE0A2007F0C6FB002C40F006
:10358000CC840020FEF7ACFEDBF800403060041B6A
:10359000B4F5167F4FF00400D4BF0024012407F0D7
:1035A0009FFB0028CAD1042007F09AFB38B90A20F3
:1035B00007F0AAFB042007F093FB0028F7D0884A05
:1035C00088491368096801338B421360A4BF002344
:1035D0001360B3E70A2007F097FB082007F080FB91
:1035E0000028F7D07E4B1B68072B00F28584DFE8AC
:1035F00013F0250444003C01DF00C0035101A0008A
:1036000072000A2007F080FB032007F069FB002806
:10361000F7D0734A1368013B002B136093DA714BA8
:103620001B68013B13608EE76F4B1868FDF700FFC6
:103630006D4B1860FDF75EFF07226C49674808F084
:10364000A9FD664808F0BCFD674964480968002385
:103650000A2208F0DFFD3A466549604808F09AFD05
:103660005E4808F0ADFDFFF73DF9FEF7B1F85B48A5
:1036700006F0B2FD022007F047FB082007F030FB00
:103680000128074601464FF46162CDD0082007F0BB
:1036900027FB0028FAD0524B00221A6000F02CBC05
:1036A000544B188880B2FDF7C3FE524B80B218808D
:1036B000FDF720FF0A225049484808F06BFD4D4BAA
:1036C0004648198889B208F0E5FD444806F084FDB3
:1036D000022007F019FB082007F002FB012840F246
:1036E0006D124FF00001DBD0082007F0F9FA002836
:1036F000D1D1082007F0F4FA0028F5D0CBE73F4BF2
:103700001878FDF795FE3D4B1870FDF7F3FE092282
:103710003B49324808F03EFD3849304809780023DB
:103720000A2208F077FD2D4806F056FD022007F02A
:10373000EBFA082007F0D4FA012801464FF00C02FA
:10374000DDD0082007F0CCFA0028A4D1082007F02B
:10375000C7FA0028F5D09EE72A4B1868FDF768FEE7
:10376000284B1860FDF7C6FE27491C48042208F0C4
:1037700011FD1A4808F024FD224A244B126853F820
:10378000220009F035FE224909F03AFF09F0DAF982
:1037900002460B4611481F4908F02EFDFFF7A2F81C
:1037A000FEF716F80D4806F017FD022007F0ACFAF8
:1037B000082007F095FA01284FF008024FF00001A9
:1037C000CAD0082007F08CFA00287FF464AF0820E4
:1037D00007F086FA0028F4D05DE700BF14530020FC
:1037E00088530020C0FAFF1F90FAFF1FAC51010060
:1037F000B4510100AE0A00200C5201008CFAFF1FE8
:103800001852010080FAFF1FC05101003CFAFF1F4F
:1038100000007A44C8510100B64B1868FDF708FE55
:10382000B44B1860FDF766FE0622B349B34808F0B2
:10383000B1FCB24808F0C4FCAE49B04809680023A6
:103840000A2208F0E7FC3A46AD49AC4808F0A2FC71
:10385000AA4808F0B5FCFFF745F8FDF7B9FFA748FF
:1038600006F0BAFC022007F04FFA082007F038FAF9
:1038700001280746A34A4FF00001CDD0082007F0E9
:103880002FFA00287FF407AF082007F029FA002854
:10389000F4D000E79C4FDFF88882049450E0306851
:1038A00005F0F2FD40F634024FF4FA613860FDF79E
:1038B000BFFD3B68C8F80000984224D0286805F096
:1038C0009DFD8146286805F0A7FD8246286805F021
:1038D000B1FD0446286805F0BBFD0390286805F09B
:1038E000C5FD0090D8F80030A3F5FA6E2246039B80
:1038F000CDF804E051464846FEF7F0FA0020FEF706
:10390000EFFCCBF80000FDF7F5FD05227F497B4871
:1039100008F040FC794808F053FC0020FEF7E0FC7A
:1039200005F0B2FD0146754808F0B4FCFEF7DAFF79
:10393000FDF74EFF714806F04FFC022007F0E4F956
:10394000082007F0CDF90128A9D0049C082007F031
:10395000C7F90028FAD0022007F0D6F96C4FDFF83B
:10396000C48105944FE0306805F080FD49460C2283
:103970003860FDF75DFD3B68C8F80000984225D02F
:10398000286805F03BFD8146286805F045FD824624
:10399000286805F04FFD0446286805F059FDD8F861
:1039A000001004902868039105F06EFD03990091C2
:1039B000A0F5FA600190049B224651464846FEF766
:1039C0008DFA0020FEF78CFCCBF80000FDF792FD8D
:1039D00006225049494808F0DDFB484808F0F0FB52
:1039E0000020FEF77DFC05F041FD0146434808F04C
:1039F00051FCFEF777FFFDF7EBFE404806F0ECFBCD
:103A0000022007F081F9082007F06AF901288146B1
:103A1000A9D0059C082007F063F90028FAD00220FD
:103A200007F072F93C4FDFF8008105944FE03068F1
:103A300005F00EFD49461F223860FDF7F9FC3B6892
:103A4000C8F80000984225D0286805F0D7FC8146C8
:103A5000286805F0E1FC8246286805F0EBFCD8F800
:103A6000003004930446286805F000FD03902868A0
:103A700005F00AFD03990091A0F5FA600190049BFE
:103A8000224651464846FEF729FA0020FEF728FC58
:103A9000CBF80000FDF72EFD04222049174808F05E
:103AA00079FB164808F08CFB0020FEF719FC05F0A6
:103AB000CFFC0146114808F0EDFBFEF713FFFDF7C0
:103AC00087FE0E4806F088FB022007F01DF908204B
:103AD00007F006F901288146A9D0059C082007F0C7
:103AE000FFF80028FAD0022007F00EF9DFF83C803A
:103AF00004946BE098FAFF1FB851010014530020A2
:103B0000B45101008051010040550020DC510100FA
:103B100078550020E4510100C4540020EC5101000C
:103B2000F05300207C550020DC530020A40A002024
:103B3000306805F063FC17220021C8F80000FDF78B
:103B400077FCD8F800309842074622D0286805F064
:103B500063FC8146286805F06DFC8246286805F004
:103B600077FC0446286805F081FC0390286805F07E
:103B70008BFC039A0092A0F5FA600190234652460E
:103B800049463846FEF7AAF90020FEF7A9FBCBF814
:103B90000000FDF7AFFC05229B499C4808F0FAFAAB
:103BA0009A4808F00DFB0020FEF79AFB05F026FC72
:103BB0000146964808F06EFBFEF794FEFDF708FEFE
:103BC000924806F009FB022007F09EF8082007F053
:103BD00087F80128ACD0049C082007F081F8002861
:103BE000FAD0022007F090F8894FDFF8448205945C
:103BF0004EE0306805F010FC3B2200213860FDF7F4
:103C000017FC3B68C8F80000984224D0286805F0EB
:103C1000F5FB81462868D8F800A005F00BFC0446A7
:103C2000286805F015FC0490286805F01FFC039037
:103C3000286805F029FC03990091A0F5FA6001902D
:103C4000049B224651464846FEF748F90020FEF7FD
:103C500047FBCBF80000FDF74DFC07226D496B4890
:103C600008F098FA694808F0ABFA0020FEF738FB34
:103C700005F0D2FB0146654808F00CFBFEF732FE6A
:103C8000FDF7A6FD614806F0A7FA022007F03CF810
:103C9000082007F025F80128ABD0059C082007F084
:103CA0001FF80028FAD0022007F02EF85A4FDFF84C
:103CB000848105944EE0306805F0BCFB3B22002176
:103CC0003860FDF7B5FB3B68C8F80000984224D087
:103CD000286805F093FB8146286805F09DFB824625
:103CE0002868D8F8004005F0B3FB0490286805F078
:103CF000BDFB0390286805F0C7FB03990091A0F570
:103D0000FA600190049B224651464846FEF7E6F8C9
:103D10000020FEF7E5FACBF80000FDF7EBFB0722E9
:103D20003E493A4808F036FA384808F049FA002087
:103D3000FEF7D6FA05F07EFB0146344808F0AAFAF1
:103D4000FEF7D0FDFDF744FD304806F045FA0220AD
:103D500006F0DAFF082006F0C3FF0128ABD0059C6F
:103D6000082006F0BDFF0028FAD02D4B00221A6073
:103D7000C2E0DFF8C4802FE02A4B1868FDF758FB3B
:103D8000284B1860FCF7B4FFFDF7B4FB0522264969
:103D90001E4808F0FFF9234B1C48196808F07AFA0E
:103DA0001A4808F00DFAD8F8000008F0CBFE00978A
:103DB0000B460246154808F077FA3A461B49134865
:103DC00008F0E8F9FEF78EFDFDF702FD0F4806F05A
:103DD00003FA384606F098FF082006F081FF012814
:103DE0004FF002074FF00F024FF00001C4D008203F
:103DF00006F076FF00287FF44EAC082006F070FF36
:103E00000028F4D047E400BFF4510100145300200F
:103E1000F4530020FC5101004855002004520100D9
:103E20008853002000FAFF1FD45101001C500100EC
:103E3000CC5400204C530020B85400207A4CFDF79D
:103E400059FBFDF739FC0D21784807F015FE216874
:103E5000774808F01FFA764808F0B2F9082175484B
:103E600007F00AFE744B186808F06CFE0227024641
:103E70000B4600976E4808F017FA6D4808F0A0F955
:103E800008216E4807F0F8FD23686D4A684852F82B
:103E9000231000230A2208F0BDF9654808F090F9C4
:103EA0001321684807F0E8FD2268674B604853F823
:103EB000221000230A2208F0ADF95D4808F080F9CD
:103EC0000A226249624808F065F9614808F078F909
:103ED00001215F4805F056FD13225E495C4808F059
:103EE00059F95B4806F078F90120FEF7F9F94FF42B
:103EF000FA6006F009FF0124574F3B78002B3FF48E
:103F000027ABFDF7D9FB4FF0000300203B70FEF715
:103F1000E7F9CBF80000FFF71BBB11B0BDE8F08F4D
:103F2000474BC83D1D60FFF745BAD4F87C04002814
:103F300073D002F021FF0546FFF7FBB93C23474A47
:103F4000194604201360FDF79FFB454B1A78172A8A
:103F50007FF671AA0022114608201A7006F0F0FCC4
:103F6000404B1A783B2A7FF66BAA002211460920A3
:103F70001A7006F0E5FC3C4B1A78172A7FF665AA02
:103F8000002211460A201A7006F0DAFC374B1A7824
:103F90003B2A7FF65FAA002211460B201A7006F01A
:103FA000CFFCFFF757BA3C23314A19460020136073
:103FB000FDF76AFBFFF734BA2E4A002313801188FD
:103FC000122089B2FDF760FBFFF76FBA04232A4A7B
:103FD00019460F20136006F0B3FCFFF754BA012313
:103FE000264A19460E20137006F0AAFCFFF746BABF
:103FF0000423234A19460D20136006F0A1FCFFF7A5
:1040000038BAD2F87C345BB193F83D340120984043
:1040100009F0EAF90146FFF7A8B90546FFF789B9A3
:104020000021FFF7A2B900BF8455002050510100C4
:104030002400002060510100245500206C51010033
:1040400058530020785101002C5500208C5101005C
:104050001453002098510100604F002098FAFF1F70
:10406000AC0A00208055002028540020684F002012
:1040700090FAFF1FAE0A002000FAFF1F8CFAFF1F04
:1040800080FAFF1FCE4ACF4B1168CF482DE9F04F81
:1040900019605768CD4ECE495F600468CD4ACE4D59
:1040A000DFF8A0E30A27142337608FB00B6040F2DB
:1040B000EE27137843B12B78DB0705D50368DEF8CC
:1040C00000105B1A0E2B08D8036811781B1B0029FF
:1040D00000F0E181B3F5FA6FEBD94FF4FA7006F016
:1040E00013FEBE4FBE4DDFF860A3DFF86093DFF82C
:1040F000608301211120002406F000FE012111201F
:1041000006F0E8FD3C60642006F0FEFD4FF43053FD
:104110003B60642006F0F8FD4FF434533B606420AC
:1041200006F0F2FD2968AF48AF4F23460A2208F097
:1041300071F8AC4808F044F84FF47A7006F0E4FDEA
:104140002968A84823460A2208F064F8A54808F020
:1041500037F84FF47A7006F0D7FD23460A22296813
:10416000A048A24D08F056F89E4808F029F8A0484B
:1041700000F020FE2146152006F0C0FD022006F0CA
:10418000DBFA0121022006F0B9FD0121022006F030
:10419000A1FD0121142006F0B1FD0121062006F049
:1041A000ADFD2146142006F095FD0121062006F004
:1041B00091FD0221042006F0A1FD0221032006F05A
:1041C0009DFD0221082006F099FD01233C220221D9
:1041D000884805F0F7FE8C2006F096FDFDF78AF979
:1041E0000A228549834807F0D5FF824807F0E8FF97
:1041F000804805F0F1FF6E21804807F041FDDAF8B4
:10420000004057F8240009F0F3F8C9F800002046F0
:10421000FDF79CFFFEF7E0FFDAF8004057F82400B6
:1042200009F0E6F8C9F800002046FDF78FFFFDF71A
:1042300061F9D8F800303B2B06D9B3F5967F34BF2F
:104240003C234FF496732B606D4C6E4F0120FEF7AC
:1042500047F8296822886C4D90FBF1F392B201FB7C
:10426000031105FB0213B4F800E03968674CDFF86E
:10427000E4C1674D206019441FFA8EF2CCF800109B
:104280002B60002A40F00B8100211220FDF7FCF981
:104290003868604EDFF8C0A1DFF8C0B109F0A4F8BB
:1042A000D9F8001009F0F8F84FF06E5109F0F4F861
:1042B0004FF0745109F0F0F808F044FC08F0C8F928
:1042C0000022554B08F092FC08F040FF534AD8F802
:1042D00000301168524AC1EB0309524B126829EAB7
:1042E000E97983FB091302FB00F24B444FEAE970C2
:1042F0003260C0EBE32008F013FC08F031FA08F05C
:1043000025FF494E494BCAF8000006FB009683FB87
:1043100006233344F017C0EB631008F001FC08F0EB
:104320001FFA08F013FFDFF83891A0EB00120346E4
:1043300006EB820610213E48CBF80030C9F8006039
:1043400007F09AFBDAF80010264807F0A3FFDBF825
:104350000010244807F09EFFD9F80010214807F00C
:1043600099FF204807F02CFF0821324807F084FB12
:1043700039681C4800230A2207F04CFF194807F04F
:104380001FFF08212C4807F077FB0A220023D8F8EA
:104390000010144807F03EFF124807F011FF0E21ED
:1043A000264807F069FB2068FDF7BAF80C2124487D
:1043B00007F062FB2868FDF7B3F82B6852E000BFF6
:1043C000588004407C530020DC560020E05300203D
:1043D0008C530020C0570020D857002010D0034035
:1043E00000D00340240000203CFAFF1F84FAFF1F86
:1043F0006456002014530020245201000082FF1F45
:10440000AE0A002090FAFF1F805101005C4F00208F
:10441000644F0020545300200000404004FAFF1F66
:104420000CFAFF1FC5B3A291F0F1FFFF89888888BD
:10443000585201006C520100785201007C5001007A
:10444000845201008858002080FAFF1F88FAFF1F5D
:1044500098FAFF1F84530020C054002024540020E9
:1044600020550020246873481C1B152107F004FB0D
:104470002146714807F00EFF6F4807F0A1FE6F4913
:104480006F4B00204FF0FF3208601A600FB0BDE89C
:10449000F04FFCF703BEBB427FF60BAE1DE60021DA
:1044A000022006F017FC0021142006F013FC2A68F5
:1044B00023686048D31A1521039307F0DDFA0399A6
:1044C0005D4807F0E7FE5C4807F07AFE4FF01E0BF0
:1044D000FDF710F805225B495B4807F05BFE5A4880
:1044E00007F06EFE0120FDF7FBFE0121206056481B
:1044F00005F048FA05225549534807F04BFE52484B
:1045000007F05EFE1A212868FEF7F8FB37212068C5
:10451000FEF7F4FB4C4805F05FFE4FF47A7006F0AE
:10452000F3FBBBF1010BD3D1039B3C2B28DDAE2168
:10453000454805F0DFFC0121112006F0CBFB0022ED
:1045400011461423424804F045FE0A2006F0DCFB25
:104550000021112006F0BEFB3E4804F011FC0121B1
:10456000062006F0B7FB0120FDF7BAFE002120600F
:10457000062006F0AFFB2B6822689B1A3C2BD6DC8A
:104580000121022006F0A6FB0121142006F0A2FB67
:104590000121062006F09EFB4FF47A7006F0B4FB72
:1045A00007212D48DFF8B4B001F08EF80E212A481B
:1045B00001F016F90C21284801F0CEF896F800C059
:1045C000DFF89CE08DF814C000268DF81560079682
:1045D000CDF818E005AB93E8070008AB83E80700C7
:1045E0008DF821600A968DF820C0CDF824E093E87C
:1045F00007000BAB83E807000D9A00920BF591665C
:104600000CCB30460BF29C4104F058F89BF89534E3
:10461000CBF8846423B1DAF80000FDF797FD33E6A8
:104620003146584603F02EFFDAF80000FDF78EFD04
:104630002AE600BF3052010024000020A80A002012
:1046400044550020485201001453002050520100EC
:104650009C53002090540020F0FAFF1FB84A00201D
:1046600080F0FA02002070470020704738B52429F6
:1046700008BFC2800C46017A0E48154600F046FC81
:10468000C4F307210B4800F0EFFAE1B2094800F04B
:10469000EBFAC5F30721074800F0E6FAE9B205484E
:1046A00000F0E2FA034800F0F3FDB0FA80F04009B0
:1046B00038BD00BF6456002038B501250446057199
:1046C000334800F077FB052006F01EFB204644F23D
:1046D00060023021FFF7CAFF20466C222621FFF737
:1046E000C5FF20464FF4F9722821FFF7BFFF20468F
:1046F00040F622722C21FFF7B9FF204644F24642D1
:104700003C21FFF7B3FF204640F237122421FFF788
:10471000ADFF204644F2FF023021FFF7A7FF7322CE
:1047200002212046FFF7A2FF4FF4C87006F0ECFA12
:10473000204641F61D522E21FFF798FF0422114614
:104740002046FFF793FF20464FF498720621FFF7AB
:104750008DFF204610220A21FFF788FF2046002205
:104760000E21FFF783FF204643F63C421021FFF75E
:104770007DFF204647F67F722221FFF777FF204614
:1047800036222421FFF772FF6572284638BD00BF2C
:104790006456002038B50546F1B1802903799ABFE7
:1047A000C1F1800444EA0424002433B92246284697
:1047B0002221BDE83840FFF759BFC288002322F00C
:1047C000100203712421FFF751FF224628462221BF
:1047D000BDE83840FFF74ABF0123037147F67F72F7
:1047E0002221FFF743FFEA8842F01002284692B2E6
:1047F0002421BDE83840FFF739BF00BF0B4610B594
:1048000007490446184608F047FE064908F03CFDF3
:1048100009F02EF801462046BDE81040FFF7BABF68
:1048200000000143EE7CFF3E10B5044619B101299A
:1048300011D0002010BD55222021FFF717FF0028BE
:10484000F7D0E28842F00402204692B22421BDE86B
:104850001040FFF70BBF40F273122A21FFF706FF4B
:104860000028E6D0882220212046FFF7FFFE0028FE
:10487000DFD0E288204622F004022421BDE8104067
:10488000FFF7F4BE10B5044607F0FEFB204610BD4E
:10489000024A0349034807F0EBBF00BFFCF9FF1FC2
:1048A00085480000BC5500201B4A1C4B11681C4861
:1048B000096970B499421279027009D2194A1278C2
:1048C00032B3194A4FF08041116003F5807402E061
:1048D0001C46A3F58073154A154912680D68AAB1E4
:1048E000A5B1144E3088402810D841000A44403009
:1048F000294402320231308033F9040B22F8020FCE
:104900009C4233F9020C21F8020FF5D870BC7047B5
:1049100003F58074DFE700BFCC550020B8F2FF1F1D
:104920001F800040C655002008E200E0D45500205A
:10493000C8550020C4550020F8B5064607F0D0F948
:104940000446E8B107F0CCF9054600283AD072B623
:104950001F4B1A887F2A19D8002C31D01D490A68AC
:1049600042B162B6204607F00FFA2846BDE8F8408B
:1049700007F00ABA18480C601A80056062B6F8BDE4
:10498000054672B6124B1A887F2AE5D9114A124998
:104990001768146000220C681A800D6062B63946F0
:1049A000304607F01BFA384607F0EEF9304621464C
:1049B000012207F013FA2046BDE8F84007F0E4B9F9
:1049C00062B6F8BD204607F0DFF92C46BFE700BF0E
:1049D000C4550020D4550020C8550020F8B5284CF7
:1049E000284E2046012107F0EBFA00F083F8264B11
:1049F000264A27484FF480611960236800211A6015
:104A000099802279186102F1804202F5043240F265
:104A10000110D8809E614FF48075022006278E26F3
:104A2000DD82D960DD8398609F8398821170167053
:104A300007F06CFA1749184B2279184F08701A7052
:104A400039682279164C174D174E41F0124141F04A
:104A50000101531139609B00206803F1604302F1AA
:104A6000100703F5614302F01F02012140F01040DE
:104A700001FA02F2206045F827601A60F8BD00BF15
:104A8000CC55002000FEFFFF14B00440A0F002400F
:104A9000B8F1FF1FC65500201B80004080F0024087
:104AA00000F0024000F4FF1FA9480000024A034939
:104AB000034807F0DDBE00BFFCF9FF1F854800007A
:104AC000CC550020024A0349034807F0D1BE00BF7D
:104AD000FCF9FF1F85480000D8550020024A034911
:104AE000034807F0C5BE00BFFCF9FF1F8548000062
:104AF000E0550020284B29491A68294842F4004211
:104B00001A600A6842F002020A601A6842F0020261
:104B10001A600368002B3DDB224B1B68002B39DB3E
:104B2000214A4FF0864313601368002BFCDBF0B57D
:104B30001E4C1F48DFF8ACE01E491F4B1F4A204F98
:104B4000204E214D41F2100CC4F800C00024046036
:104B50000120CEF80000DFF890E0C1F800E04FF44B
:104B600080311960194B1360DFF880E0184A3A6011
:104B7000346028601748CEF80000174CB967174812
:104B8000174946F8503C4FF4C0632A612360036024
:104B90000B60F0BD704700BF3C8004404080044083
:104BA00000F0024080F0024000F1024004F10240B7
:104BB00060F0024008F002400CF0024010F00240A9
:104BC00014F00240E0F0024084F002401B0F0100AC
:104BD000000F0F0F0300004708B004400CB0044062
:104BE00018B0044004F002400300000788F00240BF
:104BF000024A0349034807F03BBE00BFFCF9FF1F10
:104C000085480000E8550020024A0349034807F0A0
:104C10002FBE00BFFCF9FF1F85480000F0550020A3
:104C2000024A0349034807F023BE00BFFCF9FF1FF7
:104C300085480000F8550020024A0349034807F060
:104C400017BE00BFFCF9FF1F85480000005600207A
:104C5000024A0349034807F00BBE00BFFCF9FF1FDF
:104C600085480000085600200A4B1B7813B90A4BF0
:104C70001B786BB1094A1378202B07D810B4581C45
:104C8000074C1070E154012010BC704701230371E0
:104C900000207047765600203956002077560020B5
:104CA00018560020704700BF024A034B10781B784B
:104CB000C01A70477556002074560020064A0749EE
:104CC00013780978994204D90548591CC05C1170C1
:104CD00070474FF0FF307047745600207556002023
:104CE0003C560020054B064A1B7812789A4286BF34
:104CF000044AD05C4FF0FF30704700BF745600206C
:104D0000755600203C56002070B50D4B1B7814469C
:104D100013B90C4B1B788BB10B4E3578C5F12103C1
:104D2000A34202D201221C460271084822462844AE
:104D3000254405F01BFB3570204670BD184670BD3C
:104D4000765600203956002077560020185600204D
:104D5000124BDB7803F020034BB1114A1378013377
:104D6000DBB2012B137012D9122005F055BF10B51C
:104D7000122003F0FF0405F04FFF0A4B1B685BB1E4
:104D800009490A4A0C701078BDE810401847084BD2
:104D90001B78002BE8D0704710BD00BF00600640B4
:104DA00060560020145600207456002075560020CE
:104DB000395600200D4A0E4BF0B500200D4C1070F6
:104DC0002268DFF838E00C4F42F0400222604FF4D6
:104DD000197127260425202480229870CEF800100F
:104DE00039605E709D715C719A70F0BD395600201B
:104DF000006006403480044008A004400CA0044039
:104E000010B5384CE378DBB2D80623D5102259060A
:104E1000E2701ED503F0040303F0FF02002B33D031
:104E2000314B32491A68324C00230B702370002A30
:104E30003BD090472378002B37D02E4B1B78294A44
:104E40002D49D02494701371264B01200222087042
:104E5000DA7010BD5A06DDD4A27802F0100202F01A
:104E6000FF0042B313F001031BD1234920480A7805
:104E70000078904281BF1F4B501C9B5C08702371CF
:104E8000184BD0229A7008E01C48164B1749027044
:104E90000120C02208709A701B79124B0222DA702E
:104EA00010BDC023A3702379F7E712490023012224
:104EB0000B702270C3E7124B1249187003221220A4
:104EC00005F02EFE0D4923790A781F2ADBB2E4D8BB
:104ED000064800780028E0D00B4C501CA354087002
:104EE000DBE700BF006006405C5600201056002043
:104EF000775600201856002078560020755600205E
:104F000060560020514D00003C5600200548064ADE
:104F100010B40123054C037049001370217010BCBC
:104F2000704700BF765600207756002018560020A4
:104F30002DE9F047584C1223E370A37803F02003C7
:104F400082B0002B54D0B423DFF860A1A370DAF84C
:104F50000020514C0020E378DBB2934218BF0120BF
:104F60009F061A46F7D5002840F08D804B4B1B78E2
:104F7000002B34D003F1FF3C5FFA8CFC0027DAF8F9
:104F80000020DFF82CE1444D0CF1010C3C464FF0C1
:104F900002081EF8013F2B715FFA87F9104601E005
:104FA0009E0608D5EB78DBB293421CBF184601245D
:104FB0009E071A46F4D585F80380EE78F6B2B34220
:104FC0000EBF024632460124F30633D4B30631D570
:104FD000F30744D401376745DBD1002C4AD10020C8
:104FE00000292ED12E4B00221A7002B0BDE8F087A6
:104FF0002C4DDFF8B8A003F0FF022B680093009E51
:10500000DAF8000005E02B680193019B9B1B0F2B36
:105010001BD8E378DBB2834218BF012213F0200FC4
:105020001846F0D192BB20481B4B0024B0220470DC
:105030009A708CE70CBB184B80229A7004200029D0
:10504000D0D0154B80229A70CCE7CAB9124B002100
:105050008022042099709A7002B0BDE8F087C4B92C
:105060000D4BB9F1000F4FF080020CBF022003205E
:105070009A70B7E7CAF80020B1E7CAF80020DAE76B
:10508000CAF80000E2E7CAF800306FE7CAF800305B
:10509000C9E7CAF80020E3E7006006407756002021
:1050A00076560020DC56002039560020ECFAFF1F0F
:1050B000175600202DE9F04F624E634DDFF89891AE
:1050C00000201224287089F80000F470B07800F0F5
:1050D0002000002855D0B420DFF880A1B07049002E
:1050E00041F00101574EC9B23171DAF800000024D5
:1050F0000546F178C9B281421CBF0D4601248F07D5
:105100000846F6D5002C40F091804E480224C47029
:10511000C078C0B2884218BFCAF8000010F0110071
:1051200076D1002A44D0012A78D0464D474FA0219D
:10513000A97002F1FF3BA2F1020E2979DAF80040D2
:1051400006465FFA8BFC5FFA8EFE4FF00208E978A4
:10515000C9B2A14218BF01200C46A107F7D5711CA6
:10516000B64585F80380CEB22AD0297907F8011F09
:105170006645ECD108B1CAF80040354EE34610460A
:105180002AE0DFF8D8A0DAF8004000F0FF05F07858
:10519000C0B2A04218BF01250446A006F7D4002DD6
:1051A00047D12C4C274800252570B024847096E701
:1051B000002B244B0CBFA02280229A70BDE8F08FF8
:1051C000002839D11F49224EA8208870097906F895
:1051D0000E105FFA8BFB1046DAF80040194F0025DD
:1051E000F978C9B28C4218BF01250C46A107F7D542
:1051F0002DBB1449B0240225CD708C700C7906F8B3
:105200000B400BB180238B7089F80020BDE8F08F34
:105210000C4B80229A700020BDE8F08F09490C4E9B
:10522000A8248C70834609791046D5E7CAF8005047
:105230006BE7CAF80040B4E7CAF80040C2E7CAF812
:105240000040D6E700600640745600203B56002020
:105250003C5600203956002075560020ECFAFF1FFE
:10526000DBB2D2B2C9B2FFF725BF00BF0548064A7C
:1052700010B40123054C037049001370217010BC59
:10528000704700BF76560020775600201856002041
:105290000121FFF74DBE00BF044B054A1A604FF4D1
:1052A0007A71002299601A711A737047645600204F
:1052B0002C54010010B4047F4160022CC26002D063
:1052C00010BC06F0FBBE836810BC18472DE9F04106
:1052D0000468E56815F0807F794D256052D1DF07BD
:1052E00040F1B380002900F0E3800D78012B18BF56
:1052F00045F000456563013190F8248003F1FF3CDF
:1053000048EA0828BCF1000F00F0A88021B14D78D0
:1053100011F8028B45EA082845682E7ABCF1020F85
:1053200006F1FF364FEA06360CBF48F0805548F0CC
:105330001045B6B26563ACF1020C08E00AB1147016
:105340000132013B05F47045B54216D90468E56A9F
:1053500015F0F00FF6D0A46B13F0010F17464FEACB
:10536000242EEBD11AB107F802EB54703A4605F43B
:105370007045B542A3F10203E8D8BCF1000F6DD02F
:105380000468C3E7DD074CD5002900F089800D785B
:10539000012B18BF45F000456563013103F1FF3E65
:1053A00090F824C0BEF1000F41D029B191F801C09E
:1053B0000D78023145EA0C2C45682E7ABEF1020FB9
:1053C00006F1FF364FEA06360CBF4CF080554CF024
:1053D0001045B6B26563AEF1020E08E00AB1147072
:1053E0000132013B05F47045B54215D90468E56A00
:1053F00015F0F00FF6D013F0010F1746A46BEDD1A6
:1054000022B107F8024B241254703A4605F4704555
:10541000B542A3F10203E9D8BEF1000F07D004683A
:10542000C3E79E4690F824C0BEF1000FBDD11BB368
:105430000468E16A11F0F00FFBD0A16BDC071DD509
:105440000AB111700132013BF1E790F824809C46CB
:1054500048EA0828BCF1000F7FF458AF63B1046834
:10546000E16A11F0F00FFBD0DE07A16B0FD50AB196
:1054700011700132013BF1E7BDE8F0812AB1144619
:105480000D1204F8021B55702246023BCFE72AB1E9
:1054900014460D1204F8025B51702246023BDDE710
:1054A00090F82450012B18BF45F00045656375E75F
:1054B00090F82450012B18BF45F0004565631BE7A9
:1054C00000041F80F0B4464B464A186BDC6A017931
:1054D0001170454922790A709A6A00790870002A89
:1054E00046D05968C9688A423ED82168CC8B2404CA
:1054F00002F1FF3065D4C0F30E00C883C88B80B2C0
:10550000C882196B0968C88B000452D4C2F30E001C
:10551000C883C88B002480B212F1FF32C88218BF42
:1055200001229C62D96A2E4809680D6800F12404A2
:10553000A54236D00068C46814F0804F0C680D682E
:1055400015BF248824780235013544F000440D60ED
:105550004463196B254B09791970214912B1CA6A44
:1055600012791A70F0BC7047521A9A620122D9E778
:10557000586B196805681E4C0A63CC62CC682D68AC
:105580001C4E24F080440327B542CC6083F825707C
:105590001FD1037F4260022BC2601ED0F0BC06F018
:1055A0008DBD016890F82400CC6840F0004048634D
:1055B000CFE7CC8BC2F3080004F47E442043C883B9
:1055C000A7E7CC8BC0F3080004F47E442043C883D3
:1055D00094E72B461146F0BC18478368F0BC184787
:1055E000F0FAFF1F1F8000401C8000401B8000401D
:1055F00000000FFFB552000090E80C00F0B41C68EA
:1056000059682568164F174E29432160164D1749D2
:105610001760D66015611160417A154A5C180A312D
:1056200094F8244053F8215002EBC40149680D60FE
:10563000017A5C1803EB8101247ECD6902EBC40181
:1056400049680D60817A581803EB810390F83000A7
:10565000596B02EBC002F0BC53681960704700BF81
:1056600001401F00011000380110007800001F8069
:10567000345B01004268036805CA10B40468224321
:105680000260D868840100F0E06205D5080900F4E2
:10569000706021F470410143D8681143814209D000
:1056A0001A68500408D40748186041F08040D96057
:1056B00018611A6010BC704741F08042D96010BC7C
:1056C0001A61704701401F00204A43689A42F0B4B3
:1056D0000FD0427A1A4492F82420914207D093F8CE
:1056E00024408C4215D093F825408C422AD0F0BC3F
:1056F00070470B2907D00729EBD1154C227842F0CF
:1057000001022270E5E7124C227822F00102227099
:10571000DFE7002421461E685D6836682E420FD000
:105720000C4D05EBC202002756685A18376092F8F4
:10573000242005EBC2050A316A6853F82130136052
:105740004472D4E701242146E5E700BFD4540100A8
:1057500021580020345B01001E4A43689A42F0B48D
:105760000CD0027A1A44127E914205D01C7E8C42E3
:1057700014D05C7E8C422AD0F0BC70470C2907D034
:105780000829EED1144C227842F002022270E8E798
:10579000114C227822F002022270E2E70024214616
:1057A0001E685D6836682E420FD00C4D05EBC202B4
:1057B000002756685A183760127E063105EBC2057D
:1057C00003EB81036A685B6813600472D4E7012409
:1057D0002146E5E7D454010021580020345B010044
:1057E000204A43689A42F0B40FD0827A1A4492F861
:1057F0003020914207D093F830408C4215D093F876
:1058000031408C422BD0F0BC70470D2907D00E29B7
:10581000EBD1154C227842F004022270E5E7124CDD
:10582000227822F004022270DFE7002421461E685D
:105830005D6836682E4210D00C4D05EBC202002781
:1058400056685A18376092F830200C3105EBC205C3
:1058500003EB81036A685B6813608472D3E70124F9
:105860002146E4E7D454010021580020345B0100B4
:105870000BB1FFF72BBD704710B5044600F03CFD9F
:10588000002384F8313084F8333010BD90F8312093
:105890000AB10020704738B504460D46114638223B
:1058A00008F0E4FD4023012084F8313084F833000F
:1058B000256238BDF0B50878202803D111F8010F12
:1058C0002028FBD051600878002851D02F282BD0F9
:1058D0005C2820D0A0F12204E4B21D2C1DD9DFF8F1
:1058E00094E04E1C00247C28A0F12005374612D0FD
:1058F0005E2D10D816F8010BA0F12205EDB201348F
:1059000078B32F2811D05C282EFA05F703D01D2D6F
:10591000E9D8FD07E7D50020F0BD164D25FA04F4BF
:10592000E607DCD50020F0BD00240F193E462546D1
:105930002F2002E016F8010F01352028FAD02F2879
:10594000F8D02944196044B1394611F8013D2E2B95
:1059500001D0202B08D1013CF7D120461060012056
:10596000F0BD1F600F19EFE7FF2CF6DD0020F0BD42
:105970001960F3E7010100352DE9F04790F8333065
:10598000DD0782B0044640F1AD8058060D4616464C
:1059900040F1B380D4E90001D4E9042310EB0608F8
:1059A00041F100094B4508BF4245C0F0AC80002ED4
:1059B00000F0AB80A146F9E80623B04650E013435F
:1059C0006CD194F831305A064CBFD0F82C14E169F0
:1059D000A16190F83DC4D0F8242402397F0A01FA6D
:1059E0000CFEB9187144BAF1000F43D1B8F5007F2D
:1059F00040D3D0F8142291423CD0B8F5806F54D3F4
:105A00004FF0010A0AFA0CFCC7EB0C074FEA582AC0
:105A1000BA4528BFBA4691424FEA4A270CD80AEB4A
:105A20000103934208D900F50370019100F0B2FF21
:105A3000002857D0206A0199D0F8380453462A46E6
:105A400003F058F800284DD038460021D4E900234F
:105A500012184B41B8EB07083D44C4E9002354D069
:105A6000206AD0F830741740C7F3080A002FA6D078
:105A7000A169AEE700F50370002200F023FF88B3B0
:105A8000CAF50077474528BF474600EB0A013A466A
:105A9000284604F06BFC38460021D7E794F83330F1
:105AA0005B060FD5A169013192E7D0F838040123D4
:105AB0002A4603F01FF8A8B14FF4007000214FF4FC
:105AC0000077C3E74A46A16901F0FCF840B200281C
:105AD00008DB02D0206AA1697BE794F8313013F02B
