:1000000000800020BD0100000DAB0000C5AA00006B
:10001000C5AA0000C5AA0000C5AA0000C5AA000024
:10002000C5AA0000C5AA0000C5AA00000DAB0000CB
:100030000DAB0000C5AA0000B5C20000B9C20000A7
:100040000DAB00000DAB00000DAB00000DAB0000D0
:100050000DAB00000DAB00000DAB00000DAB0000C0
:100060000DAB00000DAB00000DAB00000DAB0000B0
:100070000DAB00000DAB00000DAB00000DAB0000A0
:100080000DAB00000DAB00000DAB00000DAB000090
:100090000DAB00000DAB00000DAB00000DAB000080
:1000A000354F00000DAB00000DAB00000DAB0000A4
:1000B0000DAB00000DAB00000DAB00000DAB000060
:1000C0000DAB00000DAB00000DAB00000DAB000050
:1000D0000DAB00000DAB00000DAB00000DAB000040
:1000E0000DAB00000DAB00000DAB00000DAB000030
:1000F0000DAB00000DAB00000DAB00000DAB000020
:100100000DAB00000DAB00000DAB00000DAB00000F
:100110000DAB00000DAB00000DAB00000DAB0000FF
:100120000DAB00000DAB00000DAB00000DAB0000EF
:100130000DAB00000DAB00000DAB00000DAB0000DF
:100140000DAB00000DAB00000DAB00000DAB0000CF
:100150000DAB00000DAB00000DAB00000DAB0000BF
:100160000DAB00002DB100000DAB00000DAB000089
:100170000DAB00000DAB00000DAB00000DAB00009F
:100180000DAB00000DAB00000DAB00000DAB00008F
:100190000DAB00000DAB00000DAB00000DAB00007F
:1001A0000DAB00000DAB00000DAB00000DAB00006F
:1001B0000DAB00000DAB000071C00000564B4CF2BF
:1001C000205210B51A804DF628121A8000BF00BFC9
:1001D00000F0FCFB514B4FF010621A60504A9A60DD
:1001E000504ADA60504A136813F4807304D14F49BF
:1001F0000B604FF4A85313604D4B1A78110703D5C9
:100200001A7842F008021A704A4B4B492A221A7097
:100210004A4A4B4B8B4204D252F8040F43F8040B6A
:10022000F8E7484B484900228B4202D243F8042B9E
:10023000FAE74649464A002352F8230041F82300D2
:1002400001336F2BF8D1434B434A802103F8011B44
:100250009342FBD1414B3D4A1A60414B8A221A70AE
:10026000A3F5805324225A70A0221A709A7992071B
:10027000FCD59A79D406FCD43A4A937903F00C035E
:10028000082B384BF9D103221A7140225A719A79FE
:100290009006FCD5334A9179324B4906FBD5324A58
:1002A000324911600221516020221A709A7902F0BD
:1002B0000C020C2AFAD12E4B2E4A1A602E4B2F4AD2
:1002C0001A6000225A60072243F8042C2C4AC3F813
:1002D0000C2D62B60AF000FE144B1B68DA0705D538
:1002E00028480AF07DFD284B284A1A60284B1B78C5
:1002F0005B0609D5244C254B22689A4204D121483B
:100300000AF06EFD002323600AF004FC0DF03AFDB4
:100310000CF03AF9FEE700BF0E20054030800440A3
:10032000823F04000100002B10D0034014D0034092
:1003300002D0074000E00740880A0020D462010094
:1003400020F9FF1F880A00209058002000F4FF1FAA
:100350000000000000E400E05FE400E008ED00E0E1
:100360000050064000400640448004400000030165
:1003700004800440C010050014E000E0FF76010096
:100380000000202012A7CB691CE00340A5C3945AAB
:1003900000F00740FFFFFFFFFFFFFFFFFFFFFFFF32
:1003A000FFFFFFFFFFFFFFFFFFFFFFFFFFFFFFFF5D
:1003B000FFFFFFFFFFFFFFFFFFFFFFFFFFFFFFFF4D
:1003C000FFFFFFFFFFFFFFFFFFFFFFFFFFFFFFFF3D
:1003D000FFFFFFFFFFFFFFFFFFFFFFFFFFFFFFFF2D
:1003E000FFFFFFFFFFFFFFFFFFFFFFFFFFFFFFFF1D
:1003F000FFFFFFFFFFFFFFFFFFFFFFFFFFFFFFFF0D
:10040000FFFFFFFFFFFFFFFFFFFFFFFFDEF9FFFF23
:1004100010B5054C237833B9044B13B10448AFF33E
:1004200000800123237010BD880A00200000000016
:10043000D0620100084B10B51BB108490848AFF362
:1004400000800848036803B910BD074B002BFBD0A0
:10045000BDE81040184700BF000000008C0A0020D3
:10046000D0620100880A00200000000000207047D0
:10047000704700BFF8B55548554D564C297803785C
:100480002278DFF868E1544F544E120442EA032305
:10049000FF222A700270802022708EF800003870CF
:1004A000B2794F480B4312F00C0FC36002D1B379FD
:1004B000DC063DD4494A9379C3F38103032B40D032
:1004C000464B9A79C2F38102022A42D0434A937979
:1004D000C3F38103022B53D0404A9379C3F38103C2
:1004E000022B61D03D4A9379C3F38103012B51D094
:1004F0003A4A9379C3F38103012B5CD0374B9A7945
:1005000012F00C0F03D19A79D20600D49B79354DA5
:10051000354B2A7853F82240D4B1236820469B6893
:1005200098472B7804EB83046468002CF5D1F8BD60
:10053000B3799806EBD5294A9379C3F38103032B4A
:10054000BED19379D906BBD493799B06DFD4B7E7A4
:10055000F8BD9A79D706B9D49A799606B6D559785E
:1005600001F0020101F0FF020029AFD120211A7031
:100570001A461970937903F00C030C2BFAD1C6E7D5
:100580009379DD06A8D493799C06A5D4537898076F
:10059000BDD5A1E79379DF06AAD593799E06A7D4A6
:1005A00053789D07B3D4A3E79379D9069AD45378A7
:1005B0009B07ACD496E79379DC069FD59379980690
:1005C0009CD453789907A2D598E700BF06C007408E
:1005D00005C0074007C0074009C00740004006406B
:1005E00068580020C85600208856002008C00740E0
:1005F00090F92410104B03604B1C06D0F0B40F4E42
:1006000056F82130984201D0F0BC70470C4F57F893
:10061000213033B18D0000245A1953685460002BE7
:10062000FAD1084C23780022013B237047F821209F
:1006300046F82120E8E700BF00500100A85600203E
:1006400088560020C956002038B590F924506B1CFC
:100650001BD00E4B0E4953F825400E4BEDB24FF018
:10066000FF320D701A6084B1AD0002E02C44646862
:100670005CB194F82530002BF8D0236820462C4438
:100680001B6898476468002CF3D138BD8856002059
:10069000C8560020B8F3FF1F704700BF90F9241020
:1006A000104B03604B1C06D0F0B40F4E56F82130AF
:1006B000984201D0F0BC70470C4F57F8213033B14D
:1006C0008D0000245A1953685460002BFAD1084C4D
:1006D00023780022013B237047F8212046F821208F
:1006E000E8E700BF00500100A8560020885600200F
:1006F000C956002090F92410104B03604B1C06D003
:10070000F0B40F4E56F82130984201D0F0BC70473B
:100710000C4F57F8213033B18D0000245A1953681B
:100720005460002BFAD1084C23780022013B23703F
:1007300047F8212046F82120E8E700BF00500100DB
:10074000A856002088560020C9560020704700BFD8
:1007500010B5002104460BF0F5FBB0B1B4F8B4318C
:100760009BB2C3B1B4F8B031B4F8B2219BB201333B
:10077000632BC8BF002392B2934207D09A1D04EBAB
:1007800082029BB25060A4F8B03110BDD4F8B831E9
:100790000133C4F8B831BDE810400BF08FBB00BF87
:1007A00010B5044B044640F8103B07F0AFFE20465E
:1007B00010BD00BFB84F010010B504460BF002FC9D
:1007C000204610BDB0F8B231B0F8B0119BB289B27A
:1007D0008B4202460FD00133632B86BF00210B46AC
:1007E00099B2063300EB83035868C2F8AC01A2F853
:1007F000B211043070470020704700BF826C62B1B4
:10080000137803F0080303F0FF0003B3D3695069C2
:10081000181A48BF6FF000407047C16CC1B191F821
:10082000313003F0080303F0FF0083B1D1E9042362
:10083000D1E90001101A30B463EB010100256FF01B
:1008400000448D4208BF844200D2204630BC70472D
:1008500008467047836C13B1184606F0D1BFC06CD0
:1008600008B105F0E3BD704700B5836C83B063B198
:10087000184601220DF1070106F00CFE01280CD1EB
:100880009DF8070003B05DF804FBC06C28B101229D
:100890000DF1070105F00AF9F0E74FF0FF30F1E73D
:1008A000836C13B1184606F0BFBEC06C08B105F0EA
:1008B000CDB94FF0FF307047836C13B1184606F086
:1008C000A5BFC06C08B105F04FBF704700B5836C81
:1008D00083B08DF8071043B1184601220DF10701CE
:1008E00006F094FF03B05DF804FBC06C0028F9D05B
:1008F00001220DF1070105F037FF03B05DF804FB9D
:1009000070B5044608460D460EF0FAF82368024614
:10091000294620465B68BDE87040184738B5054653
:100920000BF052FD044628460BF0E4FC204438BD91
:10093000002310B4104C4172026104600372C36062
:1009400041B1194600E0026942F82310427A0133AE
:100950009A42F8DC094B1A680AB90BE01A46536947
:10096000002BFBD15061002343618380C3808372DD
:1009700010BC70471860F6E7AC4F0100DC57002050
:1009800038B50546D0F8AC0120B10BF097FA00233A
:10099000C5F8AC31B5F8B241B5F8B031A4B29BB2EC
:1009A0009C420ED00134642C28BF0024A31D05EB0B
:1009B000830358680BF082FAB5F8B0319BB29C42C1
:1009C000F0D19BB2A5F8B23138BD00BF464A474BC3
:1009D000102010801B781B0734D5F0B5444E454DD0
:1009E000454C31782B782278DFF82CE1434F824058
:1009F00042EA03230B43FF22802132702A702270C7
:100A00008EF800103970D9073D4A14D51A23936027
:100A10003C4F3D4E3D4D3E4C3E49107900233B70CE
:100A200053709370D370D360337013712B70237035
:100A300013700870F0BD1F0705D4DE0606D5042329
:100A40009360E5E7704721239360E1E79D0604D4B6
:100A50005C0604D516239360DAE79060D8E71806A1
:100A600002D509239360D3E7D90502D50A23936001
:100A7000CEE79F0502D50D239360C9E75E0502D539
:100A80000B239360C4E71D0502D51E239360BFE7C7
:100A9000DC0402D502239360BAE7980402D5072349
:100AA0009360B5E7590402D506239360B0E71F04AD
:100AB00002D515239360ABE7DE0302D524239360B0
:100AC000A6E79D0302D522239360A1E7DC0202D5AD
:100AD000252393609CE71803F5D45903F3D49B02B4
:100AE00044BF2323936093E70020054002D00740D2
:100AF00005C0074006C0074007C0074009C00740BF
:100B00006858002000C0074001C0074002C00740ED
:100B100003C0074004C0074008C00740002976D042
:100B20002DE9F04F0C469100631883B05D68002DED
:100B300057D06B185E68002E50D073185F68002F76
:100B400049D07B18D3F80480B8F1000F3CD008EBF3
:100B50000103D3F80490B9F1000F32D009EB01037F
:100B6000D3F804A0BAF1000F27D00AEB0103D3F8A1
:100B700004B0BBF1000F18D00BEB01035B6863B14D
:100B8000194401934968FFF7C9FF019B93F8252099
:100B90001AB11A681846536898479BF8253023B154
:100BA000DBF8003058465B6898479AF8253023B147
:100BB000DAF8003050465B68984799F82530002BEA
:100BC00035D198F8253063BB97F825301BB13B68C9
:100BD00038465B68984796F82530CBB995F82530AC
:100BE00063B994F8253013B903B0BDE8F08F2368DA
:100BF0005B68204603B0BDE8F04F18472B682846D5
:100C00005B68984794F82530002BEDD0EFE77047EC
:100C1000336830465B68984795F82530002BE0D064
:100C2000ECE7D8F8003040465B689847CCE7D9F845
:100C3000003048465B689847C3E700BF90F924201E
:100C4000531C26D01B4B2DE9F04153F82240D2B261
:100C5000ECB19300E1184D68B5B1E9184E6866B182
:100C6000F1184F6837B13B445968FFF757FF97F8C1
:100C70002530A3B996F8253063B995F825301BB116
:100C80002B6828465B68984794F8253063B9BDE81F
:100C9000F0817047336830465B689847EDE73B6802
:100CA00038465B689847E5E7236820465B68BDE8FF
:100CB000F04118478856002038B50D21154C1648CC
:100CC0000AF074FF15480BF015FB25881448102115
:100CD0000AF06CFF294611480BF076FB0F480BF029
:100CE00009FB104B10491A681048022A08BF104A25
:100CF0004FF00003A1F8B43108BFA2F8B4310D4B96
:100D00001B88238007F002FC6420BDE838400AF00D
:100D100095B800BFE05700201850010024000020C3
:100D2000285001000CFAFF1F704F0020E0540020F3
:100D30002C51002008580020264B1B680F2B0CD884
:100D4000DFE803F00C1014181C2024282C30343851
:100D50003C404408204B214A1A6070471E4B204AF1
:100D60001A6070471C4B1F4A1A6070471A4B1E4A84
:100D70001A607047184B1D4A1A607047164B1C4A80
:100D80001A607047144B1B4A1A607047124B1A4A7C
:100D90001A607047104B194A1A6070470E4B184A78
:100DA0001A6070470C4B174A1A6070470A4B164A74
:100DB0001A607047084B154A1A607047064B144A70
:100DC0001A607047044B134A1A607047024B124A6C
:100DD0001A60704700FAFF1FB8540020BD549341B9
:100DE000103377C0993918C0BE0D68BFCE71153F5A
:100DF0008D090340CCC9624009A7A3407DDBD140E7
:100E0000C416014154FC1741D0E830411955464100
:100E10009FAB5F41A04176415E2E864138B50121EE
:100E2000142009F027FE234B1B68012B3DD0002125
:100E3000072009F0E9FF00210C2009F0E5FF00215F
:100E40000E2009F0E1FF0521072009F0F1FF1A4CFF
:100E50001A4D05210C2009F0EBFF05210E2009F0A9
:100E6000E7FF2078002109F0CFFF2878002109F062
:100E7000CBFF0521287809F0DBFF4FF4FA6009F079
:100E8000DDFF0121207809F0BFFF4FF4FA6009F07F
:100E9000D5FF2078002109F0B7FF4FF4FA6009F080
:100EA000CDFF074B074A1A6038BD074807F02EFBF5
:100EB000BDE700BFA80A00208C530020E0530020AB
:100EC0000CED00E00400FA05E05400202DE9F84F95
:100ED0006D4F3B68012B5ED0022B01D0BDE8F88F2F
:100EE0006A4DB5F8B031B5F8B22199B293B29942D2
:100EF00038BF6431CB1A1F2BF0DDDFF8A8A1DFF873
:100F00009CB1DFF888910AF58047D8460026D5F8CD
:100F1000AC310024002B39D0DBF8AC3100208BB38E
:100F200004F58071534634F9022B23F8042C30F970
:100F3000022B23F8022C8C4203F10403F3D1D5F8E1
:100F4000AC0118B10AF0BAFFC9F8AC61DBF8AC012A
:100F500018B10AF0B3FFC8F8AC610AF5007A57453A
:100F6000D5D14B4B986C002875D04FF4804249493D
:100F700006F04CFC013077D0474A136820331360E9
:100F8000BDE8F88F4548FFF71DFCC9E73F48FFF76C
:100F900019FC0446C0E73D4DB5F8B031B5F8B221B3
:100FA00099B293B2994238BF6431CB1A3F2B95DD89
:100FB0003B4CDFF8D8A00121112009F025FF04F5F2
:100FC00080494FF000081AE009F06AFA30460AF04A
:100FD00075FFC5F8AC812D48FFF7F4FB4FF4807224
:100FE0000146204609F05CFAD5F8AC0118B10AF0C8
:100FF00065FFCAF8AC8104F500744C4517D0D5F8EC
:10100000AC61A4F5807B4FF4807200215846002E1D
:10101000DAD11E48FFF7D6FBDAF8AC6101464FF48F
:101020008072584609F03CFA002ED4D0CEE7112049
:10103000002109F0E9FE164B986CD8B14FF48042BC
:10104000144906F0E3FB013011D013493B680A68EC
:1010500020320A6040E7D86C00288DD04FF48042DF
:101060000C4905F081FB85E7FFF7D8FE84E7FFF721
:10107000D5FEEAE7D86C0028E7D04FF48042054956
:1010800005F072FBDFE700BF0CFAFF1F704F002076
:10109000D0540020B40A00206C4F00202C510020B6
:1010A000B40B0020B80A002038B50F4D0F4C2B6848
:1010B00054F82330B3B12A680D4954F822300D4852
:1010C000013B44F82230FFF71BFC2B68094854F819
:1010D00023100A2200230BF037F90648BDE83840F8
:1010E0000BF008B9FEE700BF845500202C55002006
:1010F0003C5001002400002010B582B004460DF0E1
:10110000FFFC00B2012816DDB4F9003044F252426F
:10111000934233D012DD44F2537293421DD044F611
:101120005212934207D101AAE01C1C490DF0B0FCF9
:101130001B4B019A1A60012002B010BD44F24E42CE
:101140009342F8D101AAE01C14490DF0A1FC154B03
:10115000019A1A60012002B010BDE01C01AA0F49DB
:101160000DF096FC019B0F2B13D90F4B0421196036
:101170000F2009F07FFC012002B010BD01AAE01C85
:1011800006490DF085FC094B019A1A60012002B056
:1011900010BD054AD9B21360EAE700BF5050010004
:1011A00098FAFF1FB00A002000FAFF1F90FAFF1FF5
:1011B0002DE9F04FDFF89882A04BD8F878549FB013
:1011C0004FF47A720A9300238DF82C308DF8343066
:1011D0001C931D930C92002D00F0CF8005F23C462D
:1011E000304605F0EDFF2946304606F04DF9DFF8B0
:1011F0007492D9F800100EAF21B138460023904AFE
:1012000007F098F91C98002800F0D48000252E469D
:101210008DF808604FF0000B4FF0FF0A98B10122E3
:101220000DF1070106F036F9012817D00BF1010383
:101230001EAA93441BB21D2B0BF870AC17DC1C9834
:101240009B460028EBD11D9B002B55D01846012250
:101250000DF1070104F02AFC0128E7D19DF80720D1
:101260000D2A08BF5B4640F0C9801D2BE7DD013B1E
:101270009BB21EAA1A4402F8706C9DF808202F2A0F
:1012800004D0012B02D902A8FFF736FF1C98C0B189
:10129000037819070ED4384607F038F9002D36D1F7
:1012A0000124684B0A93384607F030F920461FB0F6
:1012B000BDE8F08FC36942699A1AA9D4002AA7D160
:1012C000E9E71D9B002BE6D093F831201207E2D509
:1012D000D3E904ABD3E90023BAEB02026BEB0303BF
:1012E0004FF0000B6FF0004A9B4508BF924538BF96
:1012F0005246002A8CD1CEE70BF101031EAA93447B
:101300001BB21D2B0BF870ACB1DC9B4699E70B218F
:101310004D480AF04BFC00230A2221464B480BF0B3
:1013200013F84A480AF0E6FFD8F87854484B9DB3C2
:1013300005F23C46304605F043FF2946304606F0AC
:10134000A3F8D9F8001029B144F202233C4A3846E8
:1013500007F0F0F81C9B002B49D02146184606F0F8
:1013600099F91C9800283AD002223A4906F04EFA20
:10137000384607F0CBF8012493E7D8F87C54002DC9
:101380003FF435AF05F58866304604F00FFB29467B
:10139000304604F015FB2AE7D3F87C54002DD0D05A
:1013A00005F58866304604F001FB2946304604F016
:1013B00007FBC6E71D9D002D7FF428AF14212648AA
:1013C0000AF0F4FB21480AF095FF0D222349244836
:1013D0000AF07AFF22482C460AF08CFF61E71D983C
:1013E0000028C5D002221B4905F0BEF9C0E71D98B0
:1013F0000028BDD0224604F041FCB2E71EAB03EB4F
:101400000B01542A0BF1010301F8702C1BB20DD112
:101410001C9818B14469013C012526E71D9A12B1B8
:101420001468013CF8E74FF0FF34F5E71D2B3FF758
:101430001EAF0A2A3FF41BAF01E700BFDC4F0100DB
:1014400054500100B84F01006050010024000020FA
:10145000B84A00206C500100705001008850010013
:10146000145300207C5600202DE9F041044604204E
:101470000D46164609F0CEFC8046032009F0CAFC52
:101480000746B8F1000F2AD1DFF89C80244AD8F82B
:1014900000300121132B117039DD0133642BC8F8A2
:1014A00000303ADDC82BD4BF05343C3467B91D4F3A
:1014B0001B4A3B680121132B117022DD3C2C16DCEA
:1014C00001233B60013C02E0164B00221A60AC4253
:1014D00009DBB442C8BF2C462046BDE8F081124B60
:1014E00000221A60E2E734462046BDE8F0813B68FE
:1014F0000133642B3B60E5DDC82BD4BF053C3C3C8D
:10150000E5E7C82009F09AFC3C2CD9DDEFE7C820BC
:1015100009F094FCD8F80030BFE70134C6E700BFFB
:10152000604F00203C550020C854002010B5094CE5
:10153000204608F071FD2046012108F0C3FA20463C
:10154000022108F0B9FA002220461146BDE81040F9
:1015500008F0AEBA1453002038B5054608F02EF84E
:101560001E4C014620460AF02FFF2D200AF0A2FB58
:10157000284608F015F8014620460AF025FF2D20E0
:101580000AF098FB284607F0FDFF014620460AF0C6
:101590001BFF012112480AF009FB284607F0C8FF8B
:1015A000014620460AF010FF3A200AF083FB284645
:1015B00007F0CCFF014620460AF006FF3A200AF069
:1015C00079FB284607F0D0FF014620460AF0FCFED2
:1015D0002046BDE838400AF08DBE00BF2400002040
:1015E000D852010038B5054609F02AFA074C207098
:1015F000681C09F025FA6070A81C09F021FAA07097
:10160000E81C09F01DFAE070206838BD7453002012
:1016100008B50020FFF7E6FF1D4B18600420FFF718
:10162000E1FF1C4B1860082009F00AFA1A4B1870E9
:10163000092009F005FA194B18700A2009F000FA80
:10164000174B18700B2009F0FBF9164B18700C2083
:1016500009F0F6F9144B18600D2009F0F1F9134B5D
:1016600018600E2009F0ECF9114B18700F2009F0EA
:10167000E7F9104B1860102009F0E2F90E4B1860E2
:101680001220FFF7AFFF0D4B80B2188008BD00BFDE
:1016900090FAFF1F98FAFF1FAC0A00208055002027
:1016A00028540020684F0020BC54002080FAFF1FFF
:1016B0008CFAFF1F00FAFF1F0CFAFF1FAE0A002072
:1016C00038B50A4C0B460546C9B2236009F0D2F979
:1016D0006178681C09F0CEF9A178A81C09F0CAF954
:1016E000E178E81CBDE8384009F0C4B97453002023
:1016F00008B51F4B00201968FFF7E2FF1D4B0420BF
:101700001968FFF7DDFF1C4B0820197809F0B2F9C2
:101710001A4B0920197809F0ADF9194B0A201978EC
:1017200009F0A8F9174B0B20197809F0A3F9164B0B
:101730000C20197809F09EF9144B0D20197809F046
:1017400099F9134B0E20197809F094F9114B0F20D9
:10175000197809F08FF9104B1020197809F08AF9DF
:101760000E4B1988122089B2BDE80840FFF7A8BFC8
:1017700090FAFF1F98FAFF1FAC0A00208055002046
:1017800028540020684F0020BC54002080FAFF1F1E
:101790008CFAFF1F00FAFF1F0CFAFF1FAE0A002091
:1017A00070B5154C154D2046022108F085F9144BF3
:1017B0002A6853F8226030460DF0A2F931460246FD
:1017C00020460AF081FD20460AF094FD20460121C2
:1017D00008F072F92A680B4B53F8225028460DF096
:1017E0008FF92946024620460AF06EFD2046BDE8E4
:1017F00070400AF07FBD00BF1453002088530020C2
:1018000060FAFF1FC4FAFF1F30B5012183B01548ED
:1018100008F052F900226421124808F049F9002525
:101820004FF47A74152009F047F80BF079FE014661
:1018300028460BF0C1FD013C0546F3D10A490BF0E7
:1018400077FF0BF017FA012402460B460094054877
:101850000AF0C2FD05490348224603B0BDE8304006
:101860000AF032BD1453002000CB294898500100E3
:1018700008B501210F4808F01FF9082264210D481E
:1018800008F016F90C4B1B68012B0BD008225A21CB
:10189000084808F00DF9062208490648BDE8084046
:1018A0000AF012BD042206490248BDE808400AF0C9
:1018B0000BBD00BF145300200CFAFF1FA450010001
:1018C0009C5001002DE9F04F83B00F4601908068D5
:1018D0000021013016460BF039FE014629480BF075
:1018E00027FF044630460BF017FE01460BF064FD5F
:1018F000064638460BF010FE014630460BF064FEFB
:10190000014620460BF014FF4FF001084FF07E55C2
:101910000746C1464FF0010A4FF0000B50460BF04E
:10192000FFFD39460BF050FE04460CF013F80BF0A7
:10193000F7FD014620460BF03DFD294606460BF01B
:10194000E1FF4FF0874148B120460BF0DBFF28B1A3
:1019500020460CF05DF835468046D1461AF1010A62
:101960004BF1000BBBF1000F08BFBAF1400FD5D10E
:10197000019809F1FF3208F1FF3380E80C0003B051
:10198000BDE8F08F001B374C2DE9F04110298AB0DB
:101990000C46074663D0202904BF01230993224641
:1019A000394607A8FFF78EFF0798089E099D029405
:1019B000431C013601350393049605950BF0ACFDED
:1019C0004FF07E510BF0F8FC26490BF0FDFD8046F0
:1019D00030460BF0A1FD014640460BF0A9FE4FF04A
:1019E0007C510BF0F1FD064628460BF095FD0146B3
:1019F00030460BF09DFE054660000BF091FD014660
:101A000028460BF095FE0BF0A5FF174B01901A46E8
:101A1000009716491648174D174C0AF087FC1749CE
:101A200017480B6823F010430B60079A089B1203BA
:101A300002F47F22C3F30B0313432B609DF8243081
:101A400043F0E06323609DF8243043F08E4303604D
:101A50000B6843F010430B600AB0BDE8F08103232C
:101A600009939CE7001BB74C00D8B805AC500100A7
:101A70002400002004F1024008F0024080F00240FF
:101A800088F002402DE9F04F05469D4E9D4FDFF84E
:101A90008C8296F800E02F60FF2085F82400DFF8A4
:101AA000809298F80000BEF1060F59F820E04FF040
:101AB00000038DB00C4685F8253085F8263098BF98
:101AC0003370BEF1000F00F0AD808E455ED07346DE
:101AD000810001E09C4259D00B445B68002BF9D196
:101AE000734600E053460B44D3F804A0BAF1000F4C
:101AF000F8D15C603478029705EB010B4FFA80FC5B
:101B0000FF23062CCBF804A08DF82DA08DF82EA075
:101B100085F824C08DF82C30744604D80023337027
:101B2000002C00F0B480A24229D0234601E0934269
:101B300025D00B445B68002BF9D104EB010EDEF8D5
:101B40000440002CF9D1CEF804200CAB1944BCF1B0
:101B5000FF3F00F101034FF0000041F8240C88F82A
:101B600000308DF82CC0029705D0674951F82C2021
:101B700002AB9A4276D028460DB0BDE8F08F013016
:101B800088F8000028460DB0BDE8F08F3178029744
:101B9000FF24002306298DF82C408DF82D308DF878
:101BA0002E30574C00D823709645E8D073468100FC
:101BB00001E09A42E3D00B445B68002BF9D18E44DC
:101BC000DEF804402CB1A6468E44DEF80440002C1A
:101BD000F9D10CAB46B219440130731CCEF8042085
:101BE00088F8000041F8244C02978DF82C60C2D090
:101BF000454951F8262002AB9A42BCD159F826300B
:101C0000B00023B11A1853685460002BFAD198F829
:101C100000300022013B88F8003049F8262041F8C6
:101C20002620A8E700283AD0374B96F800E043F882
:101C30002050810005EB010C002349F820408DF86D
:101C40002D30CCF804308DF82E304FFA80FCFF2375
:101C5000BEF1060F029785F824C08DF82C307FF670
:101C60005DAF5DE759F82C304FEA8C0423B11A19A7
:101C700053685060002BFAD198F800300022013BE5
:101C800088F8003049F82C2041F82C2073E7E8B19F
:101C90001D4B49F8202002AA43F8202055E71B4994
:101CA0001B480B68019243F080630B60036819497D
:101CB00023F080430360152008F0C4FF164B019AFF
:101CC0004FF40011196098F80000ADE70F4C104870
:101CD0002368019243F08063236003680D4923F079
:101CE00080430360152008F0ADFF0B4B019A4FF4C1
:101CF0000011196098F800004FFA80FC8100C7E7D6
:101D0000BCF3FF1F00500100A856002004700440DF
:101D1000007004407504000000E100E0C956002096
:101D2000885600202DE9F04708F044FE4FF0FF31BF
:101D30006448654D08F05CF96449654B0A682B609E
:101D400000236B722B612B72EB600AB9B7E01A4665
:101D50005369002BFBD1556100245E4E5E4F5F4BF3
:101D60006C61AC80EC80AC7257482B60DFF8B481BA
:101D7000DFF8B4A1DFF8B49102F0CAFE06F1180250
:101D800030460121FEF7D4FD07F118020121384643
:101D9000A6F8B041C6F8AC41A6F8B241C6F8B841C1
:101DA000A6F8B441C6F800A0FEF7C2FD4046A7F869
:101DB000B04188E86000C7F800A0A7F8B24188F8F1
:101DC000084088F80940C8F80C4088F81040C7F867
:101DD000AC41C7F8B841A7F8B4410AF0BFF8404A8F
:101DE0004049414E40460AF0DBFD4FF0010A4846AB
:101DF00089E8A00089F80940C9F80C4089F810402A
:101E000089F808A00AF0AAF84846354A3549374DFE
:101E1000DFF81C810AF0C4FD354B3560354986F882
:101E20002540FF2586F8245019602D4A32497463F5
:101E30003046B46386F83C4086F826A00AF0B0FD30
:101E40002E4B88F82450264A2D4988F825404046D4
:101E5000C8F8003088F826A088F8274088F828407D
:101E60000AF09EFD324641462648274DFFF70AFEFE
:101E70001B4A264923480AF093FD254B184AC3F80C
:101E800078442826C3F87C4483F8984483F8956402
:101E9000C3F8A0541F49204D18460AF081FD1F4B7E
:101EA0000F4A1C714FF47A761C739C64DC649E604C
:101EB0001D601B491846BDE8F0470AF071BD0D6072
:101EC0004AE700BF14530020F8530020DC570020DD
:101ED000AC4F0100704F00202C510020C85501006C
:101EE000FCF9FF1FB90700009C53002004570100B4
:101EF00068530020AC5501009D06000018570100F2
:101F0000F50600009054002001100138F105000092
:101F1000B84A00204D070000DC4F0100D0540020DB
:101F2000A1070000E852002014500100FC520020DC
:101F30004C5500202DE9F84F424C434FDFF80C81FF
:101F40000A9E0B9D81468A462046396893461F4665
:101F500003F026FA2046002102F020FF88FB0B3117
:101F60004FEAEB73C3EBA10101EB8102ABEB420B38
:101F70000BF00F0B4BEA0111C9B2204602F00EFF25
:101F800088FB0A314FEAEA73C3EBA10101EB81033D
:101F9000AAEB430A0AF00F0A4AEA0111C9B2204625
:101FA00002F0FCFE88FB09314FEAE973C3EBA103A1
:101FB00003EB8301A9EB41011B0103F0300301F0A6
:101FC0000F011943204602F0E9FE2046012102F0EC
:101FD000E5FE88FB0731FB17C3EBA10101EB810391
:101FE000A7EB430707F00F0747EA0111C9B22046E4
:101FF00002F0D4FE88FB0631F317C3EBA10101EB1D
:102000008103A6EB430606F00F0646EA0111C9B2AA
:10201000204602F0C3FE88FB0538E917C1EBA8088B
:1020200008EB8801A5EB410505F00F0545EA08110D
:102030002046C9B202F0B2FE2046BDE8F84F03F0D8
:10204000C1B900BF64560020E4FAFF1F67666666E8
:1020500070B5104C06460D4620460A2103F0A0F943
:10206000C6F30721204602F099FEF1B2204602F0A5
:1020700095FEC5F30721204602F090FEE9B2204606
:1020800002F08CFE204603F09DF9B0FA80F0400982
:1020900070BD00BF6456002008B500213020FFF756
:1020A000D7FF00210220BDE80840FFF7D1BF00BFE5
:1020B00008B5E2213020FFF7CBFF43210220BDE825
:1020C0000840FFF7C5BF00BF0238032810B503DC86
:1020D00000285FDA002400E00C2444F26001302084
:1020E000FFF7B6FF6C212620FFF7B2FF4FF4F8711F
:1020F0002820FFF7ADFF40F622712C20FFF7A8FF44
:1021000000213C20FFF7A4FFFFF7D2FF2146042067
:10211000FFF79EFF4FF498710620FFF799FF00210B
:102120000A20FFF795FF08210E20FFF791FF4FF6D9
:10213000FF711020FFF78CFF47F67F712220FFF719
:1021400087FF00214FF49270FFF782FF4FF48A71EE
:102150002420FFF77DFF104C00212A20FFF778FF95
:1021600009210E4809F022FD21680D480AF02CF9DA
:102170000B480AF0BFF82168202041EA0111FFF75F
:1021800067FF014606480AF01FF905480AF0B2F851
:10219000012010BD8400A0E700FAFF1FC850010015
:1021A0002400002010B5074B0446102153F82000EE
:1021B000FFF7EAFB044802F097FE2046BDE8104016
:1021C000FFF782BF3CFAFF1F64560020F0B54F4C6A
:1021D0004F48216885B003F0E3F800214C4802F035
:1021E000DDFD00214A4802F03DFF216848480023F8
:1021F000072203F0CFF8464802F0F0FD0DF1FF365C
:10220000002504E002F0F4FD06F8010F0135404816
:1022100002F0E4FD04463E48002CF3D103F0D2F86E
:10222000072D09D00F213B4809F0C0FC3A480AF0BD
:1022300061F8204605B0F0BD9DF800509DF80140C2
:102240009DF804009DF805109DF802209DF80630C9
:10225000324FDFF8E0C02E1106EB860605F00F05C1
:1022600005EB4606251105EB850504F00F0404EB8C
:102270004505041104EB840400F00F0000EB440456
:10228000081100EB800001F00F0101EB400EF6B2E7
:10229000C2F301113E70181101EB8101204E02F0D2
:1022A0000F0202EB410200EB8000EDB203F00F03DE
:1022B0008CF8005003EB400332701A4D1A4A1B4849
:1022C0005FFA8EF1E4B2DBB22C700170137097F8F4
:1022D00000E09CF8007036782C78017813788DF83F
:1022E0000C401E3302A88DF80E308DF808E08DF8F2
:1022F00009708DF80A608DF80D1007F06FF90C4B1E
:1023000001241860204605B0F0BD00BFE4FAFF1FAD
:1023100064560020D45001002400002010530020F7
:1023200028550020B855002011530020614F00208F
:102330005C4F0020785300202DE9F04383B0044621
:10234000FFF744FF50B324B9174C206803B0BDE831
:10235000F083154C206807F0EBF80546206807F07D
:10236000F5F80646206807F0FFF80746206807F0F2
:1023700009F98046206807F013F98146206807F0C4
:102380001DF9CDF800900190434628463A46314663
:1023900000F0E2FA206803B0BDE8F08303B0BDE8C6
:1023A000F04308F017BD00BF5C4F00202DE9F04F4F
:1023B00001209DB0FFF7C0FFAC4FAD4C386007F077
:1023C000EFF82368834233D0AA4B1B6883B30A21FA
:1023D000A948AA4D09F0EAFBA94809F08BFF386823
:1023E00007F0DEF82060386807F0E8F82368A549B0
:1023F0000246A5480CF026FBD5F87844002C00F0E6
:102400000B8104F23C41012300249F4A8DF838409F
:102410000EA88DF839408DF83A4004F06BFFD5F8DE
:102420007804964B002800F00F81974906F048F891
:102430000021152008F0FCFC00254FF47A741520CB
:1024400008F03AFA0BF06CF8014628460AF0B4FF9F
:10245000013C0546F3D18D488D4C8E4E06F01EFD95
:10246000386807F0ABF88046386807F099F881467D
:10247000386807F087F80D90386807F059F88246F9
:10248000386807F063F88346386807F06DF8824AC9
:1024900082490A92074628460BF04AF90AF0EAFBFD
:1024A000CDE908017E4A10680AF0E4FBCDE9060197
:1024B0000D9B00936068216804914B46424605904D
:1024C00078490397CDF808B0CDF804A076480CF011
:1024D000B9FA75480CF014FB0146734809F066FB25
:1024E000674809F007FF1AE0674905F0E9FF31681E
:1024F00029B140F601236C4A6C4806F01BF86A4883
:102500000CF0FEFA0146684809F050FB5C4809F0FF
:10251000F1FE0A2008F092FC2368142B75D831686C
:1025200041B1634C604A04F1100040F6012306F00B
:1025300001F8A8B95F4C604923685B4801331A462B
:1025400023600CF07FFA4D4BD3F878040028CBD1F0
:10255000D3F87C040028CAD04B4904F0EDFCC6E750
:1025600056485749D0F800A0564D574A574B584E39
:10257000DFF86881D6F8009003C9286092E803006C
:10258000A86093E80300102701231FFA89F6AB82A5
:10259000E860EE8250462F610BF002FA5146A861C6
:1025A00050460AF009FF824648460AF0B9FF014644
:1025B00050460BF009F80BF0F3F9464AD8F8003012
:1025C000E86192E803005B02A26C6F84760003F17D
:1025D00024012E846862AB626960002A3DD01046F7
:1025E00029462C2205F012F909213B4809F0DEFAB0
:1025F000D8F80010224800230A2209F0A5FE20483E
:1026000009F078FE1DB0BDE8F08FFEF707FC4FF42F
:102610007A7008F013FC82E7D5F87C1400293FF4A7
:1026200007AF012301F58861174A8DF869400EA8AC
:102630008DF86A408DF86B4003F0CAFFD5F8780436
:102640000E4B00287FF4F1AED3F87C0400283FF451
:10265000EFAE0D4904F070FCEAE6E06C0028C3D050
:1026600029462C2204F080F8BEE700BF5C4F002012
:102670004455002098FAFF1FE4500100B84A00209A
:1026800024000020F0500100105400204D270000CD
:102690007C5300207C56002034FAFF1F00CB2948D1
:1026A000B8540020FC5001002C540020E0540020BD
:1026B000D0540020885500204451010088FAFF1FA3
:1026C000505101008C55002058510100605101000B
:1026D0000CFAFF1F685101003851010054530020CB
:1026E00038B50E211248134C09F060FA124809F06F
:1026F00001FEFFF75BFE114B002220461A60FEF739
:102700003FF90F4B1B680125022BA4F8B45108D0E8
:102710000B210C4809F04AFA0748BDE8384009F097
:10272000E9BD094C2046FEF72BF9A4F8B451EFE7B8
:1027300070510100704F0020240000206C4F0020D9
:102740000CFAFF1F805101002C5100202DE9F041AF
:10275000804601200E46FFF7EFFD244C206006F076
:102760002DFF0546206806F01BFF0746206806F08F
:1027700009FFA5F2BC739BB27F2B02D8FAB20C2AD8
:1027800028D90023A8F80030206806F0D1FE0746BB
:10279000206806F0DBFE0546206806F0E5FEFBB289
:1027A000172B13D8EBB23B2B10D8C3B23B2B0DD851
:1027B000FB026D0103F4FF2305F4FF552B43C0F327
:1027C000460003439BB23380BDE8F0810023338091
:1027D000BDE8F081C0B21F28D3D87F0107F4FF57AE
:1027E000384340EA43239BB2CCE700BF5C4F002054
:1027F0002DE9F0434F4A504BDFF85491DFF85481F4
:102800004E4F117898F800401A7899F800603868AF
:1028100083B03C2313FB064613FB012406F088FE1D
:102820000546386806F092FEC5EB051500EB8505F8
:10283000386806F0C3FE00F14E0338688DF80630A4
:1028400006F0AEFE8DF80500386806F09BFEA64245
:102850008DF804000AD2AE4249D8AC4247D3A41B3B
:10286000C4EB0414364D3748A40010E0AE4201D941
:10287000AC421AD3C4EB0414A300A6EB061403EB7A
:10288000840404F5A8342E4D2E4804F5C07410219C
:102890002C6009F08BF929682B4809F095FD2A482E
:1028A00009F028FD03B0BDE8F08302A8002598F8E0
:1028B000003099F8002000F8085D8DF801308DF89F
:1028C000022006F08BFE38602846FFF735FD3B6896
:1028D000984204DD03F5A83303F5C0733B600F2174
:1028E0001A4809F063F93868FEF736FEC2E702A815
:1028F000002599F8002098F8003000F8085D8DF860
:1029000002208DF8013006F069FE38602846FFF796
:1029100013FD3B68094A984204DD03F5A83303F52B
:10292000C07313600F21094809F040F93868FEF7B9
:1029300013FE94E728540020684F0020644F0020C5
:10294000505300209C510100240000208C510100B4
:10295000AC0A00208055002030B583B002AD079C42
:1029600005F8082D8DF80200069A8DF804304E34D3
:1029700028468DF801108DF805208DF8064006F0E8
:102980002DFE08F02DFA0020FFF7D6FC014B186051
:1029900003B030BDB44A00202DE9F04F002083B0D1
:1029A000FFF7CAFCB84BB94E18600121B848DFF8F0
:1029B0005083B84FB84D07F07FF80121B44807F0B5
:1029C00081F826220021B24807F072F80322B349A9
:1029D000AF4809F079FC26221921AD4807F068F8C4
:1029E0000322AF49AA4809F06FFC26223221A848E9
:1029F00007F05EF80322AB49A54809F065FC2622E2
:102A00004B21A34807F054F80222A749A04809F037
:102A10005BFC2E2200219E4807F04AF80023316813
:102A20009B480A2209F090FC2E221921984807F0B1
:102A30003FF80023D8F8001095480A2209F084FCDA
:102A40002E223221924807F033F83B6855F82300D4
:102A50000AF066FD95490AF06BFE0AF00BF90B4689
:102A6000024693498A4809F061FC2E224B2188488E
:102A700007F01EF88F4B18680AF0FCF80B46024668
:102A80008B49834809F052FC8B4B1C68012C00F0E9
:102A90005E81022C00F0D380884B3F68D3F8009011
:102AA000D6F800A050460AF037FD834620460AF0CB
:102AB00037FD01460AF080FC59460AF085FD0446C0
:102AC00055F827000AF02CFD014620460AF07CFD4F
:102AD0007B490AF071FC4FF08E410AF06DFC73499E
:102AE0000AF026FE71490AF023FE764B764A1B68EF
:102AF0001060012B054600F005814FF07E505946CD
:102B00000AF062FD8346D8F80000704C704F5044C4
:102B10000AF002FD014658460AF00AFE6D4B00908D
:102B2000834618780AF0FCFC6B4B19680AF04CFDE0
:102B3000594680464FF07E500AF03CFC674B1968BE
:102B40000AF042FD4946019058460AF03DFD019BBE
:102B5000014618460AF030FC014640460AF0E8FDFE
:102B60005F490AF031FD0AF01BFF0026019004F1D5
:102B700010094FF0000857F8040B44F8048B0AF0D2
:102B8000CBFC0146834628460AF0D0FE29460028A1
:102B90005DD158460AF0CCFD0AF06CF809F078FED9
:102BA0000AF094FB034644F8043C00FB0AF00AF0E8
:102BB000B3FC014630460AF0FFFBA1450646DAD1D8
:102BC00000990AF0B5FD019D044628460AF0A4FCD0
:102BD000014620460AF0B4FE26225C21002838D0A7
:102BE0002B4806F065FF05223E49294809F06CFB99
:102BF0002E225C21264806F05BFF3B4B24482A46E8
:102C000083FB02232B44E917C1EB234109F0DCFBD2
:102C1000012236491E4809F057FB76212E221C4816
:102C200006F046FF274B1A481A68012A0EBF3049A2
:102C30003049012203B0BDE8F04F09F045BB3F68C1
:102C40002D4A1E4B52F82790C3F8009028E7002128
:102C5000B0E70F4806F02CFF052228490C4809F080
:102C600033FB2E225C210A4806F022FF20460AF0A0
:102C700071FE1D49034681FB03211944DB170448FB
:102C8000C3EB2141C2E700BF5C4F002090FAFF1F59
:102C90001453002080FAFF1F3CFAFF1FB0510100BF
:102CA000B4510100B8510100BC51010000007A4448
:102CB000C0510100B85400200CFAFF1FE8FAFF1FB2
:102CC00000003042BC540020245500202C55002028
:102CD000585300208CFAFF1F94FAFF1F08FAFF1FB9
:102CE00000006145C851010007452EC2D0510100C6
:102CF000DC510100E05101009CFAFF1FD45101009A
:102D000098FAFF1F164A174B10781B78834286BF2C
:102D1000C3F11803C018C01A0AF002FC124A134B80
:102D200006461B781078834286BFC3F13C03C01867
:102D3000C01A0AF0F5FB0E49044630460AF044FC7E
:102D400021460AF039FB0B490AF0F2FCD7E63F684E
:102D5000094A0A4B52F82790C3F80090A0E600BF3A
:102D600028540020AC0A0020684F00208055002025
:102D7000000070420000B44410FAFF1FE8FAFF1F81
:102D800010B5012204460849084809F09DFA092CAB
:102D900003DC3021054806F051FE21460348BDE81A
:102DA000104009F011BB00BFF8510100145300207E
:102DB00038B504460D462348012106F07DFE2AB2AF
:102DC0000021204806F074FE204606F0F7FB01467D
:102DD0001C4809F0F9FA2D211A4806F02FFE20466A
:102DE00006F0DEFB0146174809F0EEFA2D211548E2
:102DF00006F024FE204606F0C5FB0146114809F006
:102E0000E3FA022210490F4809F05EFA204606F064
:102E10008FFB092803DC30210A4806F00FFE20460C
:102E200006F086FB0146074809F0CEFA204606F078
:102E30008DFBFFF7A5FF204606F096FBBDE8384066
:102E4000FFF79EBF14530020E45101002DE9F04725
:102E5000B54D2C682CB1012C00F0828030BFBDE84C
:102E6000F0872046FFF768FAB04FDFF83C83386000
:102E7000FEF75CFB0A22AE49AE48AF4E09F024FAD9
:102E8000AC4809F037FA0121AA4806F015FE1222D3
:102E90002146A84806F00CFE0522A849A54809F0DD
:102EA00013FAD8F80010A348013109F08DFA012275
:102EB000A349A04809F008FAD8F80020A14B9D4882
:102EC00053F8221023460A2209F03EFA30682821DE
:102ED000FFF76EFF38683721FFF76AFF954807F064
:102EE00015FA3A6833689A4236DB974C2368002B10
:102EF00000F0FC80022B00F0AF810D21934808F018
:102F000055FE934809F0F6F9924B1B68002B00F030
:102F1000E280012B00F0F0808F4C90480E2108F0E9
:102F200045FE0020FFF708FAFEF716FB0B218C4840
:102F300008F03CFE2068FEF70FFB0B21894808F0E3
:102F400035FE3068FEF708FB0123AE2179482B607F
:102F500007F06AF8FFF7C4FB2C68012C7FF47EAF02
:102F6000FDF7B4FF042007F055FF0446032007F0E7
:102F700051FF14B9002800F01D817B4F7B4B3A684C
:102F80001B689A42FFF46AAF794B724A1B68146857
:102F9000B3FA83F35B090020844214BF002603F0D8
:102FA0000106012C14BF002403F00104FFF7C4F94B
:102FB000694B1B689842ACBF002004F00100002858
:102FC00040F04F81002E40F04C81FDF775FEFEF77A
:102FD0006BF8594B674F1C68DFF8D081DFF8D0A140
:102FE0003046FFF7A9F9644A644B1268201A841A24
:102FF00024EAE47483FB04232344E017C0EBE320BA
:1030000009F026FE09F044FC0AF038F95C4A5D4BF1
:10301000386002FB004483FB042323448146E0170D
:10302000C0EB631009F014FE09F032FC0AF026F937
:1030300003011A1AC31A04EB830492004FF461636C
:1030400003FB0929C8F800404C44092CCAF80000C9
:1030500038DD3146022007F0D7FEFFF71DF84A4A57
:103060004A4913683A4823F010431360FDF748FCBF
:103070003968374809F0A8F9DAF80010344809F03F
:10308000A3F9D8F800103248FDF748FC08F042FEDA
:10309000642007F0D3FE98F800309AF800203978C1
:1030A0003B4806F031F93B4805F004FF01210220BE
:1030B00007F0AAFE4FF4967007F0C0FE364B186872
:1030C000FFF770F801233C2202211A4807F014F898
:1030D00000232B60C2E6314B254A31681B68126819
:1030E0001D4C0B441A443260236016E70A210E205F
:1030F000FEF7AEFF2368FDE61D4B1A68002A40F07C
:10310000C380274A33681768134C2649104803F5D3
:10311000A83202F5C0723B4432602360FDF7F0FB39
:103120002068FEF719FAF8E6A80A00205C4F002094
:10313000E851010014530020644F0020F4510100B5
:10314000D85201002C550020B00A0020FC5101008B
:1031500024000020BC540020845300201C52010095
:103160002C520100385201006C4F002054530020B3
:1031700098FAFF1FC054002004FAFF1FC5B3A291A4
:10318000F0F1FFFF8988888880F002406C520100CE
:103190009C5300209054002080FAFF1F90FAFF1FDC
:1031A000505300200C52010084550020205500206F
:1031B000245400203A4B3B4C1B683B4A3B4E3C4D51
:1031C000A06C5B02002103F12407A6F8B41157603C
:1031D0009362A5F8B411002836D004F05BFAA06C15
:1031E000304B48B32C22304904F010FB314805F035
:1031F0008DF901233C2202212F4806F07DFF642037
:1032000007F01CFEFEF792F907222C492A4809F024
:103210005BF8294809F06EF80121274806F04CFCBC
:1032200010222749244809F04FF8234809F062F892
:10323000214807F06BF8FEE7D86C0028D6D02C2286
:10324000194903F091FAD1E7E06C0028CED00022B2
:10325000002302F013FDC2E70B210E20FEF7F8FE5B
:103260004BE6144805F052F9FDF71EFFFFF79EF8F4
:103270000023144914483B60FDF742FB134B1248EE
:103280001988FDF74BFBE9E5114B31681B68114CC0
:103290000B441A4432602360FFF7AAFA3DE600BFF0
:1032A0006C4F0020D05400208C550020704F00201F
:1032B0002C510020E05400201453002044520100FF
:1032C0004C5201006052010024000020E057002011
:1032D00090FAFF1F845300202DE9F04F91B0FEF7C4
:1032E00097F9FDF729FD0821B148DFF84CB3B14E3D
:1032F000B14C08F05BFCB14808F0FCFF0020FFF780
:103300001BF8CBF80000FEF711F90622AC49AD48D6
:1033100008F0DAFF0121AB4806F0CEFB10220021B5
:10332000A84806F0C5FB1222A749A64808F0CCFF22
:10333000A44808F0DFFFA54B0121187807F064FDD1
:103340004FF47A7007F07AFD0721A14802F056FA8F
:103350000E219F4802F0DEFA0C219D4802F096FAF9
:103360009C4B964800251D6008F0C4FF934808F068
:10337000C1FF0521984808F019FC01218F4809F088
:1033800023F88E4808F0B6FF01218E4809F01CF89A
:10339000042292498B4808F097FF8A4806F0B6FF4E
:1033A000642007F04BFD8E4B8DF81D501F7809955A
:1033B0008DF81C70089607AB93E807000AAB83E80A
:1033C00007008DF829500C958DF828700B9693E81E
:1033D00007000DAB83E807000F9A009204F5916592
:1033E0000CCB284604F29C4105F002FA94F895347F
:1033F000C4F884547BB11C217A4808F0D7FB6F488D
:1034000008F078FF092278496E4808F05DFF6D48A2
:1034100006F07CFFFEE72946204605F0CDF800289F
:10342000E9D0D4F87804002800F0FF8504F066FFA6
:10343000054608216D4808F0B9FB29465F4808F0A9
:10344000C3FF5E4808F056FF28460AF069F868494D
:103450000AF0BAF8D4F87834574A0546002B00F041
:10346000508618790AF058F8014628460AF0ACF858
:103470000AF096FA0546D4F8840405F093FB0AF0A6
:103480004BF85B490AF0A0F80AF08AFA0A210446D0
:10349000584808F08BFB214600230A22474808F0D1
:1034A00053FF464808F026FFC72D00F2B985494A68
:1034B000002313601121504808F078FB45493F482C
:1034C000096800230A2208F03FFF3C4808F012FF79
:1034D00040493C48096800230A2208F035FF0122D0
:1034E0004649384808F0F0FE00230A2221463548B4
:1034F00008F02AFF334808F0FDFE324806F006FFC8
:103500004FF47A7007F09AFCFDF752FEFDF714FCB9
:10351000FEF7EEF83A4B1A683A4B9A4200F2C3852E
:10352000394A384B12689A4200F28885374B1A782C
:10353000172A00F28F85364B1A783B2A00F29585C0
:10354000344B1A78172A00F29B85334B1A783B2AA2
:1035500000F2A185314B1A68012A05D900221146D3
:103560000C201A6007F086FA2D4B1B68082B00F21E
:10357000BF852C4B1B780C2B00F2B1852A4B1B68A6
:103580000F2B00F2A385294A1368013B012B05D9B3
:10359000012319461020136007F06CFA244B1B8896
:1035A0009BB2B3F5B77F80F08785224E354668E041
:1035B0008052010080F0FA02B84A00202400002066
:1035C0008C52010014530020945201008C530020AF
:1035D000F0FAFF1F58530020F4510100A8520100D7
:1035E000E0530020E052010000530100B0520100FE
:1035F000BD37063ABC520100C8520100DC5201003E
:1036000090FAFF1FA086010098FAFF1FAC0A002065
:103610008055002028540020684F0020BC54002012
:1036200080FAFF1F8CFAFF1F00FAFF1F0CFAFF1F22
:10363000AE0A00205C4F0020B44A0020032007F0AF
:10364000E9FB002860D0082007F0E4FB002844D004
:10365000FDF76CFFFEF7A4F8FFF79EF9FEF7D4F82C
:10366000FEF706F90020FEF767FE3721FFF7A0FB03
:103670009A4806F04BFE0A2007F0E0FB002C40F0D1
:10368000CC840020FEF758FEDBF800403060041BBD
:10369000B4F5167F4FF00400D4BF0024012407F0D6
:1036A000B9FB0028CAD1042007F0B4FB38B90A20BE
:1036B00007F0C4FB042007F0ADFB0028F7D0884AD0
:1036C00088491368096801338B421360A4BF002343
:1036D0001360B3E70A2007F0B1FB082007F09AFB5C
:1036E0000028F7D07E4B1B68072B00F28584DFE8AB
:1036F00013F0250444003C01DF00C0035101A00089
:1037000072000A2007F09AFB032007F083FB0028D1
:10371000F7D0734A1368013B002B136093DA714BA7
:103720001B68013B13608EE76F4B1868FDF79CFE2A
:103730006D4B1860FDF7FAFE07226C49674808F0E8
:10374000C3FD664808F0D6FD674964480968002350
:103750000A2208F0F9FD3A466549604808F0B4FDD0
:103760005E4808F0C7FDFFF717F9FEF74DF85B4814
:1037700006F0CCFD022007F061FB082007F04AFBB1
:103780000128074601464FF46162CDD0082007F0BA
:1037900041FB0028FAD0524B00221A6000F02CBCEA
:1037A000544B188880B2FDF75FFE524B80B21880F0
:1037B000FDF7BCFE0A225049484808F085FD4D4BF4
:1037C0004648198889B208F0FFFD444806F09EFD7E
:1037D000022007F033FB082007F01CFB012840F211
:1037E0006D124FF00001DBD0082007F013FB00281A
:1037F000D1D1082007F00EFB0028F5D0CBE73F4BD6
:103800001878FDF731FE3D4B1870FDF78FFE092249
:103810003B49324808F058FD3849304809780023C0
:103820000A2208F091FD2D4806F070FD022007F0F5
:1038300005FB082007F0EEFA012801464FF00C02C4
:10384000DDD0082007F0E6FA0028A4D1082007F010
:10385000E1FA0028F5D09EE72A4B1868FDF704FE30
:10386000284B1860FDF762FE27491C48042208F027
:103870002BFD1A4808F03EFD224A244B126853F8EB
:10388000220009F04DFE224909F052FF09F0F2F939
:1038900002460B4611481F4908F048FDFFF77CF827
:1038A000FDF7B2FF0D4806F031FD022007F0C6FA21
:1038B000082007F0AFFA01284FF008024FF000018E
:1038C000CAD0082007F0A6FA00287FF464AF0820C9
:1038D00007F0A0FA0028F4D05DE700BF14530020E1
:1038E00088530020C0FAFF1F90FAFF1F68530100A1
:1038F00070530100AE0A0020C85301008CFAFF1F6C
:10390000D453010080FAFF1F7C5301003CFAFF1FD3
:1039100000007A4484530100B64B1868FDF7A4FDFB
:10392000B44B1860FDF702FE0622B349B34808F015
:10393000CBFCB24808F0DEFCAE49B0480968002371
:103940000A2208F001FD3A46AD49AC4808F0BCFC3B
:10395000AA4808F0CFFCFFF71FF8FDF755FFA7486E
:1039600006F0D4FC022007F069FA082007F052FAAA
:1039700001280746A34A4FF00001CDD0082007F0E8
:1039800049FA00287FF407AF082007F043FA00281F
:10399000F4D000E79C4FDFF88882049450E0306850
:1039A00005F00CFE40F634024FF4FA613860FDF782
:1039B0005BFD3B68C8F80000984224D0286805F0F9
:1039C000B7FD8146286805F0C1FD8246286805F0EC
:1039D000CBFD0446286805F0D5FD0390286805F066
:1039E000DFFD0090D8F80030A3F5FA6E2246039B65
:1039F000CDF804E051464846FEF79CFA0020FEF759
:103A00009BFCCBF80000FDF791FD05227F497B4828
:103A100008F05AFC794808F06DFC0020FEF78CFC99
:103A200005F0CCFD0146754808F0CEFCFEF7B4FF6A
:103A3000FDF7EAFE714806F069FC022007F0FEF986
:103A4000082007F0E7F90128A9D0049C082007F016
:103A5000E1F90028FAD0022007F0F0F96C4FDFF806
:103A6000C48105944FE0306805F09AFD49460C2268
:103A70003860FDF7F9FC3B68C8F80000984225D093
:103A8000286805F055FD8146286805F05FFD8246EF
:103A9000286805F069FD0446286805F073FDD8F82C
:103AA000001004902868039105F088FD03990091A7
:103AB000A0F5FA600190049B224651464846FEF765
:103AC00039FA0020FEF738FCCBF80000FDF72EFD98
:103AD00006225049494808F0F7FB484808F00AFC1C
:103AE0000020FEF729FC05F05BFD0146434808F085
:103AF0006BFCFEF751FFFDF787FE404806F006FC21
:103B0000022007F09BF9082007F084F9012881467C
:103B1000A9D0059C082007F07DF90028FAD00220E2
:103B200007F08CF93C4FDFF8008105944FE03068D6
:103B300005F028FD49461F223860FDF795FC3B68DB
:103B4000C8F80000984225D0286805F0F1FC8146AD
:103B5000286805F0FBFC8246286805F005FDD8F8CA
:103B6000003004930446286805F01AFD0390286885
:103B700005F024FD03990091A0F5FA600190049BE3
:103B8000224651464846FEF7D5F90020FEF7D4FB01
:103B9000CBF80000FDF7CAFC04222049174808F0C2
:103BA00093FB164808F0A6FB0020FEF7C5FB05F0C6
:103BB000E9FC0146114808F007FCFEF7EDFEFDF7B1
:103BC00023FE0E4806F0A2FB022007F037F908207A
:103BD00007F020F901288146A9D0059C082007F0AC
:103BE00019F90028FAD0022007F028F9DFF83C8004
:103BF00004946BE098FAFF1F7453010014530020E3
:103C0000705301008051010040550020985301007D
:103C100078550020A0530100C4540020A85301008F
:103C2000F05300207C550020DC530020A40A002023
:103C3000306805F07DFC17220021C8F80000FDF770
:103C400013FCD8F800309842074622D0286805F0C7
:103C50007DFC8146286805F087FC8246286805F0CF
:103C600091FC0446286805F09BFC0390286805F049
:103C7000A5FC039A0092A0F5FA60019023465246F3
:103C800049463846FEF756F90020FEF755FBCBF8BB
:103C90000000FDF74BFC05229B499C4808F014FBF3
:103CA0009A4808F027FB0020FEF746FB05F040FC91
:103CB0000146964808F088FBFEF76EFEFDF7A4FD6E
:103CC000924806F023FB022007F0B8F8082007F01E
:103CD000A1F80128ACD0049C082007F09BF800282C
:103CE000FAD0022007F0AAF8894FDFF84482059441
:103CF0004EE0306805F02AFC3B2200213860FDF7D9
:103D0000B3FB3B68C8F80000984224D0286805F04F
:103D10000FFC81462868D8F800A005F025FC044671
:103D2000286805F02FFC0490286805F039FC039002
:103D3000286805F043FC03990091A0F5FA60019012
:103D4000049B224651464846FEF7F4F80020FEF751
:103D5000F3FACBF80000FDF7E9FB07226D496B4849
:103D600008F0B2FA694808F0C5FA0020FEF7E4FA54
:103D700005F0ECFB0146654808F026FBFEF70CFE5B
:103D8000FDF742FD614806F0C1FA022007F056F83F
:103D9000082007F03FF80128ABD0059C082007F069
:103DA00039F80028FAD0022007F048F85A4FDFF817
:103DB000848105944EE0306805F0D6FB3B2200215B
:103DC0003860FDF751FB3B68C8F80000984224D0EA
:103DD000286805F0ADFB8146286805F0B7FB8246F0
:103DE0002868D8F8004005F0CDFB0490286805F05D
:103DF000D7FB0390286805F0E1FB03990091A0F53B
:103E0000FA600190049B224651464846FEF792F81C
:103E10000020FEF791FACBF80000FDF787FB0722A0
:103E20003E493A4808F050FA384808F063FA002052
:103E3000FEF782FA05F098FB0146344808F0C4FA10
:103E4000FEF7AAFDFDF7E0FC304806F05FFA02201D
:103E500006F0F4FF082006F0DDFF0128ABD0059C3A
:103E6000082006F0D7FF0028FAD02D4B00221A6058
:103E7000C2E0DFF8C4802FE02A4B1868FDF7F4FA9F
:103E8000284B1860FCF758FFFDF750FB0522264928
:103E90001E4808F019FA234B1C48196808F094FAD8
:103EA0001A4808F027FAD8F8000008F0E3FE009757
:103EB0000B460246154808F08FFA3A461B4913484C
:103EC00008F002FAFEF768FDFDF79EFC0F4806F0C9
:103ED0001DFA384606F0B2FF082006F09BFF0128C5
:103EE0004FF002074FF00F024FF00001C4D008203E
:103EF00006F090FF00287FF44EAC082006F08AFF01
:103F00000028F4D047E400BFB05301001453002050
:103F1000F4530020B853010048550020C05301005D
:103F20008853002000FAFF1F90530100BC5101008C
:103F3000CC5400204C530020B85400207A4CFDF79C
:103F4000F5FAFDF7D5FB0D21784807F02FFE216823
:103F5000774808F039FA764808F0CCF90821754816
:103F600007F024FE744B186808F084FE022702460E
:103F70000B4600976E4808F02FFA6D4808F0BAF922
:103F800008216E4807F012FE23686D4A684852F80F
:103F9000231000230A2208F0D7F9654808F0AAF98F
:103FA0001321684807F002FE2268674B604853F807
:103FB000221000230A2208F0C7F95D4808F09AF998
:103FC0000A226249624808F07FF9614808F092F9D4
:103FD00001215F4805F070FD13225E495C4808F03E
:103FE00073F95B4806F092F90120FEF7A5F94FF44A
:103FF000FA6006F023FF0124574F3B78002B3FF473
:1040000027ABFDF775FB4FF0000300203B70FEF778
:1040100093F9CBF80000FFF71BBB11B0BDE8F08FA0
:10402000474BC83D1D60FFF745BAD4F87C04002813
:1040300073D002F03BFF0546FFF7FBB93C23474A2C
:10404000194604201360FDF73BFB454B1A78172AED
:104050007FF671AA0022114608201A7006F00AFDA8
:10406000404B1A783B2A7FF66BAA002211460920A2
:104070001A7006F0FFFC3C4B1A78172A7FF665AAE7
:10408000002211460A201A7006F0F4FC374B1A7809
:104090003B2A7FF65FAA002211460B201A7006F019
:1040A000E9FCFFF757BA3C23314A19460020136058
:1040B000FDF706FBFFF734BA2E4A00231380118860
:1040C000122089B2FDF7FCFAFFF76FBA04232A4ADF
:1040D00019460F20136006F0CDFCFFF754BA0123F8
:1040E000264A19460E20137006F0C4FCFFF746BAA4
:1040F0000423234A19460D20136006F0BBFCFFF78A
:1041000038BAD2F87C345BB193F83D340120984042
:1041100009F002FA0146FFF7A8B90546FFF789B989
:104120000021FFF7A2B900BF845500200C53010005
:10413000240000201C5301002455002028530100B6
:1041400058530020345301002C55002048530100DF
:104150001453002054530100604F002098FAFF1FB1
:10416000AC0A00208055002028540020684F002011
:1041700090FAFF1FAE0A002000FAFF1F8CFAFF1F03
:1041800080FAFF1FCE4ACF4B1168CF482DE9F04F80
:1041900019605768CD4ECE495F600468CD4ACE4D58
:1041A000DFF89CE30A27142337608FB00B6040F2DE
:1041B000EE27137843B12B78DB0705D50368DEF8CB
:1041C00000105B1A0E2B08D8036811781B1B0029FE
:1041D00000F0ED81B3F5FA6FEBD94FF4FA7006F009
:1041E0002DFEDFF86083BD4CBD4FDFF85C930121ED
:1041F000112006F01DFE00250121112006F004FE0D
:10420000C8F80050642006F019FE4FF43053C8F887
:104210000030642006F012FE4FF43453C8F800302A
:10422000642006F00BFE2168AE48DFF820832B46A1
:104230000A2208F089F8AB4808F05CF84FF47A706D
:1042400006F0FCFD2168A7482B460A2208F07CF8FE
:10425000A44808F04FF84FF47A7006F0EFFD2B46B3
:104260000A2221689F48A04C08F06EF89D4808F08B
:1042700041F89E4800F038FE2946152006F0D8FD8A
:10428000022006F0F3FA0121022006F0D1FD0121FF
:10429000022006F0B9FD0121142006F0C9FD01211C
:1042A000062006F0C5FD2946142006F0ADFD0121CB
:1042B000062006F0A9FD0221042006F0B9FD022126
:1042C000032006F0B5FD0221082006F0B1FD012310
:1042D0003C220221864805F00FFF8C2006F0AEFD3F
:1042E000FDF724F90A228349814807F0EDFF804851
:1042F00008F000F87E4806F009F86E217E4807F0C5
:1043000059FD3B6859F8230009F00AF9C8F8000084
:104310000120FEF711F8794B2060984240F34B8161
:104320000120FEF709F820603868DFF824A2FDF7C5
:1043300039FFFEF7D1FF3D6859F8250009F0F0F884
:10434000C8F800002846FDF72DFFFDF7EFF8DAF872
:1043500000306B4D3B2B06D9B3F5967F34BF3C2321
:104360004FF496732B600120FDF7E6FF654B29683B
:104370001A88DFF8E091644DB3F800E0206090FB0C
:10438000F1F392B201FB0311D9F80000DFF858B144
:1043900005FB02135D495E4D18441FFA8EF208605A
:1043A0002B60002A40F0128100211220FDF788F9CD
:1043B000D9F80000574E584FDFF89CB109F0ACF81F
:1043C000D8F8001009F000F94FF06E5109F0FCF830
:1043D0004FF0745109F0F8F808F04CFC08F0D0F9EF
:1043E00000224E4B08F09AFC08F048FF4C4ADAF8DD
:1043F000003011684B4AC1EB03084B4B126828EAA6
:10440000E87883FB081302FB00F243444FEAE870AC
:104410003260C0EBE32008F01BFC08F039FA08F02A
:104420002DFF424E424B386006FB008683FB06237D
:104430003344F017C0EB631008F00AFC08F028FAC8
:1044400008F01CFFDFF81481A0EB0012034606EB16
:10445000820610213748CBF80030C8F8006007F01A
:10446000A5FB39681F4807F0AFFFDBF800101D48B7
:1044700007F0AAFFD8F800101A4807F0A5FF19485E
:1044800007F038FF08212C4807F090FBD9F80010FE
:10449000144800230A2207F057FF124807F02AFFAA
:1044A0000821264807F082FB0A220023DAF80010D0
:1044B0000C4807F049FF0B4807F01CFF0E214FE0A6
:1044C000588004407C530020DC560020E05300203C
:1044D0008C530020C0570020D857002000D0034044
:1044E00080FAFF1F240000205C4F0020645600204B
:1044F00014530020E05301000082FF1FCB7E0F64A5
:1045000084FAFF1FAE0A002080510100845300206E
:10451000644F002054530020C0540020000040404D
:1045200004FAFF1F0CFAFF1FC5B3A291F0F1FFFFC1
:10453000898888886C5201001454010020540100BD
:104540008858002010D003403CFAFF1F88FAFF1F54
:1045500098FAFF1F90FAFF1F2454002020550020D6
:104560007F4807F023FB2068FCF7F6FF0C217D480D
:1045700007F01CFB2868FCF7EFFF2B6824687A48DB
:104580001C1B152107F012FB2146784807F01CFF81
:10459000764807F0AFFE7649764B00204FF0FF32A9
:1045A00008601A600FB0BDE8F04FFCF77DBDBB425C
:1045B0007FF6FFAD11E60C2218238DE80C0029468A
:1045C00001232A461020FDF7B5FCA9E600210220B0
:1045D00006F01AFC0021142006F016FC2A68DBF80D
:1045E00000306148D31A1521039307F0DFFA0399CD
:1045F0005E4807F0E9FE5D4807F07CFE4FF01E0BB9
:10460000FCF794FF05225C495C4807F05DFE5B48BF
:1046100007F070FE0120FDF78FFE01212060574852
:1046200005F04AFA05225649544807F04DFE534812
:1046300007F060FE1A212868FEF7BAFB37212068D0
:10464000FEF7B6FB4D4805F061FE4FF47A7006F0B8
:10465000F5FBBBF1010BD3D1039B3C2B28DDAE2135
:10466000464805F0E1FC0121112006F0CDFB0022B7
:1046700011461423434804F047FE0A2006F0DEFBEF
:104680000021112006F0C0FB3F4804F013FC01217B
:10469000062006F0B9FB0120FDF74EFE0021206048
:1046A000062006F0B1FB2B6822689B1A3C2BD6DC57
:1046B0000121022006F0A8FB0121142006F0A4FB32
:1046C0000121062006F0A0FB4FF47A7006F0B6FB3D
:1046D00007212E48DFF8B8B001F090F80E212B48E2
:1046E00001F018F90C21294801F0D0F896F800C023
:1046F000DFF8A0E08DF814C000268DF8156007964D
:10470000CDF818E005AB93E8070008AB83E8070095
:104710008DF821600A968DF820C0CDF824E093E84A
:1047200007000BAB83E807000D9A00920BF591662A
:104730000CCB30460BF29C4104F05AF89BF89534B0
:10474000CBF884641BB13868FDF72CFD2CE63146AC
:10475000584603F031FF3868FDF724FD24E600BF1A
:104760001C5201002C540100EC53010024000020D5
:10477000A80A0020445500200454010014530020CE
:104780000C5401009C53002090540020F0FAFF1FAD
:10479000B84A002080F0FA020020704700207047DD
:1047A00038B5242908BFC2800C46017A0E48154648
:1047B00000F046FCC4F307210B4800F0EFFAE1B229
:1047C000094800F0EBFAC5F30721074800F0E6FAC4
:1047D000E9B2054800F0E2FA034800F0F3FDB0FA50
:1047E00080F0400938BD00BF6456002038B501256F
:1047F00004460571334800F077FB052006F01EFBE8
:10480000204644F260023021FFF7CAFF20466C22A6
:104810002621FFF7C5FF20464FF4F9722821FFF744
:10482000BFFF204640F622722C21FFF7B9FF204639
:1048300044F246423C21FFF7B3FF204640F23712D4
:104840002421FFF7ADFF204644F2FF023021FFF79D
:10485000A7FF732202212046FFF7A2FF4FF4C87082
:1048600006F0ECFA204641F61D522E21FFF798FF84
:10487000042211462046FFF793FF20464FF498721A
:104880000621FFF78DFF204610220A21FFF788FF3F
:10489000204600220E21FFF783FF204643F63C42CC
:1048A0001021FFF77DFF204647F67F722221FFF798
:1048B00077FF204636222421FFF772FF65722846D3
:1048C00038BD00BF6456002038B50546F1B18029D7
:1048D00003799ABFC1F1800444EA0424002433B967
:1048E000224628462221BDE83840FFF759BFC2883A
:1048F000002322F0100203712421FFF751FF22460A
:1049000028462221BDE83840FFF74ABF0123037142
:1049100047F67F722221FFF743FFEA8842F0100238
:10492000284692B22421BDE83840FFF739BF00BFC6
:104930000B4610B507490446184608F045FE0649DF
:1049400008F03AFD09F02CF801462046BDE8104079
:10495000FFF7BABF00000143EE7CFF3E10B50446EE
:1049600019B1012911D0002010BD55222021FFF7D7
:1049700017FF0028F7D0E28842F00402204692B2E6
:104980002421BDE81040FFF70BBF40F273122A212B
:10499000FFF706FF0028E6D0882220212046FFF7F7
:1049A000FFFE0028DFD0E288204622F00402242106
:1049B000BDE81040FFF7F4BE10B5044607F0FEFB5B
:1049C000204610BD024A0349034807F0E9BF00BF73
:1049D000FCF9FF1FB9490000BC5500201B4A1C4BC5
:1049E00011681C48096970B499421279027009D2A1
:1049F000194A127832B3194A4FF08041116003F519
:104A0000807402E01C46A3F58073154A15491268AC
:104A10000D68AAB1A5B1144E3088402810D84100C5
:104A20000A444030294402320231308033F9040B09
:104A300022F8020F9C4233F9020C21F8020FF5D83C
:104A400070BC704703F58074DFE700BFCC550020D1
:104A5000B8F2FF1F1F800040C655002008E200E0AA
:104A6000D4550020C8550020C4550020F8B506468E
:104A700007F0D0F90446E8B107F0CCF90546002864
:104A80003AD072B61F4B1A887F2A19D8002C31D021
:104A90001D490A6842B162B6204607F00FFA28465F
:104AA000BDE8F84007F00ABA18480C601A800560A3
:104AB00062B6F8BD054672B6124B1A887F2AE5D950
:104AC000114A12491768146000220C681A800D60A0
:104AD00062B63946304607F01BFA384607F0EEF961
:104AE00030462146012207F013FA2046BDE8F8407F
:104AF00007F0E4B962B6F8BD204607F0DFF92C46AE
:104B0000BFE700BFC4550020D4550020C855002081
:104B1000F8B5284C284E2046012107F0EBFA00F0AA
:104B200083F8264B264A27484FF480611960236892
:104B300000211A6099802279186102F1804202F501
:104B4000043240F20110D8809E614FF4807502203B
:104B500006278E26DD82D960DD8398609F83988248
:104B60001170167007F06CFA1749184B2279184F1C
:104B700008701A7039682279164C174D174E41F09B
:104B8000124141F00101531139609B00206803F18B
:104B9000604302F1100703F5614302F01F02012197
:104BA00040F0104001FA02F2206045F827601A60D8
:104BB000F8BD00BFCC55002000FEFFFF14B004403C
:104BC000A0F00240B8F1FF1FC65500201B80004036
:104BD00080F0024000F0024000F4FF1FDD490000B9
:104BE000024A0349034807F0DBBE00BFFCF9FF1F80
:104BF000B9490000CC550020024A0349034807F098
:104C0000CFBE00BFFCF9FF1FB9490000D8550020F6
:104C1000024A0349034807F0C3BE00BFFCF9FF1F67
:104C2000B9490000E0550020284B29491A68294855
:104C300042F400421A600A6842F002020A601A68EE
:104C400042F002021A600368002B3DDB224B1B6816
:104C5000002B39DB214A4FF0864313601368002B89
:104C6000FCDBF0B51E4C1F48DFF8ACE01E491F4BC3
:104C70001F4A204F204E214D41F2100CC4F800C0B5
:104C8000002404600120CEF80000DFF890E0C1F8B5
:104C900000E04FF480311960194B1360DFF880E0B9
:104CA000184A3A60346028601748CEF80000174C64
:104CB000B9671748174946F8503C4FF4C0632A615A
:104CC000236003600B60F0BD704700BF3C80044070
:104CD0004080044000F0024080F0024000F10240B9
:104CE00004F1024060F0024008F002400CF0024083
:104CF00010F0024014F00240E0F0024084F0024064
:104D00001B0F0100000F0F0F0300004708B0044005
:104D10000CB0044018B0044004F002400300000747
:104D200088F00240024A0349034807F039BE00BF39
:104D3000FCF9FF1FB9490000E8550020024A034969
:104D4000034807F02DBE00BFFCF9FF1FB949000062
:104D5000F0550020024A0349034807F021BE00BF76
:104D6000FCF9FF1FB9490000F8550020024A034929
:104D7000034807F015BE00BFFCF9FF1FB94900004A
:104D800000560020024A0349034807F009BE00BF4D
:104D9000FCF9FF1FB9490000085600200A4B1B7898
:104DA00013B90A4B1B786BB1094A1378202B07D82B
:104DB00010B4581C074C1070E154012010BC70470F
:104DC00001230371002070477656002039560020D9
:104DD0007756002018560020704700BF024A034B48
:104DE00010781B78C01A7047755600207456002042
:104DF000064A074913780978994204D90548591C8D
:104E0000C05C117070474FF0FF307047745600203F
:104E1000755600203C560020054B064A1B78127838
:104E20009A4286BF044AD05C4FF0FF30704700BF03
:104E300074560020755600203C56002070B50D4B6E
:104E40001B78144613B90C4B1B788BB10B4E35787D
:104E5000C5F12103A34202D201221C460271084877
:104E600022462844254405F01BFB3570204670BDC2
:104E7000184670BD7656002039560020775600201F
:104E800018560020124BDB7803F020034BB1114A77
:104E900013780133DBB2012B137012D9122005F005
:104EA00055BF10B5122003F0FF0405F04FFF0A4B69
:104EB0001B685BB109490A4A0C701078BDE81040C4
:104EC0001847084B1B78002BE8D0704710BD00BF77
:104ED00000600640605600201456002074560020E2
:104EE00075560020395600200D4A0E4BF0B50020B3
:104EF0000D4C10702268DFF838E00C4F42F0400291
:104F000022604FF4197127260425202480229870EE
:104F1000CEF8001039605E709D715C719A70F0BDC2
:104F200039560020006006403480044008A0044048
:104F30000CA0044010B5384CE378DBB2D80623D57A
:104F400010225906E2701ED503F0040303F0FF029D
:104F5000002B33D0314B32491A68324C00230B708E
:104F60002370002A3BD090472378002B37D02E4B5C
:104F70001B78294A2D49D02494701371264B0120A7
:104F800002220870DA7010BD5A06DDD4A27802F051
:104F9000100202F0FF0042B313F001031BD12349BA
:104FA00020480A780078904281BF1F4B501C9B5CC0
:104FB00008702371184BD0229A7008E01C48164BD9
:104FC000174902700120C02208709A701B79124B99
:104FD0000222DA7010BDC023A3702379F7E71249CB
:104FE000002301220B702270C3E7124B1249187084
:104FF0000322122005F02EFE0D4923790A781F2A7C
:10500000DBB2E4D8064800780028E0D00B4C501CF6
:10501000A3540870DBE700BF006006405C56002028
:105020001056002077560020185600207856002091
:105030007556002060560020854E00003C5600202A
:105040000548064A10B40123054C0370490013704B
:10505000217010BC704700BF7656002077560020A4
:10506000185600202DE9F047584C1223E370A3781E
:1050700003F0200382B0002B54D0B423DFF860A1EA
:10508000A370DAF80020514C0020E378DBB29342A1
:1050900018BF01209F061A46F7D5002840F08D80E2
:1050A0004B4B1B78002B34D003F1FF3C5FFA8CFC98
:1050B0000027DAF80020DFF82CE1444D0CF1010C58
:1050C0003C464FF002081EF8013F2B715FFA87F94A
:1050D000104601E09E0608D5EB78DBB293421CBF78
:1050E000184601249E071A46F4D585F80380EE7809
:1050F000F6B2B3420EBF024632460124F30633D461
:10510000B30631D5F30744D401376745DBD1002C12
:105110004AD1002000292ED12E4B00221A7002B055
:10512000BDE8F0872C4DDFF8B8A003F0FF022B6834
:105130000093009EDAF8000005E02B680193019BC4
:105140009B1B0F2B1BD8E378DBB2834218BF0122D5
:1051500013F0200F1846F0D192BB20481B4B0024BF
:10516000B02204709A708CE70CBB184B80229A70A6
:1051700004200029D0D0154B80229A70CCE7CAB900
:10518000124B00218022042099709A7002B0BDE871
:10519000F087C4B90D4BB9F1000F4FF080020CBF7E
:1051A000022003209A70B7E7CAF80020B1E7CAF8D6
:1051B0000020DAE7CAF80000E2E7CAF800306FE73B
:1051C000CAF80030C9E7CAF80020E3E700600640EB
:1051D0007756002076560020DC56002039560020F5
:1051E000ECFAFF1F175600202DE9F04F624E634D79
:1051F000DFF8989100201224287089F80000F470DC
:10520000B07800F02000002855D0B420DFF880A14D
:10521000B070490041F00101574EC9B23171DAF85E
:10522000000000240546F178C9B281421CBF0D463A
:1052300001248F070846F6D5002C40F091804E4897
:105240000224C470C078C0B2884218BFCAF80000F7
:1052500010F0110076D1002A44D0012A78D0464DB2
:10526000474FA021A97002F1FF3BA2F1020E29795C
:10527000DAF8004006465FFA8BFC5FFA8EFE4FF0CC
:105280000208E978C9B2A14218BF01200C46A10763
:10529000F7D5711CB64585F80380CEB22AD029799E
:1052A00007F8011F6645ECD108B1CAF80040354E39
:1052B000E34610462AE0DFF8D8A0DAF8004000F014
:1052C000FF05F078C0B2A04218BF01250446A00631
:1052D000F7D4002D47D12C4C274800252570B02449
:1052E000847096E7002B244B0CBFA02280229A707A
:1052F000BDE8F08F002839D11F49224EA8208870C0
:10530000097906F80E105FFA8BFB1046DAF80040B8
:10531000194F0025F978C9B28C4218BF01250C46F7
:10532000A107F7D52DBB1449B0240225CD708C7090
:105330000C7906F80B400BB180238B7089F80020A4
:10534000BDE8F08F0C4B80229A700020BDE8F08FF2
:1053500009490C4EA8248C70834609791046D5E77C
:10536000CAF800506BE7CAF80040B4E7CAF800403A
:10537000C2E7CAF80040D6E7006006407456002035
:105380003B5600203C560020395600207556002020
:10539000ECFAFF1FDBB2D2B2C9B2FFF725BF00BFE4
:1053A0000548064A10B40123054C037049001370E8
:1053B000217010BC704700BF765600207756002041
:1053C000185600200121FFF74DBE00BF044B054ACF
:1053D0001A604FF47A71002299601A711A7370473B
:1053E00064560020D455010010B4047F4160022CA3
:1053F000C26002D010BC06F0FBBE836810BC184728
:105400002DE9F0410468E56815F0807F794D25604D
:1054100052D1DF0740F1B380002900F0E3800D781E
:10542000012B18BF45F000456563013190F82480D9
:1054300003F1FF3C48EA0828BCF1000F00F0A88007
:1054400021B14D7811F8028B45EA082845682E7A7B
:10545000BCF1020F06F1FF364FEA06360CBF48F0EA
:10546000805548F01045B6B26563ACF1020C08E017
:105470000AB114700132013B05F47045B54216D9EA
:105480000468E56A15F0F00FF6D0A46B13F0010F75
:1054900017464FEA242EEBD11AB107F802EB5470ED
:1054A0003A4605F47045B542A3F10203E8D8BCF1D1
:1054B000000F6DD00468C3E7DD074CD5002900F06C
:1054C00089800D78012B18BF45F0004565630131D7
:1054D00003F1FF3E90F824C0BEF1000F41D029B186
:1054E00091F801C00D78023145EA0C2C45682E7AFE
:1054F000BEF1020F06F1FF364FEA06360CBF4CF044
:1055000080554CF01045B6B26563AEF1020E08E06E
:105510000AB114700132013B05F47045B54215D94A
:105520000468E56A15F0F00FF6D013F0010F174686
:10553000A46BEDD122B107F8024B241254703A4605
:1055400005F47045B542A3F10203E9D8BEF1000F9E
:1055500007D00468C3E79E4690F824C0BEF1000F50
:10556000BDD11BB30468E16A11F0F00FFBD0A16B51
:10557000DC071DD50AB111700132013BF1E790F84B
:1055800024809C4648EA0828BCF1000F7FF458AFFD
:1055900063B10468E16A11F0F00FFBD0DE07A16B84
:1055A0000FD50AB111700132013BF1E7BDE8F0817E
:1055B0002AB114460D1204F8021B55702246023B14
:1055C000CFE72AB114460D1204F8025B517022464F
:1055D000023BDDE790F82450012B18BF45F0004551
:1055E000656375E790F82450012B18BF45F000451E
:1055F00065631BE700041F80F0B4464B464A186BF6
:10560000DC6A01791170454922790A709A6A007939
:105610000870002A46D05968C9688A423ED8216875
:10562000CC8B240402F1FF3065D4C0F30E00C88394
:10563000C88B80B2C882196B0968C88B000452D429
:10564000C2F30E00C883C88B002480B212F1FF326F
:10565000C88218BF01229C62D96A2E4809680D6869
:1056600000F12404A54236D00068C46814F0804FCD
:105670000C680D6815BF248824780235013544F084
:1056800000440D604463196B254B09791970214959
:1056900012B1CA6A12791A70F0BC7047521A9A6233
:1056A0000122D9E7586B196805681E4C0A63CC6261
:1056B000CC682D681C4E24F080440327B542CC6092
:1056C00083F825701FD1037F4260022BC2601ED079
:1056D000F0BC06F08DBD016890F82400CC6840F065
:1056E00000404863CFE7CC8BC2F3080004F47E444B
:1056F0002043C883A7E7CC8BC0F3080004F47E44A2
:105700002043C88394E72B461146F0BC18478368B2
:10571000F0BC1847F0FAFF1F1F8000401C800040BB
:105720001B80004000000FFFE953000090E80C00D0
:10573000F0B41C6859682568164F174E294321603C
:10574000164D17491760D66015611160417A154AE8
:105750005C180A3194F8244053F8215002EBC4013C
:1057600049680D60017A5C1803EB8101247ECD69E4
:1057700002EBC40149680D60817A581803EB81037C
:1057800090F83000596B02EBC002F0BC536819600E
:10579000704700BF01401F00011000380110007861
:1057A00000001F80DC5C01004268036805CA10B479
:1057B000046822430260D868840100F0E06205D5E5
:1057C000080900F4706021F470410143D868114366
:1057D000814209D01A68500408D40748186041F083
:1057E0008040D96018611A6010BC704741F0804257
:1057F000D96010BC1A61704701401F00204A4368FD
:105800009A42F0B40FD0427A1A4492F8242091427E
:1058100007D093F824408C4215D093F825408C4251
:105820002AD0F0BC70470B2907D00729EBD1154CC3
:10583000227842F001022270E5E7124C227822F031
:1058400001022270DFE7002421461E685D68366889
:105850002E420FD00C4D05EBC202002756685A1895
:10586000376092F8242005EBC2050A316A6853F8C4
:10587000213013604472D4E701242146E5E700BFDC
:105880007C56010021580020DC5C01001E4A436860
:105890009A42F0B40CD0027A1A44127E914205D09A
:1058A0001C7E8C4214D05C7E8C422AD0F0BC7047A7
:1058B0000C2907D00829EED1144C227842F00202BC
:1058C0002270E8E7114C227822F002022270E2E70F
:1058D000002421461E685D6836682E420FD00C4DAC
:1058E00005EBC202002756685A183760127E06314F
:1058F00005EBC20503EB81036A685B681360047201
:10590000D4E701242146E5E77C5601002158002018
:10591000DC5C0100204A43689A42F0B40FD0827ADE
:105920001A4492F83020914207D093F830408C42CC
:1059300015D093F831408C422BD0F0BC70470D2924
:1059400007D00E29EBD1154C227842F004022270C8
:10595000E5E7124C227822F004022270DFE70024EF
:1059600021461E685D6836682E4210D00C4D05EB4E
:10597000C202002756685A18376092F830200C315E
:1059800005EBC20503EB81036A685B6813608472F0
:10599000D3E701242146E4E77C560100215800208A
:1059A000DC5C01000BB1FFF72BBD704710B504465E
:1059B00000F03CFD002384F8313084F8333010BD12
:1059C00090F831200AB10020704738B504460D46E2
:1059D0001146382208F0E2FD4023012084F83130DE
:1059E00084F83300256238BDF0B50878202803D14B
:1059F00011F8010F2028FBD051600878002851D001
:105A00002F282BD05C2820D0A0F12204E4B21D2C3A
:105A10001DD9DFF894E04E1C00247C28A0F120055D
:105A2000374612D05E2D10D816F8010BA0F12205D2
:105A3000EDB2013478B32F2811D05C282EFA05F787
:105A400003D01D2DE9D8FD07E7D50020F0BD164D88
:105A500025FA04F4E607DCD50020F0BD00240F1978
:105A60003E4625462F2002E016F8010F013520287A
:105A7000FAD02F28F8D02944196044B1394611F8DA
:105A8000013D2E2B01D0202B08D1013CF7D120461F
:105A900010600120F0BD1F600F19EFE7FF2CF6DD4D
:105AA0000020F0BD1960F3E7010100352DE9F04752
:105AB00090F83330DD0782B0044640F1AD805806DF
:105AC0000D46164640F1B380D4E90001D4E9042321
:105AD00010EB060841F100094B4508BF4245C0F0F4
