:1000000000800020BD0100008DD4000045D4000018
:1000100045D4000045D4000045D4000045D400007C
:1000200045D4000045D4000045D400008DD4000024
:100030008DD4000045D4000085F00000D5F200000A
:100040008DD400008DD400008DD400008DD400002C
:100050008DD400008DD400008DD400008DD400001C
:100060008DD400008DD400008DD400008DD400000C
:100070008DD400008DD400008DD400008DD40000FC
:100080008DD400008DD400008DD400008DD40000EC
:100090008DD400008DD400008DD400008DD40000DC
:1000A000754A00008DD400008DD400008DD400006E
:1000B0008DD400008DD400008DD400008DD40000BC
:1000C0008DD400008DD400008DD400008DD40000AC
:1000D0008DD400008DD400008DD400008DD400009C
:1000E0008DD400008DD400008DD400008DD400008C
:1000F0008DD40000D1F700008DD40000FDF8000081
:100100008DD4000029FA00008DD400008DD40000A9
:100110008DD400008DD400008DD400008DD400005B
:100120008DD400008DD400008DD400008DD400004B
:100130008DD400008DD400008DD400008DD400003B
:100140008DD400008DD400008DD400008DD400002B
:100150008DD400008DD400008DD400008DD400001B
:100160008DD40000E5DB00008DD400008DD40000AC
:100170008DD400008DD400008DD400008DD40000FB
:100180008DD400008DD400008DD400008DD40000EB
:100190008DD400008DD400008DD400008DD40000DB
:1001A0008DD400008DD400008DD400008DD40000CB
:1001B0008DD400008DD4000011EE0000564B4CF29F
:1001C000205210B51A804DF628121A8000BF00BFC9
:1001D00000F0BAFB514B4FF010621A60504A9A601F
:1001E000504ADA60504A136813F4807304D14F49BF
:1001F0000B604FF4A85313604D4B1A78110703D5C9
:100200001A7842F008021A704A4B4B492A221A7097
:100210004A4A4B4B8B4204D252F8040F43F8040B6A
:10022000F8E7484B484900228B4202D243F8042B9E
:10023000FAE74649464A002352F8230041F82300D2
:1002400001336F2BF8D1434B434A802103F8011B44
:100250009342FBD1414B3D4A1A60414B8A221A70AE
:10026000A3F5805324225A70A0221A709A7992071B
:10027000FCD59A79D406FCD43A4A937903F00C035E
:10028000082B384BF9D103221A7140225A719A79FE
:100290009006FCD5334A9179324B4906FBD5324A58
:1002A000324911600221516020221A709A7902F0BD
:1002B0000C020C2AFAD12E4B2E4A1A602E4B4BF60A
:1002C0007F321A6000225A60072243F8042C2B4A1E
:1002D000C3F80C2D62B60DF0FBF9144B1B68DA075E
:1002E00005D527480DF0E2F9264B274A1A60274B1F
:1002F0001B785B0609D5234C234B22689A4204D114
:100300001F480DF0D3F90023236010F0EBFE0DF031
:10031000C1F80FF0BBF9FEE70E2005403080044025
:10032000823F04000100002B10D0034014D0034092
:1003300002D0074000E00740C8FFFF1F18930100EC
:1003400020EFFF1FC8FFFF1F201F002000EAFF1F34
:100350000000000000E400E05FE400E008ED00E0E1
:100360000050064000400640448004400000131145
:1003700004800440C010050014E000E000002020CC
:100380002867FC5A1CE00340A5C3945A00F00740BC
:10039000FFFFFFFFFFFFFFFFFFFFFFFFFFFFFFFF6D
:1003A000FFFFFFFFFFFFFFFFFFFFFFFFFFFFFFFF5D
:1003B000FFFFFFFFFFFFFFFFFFFFFFFFFFFFFFFF4D
:1003C000FFFFFFFFFFFFFFFFFFFFFFFFFFFFFFFF3D
:1003D000FFFFFFFFFFFFFFFFFFFFFFFFFFFFFFFF2D
:1003E000FFFFFFFFFFFFFFFFFFFFFFFFFFFFFFFF1D
:1003F000FFFFFFFFFFFFFFFFFFFFFFFFFFFFFFFF0D
:10040000FFFFFFFFFFFFFFFFFFFFFFFFDEF9FFFF23
:1004100010B5054C237833B9044B13B10448AFF33E
:1004200000800123237010BDC8FFFF1F00000000E3
:1004300014930100084B10B51BB108490848AFF3ED
:1004400000800848036803B910BD074B002BFBD0A0
:10045000BDE81040184700BF00000000CCFFFF1FA0
:1004600014930100C8FFFF1F000000000020704728
:10047000704700BFF8B55548554D564C297803785C
:100480002278DFF868E1544F544E120442EA032305
:10049000FF222A700270802022708EF800003870CF
:1004A000B2794F480B4312F00C0FC36002D1B379FD
:1004B000DC063DD4494A9379C3F38103032B40D032
:1004C000464B9A79C2F38102022A42D0434A937979
:1004D000C3F38103022B53D0404A9379C3F38103C2
:1004E000022B61D03D4A9379C3F38103012B51D094
:1004F0003A4A9379C3F38103012B5CD0374B9A7945
:1005000012F00C0F03D19A79D20600D49B79354DA5
:10051000354B2A7853F82240D4B1236820469B6893
:1005200098472B7804EB83046468002CF5D1F8BD60
:10053000B3799806EBD5294A9379C3F38103032B4A
:10054000BED19379D906BBD493799B06DFD4B7E7A4
:10055000F8BD9A79D706B9D49A799606B6D559785E
:1005600001F0020101F0FF020029AFD120211A7031
:100570001A461970937903F00C030C2BFAD1C6E7D5
:100580009379DD06A8D493799C06A5D4537898076F
:10059000BDD5A1E79379DF06AAD593799E06A7D4A6
:1005A00053789D07B3D4A3E79379D9069AD45378A7
:1005B0009B07ACD496E79379DC069FD59379980690
:1005C0009CD453789907A2D598E700BF06C007408E
:1005D00005C0074007C0074009C00740004006406B
:1005E000F81E0020641900202419002008C00740CC
:1005F00090F92410104B03604B1C06D0F0B40F4E42
:1006000056F82130984201D0F0BC70470C4F57F893
:10061000213033B18D0000245A1953685460002BE7
:10062000FAD1084C23780022013B237047F821209F
:1006300046F82120E8E700BF40830100441900206C
:10064000241900206519002038B590F924506B1C3E
:100650001BD00E4B0E4953F825400E4BEDB24FF018
:10066000FF320D701A6084B1AD0002E02C44646862
:100670005CB194F82530002BF8D0236820462C4438
:100680001B6898476468002CF3D138BD24190020FA
:100690006419002090E9FF1F704700BF90F92410F3
:1006A000104B03604B1C06D0F0B40F4E56F82130AF
:1006B000984201D0F0BC70470C4F57F8213033B14D
:1006C0008D0000245A1953685460002BFAD1084C4D
:1006D00023780022013B237047F8212046F821208F
:1006E000E8E700BF408301004419002024190020DE
:1006F0006519002090F92410104B03604B1C06D0A4
:10070000F0B40F4E56F82130984201D0F0BC70473B
:100710000C4F57F8213033B18D0000245A1953681B
:100720005460002BFAD1084C23780022013B23703F
:1007300047F8212046F82120E8E700BF4083010068
:10074000441900202419002065190020704700BFBB
:1007500010B5002104460EF0D3FA98B194F88A310E
:10076000B3B194F8883194F889210133592BC8BF6B
:100770000023934207D09A1D04EB8202DBB2506043
:1007800084F8883110BDD4F88C310133C4F88C3131
:10079000BDE810400EF070BA10B5034B036004467C
:1007A00004F0D4FD204610BD1C8301002DE9F0416A
:1007B0000E4680460CF074FF234C206009F018FAB6
:1007C0000546206809F0F0F90746206809F0DAF9D3
:1007D000A5F2BC739BB27F2B02D8FAB20C2A28D99F
:1007E0000023A8F80030206809F0F0F907462068D7
:1007F00009F0A4F90546206809F0B2F9FBB2172BFD
:1008000013D8EBB23B2B10D8C3B23B2B0DD8FB0255
:100810006D0103F4FF2305F4FF552B43C0F346009D
:1008200003439BB23380BDE8F08100233380BDE8F1
:10083000F081C0B21F28D3D87F0107F4FF57384397
:1008400040EA43239BB2CCE71C150020836C13B114
:10085000184606F0ABBFC06C08B104F0AFBF4FF054
:10086000FF30704710B504460EF08AFA204610BDDE
:10087000826C62B1137803F0080303F0FF0003B346
:10088000D3695069181A48BF6FF000407047C16CB7
:10089000C1B191F8313003F0080303F0FF0083B1D8
:1008A000D1E90423D1E90001101A30B463EB01014E
:1008B00000256FF000448D4208BF844200D22046DC
:1008C00030BC70470846704700B5836C83B063B195
:1008D000184601220DF1070106F0A0FE01280CD1F7
:1008E0009DF8070003B05DF804FBC06C28B101223D
:1008F0000DF1070104F088FEF0E74FF0FF30F1E75B
:10090000836C13B1184607F025B8C06C08B105F028
:100910002FBB704700B5836C83B08DF8071043B1CF
:10092000184601220DF1070107F06EF803B05DF8DB
:1009300004FBC06C0028F9D001220DF1070105F07D
:1009400043FD03B05DF804FB404A414B102010808A
:100950001B781B072CD5F0B53E4E3F4D3F4C3178F0
:100960002B7822783E4FDFF810E1824042EA0323E1
:100970000B43FF22802132702A7022708EF8001003
:100980003970DF07374A0CD51A239360364D374C40
:100990003748384900232B70D360237003700B70E5
:1009A000F0BD1E0705D4DD0606D504239360EDE7F0
:1009B000704721239360E9E79C0604D4590604D5C7
:1009C00016239360E2E79060E0E71F0602D5092353
:1009D0009360DBE7DE0502D50A239360D6E79D0529
:1009E00002D50D239360D1E75C0502D50B239360FC
:1009F000CCE7180502D51E239360C7E7D90402D5BA
:100A000002239360C2E79F0402D507239360BDE7EA
:100A10005E0402D506239360B8E71D0402D51523B2
:100A20009360B3E7DC0302D524239360AEE7980319
:100A300002D522239360A9E7D90202D5252393602A
:100A4000A4E79B0244BF232393609FE70020054057
:100A500002D0074005C0074006C0074007C0074056
:100A600009C00740F81E002000C0074001C0074031
:100A700002C0074003C0074008C00740002976D0E5
:100A80002DE9F04F0C469100631883B05D68002D8E
:100A900057D06B185E68002E50D073185F68002F17
:100AA00049D07B18D3F80480B8F1000F3CD008EB94
:100AB0000103D3F80490B9F1000F32D009EB010320
:100AC000D3F804A0BAF1000F27D00AEB0103D3F842
:100AD00004B0BBF1000F18D00BEB01035B6863B1EE
:100AE000194401934968FFF7C9FF019B93F825203A
:100AF0001AB11A681846536898479BF8253023B1F5
:100B0000DBF8003058465B6898479AF8253023B1E7
:100B1000DAF8003050465B68984799F82530002B8A
:100B200035D198F8253063BB97F825301BB13B6869
:100B300038465B68984796F82530CBB995F825304C
:100B400063B994F8253013B903B0BDE8F08F23687A
:100B50005B68204603B0BDE8F04F18472B68284675
:100B60005B68984794F82530002BEDD0EFE770478D
:100B7000336830465B68984795F82530002BE0D005
:100B8000ECE7D8F8003040465B689847CCE7D9F8E6
:100B9000003048465B689847C3E700BF90F92420BF
:100BA000531C26D01B4B2DE9F04153F82240D2B202
:100BB000ECB19300E1184D68B5B1E9184E6866B123
:100BC000F1184F6837B13B445968FFF757FF97F862
:100BD0002530A3B996F8253063B995F825301BB1B7
:100BE0002B6828465B68984794F8253063B9BDE8C0
:100BF000F0817047336830465B689847EDE73B68A3
:100C000038465B689847E5E7236820465B68BDE89F
:100C1000F0411847241900202DE9F843574C94F867
:100C2000883194F88921D9B2D3B2994238BF5A3168
:100C3000CB1A0F2B40F38880514DD4F88491DFF804
:100C40003C8105F580570026B9F1000F35D04FF4EF
:100C50008072314628460CF03BF848460EF00CF8FE
:100C6000C4F8846194F8893194F88821DBB2934206
:100C70004CD00133592B86BF4FF0000E73465FFAFC
:100C800083FE063304EB83034FF48072D3F80490A1
:100C9000C4F8849109F10401284684F889E10CF034
:100CA00017F8B9F1000F04D048460DF0E5FFC8F879
:100CB000846105F50075AF4232D094F8893194F81B
:100CC0008821DBB2934252D00133592B86BF4FF0BB
:100CD000000E73465FFA83FE063304EB83034FF482
:100CE0008072D3F80490C4F8849109F10401284675
:100CF00084F889E10BF0ECFFB9F1000FADD194F865
:100D0000893194F88821DBB29342B2D128464FF45E
:100D10008072002105F500750BF0DAFFAF42CCD1EF
:100D2000184B986C90B14FF48052154906F06CFE48
:100D3000013014D01448154902680B680832083392
:100D400002600B60BDE8F883BDE8F883D86C00282A
:100D5000F0D04FF480520A4905F036FBE8E7012154
:100D600014200CF009FB0A4B0A4A1A60E2E74FF420
:100D70008072002128460BF0ABFF73E7301500208E
:100D80006C000020180000202C150020E417002023
:100D90000CED00E00400FA0508B50849084A094BC3
:100DA000098811800848002283F88A2104F0CEFACD
:100DB0006420BDE808400CF0EDBD00BF101D002010
:100DC000E81C002030150020180000202DE9F04F0D
:100DD0009BB00CF065FCC84DC84C286008F0E4FEE0
:100DE0002368984200F0BD812868C54EDFF84C8327
:100DF000DFF84C9308F0D8FE2060286808F0F8FE71
:100E00002368C0490246C04810F07CFFD6F87874C9
:100E1000C8F80090002F00F04E8106AC07F23C416C
:100E2000204600270123B84A8DF818708DF81970F4
:100E300006F0C8FA152000210CF070FDD6F87804F1
:100E4000AF4B002800F08481AF4907F055FF2868B8
:100E500008F098FE8246286808F0B8FE83462868A5
:100E600008F06CFE0390286808F07AFE039B00935C
:100E700001905B465246A549A54810F043FF002764
:100E80000825C8F8009015200CF05AF90FF0F2FC74
:100E90004FF06A510FF042FD014638460FF036FC24
:100EA000074602200CF076FD013DECD1D6F87854CF
:100EB000934B002D00F0118105F23C48404606F0AE
:100EC000D5F92946404606F089FB4623914A8C49CC
:100ED000204604F00DFB189B002B00F0AF818C48DE
:100EE00010F06EFF8A49024620460EF0FBF9189872
:100EF0002C238DF81430002800F0AC81012205A9C4
:100F000006F082FD844D05F1080815F8011F002345
:100F10000A2220460EF078FAA845F6D118982C231C
:100F20008DF81730002800F0238101220DF1170100
:100F300006F06AFD794B18680FF046F80225024664
:100F40000B46009520460EF09FFA18982C238DF83A
:100F50001630002800F0918101220DF1160106F0F3
:100F600053FD38466E490FF0D9FC4FF078510FF021
:100F7000D5FC05460FF028F8022702460B460097DD
:100F800020460EF081FA18982C238DF81530002891
:100F900000F0698101220DF1150106F035FD61486F
:100FA00010F00EFF5F49024620460EF09BF92046E6
:100FB0000EF004FA28465C490FF04EFE002840F07F
:100FC0006681204604F0C2F9DFF87881CDF81880F8
:100FD000204604F0BBF9D6F87804494B002800F00D
:100FE0002481494907F088FE504F494A4449504DF1
:100FF000DFF854B1DFF854A1C223204604F078FA98
:101000002146384604F054F92046CDF8188004F003
:101010009DF93F4810F0D4FE01463D480DF054FCC8
:1010200044480EF0CBF964200CF0B4FCB94622E041
:1010300007F062FEC223364A3149204604F058FACE
:1010400021463A4804F034F92046CDF8188004F0DF
:101050007DF92F4810F0B4FE01462D480DF034FC08
:1010600034480EF0ABF90A200CF094FC2B68B3F571
:101070007A7F00F3CB80BB6C2F492548002B40F0D2
:101080008180D9F84C20002A7CD12B6801331A4684
:101090002B6010F037FED6F878341B49184A1846F2
:1010A000002BC5D1D2F87C3417491846002BC1D08B
:1010B00005F03AFFBEE7D6F87C1406AC00293FF4F1
:1010C000B9AE01F58861204601230F4A8DF84970B9
:1010D0008DF84A7005F04CF8ACE6D3F87C54002D3E
:1010E0003FF4F3AE05F58868404604F013FA29464C
:1010F000404604F075FAE8E61C150020F0170020C1
:101100007410002064830100C41600207083010065
:1011100078170020888301003B1700204817002023
:10112000CDCCBC4008F0FF1F00004040180000205C
:10113000C01600206CF5FF1FC88301002019002095
:10114000AD0700001C8301000CED00E00400FA056F
:10115000D3F87C0400283FF47AAE664905F0E4FE3B
:1011600075E6DFF8CC81DFF8CC91634E06AC61E622
:10117000199800283FF4DEAE01220DF1170105F0A9
:1011800023F9D7E65D485E4906685E4C5E4D5F4ACE
:10119000039303C9206095E80300A06092E8030070
:1011A00010250122A282E282E060256130460FF024
:1011B000A1FD3146A06130460FF0A8FA0FF09AFD6C
:1011C000DFF874815249D8F80020E06103C9520267
:1011D000039B6584022602F1240126846062A262D8
:1011E0006160D3B1214618462C2206F00DFC09217E
:1011F00048480DF069FBD8F8001047480EF086F813
:1012000045480EF0DBF81BB0BDE8F08F012114203B
:101210000CF0B2F8CBF800A02DE7F86C0028E6D06F
:1012200021462C2205F0D0F8E1E7D3F87C04002811
:101230003FF4DAAE2F4905F077FED5E6199B002B77
:101240007FF44DAE012114200CF096F8334B344A54
:101250001A60B9E6199800283FF454AE012205A996
:1012600005F0B2F84EE6199800283FF498AE012236
:101270000DF1150105F0A8F891E6199800283FF442
:1012800070AE01220DF1160105F09EF869E62822E4
:10129000244920460EF026F820460EF08FF820460E
:1012A00004F054F80027082515200BF049FF0FF033
:1012B000E1FA4FF06A510FF031FB014638460FF06A
:1012C00025FA074602200CF065FB013DECD11649DA
:1012D00038460FF023FB4FF078510FF01FFB1349F6
:1012E0000FF0BAFC00283FF46CAE47F230500CF01F
:1012F00051FBD7E7C416002074100020DC17002033
:10130000D483010030180020DC830100E483010055
:10131000EC830100BC8301006CF5FF1F0CED00E0C5
:101320000400FA0590830100CDCCBC400000404091
:1013300020190020AD070000CC17002038B5144D4F
:10134000FFF744FD134BD5F8840100241C6018B14D
:101350000DF092FCC5F8844195F8894195F88831E3
:10136000E4B29C420DD001345A2C28BF0024A31DA6
:1013700005EB830358680DF07FFC95F88831A34294
:10138000F1D1E4B2012385F8894185F88A3138BD6D
:10139000301500202C15002030B51D4BD3F87844B3
:1013A00095B014B304F23C45284605F05FFF214692
:1013B000284606F013F946236846164A144904F0F5
:1013C00097F8129BFBB12922134968460DF08AFF5A
:1013D00068460DF0F3FF684603F0B8FF0F4B00932B
:1013E000684603F0B3FF15B030BDD3F87C44002C41
:1013F000E1D004F58865284604F08CF8214628469B
:1014000004F0EEF8D7E7139B002BDCD1E6E700BF32
:101410007410002088830100F48301001C83010004
:101420002DE9F0438FB0044610F0CAFC00B2012849
:101430001CDDB4F9003044F25372934200F087810E
:1014400018DD44F65452934200F0D58045F2532201
:1014500093422AD044F65212934207D10BAAE01CC1
:10146000C34910F075FCC34B0B9A1A6001200FB0F2
:10147000BDE8F08344F24E4293420FD044F2524210
:101480009342F3D10BAAE01CB94910F061FCBA4BAE
:101490000B9A1A6001200FB0BDE8F083B74B012210
:1014A00001201A600FB0BDE8F0830AAD09A908AAAF
:1014B00005ABE01C039502910192009307AA06ABCD
:1014C000AF4910F045FCAF4B079D596818689A6802
:1014D0000A9EDDF824E0DDF820C0A5F5FA65ADB27E
:1014E0000BAF2CB207C7069F05991E3415F0030FEA
:1014F0004FEAA408FDB240F03981A34B022D8CBF06
:101500001F460027A148A24BC8EB040400FB08F0CB
:101510006A1E03FB0400002A00EB070347DD9DF869
:101520002C409948012A00FB043340D09DF82D40FF
:10153000022A00FB04333AD09DF82E40032A00FB18
:10154000043334D09DF82F40042A00FB04332ED0FE
:101550009DF83040052A00FB043328D09DF8314027
:10156000062A00FB043322D09DF83240072A00FBF4
:1015700004331CD09DF83340082A00FB043316D0F6
:101580009DF83440092A00FB043310D09DF8354003
:101590000A2A00FB04330AD00B2A9DF8364018BFF4
:1015A0009DF8372000FB043318BF00FB02335FFABD
:1015B0008EF2C2EB02125FFA8CF04FF4616492007B
:1015C00004FB0022704D734C7348C9B2013952FAC2
:1015D00086F205FB01221344122123600DF074F9F9
:1015E00021686E480DF092FE6C480DF0E7FE012078
:1015F0000FB0BDE8F0830AAD09A908AA05ABE01C4D
:10160000039502910192009307AA06AB5C4910F082
:101610009FFB5C4B079F9A68186859680A9EDDF823
:1016200024E0DDF820C0A7F5FA67BFB20BAC3DB2ED
:1016300007C4069A059C1E3517F0030F4FEAA5084C
:10164000D7B240F09080504B022F8CBF99464FF09C
:1016500000094E494E4BC8EB050501FB08F17A1E07
:1016600003FB0510002A00EB090347DD9DF82C0061
:101670004549012A01FB003340D09DF82D00022A84
:1016800001FB00333AD09DF82E00032A01FB003302
:1016900034D09DF82F00042A01FB00332ED09DF892
:1016A0003000052A01FB003328D09DF83100062ABE
:1016B00001FB003322D09DF83200072A01FB0033E2
:1016C0001CD09DF83300082A01FB003316D09DF88A
:1016D0003400092A01FB003310D09DF835000A2A96
:1016E00001FB00330AD00B2A9DF8360018BF9DF885
:1016F000372001FB003318BF01FB02335FFA8EF283
:10170000C2EB02125FFA8CF04FF46165920005FBA8
:101710000022E1B21C4C1F4D52FA86F2013904FB43
:1017200001241C4420462C600BF0C0FF0B211C48F8
:101730000DF0CAF8214600230A2218480DF064FE75
:1017400016480DF03BFE01200FB0BDE8F0830BAA58
:10175000E01C074910F0FCFA124B0B9A1A600120AA
:101760000FB0BDE8F0834FF0000972E70027C9E62B
:10177000408401002CF0FF1F28F0FF1F68000020AC
:10178000208401004C830100805101000085E201AA
:101790008033E10124150020448401006CF5FF1F13
:1017A0003484010000F0FF1F2DE9F04FDFF868825C
:1017B000974FD8F87854B1B000234FF47A72089755
:1017C0008DF824308DF82C301A931B930A92002D3B
:1017D00000F08D8005F23C46304605F047FD294675
:1017E000304605F0FBFE01238A4A8B491CA803F012
:1017F0007FFE1CA908A803F05BFD1CA81C9703F042
:10180000A5FD1A98002800F0C78000252E468DF807
:1018100000604FF0000A4FF0FF0990B101221CA9AF
:1018200005F0FCFE012815D00AF1010330AA92440C
:101830001BB21D2B0AF8C09C15DC1A989A4600288A
:10184000ECD11B980028EFD001221CA903F0DCFE8C
:101850000128E9D19DF870200D2A08BF534640F0B9
:10186000B7801D2BE9DD013B9BB230AA1A4402F878
:10187000C06C9DF800202F2A04D0012B02D96846A5
:10188000FFF7CEFD1A98B8B1037819070DD408A850
:1018900003F05CFD002D39D1012408A8089703F05E
:1018A00055FD204631B0BDE8F08FC36942699A1AF0
:1018B000ADD4002AABD1EAE71B9B002BE7D093F80D
:1018C00031201207E3D5D3E904ABD3E90023BAEB07
:1018D00002026BEB03034FF0000B6FF0004A9B45D5
:1018E00008BF924538BF5246002A90D1CFE7D8F8BA
:1018F0007C54002D3FF477AF05F58866304603F041
:1019000009FE2946304603F06BFE6CE70B21434885
:101910000CF0DAFF00230A22214641480DF074FD45
:101920003F480DF04BFDD8F878543B4B35B305F2EA
:101930003C46304605F09AFC2946304605F04EFEFE
:101940006323344A34491CA803F0D2FD1CA908A81B
:1019500003F0AEFC1CA81C9703F0F8FC1A9B83B3A1
:101960002146184605F058FF02222E4908A80DF01E
:10197000B9FC08A803F0EAFC01248EE7D3F87C54F4
:10198000002DDDD005F58866304603F0C3FD2946FD
:10199000304603F025FED3E71B9D002D7FF435AFC5
:1019A000142121480CF090FF1D480DF007FD0D2279
:1019B0001E491F480DF096FC1D482C460DF0FEFCFC
:1019C0006BE71B980028CFD0224603F00FFFCBE730
:1019D00030AB03EB0A01542A0AF1010301F8C02CD1
:1019E0001BB20DD11A9A1AB15469013C012538E78E
:1019F0001B9A12B11468013CF8E74FF0FF34F5E789
:101A00001D2B3FF730AF0A2A3FF42DAF15E700BF7B
:101A10001C830100588401007410002064840100BC
:101A20006CF5FF1F70840100748401008C84010038
:101A30009417002038B5054608F0DAF81E4C014628
:101A400020460DF063FC2D200DF012F8284608F01A
:101A5000ABF8014620460DF059FC2D200DF008F89A
:101A6000284608F08FF8014620460DF04FFC012172
:101A700012480CF029FF284608F0A8F80146204635
:101A80000DF044FC3A200CF0F3FF284608F056F81D
:101A9000014620460DF03AFC3A200CF0E9FF2846BA
:101AA00008F05EF8014620460DF030FC2046BDE807
:101AB00038400DF083BC00BF6CF5FF1FC4830100EC
:101AC00010B500200BF002FC214C207001200BF01F
:101AD000FDFB607002200BF0F9FBA07003200BF0FF
:101AE000F5FB1C4BE07022681A6004200BF0EEFB43
:101AF000207005200BF0EAFB607006200BF0E6FB7F
:101B0000A07007200BF0E2FB134BE07022681A6014
:101B100008200BF0DBFB114B187009200BF0D6FBF3
:101B20000F4B18700A200BF0D1FB0E4B18700B20D6
:101B30000BF0CCFB0C4B18700C200BF0C7FB0B4BC5
:101B400018600D200BF0C2FB094B186010BD00BFE0
:101B50004C17002028F0FF1F2CF0FF1F140000205E
:101B6000241800207417002028150020D01700200A
:101B700024F0FF1F234B10B51968234C002021606F
:101B8000C9B20BF0F9FB617801200BF0F5FBA178ED
:101B900002200BF0F1FBE17803200BF0EDFB1B4B77
:101BA000196821600420C9B20BF0E6FB61780520BA
:101BB0000BF0E2FBA17806200BF0DEFBE1780720BA
:101BC0000BF0DAFB124B082019780BF0D5FB114B08
:101BD000092019780BF0D0FB0F4B0A2019780BF075
:101BE000CBFB0E4B0B2019780BF0C6FB0C4B0C20DB
:101BF00019780BF0C1FB0B4B0D201978BDE8104094
:101C00000BF0BABB28F0FF1F4C1700202CF0FF1F71
:101C1000140000202418002074170020281500202C
:101C2000D017002024F0FF1F2DE9F84F0546084685
:101C30000EF01CFE01460EF069FD044628460EF02B
:101C400015FE014620460EF069FE014627480EF0BB
:101C500019FF4FF0010A4FF07E578146D346012409
:101C6000002520460EF006FE49460EF057FE0646B9
:101C70000FF01AF80EF0FEFD014630460EF044FD5E
:101C8000394680460EF0E8FF4FF0874148B13046B4
:101C90000EF0E2FF28B130460FF064F84746824666
:101CA000A346013445F10005002D08BF202CD8D1F2
:101CB0000F4A104E1168104C1048114D114F0BF186
:101CC000FF331B030AF1FF3A03F47F23CAF30B0A25
:101CD00043EA0A0321F01041116033602560076078
:101CE000136843F010431360BDE8F88F001BB74B37
:101CF00080F0024004F1024008F0024088F0024007
:101D000001000007010000472DE9F04F0546DFF80C
:101D10004C828D4E8D4F98F800E02E60FF2085F8A4
:101D20002400DFF83C92387859F820C00023BEF137
:101D3000060F8DB00C4685F8253085F826309CBFFF
:101D400088F800309E46BCF1000F00F0A8808C455A
:101D50005BD06346810001E09C4256D00B445B6837
:101D6000002BF9D1634603EB010ADAF80430002BAB
:101D7000F9D105EB010BCAF80440BEF1060F4FF094
:101D8000FF044FFA80FACBF804308DF82C4002960D
:101D90008DF82D308DF82E3085F824A0644605D8B6
:101DA000002388F80030002C00F0A980A24226D041
:101DB000234601E0934222D00B445B68002BF9D10B
:101DC00004EB010CDCF80440002CF9D1CCF8042021
:101DD0000CAB19440024431CBAF1FF3F41F8244CDA
:101DE0003B708DF82CA0029605D0594951F82A3045
:101DF00002AA934272D028460DB0BDE8F08F0130A0
:101E0000387028460DB0BDE8F08F0023FF21BEF1E9
:101E1000060F02968DF82C108DF82D308DF82E308F
:101E200001D888F800309445E9D06346810001E08C
:101E30009A42E4D00B445B68002BF9D18C44DCF867
:101E400004402CB1A4468C44DCF80440002CF9D1A9
:101E50000CAB19444FFA80FE431CBEF1FF3FCCF897
:101E600004203B7041F8244C02968DF82CE0C2D03F
:101E7000374951F82E3002AA9342BCD159F82E307E
:101E80004FEA8E0623B19A1953685460002BFAD199
:101E90000023387049F82E3041F82E30ABE7B0B34C
:101EA0008100DFF8ACA049F8204005EB010C0023CD
:101EB0004AF82050BEF1060FCCF804304FFA80FAF1
:101EC0004FF0FF0C02968DF82D308DF82E3085F8EE
:101ED00024A08DF82CC07FF663AF64E759F82A3050
:101EE0004FEA8A0623B19A1953685460002BFAD13D
:101EF0000023387049F82A3041F82A307BE7A0B136
:101F0000134B49F8202002AA43F8202060E711492A
:101F1000019215200BF0F8FA0F4B98F800E0019AA7
:101F20004FF4001119603878BAE70A490192152078
:101F30000BF0EAFA084B019A4FF400111960387857
:101F40004FFA80FA8100DBE7408301006519002029
:101F5000441900207504000000E100E094E9FF1F2F
:101F6000241900202DE9F041634D644C644E0BF0C0
:101F700065F90421634809F091FB2A682660002373
:101F8000637223612372E3600AB9B0E01A465369B1
:101F9000002BFBD1546100275B4B58486761A78039
:101FA000E780A772236002F053FB584A4FF0010EFE
:101FB00002F118013B4638461772D760166082F866
:101FC00009E01161174600E0396941F82300517AB0
:101FD0004E4E01339942F7DC2968474B09B988E036
:101FE00019464B69002BFBD14A61494D494B2C6086
:101FF0000024284654619480D480947282F88841E9
:10200000136082F88941C2F8844182F88A41C2F89B
:102010008C412C726A606C72EC602C740CF07CFE4B
:102020003D493E4A3E4F3F4E28460FF049F83E4A52
:102030003E4BD0683E4A1A600EF01CFC3D4B3E4DB4
:10204000014619604FF087400EF01CFD4FF0FF086D
:1020500038603A4B85F82540012785F824802F4ABF
:1020600037496C632846AC6385F83C402B6085F8A3
:1020700026700FF025F8334B86F8248086F825402B
:10208000264A31493360304686F826700FF018F83A
:102090002A4631462D482E4DFFF736FE1F4A2D4960
:1020A0002A480FF00DF82C4B1C4A1C714FF47A761D
:1020B0001C739E6029499C641846DC641D600EF008
:1020C000FFFF274B274D83F89744262683F8946417
:1020D000C3F87844C3F87C44C3F89844C3F89C54CC
:1020E0000E4A21491846BDE8F0410EF0E9BF2C60C8
:1020F00051E71E6079E700BFE41C0020581700205C
:10210000108301009417002078860100301500200C
:102110001C1700206083010065080000FCEFFF1F12
:1021200010170020F817002014F0FF1F30170020B0
:102130005C860100DC170020D016002028870100F3
:102140009D0600003C870100F5060000ECFFFF1F24
:102150001C830100F1050000180000209907000011
:1021600074100020011001384D07000038B5EB4C09
:1021700005460A21204602F0D9FD2046002102F042
:10218000ADFB2046302102F0A9FB2046402102F0A1
:10219000A5FB6021204602F0A1FB204602F0D8FDFD
:1021A00020460A2102F0C2FD2046002102F096FBE3
:1021B0002046262102F092FB2046002102F08EFBF1
:1021C0006C21204602F08AFB204602F0C1FD204629
:1021D0000A2102F0ABFD2046002102F07FFB2046E1
:1021E000282102F07BFB2046012102F077FBF02141
:1021F000204602F073FB204602F0AAFD20460A2189
:1022000002F094FD2046002102F068FB20462A21BE
:1022100002F064FB2046002102F060FB0021204612
:1022200002F05CFB204602F093FD20460A2102F0FA
:102230007DFD2046002102F051FB20462C2102F0BA
:102240004DFB20460F2102F049FB2221204602F0DF
:1022500045FB204602F07CFD20460A2102F066FD87
:102260002046002102F03AFB20463C2102F036FBDA
:102270002046442102F032FB4621204602F02EFB8C
:10228000204602F065FD20460A2102F04FFD20465F
:10229000002102F023FB2046242102F01FFB2046F0
:1022A000012102F01BFB3721204602F017FB2046DC
:1022B00002F04EFD20460A2102F038FD20460021A2
:1022C00002F00CFB2046302102F008FB20460021E2
:1022D00002F004FBA221204602F000FB204602F09F
:1022E00037FD20460A2102F021FD2046002102F0A0
:1022F000F5FA2046022102F0F1FA2046002102F010
:10230000EDFA4321204602F0E9FA204602F020FDD2
:102310004FF4C8700BF03EFB20460A2102F006FD88
:102320002046002102F0DAFA20462E2102F0D6FAE9
:102330002046192102F0D2FA1921204602F0CEFAE5
:10234000204602F005FD20460A2102F0EFFC20465F
:10235000002102F0C3FAAD002046042102F0BEFACB
:10236000C5F30721204602F0B9FA05F0FC0120462A
:1023700002F0B4FA204602F0EBFC20460A2102F0FB
:10238000D5FC2046002102F0A9FA2046062102F0E1
:10239000A5FA2046012102F0A1FA3021204602F0E0
:1023A0009DFA204602F0D4FC20460A2102F0BEFC31
:1023B0002046002102F092FA20460A2102F08EFA0D
:1023C0002046002102F08AFA0021204602F086FA17
:1023D000204602F0BDFC20460A2102F0A7FC204660
:1023E000002102F07BFA20460E2102F077FA204607
:1023F000002102F073FA0821204602F06FFA20460D
:1024000002F0A6FC20460A2102F090FC20460021A2
:1024100002F064FA2046102102F060FA2046FF2103
:1024200002F05CFA3C21204602F058FA204602F005
:102430008FFC20460A2102F079FC2046002102F0A0
:102440004DFA2046222102F049FA20467F2102F06F
:1024500045FA7F21204602F041FA204602F078FC3E
:1024600020460A2102F062FC2046012102F036FAE1
:102470002046242102F032FA2046002102F02EFAF2
:102480000021204602F02AFA204602F061FC204694
:102490000A2102F04BFC2046002102F01FFA2046E0
:1024A000242102F01BFA2046002102F017FA142121
:1024B000204602F013FA204602F04AFC20460A2188
:1024C00002F034FC2046002102F008FA20462A21BE
:1024D00002F004FA2046002102F000FA0021204612
:1024E00002F0FCF9204602F033FC20460A2102F0FB
:1024F0001DFC2046002102F0F1F92046202102F0C7
:10250000EDF92046002102F0E9F90021204602F011
:10251000E5F9204602F01CFC012038BD041900201A
:1025200038B5304B304C1021054653F82000FFF7EA
:102530007BFB2E4802F078FA2846FFF717FE227838
:102540002B48114601F002FD23680F2B0CD8DFE861
:1025500003F00C1014181C2024282C3034383C4074
:102560004408244B244A1A6038BD224B234A1A607F
:1025700038BD204B224A1A6038BD1E4B214A1A60D2
:1025800038BD1C4B204A1A6038BD1A4B1F4A1A60CE
:1025900038BD184B1E4A1A6038BD164B1D4A1A60CA
:1025A00038BD144B1C4A1A6038BD124B1B4A1A60C6
:1025B00038BD104B1A4A1A6038BD0E4B194A1A60C2
:1025C00038BD0C4B184A1A6038BD0A4B174A1A60BE
:1025D00038BD084B164A1A6038BD064B154A1A60BA
:1025E00038BD00BF14F0FF1F00F0FF1F04190020CA
:1025F0003017002048170020BD549341103377C096
:10260000993918C0BE0D68BFCE71153F8D090340C2
:10261000CCC9624009A7A3407DDBD140C41601416B
:1026200054FC1741D0E83041195546419FAB5F41FA
:10263000A04176415E2E864138B5012104463148DD
:1026400008F060FA372200212E4808F057FA204699
:1026500007F0CEFA01462B480CF058FE2D212948F0
:1026600008F012FA204607F09FFA014625480CF0C0
:102670004DFE2D21234808F007FA204607F082FA84
:10268000014620480CF042FE02221F491D480CF072
:1026900029FE204607F09AFA092803DC3021194860
:1026A00008F0F2F9204607F091FA014615480CF0BF
:1026B0002DFE204607F042FA012205461349114833
:1026C0000CF010FE092D03DC30210E4808F0DCF977
:1026D00029460C480CF01AFE204607F041FA012268
:1026E00004460A4907480CF0FDFD092C03DC3021A3
:1026F000044808F0C9F921460248BDE838400CF00A
:1027000005BE00BF941700209C840100888501004D
:1027100038B504460D463148012108F0F3F92AB2D4
:1027200000212E4808F0EAF9204607F061FA014638
:102730002A480CF0EBFD2D21284808F0A5F9204689
:1027400007F032FA014625480CF0E0FD2D21234820
:1027500008F09AF9204607F015FA01461F480CF0D8
:10276000D5FD02221E491D480CF0BCFD204607F095
:102770002DFA092803DC3021184808F085F9204695
:1027800007F024FA014615480CF0C0FD204607F07A
:10279000D5F901220546134910480CF0A3FD092D77
:1027A00003DC30210D4808F06FF929460B480CF086
:1027B000ADFD204607F0D4F9012204460949074837
:1027C0000CF090FD092C03DC3021044808F05CF982
:1027D00021460248BDE838400CF098BD941700200F
:1027E0009C840100888501002DE9F047C24D2C68CA
:1027F00024B1012C74D030BFBDE8F0870AF050FF3F
:10280000BE4FBF4E3860BF4808F05CFF0121BD4895
:1028100008F07EF90221BB4808F074F922462146EF
:10282000B84808F06BF90A22B749B6480CF05AFDCF
:10283000B4480CF0C3FD14213068FFF769FF386815
:10284000FFF7FAFEAF4809F079F90AF029FF2346AD
:1028500001460A22AD480CF0D7FDAC480CF0AEFDA5
:10286000AB4A3B681268934280F2408132689342DF
:1028700033DBA84F3C68002C00F083810D21A64873
:10288000A64C0CF021F8A1480CF098FDA44BA54AE9
:1028900031681B681268A4480B441A440E21326048
:1028A00023600CF011F80AF0FBFEFFF7C3F80B21D0
:1028B0009E480CF009F82068FFF7BCF80B219C48F3
:1028C0000CF002F83068FFF7B5F80123AE218D480F
:1028D0002B6008F0FFFEFEF731FD2C68012C8AD139
:1028E000FEF79AF9934E944B32681B689A4282DB4A
:1028F0008C4B1F68002F00F03D81FEF74DFA804B96
:10290000DFF868921E68DFF868828C4F0AF0C8FE14
:102910008B4A8C4B1268301A861A26EAE67683FBBD
:1029200006233344F017C0EBE3200DF03BFB0DF022
:102930005FF90DF04DFE844A844BC9F8000002FB9C
:10294000006683FB062333448246F017C0EB631016
:102950000DF028FB0DF04CF90DF03AFEA0EB001243
:10296000034606EB8206514668483B60C8F80060A3
:102970000CF0CCFC65480CF021FD396863480CF084
:10298000C5FC62480CF01AFDD8F800105F480CF046
:10299000BDFC5E480CF012FD3B68D9F80010D8F879
:1029A0000020C3EB03139B004FF4616000FB013375
:1029B0001A44092A40F39180122165480BF084FFE4
:1029C00052480CF0FBFC002102200AF075FF0E219A
:1029D00060480BF079FF4D480CF0F0FC0A215E488E
:1029E00002F0A4F900215C4801F078FF30215A4838
:1029F00001F074FF0021584801F070FF0021564893
:102A000001F06CFF544802F0A3F90A21524802F089
:102A10008DF90021504801F061FF02214E4801F07C
:102A20005DFF00214C4801F059FF00214A4801F0A8
:102A300055FF494802F08CF9102148480BF044FF3B
:102A400032480CF0BBFC64200AF0A4FF0E2144487D
:102A50000BF03AFF2D480CF0B1FC64200AF09AFF0D
:102A600098F800303A7899F800103E4806F00CFFCC
:102A70003D4806F0DFFC214602200AF01DFF0A2136
:102A8000354802F053F90021334801F027FF302187
:102A9000314801F023FF00212F4801F01FFFA22140
:102AA0002D4801F01BFF2C4802F052F90A212A4858
:102AB00002F03CF90021284801F010FF02212648CD
:102AC00001F00CFF0021244801F008FF43212248B7
:102AD00001F004FF204802F03BF901233C220221CF
:102AE000084808F021FF00232B6084E6012105201F
:102AF0000AF0E2FE3B68B9E6E8FFFF1F1C15002064
:102B00002415002094170020A08401006CF5FF1FFD
:102B10006C10002068000020AC84010044170020E5
:102B200028F0FF1F2CF0FF1FBC840100CC840100A3
:102B3000D88401002C150020CC170020701700202D
:102B400004F0FF1FC5B3A291F0F1FFFF89888888C8
:102B5000E4840100F88401000419002008850100C4
:102B60001C850100D0160020ECFFFF1FD4170020A9
:102B7000E0170020104802F0E9FBFEF727F9376064
:102B800039E60A210D4802F0D1F821460B4801F040
:102B9000A5FE0E21094801F0A1FE2146074801F0DB
:102BA0009DFE0A21054801F099FE044802F0D0F884
:102BB0004FF0FF333B6061E618000020041900204D
:102BC00010B50AF06DFD4C4B012118604B4807F021
:102BD00099FF0121494807F09BFF12220021474835
:102BE00007F08CFF0422464944480CF07BFB454B20
:102BF000424819680CF08AFB012243493F480CF017
:102C000071FB3E480CF0DAFB062240493B480CF0D1
:102C100069FB3F4B394819680CF078FB01223A49AF
:102C200036480CF05FFB35480CF0C8FB394B1B688D
:102C3000012B13D0384A394B126853F822000DF09B
:102C400019FE37490DF01EFF0DF0BEF9BDE810402A
:102C500002460B46294833490CF0C8BB324C334975
:102C6000264808220CF03EFB217809293EDD00238E
:102C70000A2222480CF0C8FB2D4B2E491C781F4815
:102C800001220CF02FFB092C03DC30211B4807F03C
:102C9000FBFE21461948284C0CF038FB2749174801
:102CA00001220CF01FFB2178092919DD00230A22DB
:102CB00012480CF0A9FB224B1E491C780F48012238
:102CC0000CF010FB092C03DC30210C4807F0DCFE73
:102CD00021460A480CF01AFB08480CF06FFBA9E7E4
:102CE0003021064807F0D0FE2178DFE73021034885
:102CF00007F0CAFE2178BAE71C15002094170020BF
:102D00002C85010028F0FF1F348501003885010063
:102D10002CF0FF1FD017002024F0FF1F14F0FF1F1E
:102D200000007A4450850100140000204085010015
:102D30002418002088850100741700204C850100AC
:102D4000281500202DE9F04F87B0FEF7B9FE0AF0F4
:102D5000A7FCB44BB44F1A68B44B38609A4202D9FE
:102D6000B04A3C231360B24AB04B12689A4202D96F
:102D7000AF4A3C231360AF4BDFF8F4A21A78172A4E
:102D800084BF00221A70AC4B1A783B2A84BF002201
:102D90001A70AA4B1A78172A84BF00221A70A84BFF
:102DA0001A783B2A84BF00221A70DAF80030012B0F
:102DB00084BF0023CAF80030A24B1B68032B02D942
:102DC000A04A03231360A04DDFF8A8829F4E08207D
:102DD0000AF096FDE8B92B6801332B6002E00A2067
:102DE0000AF0D8FD08200AF08BFD0028F7D02A68E9
:102DF000DAF80030A2F10901B3FA83F304294FEAAB
:102E0000531300F2C384002B00F0C0848E4A0E23BB
:102E100013608F4808F056FC01218D4807F078FEBA
:102E200002218B4807F06EFE00221146884807F009
:102E300065FE0AF035FC3B682C683060C3EB000986
:102E40000E2C5BD8DFE814F05E040E04B2032E03F0
:102E5000AE0218029A011A016D005A005A005A0077
:102E60005A005A000F00774B04201C680AF048FDF6
:102E7000019003200AF044FD019B8346002B40F0A3
:102E80000A85D8F80030734A0121132B117040F3E2
:102E900021850133C8F800300134BBF1000F40F048
:102EA0000185DFF8D4B16B4ADBF800300121132B28
:102EB000117040F31685092CC8BFDBF8003004F10F
:102EC000FF34CCBF01330123002CCBF80030C0F21B
:102ED000EF84042CA8BF00245F4B5A4A53F8240007
:102EE00014600DF0C7FC5D490DF0CCFD0DF06CF8E1
:102EF00002460B4656485A490CF078FAFFF760FE36
:102F00000AF0CEFBFFF798FB514808F017FE0A20A5
:102F10000AF040FDB9F5167F7FF759AF07B0BDE85D
:102F2000F08F06F01DFE4F4C0346042023600293F1
:102F30000AF0E6FC019003200AF0E2FC019A029BF1
:102F40008346002A40F09784D8F8002041490120A8
:102F5000132A087040F3CA840132C8F800200133F4
:102F6000BBF1000F40F08E84DFF80CB13949DBF87B
:102F700000200120132A087040F3C184092BC8BF28
:102F8000DBF8002003F1FF33CCBF01320122002B1C
:102F9000CBF80020C0F27C843C2BA8BF0023226821
:102FA000314C9A4223602FD0306806F00FFE039018
:102FB000306806F0C3FD216802918346306806F050
:102FC000E1FD0446306806F0EFFD0190306806F040
:102FD0000FFE0DF1180E02990EF8081D00F14E0CAF
:102FE000039A019B8DF8122070468DF816C08DF85B
:102FF00015308DF814408DF811B006F00DFE0AF072
:1030000055FB0AF04DFB38600722184910480CF0B8
:1030100069F90AF045FB06F0A3FD01460C480CF0E7
:1030200075F96BE728F0FF1F70100020A0860100E3
:103030002CF0FF1F1400002024180020741700201B
:103040002815002024F0FF1FCC1600201C1500209E
:10305000941700202015002014F0FF1F00007A4470
:10306000B4850100F417002014170020AC8501007E
:10307000D0170020D8170020E817002006F05EFDCA
:10308000BD4C03460420236002930AF039FC0190F2
:1030900003200AF035FC019A029B8346002A40F087
:1030A000DB83D8F80020B5490120132A087040F3CB
:1030B0002D840132C8F800200133BBF1000F40F02D
:1030C000D283DFF8DCB2AD49DBF800200120132AFF
:1030D000087040F32484092BC8BFDBF8002003F1FB
:1030E000FF33CCBF01320122002BCBF80020C0F20D
:1030F000C0833C2BA8BF00232268A14C9A422360C6
:103100002ED0306806F062FD03903068246806F027
:1031100027FD0290306806F035FD8346306806F0E2
:1031200043FD0190306806F063FD0DF1180E029921
:103130000EF8081D00F14E0C039A019B8DF8122029
:1031400070468DF816C08DF815308DF814B08DF8D6
:10315000114006F061FD0AF0A9FA0AF0A1FA386000
:103160000722884988480CF0BDF80AF099FA06F061
:10317000E5FC014684480CF0C9F8BFE606F026FDE0
:10318000824C03460420236002930AF0B9FB0190AD
:1031900003200AF0B5FB019A029B8346002A40F007
:1031A0004C83D8F8002075490120132A087040F399
:1031B000BD830132C8F800200133BBF1000F40F09D
:1031C0004383DFF8DCB16D49DBF800200120132ACE
:1031D000087040F3B383092BC8BFDBF8002003F16C
:1031E000FF33CCBF01320122002BCBF80020C0F20C
:1031F0003183182BA8BF0023226801939A422DD057
:10320000306806F09BFC0390306806F0A9FC029041
:10321000306806F0B7FC0446306806F0C5FC83460B
:10322000306806F0E5FC0DF1180E02990EF8081D45
:1032300000F14E0C039A019B8DF8112070468DF819
:1032400016C08DF812308DF815B08DF8144006F0C8
:10325000E3FC0AF02BFA0AF023FA386005224C4905
:1032600049480CF03FF80AF01BFA06F0AFFC0146A3
:1032700045480CF04BF841E606F084FC454C03460B
:103280000420236002930AF03BFB019003200AF024
:1032900037FB019A029B8346002A40F0BF82D8F890
:1032A000002036490120132A087040F34D83013273
:1032B000C8F800200133BBF1000F40F0B682DFF800
:1032C000E0B02E49DBF800200120132A087040F3FB
:1032D0004383092BC8BFDBF8002003F1FF33CCBFC9
:1032E00001320122002BCBF8002040F3A482202BD6
:1032F000A8BF01232268284C9A4223602ED0306850
:1033000006F064FC0390306806F018FC83463068D1
:1033100006F026FC02903068246806F045FC019017
:10332000306806F065FC0DF1180E029A0EF8082DB3
:1033300000F14E0C039B01998DF8123070468DF808
:1033400016C08DF815108DF814408DF811B006F0E8
:1033500063FC0AF0ABF90AF0A3F9386004220F49C4
:1033600009480BF0BFFF0AF09BF906F00BFC014681
:1033700005480BF0CBFFC1E55417002020150020B5
:1033800018150020A485010094170020E4FFFF1FFA
:103390009C8501002C18002028180020948501002D
:1033A000E817002006F000FCA24C0346042023602E
:1033B00002930AF0A5FA019003200AF0A1FA019AFB
:1033C000029B8346002A40F01A82D8F800209A49CE
:1033D0000120132A087040F3C5820132C8F800208A
:1033E0000133BBF1000F40F01182DFF874B2924953
:1033F000DBF800200120132A087040F3BB82092B60
:10340000C8BFDBF8002003F1FF33CCBF013201223B
:10341000002BCBF8002040F3FF810D2BA8BF012328
:103420002268864C9A4223602ED0306806F0CEFB8C
:103430000390306806F082FB8346306806F090FB0C
:103440000290306806F09EFB01903068246806F018
:10345000CFFB0DF1180E02990EF8081D00F14E0C6D
:10346000039A019B8DF8122070468DF816C08DF8D6
:1034700014308DF815408DF811B006F0CDFB0AF030
:1034800015F90AF00DF9386006226D496D480BF008
:1034900029FF0AF005F906F087FB014669480BF0A1
:1034A00035FF2BE506F0A4FB674C034604202360A0
:1034B00002930AF025FA019003200AF021FA019AFA
:1034C000029B8346002A40F08981D8F800205A499F
:1034D0000120132A087040F367820132C8F80020E7
:1034E0000133BBF1000F40F08081DFF874B1524925
:1034F000DBF800200120132A087040F35D82092BBD
:10350000C8BFDBF8002003F1FF33CCBF013201223A
:10351000B3F5FA6FCBF80020C0F26E8140F63402AA
:103520009342C8BF4FF4FA632268484C9A42236022
:103530002ED0306806F04AFB0390306806F0FEFAA1
:103540008346306806F00CFB0190306806F01AFBE9
:103550000290306806F028FB0DF1180E9DF804204B
:103560000EF8082D23680399029A8DF815004E3342
:1035700070468DF812108DF816308DF814208DF8E5
:1035800011B006F049FB0AF091F80AF089F83860AA
:1035900005222F492B480BF0A5FE0AF081F806F012
:1035A00027FB014627480BF0B1FEA7E4294B042076
:1035B0001C680AF0A5F9019003200AF0A1F9019B0B
:1035C0008346002B40F0FB80D8F800301A4A0121D6
:1035D000132B117040F3F6810133C8F80030013429
:1035E000BBF1000F40F0F280DFF874B0124ADBF854
:1035F00000300121132B117040F3EA81092CC8BF60
:10360000DBF8003004F1FF34CCBF01330123002C80
:10361000CBF80030C0F2E0800F4B9C42C8BF0024C2
:103620000C4B0E4907481C6004220BF05BFE094B53
:103630005AE000BF20180020201500201817002095
:103640008C85010094170020EC17002050170020F3
:10365000848501002CF0FF1F805101007C85010052
:10366000E8170020C64B04201B6802930AF048F9B3
:10367000019003200AF044F9019A029B8346002A34
:1036800040F08E80D8F80020BE490120132A08702F
:1036900040F3A2810132C8F800200133BBF1000FD2
:1036A00040F08580DFF8F4B2B649DBF80020012055
:1036B000132A087040F30881092BC8BFDBF80040CB
:1036C00003F1FF33C8BF0134002BCBF8004073DD9A
:1036D000B3F5616FC8BF0123A94CAB49AB48236068
:1036E00004220BF0FFFD23461968A8480BF00EFEDC
:1036F0000122A749A5480BF0F5FDA4480BF05EFE9A
:10370000FFF7FCBB9F4C2378002B40F0D4800A22AB
:10371000A0499E480BF0E6FD04200AF0F1F80446AB
:1037200003200AF0EDF8002C7FF4E8AB00287FF4CA
:10373000E5AB964807F0C6FF0121944807F0E8F989
:103740000221924807F0DEF9002211468F4807F067
:10375000D5F9FEF70FFA0A228F498C480BF0C2FD0B
:103760008A4808F0EBF940F2DC500AF013F9FFF751
:1037700027FA09F095FFFEF75FFF844808F0DEF9AD
:103780000A200AF007F907B0BDE8F08F0E2A7FF78C
:1037900040AB002B3FF43DAB00232B60FFF739BB60
:1037A0000022C8F80020BBF1000F3FF47BAF7B4A3A
:1037B0000021002B11608BDC4FF461638CE7002348
:1037C000C8F80030BBF1000F3FF40EAF734B00227E
:1037D000002C1A60BFF620AF714C21E70022C8F818
:1037E0000020BBF1000F3FF480AE6C4A0021B3F51E
:1037F000FA6F1160BFF692AE40F6340394E60022F1
:10380000C8F80020BBF1000F3FF4EFAD634A002180
:10381000002B11603FF701AE0C2301E60022C8F82F
:103820000020BBF1000F3FF44AAD5C4A0021002BA1
:1038300011603FF75CAD1F235CE50022C8F8002053
:10384000BBF1000F3FF4BDAC544A0021002B1160C6
:10385000BFF6CFAC1723CFE40022C8F80020BBF19D
:10386000000F3FF42EAC4D4A0021002B1160BFF633
:1038700040AC3B2340E40022C8F80020BBF1000F1D
:103880003FF472AB454A0021002B1160BFF684ABB8
:103890003B23FFF784BB0023C8F80030BBF1000FC7
:1038A0003FF4FFAA3D4B0022002C1A60BFF611AB7B
:1038B0000324FFF711BBFEF75DF94FF000032370FF
:1038C00009F0EEFE386022E7C82001930AF062F8A2
:1038D000019BF1E6C8200AF05DF8324B1B68FFF748
:1038E000D8BAC8200AF056F8FFF7E5BAC820019305
:1038F0000AF050F82B4B1A68019BFFF72DBBC8202C
:1039000001930AF047F8019BFFF738BBC8200193E9
:103910000AF040F8234B1A68019BFFF7CABBC82086
:1039200001930AF037F8019BFFF7D5BBC82001933C
:103930000AF030F81B4B1A68019B3AE4C820019347
:103940000AF028F8019B46E4C82001930AF022F807
:10395000144B1A68019BAAE4C82001930AF01AF8D4
:10396000019BB6E4C82001930AF014F80D4B1A68C5
:10397000019B32E5C82001930AF00CF8019B3EE55B
:1039800028F0FF1F201500202C850100941700202F
:10399000348501006485010070850100E81700206E
:1039A00080510100D8170020C820019309F0F2FFD0
:1039B0000D4B1A68019B90E5C820019309F0EAFFBE
:1039C000019B9CE5C82009F0E5FF074B1B6803E657
:1039D000C82009F0DFFF11E6C820019309F0DAFFE3
:1039E000014B1A68019B55E6D81700202DE9F04FCE
:1039F00085B072B6A149A24BA24841250E2480226F
:103A00000D70047019461A700B789D4A1806FBD584
:103A10009D499E4B0D789E4C9E481D70033924781D
:103A200000780978D9705C70987062B672B6934964
:103A3000944C41260F2580200E7025701146107081
:103A40000A781206FCD5904C91489249924A247803
:103A5000007809781278DA711C715871997162B620
:103A60008E4C8F4D4FF4FA7009F094FF21688D4809
:103A700000230A220BF0C8FC8A480BF09FFC4FF48D
:103A80007A7009F087FF2168864800230A220BF02C
:103A9000BBFC84480BF092FC4FF47A7009F07AFF7B
:103AA00000230A2221687F480BF0AEFC7D480BF012
:103AB00085FC7D4800F0B8FF0121022009F02EFFAF
:103AC0000121142009F02AFF0021152009F026FF0A
:103AD000002009F0A9FA0121022009F0EDFE0121E0
:103AE000142009F0E9FE0121062009F017FF00214A
:103AF000062009F0E1FE0021062009F00FFF002159
:103B0000042009F00BFF0021032009F007FF00212A
:103B1000082009F003FF0121042009F0CDFE012156
:103B2000032009F0C9FE0121082009F0C5FE4FF469
:103B3000FA7009F02FFF09F0B3FD5C4B2860984242
:103B400002DC5B4809F0B2FD01233C220221594806
:103B5000594E07F0E9FE642009F01CFF554807F0B4
:103B6000B1FD0121534806F0D3FF0221514806F070
:103B7000C9FF002211464F4806F0C0FF0A224F49F4
:103B80004C480BF0AFFB4B480BF018FC494807F0D2
:103B9000D5FF0121062009F0C1FE0021062009F011
:103BA0008BFE444807F08EFD0121424806F0B0FF2D
:103BB0000221404806F0A6FF002211463D4806F0CB
:103BC0009DFF0A223D493B480BF08CFB39480BF026
:103BD000F5FB384807F0B2FFC82009F0DBFE0721EB
:103BE000374801F0D1FA0E21354801F015FB4FF0AE
:103BF00038400A210022FF2302908DF80C108DF826
:103C00000E3006F591678DF80D2004AB384613E9A8
:103C10000C0006F5936105F0E7F896F89444C6F8B1
:103C20008474002C52D01C2126480AF04DFE1D48F9
:103C30000BF0C4FB1F4807F045FD01211D4806F0AD
:103C400067FF02211B4806F05DFF0022114619485C
:103C500006F054FF12221C4916480BF043FB15488E
:103C60000BF0ACFB09F01CFDFEF7E6FC114807F079
:103C700065FF4FF47A7009F08DFEDBE70700024024
:103C800000000240060002400B0002403C170020EA
:103C90000A000240090002400800024000D0034030
:103CA0001C1500206CF5FF1F041900207FC18556EC
:103CB00080C185569417002074100020C085010033
:103CC00034F0FF1FCC850100EC85010039463046F9
:103CD00001F09EFB0028A6D0FDF766FD7D4B7E48D7
:103CE000019364210AF044FFFFF72CF87B497C4ADA
:103CF000D1F800A0DFF8349252F82A00DFF830B291
:103D0000DFF83082774E784F0CF0B4FD0146C9F8E9
:103D100000004FF087400CF0B5FECBF80000504695
:103D2000FEF7FEFBFDF738FB2146042009F0C4FD39
:103D30002146032009F0C0FD2146082009F0BCFD02
:103D40000121042009F0EAFD0121032009F0E6FD2C
:103D50000121082009F0E2FD6448DFF8DCB1DFF85A
:103D6000DCA107F0AFFC0121604806F0D1FE022182
:103D70005E4806F0C7FE224621465C4806F0BEFEBD
:103D800009F08EFC5A49024681FB023ED117C1EB75
:103D90006E114FF4967E0EFB1121D8F800002A60B8
:103DA000521A72445349326002440A600CF062FDB8
:103DB000D9F80010DFF888910CF0B0FD4FF06E518B
:103DC0000CF0ACFD0CF070FF4B49019B09683A68A0
:103DD0001860521A494B22EAE27283FB0213134421
:103DE000D017C0EBE32001920CF0DCF80BF000FFE1
:103DF0000CF0EEFB019A424BCBF8000003FB0023D2
:103E0000404A019382FB03121A44D817C0EB621098
:103E10000CF0C8F80BF0ECFE0CF0DAFB019BA0EB09
:103E20000011024603EB81033748CAF80020102135
:103E3000C9F800300AF048FDDBF8001033480BF0F9
:103E400065FADAF8001031480BF060FAD9F8001082
:103E50002E480BF05BFA2D480BF0B0FA08212C48E5
:103E60000AF032FDD8F8001028480BF04FFA274826
:103E70000BF0A4FA082127480AF026FD39682348E8
:103E80000BF044FA21480BF099FA0E2122480AF06F
:103E90001BFD2868FDF7CEFD0C2120480AF014FD1B
:103EA0003068FDF7C7FD33682D681D485D1B15217F
:103EB0000AF00AFD294615480BF028FA13480BF0C2
:103EC0007DFA184A184B14604FF0FF321A6005B0A3
:103ED000BDE8F08FCC1700200082FF1F24F0FF1FE9
:103EE00014F0FF1F241500202CF0FF1F9417002052
:103EF000B5814E1B4417002004F0FF1FC5B3A291EB
:103F0000F0F1FFFF89888888008601006CF5FF1FAB
:103F10001486010020860100BC8401002C8601006B
:103F20003C860100E8FFFF1FF0170020DC1700208F
:103F30001017002028F0FF1FD41700207017002052
:103F4000E0170020002070470020704738B50F2987
:103F5000114C28BF0F210F2A28BF0F220D46017ACE
:103F6000204642EA051500F00BFE2046002100F035
:103F7000B5FC2046202100F0B1FC2046002100F0D5
:103F8000ADFCE9B2204600F0A9FC204600F0E0FEBE
:103F9000B0FA80F0400938BD04190020F8B5C34CD0
:103FA000012605460671204600F03EFD052009F079
:103FB000F1FC297A204600F0E3FD2046002100F0C4
:103FC0008DFC2046302100F089FC2046402100F085
:103FD00085FC6021204600F081FC204600F0B8FE00
:103FE000297A204600F0CCFD2046002100F076FC26
:103FF0002046262100F072FC2046002100F06EFCD5
:104000006C21204600F06AFC204600F0A1FE297ACF
:10401000204600F0B5FD2046002100F05FFC204660
:10402000282100F05BFC3146204600F057FCF221CD
:10403000204600F053FC204600F08AFE297A2046F4
:1040400000F09EFD2046002100F048FC20462C2177
:1040500000F044FC20460F2100F040FC22212046C5
:1040600000F03CFC204600F073FE297A204600F068
:1040700087FD2046002100F031FC20463C2100F065
:104080002DFC2046442100F029FC4621204600F06A
:1040900025FC204600F05CFE40F23713EB80297AC5
:1040A000204600F06DFD2046002100F017FC204660
:1040B000242100F013FC3146204600F00FFC37218C
:1040C000204600F00BFC204600F042FE297A2046F4
:1040D00000F056FD2046002100F000FC2046302173
:1040E00000F0FCFB2046402100F0F8FBFF212046B9
:1040F00000F0F4FB204600F02BFE297A204600F069
:104100003FFD2046002100F0E9FB2046022100F09F
:10411000E5FB2046002100F0E1FB7321204600F082
:10412000DDFB204600F014FE4FF4C87009F032FCAD
:10413000297A204600F024FD2046002100F0CEFB25
:1041400020462E2100F0CAFB20461D2100F0C6FBB0
:104150001D21204600F0C2FB204600F0F9FD297A1F
:10416000204600F00DFD2046002100F0B7FB204660
:10417000042100F0B3FB2046002100F0AFFB042136
:10418000204600F0ABFB204600F0E2FD297A2046F5
:1041900000F0F6FC2046002100F0A0FB204606219E
:1041A00000F09CFB3146204600F098FB3021204671
:1041B00000F094FB204600F0CBFD297A204600F069
:1041C000DFFC2046002100F089FB20460A2100F098
:1041D00085FB2046002100F081FB1021204600F0E5
:1041E0007DFB204600F0B4FD297A204600F0C8FC93
:1041F0002046002100F072FB20460E2100F06EFBED
:104200002046002100F06AFB0021204600F066FBFA
:10421000204600F09DFD297A204600F0B1FC2046A2
:10422000002100F05BFB2046102100F057FB2046E8
:104230003C2100F053FB3C21204600F04FFB204680
:1042400000F086FD297A204600F09AFC20460021E5
:1042500000F044FB2046222100F040FB20467F2155
:1042600000F03CFB7F21204600F038FB362720463B
:1042700000F06EFD297AEF80204600F081FC204698
:10428000002100F02BFB2046242100F027FB2046D4
:10429000002100F023FB3946204600F01FFB20469A
:1042A00000F056FD6E723046F8BD00BF04190020C4
:1042B0000B462DE9F0414549054618460CF02EFB0A
:1042C00043490CF023FA0CF015FD044600284CD0AD
:1042D00080281FD92B79002426462BBB297A3D48FC
:1042E00000F04EFC00213B4800F0F8FA222139484A
:1042F00000F0F4FA3146374800F0F0FA214635482C
:1043000000F0ECFA334800F023FDB0FA80F04009E9
:10431000BDE8F081C0F180042B7944EA0424C4F3A1
:104320000726E4B2002BD9D0EF88297A294827F054
:1043300010074FF00008EF8085F8048000F020FCA3
:104340004146244800F0CAFA2421224800F0C6FA67
:10435000390A204800F0C2FA07F0EF011D4800F0CA
:10436000BDFA1C4800F0F4FCB8E701232B71297A50
:10437000184800F005FC2146164800F0AFFA22214B
:10438000144800F0ABFA7F21124800F0A7FA7F2111
:10439000104800F0A3FA0F4800F0DAFCEE88297A02
:1043A0000C4846F01006B6B2EE8000F0E9FB21465C
:1043B000084800F093FA2421064800F08FFA310AE9
:1043C000044800F08BFAF1B299E700BF0000014306
:1043D000EE7CFF3E0419002070B505460C4619B16D
:1043E00001293BD0002070BD017A424800F0C8FB93
:1043F0002146404800F072FA20213E4800F06EFA53
:1044000021463C4800F06AFA55213A4800F066FA25
:10441000384800F09DFC06460028E3D1EC88297A54
:10442000344844F00404A4B2EC8000F0A9FB314607
:10443000304800F053FA24212E4800F04FFA210AA8
:104440002C4800F04BFAE1B22A4800F047FA29481C
:1044500000F07EFCB0FA80F0400970BD017A25487A
:1044600000F08EFB0021234800F038FA2A21214871
:1044700000F034FA21461F4800F030FA73211D483D
:1044800000F02CFA1B4800F063FC04460028A9D178
:10449000297A184800F074FB2146164800F01EFAED
:1044A0002021144800F01AFA2146124800F016FAAA
:1044B0008821104800F012FA0E4800F049FC04462A
:1044C00000288FD1EE88297A0A4826F00406EE806B
:1044D00000F056FB2146074800F000FA2421054869
:1044E00000F0FCF9310A034800F0F8F906F0FB018E
:1044F000AAE700BF0419002010B504460AF068FDC1
:10450000204610BD024A034903480CF0D9BD00BF44
:10451000FCEFFF1FF94400005C1800201B4A1C4BF5
:1045200011681C48096970B499421279027009D265
:10453000194A127832B3194A4FF08041116003F5DD
:10454000807402E01C46A3F58073154A1549126871
:104550000D68AAB1A5B1144E3088402810D841008A
:104560000A444030294402320231308033F9040BCE
:1045700022F8020F9C4233F9020C21F8020FF5D801
:1045800070BC704703F58074DFE700BF6C18002033
:1045900090E8FF1F1F8000406618002008E200E03E
:1045A000741800206818002064180020F8B506462A
:1045B0000AF00EFB0446E8B10AF00AFB05460028A3
:1045C0003AD072B61F4B1A887F2A19D8002C31D0E6
:1045D0001D490A6842B162B620460AF04DFB2846E2
:1045E000BDE8F8400AF048BB18480C601A80056026
:1045F00062B6F8BD054672B6124B1A887F2AE5D915
:10460000114A12491768146000220C681A800D6064
:1046100062B6394630460AF059FB38460AF02CFBA0
:104620003046214601220AF051FB2046BDE8F84001
:104630000AF022BB62B6F8BD20460AF01DFB2C46EC
:10464000BFE700BF6418002074180020681800201D
:10465000F8B5284C284E204601210AF01BFC00F03A
:1046600083F8264B264A27484FF480611960236857
:1046700000211A6099802279186102F1804202F5C6
:10468000043240F20110D8809E614FF48075022000
:1046900006278E26DD82D960DD8398609F8398820D
:1046A000117016700AF09CFB1749184B2279184FAD
:1046B00008701A7039682279164C174D174E41F060
:1046C000124141F00101531139609B00206803F150
:1046D000604302F1100703F5614302F01F0201215C
:1046E00040F0104001FA02F2206045F827601A609D
:1046F000F8BD00BF6C18002000FEFFFF14B004409E
:10470000A0F0024090E7FF1F661800201B800040C9
:1047100080F0024000F0024000EAFF1F1D4500004B
:10472000024A034903480CF0CBBC00BFFCEFFF1F5B
:10473000F94400006C180020024A034903480CF0B9
:10474000BFBC00BFFCEFFF1FF94400007818002039
:10475000024A034903480CF0B3BC00BFFCEFFF1F43
:10476000F944000080180020284B29491A6829487C
:1047700042F400421A600A6842F002020A601A68B3
:1047800042F002021A600368002B3DDB224B1B68DB
:10479000002B39DB214A4FF0864313601368002B4E
:1047A000FCDBF0B51E4C1F48DFF8ACE01E491F4B88
:1047B0001F4A204F204E214D41F2100CC4F800C07A
:1047C000002404600120CEF80000DFF890E0C1F87A
:1047D00000E04FF480311960194B1360DFF880E07E
:1047E000184A3A60346028601748CEF80000174C29
:1047F000B9671748174946F8503C4FF4C0632A611F
:10480000236003600B60F0BD704700BF3C80044034
:104810004080044000F0024080F0024000F102407D
:1048200004F1024060F0024008F002400CF0024047
:1048300010F0024014F00240E0F0024084F0024028
:104840001B0F0100000F0F0F0300004708B00440CA
:104850000CB0044018B0044004F00240030000070C
:1048600088F00240024A034903480CF029BC00BF0B
:10487000FCEFFF1FF944000088180020024A03499A
:1048800003480CF01DBC00BFFCEFFF1FF944000003
:1048900090180020024A034903480CF011BC00BFE5
:1048A000FCEFFF1FF944000098180020024A03495A
:1048B00003480CF005BC00BFFCEFFF1FF9440000EB
:1048C000A0180020024A034903480CF0F9BB00BFBE
:1048D000FCEFFF1FF9440000A81800200A4B1B78CA
:1048E00013B90A4B1B786BB1094A1378202B07D8F0
:1048F00010B4581C074C1070E154012010BC7047D4
:10490000012303710020704716190020D9180020D8
:1049100017190020B8180020704700BF024A034B47
:1049200010781B78C01A7047151900201419002040
:10493000064A074913780978994204D90548591C51
:10494000C05C117070474FF0FF30704714190020A1
:1049500015190020DC180020054B064A1B78127838
:104960009A4286BF044AD05C4FF0FF30704700BFC8
:104970001419002015190020DC18002070B50D4B0B
:104980001B78144613B90C4B1B788BB10B4E357842
:10499000C5F12103A34202D201221C46027108483C
:1049A00022462844254408F093F93570204670BD0E
:1049B000184670BD16190020D918002017190020BC
:1049C000B8180020124BDB7803F020034BB1114ADA
:1049D00013780133DBB2012B137012D9122008F0C7
:1049E0001BBE10B5122003F0FF0408F015FE0A4BA1
:1049F0001B685BB109490A4A0C701078BDE8104089
:104A00001847084B1B78002BE8D0704710BD00BF3B
:104A10000060064000190020B4180020141900207E
:104A200015190020D91800200D4A0E4BF0B50020B2
:104A30000D4C10702268DFF838E00C4F42F0400255
:104A400022604FF4197127260425202480229870B3
:104A5000CEF8001039605E709D715C719A70F0BD87
:104A6000D9180020006006403480044008A00440AB
:104A70000CA0044010B5384CE378DBB2D80623D53F
:104A800010225906E2701ED503F0040303F0FF0262
:104A9000002B33D0314B32491A68324C00230B7053
:104AA0002370002A3BD090472378002B37D02E4B21
:104AB0001B78294A2D49D02494701371264B01206C
:104AC00002220870DA7010BD5A06DDD4A27802F016
:104AD000100202F0FF0042B313F001031BD123497F
:104AE00020480A780078904281BF1F4B501C9B5C85
:104AF00008702371184BD0229A7008E01C48164B9E
:104B0000174902700120C02208709A701B79124B5D
:104B10000222DA7010BDC023A3702379F7E712498F
:104B2000002301220B702270C3E7124B1249187048
:104B30000322122008F0F0FC0D4923790A781F2A7D
:104B4000DBB2E4D8064800780028E0D00B4C501CBB
:104B5000A3540870DBE700BF00600640FC1800208B
:104B6000B018002017190020B818002018190020CC
:104B70001519002000190020C5490000DC1800208C
:104B80000548064A10B40123054C03704900137010
:104B9000217010BC704700BF1619002017190020A3
:104BA000B81800202DE9F043594C1223E370A37884
:104BB00003F0200383B0002B55D0B423DFF86881C5
:104BC000A370D8F80030524D1C460020EA78D2B2CB
:104BD0009A421CBF1446012096061346F6D50028BB
:104BE00040F08C804B4B1B78002B33D003F1FF3E01
:104BF0005FFA8EFE0026D8F80040474F444D0EF174
:104C0000010E30464FF0020C17F8013F2B715FFA8E
:104C100086F902E013F0200F09D0EB78DBB2934263
:104C20001CBF1C46012013F0020F1A46F2D085F873
:104C300003C0EA78D2B293421CBF14460120D306C7
:104C400033D4930631D5D30744D401367645DBD12E
:104C500000284AD1002000292ED1304B00221A70A2
:104C600003B0BDE8F0832E4DDFF8BC8003F0FF02F7
:104C70002B680093009ED8F8000005E02B68019394
:104C8000019B9B1B0F2B1BD8E378DBB2834218BF21
:104C9000012213F0200F1846F0D192BB21481C4B83
:104CA0000024B02204709A708BE708BB184B802256
:104CB0009A7004200029D0D0154B80229A70CCE73E
:104CC000CAB9134B00218022042099709A7003B056
:104CD000BDE8F083C0B90E4BB9F1000F4FF0800270
:104CE0000CBF022003209A70B7E7C8F80040B1E774
:104CF000C8F80040DAE7C8F80000E2E7C8F800406A
:104D000070E7C8F80030C9E7C8F80040E3E700BF23
:104D10000060064017190020B7180020161900205F
:104D2000E41B0020D918002030F0FF1F0548064A78
:104D300010B40123054C037049001370217010BC9E
:104D4000704700BF1619002017190020B81800205E
:104D50000121FFF727BF00BF044B054A1A604FF43B
:104D60007A71002299601A711A7370470419002031
:104D70008486010010B4047F4160022CC26002D01E
:104D800010BC0AF03FB9836810BC18472DE9F04108
:104D90000468E56815F0807F794D256052D1DF0702
:104DA00040F1B380002900F0E3800D78012B18BF9B
:104DB00045F000456563013190F8248003F1FF3C24
:104DC00048EA0828BCF1000F00F0A88021B14D7816
:104DD00011F8028B45EA082845682E7ABCF1020FCB
:104DE00006F1FF364FEA06360CBF48F0805548F012
:104DF0001045B6B26563ACF1020C08E00AB114705C
:104E00000132013B05F47045B54216D90468E56AE4
:104E100015F0F00FF6D0A46B13F0010F17464FEA10
:104E2000242EEBD11AB107F802EB54703A4605F480
:104E30007045B542A3F10203E8D8BCF1000F6DD074
:104E40000468C3E7DD074CD5002900F089800D78A0
:104E5000012B18BF45F000456563013103F1FF3EAA
:104E600090F824C0BEF1000F41D029B191F801C0E3
:104E70000D78023145EA0C2C45682E7ABEF1020FFE
:104E800006F1FF364FEA06360CBF4CF080554CF069
:104E90001045B6B26563AEF1020E08E00AB11470B7
:104EA0000132013B05F47045B54215D90468E56A45
:104EB00015F0F00FF6D013F0010F1746A46BEDD1EB
:104EC00022B107F8024B241254703A4605F470459B
:104ED000B542A3F10203E9D8BEF1000F07D0046880
:104EE000C3E79E4690F824C0BEF1000FBDD11BB3AE
:104EF0000468E16A11F0F00FFBD0A16BDC071DD54F
:104F00000AB111700132013BF1E790F824809C4610
:104F100048EA0828BCF1000F7FF458AF63B1046879
:104F2000E16A11F0F00FFBD0DE07A16B0FD50AB1DB
:104F300011700132013BF1E7BDE8F0812AB114465E
:104F40000D1204F8021B55702246023BCFE72AB12E
:104F500014460D1204F8025B51702246023BDDE755
:104F600090F82450012B18BF45F00045656375E7A4
:104F700090F82450012B18BF45F0004565631BE7EE
:104F800000041F80F0B4464B464A186BDC6A017976
:104F90001170454922790A709A6A00790870002ACE
:104FA00046D05968C9688A423ED82168CC8B24040F
:104FB00002F1FF3065D4C0F30E00C883C88B80B205
:104FC000C882196B0968C88B000452D4C2F30E0062
:104FD000C883C88B002480B212F1FF32C88218BF88
:104FE00001229C62D96A2E4809680D6800F12404E8
:104FF000A54236D00068C46814F0804F0C680D6874
:1050000015BF248824780235013544F000440D6032
:105010004463196B254B09791970214912B1CA6A89
:1050200012791A70F0BC7047521A9A620122D9E7BD
:10503000586B196805681E4C0A63CC62CC682D68F1
:105040001C4E24F080440327B542CC6083F82570C1
:105050001FD1037F4260022BC2601ED0F0BC09F05A
:10506000D1BF016890F82400CC6840F0004048634C
:10507000CFE7CC8BC2F3080004F47E442043C883FE
:10508000A7E7CC8BC0F3080004F47E442043C88318
:1050900094E72B461146F0BC18478368F0BC1847CC
:1050A00034F0FF1F1F8000401C8000401B80004028
:1050B00000000FFF754D000090E80C00F0B41C6874
:1050C00059682568164F174E29432160164D174918
:1050D0001760D66015611160417A154A5C180A3173
:1050E00094F8244053F8215002EBC40149680D6044
:1050F000017A5C1803EB8101247ECD6902EBC401C7
:1051000049680D60817A581803EB810390F83000EC
:10511000596B02EBC002F0BC53681960704700BFC6
:1051200001401F00011000380110007800001F80AE
:10513000188D01004268036805CA10B40468224350
:105140000260D868840100F0E06205D5080900F427
:10515000706021F470410143D8681143814209D045
:105160001A68500408D40748186041F08040D9609C
:1051700018611A6010BC704741F08042D96010BCC1
:105180001A61704701401F00204A43689A42F0B4F8
:105190000FD0427A1A4492F82420914207D093F813
:1051A00024408C4215D093F825408C422AD0F0BC84
:1051B00070470B2907D00729EBD1154C227842F014
:1051C00001022270E5E7124C227822F001022270DF
:1051D000DFE7002421461E685D6836682E420FD046
:1051E0000C4D05EBC202002756685A18376092F83A
:1051F000242005EBC2050A316A6853F82130136098
:105200004472D4E701242146E5E700BFA0860100EF
:10521000341D0020188D0100204A43689A42F0B4E2
:105220000FD0827A1A4492F83020914207D093F836
:1052300030408C4215D093F831408C422BD0F0BCDA
:1052400070470D2907D00E29EBD1154C227842F07A
:1052500004022270E5E7124C227822F00402227048
:10526000DFE7002421461E685D6836682E4210D0B4
:105270000C4D05EBC202002756685A18376092F8A9
:1052800030200C3105EBC20503EB81036A685B68D3
:1052900013608472D3E701242146E4E7A08601006D
:1052A000341D0020188D01000BB1FFF76FBD704752
:1052B0008842F8B506461AD0806C0D46C8B101F098
:1052C000D5FFB0B10023B364AC6CF4B106F11001AA
:1052D000242004F0ADF8002303704370B064AD6C7B
:1052E00004460FCD0FC40FCD0FC42B68236030468A
:1052F000F8BDF06C0028E7D000F00CF90028E3D0EE
:10530000AC6C0023F364002CE0D1EB6C002BEED0EE
:1053100006F11001382004F08BF880F8314080F855
:105320003240F064EB6C024603F130011D685C68AA
:105330009868DF68D76010338B42156054609060C6
:1053400002F11002F2D11B681360D0E710B50446D9
:10535000806C28B101F08AFF10B10023A36410BD56
:10536000E06C28B100F0D6F810B10023E36410BD62
:10537000002010BD002947D0F8B50446806C0D46CA
:105380001F461646C8B101F071FFB0B10023A364F7
:10539000D5F87834F3B104F11001242004F048F872
:1053A0000023037043703246A0643B46D5F878145E
:1053B00002F00CF930B30120F8BDE06C0028E7D012
:1053C00000F0A8F80028E3D00023E364D5F878348F
:1053D000002BE0D1D5F87C34C3B104F110013820A2
:1053E00004F026F8002380F8313080F83230D5F808
:1053F0007C14E0643B46324600F0B8FC0028DAD169
:10540000E064F8BDA064F8BD002070470020F8BD3E
:1054100070B500260546C0F88014C0F878640146CF
:105420004FF48F6004F004F80446466001F012F96E
:10543000C4F8106204F5037001F00CF984F83C64C0
:1054400084F8716484F87264D5F88064C5F87C448B
:1054500031462046012201F0D5F970B104F5886685
:10546000304600F057F82146304600F0B9F858B100
:105470001E4A2B460120136070BD0246314620466D
:1054800001F0C0F90028E9D10026C5F87C6429465E
:105490004FF48C6003F0CCFFC67180F83C6480F858
:1054A0003D64D5F88064C5F878040122314604468D
:1054B00003F076FB90B104F23C46304601F0D6FE94
:1054C0002146304602F08AF80028D1D10022134646
:1054D000C5F878241046054A136070BD024631466F
:1054E000204603F05DFB0028E5D1EFE71C19002002
:1054F00070B54FF47A75064E856000250446066047
:10550000057105738564C564FFF734FF204670BDDF
:105510001C83010010B5044600F02AFD002384F826
:10552000313010BDF0B50878202803D111F8010FF3
:105530002028FBD05160087800284CD02F282BD091
:105540005C2820D0A0F12204E4B21D2C1DD9DFF884
:105550008CE04E1C00247C28A0F12005374612D098
:105560005E2D10D816F8010BA0F12205EDB2013422
:1055700050B32F2811D05C282EFA05F703D01D2D2B
:10558000E9D8FD07E7D50020F0BD144D25FA04F455
:10559000E607DCD50020F0BD00242144084606467D
:1055A00010F8015B202DFAD02F2DF8D01E603CB1F1
:1055B00011F8013D2E2B01D0202B08D1013CF7D151
:1055C000204610600120F0BD1F602144F0E7FF2C51
:1055D000F6DD0020F0BD1960F3E700BF01010035E2
:1055E00090F831200AB10020704738B504460D46C6
:1055F000114638220CF032F94023012084F8313072
:1056000084F83300256238BD2DE9F04790F8313039
:1056100082B0044623B1164690F83320D0070AD44E
:1056200094F832304FF0FF3043F0020384F8323008
:1056300002B0BDE8F08752060D4640F1AB80D4E9D8
:105640000001D4E9042310EB060841F100094B45A1
:1056500008BF4245C0F0A280002E00F0A180A14604
:10566000F9E80623B04653E0134371D194F8313082
:105670005B064CBFD0F82C14E169A16190F83DE4C1
:10568000D0F8243402397F0A01FA0EF2F9181144D5
:10569000BAF1000F46D1B8F5007F43D3D0F81432E9
:1056A00099423FD0B8F5806F59D394F83320520611
:1056B0004FEA582A07D4012202FA0EFEC7EB0E0762
:1056C000BA4528BFBA4699424FEA4A270CD80AEB96
:1056D00001029A4208D900F50370019100F0F8FF29
:1056E00000289DD0206A0199D0F8380453462A46F4
:1056F00003F0C4FC002893D038460021D4E90023ED
:1057000012184B41B8EB07083D44C4E9002347D0C9
:10571000206AD0F830741740C7F3080A002FA3D0CE
:10572000A169ABE700F50370002200F099FF0028A3
:105730003FF476AFCAF50077474528BF474600EBF0
:105740000A013A46284607F0C3FA38460021D5E751
:1057500094F83330590611D5A16901318DE7D0F89D
:10576000380401232A4603F089FC00283FF458AF8F
:105770004FF4007000214FF40077BFE74A46A1695B
:1057800001F0F4F940B20028FFF64AAF0FD0206ACA
:10579000A16973E71A073FF552AF5DE7161A5BE799
:1057A0004FF00008C8EB060002B0BDE8F08794F89F
:1057B000313013F0500FF5D132E700BFF0B583B0B0
:1057C00001220DF107010446D0E900678569FFF762
:1057D0001BFF012808BF9DF80700A56118BF4FF007
:1057E000FF30C4E9006703B0F0BD00BF2DE9F84FFA
:1057F00090F83150D0F8188004469DB116461F46E7
:1058000056EA070306D100238361C4E9006701203B
:10581000BDE8F88F29070AD5D0E90423BB4208BFA9
:10582000B24204D2C4F818800020BDE8F88FD4F842
:10583000209094F8331099F83DE40EF1090E5FFAC8
:105840008EFE16F1FF3247F1FF33CEF1200C03FA42
:105850000CF022FA0EF2AEF1200A024323FA0AFB00
:1058600042EA0B0B4A0603D5E5695D44A561CCE726
:10587000D4E9000110F1FF3241F1FF3322FA0EFEAC
:1058800003FA0CFC4EEA0C0E23FA0AFA4EEA0A0E50
:10589000F34513D26B064CBFD9F82C34E369A361EE
:1058A0005D4604F118094A46002DAED0A169206A70
:1058B00001F05CF9013D0028F5D1B3E750EA01039E
:1058C000E8D0CEEB0B0BEBE72DE9F04F93B090F85F
:1058D000314000920D469DF87010029106462CB999
:1058E0009A4695F8313013F0500F05D1002086F814
:1058F000310013B0BDE8F08F1346002A00F00E818E
:1059000018462246514601F03DFB95F8313004908F
:10591000002B40F0FD80B64A0AF10E0382FB031211
:105920001A44DB17C3EBE203029ADBB202F00F0268
:10593000059302334FF000095FFA83FB42F0400306
:1059400001924C464F46039320220AA92846FFF7AE
:105950005BFE00283DD02028C8D19DF828301A06CB
:1059600063D4002C5ED12A68A9690791203A089275
:105970000134E4B26BB3C02B00F0A080C12B5FD028
:10598000852BE1D13822002130460BF067FF9DF8CE
:105990002C309DF8292086F8302003F03702DB06F2
:1059A00058BF42F0080286F831202B68296AAA699C
:1059B0007262203B3162B36295F83330C3F38013D7
:1059C00086F82C3020220AA92846FFF71DFE002861
:1059D000C1D1029B03F04203422B87D1009B002BD5
:1059E00084D05C450DD39BE020287FF47FAF24B9A1
:1059F0002A68A9690791203A0892DCB2A34540F2CF
:105A00008F8020220AA92846FFF7FEFD631C00288C
:105A1000EAD12846AF6900F0D9FA00283FF466AF12
:105A2000AF61EBE75C45A5D2A2E7B9F1000FA2D1C7
:105A30005C4538BF0024852B86D14FF00109A1E7D2
:105A4000C7EB0A085FFA88F8B8F10F0F28BF4FF0CC
:105A50000F0843463A4600990AA801F0B1FA002817
:105A60004DD04744FFB2BA457FF46EAF029B180693
:105A70003FF53CAF13F0320F05D096F8313013F0FC
:105A8000110F7FF433AF029AD106134640F1B28072
:105A90009A077FF52BAF96F83130002B3FF426AFF5
:105AA000002100220023B161C6E90023304600F046
:105AB000EFFB00283FF41AAF01201AE79DF82930C8
:105AC0009DF8042086F833209F0744BF9DF80C30D2
:105AD00086F83330DDE90C23DDE91001C6E9042343
