:1000000000800020BD01000085DD00003DDD000016
:100010003DDD00003DDD00003DDD00003DDD000078
:100020003DDD00003DDD00003DDD000085DD000020
:1000300085DD00003DDD0000E1F9000031FC00003D
:1000400085DD000085DD000085DD000085DD000028
:1000500085DD000085DD000085DD000085DD000018
:1000600085DD000085DD000085DD000085DD000008
:1000700085DD000085DD000085DD000085DD0000F8
:1000800085DD000085DD000085DD000085DD0000E8
:1000900085DD000085DD000085DD000085DD0000D8
:1000A00039A8000085DD000085DD000085DD000049
:1000B00085DD000085DD000085DD000085DD0000B8
:1000C00085DD000085DD000085DD000085DD0000A8
:1000D00085DD000085DD000085DD000085DD000098
:1000E00085DD000085DD000085DD000085DD000088
:1000F00085DD00003101010085DD00005D020100A9
:1001000085DD00008903010085DD000085DD00003C
:1001100085DD000085DD000085DD000085DD000057
:1001200085DD000085DD000085DD000085DD000047
:1001300085DD000085DD000085DD000085DD000037
:1001400085DD000085DD000085DD000085DD000027
:1001500085DD000085DD000085DD000085DD000017
:1001600085DD0000DDE4000085DD000085DD0000A8
:1001700085DD000085DD000085DD000085DD0000F7
:1001800085DD000085DD000085DD000085DD0000E7
:1001900085DD000085DD000085DD000085DD0000D7
:1001A00085DD000085DD000085DD000085DD0000C7
:1001B00085DD000085DD00006DF70000564B4CF238
:1001C000205210B51A804DF628121A8000BF00BFC9
:1001D00000F0D4FB514B4FF010621A60504A9A6005
:1001E000504ADA60504A136813F4807304D14F49BF
:1001F0000B604FF4A85313604D4B1A78110703D5C9
:100200001A7842F008021A704A4B4B492A221A7097
:100210004A4A4B4B8B4204D252F8040F43F8040B6A
:10022000F8E7484B484900228B4202D243F8042B9E
:10023000FAE74649464A002352F8230041F82300D2
:1002400001336F2BF8D1434B434A802103F8011B44
:100250009342FBD1414B3D4A1A60414B8A221A70AE
:10026000A3F5805324225A70A0221A709A7992071B
:10027000FCD59A79D406FCD43A4A937903F00C035E
:10028000082B384BF9D103221A7140225A719A79FE
:100290009006FCD5334A9179324B4906FBD5324A58
:1002A000324911600221516020221A709A7902F0BD
:1002B0000C020C2AFAD12E4B2E4A1A602E4B2F4AD2
:1002C0001A6000225A60072243F8042C2C4AC3F813
:1002D0000C2D62B60DF078FE144B1B68DA0705D5BD
:1002E00028480DF05FFE284B284A1A60284B1B78DF
:1002F0005B0609D5244C254B22689A4204D121483B
:100300000DF050FE0023236011F024FC0DF03EFDA3
:100310000FF06CFEFEE700BF0E2005403080044069
:10032000823F04000100002B10D0034014D0034092
:1003300002D0074000E00740180A0020D89F0100C3
:1003400020F9FF1F180A00205C57002000F4FF1F4F
:100350000000000000E400E05FE400E008ED00E0E1
:100360000050064000400640448004400000030165
:1003700004800440C010050014E000E0FF76010096
:100380000000202096A1DF5E1CE00340A5C3945A24
:1003900000F00740FFFFFFFFFFFFFFFFFFFFFFFF32
:1003A000FFFFFFFFFFFFFFFFFFFFFFFFFFFFFFFF5D
:1003B000FFFFFFFFFFFFFFFFFFFFFFFFFFFFFFFF4D
:1003C000FFFFFFFFFFFFFFFFFFFFFFFFFFFFFFFF3D
:1003D000FFFFFFFFFFFFFFFFFFFFFFFFFFFFFFFF2D
:1003E000FFFFFFFFFFFFFFFFFFFFFFFFFFFFFFFF1D
:1003F000FFFFFFFFFFFFFFFFFFFFFFFFFFFFFFFF0D
:10040000FFFFFFFFFFFFFFFFFFFFFFFFDEF9FFFF23
:1004100010B5054C237833B9044B13B10448AFF33E
:1004200000800123237010BD180A00200000000086
:10043000D49F0100084B10B51BB108490848AFF321
:1004400000800848036803B910BD074B002BFBD0A0
:10045000BDE81040184700BF000000001C0A002043
:10046000D49F0100180A00200000000000207047FF
:10047000704700BFF8B55548554D564C297803785C
:100480002278DFF868E1544F544E120442EA032305
:10049000FF222A700270802022708EF800003870CF
:1004A000B2794F480B4312F00C0FC36002D1B379FD
:1004B000DC063DD4494A9379C3F38103032B40D032
:1004C000464B9A79C2F38102022A42D0434A937979
:1004D000C3F38103022B53D0404A9379C3F38103C2
:1004E000022B61D03D4A9379C3F38103012B51D094
:1004F0003A4A9379C3F38103012B5CD0374B9A7945
:1005000012F00C0F03D19A79D20600D49B79354DA5
:10051000354B2A7853F82240D4B1236820469B6893
:1005200098472B7804EB83046468002CF5D1F8BD60
:10053000B3799806EBD5294A9379C3F38103032B4A
:10054000BED19379D906BBD493799B06DFD4B7E7A4
:10055000F8BD9A79D706B9D49A799606B6D559785E
:1005600001F0020101F0FF020029AFD120211A7031
:100570001A461970937903F00C030C2BFAD1C6E7D5
:100580009379DD06A8D493799C06A5D4537898076F
:10059000BDD5A1E79379DF06AAD593799E06A7D4A6
:1005A00053789D07B3D4A3E79379D9069AD45378A7
:1005B0009B07ACD496E79379DC069FD59379980690
:1005C0009CD453789907A2D598E700BF06C007408E
:1005D00005C0074007C0074009C00740004006406B
:1005E000345700200C540020CC53002008C0074092
:1005F00090F92410104B03604B1C06D0F0B40F4E42
:1006000056F82130984201D0F0BC70470C4F57F893
:10061000213033B18D0000245A1953685460002BE7
:10062000FAD1084C23780022013B237047F821209F
:1006300046F82120E8E700BFC08D0100EC53002000
:10064000CC5300200D54002038B590F924506B1C79
:100650001BD00E4B0E4953F825400E4BEDB24FF018
:10066000FF320D701A6084B1AD0002E02C44646862
:100670005CB194F82530002BF8D0236820462C4438
:100680001B6898476468002CF3D138BDCC53002018
:100690000C540020B8F3FF1F704700BF90F92410DE
:1006A000104B03604B1C06D0F0B40F4E56F82130AF
:1006B000984201D0F0BC70470C4F57F8213033B14D
:1006C0008D0000245A1953685460002BFAD1084C4D
:1006D00023780022013B237047F8212046F821208F
:1006E000E8E700BFC08D0100EC530020CC53002090
:1006F0000D54002090F92410104B03604B1C06D0C1
:10070000F0B40F4E56F82130984201D0F0BC70473B
:100710000C4F57F8213033B18D0000245A1953681B
:100720005460002BFAD1084C23780022013B23703F
:1007300047F8212046F82120E8E700BFC08D0100DE
:10074000EC530020CC5300200D540020704700BF14
:1007500010B5002104460EF04FFFB0B1B4F8B4312B
:100760009BB2C3B1B4F8B031B4F8B2219BB201333B
:10077000632BC8BF002392B2934207D09A1D04EBAB
:1007800082029BB25060A4F8B03110BDD4F8B831E9
:100790000133C4F8B831BDE810400EF0E9BE00BF27
:1007A00010B5044B044640F8103B08F039FA2046D7
:1007B00010BD00BF6C8D01002DE9F0410E46804652
:1007C0000DF0EAFB234C20600AF0B2FD05462068DC
:1007D0000AF08AFD074620680AF074FDA5F2BC7392
:1007E0009BB27F2B02D8FAB20C2A28D90023A8F892
:1007F000003020680AF08AFD074620680AF03EFDB6
:10080000054620680AF04CFDFBB2172B13D8EBB25B
:100810003B2B10D8C3B23B2B0DD8FB026D0103F468
:10082000FF2305F4FF552B43C0F3460003439BB25F
:100830003380BDE8F08100233380BDE8F081C0B291
:100840001F28D3D87F0107F4FF57384340EA4323DA
:100850009BB2CCE7184F002010B504460EF00CFFF9
:10086000204610BD826C62B1137803F0080303F0D8
:10087000FF0003B3D3695069181A48BF6FF00040F6
:100880007047C16CC1B191F8313003F0080303F037
:10089000FF0083B1D1E90423D1E90001101A30B47B
:1008A00063EB010100256FF000448D4208BF8442D4
:1008B00000D2204630BC704708467047836C13B1A5
:1008C000184606F0FFBEC06C08B105F0ADB9704720
:1008D00000B5836C83B063B1184601220DF10701A6
:1008E00006F03EFD01280CD19DF8070003B05DF82D
:1008F00004FBC06C28B101220DF1070104F0B2FC29
:10090000F0E74FF0FF30F1E7836C13B1184606F0C3
:10091000F1BDC06C08B104F075BD4FF0FF307047F9
:10092000836C13B1184606F029BFC06C08B105F0FE
:100930009FBB704700B5836C83B08DF8071043B13F
:10094000184601220DF1070106F018FF03B05DF80B
:1009500004FBC06C0028F9D001220DF1070105F05D
:1009600087FB03B05DF804FB38B505460FF07EF950
:10097000044628460FF0D2F9204438BD464A474B7A
:10098000102010801B781B0734D5F0B5444E454D20
:10099000454C31782B782278DFF82CE1434F8240A8
:1009A00042EA03230B43FF22802132702A70227017
:1009B0008EF800103970D9073D4A14D51A23936078
:1009C0003C4F3D4E3D4D3E4C3E49107900233B701F
:1009D00053709370D370D360337013712B70237086
:1009E00013700870F0BD1F0705D4DE0606D504237A
:1009F0009360E5E7704721239360E1E79D0604D407
:100A00005C0604D516239360DAE79060D8E71806F1
:100A100002D509239360D3E7D90502D50A23936051
:100A2000CEE79F0502D50D239360C9E75E0502D589
:100A30000B239360C4E71D0502D51E239360BFE717
:100A4000DC0402D502239360BAE7980402D5072399
:100A50009360B5E7590402D506239360B0E71F04FD
:100A600002D515239360ABE7DE0302D52423936000
:100A7000A6E79D0302D522239360A1E7DC0202D5FD
:100A8000252393609CE71803F5D45903F3D49B0204
:100A900044BF2323936093E70020054002D0074022
:100AA00005C0074006C0074007C0074009C007400F
:100AB0003457002000C0074001C0074002C0074073
:100AC00003C0074004C0074008C00740002976D093
:100AD0002DE9F04F0C469100631883B05D68002D3E
:100AE00057D06B185E68002E50D073185F68002FC7
:100AF00049D07B18D3F80480B8F1000F3CD008EB44
:100B00000103D3F80490B9F1000F32D009EB0103CF
:100B1000D3F804A0BAF1000F27D00AEB0103D3F8F1
:100B200004B0BBF1000F18D00BEB01035B6863B19D
:100B3000194401934968FFF7C9FF019B93F82520E9
:100B40001AB11A681846536898479BF8253023B1A4
:100B5000DBF8003058465B6898479AF8253023B197
:100B6000DAF8003050465B68984799F82530002B3A
:100B700035D198F8253063BB97F825301BB13B6819
:100B800038465B68984796F82530CBB995F82530FC
:100B900063B994F8253013B903B0BDE8F08F23682A
:100BA0005B68204603B0BDE8F04F18472B68284625
:100BB0005B68984794F82530002BEDD0EFE770473D
:100BC000336830465B68984795F82530002BE0D0B5
:100BD000ECE7D8F8003040465B689847CCE7D9F896
:100BE000003048465B689847C3E700BF90F924206F
:100BF000531C26D01B4B2DE9F04153F82240D2B2B2
:100C0000ECB19300E1184D68B5B1E9184E6866B1D2
:100C1000F1184F6837B13B445968FFF757FF97F811
:100C20002530A3B996F8253063B995F825301BB166
:100C30002B6828465B68984794F8253063B9BDE86F
:100C4000F0817047336830465B689847EDE73B6852
:100C500038465B689847E5E7236820465B68BDE84F
:100C6000F0411847CC5300202DE9F843544CB4F818
:100C7000B021B4F8B23192B29BB29A4238BF64321A
:100C8000D31A3F2B67DD4F4DD4F8AC91DFF830819C
:100C900005F58047002637E04FF4807200210CF004
:100CA00093FC48460EF064FCC4F8AC61B4F8B23171
:100CB000B4F8B0219BB292B293424ED00133632B71
:100CC00086BF4FF0000E73461FFA83FE063304EB17
:100CD00083034FF48072D3F80490C4F8AC9109F107
:100CE00004012846A4F8B2E10CF06EFCB9F1000F43
:100CF00004D048460EF03CFCC8F8AC6105F5007520
:100D0000AF424FF0000934D0A5F58070B9F1000F63
:100D1000C2D1B4F8B231B4F8B0219BB292B29342CE
:100D200048D00133632B86BFCE4673461FFA83FE3D
:100D3000063304EB83034FF48072D3F80490C4F8B5
:100D4000AC9109F10401A4F8B2E10CF03DFCB9F159
:100D5000000FABD0A5E7BDE8F88328464FF48072BA
:100D6000002105F500750CF02FFCAF424FF0000993
:100D7000CAD1154B986C60B14FF48042134906F00C
:100D8000FDFC01300ED0124A136820331360BDE819
:100D9000F883D86C0028F6D04FF480420B4905F058
:100DA00067F9EEE7012114200CF062FF094B0A4AB3
:100DB0001A60E8E749464FF480720CF005FC75E7CD
:100DC0002C4F00206C0B0020285200206C0A0020C1
:100DD000284F00200CED00E00400FA0570B5124C1D
:100DE000124D13480D210EF0EBF920460EF096FF40
:100DF0002E88104810210EF0E3F9314620460EF0FF
:100E000035FF20460EF08AFF0B4A0C4B12882A80D1
:100E10000B480022A3F8B42107F002FF6420BDE8CC
:100E200070400DF033BA00BFB8FFFF1F24550020FB
:100E3000E48D0100F48D01004C5500202C4F002062
:100E4000385200202DE9F04F9DB00DF0A5F8B54CBB
:100E5000B54D20600AF048FA2B68984200F04582B0
:100E60000A21B248B24E0EF0ABF9B2480EF056FF6E
:100E700020680AF039FA286020680AF059FA2B68CD
:100E8000AD490246AD4811F0C5FCAD4808F076FC0E
:100E9000D6F87854002D00F0058105F23C4101237D
:100EA0000025A64A8DF8205008A88DF821508DF80D
:100EB000225006F005F9152000210DF0ABF9D6F807
:100EC00078049B4B002800F007829C4907F032FE13
:100ED00020680AF02DFA074620680AF005FA8046D5
:100EE00020680AF0EFF9834620680AF00FFA81467D
:100EF00020680AF0C3F9824620680AF0D1F9434617
:100F000003903A468F49CDF800B0CDF808A0CDF84F
:100F100004908D4811F07EFC894808F02FFC0025D4
:100F2000142415200CF088FD10F0DCF94FF06A5104
:100F300010F02CFA0146284610F020F9013C054635
:100F4000EFD1D6F878447A4B002C00F0B68104F249
:100F50003C47384605F060FF2146384606F0E0F988
:100F6000DFF81C92794CD9F80010002900F0AD8010
:100F7000774A04F1100040F2092307F065FE0028CB
:100F800000F0A380704811F09BFC0246A06C002882
:100F900000F0B9816C4906F0F1FBA06C2C238DF8B0
:100FA0001C30002800F0A681012207A906F0E6FB0C
:100FB000684F07F1080ADFF8948117F8011F4046CF
:100FC00000230A220EF0D0FE5745F4D1D8F848008D
:100FD0002C238DF81F30002800F0B18101220DF183
:100FE0001F0106F0CBFB5C4B584F18680FF024FD37
:100FF0004FF0020E02460B46CDF800E038460EF0E8
:10100000F3FEA06C2C238DF81E30002800F08D819B
:1010100001220DF11E0106F0B1FB28464F494B4D50
:1010200010F0B4F94E4910F065FA07460FF004FDD0
:101030004FF0020E02460B46CDF800E028460EF0B7
:10104000D3FEA06C2C238DF81D30002800F06381A6
:1010500001220DF11D0106F091FB424811F030FC18
:101060000246A06C3949002800F074813D4906F021
:1010700085FB364D28460EF051FE38463A4910F0B1
:1010800023FB002840F06E81384807F0C9FDD6F8F0
:101090007804274B48BBD3F87C0448B3274905F0B4
:1010A00093FD25E0D6F87C1400293FF404AF01F548
:1010B00088610123214A8DF8515008A88DF85250BB
:1010C0008DF8535004F0B2FEF5E60E2128480EF0DC
:1010D00077F8142001210CF0CBFD264BD6F87804CC
:1010E000254A1A60124B0028D5D0144907F022FD7A
:1010F000D9F8001029B140F60123134A1B4807F024
:10110000A3FD1148114F1D4DDFF86890DFF868808E
:1011100011F0D6FB01460C480EF052F805480EF0CF
:10112000FDFD5BE0184F002090520020088E01006A
:10113000704A0020B8FFFF1F148E0100EC50002001
:10114000B9070000208E0100A8510020285200207D
:10115000408E01006751002078510020CDCCCC405A
:101160000000A04108FAFF1F000040403852002054
:10117000808E01000CED00E00400FA05E85000202C
:101180000053002007F0D6FC40F60123944A95490D
:1011900008A807F011FE9DF824E00A9A9DF82C306B
:1011A00084F804E0A2600CA923738F4807F0E8FCE0
:1011B0008E4B08930CA807F033FD894811F080FB93
:1011C000014687480DF0FCFF89480EF0A7FD0A2074
:1011D0000DF05CF82B68B3F57A7F5FDCA36C854972
:1011E0007F48BBB9FA6CAAB92B6801331A462B6049
:1011F00011F010FBD6F878347F497A4A1846002B54
:10120000C0D1D2F87C347C491846002BBCD005F004
:10121000DBFCB9E779487A4907687A4D7A4E7B4A10
:10122000059303C9286096E80300A86092E80300CC
:1012300010260122AA82EA82E8602E61384610F068
:1012400091FA3946A86138460FF098FF10F08AFAF3
:10125000DFF8E4816E49D8F80020E86103C9520242
:10126000059B6E84022702F124012F846862AA6222
:101270006960D3B1294618462C2206F07FFA09216D
:1012800064480DF09DFFD8F8001059480EF0EEFCB0
:1012900057480EF043FD1DB0BDE8F08F012114202A
:1012A0000CF0E6FCC9F8008098E7E06C0028E6D076
:1012B00029462C2204F0DCFEE1E7D3F87C44002C24
:1012C0003FF44EAE04F58867384603F04FFF2146E1
:1012D000384603F055FF43E6D3F87C0400283FF47A
:1012E000F7AD454905F070FCF2E53E4EE3E52C23F1
:1012F0008DF81C30E06C00283FF45AAE012207A99B
:1013000004F0B6FE54E6E06C0028F0D0344904F056
:10131000AFFEA06C42E6E86C00283FF4AAAE0122C2
:101320000DF11D0104F0A4FE97E6F86C00283FF4CF
:1013300074AE01220DF11E0104F09AFE6DE6D8F89C
:101340004C0000283FF44FAE01220DF11F0104F0C4
:101350008FFE48E6C86C00283FF48BAE2E4904F09F
:1013600087FE86E6A86C90B328222C4906F006FA80
:101370002B480EF0D3FC1C4807F052FC0027142524
:1013800015200CF059FB0FF0ADFF4FF06A510FF034
:10139000FDFF014638460FF0F1FE013D0746EFD153
:1013A00020490FF0F3FF204910F0A4F81F4910F076
:1013B0008BF920B147F230500CF068FFDEE70121D5
:1013C00014200CF055FC1A4B1A4A1A605CE6E86CC3
:1013D0000028CDD02822114904F04AFEC8E700BFFA
:1013E000A8510020704A0020385200206C8D010066
:1013F000B8FFFF1FB08E0100EC5000207852002093
:10140000908E0100D4520020988E0100A08E010021
:10141000A88E0100748E010008FAFF1F488E01009B
:1014200028520020CDCCCC400000A04133335340A3
:101430000CED00E00400FA050852002038B50E213A
:101440001C481D4D0DF0BCFE1C480EF067FCFFF75C
:10145000F9FC1B4BD5F8AC0100241C6018B10EF050
:1014600087F8C5F8AC41B5F8B241B5F8B031A4B2CF
:101470009BB2A3420ED00134642C28BF0024A31DCC
:1014800005EB830358680EF073F8B5F8B0319BB2E2
:10149000A342F0D10123A4B20B210A48A5F8B2411E
:1014A000A5F8B4310DF08CFE0448BDE838400EF0CC
:1014B00035BC00BFBC8E01002C4F0020B8FFFF1FC1
:1014C000284F0020CC8E010038B51F4BD3F878444C
:1014D00024B304F23C45284605F09EFC21462846EC
:1014E00005F01EFF194B1968B1B1194C194A04F1E6
:1014F000100040F2092307F0A7FB70B1A06CD8B12F
:101500002922154906F03AF911480EF007FC134854
:10151000BDE8384007F084BB38BD38BDD3F87C4403
:10152000002CDFD004F58865284603F01FFE214615
:10153000284603F025FED5E7E06C0028E4D02922F8
:10154000054904F095FDDFE7704A002000530020B4
:1015500028520020408E0100D88E01003852002011
:10156000264B1B680F2B0CD8DFE803F00C10141867
:101570001C2024282C3034383C404408204B214A7D
:101580001A6070471E4B204A1A6070471C4B1F4A56
:101590001A6070471A4B1E4A1A607047184B1D4A52
:1015A0001A607047164B1C4A1A607047144B1B4A4E
:1015B0001A607047124B1A4A1A607047104B194A4A
:1015C0001A6070470E4B184A1A6070470C4B174A46
:1015D0001A6070470A4B164A1A607047084B154A42
:1015E0001A607047064B144A1A607047044B134A3E
:1015F0001A607047024B124A1A60704700FAFF1FC8
:1016000078510020BD549341103377C0993918C0E8
:10161000BE0D68BFCE71153F8D090340CCC9624035
:1016200009A7A3407DDBD140C416014154FC1741FA
:10163000D0E83041195546419FAB5F41A04176410A
:101640005E2E86412DE9F0438FB0044611F038F943
:1016500000B201281CDDB4F9003044F25372934209
:1016600000F0878118DD44F65452934200F0D58093
:1016700045F2532293422AD044F65212934207D1A4
:101680000BAAE01CC44911F0EBF8C44B0B9A1A608A
:1016900001200FB0BDE8F08344F24E4293420FD0D8
:1016A00044F252429342F3D10BAAE01CBA4911F022
:1016B000D7F8BB4B0B9A1A6001200FB0BDE8F0833E
:1016C000B84B012201201A600FB0BDE8F0830AADCB
:1016D00009A908AA05ABE01C0395029101920093A9
:1016E00007AA06ABB04911F0BBF8B04B079D59688B
:1016F00018689A680A9EDDF824E0DDF820C0A5F598
:10170000FA65ADB20BAF2CB207C7069F05991E3420
:1017100015F0030F4FEAA408FDB240F05C81A44B22
:10172000022D8CBF1F460027A248A34BC8EB040420
:1017300000FB08F06A1E03FB0400002A00EB07030D
:1017400047DD9DF82C409A48012A00FB043340D025
:101750009DF82D40022A00FB04333AD09DF82E401C
:10176000032A00FB043334D09DF82F40042A00FBE9
:1017700004332ED09DF83040052A00FB043328D0D6
:101780009DF83140062A00FB043322D09DF83240F8
:10179000072A00FB04331CD09DF83340082A00FBC5
:1017A000043316D09DF83440092A00FB043310D0CE
:1017B0009DF835400A2A00FB04330AD00B2A9DF815
:1017C000364018BF9DF8372000FB043318BF00FBDC
:1017D00002335FFA8EF2C2EB02125FFA8CF04FF422
:1017E0006164920004FB0022714D744C7448C9B2CC
:1017F000013952FA86F205FB0122134412212360BB
:101800000DF0DEFC21686F480EF030FA6D480EF0E6
:1018100085FA01200FB0BDE8F0830AAD09A908AA36
:1018200005ABE01C039502910192009307AA06AB59
:101830005D4911F015F85D4B079F9A681868596863
:101840000A9EDDF824E0DDF820C0A7F5FA67BFB2F4
:101850000BAC3DB207C4069A059C1E3517F0030F6A
:101860004FEAA508D7B240F0B380514B022F8CBF8E
:1018700099464FF000094F494F4BC8EB050501FB56
:1018800008F17A1E03FB0510002A00EB090347DD6F
:101890009DF82C004649012A01FB003340D09DF8F9
:1018A0002D00022A01FB00333AD09DF82E00032AB6
:1018B00001FB003334D09DF82F00042A01FB0033D4
:1018C0002ED09DF83000052A01FB003328D09DF86A
:1018D0003100062A01FB003322D09DF83200072A8E
:1018E00001FB00331CD09DF83300082A01FB0033B4
:1018F00016D09DF83400092A01FB003310D09DF862
:1019000035000A2A01FB00330AD00B2A9DF8360065
:1019100018BF9DF8372001FB003318BF01FB0233CD
:101920005FFA8EF2C2EB02125FFA8CF04FF461653F
:10193000920005FB0022E1B21D4C204D52FA86F2C6
:10194000013904FB01241C4420462C600CF02AFBC6
:101950000B211D480DF034FC214600230A221948B2
:101960000EF002FA17480EF0D9F901200FB0BDE8C9
:10197000F083E01C0BAA084910F072FF0B9B0F2BA1
:101980002BD9124B042119600E200CF071F90120A3
:101990000FB0BDE8F08300BF248F010060FAFF1F85
:1019A00054FAFF1F680A0020048F0100CC8D01004B
:1019B000805101000085E2018033E101204F0020C9
:1019C000288F0100B8FFFF1F188F010000FAFF1FCA
:1019D0004FF000094FE70027A6E6024AD9B213608C
:1019E000D2E700BF00FAFF1F2DE9F04FDFF8A4A2F5
:1019F000DAF878449DB0002C00F09A8004F23C465E
:101A0000304605F009FA2146304605F089FC9F4C26
:101A10009F4AA04908A8002307F0CEF99DF824109A
:101A20000A9A9DF82C302171A2600CA9237304F14D
:101A3000100007F0A5F8984B08930CA807F0F0F8F1
:101A4000A06C002800F0DB800027DFF84092B84649
:101A50008DF800804FF0000BFF2698B1012208A9F5
:101A600005F07EFC012816D01CAB0BF1010103EB45
:101A70000B020BB21D2B02F8706C15DCA06C9B46A0
:101A80000028EBD1E06C0028EED0012208A903F079
:101A9000E9FB0128E8D19DF820200D2A08BF5B460C
:101AA00040F0D3801D2BE9DD013B9BB21CAA1A44F8
:101AB00002F8708C9DF800202F2A04D0012B02D947
:101AC0006846FFF7BFFDA06C90B10378190708D4F2
:101AD000724807F0A5F8002F39D101201DB0BDE8EC
:101AE000F08FC36942699A1AB2D4002AB0D1EFE7E5
:101AF000D9F84C30002BEBD093F831201207E7D502
:101B0000D3E904129446D3E900238B46BBEB020BC6
:101B10006CEB030C63464FF0000C5A469C456FF08B
:101B2000004B08BF934538BF5A46002A90D1CFE7F3
:101B3000DAF87C44002C3FF46AAF04F5886630463E
:101B400003F014FB2146304603F01AFB5FE70B213C
:101B500053480DF035FB00230A22294651480EF068
:101B600003F950480EF0DAF8DAF87864494B002EA1
:101B700037D006F23C47384605F04EF93146384634
:101B800005F0CEFB424A4349404E08A844F20223E6
:101B900007F012F99DF824100A9A9DF82C30217153
:101BA000A2600CA9237306F1100006F0E9FF3A4B7E
:101BB00008930CA807F034F8A36C002B3ED02946FC
:101BC000184605F0CDFCA06C304B78B302223649A4
:101BD00005F0D4FD314807F023F801201DB0BDE821
:101BE000F08FD3F87C64002ECCD006F58867384699
:101BF00003F0BCFA3146384603F0C2FAC2E7E66C9D
:101C0000002E7FF421AF142128480DF0D9FA254881
:101C10000EF084F80D22264926480EF011F82548CA
:101C20000EF07CF830461DB0BDE8F08FD86C00286F
:101C3000D0D002221C4904F01BFACBE7F06C00283C
:101C4000C8D02A4603F0F6FBBDE71CAB03EB0B0143
:101C5000542A0BF1010301F8702C1BB20ED1A26CB7
:101C60001AB15569013D01271CE7D9F84C2012B182
:101C70001568013DF7E74FF0FF35F4E71D2B3FF7FF
:101C800013AF0A2A3FF410AFF8E600BF2852002035
:101C90003C8F0100704A00206C8D010038520020FA
:101CA000488F0100B8FFFF1F548F0100588F0100BB
:101CB000708F0100D05100202DE9F8430CF06CF931
:101CC000874B884D186001218748884C884F894E82
:101CD000DFF864820AF0B6FA012183480AF0B8FA04
:101CE0002622002180480AF0A9FA032282497E4870
:101CF0000DF0A6FF262219217B480AF09FFA032245
:101D00007E4979480DF09CFF2622322176480AF060
:101D100095FA03227A4974480DF092FF26224B214E
:101D200071480AF08BFA022276496F480DF088FF5D
:101D30002E2200216C480AF081FA29686A480DF0C9
:101D400095FF2E22192168480AF078FA2168664822
:101D50000DF08CFF2E22322163480AF06FFA3B68A7
:101D600056F823000FF0BEFA67490FF0C3FB0EF0E0
:101D700063FE0B46024665495B480DF0E7FF2E22E5
:101D80004B2159480AF05AFA614B18680EF054FE7C
:101D900002460B4654485D490DF0D8FF2D683B685C
:101DA0005C4F56F8239028460FF09CFA06462068B0
:101DB00028440FF097FA014630460FF09BFB01468E
:101DC00004464FF07E500FF0D7F9534B19680FF0CF
:101DD000DDFA524B0646196820460FF0D7FA014645
:101DE00030460FF0CBF90146D8F800000FF082FB27
:101DF0004B490FF0CBFA0FF0B5FC4A4B064618687A
:101E000000233B60002852D00FF068FA804668003B
:101E100009FB00F02C300FF065FA4FF08E410FF007
:101E2000ADF939490FF066FB37490FF063FB014606
:101E300040460FF05FFB0EF0FFFD0EF011FC0FF0BF
:101E400027F903463B6000FB05F00FF047FA2146F7
:101E50000FF050FB044630460FF040FA0146204692
:101E60000FF050FC26225C2118BB1F480AF0E6F94F
:101E700005222D491C480DF0E3FE2E225C211A4854
:101E80000AF0DCF920460FF047FC2849034681FBA5
:101E9000032119441448DB17C3EB21410DF0E6FE82
:101EA000012223491048BDE8F8430DF0C9BE0020C7
:101EB000CDE70D480AF0C2F905221E490A480DF087
:101EC000BFFE5C2108482E220AF0B8F917490648DF
:101ED00081FB06313144F617C6EB2141DEE700BF36
:101EE000184F002054FAFF1FD051002060FAFF1F46
:101EF00050FAFF1F14FAFF1F808F0100848F01002A
:101F0000888F01008C8F010000007A44908F0100BF
:101F1000785100208052002058FAFF1F7CFAFF1FE2
:101F200000006145D0520020A08F010007452EC25D
:101F3000148F0100988F01005CFAFF1F38B5054629
:101F400009F0F6F91E4C014620460DF08FFE2D20BB
:101F50000DF00AFA284609F0C7F9014620460DF0AF
:101F600085FE2D200DF000FA284609F0ABF9014658
:101F700020460DF07BFE012112480DF021F9284684
:101F800009F0C4F9014620460DF070FE3A200DF02C
:101F9000EBF9284609F072F9014620460DF066FE7D
:101FA0003A200DF0E1F9284609F07AF90146204679
:101FB0000DF05CFE2046BDE838400DF0AFBE00BF1E
:101FC000B8FFFF1F0490010010B500200BF0FAFDD0
:101FD000234C207001200BF0F5FD607002200BF007
:101FE000F1FDA07003200BF0EDFD1E4BE0702268A8
:101FF0001A6004200BF0E6FD207005200BF0E2FDD6
:10200000607006200BF0DEFDA07007200BF0DAFDFB
:10201000154BE07022681A6008200BF0D3FD134BBB
:10202000187009200BF0CEFD114B18700A200BF030
:10203000C9FD104B18700B200BF0C4FD0E4B18702F
:102040000C200BF0BFFD0D4B18600D200BF0BAFDFE
:102050000B4B18600E200BF0B5FD0A4B186010BD3D
:102060007C51002054FAFF1F60FAFF1F600A002015
:10207000C8520020A4510020244F00200C52002000
:1020800050FAFF1F00FAFF1F264B10B51968264CA7
:1020900000202160C9B20BF0EBFD617801200BF04C
:1020A000E7FDA17802200BF0E3FDE17803200BF0BF
:1020B000DFFD1E4B196821600420C9B20BF0D8FD6A
:1020C000617805200BF0D4FDA17806200BF0D0FD3F
:1020D000E17807200BF0CCFD154B082019780BF0A8
:1020E000C7FD144B092019780BF0C2FD124B0A20D2
:1020F00019780BF0BDFD114B0B2019780BF0B8FDD2
:102100000F4B0C2019780BF0B3FD0E4B0D201978F6
:102110000BF0AEFD0C4B0E201978BDE810400BF013
:10212000A7BD00BF54FAFF1F7C51002060FAFF1FBB
:10213000600A0020C8520020A4510020244F002033
:102140000C52002050FAFF1F00FAFF1F2DE9F04F3C
:10215000102983B00C4606467FD0202976D04FF058
:10216000000A5FFA8AFA4AF0E06300210093012036
:102170004AF08E4301930FF0CBF801463A480FF036
:10218000B9F9074620460FF0A9F801460EF0F6FF10
:10219000044630460FF0A2F8014620460FF0F6F84C
:1021A000014638460FF0A6F94FF001084FF07E5572
:1021B0000746C1464FF0010A4FF0000B50460FF0A2
:1021C00091F839460FF0E2F804460FF0A5FA0FF047
:1021D00089F8014620460EF0CFFF294606460FF04B
:1021E00073FA4FF0874148B120460FF06DFA28B1DD
:1021F00020460FF0EFFA35468046D1461AF1010A23
:102200004BF1000BBBF1000F08BFBAF1400FD5D165
:102210001649174C0D681748174E09F1FF3208F19F
:10222000FF33120302F47F22C3F30B03134325F0A1
:1022300010420A602360009B0360019B33600B68BF
:1022400043F010430B6003B0BDE8F08F0B4B0193DC
:1022500003F140430A4F009394E70A4B019303F1C3
:102260004043094F00938DE7001B374C80F002403C
:1022700004F1024008F0024088F0024001000047EB
:10228000001BB74B03000047001B374B2DE9F04FF5
:102290000546DFF87C82974E974F98F800E02E6055
:1022A000FF2085F82400DFF86C92387859F820C0B8
:1022B0000023BEF1060F8DB00C4685F8253085F859
:1022C00026309CBF88F800309E46BCF1000F00F01D
:1022D000A8808C455BD06346810001E09C4256D0CB
:1022E0000B445B68002BF9D1634603EB010ADAF873
:1022F0000430002BF9D105EB010BCAF80440BEF104
:10230000060F4FF0FF044FFA80FACBF804308DF837
:102310002C4002968DF82D308DF82E3085F824A0B3
:10232000644605D8002388F80030002C00F0A9800E
:10233000A24226D0234601E0934222D00B445B68A0
:10234000002BF9D104EB010CDCF80440002CF9D18E
:10235000CCF804200CAB19440024431CBAF1FF3F15
:1023600041F8244C3B708DF82CA0029605D06349AF
:1023700051F82A3002AA934272D028460DB0BDE827
:10238000F08F0130387028460DB0BDE8F08F002383
:10239000FF21BEF1060F02968DF82C108DF82D301E
:1023A0008DF82E3001D888F800309445E9D0634686
:1023B000810001E09A42E4D00B445B68002BF9D124
:1023C0008C44DCF804402CB1A4468C44DCF8044076
:1023D000002CF9D10CAB19444FFA80FE431CBEF11E
:1023E000FF3FCCF804203B7041F8244C02968DF856
:1023F0002CE0C2D0414951F82E3002AA9342BCD100
:1024000059F82E304FEA8E0623B19A19536854605A
:10241000002BFAD10023387049F82E3041F82E30C5
:10242000ABE7B0B38100DFF8D4A049F8204005EB5A
:10243000010C00234AF82050BEF1060FCCF80430FE
:102440004FFA80FA4FF0FF0C02968DF82D308DF880
:102450002E3085F824A08DF82CC07FF663AF64E79A
:1024600059F82A304FEA8A0623B19A195368546002
:10247000002BFAD10023387049F82A3041F82A306D
:102480007BE7F0B11D4B49F8202002AA43F8202039
:1024900060E71B491B480B68019243F080630B60A7
:1024A0000368194923F08043036015200BF0A8FC52
:1024B000164B98F800E0019A4FF400111960387833
:1024C000B0E70F4C0F482368019243F0806323600C
:1024D00003680D4923F08043036015200BF090FC46
:1024E0000A4B019A4FF40011196038784FFA80FABC
:1024F0008100C7E7C08D01000D540020EC5300207F
:1025000004700440007004407504000000E100E025
:10251000BCF3FF1FCC5300202DE9F041614D624C0C
:10252000624E0BF007FB4FF0FF3161480AF056FC9A
:102530002A6826600023637223612372E3600AB96C
:10254000ABE01A465369002BFBD154610027594B6D
:1025500055486761A780E780A772236007F05AFF9C
:10256000554A4FF0010E02F118013B4638461772EA
:10257000D760166082F809E01161174600E03969FA
:1025800041F82300517A4C4E01339942F7DC296817
:10259000444B09B983E019464B69002BFBD14A61D2
:1025A000464D474B2C600024284654619480D480CB
:1025B0009472A2F8B0411360A2F8B241C2F8AC41E3
:1025C000A2F8B441C2F8B8412C726A606C72EC6037
:1025D0002C740DF01DF83B493B4A3C4F3C4E2846BD
:1025E0000FF0A6FA3B4A3C4B10693C4A1A600EF0C9
:1025F00079FE3B4D38604FF0FF083A4B85F8254097
:10260000012785F82480304A37496C632846AC633B
:1026100085F83C402B6085F826700FF089FA334B23
:1026200086F8248086F82540274A314933603046B1
:1026300086F8274086F8284086F826700FF078FA4A
:102640002A4631462B482C4DFFF720FE1E4A2B49C7
:1026500028480FF06DFA2A4B1B4AC3F87844282605
:10266000C3F87C4483F8984483F89564C3F8A05475
:102670002449254D18460FF05BFA244B124A1C7171
:102680004FF47A761C739C64DC649E601D60204964
:102690001846BDE8F0410FF04BBA2C6056E71E60BB
:1026A0007EE700BF2055002088510020B48D010036
:1026B000D0510020DC9301002C4F00204851002015
:1026C000E08D010059080000FCF9FF1F785200203E
:1026D0009852002014FAFF1F5C510020C0930100A3
:1026E000005100200C9401009D0600002094010080
:1026F000F5060000380A002001100138F10500003D
:10270000704A00204D070000908D010028520020E3
:10271000A107000010B5184C0A21204608F0E8F97E
:102720002046002107F0BCFF2046302107F0B8FF0B
:102730002046002107F0B4FF0021204607F0B0FF3B
:10274000204608F0E7F920460A2108F0D1F9204692
:10275000002107F0A5FF2046022107F0A1FF204637
:10276000002107F09DFF2046002107F099FF204639
:10277000BDE8104008F0CEB9B453002010B5184C95
:102780000A21204608F0B4F92046002107F088FF0E
:102790002046302107F084FF2046002107F080FF0B
:1027A000A221204607F07CFF204608F0B3F920461E
:1027B0000A2108F09DF92046002107F071FF20460C
:1027C000022107F06DFF2046002107F069FF204637
:1027D000432107F065FF2046BDE8104008F09AB994
:1027E000B45300200238032838B504DC002880F2F6
:1027F000F481002400E00C240A21CA48CA4D08F0E4
:1028000077F90021C74807F04BFF3021C54807F092
:1028100047FF4021C34807F043FF6021C14807F04C
:102820003FFFC04808F076F90A21BE4808F060F979
:102830000021BC4807F034FF2621BA4807F030FFDA
:102840000021B84807F02CFF6C21B64807F028FF9C
:10285000B44808F05FF90A21B24808F049F90021AC
:10286000B04807F01DFF2821AE4807F019FF0121ED
:10287000AC4807F015FFF021AA4807F011FFA9485E
:1028800008F048F90A21A74808F032F90021A548C4
:1028900007F006FF2A21A34807F002FF0021A14804
:1028A00007F0FEFE00219F4807F0FAFE9D4808F061
:1028B00031F90A219B4808F01BF90021994807F0DB
:1028C000EFFE2C21974807F0EBFE0F21954807F00B
:1028D000E7FE2221934807F0E3FE924808F01AF938
:1028E0000A21904808F004F900218E4807F0D8FE2C
:1028F0003C218C4807F0D4FE44218A4807F0D0FEE2
:102900004621884807F0CCFE864808F003F90A21E2
:10291000844808F0EDF80021824807F0C1FE242128
:10292000804807F0BDFE01217E4807F0B9FE37213F
:102930007C4807F0B5FE7B4808F0ECF80A2179489E
:1029400008F0D6F80021774807F0AAFE3021754834
:1029500007F0A6FE0021734807F0A2FEA2217148ED
:1029600007F09EFE6F4808F0D5F80A216D4808F080
:10297000BFF800216B4807F093FE0221694807F079
:102980008FFE0021674807F08BFE4321654807F062
:1029900087FE644808F0BEF84FF4C8700BF076FC70
:1029A0000A21604808F0A4F800215E4807F078FE8C
:1029B0002E215C4807F074FE19215A4807F070FE7A
:1029C0001921584807F06CFE564808F0A3F80A2170
:1029D000544808F08DF80021524807F061FE0421A8
:1029E000504807F05DFE00214E4807F059FE214691
:1029F0004C4807F055FE4B4808F08CF80A2149482E
:102A000008F076F80021474807F04AFE06214548BD
:102A100007F046FE0121434807F042FE30214148BD
:102A200007F03EFE3F4808F075F80A213D4808F0DF
:102A30005FF800213B4807F033FE0A21394807F0D0
:102A40002FFE0021374807F02BFE0021354807F004
:102A500027FE344808F05EF80A21324808F048F8AA
:102A60000021304807F01CFE0E212E4807F018FE0A
:102A700000212C4807F014FE08212A4807F010FE18
:102A8000284808F047F80A21264808F031F80021C4
:102A9000244807F005FE1021224807F001FEFF211F
:102AA000204807F0FDFD3C211E4807F0F9FD1D48B8
:102AB00008F030F80A211B4808F01AF800211948DC
:102AC00007F0EEFD2221174807F0EAFD7F211548A7
:102AD00007F0E6FD7F21134807F0E2FD114808F0FA
:102AE00019F80A210F4808F003F801210D4807F0F2
:102AF000D7FD24210B4807F0D3FD0021094807F03A
:102B0000CFFD0021074807F0CBFD064808F002F88A
:102B10000A21044807F0ECFF0021024807F0C0FD3D
:102B200004E000BFB453002000FAFF1F24212C480A
:102B300007F0B6FD00212A4807F0B2FD142128480D
:102B400007F0AEFD264807F0E5FF0A21244807F00C
:102B5000CFFF0021224807F0A3FD2A21204807F0DB
:102B60009FFD00211E4807F09BFD00211C4807F037
:102B700097FD1B4807F0CEFF09211A480CF020FBF7
:102B800000230A22296818480DF0EEF816480DF0C7
:102B9000C5F80A2112482C6807F0AAFF0021104846
:102BA00007F07EFD20210E4807F07AFDC4F30721CF
:102BB0000B4807F075FDE1B2094807F071FD0848C0
:102BC00007F0A8FFB0FA80F1490907480DF04EF868
:102BD00005480DF0A3F8012038BD8000C4B20BE613
:102BE000B4530020AC8F0100B8FFFF1F38B501219E
:102BF0000446314809F026FB372200212E4809F00F
:102C00001DFB204608F094FB01462B480DF02EF8E2
:102C10002D21294809F0D8FA204608F065FB014625
:102C200025480DF023F82D21234809F0CDFA204640
:102C300008F048FB014620480DF018F802221F4911
:102C40001D480CF0FDFF204608F060FB092803DC5E
:102C50003021194809F0B8FA204608F057FB014620
:102C600015480DF003F8204608F008FB0122054640
:102C7000134911480CF0E4FF092D03DC30210E4804
:102C800009F0A2FA29460C480CF0F0FF204608F0A3
:102C900007FB012204460A4907480CF0D1FF092C22
:102CA00003DC3021044809F08FFA21460248BDE8D0
:102CB00038400CF0DBBF00BFD0510020B88F0100BE
:102CC000F48F01002DE9F04F052193B0BE48BF4EAF
:102CD000DFF86893BE4D0CF073FABE4BBE4819681E
:102CE0000A2200230DF040F8BB480DF017F80B2125
:102CF000BA480CF065FAB8480DF010F8FFF764F91F
:102D0000FEF72EFC0521B0480CF05AFAB14BB24840
:102D100019680A2200230DF027F8AF480CF0FEFFD7
:102D20000BF03AF93060AE480AF06CF80121AC487B
:102D300009F08EFA0221AA4809F084FA002211460D
:102D4000A74809F07BFA0922A649A5480CF078FFAC
:102D50000121A34809F076FA10220021A04809F0C9
:102D60006DFA1222A0499E480CF06AFF9C480CF0B4
:102D7000D5FF00249848C9F800400CF0CFFF9648D2
:102D80000CF0CCFF052199480CF01AFA94480AF08F
:102D900075FA0721964806F007FF0E21944806F0C1
:102DA0008FFF0C21924806F047FF0A27DFF890E2D8
:102DB0008DF825400B948DF82470CDF828E009ABF0
:102DC00093E807000CAB83E807008DF831400E94C0
:102DD0008DF83070CDF834E093E807000FAB83E84E
:102DE0000700119A009205F591680CCB404605F258
:102DF0009C4106F043F895F89544C5F88484002C6E
:102E000001F04B831C217B480CF0DAF972480CF07E
:102E100085FF0622784972480CF012FF70480CF0CA
:102E20007DFF6F480AF02AFA744A754B12689A427D
:102E300001F27883734A724B12689A4201F28D83D1
:102E4000714B1A78172A01F2A283704B1A783B2A29
:102E500001F2A8836E4B1A78172A01F2AE836D4BEC
:102E60001A783B2A01F2B4836B4B1A68012A05D900
:102E7000002211460C201A600AF0FAFE674B1B680C
:102E8000092B01F2B583534B524A1B680F2B01F2F9
:102E9000A783634DDFF8A0810BF07EF837682860C8
:102EA000C71BB7F5167F4FF00400D4BF00270127DA
:102EB0000BF0A2F9002800F0C88003200BF09CF969
:102EC000002800F0E98008200BF096F9002800F0B7
:102ED000CD80434809F096FF0121414809F0B8F937
:102EE00002213F4809F0AEF9002211463C4809F0A2
:102EF000A5F902213A4809F0A5F9D8F80030494A65
:102F000052F8234020460FF0DBFC214602463448AD
:102F10000CF096FE32480CF001FF0121304809F018
:102F200091F9D8F80030404A52F8234020460FF07B
:102F3000C7FC214602462A480CF082FE28480CF0C5
:102F4000EDFEFEF7B9FE0121254809F07BF90022CC
:102F50006421234809F072F94FF000091424152068
:102F60000AF06AFD0EF0BEF94FF06A510EF00EFA4B
:102F7000014648460EF002F9013C8146EFD12B494B
:102F80000EF004FA2A490EF0B5FA0DF055FD0124B1
:102F90000B460246009412480CF026FF22462549B3
:102FA0000F480CF04DFE0AF0F7FFFFF71FFE0C482C
:102FB0000AF064F90A200BF069F9002F3FF46CAFB6
:102FC00013B0BDE8F08F00BFBC8F01006C4A002039
:102FD000704A002000FAFF1FB8FFFF1FC48F0100D6
:102FE000D0510020D08F0100DC8F0100F08F010054
:102FF00080FAFF1F0C9001002C90010054FAFF1F73
:10300000A086010060FAFF1F600A0020C85200205D
:10301000A4510020244F00200C52002050FAFF1F22
:10302000184F002038FAFF1F64FAFF1FCDCCCC40A8
:103030000000A041A88F010074510020D052002050
:1030400080F0FA020A200BF021F904200BF0D4F8EA
:103050000028F7D0D8F80030164A0133052BC8BF36
:103060000023136029E70A200BF010F908200BF069
:10307000C3F80028F7D0D8F800300393052B01F2ED
:103080000983DFE813F0CE08190844078906B20562
:1030900019000A200BF0FAF803200BF0ADF8002815
:1030A000F7D0D8F80030034A013B48BF052313602E
:1030B00009E700BF74510020C64C0597082003940F
:1030C0000BF09AF80128824640F0D4802868C24F5D
:1030D00008F02EF9044604203C600BF08DF883467E
:1030E00003200BF089F88146BBF1000F41F0F4801A
:1030F000BA4B039A1B6882F800A0132B41F30D8191
:10310000B64A013313600134B9F1000F41F0EB808E
:10311000DFF8E8A20399DAF800300122132B0A70D5
:1031200041F3F080092CCABFDAF8003001230133E3
:10313000013CCAF80030B4F5FA6FC1F2C98040F61C
:1031400034039C42C8BF4FF4FA643B68DFF8B09286
:10315000A342C9F800402CD0286808F0D7F80746E9
:10316000286808F08BF80446286808F099F804905D
:10317000286808F0A7F88246286808F0B5F80DF12D
:10318000480E04990EF82C1DD9F800308DF8210056
:103190004E3370468DF822308DF81E708DF820A0C9
:1031A0008DF81D4008F0D8F80AF0FCFE0AF0F4FE95
:1031B00030608B4809F026FE0121894809F048F863
:1031C0000221874809F03EF800221146844809F0A0
:1031D00035F80522834982480CF032FD80480CF016
:1031E0009DFD0AF0D9FE08F0A3F801467C480CF0DA
:1031F0003DFDFEF761FD0121794809F023F8002229
:103200006421774809F01AF84FF0000A4FF01409CA
:1032100015200AF011FC0EF065F84FF06A510EF01F
:10322000B5F8014650460DF0A9FFB9F101098246F3
:10323000EED16D490EF0AAF86C490EF05BF90DF075
:10324000FBFB01240B460246009465480CF0CCFDC4
:103250002246674962480CF0F3FC61480AF00EF818
:1032600002200BF013F808200AF0C6FF012882465E
:103270003FF42CAF059F039C08200AF0BDFF0028F7
:10328000FAD00820059703940AF0B6FF0128824679
:1032900040F0EC802868574F08F026F804460420D8
:1032A0003C600AF0A9FF834603200AF0A5FF81468F
:1032B000BBF1000F41F06280484B039A1B6882F813
:1032C00000A0132B41F36480444A0133136001349E
:1032D000B9F1000F41F04D80DFF820A10399DAF831
:1032E00000300122132B0A7041F34D80092CCABF14
:1032F000DAF8003001230133013CCAF80030002C19
:1033000041F334800D2CA8BF01243B68DFF8F49012
:10331000A342C9F800402CD0286807F0F7FF074601
:10332000286807F0ABFF0446286807F0B9FF04904F
:10333000286807F0C7FF82462868D9F8009007F090
:10334000F7FF12AB049903F82C1D00F14E0E18463E
:103350008DF822E08DF81E708DF821908DF820A058
:103360008DF81D4007F0F8FF0AF01CFE0AF014FE6D
:1033700030601B4809F046FD0121194808F068FF3C
:103380000221174808F05EFF00221146144808F099
:1033900055FF0622184912480CF052FC10480CF058
:1033A000BDFC0AF0F9FD07F09FFF01460C480CF048
:1033B0005DFCFEF781FC0121094808F043FF002273
:1033C0006421074808F03AFF4FF0000A4FF0140953
:1033D0001AE000BF1C4F00208C5200202452002015
:1033E000D05100207C900100CDCCCC400000A04109
:1033F000A88F0100C4520020849001008852002050
:10340000805100204451002015200AF015FB0DF0DA
:1034100069FF4FF06A510DF0B9FF014650460DF0BB
:10342000ADFEB9F101098246EED1CC490DF0AEFFF7
:10343000CB490EF05FF80DF0FFFA01240B4602466F
:103440000094C8480CF0D0FC2246C749C5480CF08F
:10345000F7FBC44809F012FF02200AF017FF08200A
:103460000AF0CAFE012882463FF414AF059F039C70
:1034700008200AF0C1FE0028FAD00820059703941E
:103480000AF0BAFE0128824640F0CE802868B74F85
:1034900007F018FF044604203C600AF0ADFE8346A6
:1034A00003200AF0A9FE8146BBF1000F40F07F87A0
:1034B000AF4B039A1B6882F800A0132B40F381875F
:1034C000AB4A013313600134B9F1000F40F06A8751
:1034D000DFF8B0A20399DAF800300122132B0A704A
:1034E00040F36A87092CCABFDAF8003001230133A0
:1034F000013CCAF80030002C40F35187202CA8BFB3
:1035000001243B689B4FA3423C602CD0286807F005
:10351000FDFE8246286807F0B1FE0446286807F0E1
:10352000BFFE04902868D7F8009007F0DDFE07463C
:10353000286807F0FDFE12AB049A03F82C2D00F169
:103540004E0E18468DF822E08DF81EA08DF82170E1
:103550008DF820908DF81D4007F0FEFE0AF022FD48
:103560000AF01AFD30607F4809F04CFC01217D48CB
:1035700008F06EFE02217B4808F064FE002211462E
:10358000784808F05BFE04227B4976480CF058FB33
:1035900074480CF0C3FB0AF0FFFC07F093FE0146F1
:1035A00070480CF063FBFEF787FB01216D4808F0C3
:1035B00049FE002264216B4808F040FE4FF0000AEB
:1035C0004FF0140915200AF037FA0DF08BFE4FF07A
:1035D0006A510DF0DBFE014650460DF0CFFDB9F10A
:1035E00001098246EED15D490DF0D0FE5C490DF037
:1035F00081FF0DF021FA01240B4602460094594840
:103600000CF0F2FB2246584956480CF019FB55487D
:1036100009F034FE02200AF039FE08200AF0ECFD21
:10362000012882463FF432AF059F039C08200AF030
:10363000E3FD0028FAD00820059703940AF0DCFD8A
:103640000128824640F0E18028684C4F07F05EFE7A
:10365000044604203C600AF0CFFD834603200AF0B4
:10366000CBFD8146BBF1000F40F0D486404B039A5E
:103670001B6882F800A0132B40F3D6863C4A013326
:1036800013600134B9F1000F40F0BF86DFF8F4A0F9
:103690000399DAF800300122132B0A7040F3BF8639
:1036A000092CCABFDAF8003001230133013CCAF803
:1036B0000030002CC0F2A686182CA8BF00243B685E
:1036C000A3422AD0286807F0D9FD0746286807F0EA
:1036D000E7FD0490286807F0F5FD8146286807F0AB
:1036E00003FE8246286807F023FE12AB049903F814
:1036F0002C1D00F14E0E18468DF822E08DF81D703D
:103700008DF821A08DF820908DF81E4007F024FE42
:103710000AF048FC0AF040FC3060124809F072FBE5
:103720000121104808F094FD02210E4808F08AFD9E
:10373000002211460B4808F081FD05221049094876
:103740000CF07EFA07480CF0E9FA0AF025FC07F0C5
:10375000DDFD014603480CF089FA15E0CDCCCC40E4
:103760000000A041D0510020A88F0100A0510020EE
:1037700024520020CC5200208C90010010520020D6
:103780009490010088520020FEF796FA0121B84873
:1037900008F058FD00226421B54808F04FFD4FF0B5
:1037A000000A4FF0140915200AF046F90DF09AFDB1
:1037B0004FF06A510DF0EAFD014650460DF0DEFC77
:1037C000B9F101098246EED1AA490DF0DFFDAA49FF
:1037D0000DF090FE0DF030F901240B4602460094E6
:1037E000A3480CF001FB2246A449A1480CF028FA9A
:1037F0009F4809F043FD02200AF048FD08200AF026
:10380000FBFC012882463FF41FAF059F039C082064
:103810000AF0F2FC0028FAD00820059703940AF079
:10382000EBFC0128824640F0D0802868944F07F0D6
:1038300025FD044604203C600AF0DEFC834603209C
:103840000AF0DAFC8146BBF1000F40F0FC858D4B9D
:10385000039A1B6882F800A0132B40F3FE85894A67
:10386000013313600134B9F1000F40F0E785DFF850
:1038700020A20399DAF800300122132B0A7040F3DA
:10388000E785092CCABFDAF8003001230133013C77
:10389000CAF80030002CC0F2CE853C2CA8BF002412
:1038A0003B68DFF8F091A342C9F800402CD02868AB
:1038B00007F02CFD07462868D9F8004007F0F0FC17
:1038C0000490286807F0FEFC8146286807F00CFD8C
:1038D0008246286807F02CFD12AB049903F82C1DD2
:1038E00000F14E0E18468DF822E08DF81E708DF80E
:1038F00021A08DF820908DF81D4007F02DFD0AF0D5
:1039000051FB0AF049FB3060594809F07BFA01216C
:10391000574808F09DFC0221554808F093FC00220E
:103920001146534808F08AFC0722574950480CF0CA
:1039300087F94F480CF0F2F90AF02EFB07F09EFCD5
:1039400001464B480CF092F9FEF7B6F901214848C0
:1039500008F078FC00226421454808F06FFC4FF025
:10396000000A4FF0140915200AF066F80DF0BAFCB1
:103970004FF06A510DF00AFD014650460DF0FEFB76
:10398000B9F101098246EED13A490DF0FFFC3A49FE
:103990000DF0B0FD0DF050F801240B4602460094E6
:1039A00033480CF021FA2246344931480CF048F9EA
:1039B0002F4809F063FC02200AF068FC08200AF096
:1039C0001BFC012882463FF430AF059F039C082072
:1039D0000AF012FC0028FAD00820059703940AF098
:1039E0000BFC0128824640F0E8802868274F07F04A
:1039F00057FC044604203C600AF0FEFB834603208B
:103A00000AF0FAFB8146BBF1000F40F035851D4BF3
:103A1000039A1B6882F800A0132B40F33785194ADC
:103A2000013313600134B9F1000F40F02085DFF855
:103A300060A00399DAF800300122132B0A7040F3DA
:103A40002085092CCABFDAF8003001230133013C7C
:103A5000CAF80030002CC0F207853C2CA8BF002417
:103A60003B68DFF83490A342C9F8004044D015E029
:103A7000D0510020CDCCCC400000A041A88F010047
:103A800084510020245200209C9001009452002078
:103A900088520020144F002040510020286807F071
:103AA00035FC0746286807F0E9FBD9F800100491B7
:103AB0000446286807F006FC8146286807F014FCD5
:103AC0008246286807F034FC12AB049903F82C1DD9
:103AD00000F14E0E18468DF822E08DF81E708DF81C
:103AE00021A08DF820908DF81D4007F035FC0AF0DC
:103AF00059FA0AF051FA30609B4809F083F9012124
:103B0000994808F0A5FB0221974808F09BFB00228A
:103B10001146954808F092FB0722944992480CF010
:103B20008FF891480CF0FAF80AF036FA07F0B8FB73
:103B300001468D480CF09AF8FEF7BEF801218A483C
:103B400008F080FB00226421874808F077FB4FF0E3
:103B5000000A4FF01409152009F06EFF0DF0C2FBAA
:103B60004FF06A510DF012FC014650460DF006FB75
:103B7000B9F101098246EED17D490DF007FC7D497E
:103B80000DF0B8FC0CF058FF01240B4602460094DF
:103B900075480CF029F92246774973480CF050F823
:103BA000714809F06BFB02200AF070FB08200AF054
:103BB00023FB012882463FF418AF059F039C082091
:103BC0000AF01AFB0028FAD00023C8F80030237846
:103BD0006A4C002B3FF47DA9FEF756FA00232370B0
:103BE0000AF0DAF93060FFF774B9082003970AF099
:103BF00003FB624C0128A346814640F0A980604B3C
:103C000004201C680AF0F8FA074603200AF0F4FAC8
:103C10008246002F40F072835A4B8BF800901B684D
:103C2000132B40F37483574A013313600134BAF104
:103C3000000F40F05F83DFF85C91D9F8003001227B
:103C4000132B8BF8002040F36F83092CCABFD9F8DF
:103C5000003001230133013CC9F80030002CC0F2D0
:103C600047830F2CC8BF0024454B1C60FDF778FC30
:103C70003D4809F0C7F801213B4808F0E9FA022164
:103C8000394808F0DFFA00221146374808F0D6FA22
:103C900005223D4934480BF0D3FF394932480968C1
:103CA0000A2200230CF060F82F480CF037F8374B4D
:103CB00018680CF0C1FE02240B46024600942A4804
:103CC0000CF092F82246324927480BF0B9FFFDF775
:103CD000F3FF0121244808F0B5FA002264212248AC
:103CE00008F0ACFA4FF0000A4FF01409152009F063
:103CF000A3FE0DF0F7FA4FF06A510DF047FB0146B5
:103D000050460DF03BFAB9F101098246EED118494F
:103D10000DF03CFB17490DF0EDFB0CF08DFE01247E
:103D20000B460246009410480CF05EF822461249F9
:103D30000D480BF085FF0C4809F0A0FA02200AF0AC
:103D4000A5FA08200AF058FA012881463FF457AF37
:103D5000039F5C4608200AF04FFA0028FAD000239F
:103D6000C8F8003033E700BFD0510020A490010014
:103D7000CDCCCC400000A041A88F01001C4F0020FA
:103D800000FAFF1F24520020BC8F01007851002050
:103D90008C8F010088520020082003970AF02CFA2B
:103DA000B54C0128A346814640F0A680B34B0420C1
:103DB0001C680AF021FA074603200AF01DFA824621
:103DC000002F40F08182AE4B8BF800901B68DFF82B
:103DD000B092132B40F3C082A94A0133136001341F
:103DE000BAF1000F40F06882DFF8C892D9F80030CD
:103DF0000122132B8BF8002040F3AA82092CC8BFA4
:103E0000D9F8003004F1FF34CCBF01330123002C7A
:103E1000C9F80030C0F25682092CA8BF0024974B85
:103E200098481C6008F0EEFF0121964808F010FA4F
:103E30000221944808F006FA00221146914808F041
:103E4000FDF991498F4804220BF0FAFE8D480BF0E2
:103E500065FF8A4A8D4B126853F822000DF042FA32
:103E60008B490DF047FB0CF0E7FD02460B468548F9
:103E700088490BF06BFFFDF71FFF0121814808F017
:103E8000E1F9002264217F4808F0D8F94FF0000AD8
:103E90004FF01409152009F0CFFD0DF023FA4FF073
:103EA0006A510DF073FA014650460DF067F9B9F109
:103EB00001098246EED178490DF068FA77490DF094
:103EC00019FB0CF0B9FD01240B46024600946D4825
:103ED0000BF08AFF224672496A480BF0B1FE69482E
:103EE00009F0CCF902200AF0D1F908200AF084F98F
:103EF000012881463FF45AAF039F5C4608200AF030
:103F00007BF90028FAD00023C8F800305FE60820CB
:103F100003970AF071F9584C0128A346814640F0F6
:103F2000A080604B04201C680AF066F90746032055
:103F30000AF062F98246002F40F0BA81504B8BF8AC
:103F400000901B68132B40F3FD814D4A0133136031
:103F50000134BAF1000F40F0A381DFF85891D9F88D
:103F600000300122132B8BF8002040F3FB81092C39
:103F7000C8BFD9F8003004F1FF34CCBF01330123AE
:103F8000002CC9F80030C0F29181474B9C42C8BF59
:103F90000024444B3B481C6008F034FF01213948A1
:103FA00008F056F90221374808F04CF90022114672
:103FB000344808F043F906223C4932480BF040FEF1
:103FC00030480BF0ABFE374B2E4819680BF04EFE15
:103FD000012237492B480BF033FE2A480BF09EFE96
:103FE000FDF76AFE0121274808F02CF90022642120
:103FF000244808F023F94FF0000A4FF01409152067
:1040000009F01AFD0DF06EF94FF06A510DF0BEF98E
:10401000014650460DF0B2F8B9F101098246EED1E1
:104020001D490DF0B3F91D490DF064FA0CF004FDC3
:1040300001240B460246009412480BF0D5FE22469E
:10404000174910480BF0FCFD0E4809F017F9022043
:104050000AF01CF908200AF0CFF8012881463FF445
:1040600060AF039F5C4608200AF0C6F80028FAD02B
:104070000023C8F80030AAE51C4F002050FAFF1FAB
:1040800024520020D05100206890010014FAFF1F34
:1040900000007A4470900100CDCCCC400000A041DB
:1040A000A88F010060FAFF1F80510100609001009D
:1040B0005C90010088520020082004970AF09CF8C8
:1040C0000128C34C824640F0A280C24B04201F68E6
:1040D0000AF092F8834603200AF08EF88146BBF17D
:1040E000000F40F0D980BC4B84F800A01B68132B54
:1040F00040F32281B84A013313600137B9F1000F50
:1041000040F0C180DFF8F4A2DAF800300122132B6E
:10411000227040F30D81092FCCBFDAF80030039BE9
:1041200007F1FF37C8BF0133002FCAF8003040F352
:10413000B080B7F5616FC8BF0127A64BA7481F60C5
:1041400008F060FE0121A54808F082F80221A3488A
:1041500008F078F800221146A04808F06FF807220E
:104160009F499E480BF06CFD9C480BF0D7FD994B86
:104170009A4819680BF07AFD01229A4997480BF08A
:104180005FFD96480BF0CAFDFDF796FD01219348AF
:1041900008F058F800226421904808F04FF84FF0DA
:1041A000000A4FF01409152009F046FC0DF09AF8AA
:1041B0004FF06A510DF0EAF8014650460CF0DEFF70
:1041C000B9F101098246EED187490DF0DFF8874940
:1041D0000DF090F90CF030FC4FF001090B4602464F
:1041E000CDF800907D480BF0FFFD4A4680497B48A2
:1041F0000BF026FD794809F041F802200AF046F854
:10420000082009F0F9FF012882463FF45EAF049FC1
:10421000082009F0F1FF0028FAD00023C8F8003088
:10422000D5E46E486A4C08F0EDFD01216B4808F0BA
:104230000FF80221694808F005F800221146674886
:1042400007F0FCFFFDF720FF0A226A4963480BF0E4
:10425000F7FC62480BF062FD0121604807F0F2FFB5
:10426000132265495D480BF0EBFC5C4809F006F849
:104270004FF4FA600AF00AF801272378544C002B17
:104280003EF427AEA8E45D4B0022002F1A603FF7F2
:1042900050AF4FF4616750E74F4A002313602DE79A
:1042A000564B0022002C1A60BFF66FAE544C70E6DD
:1042B000494A002313604CE6504B0022002C1A6040
:1042C000BFF6AAAD0824AAE5434A0023136087E598
:1042D00040F63404FEF739BF3F4A00231360B9F1BA
:1042E000000F3EF415AF454B00221A60FEF723BFC6
:1042F0000F24B9E4414B00221A60AFE4364A002390
:10430000136094E4C82009F0C1FFFEF70BBFC8207A
:1043100009F0BCFF304B1B6885E4C82009F0B6FFEC
:104320002D4B1B68FEF7ECBEC82009F0AFFF8CE4F4
:10433000C82009F0ABFFEEE6C82009F0A7FF264B26
:104340001B68D7E6C82009F0A1FF234B1B68FCE5DA
:10435000C82009F09BFF51E5C82009F097FFD9F864
:10436000003039E5C82009F091FF00E60C24FEF783
:10437000CCBF224B00221A60FEF7C1BF164A0023B1
:104380001360FEF7A5BFC82009F080FFFEF7AEBF9F
:10439000C82009F07BFF104B1B68FEF795BF1F2458
:1043A000FFF7AFB8154B00221A60FFF7A4B80A4A0E
:1043B00000231360FFF788B8C82009F067FFFFF7F4
:1043C00091B8C82009F062FF034B1B68FFF778B86B
:1043D0001C4F002054FAFF1F24520020D05100200F
:1043E000549001005C900100CDCCCC400000A04175
:1043F000A88F0100349001004090010088520020F5
:10440000805101001724FFF75AB9A34B00221A600C
:10441000FFF74FB9A14A00231360FFF733B9C82053
:1044200009F034FFFFF73CB9C82009F02FFF9B4B80
:104430001B68FFF723B93B24FFF732BA964B0022E3
:104440001A60FFF727BA954A00231360FFF70BBAEB
:10445000C82009F01BFFFFF714BAC82009F016FFA7
:104460008E4B1B68FFF7FBB93B24FFF7F9BA8A4B69
:1044700000221A60FFF7EEBA884A00231360FFF7A4
:10448000D2BAC82009F002FFFFF7DBBAC82009F052
:10449000FDFE824B1B68FFF7C2BA4146284604F076
:1044A00025FC00283EF4AEACDFF83082D5F8840459
:1044B0004246092104F074FE98F8003013F0C0035E
:1044C00000F09F80402B00F0D6800D2174480AF048
:1044D00077FE23463A46214672480BF045FC714868
:1044E0000BF01CFC0020014600230A22C9F8000042
:1044F0006D480BF039FC01226C496B480BF0A0FBB6
:1045000000230A22214668480BF02EFC66480BF077
:1045100005FC654808F0B2FE654A664B12689A428F
:104520007EF688AC3C23624A634C13601946002037
:10453000236009F09DFB6178012009F099FBA178C7
:10454000022009F095FBE178032009F091FB5B4A1A
:10455000584B12689A427EF673AC3C23574A564C2D
:10456000136019460420236009F082FB617805205E
:1045700009F07EFBA178062009F07AFBE17807209C
:1045800009F076FB4E4B1A78172A7EF65EAC0022B5
:10459000114608201A7009F06BFB4A4B1A783B2A27
:1045A0007EF658AC0022114609201A7009F060FB13
:1045B000454B1A78172A7EF652AC002211460A2083
:1045C0001A7009F055FB414B1A783B2A7EF64CAC29
:1045D000002211460B201A7009F04AFBFEF744BC7A
:1045E000042319460E20136009F042FBFEF751BC6C
:1045F0000323374A19460D20136009F039FBFEF7F3
:1046000042BC98F8090098F8063098F8072098F806
:104610000A5098F8051098F8084000F00300400090
:1046200003F00303920040EAD51001F00F0142EAC3
:104630008323084443EA94130738013303FA00F054
:104640000CF04CFE23490CF0A1FE0DF08BF80D216F
:10465000044613480AF0B4FD214600230A221148FB
:104660000BF082FB0F480BF059FBC72C7FF63AAFDB
:10467000A4F1C80037E798F8093098F8072098F8AF
:104680000800013302F03F0203EB024303EB00207A
:104690008002D5E7104CF0E588520020245200201B
:1046A000F88F0100B8FFFF1FD051002008900100D3
:1046B00054FAFF1FA08601007C51002060FAFF1F02
:1046C000600A0020C8520020A4510020244F00207E
:1046D00050FAFF1FBD37063A1C4F0020145200202D
:1046E0002DE9F04F8DB072B6C549C64BC64841257D
:1046F0000E2480220D70047019461A700B78C14A7E
:104700001806FBD5C149C24B0D78C24CC2481D707A
:104710000339247800780978D9705C70987062B693
:1047200072B6B749B84C41260F2580200E7025700F
:10473000114610700A781206FCD5B44CB548B6493B
:10474000B64A2478007809781278DA711C715871A9
:10475000997162B6B24DB34FB34E4FF4FA7009F08F
:1047600095FD2968B14800230A220BF0FDFAAF48F5
:104770000BF0D4FA2968AD4800230A220BF0F4FAB2
:10478000AA480BF0CBFA2968A84800230A22002483
:104790000BF0EAFAA5480BF0C1FA64203C6009F07E
:1047A00075FD3968A148102223460BF0DDFA9F48B9
:1047B0000BF0B4FA4FF430533B60642009F066FD0F
:1047C0004FF434533B60642009F060FD984B9748E8
:1047D0001968102223460BF0C7FA94480BF09EFA92
:1047E00039689248234610220BF0BEFA8F480BF02E
:1047F00095FA904B8D481968102223460BF0B4FAB5
:104800008A480BF08BFA2968884823460A220BF065
:10481000ABFA86480BF082FA4FF47A7009F036FD55
:104820002968824823460A220BF09EFA7F480BF043
:1048300075FA4FF47A7009F029FD23460A22296897
:104840007A480BF091FA79480BF068FA7A4805F04B
:10485000CDFF0121022009F0DDFC0121142009F027
:10486000D9FC0121062009F0D5FC2146152009F0CC
:10487000D1FC204609F054F80121022009F098FCEF
:104880000121142009F094FC0121062009F090FC7C
:104890000221042009F0BEFC0221032009F0BAFC29
:1048A0000221082009F0B6FC09F076FB634B30606A
:1048B000984202DC624809F075FB01233C22022188
:1048C0006048614F08F0D0FB8C2009F0DFFC5D48A8
:1048D00008F098FA01215B4807F0BAFC0221594818
:1048E00007F0B0FC00221146564807F0A7FC0A2248
:1048F000564954480BF0A4F952480BF00FFA5148AE
:1049000008F0BCFC0121112009F084FC01211120D8
:1049100009F04EFC4B4808F075FA0121494807F0B0
:1049200097FC0221474807F08DFC002211464548BC
:1049300007F084FC0A22454942480BF081F94148BE
:104940000BF0ECF93F4808F099FC0721404805F0CE
:104950002BF90E213E4805F0B3F90025DFF8FCE005
:104960008DF80D500A2405958DF80C40CDF810E017
:1049700003AB93E8070006AB83E807008DF81950F6
:1049800008958DF81840CDF81CE093E8070009ABB6
:1049900083E807000B9A009207F591650CCB284637
:1049A00007F29C4104F06AFA97F89584C7F884549A
:1049B000B8F1000F5CD01C2126480AF001FC1B480E
:1049C0000BF0ACF91F4808F01DFA01211D4807F053
:1049D0003FFC02211B4807F035FC00221146194814
:1049E00007F02CFC12221C4916480BF029F9154837
:1049F0000BF094F909F0D0FAFEF7F8F830E000BFB8
:104A00000700024000000240060002400B00024086
:104A1000685100200A0002400900024008000240DC
:104A200000D0034010D00340184F0020B8FFFF1FF4
:104A300014D0034018D00340B45300207FC18556E2
:104A400080C18556D0510020704A0020AC900100F2
:104A500080FAFF1F0C900100B890010080F0FA026C
:104A60007D4808F00BFC4FF47A7009F00FFCA9E7C1
:104A70002946384604F03AF900289CD0FCF7B4FFE8
:104A8000FEF720F96E217548754D764F0AF0ECFC63
:104A9000754A764BD2F8009053F829A050460CF096
:104AA00021FC102128605046FDF750FB704805F0AE
:104AB0009DFE4846FDF796FEFCF706FD664808F0A9
:104AC000A1F90121644807F0C3FB0221624807F005
:104AD000B9FB42464146604807F0B0FB3B683C2BBF
:104AE00005DDB3F5967FD4BF3C244FF4967409F0EE
:104AF00053FADFF8C091DFF8C081D9F8003090FB9D
:104B0000F4F204FB02445B4A3060E118116018467D
:104B1000C8F800400CF0E6FB2968DFF8A0A1564C6D
:104B2000DFF89CB10CF032FC4FF06E510CF02EFC13
:104B30004FF074510CF02AFC0BF07EFF0BF008FDD7
:104B400000224E4B0BF0CCFF0CF07AFA4C4B3A683B
:104B50001D684C4BCAF80000521B22EAE27583FB29
:104B600005232B44E817C0EBE3200BF053FF0BF0B9
:104B700077FD0CF065FA444BCBF8000004FB0054C1
:104B800083FB04232344E017C0EB63100BF042FFC8
:104B90000BF066FD0CF054FA3C4DDFF828A1A0EBB9
:104BA000001204EB8204034610213948CAF8003091
:104BB0002C600AF005FBDBF8001036480BF056F8C5
:104BC000DAF8001033480BF051F8296831480BF03F
:104BD0004DF830480BF0A2F808212F480AF0F0FAFF
:104BE000D9F800102B480BF041F82A480BF096F842
:104BF00008212A480AF0E4FA396826480BF036F80A
:104C000024480BF08BF80E2125480AF0D9FA3068B9
:104C1000FDF794F90C2123480AF0D2FAD8F80000E5
:104C2000FDF78CF9D8F8003034681F481C1B15219B
:104C30000AF0C6FA214617480BF018F815480BF091
:104C40006DF81A491A4B00204FF0FF3208601A60C5
:104C50000DB0BDE8F08F00BFD05100200082FF1FD3
:104C60007852002060FAFF1F50FAFF1F14FAFF1F4E
:104C7000B453002070510020F0F1FFFF00004040CD
:104C800004FAFF1FC5B3A291898888887C5200204E
:104C9000CC900100B8FFFF1FE0900100EC900100F4
:104CA000F89001000891010018910100340A0020D9
:104CB0009052002054FAFF1F204F0020085200207D
:104CC000640A00208452002038B504460D4631485D
:104CD000012107F0B7FA2AB200212E4807F0AEFAF8
:104CE000204606F025FB01462A480AF0BFFF2D2189
:104CF000284807F069FA204606F0F6FA01462548EA
:104D00000AF0B4FF2D21234807F05EFA204606F092
:104D1000D9FA01461F480AF0A9FF02221E491D4880
:104D20000AF08EFF204606F0F1FA092803DC302154
:104D3000184807F049FA204606F0E8FA01461548F7
:104D40000AF094FF204606F099FA0122054613491D
:104D500010480AF075FF092D03DC30210D4807F0DB
:104D600033FA29460B480AF081FF204606F098FAEC
:104D700001220446094907480AF062FF092C03DCB6
:104D80003021044807F020FA21460248BDE83840A7
:104D90000AF06CBFD0510020B88F0100F48F0100E1
:104DA0002DE9F041B34D2C6824B1012C67D030BF00
:104DB000BDE8F08109F0F0F8AF4FB04E3860B04870
:104DC00008F020F80121AE4807F042FA0221AC4871
:104DD00007F038FA22462146A94807F02FFA0A229E
:104DE000A849A7480AF02CFFA5480AF097FF14210C
:104DF0003068FFF769FF3868FDF7F8FEA04808F053
:104E00003DFA3A6833689A4236DB9F4F3C68002C83
:104E10005ED00D219D489E4C0AF0D2F99D480AF0C3
:104E20007DFF9D4B9D4A31681B6812689C480B446E
:104E30001A440E21326023600AF0C2F909F0ACF87E
:104E4000FDF77CF80B2197480AF0BAF92068FDF7C6
:104E500075F80B2194480AF0B3F93068FDF76EF845
:104E60000021112009F0A4F90123AE2184482B6010
:104E700007F0D0FFFCF7E2FA2C68012C97D1FBF782
:104E8000F3FE042009F0B8F90646032009F0B4F94E
:104E90000EB9002837D0854C854B22681B689A4292
:104EA00085DB7E4B1E68002E40F08180814803F038
:104EB000B7FEFBF7C7FF0B217F4826600AF080F999
:104EC0007E4B74481988FBF74FFD30BFBDE8F08179
:104ED0000A217B4805F00CFE2146794805F0E0FBED
:104EE0000E21774805F0DCFB2146754805F0D8FB1C
:104EF0000A21734805F0D4FB714805F00BFE4FF012
:104F0000FF333B6085E72146112009F051F9674BDB
:104F10006C4C1B686C4A6D4DA06C5B0203F124065F
:104F2000002156609362A5F8B411002800F0998022
:104F300002F016FBA06C634B002800F089802C2245
:104F4000614902F01BFC5B4803F06AFE01233C222E
:104F500002214B4808F088F8642009F097F9484886
:104F600007F050FF0121464807F072F9022144483A
:104F700007F068F900221146414807F05FF907225F
:104F800053493F480AF05CFE3D480AF0C7FE012144
:104F90003B4807F057F910224E4939480AF050FEB5
:104FA00037480AF0BBFE364808F068F9FEE7FBF721
:104FB00015FF324B484E1C68484F08F0EDFF484A39
:104FC000484B1268201A841A24EAE47483FB0423F1
:104FD0002344E017C0EBE3200BF01CFD0BF040FB7B
:104FE0000CF02EF8404B414A306003FB004482FB3A
:104FF000043222448046E017C0EB62100BF00AFD39
:105000000BF02EFB0CF01CF80201131A821A04EBB1
:1050100082049B004FF4616202FB08333C60DFF8BE
:10502000D4801C44092CC8F8000065DC07213048F6
:105030000AF0C6F817480AF071FE01233C2202214B
:105040000F4808F011F800232B6030BFBDE8F08155
:10505000D86C00283FF477AF2C221B4901F008F8E8
:1050600071E7E06C00283FF46EAF0022002300F0EF
:10507000E1F95FE7340A0020184F0020204F00209C
:10508000D051002030910100680A00203C910100BD
:1050900070510020B8FFFF1F54FAFF1F60FAFF1F76
:1050A000F89001004C91010058910100284F002018
:1050B0000852002038520020809101002455002021
:1050C000B453002028520020D45200202C4F00203E
:1050D000649101006C910100640A00207C52002060
:1050E00004FAFF1FC5B3A291F0F1FFFF89888888F9
:1050F0008C910100845200200021022009F058F810
:10510000FDF708FB102115480AF05AF831681448D9
:105110000AF0ACFDD8F8001011480AF0A7FD396874
:105120000F48FBF721FC0AF04FF9642009F0AEF8B4
:105130003B7898F8002031780A4805F037FF0A4894
:1051400005F0FAFC0121022009F032F84FF49670C4
:1051500009F09CF8FDF712FB68E700BFCC90010056
:10516000B8FFFF1F00510020380A002010B5044688
:1051700000F05AFD002384F8313084F8333010BD3C
:1051800090F831200AB10020704738B504460D462A
:10519000114638220DF0EAF84023012084F831301E
:1051A00084F83300256238BDF0B50878202803D193
:1051B00011F8010F2028FBD05160087800284CD04E
:1051C0002F282BD05C2820D0A0F12204E4B21D2C83
:1051D0001DD9DFF88CE04E1C00247C28A0F12005AE
:1051E000374612D05E2D10D816F8010BA0F122051B
:1051F000EDB2013450B32F2811D05C282EFA05F7F8
:1052000003D01D2DE9D8FD07E7D50020F0BD144DD2
:1052100025FA04F4E607DCD50020F0BD0024214483
:105220000846064610F8015B202DFAD02F2DF8D045
:105230001E603CB111F8013D2E2B01D0202B08D16E
:10524000013CF7D1204610600120F0BD1F602144D1
:10525000F0E7FF2CF6DD0020F0BD1960F3E700BF9A
:10526000010100352DE9F04790F83330DD0782B0B9
:10527000044640F1AD8058060D46164640F1B38015
:10528000D4E90001D4E9042310EB060841F1000938
:105290004B4508BF4245C0F0AC80002E00F0AB800B
:1052A000A146F9E80623B04650E013436CD194F8C8
:1052B00031305A064CBFD0F82C14E169A16190F846
:1052C0003DC4D0F8242402397F0A01FA0CFEB91833
:1052D0007144BAF1000F43D1B8F5007F40D3D0F844
:1052E000142291423CD0B8F5806F54D34FF0010A9C
:1052F0000AFA0CFCC7EB0C074FEA582ABA4528BF3C
:10530000BA4691424FEA4A270CD80AEB010393426E
:1053100008D900F50370019101F02AF8002857D050
:10532000206A0199D0F8380453462A4604F044F81C
:1053300000284DD038460021D4E9002312184B41F3
:10534000B8EB07083D44C4E9002354D0206AD0F8E4
:1053500030741740C7F3080A002FA6D0A169AEE742
:1053600000F50370002200F0CBFF88B3CAF5007788
:10537000474528BF474600EB0A013A46284608F051
:1053800023F938460021D7E794F833305B060FD570
:10539000A169013192E7D0F8380401232A4604F0CC
:1053A0000BF8A8B14FF4007000214FF40077C3E769
:1053B0004A46A16901F02AFA40B2002808DB02D06F
:1053C000206AA1697BE794F8313013F0500F14D1B3
:1053D00094F832304FF0FF3043F0020384F832305B
:1053E00002B0BDE8F08794F8313019073FF548AFB7
:1053F00053E7161A51E74FF00008C8EB060002B059
:10540000BDE8F087F0B583B001220DF10701044635
:10541000D0E900678569FFF725FF012808BF9DF8DF
:105420000700A56118BF4FF0FF30C4E9006703B063
:10543000F0BD00BF2DE9F04F90F831E0856983B0F1
:105440000446BEF1000F1BD0D0E90001994208BF0D
:10545000904216461F463BD056EA070307D1002369
:10546000A3610120C4E9006703B0BDE8F08F1EF01E
:10547000080F0AD0D4E90423BB4208BFB24204D2C9
:10548000A561002003B0BDE8F08F236A019393F873
:105490003DC494F833A00CF1090C5FFA8CFC16F1B2
:1054A000FF3247F1FF33CCF1200803FA08FB22FA60
:1054B0000CF242EA0B02ACF1200B23FA0BF31AF0C8
:1054C000400F42EA030205D0E3691A44A261C8E72B
:1054D0000120D7E710F1FF3941F1FF3A29FA0CFC1E
:1054E0000AFA08F84CEA080C2AFA0BFB4CEA0B0CF7
:1054F0006245534617D21EF0400F16BF019BE36969
:10550000D3F82C34A361904604F118094A46B8F147
:10551000000FA6D0A169206A01F078F908F1FF38E0
:105520000028F3D1ACE750EA0103E4D0CCEB02024F
:10553000E9E700BF2DE9F04F0E4693B090F8311027
:105540000092054629B99A4696F8313013F0500F6B
:1055500007D1002085F8310085F8330013B0BDE88D
:10556000F08F1C9B03F00303012B06D0022B00F0ED
:105570000881002BEDD1012300E002231C9A02F0E8
:10558000080213430193009B002B00F0FC80184697
:105590000022514601F048FB96F8313002904BB1A1
:1055A000D6E90023134305D000220023C6E90023D7
:1055B0000021B161BA4A0AF10E0382FB03121A44B8
:1055C000DB17C3EBE203DBB24FF0000903930233B6
:1055D0005FFA83FB4C464F4620220AA93046FFF76C
:1055E00041FE00283DD02028B3D19DF828301A066E
:1055F00066D4002C61D13268B1690791203A0892D3
:105600000134E4B26BB3C02B00F09280C12B62D0A6
:10561000852BE1D13822002128460CF0A7FE9DF809
:105620002C309DF8292085F83020D80603F0370269
:1056300058BF42F0080285F831203368316AB269F8
:105640006A62203B2962AB6296F83330C3F3801361
:1056500085F82C3020220AA93046FFF703FE0028E7
:10566000C1D11C9B99057FF574AF019B9A077FF50B
:1056700070AF009B002B3FF46CAF5C450CD384E013
:1056800020287FF466AF24B93268B1690791203AC7
:105690000892DCB2A34578D920220AA93046FFF748
:1056A000E1FD631C0028EBD13046B76900F0EAFA4F
:1056B00000283FF44EAFB761ECE75C45A2D29FE70C
:1056C000B9F1000F9FD15C4538BF0024852B83D1F1
:1056D0004FF001099EE7C7EB0A085FFA88F8B8F1B6
:1056E0000F0F28BF4FF00F0843463A4600990AA80B
:1056F00001F0B8FA00283BD04744FFB2BA457FF426
:105700006BAF1C9B1A053FF524AF13F4884F40F094
:105710009F8095F833309F0700F19A801C9B5B05B2
:105720003FF517AF1C9B580400F1BC80012015E722
:105730009DF82930019A85F83320990703D542F066
:10574000400385F83330DDE90C23DDE91001C5E9BC
:1057500004230F9BEB61009BC5E90201002BD0D015
:105760009DF82B30534505D04FF000094F4633E7E5
:10577000814631E7BDF82C30029A9342F4D10027DC
:105780002AE70323FAE6029314E796F83330382227
:10579000C3F38013002128460DF11C088DF8243036
:1057A0000CF0E4FD039C336ACDF80CA098E80700E8
:1057B00004F10109082485F831400AF11E0705F1BA
:1057C0002404DDF800A02B625FFA89F984E8070061
:1057D000FFB2002618460122414600F05FFF044652
:1057E00000283FF4B6AE90F90030002BFFF6B1AEC2
:1057F000202200210CF0BAFD002E6CD0012E5AD0D0
:10580000C6EB06130F2FA3F11E034FF0C10239465A
:1058100028BF0F21DBB2227051B1023409B204EB70
:105820004101534413F8012B24F8022BA142F9D172
:105830000136F6B2B3452ED920224146286A00F03F
:105840007FFF01287FF485AE0F3FFFB2286AC2E7D1
:1058500095F8313013F011027FF47BAE1C994E05A0
:105860007FF560AF95F833108C077FF572AE002B93
:105870003FF46FAED5E9000150EA010304D00020E7
:105880000021C5E90001AA61284600F061FB00285B
:105890003FF45FAE4AE7284600F0C6F95EE600BF77
:1058A00089888888D5E904232846FFF7C3FD0028A6
:1058B0007FF43CAF4DE6C0232370019B032263F0CD
:1058C0003F03627085F833309DF80C30E370BDF80B
:1058D0000830A380ACE7852323700C4B85F830900B
:1058E00084F801901B68002BA2D00DF117020DF176
:1058F0001A0106A898479DF81710BDF81A20BDF8A0
:10590000183021752281638192E700BF085300207F
:105910002DE9F043064695B096F8314003920020F9
:105920008DF849008DF84A008DF84B0034B999463E
:1059300091F8313013F0500F0D4603D1002015B00F
:10594000BDE8F08313782F2B144632D04FF00008B7
:10595000214603AB04AA3046FFF726FC0028EDD011
:10596000039B1B78002B39D09DF81030059ACDF899
:10597000008029463046FFF7DDFD0028DED03446A2
:1059800006AF06F1300E20686168A268E3683D4604
:105990000FC5103474452F46F5D120682860304675
:1059A00000F042F906AD86F8318086F83380039C1A
:1059B000CEE70134039421782F29FAD0D1B13822CF
:1059C00006A800212F6A0CF0D1FC4022012306AD6D
:1059D0000E978DF849208DF84B30B7E79DF81030C1
:1059E000059ACDF8009029463046FFF7A3FD15B083
:1059F000BDE8F083382230462C6A0CF0B7FC402317
:105A00000120346286F8313086F8330097E700BF12
:105A100019B101F58861FFF77BBF0846704700BFE9
:105A20008169F8B50446006A01B10131012200F034
:105A3000B5FC012806462FD9012301461A46206AE3
:105A400000F0B8FD074638B3A06994F8333030B39E
:105A50005A0613D5421C964225D023F0400284F802
:105A60003320E36905E0206A00F01AFFA0B1A069C5
:105A70002B465D1C834219462A46F4D34FF0FF3271
:105A80003146206A00F00CFF30B1A16959B13246AD
:105A9000206A00F005FF30B900273846F8BD43F012
:105AA000400384F83330A6613846F8BD2DE9F04F45
:105AB00000F1240B06469BE8070087B00DF10C08A7
:105AC00088E807000027BA463C4600224146306A73
:105AD00000F0E4FDFDB2814630B10378C02B64D004
