:1000000000800020BD010000A5CA00005DCA0000FC
:100010005DCA00005DCA00005DCA00005DCA000044
:100020005DCA00005DCA00005DCA0000A5CA0000EC
:10003000A5CA00005DCA000005E6000055E8000002
:10004000A5CA0000A5CA0000A5CA0000A5CA0000F4
:10005000A5CA0000A5CA0000A5CA0000A5CA0000E4
:10006000A5CA0000A5CA0000A5CA0000A5CA0000D4
:10007000A5CA0000A5CA0000A5CA0000A5CA0000C4
:10008000A5CA0000A5CA0000A5CA0000A5CA0000B4
:10009000A5CA0000A5CA0000A5CA0000A5CA0000A4
:1000A000DD4C0000A5CA0000A5CA0000A5CA0000DA
:1000B000A5CA0000A5CA0000A5CA0000A5CA000084
:1000C000A5CA0000A5CA0000A5CA0000A5CA000074
:1000D000A5CA0000A5CA0000A5CA0000A5CA000064
:1000E000A5CA0000A5CA0000A5CA0000A5CA000054
:1000F000A5CA000025EF0000A5CA000051F00000CD
:10010000A5CA00007DF10000A5CA0000A5CA000034
:10011000A5CA0000A5CA0000A5CA0000A5CA000023
:10012000A5CA0000A5CA0000A5CA0000A5CA000013
:10013000A5CA0000A5CA0000A5CA0000A5CA000003
:10014000A5CA0000A5CA0000A5CA0000A5CA0000F3
:10015000A5CA0000A5CA0000A5CA0000A5CA0000E3
:10016000A5CA0000FDD10000A5CA0000A5CA000074
:10017000A5CA0000A5CA0000A5CA0000A5CA0000C3
:10018000A5CA0000A5CA0000A5CA0000A5CA0000B3
:10019000A5CA0000A5CA0000A5CA0000A5CA0000A3
:1001A000A5CA0000A5CA0000A5CA0000A5CA000093
:1001B000A5CA0000A5CA000091E30000564B4CF20E
:1001C000205210B51A804DF628121A8000BF00BFC9
:1001D00000F0B4FB514B4FF010621A60504A9A6025
:1001E000504ADA60504A136813F4807304D14F49BF
:1001F0000B604FF4A85313604D4B1A78110703D5C9
:100200001A7842F008021A704A4B4B492A221A7097
:100210004A4A4B4B8B4204D252F8040F43F8040B6A
:10022000F8E7484B484900228B4202D243F8042B9E
:10023000FAE74649464A002352F8230041F82300D2
:1002400001336F2BF8D1434B434A802103F8011B44
:100250009342FBD1414B3D4A1A60414B8A221A70AE
:10026000A3F5805324225A70A0221A709A7992071B
:10027000FCD59A79D406FCD43A4A937903F00C035E
:10028000082B384BF9D103221A7140225A719A79FE
:100290009006FCD5334A9179324B4906FBD5324A58
:1002A000324911600221516020221A709A7902F0BD
:1002B0000C020C2AFAD12E4B2E4A1A602E4B4BF60A
:1002C0007F321A6000225A60072243F8042C2B4A1E
:1002D000C3F80C2D62B60CF007FD144B1B68DA074F
:1002E00005D527480CF0EEFC264B274A1A60274B11
:1002F0001B785B0609D5234C234B22689A4204D114
:100300001F480CF0DFFC0023236010F093FA0CF080
:10031000CDFB0EF065FDFEE70E2005403080044069
:10032000823F04000100002B10D0034014D0034092
:1003300002D0074000E00740D0FFFF1F888A01007D
:1003400020EFFF1FD0FFFF1FE01C002000EAFF1F6F
:100350000000000000E400E05FE400E008ED00E0E1
:100360000050064000400640448004400000131145
:1003700004800440C010050014E000E000002020CC
:10038000EA14085B1CE00340A5C3945A00F0074040
:10039000FFFFFFFFFFFFFFFFFFFFFFFFFFFFFFFF6D
:1003A000FFFFFFFFFFFFFFFFFFFFFFFFFFFFFFFF5D
:1003B000FFFFFFFFFFFFFFFFFFFFFFFFFFFFFFFF4D
:1003C000FFFFFFFFFFFFFFFFFFFFFFFFFFFFFFFF3D
:1003D000FFFFFFFFFFFFFFFFFFFFFFFFFFFFFFFF2D
:1003E000FFFFFFFFFFFFFFFFFFFFFFFFFFFFFFFF1D
:1003F000FFFFFFFFFFFFFFFFFFFFFFFFFFFFFFFF0D
:10040000FFFFFFFFFFFFFFFFFFFFFFFFDEF9FFFF23
:1004100010B5054C237833B9044B13B10448AFF33E
:1004200000800123237010BDD0FFFF1F00000000DB
:10043000848A0100084B10B51BB108490848AFF386
:1004400000800848036803B910BD074B002BFBD0A0
:10045000BDE81040184700BF00000000D4FFFF1F98
:10046000848A0100D0FFFF1F0000000000207047B9
:10047000704700BFF8B55548554D564C297803785C
:100480002278DFF868E1544F544E120442EA032305
:10049000FF222A700270802022708EF800003870CF
:1004A000B2794F480B4312F00C0FC36002D1B379FD
:1004B000DC063DD4494A9379C3F38103032B40D032
:1004C000464B9A79C2F38102022A42D0434A937979
:1004D000C3F38103022B53D0404A9379C3F38103C2
:1004E000022B61D03D4A9379C3F38103012B51D094
:1004F0003A4A9379C3F38103012B5CD0374B9A7945
:1005000012F00C0F03D19A79D20600D49B79354DA5
:10051000354B2A7853F82240D4B1236820469B6893
:1005200098472B7804EB83046468002CF5D1F8BD60
:10053000B3799806EBD5294A9379C3F38103032B4A
:10054000BED19379D906BBD493799B06DFD4B7E7A4
:10055000F8BD9A79D706B9D49A799606B6D559785E
:1005600001F0020101F0FF020029AFD120211A7031
:100570001A461970937903F00C030C2BFAD1C6E7D5
:100580009379DD06A8D493799C06A5D4537898076F
:10059000BDD5A1E79379DF06AAD593799E06A7D4A6
:1005A00053789D07B3D4A3E79379D9069AD45378A7
:1005B0009B07ACD496E79379DC069FD59379980690
:1005C0009CD453789907A2D598E700BF06C007408E
:1005D00005C0074007C0074009C00740004006406B
:1005E000B81C0020901900205019002008C00740B6
:1005F00090F92410104B03604B1C06D0F0B40F4E42
:1006000056F82130984201D0F0BC70470C4F57F893
:10061000213033B18D0000245A1953685460002BE7
:10062000FAD1084C23780022013B237047F821209F
:1006300046F82120E8E700BF807A01007019002009
:10064000501900209119002038B590F924506B1CE6
:100650001BD00E4B0E4953F825400E4BEDB24FF018
:10066000FF320D701A6084B1AD0002E02C44646862
:100670005CB194F82530002BF8D0236820462C4438
:100680001B6898476468002CF3D138BD50190020CE
:100690009019002090E9FF1F704700BF90F92410C7
:1006A000104B03604B1C06D0F0B40F4E56F82130AF
:1006B000984201D0F0BC70470C4F57F8213033B14D
:1006C0008D0000245A1953685460002BFAD1084C4D
:1006D00023780022013B237047F8212046F821208F
:1006E000E8E700BF807A010070190020501900204F
:1006F0009119002090F92410104B03604B1C06D078
:10070000F0B40F4E56F82130984201D0F0BC70473B
:100710000C4F57F8213033B18D0000245A1953681B
:100720005460002BFAD1084C23780022013B23703F
:1007300047F8212046F82120E8E700BF807A010031
:10074000701900205019002091190020704700BF37
:1007500010B5002104460DF0DFFD98B194F88A3100
:10076000B3B194F8883194F889210133592BC8BF6B
:100770000023934207D09A1D04EB8202DBB2506043
:1007800084F8883110BDD4F88C310133C4F88C3131
:10079000BDE810400DF07CBD10B5034B036004466E
:1007A00004F008FF204610BD5C7A0100836C13B191
:1007B000184607F02FB9C06C08B105F033B94FF0F7
:1007C000FF3070472DE9F0410E4680460CF074FA78
:1007D000234C206009F03CFC0546206809F014FC1D
:1007E0000746206809F0FEFBA5F2BC739BB27F2B85
:1007F00002D8FAB20C2A28D90023A8F800302068C1
:1008000009F014FC0746206809F0C8FB054620687B
:1008100009F0D6FBFBB2172B13D8EBB23B2B10D849
:10082000C3B23B2B0DD8FB026D0103F4FF2305F48B
:10083000FF552B43C0F3460003439BB23380BDE812
:10084000F08100233380BDE8F081C0B21F28D3D8E7
:100850007F0107F4FF57384340EA43239BB2CCE7BC
:1008600020150020826C62B1137803F0080303F0B6
:10087000FF0003B3D3695069181A48BF6FF00040F6
:100880007047C16CC1B191F8313003F0080303F037
:10089000FF0083B1D1E90423D1E90001101A30B47B
:1008A00063EB010100256FF000448D4208BF8442D4
:1008B00000D2204630BC70470846704700B5836CB4
:1008C00083B063B1184601220DF1070106F0DAFF8B
:1008D00001280CD19DF8070003B05DF804FBC06C43
:1008E00028B101220DF1070104F0C2FFF0E74FF03B
:1008F000FF30F1E7836C13B1184607F05FB9C06CA5
:1009000008B105F069BC704700B5836C83B08DF801
:10091000071043B1184601220DF1070107F0A8F9AD
:1009200003B05DF804FBC06C0028F9D001220DF182
:10093000070105F07DFE03B05DF804FB404A414B22
:10094000102010801B781B072CD5F0B53E4E3F4D74
:100950003F4C31782B7822783E4FDFF810E182400F
:1009600042EA03230B43FF22802132702A70227057
:100970008EF800103970DF07374A0CD51A239360C0
:10098000364D374C3748384900232B70D3602370DD
:1009900003700B70F0BD1E0705D4DD0606D50423D9
:1009A0009360EDE7704721239360E9E79C0604D448
:1009B000590604D516239360E2E79060E0E71F062E
:1009C00002D509239360DBE7DE0502D50A23936095
:1009D000D6E79D0502D50D239360D1E75C0502D5CE
:1009E0000B239360CCE7180502D51E239360C7E75D
:1009F000D90402D502239360C2E79F0402D50723DE
:100A00009360BDE75E0402D506239360B8E71D043A
:100A100002D515239360B3E7DC0302D5242393604A
:100A2000AEE7980302D522239360A9E7D90202D545
:100A300025239360A4E79B0244BF232393609FE791
:100A40000020054002D0074005C0074006C007400F
:100A500007C0074009C00740B81C002000C007407D
:100A600001C0074002C0074003C0074008C007405C
:100A7000002976D02DE9F04F0C469100631883B021
:100A80005D68002D57D06B185E68002E50D073182B
:100A90005F68002F49D07B18D3F80480B8F1000FAD
:100AA0003CD008EB0103D3F80490B9F1000F32D029
:100AB00009EB0103D3F804A0BAF1000F27D00AEB29
:100AC0000103D3F804B0BBF1000F18D00BEB010306
:100AD0005B6863B1194401934968FFF7C9FF019B43
:100AE00093F825201AB11A681846536898479BF85E
:100AF000253023B1DBF8003058465B6898479AF8F8
:100B0000253023B1DAF8003050465B68984799F8F1
:100B10002530002B35D198F8253063BB97F8253068
:100B20001BB13B6838465B68984796F82530CBB9CF
:100B300095F8253063B994F8253013B903B0BDE8B2
:100B4000F08F23685B68204603B0BDE8F04F18477C
:100B50002B6828465B68984794F82530002BEDD029
:100B6000EFE77047336830465B68984795F8253063
:100B7000002BE0D0ECE7D8F8003040465B6898479F
:100B8000CCE7D9F8003048465B689847C3E700BF18
:100B900090F92420531C26D01B4B2DE9F04153F82B
:100BA0002240D2B2ECB19300E1184D68B5B1E9181A
:100BB0004E6866B1F1184F6837B13B445968FFF78A
:100BC00057FF97F82530A3B996F8253063B995F803
:100BD00025301BB12B6828465B68984794F8253070
:100BE00063B9BDE8F0817047336830465B68984769
:100BF000EDE73B6838465B689847E5E723682046A1
:100C00005B68BDE8F0411847501900202DE9F84312
:100C1000534C94F8883194F88921D9B2D3B29942CF
:100C200038BF5A31CB1A0F2B53DD4E4DD4F8849177
:100C3000DFF82C8105F580570026A5F58070B9F105
:100C4000000F51D04FF4807200210BF04DFB48464D
:100C50000DF01EFBC4F8846194F8893194F8882162
:100C6000DBB2934267D00133592B86BF4FF0000EA1
:100C700073465FFA83FE063304EB83034FF48072FE
:100C8000D3F80490C4F8849109F10401284684F84B
:100C900089E10BF029FBB9F1000F04D048460DF0B3
:100CA000F7FAC8F8846105F50075AF424FF0000906
:100CB000C3D12D4B986C70B14FF480522B4906F084
:100CC000D7FF01303ED02A4A136808331360BDE8CD
:100CD000F883BDE8F883D86C0028F4D04FF4805234
:100CE000224905F0A5FCECE794F8893194F88821B5
:100CF000DBB293422ED00133592B86BFCE467346CA
:100D00005FFA83FE063304EB83034FF48072D3F85B
:100D10000490C4F8849109F1040184F889E10BF08E
:100D2000E3FAB9F1000F92D194F8893194F888214F
:100D3000DBB2934297D14FF48072002128460BF02A
:100D4000D3FAB0E7012114200BF022FE094B0A4A26
:100D50001A60B8E749464FF480720BF0C5FA7BE79A
:100D600034150020740100201C00002074000020B5
:100D7000301500200CED00E00400FA0508B5084924
:100D8000084A094B098811800848002283F88A2103
:100D900004F010FC6420BDE808400CF007B900BF67
:100DA000D01A0020A81A0020341500201C000020B2
:100DB0002DE9F04F9BB00BF07FFFC84DC84C286069
:100DC00009F022F92368984200F0BD812868C54ED9
:100DD000DFF84C83DFF84C9309F016F9206028689F
:100DE00009F036F92368C0490246C04810F032FBCA
:100DF000D6F87874C8F80090002F00F04E8106AC49
:100E000007F23C41204600270123B84A8DF81870AC
:100E10008DF8197006F00AFC152000210CF08AF8F4
:100E2000D6F87804AF4B002800F08481AF4908F071
:100E300097F8286809F0D6F88246286809F0F6F88D
:100E40008346286809F0AAF80390286809F0B8F8E2
:100E5000039B009301905B465246A549A54810F0BC
:100E6000F9FA00270825C8F8009015200BF074FC4B
:100E70000FF0A8F84FF06A510FF0F8F80146384625
:100E80000EF0ECFF074602200CF090F8013DECD18B
:100E9000D6F87854934B002D00F0118105F23C48B0
:100EA000404606F017FB2946404606F0CBFC462399
:100EB000914A8C49204604F04FFC189B002B00F00F
:100EC000AF818C4810F01CFB8A49024620460DF089
:100ED000C9FC18982C238DF81430002800F0AC8140
:100EE000012205A906F0C4FE844D05F1080815F895
:100EF000011F00230A2220460DF092FDA845F6D1DD
:100F000018982C238DF81730002800F02381012237
:100F10000DF1170106F0ACFE794B18680EF0FCFBE2
:100F2000022502460B46009520460DF0D5FD189887
:100F30002C238DF81630002800F0918101220DF14C
:100F4000160106F095FE38466E490FF08FF84FF007
:100F500078510FF08BF805460EF0DEFB02270246B3
:100F60000B46009720460DF0B7FD18982C238DF8FE
:100F70001530002800F0698101220DF1150106F0FD
:100F800077FE614810F0BCFA5F49024620460DF03A
:100F900069FC20460DF0F4FC28465C490FF004FA89
:100FA000002840F06681204604F004FBDFF87881D9
:100FB000CDF81880204604F0FDFAD6F87804494BA5
:100FC000002800F02481494907F0CAFF504F494AE0
:100FD0004449504DDFF854B1DFF854A1C2232046F4
:100FE00004F0BAFB2146384604F096FA2046CDF8C4
:100FF000188004F0DFFA3F4810F082FA01463D48BD
:101000000CF06EFF44480DF0BBFC64200BF0CEFFEB
:10101000B94622E007F0A4FFC223364A31492046F0
:1010200004F09AFB21463A4804F076FA2046CDF8BF
:10103000188004F0BFFA2F4810F062FA01462D48DC
:101040000CF04EFF34480DF09BFC0A200BF0AEFF75
:101050002B68B3F57A7F00F3CB80BB6C2F49254812
:10106000002B40F08180D9F84C20002A7CD12B68DD
:1010700001331A462B6010F0EDF9D6F878341B498D
:10108000184A1846002BC5D1D2F87C3417491846A7
:10109000002BC1D006F07CF8BEE7D6F87C1406AC75
:1010A00000293FF4B9AE01F58861204601230F4ABB
:1010B0008DF849708DF84A7005F08EF9ACE6D3F8DA
:1010C0007C54002D3FF4F3AE05F58868404604F0EB
:1010D00055FB2946404604F0B7FBE8E62015002002
:1010E0001C18002078100020A47A0100C8160020E7
:1010F000B07A010084170020C87A0100431700204D
:1011000054170020CDCCBC4008F0FF1F0000404029
:101110001C000020C416002074F5FF1F087B01008E
:101120004C190020C50700005C7A01000CED00E0BE
:101130000400FA05D3F87C0400283FF47AAE66492F
:1011400006F026F875E6DFF8CC81DFF8CC91634E27
:1011500006AC61E6199800283FF4DEAE01220DF1DD
:10116000170105F065FAD7E65D485E4906685E4CF2
:101170005E4D5F4A039303C9206095E80300A060B9
:1011800092E8030010250122A282E282E06025613C
:1011900030460FF057F93146A06130460EF05EFE42
:1011A0000FF050F9DFF874815249D8F80020E0615F
:1011B00003C95202039B6584022602F1240126849E
:1011C0006062A2626160D3B1214618462C2206F00B
:1011D0004FFD092148480CF083FED8F8001047481D
:1011E0000DF054FB45480DF0CBFB1BB0BDE8F08F74
:1011F000012114200BF0CCFBCBF800A02DE7F86CFC
:101200000028E6D021462C2205F012FAE1E7D3F8B7
:101210007C0400283FF4DAAE2F4905F0B9FFD5E68B
:10122000199B002B7FF44DAE012114200BF0B0FB75
:10123000334B344A1A60B9E6199800283FF454AE8B
:10124000012205A905F0F4F94EE6199800283FF4AB
:1012500098AE01220DF1150105F0EAF991E6199811
:1012600000283FF470AE01220DF1160105F0E0F9FF
:1012700069E62822244920460DF0F4FA20460DF0B4
:101280007FFB204604F096F90027082515200BF077
:1012900063FA0EF097FE4FF06A510EF0E7FE01463A
:1012A00038460EF0DBFD074602200BF07FFE013DC5
:1012B000ECD1164938460EF0D9FE4FF078510EF0B9
:1012C000D5FE13490FF070F800283FF46CAE47F2DA
:1012D00030500BF06BFED7E7C816002078100020C6
:1012E00004180020147B01005C1800201C7B010006
:1012F000247B01002C7B0100FC7A010074F5FF1FA8
:101300000CED00E00400FA05D07A0100CDCCBC4021
:10131000000040404C190020C5070000E4170020E1
:1013200038B5144DFFF744FD134BD5F88401002464
:101330001C6018B10CF0ACFFC5F8844195F88941E8
:1013400095F88831E4B29C420DD001345A2C28BF64
:101350000024A31D05EB830358680CF099FF95F852
:101360008831A342F1D1E4B2012385F8894185F89F
:101370008A3138BD341500203015002030B51D4BA2
:10138000D3F8784495B014B304F23C45284606F0EF
:10139000A1F82146284606F055FA46236846164A23
:1013A000144904F0D9F9129BFBB12922134968466C
:1013B0000DF058FA68460DF0E3FA684604F0FAF8C2
:1013C0000F4B0093684604F0F5F815B030BDD3F824
:1013D0007C44002CE1D004F58865284604F0CEF961
:1013E0002146284604F030FAD7E7139B002BDCD1C6
:1013F000E6E700BF78100020C87A0100347B0100C6
:101400005C7A01002DE9F0438FB0044610F078F8C3
:1014100000B201281CDDB4F9003044F2537293424B
:1014200000F0878118DD44F65452934200F0D580D5
:1014300045F2532293422AD044F65212934207D1E6
:101440000BAAE01CC34910F02BF8C34B0B9A1A608F
:1014500001200FB0BDE8F08344F24E4293420FD01A
:1014600044F252429342F3D10BAAE01CB94910F066
:1014700017F8BA4B0B9A1A6001200FB0BDE8F08341
:10148000B74B012201201A600FB0BDE8F0830AAD0E
:1014900009A908AA05ABE01C0395029101920093EB
:1014A00007AA06ABAF490FF0FBFFAF4B079D59688A
:1014B00018689A680A9EDDF824E0DDF820C0A5F5DA
:1014C000FA65ADB20BAF2CB207C7069F05991E3463
:1014D00015F0030F4FEAA408FDB240F03981A34B89
:1014E000022D8CBF1F460027A148A24BC8EB040465
:1014F00000FB08F06A1E03FB0400002A00EB070350
:1015000047DD9DF82C409948012A00FB043340D068
:101510009DF82D40022A00FB04333AD09DF82E405E
:10152000032A00FB043334D09DF82F40042A00FB2B
:1015300004332ED09DF83040052A00FB043328D018
:101540009DF83140062A00FB043322D09DF832403A
:10155000072A00FB04331CD09DF83340082A00FB07
:10156000043316D09DF83440092A00FB043310D010
:101570009DF835400A2A00FB04330AD00B2A9DF857
:10158000364018BF9DF8372000FB043318BF00FB1E
:1015900002335FFA8EF2C2EB02125FFA8CF04FF464
:1015A0006164920004FB0022704D734C7348C9B211
:1015B000013952FA86F205FB0122134412212360FD
:1015C0000CF08EFC21686E480DF060F96C480DF04F
:1015D000D7F901200FB0BDE8F0830AAD09A908AA28
:1015E00005ABE01C039502910192009307AA06AB9C
:1015F0005C490FF055FF5C4B079F9A681868596863
:101600000A9EDDF824E0DDF820C0A7F5FA67BFB236
:101610000BAC3DB207C4069A059C1E3517F0030FAC
:101620004FEAA508D7B240F09080504B022F8CBFF4
:1016300099464FF000094E494E4BC8EB050501FB9A
:1016400008F17A1E03FB0510002A00EB090347DDB1
:101650009DF82C004549012A01FB003340D09DF83C
:101660002D00022A01FB00333AD09DF82E00032AF8
:1016700001FB003334D09DF82F00042A01FB003316
:101680002ED09DF83000052A01FB003328D09DF8AC
:101690003100062A01FB003322D09DF83200072AD0
:1016A00001FB00331CD09DF83300082A01FB0033F6
:1016B00016D09DF83400092A01FB003310D09DF8A4
:1016C00035000A2A01FB00330AD00B2A9DF83600A8
:1016D00018BF9DF8372001FB003318BF01FB023310
:1016E0005FFA8EF2C2EB02125FFA8CF04FF4616582
:1016F000920005FB0022E1B21C4C1F4D52FA86F20B
:10170000013904FB01241C4420462C600BF0DAFA5A
:101710000B211C480CF0E4FB214600230A22184848
:101720000DF07EF916480DF02BF901200FB0BDE841
:10173000F0830BAAE01C07490FF0B2FE124B0B9A84
:101740001A6001200FB0BDE8F0834FF0000972E786
:101750000027C9E6807B010034F0FF1F28F0FF1F3F
:1017600070000020607B01008C7A01008051010034
:101770000085E2018033E10128150020847B01000F
:1017800074F5FF1F747B010000F0FF1F2DE9F04F7F
:10179000DFF86882974FD8F87854B1B000234FF43F
:1017A0007A7208978DF824308DF82C301A931B9399
:1017B0000A92002D00F08D8005F23C46304605F07F
:1017C00089FE2946304606F03DF801238A4A8B49B6
:1017D0001CA803F0C1FF1CA908A803F09DFE1CA8CB
:1017E0001C9703F0E7FE1A98002800F0C780002538
:1017F0002E468DF800604FF0000A4FF0FF0990B1BF
:1018000001221CA906F03EF8012815D00AF10103B7
:1018100030AA92441BB21D2B0AF8C09C15DC1A9802
:101820009A460028ECD11B980028EFD001221CA971
:1018300004F01EF80128E9D19DF870200D2A08BF98
:10184000534640F0B7801D2BE9DD013B9BB230AA27
:101850001A4402F8C06C9DF800202F2A04D0012BF6
:1018600002D96846FFF7CEFD1A98B8B10378190778
:101870000DD408A803F09EFE002D39D1012408A83C
:10188000089703F097FE204631B0BDE8F08FC3699A
:1018900042699A1AADD4002AABD1EAE71B9B002B10
:1018A000E7D093F831201207E3D5D3E904ABD3E9AD
:1018B0000023BAEB02026BEB03034FF0000B6FF057
:1018C000004A9B4508BF924538BF5246002A90D136
:1018D000CFE7D8F87C54002D3FF477AF05F5886644
:1018E000304603F04BFF2946304603F0ADFF6CE76E
:1018F0000B2143480CF0F4FA00230A222146414808
:101900000DF08EF83F480DF03BF8D8F878543B4B7B
:1019100035B305F23C46304605F0DCFD294630463D
:1019200005F090FF6323344A34491CA803F014FFE8
:101930001CA908A803F0F0FD1CA81C9703F03AFEB0
:101940001A9B83B32146184606F09AF802222E49C4
:1019500008A80CF087FF08A803F02CFE01248EE7EE
:10196000D3F87C54002DDDD005F58866304603F0B1
:1019700005FF2946304603F067FFD3E71B9D002D86
:101980007FF435AF142121480CF0AAFA1D480CF061
:10199000F7FF0D221E491F480CF064FF1D482C461E
:1019A0000CF0EEFF6BE71B980028CFD0224604F026
:1019B00051F8CBE730AB03EB0A01542A0AF10103DB
:1019C00001F8C02C1BB20DD11A9A1AB15469013C0E
:1019D000012538E71B9A12B11468013CF8E74FF073
:1019E000FF34F5E71D2B3FF730AF0A2A3FF42DAF48
:1019F00015E700BF5C7A0100987B01007810002099
:101A0000A47B010074F5FF1FB07B0100B47B0100D3
:101A1000CC7B0100AC1700202DE9F04383B00BF024
:101A20004BF9744B744D186001217448744C754F18
:101A3000754EDFF81492DFF8148209F093FA012151
:101A40006E4809F095FA122200216C4809F086FAD6
:101A500004226E4969480CF005FF296867480CF0BC
:101A600015FF02226A4965480CF0FCFE63480CF041
:101A700087FF0622674961480CF0F4FE21685F4841
:101A80000CF004FF032264495C480CF0EBFE5B4859
:101A90000CF076FF3B6856F823000EF093FA5F498E
:101AA0000EF098FB0DF038FE02460B4653485C4999
:101AB0000CF0A8FF0121514809F054FA2D683B6849
:101AC000284656F823700EF07DFA06462068284412
:101AD0000EF078FA014630460EF07CFB01460446D3
:101AE0004FF07E500EF0B8F94E4B19680EF0BEFA6A
:101AF0004D4B0646196820460EF0B8FA01463046AE
:101B00000EF0ACF90146D9F800000EF063FB47492E
:101B10000EF0ACFA0EF096FC454B06461868002312
:101B2000C8F8003000284ED00EF048FA8146680010
:101B300007FB00F02C300EF045FA4FF08E410EF00E
:101B40008DF936490EF046FB34490EF043FB014651
:101B500048460EF03FFB0DF0DFFD0DF0F1FB0EF0FF
:101B600007F9034600FB05F0C8F800300EF026FA2E
:101B700021460EF02FFB044630460EF01FFA0146B8
:101B800020460EF02FFC00BB01462E221B4809F018
:101B9000E5F90D22274919480CF064FE2046264934
:101BA0000EF018FB0DF0B8FD022402460B4600941F
:101BB00012480CF091FF21491048012203B0BDE802
:101BC000F0430CF04FBE0020D2E72E2200210B483C
:101BD00009F0C4F90E221A4908480CF043FE1949CD
:101BE0000648A1FB0631090C00230A220CF018FF5D
:101BF000E1E700BF2015002028F0FF1FAC170020F0
:101C000034F0FF1F24F0FF1F14F0FF1FDC7B0100E6
:101C1000E47B0100E87B0100F07B010000007A44D6
:101C2000F47B01002CF0FF1F38F0FF1F000061451E
:101C300058180020107C010000C0A847707B0100EC
:101C4000007C010007452EC230F0FF1F1018002055
:101C500038B5054608F0FCF91E4C014620460CF04C
:101C600015FE2D200CF010FA284608F0CDF901469B
:101C700020460CF00BFE2D200CF006FA284608F04A
:101C8000B1F9014620460CF001FE012112480CF08A
:101C900027F9284608F0CAF9014620460CF0F6FD5F
:101CA0003A200CF0F1F9284608F078F90146204670
:101CB0000CF0ECFD3A200CF0E7F9284608F080F92A
:101CC000014620460CF0E2FD2046BDE838400CF00D
:101CD00057BE00BF74F5FF1F587C010010B50020EF
:101CE0000AF000FE214C207001200AF0FBFD60701C
:101CF00002200AF0F7FDA07003200AF0F3FD1C4B50
:101D0000E07022681A6004200AF0ECFD20700520C3
:101D10000AF0E8FD607006200AF0E4FDA0700720DC
:101D20000AF0E0FD134BE07022681A6008200AF008
:101D3000D9FD114B187009200AF0D4FD0F4B187013
:101D40000A200AF0CFFD0E4B18700B200AF0CAFDD6
:101D50000C4B18700C200AF0C5FD0B4B18600D20C1
:101D60000AF0C0FD094B186010BD00BF58170020D5
:101D700028F0FF1F34F0FF1F18000020501800202B
:101D8000801700202C150020E817002024F0FF1FEA
:101D9000234B10B51968234C00202160C9B20AF00A
:101DA000F7FD617801200AF0F3FDA17802200AF026
:101DB000EFFDE17803200AF0EBFD1B4B1968216071
:101DC0000420C9B20AF0E4FD617805200AF0E0FDC4
:101DD000A17806200AF0DCFDE17807200AF0D8FDA2
:101DE000124B082019780AF0D3FD114B09201978FD
:101DF0000AF0CEFD0F4B0A2019780AF0C9FD0E4BF0
:101E00000B2019780AF0C4FD0C4B0C2019780AF04D
:101E1000BFFD0B4B0D201978BDE810400AF0B8BD8E
:101E200028F0FF1F5817002034F0FF1F1800002073
:101E300050180020801700202C150020E8170020E3
:101E400024F0FF1F2DE9F84F054608460EF0B6F8BE
:101E500001460EF003F8044628460EF0AFF801469E
:101E600020460EF003F9014627480EF0B3F94FF073
:101E7000010A4FF07E578146D346012400252046B3
:101E80000EF0A0F849460EF0F1F806460EF0B4FA4E
:101E90000EF098F8014630460DF0DEFF39468046D8
:101EA0000EF082FA4FF0874148B130460EF07CFACE
:101EB00028B130460EF0FEFA47468246A34601346A
:101EC00045F10005002D08BF402CD8D10F49104E18
:101ED0000F68104C1048114D0BF1FF3212030AF13C
:101EE000FF3302F47F22C3F30B03134327F01042A6
:101EF0000B4F0A603360256007600B6843F01043A6
:101F00000B60BDE8F88F00BF001B374B80F002402C
:101F100004F1024008F0024088F00240030000078C
:101F2000030000472DE9F04F0546DFF84C828D4E47
:101F30008D4F98F800E02E60FF2085F82400DFF830
:101F40003C92387859F820C00023BEF1060F8DB0BE
:101F50000C4685F8253085F826309CBF88F800307F
:101F60009E46BCF1000F00F0A8808C455BD0634614
:101F7000810001E09C4256D00B445B68002BF9D1F4
:101F8000634603EB010ADAF80430002BF9D105EBC4
:101F9000010BCAF80440BEF1060F4FF0FF044FFAE0
:101FA00080FACBF804308DF82C4002968DF82D3055
:101FB0008DF82E3085F824A0644605D8002388F8D3
:101FC0000030002C00F0A980A24226D0234601E078
:101FD000934222D00B445B68002BF9D104EB010C37
:101FE000DCF80440002CF9D1CCF804200CAB1944E7
:101FF0000024431CBAF1FF3F41F8244C3B708DF89C
:102000002CA0029605D0594951F82A3002AA9342D1
:1020100072D028460DB0BDE8F08F013038702846E8
:102020000DB0BDE8F08F0023FF21BEF1060F029630
:102030008DF82C108DF82D308DF82E3001D888F8C1
:1020400000309445E9D06346810001E09A42E4D033
:102050000B445B68002BF9D18C44DCF804402CB1B4
:10206000A4468C44DCF80440002CF9D10CAB194494
:102070004FFA80FE431CBEF1FF3FCCF804203B70BA
:1020800041F8244C02968DF82CE0C2D0374951F823
:102090002E3002AA9342BCD159F82E304FEA8E0658
:1020A00023B19A1953685460002BFAD10023387079
:1020B00049F82E3041F82E30ABE7B0B38100DFF89D
:1020C000ACA049F8204005EB010C00234AF8205051
:1020D000BEF1060FCCF804304FFA80FA4FF0FF0C37
:1020E00002968DF82D308DF82E3085F824A08DF8CD
:1020F0002CC07FF663AF64E759F82A304FEA8A06AE
:1021000023B19A1953685460002BFAD10023387018
:1021100049F82A3041F82A307BE7A0B1134B49F83F
:10212000202002AA43F8202060E7114901921520DF
:102130000AF0F6FC0F4B98F800E0019A4FF40011FA
:1021400019603878BAE70A49019215200AF0E8FCCC
:10215000084B019A4FF40011196038784FFA80FA51
:102160008100DBE7807A01009119002070190020BE
:102170007504000000E100E094E9FF1F5019002001
:102180002DE9F0415B4D5C4C5C4E0AF063FB042191
:102190005B4809F0B3FC2A68266000236372236160
:1021A0002372E3600AB9A1E01A465369002BFBD100
:1021B00054610027534B50486761A780E780236034
:1021C00002F07AFB504A4FF0010E02F118013B4633
:1021D00038461772D760166082F809E01161174619
:1021E00000E0396941F82300517A474E01339942A2
:1021F000F7DC29683F4B09B97AE019464B69002B97
:10220000FBD14A61414B42491C600024184654618D
:102210009480D48082F88841116082F88941C2F8A4
:10222000844182F88A41C2F88C411C725A605C7207
:10223000DC600CF07DF8374A374BD068374A1A60BB
:102240000DF0C0FE364D374B374E18604FF0FF088B
:10225000364B85F82540012785F82480344A3549D6
:102260006C632846AC6385F83C402B6085F826708B
:102270000EF0CEFA304B86F8248086F825402C4AA2
:102280002E493360304686F826700EF0C1FA2A4691
:1022900031462B482B4DFFF745FE254A2A49284851
:1022A0000EF0B6FA294B224A1C714FF47A761C7351
:1022B0009E6027499C641846DC641D600EF0A8FAF5
:1022C000244B254D83F89744262683F89464C3F85D
:1022D0007844C3F87C44C3F89844C3F89C54144A27
:1022E0001E491846BDE8F0410EF092BA2C6060E736
:1022F0001E6087E7A41A002064170020507A0100AE
:10230000AC1700200C7E0100341500202817002097
:10231000A07A010014F0FF1F38170020F07D0100A3
:10232000E01600200418002024180020BC7E0100C4
:10233000FCEFFF1F9D060000D07E0100F5060000A7
:10234000F0FFFF1F5C7A0100F10500001C00002077
:102350009907000078100020011001384D07000097
:1023600038B5EB4C05460A21204602F013FE204604
:10237000002102F0E7FB2046302102F0E3FB20467B
:10238000402102F0DFFB6021204602F0DBFB20460B
:1023900002F012FE20460A2102F0FCFD2046002138
:1023A00002F0D0FB2046262102F0CCFB2046002183
:1023B00002F0C8FB6C21204602F0C4FB204602F06C
:1023C000FBFD20460A2102F0E5FD2046002102F037
:1023D000B9FB2046282102F0B5FB2046012102F07E
:1023E000B1FBF021204602F0ADFB204602F0E4FDF7
:1023F00020460A2102F0CEFD2046002102F0A2FB79
:1024000020462A2102F09EFB2046002102F09AFB82
:102410000021204602F096FB204602F0CDFD20462A
:102420000A2102F0B7FD2046002102F08BFB204676
:102430002C2102F087FB20460F2102F083FB222192
:10244000204602F07FFB204602F0B6FD20460A211E
:1024500002F0A0FD2046002102F074FB20463C2142
:1024600002F070FB2046442102F06CFB462120461E
:1024700002F068FB204602F09FFD20460A2102F090
:1024800089FD2046002102F05DFB2046242102F058
:1024900059FB2046012102F055FB3721204602F06E
:1024A00051FB204602F088FD20460A2102F072FD11
:1024B0002046002102F046FB2046302102F042FB7C
:1024C0002046002102F03EFBA221204602F03AFB0A
:1024D000204602F071FD20460A2102F05BFD2046F5
:1024E000002102F02FFB2046022102F02BFB2046A8
:1024F000002102F027FB4321204602F023FB204667
:1025000002F05AFD4FF4C8700AF050FD20460A212F
:1025100002F040FD2046002102F014FB20462E214F
:1025200002F010FB2046192102F00CFB1921204675
:1025300002F008FB204602F03FFD20460A2102F08F
:1025400029FD2046002102F0FDFAAD0020460421BD
:1025500002F0F8FAC5F30721204602F0F3FA05F07D
:10256000FC01204602F0EEFA204602F025FD20464E
:102570000A2102F00FFD2046002102F0E3FA204676
:10258000062102F0DFFA2046012102F0DBFA3021B9
:10259000204602F0D7FA204602F00EFD20460A211E
:1025A00002F0F8FC2046002102F0CCFA20460A2175
:1025B00002F0C8FA2046002102F0C4FA00212046A9
:1025C00002F0C0FA204602F0F7FC20460A2102F091
:1025D000E1FC2046002102F0B5FA20460E2102F06F
:1025E000B1FA2046002102F0ADFA0821204602F09F
:1025F000A9FA204602F0E0FC20460A2102F0CAFCBB
:102600002046002102F09EFA2046102102F09AFA9C
:102610002046FF2102F096FA3C21204602F092FA71
:10262000204602F0C9FC20460A2102F0B3FC2046F5
:10263000002102F087FA2046222102F083FA204688
:102640007F2102F07FFA7F21204602F07BFA2046AC
:1026500002F0B2FC20460A2102F09CFC2046012137
:1026600002F070FA2046242102F06CFA2046002184
:1026700002F068FA0021204602F064FA204602F0D7
:102680009BFC20460A2102F085FC2046002102F036
:1026900059FA2046242102F055FA2046002102F082
:1026A00051FA1421204602F04DFA204602F084FC33
:1026B00020460A2102F06EFC2046002102F042FA78
:1026C00020462A2102F03EFA2046002102F03AFA82
:1026D0000021204602F036FA204602F06DFC20462A
:1026E0000A2102F057FC2046002102F02BFA204676
:1026F000202102F027FA2046002102F023FA0021CF
:10270000204602F01FFA204602F056FC012038BD98
:102710003019002038B5304B304C1021054653F8A5
:102720002000FFF78FFB2E4802F0B2FA2846FFF791
:1027300017FE22782B48114601F03CFD23680F2B31
:102740000CD8DFE803F00C1014181C2024282C30BF
:1027500034383C404408244B244A1A6038BD224B8C
:10276000234A1A6038BD204B224A1A6038BD1E4BDE
:10277000214A1A6038BD1C4B204A1A6038BD1A4BDA
:102780001F4A1A6038BD184B1E4A1A6038BD164BD6
:102790001D4A1A6038BD144B1C4A1A6038BD124BD2
:1027A0001B4A1A6038BD104B1A4A1A6038BD0E4BCE
:1027B000194A1A6038BD0C4B184A1A6038BD0A4BCA
:1027C000174A1A6038BD084B164A1A6038BD064BC6
:1027D000154A1A6038BD00BF14F0FF1F00F0FF1F3C
:1027E000301900203817002054170020BD549341A1
:1027F000103377C0993918C0BE0D68BFCE71153F30
:102800008D090340CCC9624009A7A3407DDBD140BC
:10281000C416014154FC1741D0E8304119554641D6
:102820009FAB5F41A04176415E2E864138B504469C
:102830000D463148012108F095FB2AB200212E48AF
:1028400008F08CFB204607F003FC01462A480CF0F8
:102850001DF82D21284808F047FB204607F0D4FB3F
:10286000014625480CF012F82D21234808F03CFBC6
:10287000204607F0B7FB01461F480CF007F802227C
:102880001E491D480BF0EEFF204607F0CFFB09283C
:1028900003DC3021184808F027FB204607F0C6FB70
:1028A000014615480BF0F2FF204607F077FB0122A6
:1028B0000546134910480BF0D5FF092D03DC3021E4
:1028C0000D4808F011FB29460B480BF0DFFF2046AE
:1028D00007F076FB01220446094907480BF0C2FFC6
:1028E000092C03DC3021044808F0FEFA2146024896
:1028F000BDE838400BF0CABFAC170020207C0100B7
:10290000487C010038B501210446314808F02AFB13
:10291000372200212E4808F021FB204607F098FBC3
:1029200001462B480BF0B2FF2D21294808F0DCFAB4
:10293000204607F069FB014625480BF0A7FF2D2133
:10294000234808F0D1FA204607F04CFB0146204806
:102950000BF09CFF02221F491D480BF083FF20460D
:1029600007F064FB092803DC3021194808F0BCFAA1
:10297000204607F05BFB014615480BF087FF204619
:1029800007F00CFB01220546134911480BF06AFFC2
:10299000092D03DC30210E4808F0A6FA29460C4820
:1029A0000BF074FF204607F00BFB012204460A4996
:1029B00007480BF057FF092C03DC3021044808F0CE
:1029C00093FA21460248BDE838400BF05FBF00BFD4
:1029D000AC170020207C0100487C01002DE9F04F5D
:1029E00089B0FFF77BF90AF067F9AD4FDFF8108384
:1029F0003860AC48AC4C09F095F80121A94808F0C2
:102A0000B7FA0221A74808F0ADFA00221146A548FE
:102A100008F0A4FA0822A549A2480BF023FF0121DF
:102A2000A04808F09FFA102200219E4808F096FA6C
:102A300012229F499B480BF015FF9A480BF0A0FF0C
:102A400000259C48C8F800500BF09AFF99480BF0FD
:102A500097FF052198480BF043FA924809F09EFA37
:102A60000721964802F0C4FC0E21944802F01EFD96
:102A70000C21924802F0ECFC4FF00A094FF038426A
:102A8000FF238DF81D508DF81E3006928DF81C9096
:102A900004F5916608AB13E90C00304604F5936128
:102AA00006F0D6FA94F89454C4F88464002D00F02B
:102AB000EB851C2182480BF013FA7E480BF060FF77
:102AC0000622804977480BF0CDFE76480BF058FF80
:102AD000744809F063FA7C4A7C4B12689A4202D926
:102AE000794A3C2313607A4A784B12689A4202D999
:102AF000774A3C231360774BDFF808A21A78172A2D
:102B000084BF00221A70744B1A783B2A84BF0022BB
:102B10001A70724B1A78172A84BF00221A70704BF1
:102B20001A783B2A84BF00221A70DAF80030012B91
:102B300084BF0023CAF800306A4B1B68032B00F2E5
:102B4000FA84694DDFF8C081684E08200AF0E4F984
:102B5000E8B92B6801332B6002E00A200AF026FA5C
:102B600008200AF0D9F90028F7D02A68DAF80030EE
:102B7000A2F10901B3FA83F304294FEA531300F2D7
:102B8000D084002B00F0CD84574A0E2313604548B3
:102B900008F0C8FF0121434808F0EAF90221414842
:102BA00008F0E0F9002211463E4808F0D7F90AF093
:102BB00083F83B682C683060C3EB00090E2C5BD8AF
:102BC000DFE814F06B042704D8033C03BC023C028A
:102BD000A7012701A6005A005A005A005A005A00BD
:102BE0000F00404B04201C680AF096F90190032066
:102BF0000AF092F9019B8346002B40F0E184D8F85B
:102C000000303B4A0121132B117040F3FE85013344
:102C1000C8F800300134BBF1000F40F0D884DFF871
:102C2000ECB0334ADBF800300121132B117040F374
:102C3000F385092CC8BFDBF8003004F1FF34CCBFAA
:102C400001330123002CCBF80030C0F2C684042CE1
:102C5000A8BF0024274B234A53F8240014600DF02A
:102C6000B1F925490DF0B6FA0CF056FD02460B46B7
:102C70000C4822490BF0C6FEFEF7CEFE0AF01CF807
:102C8000FFF740FE074809F089F90A200AF08EF99B
:102C9000B9F5167F7FF759AF09B0BDE8F08F00BFD7
:102CA00074100020AC17002078100020247C010054
:102CB000307C010074F5FF1F447C010040F0FF1FD1
:102CC000607C0100807C010028F0FF1FA0860100CD
:102CD00034F0FF1F1800002050180020801700203B
:102CE0002C15002024F0FF1FDC16002020150020EA
:102CF0002415002014F0FF1F00007A44DC7C010042
:102D000058180020E8170020001800201418002090
:102D100007F056F9BE4C03460420236002930AF0E4
:102D2000FBF8019003200AF0F7F8019A029B834612
:102D3000002A40F03584D8F80020B6490120132A33
:102D4000087040F36E850132C8F800200133BBF1F2
:102D5000000F40F02C84DFF8E0B2AE49DBF8002031
:102D60000120132A087040F36585092BC8BFDBF8E2
:102D7000002003F1FF33CCBF01320122002BCBF83E
:102D80000020C0F21A843C2BA8BF00232268A24C6A
:102D90009A4223602FD0306807F048F903903068DA
:102DA00007F0FCF8216802918346306807F01AF9B1
:102DB0000446306807F028F90190306807F048F9B8
:102DC0000DF1200E02990EF8101D00F14E0C039A21
:102DD000019B8DF8122070468DF816C08DF81530C5
:102DE0008DF814408DF811B007F046F909F06AFF2C
:102DF00009F062FF38600722884989480BF032FDEC
:102E000009F05AFF07F0DCF8014685480BF03EFD5B
:102E100032E707F0C3F8834C034604202360029393
:102E20000AF07AF8019003200AF076F8019A029BE2
:102E30008346002A40F00184D8F80020754901201B
:102E4000132A087040F3A5840132C8F8002001332A
:102E5000BBF1000F40F0F883DFF8DCB16D49DBF81F
:102E600000200120132A087040F39C84092BC8BF5E
:102E7000DBF8002003F1FF33CCBF01320122002B2D
:102E8000CBF80020C0F2E6833C2BA8BF00232268C9
:102E9000654C9A4223602ED0306807F0C7F8039043
:102EA0003068246807F08CF80290306807F09AF8D0
:102EB0008346306807F0A8F80190306807F0C8F83A
:102EC0000DF1200E02990EF8101D00F14E0C039A20
:102ED000019B8DF8122070468DF816C08DF81530C4
:102EE0008DF814B08DF8114007F0C6F809F0EAFE2D
:102EF00009F0E2FE386007224C4949480BF0B2FC69
:102F000009F0DAFE07F04AF8014645480BF0BEFC2E
:102F1000B2E607F08BF8464C034604202360029388
:102F200009F0FAFF0190032009F0F6FF019A029BD5
:102F30008346002A40F07283D8F8002035490120EA
:102F4000132A087040F335840132C8F80020013399
:102F5000BBF1000F40F06983DFF8DCB02D49DBF8EE
:102F600000200120132A087040F32C84092BC8BFCD
:102F7000DBF8002003F1FF33CCBF01320122002B2C
:102F8000CBF80020C0F25783182BA8BF002322687B
:102F900001939A422DD0306807F000F80390306812
:102FA00007F00EF80290306807F01CF8044630680D
:102FB00007F02AF88346306807F04AF80DF1200E32
:102FC00002990EF8101D00F14E0C039A019B8DF82A
:102FD000112070468DF816C08DF812308DF815B09E
:102FE0008DF8144007F048F809F06CFE09F064FE13
:102FF000386005220F490A480BF034FC09F05CFEEA
:1030000007F014F8014606480BF040FC34E600BF18
:10301000201800202415002020170020D47C010057
:10302000AC170020601700201C150020CC7C01008C
:10303000EC170020C47C01001418002006F0D2FF19
:10304000C04C034604202360029309F065FF019001
:10305000032009F061FF019A029B8346002A40F099
:10306000CE82D8F80020B8490120132A087040F316
:10307000B0830132C8F800200133BBF1000F40F0EB
:10308000C582DFF8ECB2B049DBF800200120132A3A
:10309000087040F3A683092BC8BFDBF8002003F1BA
:1030A000FF33CCBF01320122002BCBF8002040F3CC
:1030B000B382202BA8BF01232268A44C9A4223602C
:1030C0002ED0306806F0B2FF0390306806F066FF3D
:1030D0008346306806F074FF02903068246806F07A
:1030E00093FF0190306806F0B3FF0DF1200E029AB5
:1030F0000EF8102D00F14E0C039B01998DF8123043
:1031000070468DF816C08DF815108DF814408DF8A6
:1031100011B006F0B1FF09F0D5FD09F0CDFD386022
:1031200004228B498B480BF09DFB09F0C5FD06F08E
:1031300059FF014687480BF0A9FB9DE506F064FFA7
:10314000854C034604202360029309F0E5FE0190BC
:10315000032009F0E1FE019A029B8346002A40F019
:103160003F82D8F8002078490120132A087040F3E4
:103170003E830132C8F800200133BBF1000F40F05C
:103180003682DFF8ECB17049DBF800200120132A09
:10319000087040F33483092BC8BFDBF8002003F12B
:1031A000FF33CCBF01320122002BCBF8002040F3CB
:1031B00024820D2BA8BF01232268684C9A42236009
:1031C0002ED0306806F032FF0390306806F0E6FE3D
:1031D0008346306806F0F4FE0290306806F002FF85
:1031E00001903068246806F033FF0DF1200E02993B
:1031F0000EF8101D00F14E0C039A019B8DF8122061
:1032000070468DF816C08DF814308DF815408DF885
:1032100011B006F031FF09F055FD09F04DFD3860A1
:1032200006224F494B480BF01DFB09F045FD06F007
:10323000EBFE014647480BF029FB1DE506F008FFB1
:10324000484C034604202360029309F065FE019078
:10325000032009F061FE019A029B8346002A40F098
:103260007E81D8F8002038490120132A087040F3E5
:10327000F6820132C8F800200133BBF1000F40F0A4
:103280007581DFF8ECB03049DBF800200120132A0B
:10329000087040F3EC82092BC8BFDBF8002003F173
:1032A000FF33CCBF01320122B3F5FA6FCBF8002017
:1032B000C0F2638140F634029342C8BF4FF4FA6310
:1032C0002268294C9A4223602ED0306806F0AEFE68
:1032D0000390306806F062FE8346306806F070FEA8
:1032E0000190306806F07EFE0290306806F08CFE99
:1032F0000DF1200E9DF804200EF8102D236803997F
:10330000029A8DF815004E3370468DF812108DF824
:1033100016308DF814208DF811B006F0ADFE09F0CE
:10332000D1FC09F0C9FC38600522104909480BF0AE
:1033300099FA09F0C1FC06F08BFE014605480BF036
:10334000A5FA99E47C1700202415002054180020C9
:10335000BC7C0100AC1700204C1800202417002072
:10336000B47C0100181800205C170020AC7C010020
:1033700014180020B84B04201C6809F0CDFD019002
:10338000032009F0C9FD019B8346002B40F0D88043
:10339000D8F80030B14A0121132B117040F36D822F
:1033A0000133C8F800300134BBF1000F40F0CF808A
:1033B000DFF8D0B2A94ADBF800300121132B1170DD
:1033C00040F36182092CC8BFDBF8003004F1FF3400
:1033D000CCBF01330123002CCBF80030C0F2BD80FC
:1033E0009F4B9C42C8BF00249B4B9E499E481C603B
:1033F00004220BF037FA984B19689B480BF046FAF9
:1034000001229A4998480BF02DFA97480BF0B8FA28
:1034100032E4974B04201B68029309F07DFD019074
:10342000032009F079FD019A029B8346002A40F0AF
:10343000A780D8F8002089490120132A087040F39A
:1034400000820132C8F800200133BBF1000F40F0C8
:103450009E80DFF830B28149DBF800200120132A7A
:10346000087040F3F681092BC8BFDBF8004003F178
:10347000FF33C8BF0134002BCBF8004040F38D80F0
:10348000B3F5616FC8BF0123794C7A497648236050
:1034900004220BF0E7F92346AEE7704C2378002BAB
:1034A00040F02F810A2274496F480BF0DBF90420A9
:1034B00009F032FD0446032009F02EFD002C7FF4B4
:1034C000DBAB00287FF4D8AB674808F02BFB012169
:1034D000654807F04DFD0221634807F043FD0022D7
:1034E0001146614807F03AFDFEF752FC0A22634993
:1034F0005D480BF0B7F95C4808F050FD40F2DC5035
:1035000009F054FDFEF788FA09F0D6FBFFF7FAF947
:10351000554808F043FD0A2009F048FD09B0BDE810
:10352000F08F0E2A7FF733AB002B3FF430AB002334
:103530002B60FFF72CBB524A03231360FFF701BB3C
:103540000023C8F80030BBF1000F3FF431AF4D4B02
:103550000022002C1A60BFF643AF414C44E7002222
:10356000C8F80020BBF1000F3FF48BAE454A0021A4
:10357000B3F5FA6F1160BFF69DAE40F634039FE6D7
:103580000022C8F80020BBF1000F3FF462AF3D4AB3
:103590000021002B11603FF773AF4FF4616373E7B5
:1035A0000022C8F80020BBF1000F3FF4D4AB354A2D
:1035B0000021002B1160BFF6E6AB3B23FFF7E6BB13
:1035C0000023C8F80030BBF1000F3FF428AB2D4BAF
:1035D0000022002C1A60BFF63AAB0324FFF73ABB77
:1035E0000022C8F80020BBF1000F3FF4CAAD254A05
:1035F0000021002B11603FF7DCAD0C23DCE500223D
:10360000C8F80020BBF1000F3FF43BAD1D4A00217C
:10361000002B11603FF74DAD1F234DE50022C8F888
:103620000020BBF1000F3FF497AC164A0021002B9D
:103630001160BFF6A9AC1723A9E40022C8F8002046
:10364000BBF1000F3FF408AC0E4A0021002B1160C3
:10365000BFF61AAC3B231AE434F0FF1F24150020F8
:1036600080510100A47C0100AC170020A07C010067
:1036700028F0FF1FDC7B0100887C0100947C0100A6
:1036800024F0FF1F141800203146204601F0F4FFFB
:1036900000283FF40EAA7E4ED4F884043246092155
:1036A00005F006FE337813F0C00358D0402B31D01C
:1036B0000D2178480AF014FC2B464A4629467648E4
:1036C0000BF0AEF974480BF05BF90024214600239F
:1036D0000A227248C8F800400BF0A2F90122704992
:1036E0006E480BF0BFF8294600230A226B480BF006
:1036F00097F96A480BF044F9684808F04FFCFFF767
:10370000EAB9FEF745FB4FF00003237009F0D4FA45
:103710003860C7E6737AF279307A013302F03F02FB
:1037200003EB024303EB002080020CF047FC5D49F1
:103730000CF09CFC0CF086FE0D21054655480AF065
:10374000CFFB294600230A2253480BF069F952485F
:103750000BF016F9C72DB8D9A5F1C804B6E7707AF1
:10376000B379F279B57A7179347A00F003004000C8
:1037700003F00303920040EAD51001F00F0142EA82
:103780008323084443EA94130738013303FA00F013
:10379000CBE7C820019309F009FC434B1A68019B51
:1037A000FFF752BBC820019309F000FC019BFFF713
:1037B0005DBBC820019309F0F9FB3B4B1A68019BE4
:1037C000FFF7C2BBC820019309F0F0FB019BFFF794
:1037D000CDBBC820019309F0E9FB334B1A68019B6C
:1037E00047E4C820019309F0E1FB019B53E4C820A2
:1037F000019309F0DBFB2C4B1A68019BB9E4C8204C
:10380000019309F0D3FB019BC5E4C82009F0CEFB6E
:10381000254B1B68FFF7FBB9C82009F0C7FBFFF772
:1038200008BAC820019309F0C1FB1F4B1A68019B1D
:10383000FFF789BAC820019309F0B8FB019BFFF795
:1038400094BAC820019309F0B1FB174B1A68019B89
:10385000F7E5C820019309F0A9FB019B03E6C82006
:10386000019309F0A3FB104B1A68019B01E5C820E6
:10387000019309F09BFB019B0DE5C82009F096FB25
:10388000094B1B688CE5C82009F090FB9AE500BF46
:10389000F01700204C7C010074F5FF1FAC170020CE
:1038A0005C7C0100BD37063A001800202DE9F04F7E
:1038B00085B072B6A149A24BA24841250E248022B0
:1038C0000D70047019461A700B789D4A1806FBD5C6
:1038D0009D499E4B0D789E4C9E481D70033924785F
:1038E00000780978D9705C70987062B672B69349A6
:1038F000944C41260F2580200E70257011461070C3
:103900000A781206FCD5904C91489249924A247844
:10391000007809781278DA711C715871997162B661
:103920008E4C8F4E4FF4FA7009F040FB21688D48A1
:1039300000230A220BF074F88A480BF021F84FF4A8
:103940007A7009F033FB2168864800230A220BF0C5
:1039500067F884480BF014F84FF47A7009F026FBEE
:1039600000230A2221687F480BF05AF87D480BF0AB
:1039700007F87D4801F08CF90121022009F0DAFAFC
:103980000121142009F0D6FA0021152009F0D2FAFD
:10399000002008F055FE0121022009F099FA0121CA
:1039A000142009F095FA0121062009F0C3FA00213C
:1039B000062009F08DFA0021062009F0BBFA00214B
:1039C000042009F0B7FA0021032009F0B3FA00211E
:1039D000082009F0AFFA0121042009F079FA012149
:1039E000032009F075FA0121082009F071FA4FF45B
:1039F000FA7009F0DBFA09F05FF95C4B306098422D
:103A000002DC5B4809F05EF901233C22022159489F
:103A1000594D08F0B9F9642009F0C8FA554808F082
:103A200081F80121534807F0A3FA0221514807F019
:103A300099FA002211464F4807F090FA0A224F499E
:103A40004C480AF00FFF4B480AF09AFF494808F02B
:103A5000A5FA0121062009F06DFA0021062009F0DF
:103A600037FA444808F05EF80121424807F080FA2E
:103A70000221404807F076FA002211463D4807F03F
:103A80006DFA0A223D493B480AF0ECFE39480AF03B
:103A900077FF384808F082FAC82009F087FA072132
:103AA000374801F0A5FC0E21354801F0FFFC4FF02E
:103AB00038400A210022FF2302908DF80C108DF867
:103AC0000E3005F591678DF80D2004AB384613E9EB
:103AD0000C0005F5936105F0BBFA95F89444C5F820
:103AE0008474002C52D01C2126480AF0F9F91D4894
:103AF0000AF046FF1F4808F015F801211D4807F09D
:103B000037FA02211B4807F02DFA00221146194806
:103B100007F024FA12221C4916480AF0A3FE1548A1
:103B20000AF02EFF09F0C8F8FEF7ECFE114808F085
:103B300035FA4FF47A7009F039FADBE707000240F2
:103B400000000240060002400B0002404417002023
:103B50000A000240090002400800024000D0034071
:103B60002015002074F5FF1F301900207FC18556F5
:103B700080C18556AC17002078100020E87C010039
:103B800040F0FF1F607C0100F47C010039462846AC
:103B900001F072FD0028A6D0FDF7F8FD64217848F9
:103BA000DFF83092774DDFF830A2774FDFF82C82C4
:103BB0000AF0EAFAFEF712FF744A754BD2F800B029
:103BC00053F82B000CF0FEF9C9F800005846FEF738
:103BD000A1FDFDF7D3FB2146042009F079F9214628
:103BE000032009F075F92146082009F071F9012137
:103BF000042009F09FF90121032009F09BF901211C
:103C0000082009F097F96348DFF8D4B107F08AFF7C
:103C10000121604807F0ACF902215E4807F0A2F9E3
:103C2000224621465B4807F099F909F045F802461B
:103C300082FB05011144D317C3EB2113C3EB03131C
:103C4000DAF80000544932605B001E331A183B60FA
:103C50000A600CF0B7F9D9F80010504A01920CF044
:103C600005FA4FF06E510CF001FA0CF0C5FB019A09
:103C70004B4B10601968D8F800204A4BDFF864916C
:103C8000521A22EAE27283FB02131344D017C0EBEC
:103C9000E32001920BF02EFD0BF052FB0CF040F8EC
:103CA000019A414BCBF8000003FB002385FB031274
:103CB0001A44D817C0EB621001930BF01BFD0BF0F8
:103CC0003FFB0CF02DF8019B384DA0EB0011024694
:103CD00003EB810336482A601021C9F800300AF04E
:103CE000FFF8DBF8001033480AF0D0FD29683148AE
:103CF0000AF0CCFDD9F800102E480AF0C7FD2D4877
:103D00000AF03EFE08212C480AF0EAF8DAF8001022
:103D100028480AF0BBFD27480AF032FE0821274850
:103D20000AF0DEF8D8F8001022480AF0AFFD21486A
:103D30000AF026FE0E2122480AF0D2F83068FDF77C
:103D400087FF0C211F480AF0CBF83868FDF780FF89
:103D50003B6835681C485D1B15210AF0C1F82946EF
:103D600014480AF093FD13480AF00AFE174A184B4C
:103D700014604FF0FF321A6005B0BDE8F08F00BF4D
:103D80000082FF1F898888882815002024F0FF1FE3
:103D900014F0FF1FAC1700204C170020E417002080
:103DA00004F0FF1FC5B3A291F0F1FFFF50170020F0
:103DB000087D010074F5FF1F1C7D0100287D0100B6
:103DC000347D0100447D0100547D0100ECFFFF1FA4
:103DD0001C1800200418002028F0FF1F34F0FF1FDB
:103DE0006C000020081800202DE9F047C04D2C6819
:103DF00024B1012C69D030BFBDE8F08708F05CFF2A
:103E0000BC4FBD4E3860BD4807F08CFE0121BB4859
:103E100007F0AEF80221B94807F0A4F8224621467F
:103E2000B64807F09BF80A22B549B4480AF01AFDD3
:103E3000B2480AF0A5FD14213068FEF7F7FC386897
:103E4000FEF760FDAD4808F0A9F8AE4A3B6812687D
:103E5000934280F240813268934233DBAA4F3C6840
:103E6000002C00F085810D21A848A94C0AF038F8F3
:103E7000A8480AF085FDA84BA84A31681B6812685B
:103E8000A7480B441A440E21326023600AF028F838
:103E900008F012FFFDF7DCFE0B21A2480AF020F823
:103EA0002068FDF7D5FE0B219F480AF019F830680D
:103EB000FDF7CEFE0123AE2190482B6007F03AFEBD
:103EC000FDF72EFA2C68012C95D1FCF79FFE974E3A
:103ED000974B32681B689A428DDB904B1F68002F0E
:103EE00000F0FF80FCF74AFF834BDFF87C921E68EE
:103EF000DFF878828F4F08F0DFFE8F4A8F4B126811
:103F0000301A861A26EAE67683FB06233344F01736
:103F1000C0EBE3200BF0EEFB0BF012FA0BF000FF0E
:103F2000874A884BC9F8000002FB006683FB062322
:103F300033448246F017C0EB63100BF0DBFB0BF051
:103F4000FFF90BF0EDFEA0EB0012034606EB820634
:103F5000514670483B60C8F800600AF097FC6D4815
:103F60000AF00EFD39686B480AF090FC69480AF0C7
:103F700007FDD8F8001067480AF088FC65480AF089
:103F8000FFFC3B68D9F80010D8F80020C3EB0313FE
:103F90009B004FF4616000FB01331A44092A40F38F
:103FA00091801221684809F09BFF5A480AF0E8FC0A
:103FB0000021022008F08CFF0E21644809F090FFD8
:103FC00054480AF0DDFC0A21614800F0E3FF0021BB
:103FD0005F4800F0B7FD30215D4800F0B3FD0021DF
:103FE0005B4800F0AFFD0021594800F0ABFD584898
:103FF00000F0E2FF0A21564800F0CCFF00215448AF
:1040000000F0A0FD0221524800F09CFD0021504824
:1040100000F098FD00214E4800F094FD4C4800F05F
:10402000CBFF10214B4809F05BFF3A480AF0A8FC8F
:10403000642008F0BBFF0E21474809F051FF3548C6
:104040000AF09EFC642008F0B1FF98F800303A783E
:1040500099F80010414805F047FE414805F01AFC68
:104060002146022008F034FF0A21394800F092FF6F
:104070000021374800F066FD3021354800F062FD30
:104080000021334800F05EFDA221314800F05AFDC6
:104090002F4800F091FF0A212D4800F07BFF0021FE
:1040A0002B4800F04FFD0221294800F04BFD002174
:1040B000274800F047FD4321254800F043FD2448F0
:1040C00000F07AFF01233C2202210C4807F05CFE3D
:1040D00000232B608FE60121052008F0F9FE3B68E4
:1040E000B9E6204801F066FAFCF762FE376082E626
:1040F000ECFFFF1F2015002028150020AC17002022
:104100006C7D01000C18002070000020787D0100FB
:104110004C17002074F5FF1F28F0FF1F34F0FF1F1D
:10412000347D0100887D0100947D01003015002060
:10413000E41700205017002004F0FF1FC5B3A29120
:10414000F0F1FFFF89888888A07D0100B47D01001F
:1041500030190020C47D0100D87D0100E016002048
:10416000F0FFFF1F1C0000206C000020081800203A
:104170000A210D4800F00EFF21460B4800F0E2FC3A
:104180000E21094800F0DEFC2146074800F0DAFC69
:104190000A21054800F0D6FC034800F00DFF4FF05F
:1041A000FF333B605FE600BF3019002000207047FE
:1041B0000020704738B50F29114C28BF0F210F2A56
:1041C00028BF0F220D46017A204642EA051500F06D
:1041D0000BFE2046002100F0B5FC2046202100F017
:1041E000B1FC2046002100F0ADFCE9B2204600F011
:1041F000A9FC204600F0E0FEB0FA80F0400938BD8E
:1042000030190020F8B5C34C01260546067120463A
:1042100000F03EFD052008F0C9FE297A204600F096
:10422000E3FD2046002100F08DFC2046302100F007
:1042300089FC2046402100F085FC6021204600F0EA
:1042400081FC204600F0B8FE297A204600F0CCFD23
:104250002046002100F076FC2046262100F072FC6A
:104260002046002100F06EFC6C21204600F06AFC24
:10427000204600F0A1FE297A204600F0B5FD204638
:10428000002100F05FFC2046282100F05BFC314655
:10429000204600F057FCF221204600F053FC204657
:1042A00000F08AFE297A204600F09EFD204600217B
:1042B00000F048FC20462C2100F044FC20460F2151
:1042C00000F040FC2221204600F03CFC204600F09B
:1042D00073FE297A204600F087FD2046002100F079
:1042E00031FC20463C2100F02DFC2046442100F00A
:1042F00029FC4621204600F025FC204600F05CFE0B
:1043000040F23713EB80297A204600F06DFD2046FD
:10431000002100F017FC2046242100F013FC314658
:10432000204600F00FFC3721204600F00BFC204611
:1043300000F042FE297A204600F056FD204600217A
:1043400000F000FC2046302100F0FCFB204640211C
:1043500000F0F8FBFF21204600F0F4FB204600F0BF
:104360002BFE297A204600F03FFD2046002100F078
:10437000E9FB2046022100F0E5FB2046002100F089
:10438000E1FB7321204600F0DDFB204600F014FE27
:104390004FF4C87008F00AFE297A204600F024FD88
:1043A0002046002100F0CEFB20462E2100F0CAFB63
:1043B00020461D2100F0C6FB1D21204600F0C2FB57
:1043C000204600F0F9FD297A204600F00DFD204638
:1043D000002100F0B7FB2046042100F0B3FB20468B
:1043E000002100F0AFFB0421204600F0ABFB20468B
:1043F00000F0E2FD297A204600F0F6FC204600217C
:1044000000F0A0FB2046062100F09CFB3146204630
:1044100000F098FB3021204600F094FB204600F08D
:10442000CBFD297A204600F0DFFC2046002100F079
:1044300089FB20460A2100F085FB2046002100F080
:1044400081FB1021204600F07DFB204600F0B4FDEA
:10445000297A204600F0C8FC2046002100F072FBBB
:1044600020460E2100F06EFB2046002100F06AFB82
:104470000021204600F066FB204600F09DFD297AD1
:10448000204600F0B1FC2046002100F05BFB2046F6
:10449000102100F057FB20463C2100F053FB3C214B
:1044A000204600F04FFB204600F086FD297A20468A
:1044B00000F09AFC2046002100F044FB2046222117
:1044C00000F040FB20467F2100F03CFB7F2120468E
:1044D00000F038FB3627204600F06EFD297AEF8089
:1044E000204600F081FC2046002100F02BFB2046F6
:1044F000242100F027FB2046002100F023FB394651
:10450000204600F01FFB204600F056FD6E7230463C
:10451000F8BD00BF301900200B462DE9F041454998
:10452000054618460BF0A2FD43490BF097FC0BF033
:1045300089FF044600284CD080281FD92B790024FD
:1045400026462BBB297A3D4800F04EFC00213B4813
:1045500000F0F8FA2221394800F0F4FA31463748E1
:1045600000F0F0FA2146354800F0ECFA334800F04C
:1045700023FDB0FA80F04009BDE8F081C0F180046D
:104580002B7944EA0424C4F30726E4B2002BD9D0E3
:10459000EF88297A294827F010074FF00008EF80AC
:1045A00085F8048000F020FC4146244800F0CAFA57
:1045B0002421224800F0C6FA390A204800F0C2FA45
:1045C00007F0EF011D4800F0BDFA1C4800F0F4FCB4
:1045D000B8E701232B71297A184800F005FC214621
:1045E000164800F0AFFA2221144800F0ABFA7F2100
:1045F000124800F0A7FA7F21104800F0A3FA0F48F4
:1046000000F0DAFCEE88297A0C4846F01006B6B2C3
:10461000EE8000F0E9FB2146084800F093FA2421DF
:10462000064800F08FFA310A044800F08BFAF1B224
:1046300099E700BF00000143EE7CFF3E30190020E7
:1046400070B505460C4619B101293BD0002070BD5C
:10465000017A424800F0C8FB2146404800F072FA57
:1046600020213E4800F06EFA21463C4800F06AFAEC
:1046700055213A4800F066FA384800F09DFC06469D
:104680000028E3D1EC88297A344844F00404A4B229
:10469000EC8000F0A9FB3146304800F053FA2421A9
:1046A0002E4800F04FFA210A2C4800F04BFAE1B2F4
:1046B0002A4800F047FA294800F07EFCB0FA80F062
:1046C000400970BD017A254800F08EFB0021234887
:1046D00000F038FA2A21214800F034FA21461F4818
:1046E00000F030FA73211D4800F02CFA1B4800F04E
:1046F00063FC04460028A9D1297A184800F074FB0D
:104700002146164800F01EFA2021144800F01AFA3B
:104710002146124800F016FA8821104800F012FADB
:104720000E4800F049FC044600288FD1EE88297A13
:104730000A4826F00406EE8000F056FB21460748A2
:1047400000F000FA2421054800F0FCF9310A034882
:1047500000F0F8F906F0FB01AAE700BF30190020CD
:1047600010B5044609F0F4FE204610BD024A034984
:1047700003480CF04DB800BFFCEFFF1F614700007D
:10478000881800201B4A1C4B11681C48096970B42A
:1047900099421279027009D2194A127832B3194A31
:1047A0004FF08041116003F5807402E01C46A3F5D0
:1047B0008073154A154912680D68AAB1A5B1144E47
:1047C0003088402810D841000A4440302944023241
:1047D0000231308033F9040B22F8020F9C4233F986
:1047E000020C21F8020FF5D870BC704703F58074F5
:1047F000DFE700BF9818002090E8FF1F1F800040EF
:104800009218002008E200E0A01800209418002070
:1048100090180020F8B5064609F0E6FC0446E8B119
:1048200009F0E2FC054600283AD072B61F4B1A8800
:104830007F2A19D8002C31D01D490A6842B162B6CE
:10484000204609F025FD2846BDE8F84009F020BDC6
:1048500018480C601A80056062B6F8BD054672B64D
:10486000124B1A887F2AE5D9114A12491768146039
:1048700000220C681A800D6062B63946304609F095
:1048800031FD384609F004FD30462146012209F089
:1048900029FD2046BDE8F84009F0FABC62B6F8BD33
:1048A000204609F0F5FC2C46BFE700BF9018002019
:1048B000A018002094180020F8B5284C284E204657
:1048C000012109F0A7FD00F083F8264B264A27486E
:1048D0004FF480611960236800211A609980227961
:1048E000186102F1804202F5043240F20110D880D2
:1048F0009E614FF48075022006278E26DD82D960E6
:10490000DD8398609F8398821170167009F028FDEE
:104910001749184B2279184F08701A703968227994
:10492000164C174D174E41F0124141F00101531141
:1049300039609B00206803F1604302F1100703F522
:10494000614302F01F02012140F0104001FA02F21F
:10495000206045F827601A60F8BD00BF9818002055
:1049600000FEFFFF14B00440A0F0024090E7FF1FDC
:10497000921800201B80004080F0024000F00240AE
:1049800000EAFF1F85470000024A034903480BF075
:104990003FBF00BFFCEFFF1F6147000098180020D9
:1049A000024A034903480BF033BF00BFFCEFFF1F6F
:1049B00061470000A4180020024A034903480BF095
:1049C00027BF00BFFCEFFF1F61470000AC180020AD
:1049D000284B29491A68294842F400421A600A689B
:1049E00042F002020A601A6842F002021A6003688A
:1049F000002B3DDB224B1B68002B39DB214A4FF09B
:104A0000864313601368002BFCDBF0B51E4C1F4877
:104A1000DFF8ACE01E491F4B1F4A204F204E214DAE
:104A200041F2100CC4F800C0002404600120CEF84C
:104A30000000DFF890E0C1F800E04FF48031196029
:104A4000194B1360DFF880E0184A3A603460286040
:104A50001748CEF80000174CB9671748174946F8B1
:104A6000503C4FF4C0632A61236003600B60F0BDCB
:104A7000704700BF3C8004404080044000F002408A
:104A800080F0024000F1024004F1024060F0024078
:104A900008F002400CF0024010F0024014F0024016
:104AA000E0F0024084F002401B0F0100000F0F0FE6
:104AB0000300004708B004400CB0044018B00440A4
:104AC00004F002400300000788F00240024A034954
:104AD00003480BF09DBE00BFFCEFFF1F61470000C5
:104AE000B4180020024A034903480BF091BE00BFEE
:104AF000FCEFFF1F61470000BC180020024A034979
:104B000003480BF085BE00BFFCEFFF1F61470000AC
:104B1000C4180020024A034903480BF079BE00BFC5
:104B2000FCEFFF1F61470000CC180020024A034938
:104B300003480BF06DBE00BFFCEFFF1F6147000094
:104B4000D41800200A4B1B7813B90A4B1B786BB1A1
:104B5000094A1378202B07D810B4581C074C107042
:104B6000E154012010BC70470123037100207047FD
:104B7000421900200519002043190020E4180020E4
:104B8000704700BF024A034B10781B78C01A704769
:104B90004119002040190020064A07491378097876
:104BA000994204D90548591CC05C117070474FF0F8
:104BB000FF307047401900204119002008190020DB
:104BC000054B064A1B7812789A4286BF044AD05C8D
:104BD0004FF0FF30704700BF4019002041190020FE
:104BE0000819002070B50D4B1B78144613B90C4BF7
:104BF0001B788BB10B4E3578C5F12103A34202D24D
:104C000001221C460271084822462844254407F028
:104C10006BFB3570204670BD184670BD42190020F0
:104C20000519002043190020E4180020124BDB78FE
:104C300003F020034BB1114A13780133DBB2012B8F
:104C4000137012D9122007F0F3BF10B5122003F031
:104C5000FF0407F0EDFF0A4B1B685BB109490A4AE4
:104C60000C701078BDE810401847084B1B78002BDB
:104C7000E8D0704710BD00BF006006402C1900202E
:104C8000E0180020401900204119002005190020DB
:104C90000D4A0E4BF0B500200D4C10702268DFF865
:104CA00038E00C4F42F0400222604FF41971272681
:104CB0000425202480229870CEF8001039605E70A0
:104CC0009D715C719A70F0BD05190020006006406E
:104CD0003480044008A004400CA0044010B5384CB7
:104CE000E378DBB2D80623D510225906E2701ED530
:104CF00003F0040303F0FF02002B33D0314B3249A1
:104D00001A68324C00230B702370002A3BD0904766
:104D10002378002B37D02E4B1B78294A2D49D024DD
:104D200094701371264B012002220870DA7010BDB6
:104D30005A06DDD4A27802F0100202F0FF0042B35E
:104D400013F001031BD1234920480A7800789042D0
:104D500081BF1F4B501C9B5C08702371184BD022E5
:104D60009A7008E01C48164B174902700120C022B7
:104D700008709A701B79124B0222DA7010BDC023A2
:104D8000A3702379F7E71249002301220B702270E8
:104D9000C3E7124B124918700322122007F0C8FE15
:104DA0000D4923790A781F2ADBB2E4D80648007837
:104DB0000028E0D00B4C501CA3540870DBE700BF68
:104DC0000060064028190020DC180020431900204C
:104DD000E418002044190020411900202C1900205B
:104DE0002D4C0000081900200548064A10B4012384
:104DF000054C037049001370217010BC704700BF50
:104E00004219002043190020E41800202DE9F04346
:104E1000594C1223E370A37803F0200383B0002BD6
:104E200055D0B423DFF86881A370D8F80030524D14
:104E30001C460020EA78D2B29A421CBF14460120D8
:104E400096061346F6D5002840F08C804B4B1B7815
:104E5000002B33D003F1FF3E5FFA8EFE0026D8F818
:104E60000040474F444D0EF1010E30464FF0020C0A
:104E700017F8013F2B715FFA86F902E013F0200F5B
:104E800009D0EB78DBB293421CBF1C46012013F023
:104E9000020F1A46F2D085F803C0EA78D2B29342E4
:104EA0001CBF14460120D30633D4930631D5D30753
:104EB00044D401367645DBD100284AD100200029B0
:104EC0002ED1304B00221A7003B0BDE8F0832E4D76
:104ED000DFF8BC8003F0FF022B680093009ED8F837
:104EE000000005E02B680193019B9B1B0F2B1BD837
:104EF000E378DBB2834218BF012213F0200F18467B
:104F0000F0D192BB21481C4B0024B02204709A704F
:104F10008BE708BB184B80229A7004200029D0D060
:104F2000154B80229A70CCE7CAB9134B002180221E
:104F3000042099709A7003B0BDE8F083C0B90E4B9D
:104F4000B9F1000F4FF080020CBF022003209A70CD
:104F5000B7E7C8F80040B1E7C8F80040DAE7C8F89A
:104F60000000E2E7C8F8004070E7C8F80030C9E781
:104F7000C8F80040E3E700BF006006404319002086
:104F8000E318002042190020A41900200519002070
:104F90003CF0FF1F0548064A10B40123054C03707E
:104FA00049001370217010BC704700BF42190020E7
:104FB00043190020E41800200121FFF727BF00BF9C
:104FC000044B054A1A604FF47A71002299601A71F5
:104FD0001A73704730190020187E010010B4047F46
:104FE0004160022CC26002D010BC09F0CBBA8368C9
:104FF00010BC18472DE9F0410468E56815F0807F82
:10500000794D256052D1DF0740F1B380002900F0CF
:10501000E3800D78012B18BF45F000456563013131
:1050200090F8248003F1FF3C48EA0828BCF1000F07
:1050300000F0A88021B14D7811F8028B45EA0828CC
:1050400045682E7ABCF1020F06F1FF364FEA0636AC
:105050000CBF48F0805548F01045B6B26563ACF11E
:10506000020C08E00AB114700132013B05F47045EE
:10507000B54216D90468E56A15F0F00FF6D0A46BB6
:1050800013F0010F17464FEA242EEBD11AB107F89F
:1050900002EB54703A4605F47045B542A3F10203A1
:1050A000E8D8BCF1000F6DD00468C3E7DD074CD52C
:1050B000002900F089800D78012B18BF45F00045CC
:1050C0006563013103F1FF3E90F824C0BEF1000F8B
:1050D00041D029B191F801C00D78023145EA0C2C7C
:1050E00045682E7ABEF1020F06F1FF364FEA06360A
:1050F0000CBF4CF080554CF01045B6B26563AEF174
:10510000020E08E00AB114700132013B05F470454B
:10511000B54215D90468E56A15F0F00FF6D013F022
:10512000010F1746A46BEDD122B107F8024B2412F0
:1051300054703A4605F47045B542A3F10203E9D82C
:10514000BEF1000F07D00468C3E79E4690F824C064
:10515000BEF1000FBDD11BB30468E16A11F0F00F7E
:10516000FBD0A16BDC071DD50AB111700132013BE8
:10517000F1E790F824809C4648EA0828BCF1000F2B
:105180007FF458AF63B10468E16A11F0F00FFBD00F
:10519000DE07A16B0FD50AB111700132013BF1E7B7
:1051A000BDE8F0812AB114460D1204F8021B5570B7
:1051B0002246023BCFE72AB114460D1204F8025BE7
:1051C00051702246023BDDE790F82450012B18BFB6
:1051D00045F00045656375E790F82450012B18BF32
:1051E00045F0004565631BE700041F80F0B4464BA3
:1051F000464A186BDC6A01791170454922790A70B8
:105200009A6A00790870002A46D05968C9688A42AB
:105210003ED82168CC8B240402F1FF3065D4C0F362
:105220000E00C883C88B80B2C882196B0968C88B0E
:10523000000452D4C2F30E00C883C88B002480B28D
:1052400012F1FF32C88218BF01229C62D96A2E482F
:1052500009680D6800F12404A54236D00068C468CE
:1052600014F0804F0C680D6815BF2488247802352F
:10527000013544F000440D604463196B254B0979F6
:105280001970214912B1CA6A12791A70F0BC7047BC
:10529000521A9A620122D9E7586B196805681E4CA8
:1052A0000A63CC62CC682D681C4E24F0804403272E
:1052B000B542CC6083F825701FD1037F4260022B7A
:1052C000C2601ED0F0BC09F05DB9016890F82400FE
:1052D000CC6840F000404863CFE7CC8BC2F30800B5
:1052E00004F47E442043C883A7E7CC8BC0F30800B6
:1052F00004F47E442043C88394E72B461146F0BC57
:1053000018478368F0BC184740F0FF1F1F8000401B
:105310001C8000401B80004000000FFFDD4F00009C
:1053200090E80C00F0B41C6859682568164F174EB9
:1053300029432160164D17491760D6601561116029
:10534000417A154A5C180A3194F8244053F82150E8
:1053500002EBC40149680D60017A5C1803EB81011E
:10536000247ECD6902EBC40149680D60817A58182A
:1053700003EB810390F83000596B02EBC002F0BCE4
:1053800053681960704700BF01401F0001100038CA
:105390000110007800001F809484010042680368B7
:1053A00005CA10B4046822430260D868840100F082
:1053B000E06205D5080900F4706021F470410143F2
:1053C000D8681143814209D01A68500408D40748AC
:1053D000186041F08040D96018611A6010BC7047B5
:1053E00041F08042D96010BC1A61704701401F0033
:1053F0004268437A134493F824308B4209D0F0B4C6
:1054000092F824408C4205D092F825408C421AD064
:10541000F0BC7047002421461668556836682E4255
:105420000FD00A4D05EBC30300275E6853183760A1
:1054300093F8243005EBC3050A316B6852F821203C
:105440001A604472E4E701242146E5E794840100F0
:105450004268037A13441B7E8B4207D0F0B4147E5B
:105460008C4204D0547E8C421AD0F0BC7047002489
:1054700021461668556836682E420FD00A4D05EB56
:10548000C30300275E68531837601B7E063105EBA7
:10549000C30502EB81026B6852681A600472E4E78C
:1054A00001242146E5E700BF948401004268837A25
:1054B000134493F830308B4209D0F0B492F8304066
:1054C0008C4205D092F831408C421BD0F0BC704722
:1054D000002421461668556836682E4210D00B4DC0
:1054E00005EBC30300275E685318376093F830302C
:1054F0000C3105EBC30502EB81026B6852681A6040
:105500008472E3E701242146E4E700BF94840100AC
:105510000BB1FFF76FBD70478842F8B506461AD049
:10552000806C0D46C8B101F0D5FFB0B10023B36463
:10553000AC6CF4B106F11001242004F0A9F90023A9
:1055400003704370B064AD6C04460FCD0FC40FCD33
:105550000FC42B6823603046F8BDF06C0028E7D0FC
:1055600000F00CF90028E3D0AC6C0023F364002CAD
:10557000E0D1EB6C002BEED006F11001382004F0E6
:1055800087F980F8314080F83240F064EB6C0246D5
:1055900003F130011D685C689868DF68D7601033DC
:1055A0008B4215605460906002F11002F2D11B68CA
:1055B0001360D0E710B50446806C28B101F08AFF73
:1055C00010B10023A36410BDE06C28B100F0D6F840
:1055D00010B10023E36410BD002010BD002947D0A6
:1055E000F8B50446806C0D461F461646C8B101F05A
:1055F00071FFB0B10023A364D5F87834F3B104F19E
:105600001001242004F044F9002303704370324653
:10561000A0643B46D5F8781402F00CF930B30120B1
:10562000F8BDE06C0028E7D000F0A8F80028E3D02F
:105630000023E364D5F87834002BE0D1D5F87C342E
:10564000C3B104F11001382004F022F9002380F8DE
:10565000313080F83230D5F87C14E0643B46324675
:1056600000F0B8FC0028DAD1E064F8BDA064F8BD11
:10567000002070470020F8BD70B500260546C0F830
:105680008014C0F8786401464FF48F6004F000F98C
:105690000446466001F012F9C4F8106204F5037084
:1056A00001F00CF984F83C6484F8716484F8726445
:1056B000D5F88064C5F87C4431462046012201F0CB
:1056C000D5F970B104F58866304600F057F82146E8
:1056D000304600F0B9F858B11E4A2B46012013603D
:1056E00070BD02463146204601F0C0F90028E9D1DC
:1056F0000026C5F87C6429464FF48C6004F0C8F895
:10570000C67180F83C6480F83D64D5F88064C5F8C3
:10571000780401223146044603F076FB90B104F28E
:105720003C46304601F0D6FE2146304602F08AF86B
:105730000028D1D100221346C5F878241046054A26
:10574000136070BD02463146204603F05DFB002821
:10575000E5D1EFE74819002070B54FF47A75064E91
:105760008560002504460660057105738564C5647F
:10577000FFF734FF204670BD5C7A010010B5044687
:1057800000F02AFD002384F8313010BDF0B5087810
:10579000202803D111F8010F2028FBD05160087890
:1057A00000284CD02F282BD05C2820D0A0F1220438
:1057B000E4B21D2C1DD9DFF88CE04E1C00247C289F
:1057C000A0F12005374612D05E2D10D816F8010B37
:1057D000A0F12205EDB2013450B32F2811D05C287E
:1057E0002EFA05F703D01D2DE9D8FD07E7D50020D7
:1057F000F0BD144D25FA04F4E607DCD50020F0BD19
:10580000002421440846064610F8015B202DFAD0FA
:105810002F2DF8D01E603CB111F8013D2E2B01D088
:10582000202B08D1013CF7D1204610600120F0BDAB
:105830001F602144F0E7FF2CF6DD0020F0BD196069
:10584000F3E700BF0101003590F831200AB10020D4
:10585000704738B504460D46114638220BF0A6FBBA
:105860004023012084F8313084F83300256238BDAC
:105870002DE9F04790F8313082B0044623B1164646
:1058800090F83320D0070AD494F832304FF0FF302C
:1058900043F0020384F8323002B0BDE8F0875206CC
:1058A0000D4640F1AB80D4E90001D4E9042310EBAC
:1058B000060841F100094B4508BF4245C0F0A280EF
:1058C000002E00F0A180A146F9E80623B04653E07F
:1058D000134371D194F831305B064CBFD0F82C14CF
:1058E000E169A16190F83DE4D0F8243402397F0ADF
:1058F00001FA0EF2F9181144BAF1000F46D1B8F5C9
:10590000007F43D3D0F8143299423FD0B8F5806F6E
:1059100059D394F8332052064FEA582A07D401226B
:1059200002FA0EFEC7EB0E07BA4528BFBA469942E7
:105930004FEA4A270CD80AEB01029A4208D900F52F
:105940000370019100F0F8FF00289DD0206A0199B2
:10595000D0F8380453462A4603F0C0FD002893D0FF
:1059600038460021D4E9002312184B41B8EB070850
:105970003D44C4E9002347D0206AD0F83074174072
:10598000C7F3080A002FA3D0A169ABE700F50370A5
:10599000002200F099FF00283FF476AFCAF50077A7
:1059A000474528BF474600EB0A013A46284606F01D
:1059B0009BFC38460021D5E794F83330590611D5C1
:1059C000A16901318DE7D0F8380401232A4603F09C
:1059D00085FD00283FF458AF4FF4007000214FF4CC
:1059E0000077BFE74A46A16901F0F4F940B2002808
:1059F000FFF64AAF0FD0206AA16973E71A073FF597
:105A000052AF5DE7161A5BE74FF00008C8EB0600DF
:105A100002B0BDE8F08794F8313013F0500FF5D1A3
:105A200032E700BFF0B583B001220DF10701044653
:105A3000D0E900678569FFF71BFF012808BF9DF8C3
:105A40000700A56118BF4FF0FF30C4E9006703B03D
:105A5000F0BD00BF2DE9F84F90F83150D0F8188014
:105A600004469DB116461F4656EA070306D1002399
:105A70008361C4E900670120BDE8F88F29070AD5D2
:105A8000D0E90423BB4208BFB24204D2C4F8188054
:105A90000020BDE8F88FD4F8209094F8331099F8DE
:105AA0003DE40EF1090E5FFA8EFE16F1FF3247F16A
:105AB000FF33CEF1200C03FA0CF022FA0EF2AEF115
:105AC000200A024323FA0AFB42EA0B0B4A0603D5DB
:105AD000E5695D44A561CCE7D4E9000110F1FF322E
