:1000000000800020BD010000BDAD000075AD000006
:1000100075AD000075AD000075AD000075AD000058
:1000200075AD000075AD000075AD0000BDAD000000
:10003000BDAD000075AD00001DC900006DCB000016
:10004000BDAD0000BDAD0000BDAD0000BDAD000008
:10005000BDAD0000BDAD0000BDAD0000BDAD0000F8
:10006000BDAD0000BDAD0000BDAD0000BDAD0000E8
:10007000BDAD0000BDAD0000BDAD0000BDAD0000D8
:10008000BDAD0000BDAD0000BDAD0000BDAD0000C8
:10009000BDAD0000BDAD0000BDAD0000BDAD0000B8
:1000A0005D4E0000BDAD0000BDAD0000BDAD000067
:1000B000BDAD0000BDAD0000BDAD0000BDAD000098
:1000C000BDAD0000BDAD0000BDAD0000BDAD000088
:1000D000BDAD0000BDAD0000BDAD0000BDAD000078
:1000E000BDAD0000BDAD0000BDAD0000BDAD000068
:1000F000BDAD00003DD20000BDAD000069D30000E1
:10010000BDAD000095D40000BDAD0000BDAD000048
:10011000BDAD0000BDAD0000BDAD0000BDAD000037
:10012000BDAD0000BDAD0000BDAD0000BDAD000027
:10013000BDAD0000BDAD0000BDAD0000BDAD000017
:10014000BDAD0000BDAD0000BDAD0000BDAD000007
:10015000BDAD0000BDAD0000BDAD0000BDAD0000F7
:10016000BDAD000015B50000BDAD0000BDAD000087
:10017000BDAD0000BDAD0000BDAD0000BDAD0000D7
:10018000BDAD0000BDAD0000BDAD0000BDAD0000C7
:10019000BDAD0000BDAD0000BDAD0000BDAD0000B7
:1001A000BDAD0000BDAD0000BDAD0000BDAD0000A7
:1001B000BDAD0000BDAD0000A9C60000564B4CF21D
:1001C000205210B51A804DF628121A8000BF00BFC9
:1001D00000F062FB514B4FF010621A60504A9A6077
:1001E000504ADA60504A136813F4807304D14F49BF
:1001F0000B604FF4A85313604D4B1A78110703D5C9
:100200001A7842F008021A704A4B4B492A221A7097
:100210004A4A4B4B8B4204D252F8040F43F8040B6A
:10022000F8E7484B484900228B4202D243F8042B9E
:10023000FAE74649464A002352F8230041F82300D2
:1002400001336F2BF8D1434B434A802103F8011B44
:100250009342FBD1414B3D4A1A60414B8A221A70AE
:10026000A3F5805324225A70A0221A709A7992071B
:10027000FCD59A79D406FCD43A4A937903F00C035E
:10028000082B384BF9D103221A7140225A719A79FE
:100290009006FCD5334A9179324B4906FBD5324A58
:1002A000324911600221516020221A709A7902F0BD
:1002B0000C020C2AFAD12E4B2E4A1A602E4B4BF60A
:1002C0007F321A6000225A60072243F8042C2B4A1E
:1002D000C3F80C2D62B60AF093FE144B1B68DA07C4
:1002E00005D527480AF07AFE264B274A1A60274B85
:1002F0001B785B0609D5234C234B22689A4204D114
:100300001F480AF06BFE002323600EF08FFC0AF0FA
:1003100059FD0CF0F1FEFEE70E2005403080044050
:10032000823F04000100002B10D0034014D0034092
:1003300002D0074000E00740E0090020186F0100EC
:1003400020F9FF1FE0090020D456002000F4FF1F11
:100350000000000000E400E05FE400E008ED00E0E1
:100360000050064000400640448004400000131145
:1003700004800440C010050014E000E000002020CC
:1003800009B09F5B1CE00340A5C3945A00F00740EE
:10039000FFFFFFFFFFFFFFFFFFFFFFFFFFFFFFFF6D
:1003A000FFFFFFFFFFFFFFFFFFFFFFFFFFFFFFFF5D
:1003B000FFFFFFFFFFFFFFFFFFFFFFFFFFFFFFFF4D
:1003C000FFFFFFFFFFFFFFFFFFFFFFFFFFFFFFFF3D
:1003D000FFFFFFFFFFFFFFFFFFFFFFFFFFFFFFFF2D
:1003E000FFFFFFFFFFFFFFFFFFFFFFFFFFFFFFFF1D
:1003F000FFFFFFFFFFFFFFFFFFFFFFFFFFFFFFFF0D
:10040000FFFFFFFFFFFFFFFFFFFFFFFFDEF9FFFF23
:1004100010B5054C237833B9044B13B10448AFF33E
:1004200000800123237010BDE009002000000000BF
:10043000146F0100084B10B51BB108490848AFF311
:1004400000800848036803B910BD074B002BFBD0A0
:10045000BDE81040184700BF00000000E40900207C
:10046000146F0100E0090020000000000020704728
:10047000704700BF027C02F0080202F0FF0332B1B5
:10048000C36A406A181A48BF6FF0004070471846A8
:10049000704700BFF8B55548554D564C297803783C
:1004A0002278DFF868E1544F544E120442EA0323E5
:1004B000FF222A700270802022708EF800003870AF
:1004C000B2794F480B4312F00C0FC36002D1B379DD
:1004D000DC063DD4494A9379C3F38103032B40D012
:1004E000464B9A79C2F38102022A42D0434A937959
:1004F000C3F38103022B53D0404A9379C3F38103A2
:10050000022B61D03D4A9379C3F38103012B51D073
:100510003A4A9379C3F38103012B5CD0374B9A7924
:1005200012F00C0F03D19A79D20600D49B79354D85
:10053000354B2A7853F82240D4B1236820469B6873
:1005400098472B7804EB83046468002CF5D1F8BD40
:10055000B3799806EBD5294A9379C3F38103032B2A
:10056000BED19379D906BBD493799B06DFD4B7E784
:10057000F8BD9A79D706B9D49A799606B6D559783E
:1005800001F0020101F0FF020029AFD120211A7011
:100590001A461970937903F00C030C2BFAD1C6E7B5
:1005A0009379DD06A8D493799C06A5D4537898074F
:1005B000BDD5A1E79379DF06AAD593799E06A7D486
:1005C00053789D07B3D4A3E79379D9069AD4537887
:1005D0009B07ACD496E79379DC069FD59379980670
:1005E0009CD453789907A2D598E700BF06C007406E
:1005F00005C0074007C0074009C00740004006404B
:10060000AC560020845300204453002008C007400B
:1006100090F92410104B03604B1C06D0F0B40F4E21
:1006200056F82130984201D0F0BC70470C4F57F873
:10063000213033B18D0000245A1953685460002BC7
:10064000FAD1084C23780022013B237047F821207F
:1006500046F82120E8E700BFCC5E0100645300208B
:10066000445300208553002038B590F924506B1C6A
:100670001BD00E4B0E4953F825400E4BEDB24FF0F8
:10068000FF320D701A6084B1AD0002E02C44646842
:100690005CB194F82530002BF8D0236820462C4418
:1006A0001B6898476468002CF3D138BD4453002080
:1006B00084530020B8F3FF1F704700BF90F9241047
:1006C000104B03604B1C06D0F0B40F4E56F821308F
:1006D000984201D0F0BC70470C4F57F8213033B12D
:1006E0008D0000245A1953685460002BFAD1084C2D
:1006F00023780022013B237047F8212046F821206F
:10070000E8E700BFCC5E01006453002044530020A2
:100710008553002090F92410104B03604B1C06D029
:10072000F0B40F4E56F82130984201D0F0BC70471B
:100730000C4F57F8213033B18D0000245A195368FB
:100740005460002BFAD1084C23780022013B23701F
:1007500047F8212046F82120E8E700BFCC5E0100E1
:1007600064530020445300208553002010B500211D
:1007700004460BF05DFFB0B1B4F8B4319BB2C3B125
:10078000B4F8B031B4F8B2219BB20133632BC8BFC7
:10079000002392B2934207D09A1D04EB82029BB2CF
:1007A0005060A4F8B03110BDD4F8B8310133C4F8AA
:1007B000B831BDE810400BF0F7BE00BF103005F0B7
:1007C0003DBB00BF00B583B002AB012203F8011DA1
:1007D0001030194605F032FB03B05DF804FB00BF92
:1007E000103005F007BA00BF00B583B001220DF14B
:1007F0000701103005F038F901280CBF9DF80700FB
:100800004FF0FF3003B05DF804FB00BF103005F07F
:10081000C7BA00BF2DE9F0410E4680460AF0D8FB6A
:10082000174D286007F0A0FD0746286807F078FDFF
:100830000446286807F062FD6401C0B204F4FF5466
:10084000BFB20443A7F2BC7744EA4724A8F80040AB
:10085000286807F077FD0746286807F02BFD044657
:10086000286807F039FDFF02640107F4FF2704F44C
:10087000FF54C0F346003C4304433480BDE8F0819C
:10088000E44E002038B505460CF08CF904462846A5
:100890000CF002FA204438BD464A474B1020108025
:1008A0001B781B0734D5F0B5444E454D454C317887
:1008B0002B782278DFF82CE1434F824042EA032371
:1008C0000B43FF22802132702A7022708EF80010B4
:1008D0003970D9073D4A14D51A2393603C4F3D4ED9
:1008E0003D4D3E4C3E49107900233B705370937050
:1008F000D370D360337013712B7023701370087032
:10090000F0BD1F0705D4DE0606D504239360E5E796
:10091000704721239360E1E79D0604D45C0604D56B
:1009200016239360DAE79060D8E7180602D509230A
:100930009360D3E7D90502D50A239360CEE79F05DC
:1009400002D50D239360C9E75E0502D50B239360A2
:10095000C4E71D0502D51E239360BFE7DC0402D562
:1009600002239360BAE7980402D507239360B5E7A2
:10097000590402D506239360B0E71F0402D515235E
:100980009360ABE7DE0302D524239360A6E79D03C3
:1009900002D522239360A1E7DC0202D525239360D0
:1009A0009CE71803F5D45903F3D49B0244BF2323D7
:1009B000936093E70020054002D0074005C0074040
:1009C00006C0074007C0074009C00740AC560020DA
:1009D00000C0074001C0074002C0074003C00740F5
:1009E00004C0074008C00740002976D02DE9F04F29
:1009F0000C469100631883B05D68002D57D06B18CA
:100A00005E68002E50D073185F68002F49D07B18A5
:100A1000D3F80480B8F1000F3CD008EB0103D3F801
:100A20000490B9F1000F32D009EB0103D3F804A010
:100A3000BAF1000F27D00AEB0103D3F804B0BBF1E1
:100A4000000F18D00BEB01035B6863B119440193ED
:100A50004968FFF7C9FF019B93F825201AB11A686E
:100A60001846536898479BF8253023B1DBF80030CF
:100A700058465B6898479AF8253023B1DAF8003079
:100A800050465B68984799F82530002B35D198F887
:100A9000253063BB97F825301BB13B6838465B684F
:100AA000984796F82530CBB995F8253063B994F876
:100AB000253013B903B0BDE8F08F23685B6820468A
:100AC00003B0BDE8F04F18472B6828465B6898478D
:100AD00094F82530002BEDD0EFE7704733683046AF
:100AE0005B68984795F82530002BE0D0ECE7D8F804
:100AF000003040465B689847CCE7D9F8003048465C
:100B00005B689847C3E700BF90F92420531C26D0A8
:100B10001B4B2DE9F04153F82240D2B2ECB19300C7
:100B2000E1184D68B5B1E9184E6866B1F1184F6823
:100B300037B13B445968FFF757FF97F82530A3B901
:100B400096F8253063B995F825301BB12B682846F7
:100B50005B68984794F8253063B9BDE8F081704729
:100B6000336830465B689847EDE73B6838465B681A
:100B70009847E5E7236820465B68BDE8F0411847E1
:100B8000445300202DE9F843514CB4F8B021B4F897
:100B9000B23192B29BB29A4238BF6432D31A3F2B21
:100BA00040F386804B4DD4F8AC91DFF8248105F5F5
:100BB0008047002637E04FF48072002109F020FDC5
:100BC00048460BF0F1FCC4F8AC61B4F8B231B4F8AB
:100BD000B0219BB292B293424CD00133632B86BFBB
:100BE0004FF0000E73461FFA83FE063304EB8303B7
:100BF0004FF48072D3F80490C4F8AC9109F1040169
:100C00002846A4F8B2E109F0FBFCB9F1000F04D0CA
:100C100048460BF0C9FCC8F8AC6105F50075BD424B
:100C20004FF0000932D0A5F58070B9F1000FC2D1A4
:100C3000B4F8B231B4F8B0219BB292B2934241D031
:100C40000133632B86BFCE4673461FFA83FE0633FD
:100C500004EB83034FF48072D3F80490C4F8AC9192
:100C600009F10401A4F8B2E109F0CAFCB9F1000FDE
:100C7000ABD0A5E728464FF48072002105F500753A
:100C800009F0BEFCBD424FF00009CCD14FF48042C8
:100C90001149124805F0D2F801300BD0104A114822
:100CA0001368203313600121BDE8F8430BF0A4BAA8
:100CB000BDE8F8830121142009F0F6FF0A4B0B4A26
:100CC0001A60EBE749464FF4807209F099FC7CE723
:100CD000F84E0020680B0020680A00203C0A002023
:100CE000F44E0020346201000CED00E00400FA052F
:100CF00070B5124C124D13480D210BF07DFA2046B1
:100D00000BF0CAFF2E88104810210BF075FA3146FF
:100D100020460BF047FF20460BF0BEFF0B4A0C4B62
:100D200012882A800B480022A3F8B42104F044FC66
:100D30006420BDE870400AF0C5BA00BF80FFFF1F05
:100D40009C540020F05E0100005F0100C4540020AC
:100D5000F84E00203C0A00202DE9F04F95B00AF033
:100D600037F9DFF86892884CC9F8000007F0D8FA24
:100D70002368984200F061820A218448844E854F9E
:100D80000BF03AFA84480BF087FFD9F8000007F01F
:100D9000C7FA2060D9F8000007F0E6FA23687F4917
:100DA00002467F480EF0A6FD002401237C4A7D49BF
:100DB000376007A88DF81C408DF81D4004F018FD21
:100DC000DFF8DC81002115200AF040FA98F80020B5
:100DD00000232F2A8DF81C308DF81D3000F0B681CD
:100DE00007AC204601236E4A6E4904F09DFD58B1C0
:100DF0009DF81C3013F0700F06D00FCC694D0FC555
:100E00000FCC0FC523682B60D9F8000007F0ACFAAF
:100E10000446D9F8000007F083FA8246D9F80000AA
:100E200007F06CFA0590D9F8000007F08BFA8346BA
:100E3000D9F8000007F03EFA0490D9F8000007F056
:100E40004BFA059A049B0092039002932246CDF838
:100E500004B05346544955480EF04CFD0025082473
:100E60003760152009F004FE0DF0C0FA4FF06A510A
:100E70000DF010FB014628460DF004FA013C054632
:100E8000EFD14848DFF8489104F096FB484901F259
:100E90003C4004F0C9FD4FF47A7646230BA8454A3E
:100EA00040498DF82C408DF82D408DF820408DF86C
:100EB00028400996CDF81C9004F036FD9DF82C30A2
:100EC000002B40F051810E213B480BF095F9012198
:100ED000142009F0E9FE394B394A1A6098F80020CD
:100EE0002F4900232F2A8DF81C308DF81D3000F07B
:100EF000208107A801232A4A2A4904F015FD60B180
:100F00009DF81C3013F0700F07D007AC0FCC254DA7
:100F10000FC50FCC0FC523682B604FF47A750024E2
:100F20000995C223214A1F498DF82C400BA80BAD0F
:100F30008DF82D408DF820408DF82840CDF81C907C
:100F400004F0F2FC0FCD1F4E9DF82040347106F1E5
:100F500010040FC40FCD0FC4099A9DF828302968DA
:100F6000B2603373114821600EF02AFD01460F482C
:100F7000154FDFF848B0DFF848A00BF03DF9064800
:100F80000BF08AFE6CE000BF0C520020145F0100E1
:100F9000405300201508000080FFFF1F205F010064
:100FA000B8500020A84E00202C5F01007451002092
:100FB0006C4A00204C5F0100805F01000CED00E0F6
:100FC0000400FA052C0A0020B4500020E44E002052
:100FD000A85E010004F0A8FC60B19DF81C30B04D83
:100FE00013F0700F07AC05D00FCC0FC50FCC0FC599
:100FF00023682B604FF47A750024C223A94AA849BC
:1010000009950BA80BAD8DF82C408DF82D408DF86F
:1010100020408DF82840CDF81C9004F085FC0FCDC1
:10102000A14C9DF820E086F804E00FC40FCD0FC45A
:101030009DF82830099A33732968B2609948216075
:101040000EF0BEFC014697480BF0D6F897480BF01F
:1010500023FE0A200AF036F93B68B3F57A7F61DC9B
:10106000347C93498F48F4B93B6801331A463B609E
:101070000EF040FC98F800508E4A89498DF81C40CB
:101080002F2D4FF0010307A88DF81D40A2D15478F1
:10109000002C9FD1084604F08FFA874901F23C40AA
:1010A00004F0C2FCA6E7854885490768854C864A56
:1010B000864B874D03C9206092E80300A06093E847
:1010C000030010260123A382E382E06026613846F4
:1010D0000DF0CCFB3946A06138460DF0D3F80DF089
:1010E000C5FB7C4AE0612B68668492E803005B02E2
:1010F00003F124062C226062214602276A48A3627B
:101100002784666004F09AFE092173480BF074F896
:10111000296866480BF046FD64480BF0BDFD15B02C
:10112000BDE8F08F0121142009F0BEFDCBF800A02E
:1011300096E74B78002B7FF4DCAE594804F03CFA7C
:101140005D4901F23C4004F06FFCE6E698F801309E
:10115000002B7FF445AE524804F02EFA564901F2B6
:101160003C4004F061FC4FE64E485C4E0EF028FC1B
:101170004C4902460BA804F061FE14A92C2301F887
:10118000383D01220DEB030004F058FE06F108077C
:1011900007AC16F8011F00230A2220460BF0CCFDF5
:1011A000BE42F6D128464E490DF074F94FF0785101
:1011B0000DF070F914A92C250646012201F8355DC1
:1011C0000DEB050004F03AFE464B18680CF0B8FC35
:1011D00002270B460246009720460BF009FE14A991
:1011E000012201F8365D0DEB050004F027FE3046C4
:1011F0000CF0A6FC00970B46024620460BF0F8FDCB
:1012000014A9012201F8375D0DEB050004F016FE6C
:1012100035480EF0D5FB344902460DEB050004F0CD
:101220000DFE20460BF038FD304630490DF0D0FA67
:1012300030B90BA804F0C0F950E62D4E2D4FBFE594
:1012400028222D490DEB050004F0F8FD20460BF097
:1012500023FD0DEB050004F0AFF90025082415204F
:1012600009F006FC0DF0C2F84FF06A510DF012F9CA
:10127000014628460DF006F8013C0546EFD1184915
:101280000DF008F94FF078510DF004F917490DF001
:101290009FFA0028CDD047F230500AF013F8DCE76F
:1012A000A84E0020745100203C0A002080FFFF1F40
:1012B000905F0100B85000206C4A0020F4510020DB
:1012C0009C5F010050520020A45F0100AC5F010050
:1012D000D4510020B45F0100BC5F010033510020F5
:1012E000CDCCBC404451002008FAFF1F0000404014
:1012F0004053002015080000545F010038B50E214E
:101300001C481D4D0AF078FF1C480BF0C5FCFFF788
:1013100023FD1B4BD5F8AC0100241C6018B10BF069
:1013200043F9C5F8AC41B5F8B241B5F8B031A4B253
:101330009BB2A3420ED00134642C28BF0024A31D0D
:1013400005EB830358680BF02FF9B5F8B0319BB269
:10135000A342F0D10123A4B20B210A48A5F8B2415F
:10136000A5F8B4310AF048FF0448BDE838400BF056
:1013700093BC00BFC85F0100F84E002080FFFF1F34
:10138000F44E0020D85F01002DE9F0438FB00446F1
:101390000EF016FB00B201281CDDB4F9003044F257
:1013A0005372934200F0878118DD44F65452934201
:1013B00000F0D58045F2532293422AD044F65212CF
:1013C000934207D10BAAE01CC3490EF0B9FAC34BF4
:1013D0000B9A1A6001200FB0BDE8F08344F24E4230
:1013E00093420FD044F252429342F3D10BAAE01C35
:1013F000B9490EF0A5FABA4B0B9A1A6001200FB04A
:10140000BDE8F083B74B012201201A600FB0BDE8A0
:10141000F0830AAD09A908AA05ABE01C0395029167
:101420000192009307AA06ABAF490EF089FAAF4BC1
:10143000079D596818689A680A9EDDF824E0DDF86F
:1014400020C0A5F5FA65ADB20BAF2CB207C7069F59
:1014500005991E3415F0030F4FEAA408FDB240F0C1
:101460003981A34B022D8CBF1F460027A148A24BF8
:10147000C8EB040400FB08F06A1E03FB0400002A0A
:1014800000EB070347DD9DF82C409948012A00FB3B
:10149000043340D09DF82D40022A00FB04333AD09B
:1014A0009DF82E40032A00FB043334D09DF82F40D2
:1014B000042A00FB04332ED09DF83040052A00FB9F
:1014C000043328D09DF83140062A00FB043322D093
:1014D0009DF83240072A00FB04331CD09DF83340AE
:1014E000082A00FB043316D09DF83440092A00FB7B
:1014F000043310D09DF835400A2A00FB04330AD08B
:101500000B2A9DF8364018BF9DF8372000FB0433A6
:1015100018BF00FB02335FFA8EF2C2EB02125FFAD1
:101520008CF04FF46164920004FB0022704D734C08
:101530007348C9B2013952FA86F205FB01221344FD
:10154000122123600AF058FE21686E480BF02AFB36
:101550006C480BF0A1FB01200FB0BDE8F0830AAD91
:1015600009A908AA05ABE01C03950291019200931A
:1015700007AA06AB5C490EF0E3F95C4B079F9A683B
:10158000186859680A9EDDF824E0DDF820C0A7F548
:10159000FA67BFB20BAC3DB207C4069A059C1E3574
:1015A00017F0030F4FEAA508D7B240F09080504BD8
:1015B000022F8CBF99464FF000094E494E4BC8EBA5
:1015C000050501FB08F17A1E03FB0510002A00EB5C
:1015D000090347DD9DF82C004549012A01FB003332
:1015E00040D09DF82D00022A01FB00333AD09DF82F
:1015F0002E00032A01FB003334D09DF82F00042A6B
:1016000001FB00332ED09DF83000052A01FB00338A
:1016100028D09DF83100062A01FB003322D09DF826
:101620003200072A01FB00331CD09DF83300082A42
:1016300001FB003316D09DF83400092A01FB00336A
:1016400010D09DF835000A2A01FB00330AD00B2A7E
:101650009DF8360018BF9DF8372001FB003318BFF6
:1016600001FB02335FFA8EF2C2EB02125FFA8CF0DA
:101670004FF46165920005FB0022E1B21C4C1F4D46
:1016800052FA86F2013904FB01241C4420462C60E6
:1016900009F0A4FC0B211C480AF0AEFD21460023F2
:1016A0000A2218480BF048FB16480BF0F5FA012007
:1016B0000FB0BDE8F0830BAAE01C07490EF040F91B
:1016C000124B0B9A1A6001200FB0BDE8F0834FF067
:1016D000000972E70027C9E63060010040FAFF1FE9
:1016E00034FAFF1F640A002010600100D85E010078
:1016F000805101000085E2018033E101EC4E0020C1
:101700003460010080FFFF1F2460010000FAFF1F0A
:101710002DE9F043A3B000254FF47A76764F774851
:101720000A968DF830508DF831508DF824508DF890
:101730002C50089703F040FF714901F23C4004F03F
:1017400073F901236F4A6D49179619A88DF86450F3
:101750008DF865508DF858508DF86050159704F04D
:10176000E3F80DF1640EBEE80F000CAE0FC6BEE844
:101770000F000FC69DF83080DEF800109DF858006D
:10178000179A9DF8603031608DF824000A928DF828
:101790002C30B8F1000F46D02E468DF800604FF087
:1017A00000094FF0FF08012215A90CA804F05CF90C
:1017B00009F1010322AA01284A441BB224D01D2B9F
:1017C00002F8888C05DC9946EDE71D2B01DC0A2A1E
:1017D000F9D1013B9BB222AA1A4402F8886C9DF809
:1017E00000202F2A04D0012B02D96846FFF7CCFD38
:1017F0009DF830301B0711D40CA803F0DDFE2DBB83
:10180000012023B0BDE8F0839DF854200D2A08BFC5
:101810004B4662D11D2BDCDC9946C4E7139A119B21
:101820009A42BAD1E8E7142137480AF0E5FC374874
:101830000BF032FA0D22364936480BF09FF9354845
:101840000BF02AFA404623B0BDE8F0830B21324862
:101850000AF0D2FC00230A2221462C480BF06CFA35
:101860002A480BF019FA254803F0A6FE2449002562
:1018700001F23C4004F0D8F84FF47A768DF86450C9
:101880008DF865508DF858508DF8605063231D4ACF
:101890001A49179619A819AD159704F045F80FCDF8
:1018A0000CAE0FC60FCD0FC62968179A9DF8603091
:1018B0009DF8585031600CA821460A928DF82C30C2
:1018C0008DF8245004F0CAF9022214490CA804F03F
:1018D000B5FA0CA803F070FE92E722AB03EB090106
:1018E000542A09F1010301F8882C1BB27FF46DAF73
:1018F000119C0546013C8DE7A85E0100A84E002022
:101900006C4A0020486001006460010080FFFF1FF6
:101910007C6001009C510020546001006060010067
:101920002DE9F04383B009F053FB744B744D1860FC
:1019300001217448744C754F754EDFF81492DFF82E
:10194000148207F09BFC01216E4807F09DFC1222D7
:1019500000216C4807F08EFC04226E4969480BF0A8
:101960000DF9296867480BF01DF902226A4965489C
:101970000BF004F963480BF08FF9062267496148C0
:101980000BF0FCF821685F480BF00CF90322644966
:101990005C480BF0F3F85B480BF07EF93B6856F8B7
:1019A00023000CF023FD5F490CF028FE0CF0C8F872
:1019B00002460B4653485C490BF0B0F901215148EF
:1019C00007F05CFC2D683B68284656F823700CF045
:1019D0000DFD0646206828440CF008FD01463046FF
:1019E0000CF00CFE014604464FF07E500CF048FC13
:1019F0004E4B19680CF04EFD4D4B064619682046BB
:101A00000CF048FD014630460CF03CFC0146D9F88C
:101A100000000CF0F3FD47490CF03CFD0CF026FFF4
:101A2000454B064618680023C8F8003000284ED001
:101A30000CF0D8FC8146680007FB00F02C300CF05D
:101A4000D5FC4FF08E410CF01DFC36490CF0D6FD54
:101A500034490CF0D3FD014648460CF0CFFD0CF0A4
:101A60006FF80BF081FE0CF097FB034600FB05F0CE
:101A7000C8F800300CF0B6FC21460CF0BFFD04465F
:101A800030460CF0AFFC014620460CF0BFFE00BB18
:101A900001462E221B4807F0EDFB0D22274919486D
:101AA0000BF06CF8204626490CF0A8FD0CF048F825
:101AB000022402460B46009412480BF099F9214982
:101AC0001048012203B0BDE8F0430BF057B80020E6
:101AD000D2E72E2200210B4807F0CCFB0E221A4938
:101AE00008480BF04BF819490648A1FB0631090CD0
:101AF00000230A220BF020F9E1E700BFE44E0020AA
:101B000034FAFF1F9C51002040FAFF1F30FAFF1FDC
:101B100014FAFF1F8C6001009460010098600100BE
:101B2000A060010000007A44A460010038FAFF1FA1
:101B300044FAFF1F000061454C520020C0600100C4
:101B400000C0A84720600100B060010007452EC218
:101B50003CFAFF1F0052002038B5054606F004FC91
:101B60001E4C014620460BF01DF82D200AF018FCF3
:101B7000284606F0D5FB014620460BF013F82D2031
:101B80000AF00EFC284606F0B9FB014620460BF091
:101B900009F8012112480AF02FFB284606F0D2FB73
:101BA000014620460AF0FEFF3A200AF0F9FB2846DB
:101BB00006F080FB014620460AF0F4FF3A200AF0C6
:101BC000EFFB284606F088FB014620460AF0EAFFB4
:101BD0002046BDE838400BF05FB800BF80FFFF1F14
:101BE0000861010010B5002009F008F8214C2070B0
:101BF000012009F003F86070022008F0FFFFA070D8
:101C0000032008F0FBFF1C4BE07022681A600420E0
:101C100008F0F4FF2070052008F0F0FF6070062047
:101C200008F0ECFFA070072008F0E8FF134BE0700D
:101C300022681A60082008F0E1FF114B1870092093
:101C400008F0DCFF0F4B18700A2008F0D7FF0E4B8E
:101C500018700B2008F0D2FF0C4B18700C2008F005
:101C6000CDFF0B4B18600D2008F0C8FF094B186022
:101C700010BD00BF4851002034FAFF1F40FAFF1F7B
:101C8000280A00204452002070510020F04E00200D
:101C9000D851002030FAFF1F234B10B51968234C90
:101CA00000202160C9B208F0FFFF6178012008F030
:101CB000FBFFA178022008F0F7FFE178032008F08D
:101CC000F3FF1B4B196821600420C9B208F0ECFF38
:101CD0006178052008F0E8FFA178062008F0E4FF0D
:101CE000E178072008F0E0FF124B0820197808F08F
:101CF000DBFF114B0920197808F0D6FF0F4B0A20A3
:101D0000197808F0D1FF0E4B0B20197808F0CCFFA2
:101D10000C4B0C20197808F0C7FF0B4B0D201978DD
:101D2000BDE8104008F0C0BF34FAFF1F4851002042
:101D300040FAFF1F280A0020445200207051002062
:101D4000F04E0020D851002030FAFF1F2DE9F04F4F
:101D5000102983B00C4606467FD0202976D04FF05C
:101D6000000A5FFA8AFA4AF0E0630021009301203A
:101D70004AF08E4301930CF04FFB01463A480CF0B9
:101D80003DFC074620460CF02DFB01460CF07AFA8C
:101D9000044630460CF026FB014620460CF07AFB48
:101DA000014638460CF02AFC4FF001084FF07E55F2
:101DB0000746C1464FF0010A4FF0000B50460CF0A9
:101DC00015FB39460CF066FB04460CF029FD0CF0BF
:101DD0000DFB014620460CF053FA294606460CF04E
:101DE000F7FC4FF0874148B120460CF0F1FC28B1D8
:101DF00020460CF05BFD35468046D1461AF1010ABB
:101E00004BF1000BBBF1000F08BFBAF1400FD5D169
:101E10001649174C0D681748174E09F1FF3208F1A3
:101E2000FF33120302F47F22C3F30B03134325F0A5
:101E300010420A602360009B0360019B33600B68C3
:101E400043F010430B6003B0BDE8F08F0B4B0193E0
:101E500003F140430A4F009394E70A4B019303F1C7
:101E60004043094F00938DE7001B374C80F0024040
:101E700004F1024008F0024088F0024001000047EF
:101E8000001BB74B03000047001B374B2DE9F04FF9
:101E90000546DFF87C82974E974F98F800E02E6059
:101EA000FF2085F82400DFF86C92387859F820C0BC
:101EB0000023BEF1060F8DB00C4685F8253085F85D
:101EC00026309CBF88F800309E46BCF1000F00F021
:101ED000A8808C455BD06346810001E09C4256D0CF
:101EE0000B445B68002BF9D1634603EB010ADAF877
:101EF0000430002BF9D105EB010BCAF80440BEF108
:101F0000060F4FF0FF044FFA80FACBF804308DF83B
:101F10002C4002968DF82D308DF82E3085F824A0B7
:101F2000644605D8002388F80030002C00F0A98012
:101F3000A24226D0234601E0934222D00B445B68A4
:101F4000002BF9D104EB010CDCF80440002CF9D192
:101F5000CCF804200CAB19440024431CBAF1FF3F19
:101F600041F8244C3B708DF82CA0029605D06349B3
:101F700051F82A3002AA934272D028460DB0BDE82B
:101F8000F08F0130387028460DB0BDE8F08F002387
:101F9000FF21BEF1060F02968DF82C108DF82D3022
:101FA0008DF82E3001D888F800309445E9D063468A
:101FB000810001E09A42E4D00B445B68002BF9D128
:101FC0008C44DCF804402CB1A4468C44DCF804407A
:101FD000002CF9D10CAB19444FFA80FE431CBEF122
:101FE000FF3FCCF804203B7041F8244C02968DF85A
:101FF0002CE0C2D0414951F82E3002AA9342BCD104
:1020000059F82E304FEA8E0623B19A19536854605E
:10201000002BFAD10023387049F82E3041F82E30C9
:10202000ABE7B0B38100DFF8D4A049F8204005EB5E
:10203000010C00234AF82050BEF1060FCCF8043002
:102040004FFA80FA4FF0FF0C02968DF82D308DF884
:102050002E3085F824A08DF82CC07FF663AF64E79E
:1020600059F82A304FEA8A0623B19A195368546006
:10207000002BFAD10023387049F82A3041F82A3071
:102080007BE7F0B11D4B49F8202002AA43F820203D
:1020900060E71B491B480B68019243F080630B60AB
:1020A0000368194923F080430360152008F0C4FE3B
:1020B000164B98F800E0019A4FF400111960387837
:1020C000B0E70F4C0F482368019243F08063236010
:1020D00003680D4923F080430360152008F0ACFE2F
:1020E0000A4B019A4FF40011196038784FFA80FAC0
:1020F0008100C7E7CC5E01008553002064530020B7
:1021000004700440007004409504000000E100E009
:10211000BCF3FF1F445300202DE9F041584D594CAA
:10212000594E08F023FD0421584807F073FE2A6831
:1021300026600023637223612372E3600AB99AE088
:102140001A465369002BFBD154610027504B4D4870
:102150006761A780E780236002F06EFC4D4A4FF074
:10216000010E02F118013B4638461772D76016601F
:1021700082F809E01161174600E0396941F823004F
:10218000517A444E01339942F7DC29683C4B09B936
:1021900073E019464B69002BFBD14A613E4B3F4926
:1021A0001C600024184654619480D480A2F8B04189
:1021B0001160A2F8B2415A60C2F8AC41A2F8B44131
:1021C000C2F8B8411C725C72DC600AF03DFA344A15
:1021D000344B5069344A1A600CF008F9334D344BD3
:1021E000344E18604FF0FF08334B344A344985F8B9
:1021F00025402846012785F824802B606C63AC635A
:1022000085F83C4085F826700CF0FEFC2D4B2B4ADF
:102210002D4986F82480304686F82540336086F8BC
:10222000274086F8284086F826700CF0EDFC2A46F8
:1022300031462648264DFFF729FE204A25492348E6
:102240000CF0E2FC244A254B2549147464204FF419
:102250007A76547414711473DC7183F83C4483F8F7
:102260003D4483F86A4483F8600496601560C3F8BF
:102270006C14BDE8F0812C6067E71E608EE700BF3C
:1022800098540020545100209C5E01009C51002075
:10229000A4620100F84E002018510020EC5E0100FD
:1022A00014FAFF1F2851002088620100D05000203E
:1022B000F4510020145200204C630100FCF9FF1F70
:1022C000BD0600006063010015070000000A002041
:1022D000A85E0100110600002C0A00206C4A0020B4
:1022E0000110013810B5184C0A21204602F012FFE7
:1022F0002046002102F0E6FC2046302102F0E2FCFC
:102300002046002102F0DEFC0021204602F0DAFC2B
:10231000204602F011FF20460A2102F0FBFE204673
:10232000002102F0CFFC2046022102F0CBFC204627
:10233000002102F0C7FC2046002102F0C3FC204629
:10234000BDE8104002F0F8BE2453002010B5184C30
:102350000A21204602F0DEFE2046002102F0B2FCF7
:102360002046302102F0AEFC2046002102F0AAFCFB
:10237000A221204602F0A6FC204602F0DDFE204607
:102380000A2102F0C7FE2046002102F09BFC2046F5
:10239000022102F097FC2046002102F093FC204627
:1023A000432102F08FFC2046BDE8104002F0C4BE7D
:1023B000245300200238032810B504DC002880F2E2
:1023C000D981002400E00C240A21CA4802F0A2FEB0
:1023D0000021C84802F076FC3021C64802F072FCA9
:1023E0004021C44802F06EFC6021C24802F06AFC41
:1023F000C04802F0A1FE0A21BE4802F08BFE002177
:10240000BC4802F05FFC2621BA4802F05BFC0021C8
:10241000B84802F057FC6C21B64802F053FCB548AE
:1024200002F08AFE0A21B34802F074FE0021B1488E
:1024300002F048FC2821AF4802F044FC0121AD48DD
:1024400002F040FCF021AB4802F03CFCA94802F04D
:1024500073FE0A21A74802F05DFE0021A54802F0A4
:1024600031FC2A21A34802F02DFC0021A14802F0F2
:1024700029FC00219F4802F025FC9E4802F05CFEEA
:102480000A219C4802F046FE00219A4802F01AFCFC
:102490002C21984802F016FC0F21964802F012FCFD
:1024A0002221944802F00EFC924802F045FE0A21D7
:1024B000904802F02FFE00218E4802F003FC3C21E0
:1024C0008C4802F0FFFB44218A4802F0FBFB4621C6
:1024D000884802F0F7FB874802F02EFE0A21854863
:1024E00002F018FE0021834802F0ECFB2421814811
:1024F00002F0E8FB01217F4802F0E4FB37217D4830
:1025000002F0E0FB7B4802F017FE0A21794802F056
:1025100001FE0021774802F0D5FB3021754802F01A
:10252000D1FB0021734802F0CDFBA221714802F0DB
:10253000C9FB704802F000FE0A216E4802F0EAFD75
:1025400000216C4802F0BEFB02216A4802F0BAFB8F
:102550000021684802F0B6FB4321664802F0B2FB56
:10256000644802F0E9FD4FF4C87008F0ABFE0A21A0
:10257000604802F0CFFD00215E4802F0A3FB2E214F
:102580005C4802F09FFB19215A4802F09BFB19217D
:10259000584802F097FB574802F0CEFD0A215548F3
:1025A00002F0B8FD0021534802F08CFB0421514891
:1025B00002F088FB00214F4802F084FB21464D4881
:1025C00002F080FB4B4802F0B7FD0A21494802F0B7
:1025D000A1FD0021474802F075FB0621454802F0A5
:1025E00071FB0121434802F06DFB3021414802F0AC
:1025F00069FB404802F0A0FD0A213E4802F08AFD36
:1026000000213C4802F05EFB0A213A4802F05AFBE6
:102610000021384802F056FB0021364802F052FBF8
:10262000344802F089FD0A21324802F073FD00218E
:10263000304802F047FB0E212E4802F043FB0021F8
:102640002C4802F03FFB08212A4802F03BFB2948B6
:1026500002F072FD0A21274802F05CFD00212548A6
:1026600002F030FB1021234802F02CFBFF2121480F
:1026700002F028FB3C211F4802F024FB1D4802F019
:102680005BFD0A211B4802F045FD0021194802F0BC
:1026900019FB2221174802F015FB7F21154802F093
:1026A00011FB7F21134802F00DFB124802F044FD9C
:1026B0000A21104802F02EFD01210E4802F002FB13
:1026C00024210C4802F0FEFA00210A4802F0FAFA2E
:1026D0000021084802F0F6FA064802F02DFD0A2112
:1026E000044802F017FD0021024802F0EBFA242111
:1026F00002E000BF24530020204802F0E3FA00214A
:102700001E4802F0DFFA14211C4802F0DBFA1B48D5
:1027100002F012FD0A21194802F0FCFC00211748C2
:1027200002F0D0FA2A21154802F0CCFA0021134811
:1027300002F0C8FA0021114802F0C4FA0F4802F072
:10274000FBFC0A210D4802F0E5FC00210B4802F0D9
:10275000B9FA2021094802F0B5FA0021074802F031
:10276000B1FA0021054802F0ADFA044802F0E4FC99
:10277000012010BD8000C4B226E600BF2453002013
:1027800038B5304B304C1021054653F82000FFF788
:10279000DDFA2E4802F03CFB2846FFF70BFE2278BC
:1027A0002B48114601F0C6FD23680F2B0CD8DFE83B
:1027B00003F00C1014181C2024282C3034383C4012
:1027C0004408244B244A1A6038BD224B234A1A601D
:1027D00038BD204B224A1A6038BD1E4B214A1A6070
:1027E00038BD1C4B204A1A6038BD1A4B1F4A1A606C
:1027F00038BD184B1E4A1A6038BD164B1D4A1A6068
:1028000038BD144B1C4A1A6038BD124B1B4A1A6063
:1028100038BD104B1A4A1A6038BD0E4B194A1A605F
:1028200038BD0C4B184A1A6038BD0A4B174A1A605B
:1028300038BD084B164A1A6038BD064B154A1A6057
:1028400038BD00BF14FAFF1F00FAFF1F24530020F9
:102850002851002044510020BD549341103377C0CB
:10286000993918C0BE0D68BFCE71153F8D09034060
:10287000CCC9624009A7A3407DDBD140C416014109
:1028800054FC1741D0E83041195546419FAB5F4198
:10289000A04176415E2E864138B50121044631487B
:1028A00006F0ECFC372200212E4806F0E3FC20461F
:1028B00005F05AFD01462B480AF074F92D212948EC
:1028C00006F09EFC204605F02BFD014625480AF047
:1028D00069F92D21234806F093FC204605F00EFDF2
:1028E000014620480AF05EF902221F491D480AF0FD
:1028F00045F9204605F026FD092803DC302119485A
:1029000006F07EFC204605F01DFD014615480AF044
:1029100049F9204605F0CEFC01220546134911482D
:102920000AF02CF9092D03DC30210E4806F068FC72
:1029300029460C480AF036F9204605F0CDFC012264
:1029400004460A4907480AF019F9092C03DC30212A
:10295000044806F055FC21460248BDE838400AF01C
:1029600021B900BF9C510020D0600100F860010037
:102970002DE9F04F87B0FFF735F908F029FBA44F98
:10298000A44D3860A448A54C07F058FA0121A2488C
:1029900006F07AFC0221A04806F070FC00221146E5
:1029A0009D4806F067FC08229D499B480AF0E6F81E
:1029B0000121994806F062FC10220021964806F099
:1029C00059FC1222974994480AF0D8F892480AF024
:1029D00063F9002394482B600AF05EF992480AF0EC
:1029E0005BF90521914809F007FC8B4807F062FC70
:1029F00007218F4802F0C0FC0E218D4802F01AFD1D
:102A000004F58C660C218A4802F0E6FC304604F29C
:102A10006C414FF038430A2204F0D6FB002840F006
:102A2000EB851C21834809F0E7FB7F480AF034F965
:102A30000622814978480AF0A1F877480AF02CF973
:102A4000754807F037FC7D4A7D4B12689A4202D9DF
:102A50007A4A3C2313607B4A794B12689A4202D926
:102A6000784A3C231360784BDFF808A21A78172ABB
:102A700084BF00221A70754B1A783B2A84BF00224B
:102A80001A70734B1A78172A84BF00221A70714B80
:102A90001A783B2A84BF00221A70DAF80030012B22
:102AA00084BF0023CAF800306B4B1B68042B00F274
:102AB000FA846A4DDFF8C081694E082008F0B8FB3F
:102AC000E8B92B6801332B6002E00A2008F0FAFB1A
:102AD000082008F0ADFB0028F7D02A68DAF80030AB
:102AE000A2F10901B3FA83F304294FEA531300F268
:102AF000D084002B00F0CD84584A0E231360464842
:102B000007F09CF90121444806F0BEFB022142482F
:102B100006F0B4FB002211463F4806F0ABFB08F07C
:102B200057FA3B682C683060C3EB00090E2C5BD869
:102B3000DFE814F06B042704D8033C03BC023C021A
:102B4000A7012701A6005A005A005A005A005A004D
:102B50000F00414B04201C6808F06AFB0190032021
:102B600008F066FB019B8346002B40F0E184D8F817
:102B700000303C4A0121132B117040F312860133BF
:102B8000C8F800300134BBF1000F40F0D884DFF802
:102B9000ECB0344ADBF800300121132B117040F304
:102BA0000786092CC8BFDBF8003004F1FF34CCBF26
:102BB00001330123002CCBF80030C0F2C684062C70
:102BC000A8BF0024284B244A53F8240014600BF0BB
:102BD0000DFC26490BF012FD0AF0B2FF02460B462F
:102BE0000D4823490AF09AF8FEF79AFE08F0F0F92A
:102BF000FFF752FE084807F05DFB0A2008F062FB71
:102C0000B9F5167F7FF759AF07B0BDE8F08F00BF69
:102C1000684A00204C5200209C5100206C4A002041
:102C2000D4600100E060010080FFFF1FF46001003C
:102C30004CFAFF1F706101009061010034FAFF1F20
:102C4000A086010040FAFF1F280A002044520020FD
:102C500070510020F04E002030FAFF1FCC500020B1
:102C6000E44E0020E84E002014FAFF1F00007A44D2
:102C700064610100D8510020F0510020045200206E
:102C800005F02AFBBE4C034604202360029308F0A3
:102C9000CFFA0190032008F0CBFA019A029B8346F9
:102CA000002A40F03584D8F80020B6490120132AC4
:102CB000087040F382850132C8F800200133BBF16F
:102CC000000F40F02C84DFF8E0B2AE49DBF80020C2
:102CD0000120132A087040F37985092BC8BFDBF85F
:102CE000002003F1FF33CCBF01320122002BCBF8CF
:102CF0000020C0F21A843C2BA8BF00232268A24CFB
:102D00009A4223602FD0306805F01CFB0390306896
:102D100005F0D0FA216802918346306805F0EEFA9A
:102D20000446306805F0FCFA0190306805F01CFBA1
:102D30000DF1180E02990EF8081D00F14E0C039AC1
:102D4000019B8DF8122070468DF816C08DF8153055
:102D50008DF814408DF811B005F01AFB08F03EF91B
:102D600008F036F9386007228849894809F006FFDB
:102D700008F02EF905F0B0FA0146854809F012FF77
:102D800032E705F097FA834C034604202360029350
:102D900008F04EFA0190032008F04AFA019A029BCB
:102DA0008346002A40F00184D8F8002075490120AC
:102DB000132A087040F3B9840132C8F800200133A7
:102DC000BBF1000F40F0F883DFF8DCB16D49DBF8B0
:102DD00000200120132A087040F3B084092BC8BFDB
:102DE000DBF8002003F1FF33CCBF01320122002BBE
:102DF000CBF80020C0F2E6833C2BA8BF002322685A
:102E0000654C9A4223602ED0306805F09BFA0390FF
:102E10003068246805F060FA0290306805F06EFAB8
:102E20008346306805F07CFA0190306805F09CFA22
:102E30000DF1180E02990EF8081D00F14E0C039AC0
:102E4000019B8DF8122070468DF816C08DF8153054
:102E50008DF814B08DF8114005F09AFA08F0BEF81C
:102E600008F0B6F8386007224C49494809F086FE58
:102E700008F0AEF805F01EFA0146454809F092FE4A
:102E8000B2E605F05FFA464C034604202360029345
:102E900008F0CEF90190032008F0CAF9019A029BCC
:102EA0008346002A40F07283D8F80020354901207B
:102EB000132A087040F349840132C8F80020013316
:102EC000BBF1000F40F06983DFF8DCB02D49DBF87F
:102ED00000200120132A087040F34084092BC8BF4A
:102EE000DBF8002003F1FF33CCBF01320122002BBD
:102EF000CBF80020C0F25783182BA8BF002322680C
:102F000001939A422DD0306805F0D4F903903068CF
:102F100005F0E2F90290306805F0F0F904463068F7
:102F200005F0FEF98346306805F01EFA0DF1180E23
:102F300002990EF8081D00F14E0C039A019B8DF8C2
:102F4000112070468DF816C08DF812308DF815B02E
:102F50008DF8144005F01CFA08F040F808F038F835
:102F6000386005220F490A4809F008FE08F030F8D9
:102F700005F0E8F90146064809F014FE34E600BF02
:102F800010520020E84E0020105100205C6101002A
:102F90009C51002050510020E04E0020546101005F
:102FA000DC5100204C6101000452002005F0A6F91C
:102FB000C04C034604202360029308F039F90190C5
:102FC000032008F035F9019A029B8346002A40F05D
:102FD000CE82D8F80020B8490120132A087040F3A7
:102FE000C4830132C8F800200133BBF1000F40F068
:102FF000C582DFF8ECB2B049DBF800200120132ACB
:10300000087040F3BA83092BC8BFDBF8002003F136
:10301000FF33CCBF01320122002BCBF8002040F35C
:10302000B382202BA8BF01232268A44C9A422360BC
:103030002ED0306805F086F90390306805F03AF933
:103040008346306805F048F902903068246805F03E
:1030500067F90190306805F087F90DF1180E029AB2
:103060000EF8082D00F14E0C039B01998DF81230DB
:1030700070468DF816C08DF815108DF814408DF837
:1030800011B005F085F907F0A9FF07F0A1FF38603E
:1030900004228B498B4809F071FD07F099FF05F078
:1030A0002DF90146874809F07DFD9DE505F038F9C9
:1030B000854C034604202360029308F0B9F8019080
:1030C000032008F0B5F8019A029B8346002A40F0DD
:1030D0003F82D8F8002078490120132A087040F375
:1030E00052830132C8F800200133BBF1000F40F0D9
:1030F0003682DFF8ECB17049DBF800200120132A9A
:10310000087040F34883092BC8BFDBF8002003F1A7
:10311000FF33CCBF01320122002BCBF8002040F35B
:1031200024820D2BA8BF01232268684C9A42236099
:103130002ED0306805F006F90390306805F0BAF833
:103140008346306805F0C8F80290306805F0D6F87C
:1031500001903068246805F007F90DF1180E029906
:103160000EF8081D00F14E0C039A019B8DF81220F9
:1031700070468DF816C08DF814308DF815408DF816
:1031800011B005F005F907F029FF07F021FF3860BD
:1031900006224F494B4809F0F1FC07F019FF05F0F2
:1031A000BFF80146474809F0FDFC1DE505F0DCF8D5
:1031B000484C034604202360029308F039F801903C
:1031C000032008F035F8019A029B8346002A40F05C
:1031D0007E81D8F8002038490120132A087040F376
:1031E0000A830132C8F800200133BBF1000F40F020
:1031F0007581DFF8ECB03049DBF800200120132A9C
:10320000087040F30083092BC8BFDBF8002003F1EE
:10321000FF33CCBF01320122B3F5FA6FCBF80020A7
:10322000C0F2638140F634029342C8BF4FF4FA63A0
:103230002268294C9A4223602ED0306805F082F82B
:103240000390306805F036F88346306805F044F89E
:103250000190306805F052F80290306805F060F88F
:103260000DF1180E9DF804200EF8082D236803991F
:10327000029A8DF815004E3370468DF812108DF8B5
:1032800016308DF814208DF811B005F081F807F094
:10329000A5FE07F09DFE386005221049094809F097
:1032A0006DFC07F095FE05F05FF80146054809F052
:1032B00079FC99E46C510020E84E0020485200202F
:1032C000446101009C510020405200201451002014
:1032D0003C610100085200204C5100203461010083
:1032E00004520020B84B04201C6807F0A1FF019095
:1032F000032007F09DFF019B8346002B40F0D88000
:10330000D8F80030B14A0121132B117040F38182AB
:103310000133C8F800300134BBF1000F40F0CF801A
:10332000DFF8D0B2A94ADBF800300121132B11706D
:1033300040F37582092CC8BFDBF8003004F1FF347C
:10334000CCBF01330123002CCBF80030C0F2BD808C
:103350009F4B9C42C8BF00249B4B9E499E481C60CB
:10336000042209F00BFC984B19689B4809F01AFCE1
:1033700001229A49984809F001FC974809F08CFC11
:1033800032E4974B04201B68029307F051FF019031
:10339000032007F04DFF019A029B8346002A40F06C
:1033A000A780D8F8002089490120132A087040F32B
:1033B00014820132C8F800200133BBF1000F40F045
:1033C0009E80DFF830B28149DBF800200120132A0B
:1033D000087040F30A82092BC8BFDBF8004003F1F4
:1033E000FF33C8BF0134002BCBF8004040F38D8081
:1033F000B3F5616FC8BF0123794C7A4976482360E1
:10340000042209F0BBFB2346AEE7704C2378002B67
:1034100040F047810A2274496F4809F0AFFB04204D
:1034200007F006FF0446032007F002FF002C7FF49C
:10343000DBAB00287FF4D8AB674806F0FFFC012126
:10344000654805F021FF0221634805F017FF0022BF
:103450001146614805F00EFFFEF71EFC0A22634983
:103460005D4809F08BFB5C4806F024FF40F2DC501D
:1034700007F028FFFEF754FA07F0AAFDFFF70CFA51
:10348000554806F017FF0A2007F01CFF07B0BDE8FB
:10349000F08F0E2A7FF733AB002B3FF430AB0023C5
:1034A0002B60FFF72CBB524A05231360FFF701BBCB
:1034B0000023C8F80030BBF1000F3FF431AF4D4B93
:1034C0000022002C1A60BFF643AF414C44E70022B3
:1034D000C8F80020BBF1000F3FF48BAE454A002135
:1034E000B3F5FA6F1160BFF69DAE40F634039FE668
:1034F0000022C8F80020BBF1000F3FF462AF3D4A44
:103500000021002B11603FF773AF4FF4616373E745
:103510000022C8F80020BBF1000F3FF4D4AB354ABD
:103520000021002B1160BFF6E6AB3B23FFF7E6BBA3
:103530000023C8F80030BBF1000F3FF428AB2D4B3F
:103540000022002C1A60BFF63AAB0524FFF73ABB05
:103550000022C8F80020BBF1000F3FF4CAAD254A95
:103560000021002B11603FF7DCAD0C23DCE50022CD
:10357000C8F80020BBF1000F3FF43BAD1D4A00210D
:10358000002B11603FF74DAD1F234DE50022C8F819
:103590000020BBF1000F3FF497AC164A0021002B2E
:1035A0001160BFF6A9AC1723A9E40022C8F80020D7
:1035B000BBF1000F3FF408AC0E4A0021002B116054
:1035C000BFF61AAC3B231AE440FAFF1FE84E002076
:1035D000805101002C6101009C51002028610100F4
:1035E00034FAFF1F8C600100106101001C610100B2
:1035F00030FAFF1F0452002004F23C40266001F024
:10360000DBFF0121204603F0E3FC002852D08B4E63
:1036100006F23C484046314602F006FA00283FF4E4
:1036200000AA96F83C3413F0700F3FF4FAA9844CCA
:10363000844B06F58C6022460921C3F8008003F014
:10364000BBFF237813F0C0033CD0402B00F0EB808D
:103650000D217D4808F0D0FD002319460A227B4841
:1036600009F06AFB794809F017FB0024002631466F
:1036700000230A2276482E6009F05EFB012275497C
:10368000734809F07BFA214600230A22704809F0AA
:1036900053FB6F4809F000FB6D4806F00BFEFFF787
:1036A000D2B9FEF7F9FA4FF00003237007F090FC4F
:1036B0003860AFE60146204603F08AFC0028A6D118
:1036C000FFF7AFB9607AA379E279A67A6179247AB3
:1036D00000F00300400003F00303920040EAD6101C
:1036E00001F00F0142EA8323084443EA94130738A8
:1036F000013303FA00F00AF075FE57490AF0CAFEDA
:103700000BF0B4F80D2104464F4808F075FD214632
:1037100000230A224D4809F00FFB4C4809F0BCFA7F
:10372000C72CA3D9A4F1C806A1E7C820019307F0CC
:10373000C9FD4A4B1A68019BFFF73EBBC8200193A5
:1037400007F0C0FD019BFFF749BBC820019307F0BC
:10375000B9FD424B1A68019BFFF7AEBBC82001932D
:1037600007F0B0FD019BFFF7B9BBC820019307F03C
:10377000A9FD3A4B1A68019B33E4C820019307F076
:10378000A1FD019B3FE4C820019307F09BFD334B53
:103790001A68019BA5E4C820019307F093FD019BE3
:1037A000B1E4C82007F08EFD2C4B1B68FFF7E7B98A
:1037B000C82007F087FDFFF7F4B9C820019307F090
:1037C00081FD264B1A68019BFFF775BAC82001934B
:1037D00007F078FD019BFFF780BAC820019307F03E
:1037E00071FD1E4B1A68019BE3E5C820019307F0A9
:1037F00069FD019BEFE5C820019307F063FD174BBE
:103800001A68019BEDE4C820019307F05BFD019B62
:10381000F9E4C82007F056FD104B1B6878E5C82076
:1038200007F050FD86E5637A227AE079013303EBF5
:10383000022303EB004080025DE700BF6C4A0020DA
:10384000E05100203C530020FC60010080FFFF1F7E
:103850009C5100200C610100BD37063AF051002058
:103860002DE9F04F8FB072B6BF49C04BC04841251B
:103870000E2480220D70047019461A700B78BB4A12
:103880001806FBD5BB49BC4B0D78BC4CBC481D7021
:103890000339247800780978D9705C70987062B622
:1038A00072B6B149B24C41260F2580200E702570AA
:1038B000114610700A781206FCD5AE4CAF48B049DC
:1038C000B04A2478007809781278DA711C7158713E
:1038D000997162B6AC4DAD4FAD4E4FF4FA7007F032
:1038E000F1FC2968AB4800230A2209F025FAA9480F
:1038F00009F0D2F92968A74800230A2209F01CFA26
:10390000A44809F0C9F92968A24800230A22002422
:1039100009F012FA9F4809F0BFF964203C6007F0F3
:10392000D1FC39689B481022234609F005FA9948D2
:1039300009F0B2F94FF430533B60642007F0C2FC49
:103940004FF434533B60642007F0BCFC924B914829
:1039500019681022234609F0EFF98E4809F09CF906
:1039600039688C482346102209F0E6F9894809F0A5
:1039700093F98A4B874819681022234609F0DCF92D
:10398000844809F089F92968824823460A2209F007
:10399000D3F9804809F080F94FF47A7007F092FC6F
:1039A00029687C4823460A2209F0C6F9794809F0BB
:1039B00073F94FF47A7007F085FC23460A222968D0
:1039C000744809F0B9F9734809F066F9744801F0D0
:1039D0001FFA0121022007F039FC0121142007F011
:1039E00035FC2146152007F031FC204606F0B4FFD7
:1039F0000121022007F0F8FB0121142007F0F4FB5D
:103A00000121062007F022FC2146062007F0ECFBEE
:103A10002146062007F01AFC2146042007F016FC78
:103A20002146032007F012FC2146082007F00EFC77
:103A30000121042007F0D8FB0121032007F0D4FB6B
:103A40000121082007F0D0FB07F0C2FA554B306087
:103A5000984202DC544807F0C1FA01233C220221BB
:103A60005248534C06F01CFB8C2007F02BFC4F48AF
:103A700006F0E4F901214D4805F006FC02214B480F
:103A800005F0FCFB00221146484805F0F3FB0A2232
:103A90004849464809F072F8444809F0FDF843489F
:103AA00006F008FC0121062007F0D0FB00210620CB
:103AB00007F09AFB3D4806F0C1F901213B4805F0AB
:103AC000E3FB0221394805F0D9FB002211463748B3
:103AD00005F0D0FB0A223749344809F04FF8334843
:103AE00009F0DAF8314806F0E5FB0721324801F029
:103AF00043FC04F58C650E212F4801F09BFC284601
:103B000004F26C414FF038430A2203F05DFB0028B9
:103B100058D11C21294808F06FFB1E4809F0BCF859
:103B2000224806F08BF90121204805F0ADFB022167
:103B30001E4805F0A3FB002211461C4805F09AFB25
:103B400012221F49194809F019F8184809F0A4F879
:103B500007F03EFAFEF7A0FE144806F0ABFB4FF468
:103B60007A7007F0AFFBDBE707000240000002407D
:103B7000060002400B000240345100200A000240BF
:103B8000090002400800024000D0034010D003406A
:103B9000E44E002080FFFF1F14D0034018D00340E4
:103BA000245300207FC1855680C185569C5100203A
:103BB0006C4A0020986101004CFAFF1F70610100FF
:103BC000A461010004F23C40256001F0F5FC0121F4
:103BD000204603F0FDF90146002800F01781954DBD
:103BE00005F23C442046294601F01EFF002890D0F3
:103BF00095F83C3413F0700F8BD08F4BDFF8A0A2F8
:103C00001C60FDF785FD6E218C4808F049FCFEF72D
:103C1000AFFE8B4A8B4B176853F827000AF0E6FB80
:103C2000CAF800003846FEF7ABFD204601F0C4FCA0
:103C3000294620460EAD01F0F7FE834B45F8343D92
:103C4000002321468DF814308DF815308DF808309A
:103C50008DF810307D4A462305A84FF47A740394FA
:103C600001F062FE9DF81430002B40F0D6807848B9
:103C7000DFF8308206F0E2F80121754805F004FB18
:103C80000221734805F0FAFA00221146704805F047
:103C9000F1FAD8F800303C2B06DDB3F5967FD4BF9F
:103CA0003C244FF4967400E00A2407F091F9DFF801
:103CB000F891684FD9F8003090FBF4F204FB02440D
:103CC000654A3060E118116018463C600AF08EFBCE
:103CD000DAF80010614D624CDFF8D0A1DFF8D0B106
:103CE0000AF0D8FB4FF06E510AF0D4FB4FF074513C
:103CF0000AF0D0FB09F024FF09F0AEFC0022594B7A
:103D000009F072FF0AF020FA574BD8F80020196822
:103D1000564B2860521A22EAE27583FB05232B4496
:103D2000E817C0EBE32009F0F9FE09F01DFD0AF0E9
:103D30000BFA4F4BCAF8000004FB005483FB04232A
:103D40002344E017C0EB631009F0E8FE09F00CFD16
:103D50000AF0FAF9474DA0EB001204EB8204034687
:103D600010214548CBF800302C6008F045FADAF80D
:103D70000010424808F016FFDBF800103F4808F03A
:103D800011FF29683D4808F00DFF3C4808F084FF0A
:103D900008213B4808F030FAD9F80010374808F0FD
:103DA00001FF364808F078FF0821364808F024FA69
:103DB000D8F80010314808F0F5FE304808F06CFFE4
:103DC0000E21314808F018FA3068FDF7C5FE0C21C5
:103DD0002E4808F011FA3868FDF7BEFE3B683468DB
:103DE0002B481C1B152108F007FA2146234808F030
:103DF000D9FE224808F050FF2649274B00204FF0FB
:103E0000FF3208601A600FB0BDE8F08F204603F063
:103E1000DFF800287FF4E3AE7BE629221F4905A8DE
:103E200002F00CF8284608F037FF05A801F0C4FBA3
:103E30001DE700BF6C4A00203C5300200082FF1F9A
:103E400030FAFF1F14FAFF1FA85E01004C5F01004B
:103E50009C510020EC4E00203C510020D451002009
:103E6000F0F1FFFF0000404004FAFF1FC5B3A2912C
:103E700089888888F8510020B861010080FFFF1F01
:103E8000CC610100D8610100E4610100F46101002E
:103E900004620100FC0900200C520020E45F0100D4
:103EA000F451002040FAFF1F34FAFF1F600A00207F
:103EB0004051002038B504460D463148012105F037
:103EC000DDF92AB200212E4805F0D4F9204604F08D
:103ED0004BFA01462A4808F065FE2D21284805F0D6
:103EE0008FF9204604F01CFA0146254808F05AFED6
:103EF0002D21234805F084F9204604F0FFF90146FE
:103F00001F4808F04FFE02221E491D4808F036FEE9
:103F1000204604F017FA092803DC3021184805F080
:103F20006FF9204604F00EFA0146154808F03AFEF3
:103F3000204604F0BFF9012205461349104808F055
:103F40001DFE092D03DC30210D4805F059F92946E5
:103F50000B4808F027FE204604F0BEF90122044673
:103F60000949074808F00AFE092C03DC30210448FF
:103F700005F046F921460248BDE8384008F012BE77
:103F80009C510020D0600100F86001002DE9F04153
:103F9000A84D2C6824B1012C68D030BFBDE8F08159
:103FA00007F016F8A44FA54E3860A54805F046FF67
:103FB0000121A34805F068F90221A14805F05EF946
:103FC000224621469E4805F055F90A229D499C4803
:103FD00008F0D4FD9A4808F05FFE14213068FFF71E
:103FE00069FF3868FEF758FC954806F063F9964A71
:103FF0003B681268934280F2C58032689A4232DC94
:10400000924F3C68002C59D00D219148914C08F0FA
:10401000F3F8914808F040FE904B914A31681B68D4
:10402000126890480B441A440E213260236008F055
:10403000E3F806F0CDFFFDF78FFD0B218A4808F06D
:10404000DBF82068FDF788FD0B21884808F0D4F8DC
:104050003068FDF781FD0123AE2179482B6005F022
:10406000F5FEFDF74BF92C68012C96D1FCF78AFD83
:10407000042007F0DDF80646032007F0D9F80EB952
:10408000002836D07A4C7B4B22681B689A4284DB2E
:10409000734B1E68002E7BD1774801F08DFAFCF738
:1040A0005BFE0B217548266008F0A6F8744B6A4841
:1040B0001988FCF7E7FB30BFBDE8F0810A217148A1
:1040C00001F028F821466F4800F0FCFD0E216D48F4
:1040D00000F0F8FD21466B4800F0F4FD0A21694824
:1040E00000F0F0FD674801F027F84FF0FF333B6028
:1040F0008AE75F4B644E1B68644A5F485B02002599
:1041000003F124072946B362A2F8B451776001F0A5
:10411000A5FD31462C22584801F090FE564801F08A
:104120004BFA23463C220221454805F0B9FF6420A2
:1041300007F0C8F8424805F081FE2146404805F0E6
:10414000A3F802213E4805F099F82A4629463C4842
:1041500005F090F807224E49394808F00FFD38481D
:1041600008F09AFD2146364805F088F810224949A2
:10417000334808F003FD324808F08EFD304806F061
:1041800099F8FEE70121052007F02EF83B6834E797
:10419000FCF7AEFD294B404E1C68404F06F018FF5F
:1041A0003F4A404B1268201A841A24EAE47483FBC5
:1041B00004232344E017C0EBE32009F0AFFC09F02F
:1041C000D3FA09F0C1FF384B384A306003FB004492
:1041D00082FB043222448046E017C0EB621009F0F3
:1041E0009DFC09F0C1FA09F0AFFF0201131A821A0F
:1041F00004EB82049B004FF4616202FB08333C60D5
:10420000DFF8B0801C44092CC8F8000054DC0721FA
:10421000274807F0F1FF104808F03EFD01233C223B
:104220000221074805F03CFF00232B6030BFBDE8AA
:10423000F08100BFFC090020E44E0020EC4E00207D
:104240009C5100201C620100FC510020640A0020E7
:10425000286201003C51002080FFFF1F34FAFF1F3D
:1042600040FAFF1FE461010038620100446201006E
:10427000F44E0020D45100203C0A00206C62010062
:104280009C5400202453002050520020F84E00205F
:104290005062010058620100600A0020F8510020BD
:1042A00004FAFF1FC5B3A291F0F1FFFF8988888847
:1042B00078620100405100200021022006F094FFA6
:1042C000FEF710F81021154807F096FF31681448E2
:1042D00008F068FCD8F80010114808F063FC396851
:1042E0000F48FCF7CFFA08F08BF8642006F0EAFFDD
:1042F0003B7898F8002031780A4803F073FE0A48AA
:1043000003F038FC0121022006F06EFF4FF4967096
:1043100006F0D8FFFEF71AF879E700BFB861010090
:1043200080FFFF1FD0500020000A002000207047AF
:104330000020704738B50F29114C28BF0F210F2AD4
:1043400028BF0F220D46017A204642EA051500F0EB
:104350000BFE2046002100F0B5FC2046202100F095
:10436000B1FC2046002100F0ADFCE9B2204600F08F
:10437000A9FC204600F0E0FEB0FA80F0400938BD0C
:1043800024530020F8B5C34C01260546067120468B
:1043900000F03EFD052006F095FF297A204600F04A
:1043A000E3FD2046002100F08DFC2046302100F086
:1043B00089FC2046402100F085FC6021204600F069
:1043C00081FC204600F0B8FE297A204600F0CCFDA2
:1043D0002046002100F076FC2046262100F072FCE9
:1043E0002046002100F06EFC6C21204600F06AFCA3
:1043F000204600F0A1FE297A204600F0B5FD2046B7
:10440000002100F05FFC2046282100F05BFC3146D3
:10441000204600F057FCF221204600F053FC2046D5
:1044200000F08AFE297A204600F09EFD20460021F9
:1044300000F048FC20462C2100F044FC20460F21CF
:1044400000F040FC2221204600F03CFC204600F019
:1044500073FE297A204600F087FD2046002100F0F7
:1044600031FC20463C2100F02DFC2046442100F088
:1044700029FC4621204600F025FC204600F05CFE89
:1044800040F23713EB80297A204600F06DFD20467C
:10449000002100F017FC2046242100F013FC3146D7
:1044A000204600F00FFC3721204600F00BFC204690
:1044B00000F042FE297A204600F056FD20460021F9
:1044C00000F000FC2046302100F0FCFB204640219B
:1044D00000F0F8FBFF21204600F0F4FB204600F03E
:1044E0002BFE297A204600F03FFD2046002100F0F7
:1044F000E9FB2046022100F0E5FB2046002100F008
:10450000E1FB7321204600F0DDFB204600F014FEA5
:104510004FF4C87006F0D6FE297A204600F024FD3C
:104520002046002100F0CEFB20462E2100F0CAFBE1
:1045300020461D2100F0C6FB1D21204600F0C2FBD5
:10454000204600F0F9FD297A204600F00DFD2046B6
:10455000002100F0B7FB2046042100F0B3FB204609
:10456000002100F0AFFB0421204600F0ABFB204609
:1045700000F0E2FD297A204600F0F6FC20460021FA
:1045800000F0A0FB2046062100F09CFB31462046AF
:1045900000F098FB3021204600F094FB204600F00C
:1045A000CBFD297A204600F0DFFC2046002100F0F8
:1045B00089FB20460A2100F085FB2046002100F0FF
:1045C00081FB1021204600F07DFB204600F0B4FD69
:1045D000297A204600F0C8FC2046002100F072FB3A
:1045E00020460E2100F06EFB2046002100F06AFB01
:1045F0000021204600F066FB204600F09DFD297A50
:10460000204600F0B1FC2046002100F05BFB204674
:10461000102100F057FB20463C2100F053FB3C21C9
:10462000204600F04FFB204600F086FD297A204608
:1046300000F09AFC2046002100F044FB2046222195
:1046400000F040FB20467F2100F03CFB7F2120460C
:1046500000F038FB3627204600F06EFD297AEF8007
:10466000204600F081FC2046002100F02BFB204674
:10467000242100F027FB2046002100F023FB3946CF
:10468000204600F01FFB204600F056FD6E723046BB
:10469000F8BD00BF245300200B462DE9F0414549E9
:1046A0000546184609F0F6FE434909F0EBFD0AF00D
:1046B000DDF8044600284CD080281FD92B7900242F
:1046C00026462BBB297A3D4800F04EFC00213B4892
:1046D00000F0F8FA2221394800F0F4FA3146374860
:1046E00000F0F0FA2146354800F0ECFA334800F0CB
:1046F00023FDB0FA80F04009BDE8F081C0F18004EC
:104700002B7944EA0424C4F30726E4B2002BD9D061
:10471000EF88297A294827F010074FF00008EF802A
:1047200085F8048000F020FC4146244800F0CAFAD5
:104730002421224800F0C6FA390A204800F0C2FAC3
:1047400007F0EF011D4800F0BDFA1C4800F0F4FC32
:10475000B8E701232B71297A184800F005FC21469F
:10476000164800F0AFFA2221144800F0ABFA7F217E
:10477000124800F0A7FA7F21104800F0A3FA0F4872
:1047800000F0DAFCEE88297A0C4846F01006B6B242
:10479000EE8000F0E9FB2146084800F093FA24215E
:1047A000064800F08FFA310A044800F08BFAF1B2A3
:1047B00099E700BF00000143EE7CFF3E2453002038
:1047C00070B505460C4619B101293BD0002070BDDB
:1047D000017A424800F0C8FB2146404800F072FAD6
:1047E00020213E4800F06EFA21463C4800F06AFA6B
:1047F00055213A4800F066FA384800F09DFC06461C
:104800000028E3D1EC88297A344844F00404A4B2A7
:10481000EC8000F0A9FB3146304800F053FA242127
:104820002E4800F04FFA210A2C4800F04BFAE1B272
:104830002A4800F047FA294800F07EFCB0FA80F0E0
:10484000400970BD017A254800F08EFB0021234805
:1048500000F038FA2A21214800F034FA21461F4896
:1048600000F030FA73211D4800F02CFA1B4800F0CC
:1048700063FC04460028A9D1297A184800F074FB8B
:104880002146164800F01EFA2021144800F01AFABA
:104890002146124800F016FA8821104800F012FA5A
:1048A0000E4800F049FC044600288FD1EE88297A92
:1048B0000A4826F00406EE8000F056FB2146074821
:1048C00000F000FA2421054800F0FCF9310A034801
:1048D00000F0F8F906F0FB01AAE700BF245300201E
:1048E00010B5044607F0C0FF204610BD024A034938
:1048F00003480AF089B900BFFCF9FF1FE148000036
:104900007C5200201B4A1C4B11681C48096970B47A
:1049100099421279027009D2194A127832B3194AAF
:104920004FF08041116003F5807402E01C46A3F54E
:104930008073154A154912680D68AAB1A5B1144EC5
:104940003088402810D841000A44403029440232BF
:104950000231308033F9040B22F8020F9C4233F904
:10496000020C21F8020FF5D870BC704703F5807473
:10497000DFE700BF8C520020B8F2FF1F1F8000400D
:104980008652002008E200E0945200208852002065
:1049900084520020F8B5064607F0B2FD0446E8B19F
:1049A00007F0AEFD054600283AD072B61F4B1A88B4
:1049B0007F2A19D8002C31D01D490A6842B162B64D
:1049C000204607F0F1FD2846BDE8F84007F0ECBDB1
:1049D00018480C601A80056062B6F8BD054672B6CC
:1049E000124B1A887F2AE5D9114A124917681460B8
:1049F00000220C681A800D6062B63946304607F016
:104A0000FDFD384607F0D0FD30462146012207F073
:104A1000F5FD2046BDE8F84007F0C6BD62B6F8BD1A
:104A2000204607F0C1FD2C46BFE700BF845200209E
:104A30009452002088520020F8B5284C284E204679
:104A4000012107F073FE00F083F8264B264A274821
:104A50004FF480611960236800211A6099802279DF
:104A6000186102F1804202F5043240F20110D88050
:104A70009E614FF48075022006278E26DD82D96064
:104A8000DD8398609F8398821170167007F0F4FDA3
:104A90001749184B2279184F08701A703968227913
:104AA000164C174D174E41F0124141F001015311C0
:104AB00039609B00206803F1604302F1100703F5A1
:104AC000614302F01F02012140F0104001FA02F29E
:104AD000206045F827601A60F8BD00BF8C520020A6
:104AE00000FEFFFF14B00440A0F00240B8F1FF1F29
:104AF000865200201B80004080F0024000F00240FF
:104B000000F4FF1F05490000024A034903480AF068
:104B10007BB800BFFCF9FF1FE14800008C52002069
:104B2000024A034903480AF06FB800BFFCF9FF1FAF
:104B3000E148000098520020024A034903480AF065
:104B400063B800BFFCF9FF1FE1480000A05200203D
:104B5000284B29491A68294842F400421A600A6819
:104B600042F002020A601A6842F002021A60036808
:104B7000002B3DDB224B1B68002B39DB214A4FF019
:104B8000864313601368002BFCDBF0B51E4C1F48F6
:104B9000DFF8ACE01E491F4B1F4A204F204E214D2D
:104BA00041F2100CC4F800C0002404600120CEF8CB
:104BB0000000DFF890E0C1F800E04FF480311960A8
:104BC000194B1360DFF880E0184A3A6034602860BF
:104BD0001748CEF80000174CB9671748174946F830
:104BE000503C4FF4C0632A61236003600B60F0BD4A
:104BF000704700BF3C8004404080044000F0024009
:104C000080F0024000F1024004F1024060F00240F6
:104C100008F002400CF0024010F0024014F0024094
:104C2000E0F0024084F002401B0F0100000F0F0F64
:104C30000300004708B004400CB0044018B0044022
:104C400004F002400300000788F00240024A0349D2
:104C5000034809F0D9BF00BFFCF9FF1FE14800007D
:104C6000A8520020024A0349034809F0CDBF00BF03
:104C7000FCF9FF1FE1480000B0520020024A03493E
:104C8000034809F0C1BF00BFFCF9FF1FE148000065
:104C9000B8520020024A0349034809F0B5BF00BFDB
:104CA000FCF9FF1FE1480000C0520020024A0349FE
:104CB000034809F0A9BF00BFFCF9FF1FE14800004D
:104CC000C85200200A4B1B7813B90A4B1B786BB1F2
:104CD000094A1378202B07D810B4581C074C1070C1
:104CE000E154012010BC704701230371002070477C
:104CF00036530020F952002037530020D8520020AC
:104D0000704700BF024A034B10781B78C01A7047E7
:104D10003553002034530020064A07491378097898
:104D2000994204D90548591CC05C117070474FF076
:104D3000FF3070473453002035530020FC520020D0
:104D4000054B064A1B7812789A4286BF044AD05C0B
:104D50004FF0FF30704700BF345300203553002020
:104D6000FC52002070B50D4B1B78144613B90C4B48
:104D70001B788BB10B4E3578C5F12103A34202D2CB
:104D800001221C460271084822462844254405F0A9
:104D900037FC3570204670BD184670BD3653002074
:104DA000F952002037530020D8520020124BDB78F4
:104DB00003F020034BB1114A13780133DBB2012B0E
:104DC000137012D9122006F0BFB810B5122003F0EC
:104DD000FF0406F0B9F80A4B1B685BB109490A4A9F
:104DE0000C701078BDE810401847084B1B78002B5A
:104DF000E8D0704710BD00BF00600640205300207F
:104E0000D45200203453002035530020F9520020A2
:104E10000D4A0E4BF0B500200D4C10702268DFF8E3
:104E200038E00C4F42F0400222604FF419712726FF
:104E30000425202480229870CEF8001039605E701E
:104E40009D715C719A70F0BDF952002000600640BF
:104E50003480044008A004400CA0044010B5384C35
:104E6000E378DBB2D80623D510225906E2701ED5AE
:104E700003F0040303F0FF02002B33D0314B32491F
:104E80001A68324C00230B702370002A3BD09047E5
:104E90002378002B37D02E4B1B78294A2D49D0245C
:104EA00094701371264B012002220870DA7010BD35
:104EB0005A06DDD4A27802F0100202F0FF0042B3DD
:104EC00013F001031BD1234920480A78007890424F
:104ED00081BF1F4B501C9B5C08702371184BD02264
:104EE0009A7008E01C48164B174902700120C02236
:104EF00008709A701B79124B0222DA7010BDC02321
:104F0000A3702379F7E71249002301220B70227066
:104F1000C3E7124B124918700322122005F094FFC8
:104F20000D4923790A781F2ADBB2E4D806480078B5
:104F30000028E0D00B4C501CA3540870DBE700BFE6
:104F4000006006401C530020D05200203753002040
:104F5000D852002038530020355300202053002021
:104F6000AD4D0000FC5200200548064A10B4012354
:104F7000054C037049001370217010BC704700BFCE
:104F80003653002037530020D85200202DE9F0433B
:104F9000594C1223E370A37803F0200383B0002B55
:104FA00055D0B423DFF86881A370D8F80030524D93
:104FB0001C460020EA78D2B29A421CBF1446012057
:104FC00096061346F6D5002840F08C804B4B1B7894
:104FD000002B33D003F1FF3E5FFA8EFE0026D8F897
:104FE0000040474F444D0EF1010E30464FF0020C89
:104FF00017F8013F2B715FFA86F902E013F0200FDA
:1050000009D0EB78DBB293421CBF1C46012013F0A1
:10501000020F1A46F2D085F803C0EA78D2B2934262
:105020001CBF14460120D30633D4930631D5D307D1
:1050300044D401367645DBD100284AD1002000292E
:105040002ED1304B00221A7003B0BDE8F0832E4DF4
:10505000DFF8BC8003F0FF022B680093009ED8F8B5
:10506000000005E02B680193019B9B1B0F2B1BD8B5
:10507000E378DBB2834218BF012213F0200F1846F9
:10508000F0D192BB21481C4B0024B02204709A70CE
:105090008BE708BB184B80229A7004200029D0D0DF
:1050A000154B80229A70CCE7CAB9134B002180229D
:1050B000042099709A7003B0BDE8F083C0B90E4B1C
:1050C000B9F1000F4FF080020CBF022003209A704C
:1050D000B7E7C8F80040B1E7C8F80040DAE7C8F819
:1050E0000000E2E7C8F8004070E7C8F80030C9E700
:1050F000C8F80040E3E700BF0060064037530020D7
:10510000D75200203653002098530020F952002037
:1051100048FAFF1F0548064A10B40123054C0370E6
:1051200049001370217010BC704700BF3653002037
:1051300037530020D85200200121FFF727BF00BFBE
:10514000044B054A1A604FF47A71002299601A7173
:105150001A73704724530020B062010010B4047F1A
:105160004160022CC26002D010BC07F097BB83687C
:1051700010BC1847F0B4464B464A186BDC6A0179FC
:105180001170454922790A709A6A00790870002ADC
:1051900046D05968C9688A423ED82168CC8B24041D
:1051A00002F1FF3065D4C0F30E00C883C88B80B213
:1051B000C882196B0968C88B000452D4C2F30E0070
:1051C000C883C88B002480B212F1FF32C88218BF96
:1051D00001229C62D96A2E4809680D6800F12404F6
:1051E000A54236D00068C46814F0804F0C680D6882
:1051F00015BF248824780235013544F000440D6041
:105200004463196B254B09791970214912B1CA6A97
:1052100012791A70F0BC7047521A9A620122D9E7CB
:10522000586B196805681E4C0A63CC62CC682D68FF
:105230001C4E24F080440327B542CC6083F82570CF
:105240001FD1037F4260022BC2601ED0F0BC07F06A
:1052500025BB016890F82400CC6840F0004048630A
:10526000CFE7CC8BC2F3080004F47E442043C8830C
:10527000A7E7CC8BC0F3080004F47E442043C88326
:1052800094E72B461146F0BC18478368F0BC1847DA
:105290004CFAFF1F1F8000401C8000401B80004014
:1052A00000000FFF5D51000090E80C00F0B41C6896
:1052B00059682568164F174E29432160164D174926
:1052C0001760D66015611160417A154A5C180A3181
:1052D00094F8244053F8215002EBC40149680D6052
:1052E000017A5C1803EB8101247ECD6902EBC401D5
:1052F00049680D60817A581803EB810390F83000FB
:10530000596B02EBC002F0BC53681960704700BFD4
:1053100001401F00011000380110007800001F80BC
:10532000246901004268036805CA10B40468224376
:105330000260D868840100F0E06205D5080900F435
:10534000706021F470410143D8681143814209D053
:105350001A68500408D40748186041F08040D960AA
:1053600018611A6010BC704741F08042D96010BCCF
:105370001A61704701401F004268437A134493F852
:1053800024308B4209D0F0B492F824408C4205D0EE
:1053900092F825408C421AD0F0BC70470024214678
:1053A0001668556836682E420FD00A4D05EBC303C8
:1053B00000275E685318376093F8243005EBC30567
:1053C0000A316B6852F821201A604472E4E7012424
:1053D0002146E5E7246901004268037A13441B7EF5
:1053E0008B4207D0F0B4147E8C4204D0547E8C42A1
:1053F0001AD0F0BC704700242146166855683668FC
:105400002E420FD00A4D05EBC30300275E685318E8
:1054100037601B7E063105EBC30502EB81026B682A
:1054200052681A600472E4E701242146E5E700BFF0
:10543000246901004268837A134493F830308B4228
:1054400009D0F0B492F830408C4205D092F8314047
:105450008C421BD0F0BC704700242146166855686A
:1054600036682E4210D00B4D05EBC30300275E6853
:105470005318376093F830300C3105EBC30502EB5D
:1054800081026B6852681A608472E3E70124214646
:10549000E4E700BF2469010038B590F90230002B21
:1054A000044612DBA56805F1240001F0FDF928B9D6
:1054B000637843F001036370002038BD05F50C707C
:1054C00001F0F2F90028F3D038BD8068A1692430DA
:1054D000012201F0A3F90028EAD0A38803F00F030A
:1054E0005B01C518E4D0C35CE52BE1D023780B4AFF
:1054F0001B0744BFE369EB61236A12686B831B0CD3
:10550000AB8232B105F1160105F1180090472B8BE3
:105510006B82A37803F07F03A370C3E7405300209E
:105520002DE9F041037803F020032BB903F0FF04C9
:105530004269204B9A4203D900263046BDE8F081EB
:1055400083780169054663F07F038068AB7005F1DD
:10555000100201F01DFB06460028EDD02969A8685D
:1055600001F0CAF90746A86839462430052201F03F
:1055700055F980460028DFD04FF40072214609F02B
:1055800065FFAB681A79012A0FD9012403E0AB68E3
:105590001A79A24209D9E1191868424602F040F886
:1055A0000134E4B20028F2D1C6E76B6903EB422272
:1055B0006A61C2E7FFFD1F0038B5037804461BB9D6
:1055C00000232370012038BD90F90230002B14DB3A
:1055D000A56805F1240001F067F938B9637843F054
:1055E0000103637000232370002038BD05F50C70A3
:1055F00001F05AF90028F1D0E2E78068A16924306F
:10560000012201F00BF90028E8D0A38803F00F0372
:105610005B01C518E2D0C35CE52BDFD023780B4AD1
:105620001B0744BFE369EB61236A12686B831B0CA1
:10563000AB8232B105F1160105F1180090472B8BB2
:105640006B82A37803F07F03A370C1E7405300206F
:105650002DE9F0470D7815F0700F88B003D10020C8
:1056600008B0BDE8F087C32304460D4600F07EFE77
:105670000028F4D05D4B6269012610219A42A67081
:105680002170ECD881236218A3702169A06801F011
:105690007FFA0028E3D02169A06801F02DF90746C0
:1056A000A06839462430052201F0B8F88046002869
:1056B000D5D04FF40072002109F0C8FE08E0F119BE
:1056C0000068424601F0ACFF0136F6B20028C6D0B1
:1056D000A0680279B242F2D863692178266926620D
:1056E00003EB42236361002974D124300122A169B4
:1056F00001F094F80028B2D0A68806F00F0610EB4F
:105700004616ACD01023F372B26830687168F36843
:10571000B6F81490B6F81AA06F460FC730697169D1
:10572000B269F36908AE0FC74FF02E084FF020336F
:10573000216AA06806F8208DCDF80530CDF801303B
:10574000ADF8093001F0D8F8A3680146012203F151
:10575000240001F063F88646002880D03746ADF873
:105760001490ADF81AA00FCFCEF80000CEF80410B8
:10577000CEF80820CEF80C300FCFCEF81000CEF8BF
:105780001410CEF81820CEF81C302B6A8DF801804A
:105790001A0C3546ADF81A30ADF814200FCD0EF1C5
:1057A0002006CEF820007160B260F3600FCD30614A
:1057B0007161B261F361A46804F1240001F074F82E
:1057C00000283FF44CAF04F50C7008B0BDE8F0477A
:1057D00001F06AB813B10023236163612046FFF72B
:1057E0005BFE00283FF43BAFA0687EE7FFFD1F0093
:1057F0002DE9F041064692B03478019200208DF8F0
:1058000024008DF8250024B90D46097811F0700F99
:1058100003D1002012B0BDE8F081144612782F2A7F
:105820002DD00DF1040803AF002B53D0424639466A
:10583000204600F0F5FB3A46294601230028E8D02F
:10584000019C24783046002C61D000F08FFD3A4650
:10585000294620B93046FFF7FBFE0028D9D035464F
:105860000FCD09AC0FC40FCD0FC433782A68226066
:10587000002B48D100233370019C09ADD6E70134D9
:10588000019422782F2AFAD0AD680093242209A827
:10589000002109F0DBFD0B95EA79009B102A3ED030
:1058A000202AB6D140228DF82420012209AD8DF89E
:1058B00026200DF1040803AF63B1B7E70FCD0FC485
:1058C0000FCD0FC433782A682260C3B90023019C2E
:1058D000337009AD42463946204600F0A1FB3A46F6
:1058E00029460123002894D0019C2478304674B1C5
:1058F00000F03CFD354609AC00288AD0DEE7304692
:10590000FFF7CAFDE2E73046FFF7C6FDB2E73A46C9
:1059100029463046FFF79CFE12B0BDE8F0812022F8
:105920008DF82420C1E700BF2DE9F041064692B072
:105930003478019200208DF824008DF825002CB9D0
:105940001F460B7813F0700F0D4603D1002012B0E4
:10595000BDE8F08113782F2B144624D10134019433
:1059600094F80080B8F12F0FF8D0B8F1000F45D0AF
:10597000AD6809A82422002109F068FD0B95EB7998
:10598000102B37D0202BE1D140238DF82430012378
:1059900009AD8DF8263006E03046FFF77DFD002387
:1059A000019C337009AD01AA03A9204600F038FB21
:1059B00003AA294601230028C8D0019C2478304638
:1059C0007CB100F0D3FC354609AC0028BED00FCD29
:1059D0000FC40FCD0FC433782A682260002BDED0AD
:1059E000DAE73B4603AA2946304600F0BFFC12B076
:1059F000BDE8F08120238DF82430C8E7AC6824226C
:105A00004146304609F022FDB460E379102B06D000
:105A1000202B07D1402333700120B07097E720235B
:105A20003370F9E7404692E770B504780CB1002076
:105A300070BD05460E462422214609F007FDAE60E2
:105A4000F379102B09D0202B05D1012440232B7092
:105A5000AC70204670BD204670BD012420232B7001
:105A6000AC70204670BD00BF2DE9F04F0F460178A5
:105A700083B0054611B18378DC0708D46B784FF00A
:105A8000FF3043F002036B7003B0BDE8F08F0B07EB
:105A9000914600F18580880608D5AA686B6912894D
:105AA000C3EB42139BB2994528BF9946B9F1000F49
:105AB00000F094806B698A064E464FF0000805F1AD
:105AC000100AC3F3080B3DD5AA68116A01EB5321F4
:105AD000BBF1000F50D1B6F5007F4DD3D36A994288
