:1000000000800020BD01000079AE000031AE00008C
:1000100031AE000031AE000031AE000031AE000064
:1000200031AE000031AE000031AE000079AE00000C
:1000300079AE000031AE0000E5C9000035CC00000B
:1000400079AE000079AE000079AE000079AE000014
:1000500079AE000079AE000079AE000079AE000004
:1000600079AE000079AE000079AE000079AE0000F4
:1000700079AE000079AE000079AE000079AE0000E4
:1000800079AE000079AE000079AE000079AE0000D4
:1000900079AE000079AE000079AE000079AE0000C4
:1000A000154F000079AE000079AE000079AE000077
:1000B00079AE000079AE000079AE000079AE0000A4
:1000C00079AE000079AE000079AE000079AE000094
:1000D00079AE000079AE000079AE000079AE000084
:1000E00079AE000079AE000079AE000079AE000074
:1000F00079AE000005D3000079AE000031D40000D5
:1001000079AE00005DD5000079AE000079AE000048
:1001100079AE000079AE000079AE000079AE000043
:1001200079AE000079AE000079AE000079AE000033
:1001300079AE000079AE000079AE000079AE000023
:1001400079AE000079AE000079AE000079AE000013
:1001500079AE000079AE000079AE000079AE000003
:1001600079AE0000DDB5000079AE000079AE000088
:1001700079AE000079AE000079AE000079AE0000E3
:1001800079AE000079AE000079AE000079AE0000D3
:1001900079AE000079AE000079AE000079AE0000C3
:1001A00079AE000079AE000079AE000079AE0000B3
:1001B00079AE000079AE000071C70000564B4CF2DA
:1001C000205210B51A804DF628121A8000BF00BFC9
:1001D00000F058FB514B4FF010621A60504A9A6081
:1001E000504ADA60504A136813F4807304D14F49BF
:1001F0000B604FF4A85313604D4B1A78110703D5C9
:100200001A7842F008021A704A4B4B492A221A7097
:100210004A4A4B4B8B4204D252F8040F43F8040B6A
:10022000F8E7484B484900228B4202D243F8042B9E
:10023000FAE74649464A002352F8230041F82300D2
:1002400001336F2BF8D1434B434A802103F8011B44
:100250009342FBD1414B3D4A1A60414B8A221A70AE
:10026000A3F5805324225A70A0221A709A7992071B
:10027000FCD59A79D406FCD43A4A937903F00C035E
:10028000082B384BF9D105221A7143225A719A79F9
:100290009006FCD5334A9179324B4906FBD5324A58
:1002A0004FF0817111600521516020221A709A79F6
:1002B00002F00C020C2AFAD12C4B2D4A1A602D4B5D
:1002C0002D4A1A6000225A60072243F8042C2B4A58
:1002D000C3F80C2D62B60AF0F1FE144B1B68DA0766
:1002E00005D527480AF0D8FE264B274A1A60274B27
:1002F0001B785B0609D5234C234B22689A4204D114
:100300001F480AF0C9FE002323600EF0F3FC0AF038
:10031000B7FD0CF055FFFEE70E200540308004408D
:10032000823F04000100002B10D0034014D0034092
:1003300002D0074000E00740E0090020986F01006C
:1003400020F9FF1FE0090020D456002000F4FF1F11
:100350000000000000E400E05FE400E008ED00E0E1
:1003600000500640004006404480044004800440A1
:10037000C010050014E000E03F190100000020203B
:10038000EA4AB05C1CE00340A5C3945A00F0074061
:10039000FFFFFFFFFFFFFFFFFFFFFFFFFFFFFFFF6D
:1003A000FFFFFFFFFFFFFFFFFFFFFFFFFFFFFFFF5D
:1003B000FFFFFFFFFFFFFFFFFFFFFFFFFFFFFFFF4D
:1003C000FFFFFFFFFFFFFFFFFFFFFFFFFFFFFFFF3D
:1003D000FFFFFFFFFFFFFFFFFFFFFFFFFFFFFFFF2D
:1003E000FFFFFFFFFFFFFFFFFFFFFFFFFFFFFFFF1D
:1003F000FFFFFFFFFFFFFFFFFFFFFFFFFFFFFFFF0D
:10040000FFFFFFFFFFFFFFFFFFFFFFFFDEF9FFFF23
:1004100010B5054C237833B9044B13B10448AFF33E
:1004200000800123237010BDE009002000000000BF
:10043000946F0100084B10B51BB108490848AFF391
:1004400000800848036803B910BD074B002BFBD0A0
:10045000BDE81040184700BF00000000E40900207C
:10046000946F0100E00900200000000000207047A8
:10047000704700BF027C02F0080202F0FF0332B1B5
:10048000C36A406A181A48BF6FF0004070471846A8
:10049000704700BFF8B55548554D564C297803783C
:1004A0002278DFF868E1544F544E120442EA0323E5
:1004B000FF222A700270802022708EF800003870AF
:1004C000B2794F480B4312F00C0FC36002D1B379DD
:1004D000DC063DD4494A9379C3F38103032B40D012
:1004E000464B9A79C2F38102022A42D0434A937959
:1004F000C3F38103022B53D0404A9379C3F38103A2
:10050000022B61D03D4A9379C3F38103012B51D073
:100510003A4A9379C3F38103012B5CD0374B9A7924
:1005200012F00C0F03D19A79D20600D49B79354D85
:10053000354B2A7853F82240D4B1236820469B6873
:1005400098472B7804EB83046468002CF5D1F8BD40
:10055000B3799806EBD5294A9379C3F38103032B2A
:10056000BED19379D906BBD493799B06DFD4B7E784
:10057000F8BD9A79D706B9D49A799606B6D559783E
:1005800001F0020101F0FF020029AFD120211A7011
:100590001A461970937903F00C030C2BFAD1C6E7B5
:1005A0009379DD06A8D493799C06A5D4537898074F
:1005B000BDD5A1E79379DF06AAD593799E06A7D486
:1005C00053789D07B3D4A3E79379D9069AD4537887
:1005D0009B07ACD496E79379DC069FD59379980670
:1005E0009CD453789907A2D598E700BF06C007406E
:1005F00005C0074007C0074009C00740004006404B
:10060000AC560020845300204453002008C007400B
:1006100090F92410104B03604B1C06D0F0B40F4E21
:1006200056F82130984201D0F0BC70470C4F57F873
:10063000213033B18D0000245A1953685460002BC7
:10064000FAD1084C23780022013B237047F821207F
:1006500046F82120E8E700BF8C5F010064530020CA
:10066000445300208553002038B590F924506B1C6A
:100670001BD00E4B0E4953F825400E4BEDB24FF0F8
:10068000FF320D701A6084B1AD0002E02C44646842
:100690005CB194F82530002BF8D0236820462C4418
:1006A0001B6898476468002CF3D138BD4453002080
:1006B00084530020B8F3FF1F704700BF90F9241047
:1006C000104B03604B1C06D0F0B40F4E56F821308F
:1006D000984201D0F0BC70470C4F57F8213033B12D
:1006E0008D0000245A1953685460002BFAD1084C2D
:1006F00023780022013B237047F8212046F821206F
:10070000E8E700BF8C5F01006453002044530020E1
:100710008553002090F92410104B03604B1C06D029
:10072000F0B40F4E56F82130984201D0F0BC70471B
:100730000C4F57F8213033B18D0000245A195368FB
:100740005460002BFAD1084C23780022013B23701F
:1007500047F8212046F82120E8E700BF8C5F010020
:1007600064530020445300208553002010B500211D
:1007700004460BF0C1FFB0B1B4F8B4319BB2C3B1C1
:10078000B4F8B031B4F8B2219BB20133632BC8BFC7
:10079000002392B2934207D09A1D04EB82029BB2CF
:1007A0005060A4F8B03110BDD4F8B8310133C4F8AA
:1007B000B831BDE810400BF05BBF00BF103005F052
:1007C00099BB00BF00B583B002AB012203F8011D45
:1007D0001030194605F08EFB03B05DF804FB00BF36
:1007E000103005F063BA00BF00B583B001220DF1EF
:1007F0000701103005F094F901280CBF9DF807009F
:100800004FF0FF3003B05DF804FB00BF103005F07F
:1008100023BB00BF2DE9F0410E4680460AF036FCAE
:10082000174D286007F0FEFD0746286807F0D6FD43
:100830000446286807F0C0FD6401C0B204F4FF5408
:10084000BFB20443A7F2BC7744EA4724A8F80040AB
:10085000286807F0D5FD0746286807F089FD04469B
:10086000286807F097FDFF02640107F4FF2704F4EE
:10087000FF54C0F346003C4304433480BDE8F0819C
:10088000E44E0020464A474B102010801B781B077F
:1008900034D5F0B5444E454D454C31782B7822780F
:1008A000DFF82CE1434F824042EA03230B43FF224F
:1008B000802132702A7022708EF800103970D907AA
:1008C0003D4A14D51A2393603C4F3D4E3D4D3E4C5E
:1008D0003E49107900233B7053709370D370D360FE
:1008E000337013712B70237013700870F0BD1F07E5
:1008F00005D4DE0606D504239360E5E7704721237F
:100900009360E1E79D0604D45C0604D5162393604A
:10091000DAE79060D8E7180602D509239360D3E799
:10092000D90502D50A239360CEE79F0502D50D2392
:100930009360C9E75E0502D50B239360C4E71D05EC
:1009400002D51E239360BFE7DC0402D50223936027
:10095000BAE7980402D507239360B5E7590402D596
:1009600006239360B0E71F0402D515239360ABE71D
:10097000DE0302D524239360A6E79D0302D522233C
:100980009360A1E7DC0202D5252393609CE718035E
:10099000F5D45903F3D49B0244BF2323936093E718
:1009A0000020054002D0074005C0074006C00740B0
:1009B00007C0074009C00740AC56002000C00740F0
:1009C00001C0074002C0074003C0074004C0074001
:1009D00008C00740002976D02DE9F04F0C46910061
:1009E000631883B05D68002D57D06B185E68002EC9
:1009F00050D073185F68002F49D07B18D3F804805B
:100A0000B8F1000F3CD008EB0103D3F80490B9F122
:100A1000000F32D009EB0103D3F804A0BAF1000FA4
:100A200027D00AEB0103D3F804B0BBF1000F18D0B4
:100A30000BEB01035B6863B1194401934968FFF74D
:100A4000C9FF019B93F825201AB11A68184653680C
:100A500098479BF8253023B1DBF8003058465B6897
:100A600098479AF8253023B1DAF8003050465B6891
:100A7000984799F82530002B35D198F8253063BB7D
:100A800097F825301BB13B6838465B68984796F865
:100A90002530CBB995F8253063B994F8253013B9D2
:100AA00003B0BDE8F08F23685B68204603B0BDE863
:100AB000F04F18472B6828465B68984794F8253014
:100AC000002BEDD0EFE77047336830465B689847FE
:100AD00095F82530002BE0D0ECE7D8F80030404600
:100AE0005B689847CCE7D9F8003048465B68984780
:100AF000C3E700BF90F92420531C26D01B4B2DE9DF
:100B0000F04153F82240D2B2ECB19300E1184D68A5
:100B1000B5B1E9184E6866B1F1184F6837B13B447A
:100B20005968FFF757FF97F82530A3B996F8253095
:100B300063B995F825301BB12B6828465B68984748
:100B400094F8253063B9BDE8F081704733683046CA
:100B50005B689847EDE73B6838465B689847E5E790
:100B6000236820465B68BDE8F041184744530020E5
:100B70002DE9F8434F4CB4F8B021B4F8B23192B239
:100B80009BB29A4238BF6432D31A3F2B67DD4A4D7D
:100B9000D4F8AC91DFF81C8105F58047002637E0DA
:100BA0004FF48072002109F089FD48460BF060FD8A
:100BB000C4F8AC61B4F8B231B4F8B0219BB292B2CF
:100BC00093424ED00133632B86BF4FF0000E734625
:100BD0001FFA83FE063304EB83034FF48072D3F8CD
:100BE0000490C4F8AC9109F104012846A4F8B2E1DC
:100BF00009F064FDB9F1000F04D048460BF038FD50
:100C0000C8F8AC6105F50075BD424FF0000934D05D
:100C1000A5F58070B9F1000FC2D1B4F8B231B4F8C3
:100C2000B0219BB292B293423DD00133632B86BF79
:100C3000CE4673461FFA83FE063304EB83034FF45C
:100C40008072D3F80490C4F8AC9109F10401A4F8BF
:100C5000B2E109F033FDB9F1000FABD0A5E7BDE873
:100C6000F88328464FF48072002105F5007509F0DD
:100C700025FDBD424FF00009CAD14FF480420F4913
:100C80000F4805F037F9013005D00E4A13682033BC
:100C90001360BDE8F883012114200AF063F80A4BC1
:100CA0000A4A1A60F1E749464FF4807209F006FDDE
:100CB00080E700BFF84E0020680B0020680A002083
:100CC0003C0A0020F44E00200CED00E00400FA0580
:100CD00008B50849084A094B0988118008480022CC
:100CE000A3F8B42104F0C4FC6420BDE808400AF075
:100CF0004BBB00BFC45400209C540020F84E002081
:100D00003C0A00202DE9F04F95B00AF0BFF9DFF85A
:100D10002893B84CC9F8000007F060FB236898429C
:100D200000F05882D9F80000B34EB44F07F056FBDC
:100D30002060D9F8000007F075FB2368B04902462F
:100D4000B0480EF037FE00240123AE4AAE493760AA
:100D500007A88DF81C408DF81D4004F0A5FDDFF8B4
:100D6000A482002115200AF0D3FA98F8002000236D
:100D70002F2A8DF81C308DF81D3000F0B48107AC9F
:100D8000204601239F4AA04904F02AFE58B19DF84D
:100D90001C3013F0700F06D00FCC9B4D0FC50FCC3D
:100DA0000FC523682B60D9F8000007F03BFB044611
:100DB000D9F8000007F012FB8246D9F8000007F0CE
:100DC000FBFA0590D9F8000007F01AFB8346D9F822
:100DD000000007F0CDFA0490D9F8000007F0DAFA25
:100DE000059A049B0092039002932246CDF804B02A
:100DF0005346864986480EF0DDFD002508243760FD
:100E0000152009F093FE0DF055FB4FF06A510DF0DF
:100E1000A5FB014628460DF099FA013C0546EFD1A5
:100E20007948DFF8189204F023FC7A4901F23C403B
:100E300004F056FE4FF47A7646230BA8764A7249A0
:100E40008DF82C408DF82D408DF820408DF82840ED
:100E50000996CDF81C9004F0C3FD9DF82C30002BB2
:100E600040F04F810121142009F07CFF6B4B6C4A4C
:100E70001A6098F80020634900232F2A8DF81C304F
:100E80008DF81D3000F0228107A801235D4A5E49DC
:100E900004F0A6FD60B19DF81C3013F0700F07D070
:100EA00007AC0FCC584D0FC50FCC0FC523682B6076
:100EB0004FF47A7500240995C223554A52498DF89A
:100EC0002C400BA80BAD8DF82D408DF820408DF8EF
:100ED0002840CDF81C9004F083FD0FCD514E9DF8B5
:100EE0002040347106F110040FC40FCD0FC4099ACD
:100EF0009DF828302968B2603373454821600EF0B0
:100F0000BFFD01464248484FDFF810B1DFF810A19D
:100F10000BF0D6F945480BF023FF46E004F060FDE6
:100F200060B19DF81C30384D13F0700F07AC05D040
:100F30000FCC0FC50FCC0FC523682B604FF47A750B
:100F40000024C223324A304909950BA80BAD8DF815
:100F50002C408DF82D408DF820408DF82840CDF89C
:100F60001C9004F03DFD0FCD314C9DF820E086F83B
:100F700004E00FC40FCD0FC49DF82830099A3373D5
:100F80002968B260224821600EF07AFD01462048AF
:100F90000BF096F925480BF0E3FE0A200AF0F4F96D
:100FA0003B68B3F57A7F00F38A80347C2149184886
:100FB000002C45D13B6801331A463B600EF0FAFC29
:100FC00098F800500F4A10498DF81C402F2D4FF013
:100FD000010307A88DF81D40A0D15478002C9DD1A5
:100FE000084604F045FB0B4901F23C4004F078FD53
:100FF000A4E700BF0C520020405300201508000059
:10100000B05F0100B8500020A84E0020BC5F010076
:10101000745100206C4A0020DC5F01000CED00E000
:101020000400FA052C0A0020B450002080FFFF1FA6
:101030003C0A002010600100E44E0020685F0100BF
:101040007E487F4907687F4C7F4A804B804D03C9AB
:10105000206092E80300A06093E8030010260123BB
:10106000A382E382E060266138460DF063FC3946D6
:10107000A06138460DF06AF90DF05CFC754AE0613C
:101080002B68668492E803005B0203F124062C229D
:101090006062214602277048A3622784666004F0DC
:1010A00029FF09216D480BF00BF929686C480BF0FA
:1010B000DDFD6B480BF054FE15B0BDE8F08F01214B
:1010C000142009F04FFECBF800A06EE74B78002B00
:1010D0007FF4DAAE634804F0CBFA634901F23C4096
:1010E00004F0FEFCE4E698F80130002B7FF447AEF4
:1010F0005C4804F0BDFA5C4901F23C4004F0F0FCAD
:1011000051E65A485A4E0EF0BBFC584902460BA80D
:1011100004F0F0FE14A92C2301F8383D01220DEB58
:10112000030004F0E7FE06F1080707AC16F8011FFC
:1011300000230A2220460BF063FEB742F6D1284670
:101140004C490DF00BFA4FF078510DF007FA14A945
:101150002C250646012201F8355D0DEB050004F053
:10116000C9FE454B18680CF04FFD02270B4602469E
:10117000009720460BF0A0FE14A9012201F8365D6D
:101180000DEB050004F0B6FE30460CF03DFD009777
:101190000B46024620460BF08FFE14A9012201F8EF
:1011A000375D0DEB050004F0A5FE34480EF068FC39
:1011B000324902460DEB050004F09CFE20460BF080
:1011C000CFFD30462E490DF067FB30B90BA804F077
:1011D0004FFA4EE62B4E2C4FC1E528222B490DEB42
:1011E000050004F087FE20460BF0BAFD0DEB05006C
:1011F00004F03EFA00250824152009F097FC0DF0B4
:1012000059F94FF06A510DF0A9F9014628460DF041
:101210009DF8013C0546EFD116490DF09FF94FF0BE
:1012200078510DF09BF916490DF036FB0028CDD012
:1012300047F230500AF0A8F8DCE700BFF451002074
:101240001C60010050520020246001002C6001004D
:10125000D4510020346001003C0A00203C600100B1
:1012600080FFFF1FA84E00206C4A00207451002010
:1012700033510020CDCCBC404451002008FAFF1F60
:10128000000040404053002015080000E45F0100CA
:1012900038B5154DFFF736FD144BD5F8AC010024D9
:1012A0001C6018B10BF0E4F9C5F8AC41B5F8B241D7
:1012B000B5F8B031A4B29BB29C420ED00134642C7C
:1012C00028BF0024A31D05EB830358680BF0D0F959
:1012D000B5F8B0319BB2A342F0D1A4B20123A5F876
:1012E000B241A5F8B43138BDF84E0020F44E0020CC
:1012F000264B1B680F2B0CD8DFE803F00C101418DA
:101300001C2024282C3034383C404408204B214AEF
:101310001A6070471E4B204A1A6070471C4B1F4AC8
:101320001A6070471A4B1E4A1A607047184B1D4AC4
:101330001A607047164B1C4A1A607047144B1B4AC0
:101340001A607047124B1A4A1A607047104B194ABC
:101350001A6070470E4B184A1A6070470C4B174AB8
:101360001A6070470A4B164A1A607047084B154AB4
:101370001A607047064B144A1A607047044B134AB0
:101380001A607047024B124A1A60704700FAFF1F3A
:1013900044510020BD549341103377C0993918C08F
:1013A000BE0D68BFCE71153F8D090340CCC96240A8
:1013B00009A7A3407DDBD140C416014154FC17416D
:1013C000D0E83041195546419FAB5F41A04176417D
:1013D0005E2E86412DE9F0438FB004460EF050FB9F
:1013E00000B201281CDDB4F9003044F2537293427C
:1013F00000F0878118DD44F65452934200F0D58006
:1014000045F2532293422AD044F65212934207D116
:101410000BAAE01CC4490EF0F3FAC44B0B9A1A60F5
:1014200001200FB0BDE8F08344F24E4293420FD04A
:1014300044F252429342F3D10BAAE01CBA490EF097
:10144000DFFABB4B0B9A1A6001200FB0BDE8F083A6
:10145000B84B012201201A600FB0BDE8F0830AAD3D
:1014600009A908AA05ABE01C03950291019200931B
:1014700007AA06ABB0490EF0C3FAB04B079D5968F6
:1014800018689A680A9EDDF824E0DDF820C0A5F50A
:10149000FA65ADB20BAF2CB207C7069F05991E3493
:1014A00015F0030F4FEAA408FDB240F05C81A44B95
:1014B000022D8CBF1F460027A248A34BC8EB040493
:1014C00000FB08F06A1E03FB0400002A00EB070380
:1014D00047DD9DF82C409A48012A00FB043340D098
:1014E0009DF82D40022A00FB04333AD09DF82E408F
:1014F000032A00FB043334D09DF82F40042A00FB5C
:1015000004332ED09DF83040052A00FB043328D048
:101510009DF83140062A00FB043322D09DF832406A
:10152000072A00FB04331CD09DF83340082A00FB37
:10153000043316D09DF83440092A00FB043310D040
:101540009DF835400A2A00FB04330AD00B2A9DF887
:10155000364018BF9DF8372000FB043318BF00FB4E
:1015600002335FFA8EF2C2EB02125FFA8CF04FF494
:101570006164920004FB0022714D744C7448C9B23E
:10158000013952FA86F205FB01221344122123602D
:101590000AF096FE21686F480BF068FB6D480BF06F
:1015A000DFFB01200FB0BDE8F0830AAD09A908AA4E
:1015B00005ABE01C039502910192009307AA06ABCC
:1015C0005D490EF01DFA5D4B079F9A6818685968CF
:1015D0000A9EDDF824E0DDF820C0A7F5FA67BFB267
:1015E0000BAC3DB207C4069A059C1E3517F0030FDD
:1015F0004FEAA508D7B240F0B380514B022F8CBF01
:1016000099464FF000094F494F4BC8EB050501FBC8
:1016100008F17A1E03FB0510002A00EB090347DDE1
:101620009DF82C004649012A01FB003340D09DF86B
:101630002D00022A01FB00333AD09DF82E00032A28
:1016400001FB003334D09DF82F00042A01FB003346
:101650002ED09DF83000052A01FB003328D09DF8DC
:101660003100062A01FB003322D09DF83200072A00
:1016700001FB00331CD09DF83300082A01FB003326
:1016800016D09DF83400092A01FB003310D09DF8D4
:1016900035000A2A01FB00330AD00B2A9DF83600D8
:1016A00018BF9DF8372001FB003318BF01FB023340
:1016B0005FFA8EF2C2EB02125FFA8CF04FF46165B2
:1016C000920005FB0022E1B21D4C204D52FA86F239
:1016D000013904FB01241C4420462C6009F0DCFC89
:1016E0000B211D480AF0ECFD214600230A2219486F
:1016F0000BF086FB17480BF033FB01200FB0BDE861
:10170000F083E01C0BAA08490EF07AF90B9B0F2B13
:101710002BD9124B042119600E2009F023FB012064
:101720000FB0BDE8F08300BF9460010040FAFF1FD6
:1017300034FAFF1F640A002074600100985F010002
:10174000805101000085E2018033E101EC4E002070
:101750009860010080FFFF1F8860010000FAFF1FF2
:101760004FF000094FE70027A6E6024AD9B21360FE
:10177000D2E700BF00FAFF1F2DE9F043A3B0002518
:101780004FF47A76764F77480A968DF830508DF878
:1017900031508DF824508DF82C50089703F068FFD5
:1017A000714901F23C4004F09BF901236F4A6D49F5
:1017B000179619A88DF864508DF865508DF858501B
:1017C0008DF86050159704F00BF90DF1640EBEE82A
:1017D0000F000CAE0FC6BEE80F000FC69DF830809C
:1017E000DEF800109DF85800179A9DF860303160BF
:1017F0008DF824000A928DF82C30B8F1000F46D0F5
:101800002E468DF800604FF000094FF0FF080122CE
:1018100015A90CA804F084F909F1010322AA0128F2
:101820004A441BB224D01D2B02F8888C05DC994653
:10183000EDE71D2B01DC0A2AF9D1013B9BB222AA5C
:101840001A4402F8886C9DF800202F2A04D0012B3E
:1018500002D96846FFF7BEFD9DF830301B0711D452
:101860000CA803F005FF2DBB012023B0BDE8F083D9
:101870009DF854200D2A08BF4B4662D11D2BDCDC9D
:101880009946C4E7139A119B9A42BAD1E8E714210A
:1018900037480AF015FD37480BF062FA0D22364939
:1018A00036480BF0CFF935480BF05AFA404623B0D2
:1018B000BDE8F0830B2132480AF002FD00230A2222
:1018C00021462C480BF09CFA2A480BF049FA25488F
:1018D00003F0CEFE2449002501F23C4004F000F95B
:1018E0004FF47A768DF864508DF865508DF8585025
:1018F0008DF8605063231D4A1A49179619A819AD2F
:10190000159704F06DF80FCD0CAE0FC60FCD0FC6B6
:101910002968179A9DF860309DF8585031600CA8DE
:1019200021460A928DF82C308DF8245004F0F2F9FB
:10193000022214490CA804F0DDFA0CA803F098FE6A
:1019400092E722AB03EB0901542A09F1010301F8E4
:10195000882C1BB27FF46DAF119C0546013C8DE7CE
:10196000685F0100A84E00206C4A0020AC600100B6
:10197000C860010080FFFF1FE06001009C51002053
:10198000B8600100C46001002DE9F04383B009F0A4
:101990007DFB7E4B7E4D186001217E487E4C7F4F43
:1019A0007F4EDFF84C92DFF84C8207F0C5FC012136
:1019B000784807F0C7FC12220021764807F0B8FCEF
:1019C0000422784973480BF03DF9296871480BF0FF
:1019D0004DF9022274496F480BF034F96D480BF051
:1019E000BFF9062271496B480BF02CF92168694850
:1019F0000BF03CF903226E4966480BF023F9654869
:101A00000BF0AEF93B6856F823000CF053FD694922
:101A10000CF058FE0CF0F8F80B46024666495D489B
:101A20000BF0E0F9012265495A480BF00BF9644BC1
:101A300018680CF0E9F80B460246624955480BF06D
:101A4000D1F90722604953480BF0FCF801215148B5
:101A500007F072FC2D683B68284656F823700CF09E
:101A600029FD0646206828440CF024FD0146304636
:101A70000CF028FE014604464FF07E500CF064FC4A
:101A8000524B19680CF06AFD514B06461968204606
:101A90000CF064FD014630460CF058FC0146D9F8C4
:101AA00000000CF00FFE4B490CF058FD0CF042FF0B
:101AB000494B064618680023C8F8003000284ED06D
:101AC0000CF0F4FC8146680007FB00F02C300CF0B1
:101AD000F1FC4FF08E410CF039FC36490CF0F2FD70
:101AE00034490CF0EFFD014648460CF0EBFD0CF0DC
:101AF0008BF80BF09DFE0CF0B3FB034600FB05F0EA
:101B0000C8F800300CF0D2FC21460CF0DBFD044696
:101B100030460CF0CBFC014620460CF0DBFE00BB4F
:101B200001462E221B4807F003FC0D222B491948C1
:101B30000BF088F820462A490CF0C4FD0CF064F83C
:101B4000022402460B46009412480BF0B5F92549D1
:101B50001048012203B0BDE8F0430BF073B8002039
:101B6000D2E72E2200210B4807F0E2FB0E221E498D
:101B700008480BF067F81D490648A1FB0631090C1F
:101B800000230A220BF03CF9E1E700BFE44E0020FD
:101B900034FAFF1F9C51002040FAFF1F30FAFF1F4C
:101BA00014FAFF1FF0600100F8600100FC60010002
:101BB0000461010000007A440861010094610100A1
:101BC00044510020F46101001461010038FAFF1F44
:101BD00044FAFF1F000061454C5200202C610100B7
:101BE00000C0A847846001001C61010007452EC2A7
:101BF0003CFAFF1F0052002038B5054606F012FCE3
:101C00001E4C014620460BF031F82D200AF02CFC2A
:101C1000284606F0E3FB014620460BF027F82D206E
:101C20000AF022FC284606F0C7FB014620460BF0CE
:101C30001DF8012112480AF043FB284606F0E0FB9C
:101C4000014620460BF012F83A200AF00DFC284617
:101C500006F08EFB014620460BF008F83A200AF009
:101C600003FC284606F096FB014620460AF0FEFFDC
:101C70002046BDE838400BF073B800BF80FFFF1F5F
:101C80009461010010B5002009F016F8234C207073
:101C9000012009F011F86070022009F00DF8A07021
:101CA000032009F009F81E4BE07022681A60042036
:101CB00009F002F82070052008F0FEFF6070062091
:101CC00008F0FAFFA070072008F0F6FF154BE0704F
:101CD00022681A60082008F0EFFF134B18700920E3
:101CE00008F0EAFF114B18700A2008F0E5FF104BCE
:101CF00018700B2008F0E0FF0E4B18700C2008F055
:101D0000DBFF0D4B18600D2008F0D6FF0B4B186061
:101D10000E2008F0D1FF0A4B186010BD485100207A
:101D200034FAFF1F40FAFF1F280A00204452002007
:101D300070510020F04E0020D851002030FAFF1FD3
:101D400000FAFF1F264B10B51968264C00202160B1
:101D5000C9B209F007F86178012009F003F8A17809
:101D6000022008F0FFFFE178032008F0FBFF1E4B84
:101D7000196821600420C9B208F0F4FF61780520D9
:101D800008F0F0FFA178062008F0ECFFE1780720CA
:101D900008F0E8FF154B0820197808F0E3FF144B12
:101DA0000920197808F0DEFF124B0A20197808F094
:101DB000D9FF114B0B20197808F0D4FF0F4B0C20E2
:101DC000197808F0CFFF0E4B0D20197808F0CAFFE4
:101DD0000C4B0E201978BDE8104008F0C3BF00BFBF
:101DE00034FAFF1F4851002040FAFF1F280A002044
:101DF0004452002070510020F04E0020D8510020A5
:101E000030FAFF1F00FAFF1F2DE9F04F102983B0B1
:101E10000C4606467FD0202976D04FF0000A5FFAA4
:101E20008AFA4AF0E0630021009301204AF08E43D1
:101E300001930CF055FB01463A480CF043FC074671
:101E400020460CF033FB01460CF080FA0446304685
:101E50000CF02CFB014620460CF080FB0146384676
:101E60000CF030FC4FF001084FF07E550746C1469C
:101E70004FF0010A4FF0000B50460CF01BFB3946A7
:101E80000CF06CFB04460CF02FFD0CF013FB01462C
:101E900020460CF059FA294606460CF0FDFC4FF09E
:101EA000874148B120460CF0F7FC28B120460CF0E1
:101EB00061FD35468046D1461AF1010A4BF1000B0F
:101EC000BBF1000F08BFBAF1400FD5D11649174C2E
:101ED0000D681748174E09F1FF3208F1FF3312035E
:101EE00002F47F22C3F30B03134325F010420A6070
:101EF0002360009B0360019B33600B6843F0104339
:101F00000B6003B0BDE8F08F0B4B019303F140432E
:101F10000A4F009394E70A4B019303F14043094FA2
:101F200000938DE74054094C80F0024004F10240D8
:101F300008F0024088F00240010000474054894BFD
:101F4000030000474054094B2DE9F04F0546DFF8E8
:101F50007C82974E974F98F800E02E60FF2085F81E
:101F60002400DFF86C92387859F820C00023BEF1C5
:101F7000060F8DB00C4685F8253085F826309CBFBD
:101F800088F800309E46BCF1000F00F0A8808C4518
:101F90005BD06346810001E09C4256D00B445B68F5
:101FA000002BF9D1634603EB010ADAF80430002B69
:101FB000F9D105EB010BCAF80440BEF1060F4FF052
:101FC000FF044FFA80FACBF804308DF82C400296CB
:101FD0008DF82D308DF82E3085F824A0644605D874
:101FE000002388F80030002C00F0A980A24226D0FF
:101FF000234601E0934222D00B445B68002BF9D1C9
:1020000004EB010CDCF80440002CF9D1CCF80420DE
:102010000CAB19440024431CBAF1FF3F41F8244C97
:102020003B708DF82CA0029605D0634951F82A30F8
:1020300002AA934272D028460DB0BDE8F08F01305D
:10204000387028460DB0BDE8F08F0023FF21BEF1A7
:10205000060F02968DF82C108DF82D308DF82E304D
:1020600001D888F800309445E9D06346810001E04A
:102070009A42E4D00B445B68002BF9D18C44DCF825
:1020800004402CB1A4468C44DCF80440002CF9D167
:102090000CAB19444FFA80FE431CBEF1FF3FCCF855
:1020A00004203B7041F8244C02968DF82CE0C2D0FD
:1020B000414951F82E3002AA9342BCD159F82E3032
:1020C0004FEA8E0623B19A1953685460002BFAD157
:1020D0000023387049F82E3041F82E30ABE7B0B30A
:1020E0008100DFF8D4A049F8204005EB010C002363
:1020F0004AF82050BEF1060FCCF804304FFA80FAAF
:102100004FF0FF0C02968DF82D308DF82E3085F8AB
:1021100024A08DF82CC07FF663AF64E759F82A300D
:102120004FEA8A0623B19A1953685460002BFAD1FA
:102130000023387049F82A3041F82A307BE7F0B1A3
:102140001D4B49F8202002AA43F8202060E71B49D4
:102150001B480B68019243F080630B6003681949C8
:1021600023F080430360152008F0C4FE164B98F856
:1021700000E0019A4FF4001119603878B0E70F4C75
:102180000F482368019243F08063236003680D4980
:1021900023F080430360152008F0ACFE0A4B019A3F
:1021A0004FF40011196038784FFA80FA8100C7E7C0
:1021B0008C5F0100855300206453002004700440AC
:1021C000007004409504000000E100E0BCF3FF1F34
:1021D000445300202DE9F041584D594C594E08F018
:1021E00023FD4FF0FF31584807F072FE2A68266041
:1021F0000023637223612372E3600AB99AE01A46EE
:102200005369002BFBD154610027504B4C48676148
:10221000A780E780236002F06BFC4D4A4FF0010E6F
:1022200002F118013B4638461772D760166082F8F3
:1022300009E01161174600E0396941F82300517A3D
:10224000434E01339942F7DC29683C4B09B973E0EE
:1022500019464B69002BFBD14A613E4B3E491C603D
:102260000024184654619480D480A2F8B0411160D3
:10227000A2F8B2415A60C2F8AC41A2F8B441C2F827
:10228000B8411C725C72DC600AF042FA334A344B8B
:102290005069344A1A600CF00DF9334D334B344E0B
:1022A00018604FF0FF08334B334A344985F8254016
:1022B0002846012785F824802B606C63AC6385F881
:1022C0003C4085F826700CF003FD2D4B2A4A2D4921
:1022D00086F82480304686F82540336086F827400B
:1022E00086F8284086F826700CF0F2FC2A46314623
:1022F0002548264DFFF728FE1F4A254922480CF0A5
:10230000E7FC244A244B2549147464204FF47A7660
:10231000547414711473DC7183F83C4483F83D44A5
:1023200083F86A4483F8600496601560C3F86C14FF
:10233000BDE8F0812C6067E71E608EE798540020AE
:10234000545100205C5F01009C5100202463010077
:10235000F84E002018510020AC5F010014FAFF1F56
:102360002851002008630100D0500020F4510020C3
:1023700014520020CC630100FCF9FF1FBD060000D1
:10238000E063010015070000000A0020685F0100FB
:10239000110600002C0A00206C4A002000000238C0
:1023A00010B5184C0A21204602F010FF20460021EB
:1023B00002F0E4FC2046302102F0E0FC204600213F
:1023C00002F0DCFCA221204602F0D8FC204602F0FC
:1023D0000FFF20460A2102F0F9FE2046002102F0FC
:1023E000CDFC2046022102F0C9FC2046002102F06B
:1023F000C5FC2046432102F0C1FC2046BDE8104048
:1024000002F0F6BE2453002010B5184C0A212046D5
:1024100002F0DCFE2046002102F0B0FC2046302114
:1024200002F0ACFC2046002102F0A8FC002120466E
:1024300002F0A4FC204602F0DBFE20460A2102F056
:10244000C5FE2046002102F099FC2046022102F040
:1024500095FC2046002102F091FC2046002102F06C
:102460008DFC2046BDE8104002F0C2BE245300207F
:102470000238032838B504DC002880F2F4810024F7
:1024800000E00C240A21CA48CA4D02F09FFE002138
:10249000C74802F073FC3021C54802F06FFC4021B0
:1024A000C34802F06BFC6021C14802F067FCC048E1
:1024B00002F09EFE0A21BE4802F088FE0021BC48C0
:1024C00002F05CFC2621BA4802F058FC0021B84812
:1024D00002F054FC6C21B64802F050FCB44802F003
:1024E00087FE0A21B24802F071FE0021B04802F0D6
:1024F00045FC2821AE4802F041FC0121AC4802F025
:102500003DFCF021AA4802F039FCA94802F070FE17
:102510000A21A74802F05AFE0021A54802F02EFC2D
:102520002A21A34802F02AFC0021A14802F026FC3F
:1025300000219F4802F022FC9D4802F059FE0A212A
:102540009B4802F043FE0021994802F017FC2C2121
:10255000974802F013FC0F21954802F00FFC22214E
:10256000934802F00BFC924802F042FE0A21904888
:1025700002F02CFE00218E4802F000FC3C218C4829
:1025800002F0FCFB44218A4802F0F8FB462188480F
:1025900002F0F4FB864802F02BFE0A21844802F088
:1025A00015FE0021824802F0E9FB2421804802F058
:1025B000E5FB01217E4802F0E1FB37217C4802F077
:1025C000DDFB7B4802F014FE0A21794802F0FEFD93
:1025D0000021774802F0D2FB3021754802F0CEFB93
:1025E0000021734802F0CAFBA221714802F0C6FB29
:1025F0006F4802F0FDFD0A216D4802F0E7FD002161
:102600006B4802F0BBFB0221694802F0B7FB0021D6
:10261000674802F0B3FB4321654802F0AFFB644812
:1026200002F0E6FD4FF4C87008F0AEFE0A216048E3
:1026300002F0CCFD00215E4802F0A0FB2E215C4898
:1026400002F09CFB19215A4802F098FB19215848C6
:1026500002F094FB564802F0CBFD0A21544802F0E8
:10266000B5FD0021524802F089FB0421504802F0D8
:1026700085FB00214E4802F081FB21464C4802F0C8
:102680007DFB4B4802F0B4FD0A21494802F09EFD53
:102690000021474802F072FB0621454802F06EFB1C
:1026A0000121434802F06AFB3021414802F066FBF9
:1026B0003F4802F09DFD0A213D4802F087FD0021C0
:1026C0003B4802F05BFB0A21394802F057FB00212E
:1026D000374802F053FB0021354802F04FFB3448E5
:1026E00002F086FD0A21324802F070FD00213048D8
:1026F00002F044FB0E212E4802F040FB00212C4842
:1027000002F03CFB08212A4802F038FB284802F07E
:102710006FFD0A21264802F059FD0021244802F0ED
:102720002DFB1021224802F029FBFF21204802F056
:1027300025FB3C211E4802F021FB1D4802F058FDFC
:102740000A211B4802F042FD0021194802F016FB45
:102750002221174802F012FB7F21154802F00EFBE0
:102760007F21134802F00AFB114802F041FD0A21C3
:102770000F4802F02BFD01210D4802F0FFFA242141
:102780000B4802F0FBFA0021094802F0F7FA002199
:10279000074802F0F3FA064802F02AFD0A2104482D
:1027A00002F014FD0021024802F0E8FA04E000BF44
:1027B0002453002000FAFF1F24212C4802F0DEFAE7
:1027C00000212A4802F0DAFA1421284802F0D6FA49
:1027D000264802F00DFD0A21244802F0F7FC0021F2
:1027E000224802F0CBFA2A21204802F0C7FA002141
:1027F0001E4802F0C3FA00211C4802F0BFFA1B4831
:1028000002F0F6FC09211A4809F05AFD00230A22B9
:10281000296818480AF0F4FA16480AF0A1FA0A21C1
:1028200012482C6802F0D2FC0021104802F0A6FAEF
:1028300020210E4802F0A2FAC4F307210B4802F04F
:102840009DFAE1B2094802F099FA084802F0D0FC7A
:10285000B0FA80F1490907480AF008FA05480AF079
:102860007FFA012038BD8000C4B20BE6245300205B
:102870003C61010080FFFF1F38B50121044631484B
:1028800006F05AFD372200212E4806F051FD204661
:1028900005F0C8FD01462B480AF0E8F92D2129482A
:1028A00006F00CFD204605F099FD014625480AF08A
:1028B000DDF92D21234806F001FD204605F07CFDC1
:1028C000014620480AF0D2F902221F491D480AF0A9
:1028D000B9F9204605F094FD092803DC3021194898
:1028E00006F0ECFC204605F08BFD014615480AF089
:1028F000BDF9204605F03CFD01220546134911486B
:102900000AF0A0F9092D03DC30210E4806F0D6FCB0
:1029100029460C480AF0AAF9204605F03BFD0122A1
:1029200004460A4907480AF08DF9092C03DC3021D6
:10293000044806F0C3FC21460248BDE838400AF0CE
:1029400095B900BF9C5100204861010084610100DD
:102950002DE9F04FB84DB948B94FBA4EBA4C87B0CF
:10296000052109F0ADFC00230A222968B7480AF0C6
:1029700047FAB6480AF0F4F90B21B54809F0A0FC73
:10298000B2480AF0EDF9FFF77DF9FEF7B1FC052139
:10299000AA4809F095FC00230A222968AB480AF0EE
:1029A0002FFAAA480AF0DCF908F070FB3860A94851
:1029B00007F0A2FA0121A74806F0C4FC0221A548AD
:1029C00006F0BAFC00221146A24806F0B1FC08222B
:1029D000A149A0480AF036F901219E4806F0ACFC56
:1029E000102200219B4806F0A3FC12229B49994823
:1029F0000AF028F997480AF0B3F9002393483360A6
:102A00000AF0AEF991480AF0ABF90521944809F0B3
:102A100057FC904807F0ACFC0721924802F008FDF3
:102A20000E21904802F062FD04F58C680C218D485F
:102A300002F02EFD404604F26C414FF038430A226A
:102A400004F01EFC002840F0E9851C21864809F0AE
:102A500037FC7E480AF084F9062284497D480AF052
:102A6000F1F87C480AF07CF97A4807F081FC804A4A
:102A7000804B12689A4200F22E867F4A7D4B126884
:102A80009A4200F243867D4B1A78172A00F2588644
:102A90007B4B1A783B2A00F25E867A4B1A78172A0B
:102AA00000F26486784B1A783B2A00F26A86DFF8D7
:102AB000F8A1DAF80030012B06D9002319460C20C2
:102AC000CAF8003008F04EF9704B1B68042B00F276
:102AD00068862B68584A0F2B00F25B866C4DDFF836
:102AE000CC816C4E082008F005FCE8B92B68013356
:102AF0002B6002E00A2008F047FC082008F0FAFBEF
:102B00000028F7D02A68DAF80030A2F10901B3FAF8
:102B100083F304294FEA531300F2D584002B00F00D
:102B2000D2845B4A0E2313604A4807F0E5F901217D
:102B3000484806F007FC0221464806F0FDFB00224B
:102B40001146444806F0F4FB08F0A0FA3B682C68F4
:102B50003060C3EB00090E2C5BD8DFE814F0700482
:102B60002004DD034103C1024102AC012C01AB0092
:102B70005A005A005A005A005A000F00434B0420D2
:102B80001C6808F0B7FB0190032008F0B3FB019B21
:102B90008346002B40F01C85D8F800303E4A0121C6
:102BA000132B117040F34D860133C8F80030013407
:102BB000BBF1000F40F01385DFF8F4B0364ADBF8C4
:102BC00000300121132B117040F34286092CC8BF3D
:102BD000DBF8003004F1FF34CCBF01330123002CBB
:102BE000CBF80030C0F20185062CA8BF00242B4B87
:102BF000264A53F8240014600BF05CFC28490BF0C3
:102C000061FD0BF001F802460B46124825490AF017
:102C1000E9F8FEF7B9FE08F039FAFFF72DFE0D4886
:102C200007F0A6FB0A2008F0AFFBB9F5167F7FF787
:102C300059AF07B0BDE8F08F00FAFF1F4C610100EB
:102C4000684A00204C5200206C4A002080FFFF1F81
:102C5000546101009C510020606101006C61010021
:102C6000806101004CFAFF1FFC6101001C62010041
:102C700034FAFF1FA086010040FAFF1F280A002037
:102C80004452002070510020F04E002030FAFF1F07
:102C9000CC500020E44E0020E84E002014FAFF1F24
:102CA00000007A44F0610100D8510020F05100206A
:102CB0000452002005F06EFBBE4C03460420236046
:102CC000029308F017FB0190032008F013FB019A10
:102CD000029B8346002A40F06B84D8F80020B64956
:102CE0000120132A087040F3B8850132C8F800208B
:102CF0000133BBF1000F40F06284DFF8E0B2AE496F
:102D0000DBF800200120132A087040F3AF85092B5F
:102D1000C8BFDBF8002003F1FF33CCBF0132012232
:102D2000002BCBF80020C0F250843C2BA8BF00231E
:102D30002268A24C9A4223602FD0306805F060FBD5
:102D40000390306805F014FB2168029183463068D7
:102D500005F032FB0446306805F040FB0190306816
:102D600005F060FB0DF1180E02990EF8081D00F138
:102D70004E0C039A019B8DF8122070468DF816C0F8
:102D80008DF815308DF814408DF811B005F05EFB0C
:102D900008F082F908F07AF93860072288498948F2
:102DA00009F050FF08F072F905F0F4FA0146854881
:102DB00009F05CFF2DE705F0DBFA834C03460420A5
:102DC0002360029308F096FA0190032008F092FA2B
:102DD000019A029B8346002A40F0DB83D8F800204A
:102DE00075490120132A087040F347850132C8F85D
:102DF00000200133BBF1000F40F0D283DFF8DCB1DB
:102E00006D49DBF800200120132A087040F33E854D
:102E1000092BC8BFDBF8002003F1FF33CCBF013220
:102E20000122002BCBF80020C0F2C0833C2BA8BFAE
:102E300000232268654C9A4223602ED0306805F04A
:102E4000DFFA03903068246805F0A4FA0290306835
:102E500005F0B2FA8346306805F0C0FA0190306898
:102E600005F0E0FA0DF1180E02990EF8081D00F1B8
:102E70004E0C039A019B8DF8122070468DF816C0F7
:102E80008DF815308DF814B08DF8114005F0DEFA8C
:102E900008F002F908F0FAF8386007224C4949486E
:102EA00009F0D0FE08F0F2F805F062FA0146454854
:102EB00009F0DCFEADE605F0A3FA464C034604201B
:102EC0002360029308F016FA0190032008F012FA2A
:102ED000019A029B8346002A40F04C83D8F80020D8
:102EE00035490120132A087040F3D7840132C8F80D
:102EF00000200133BBF1000F40F04383DFF8DCB06A
:102F00002D49DBF800200120132A087040F3CE84FD
:102F1000092BC8BFDBF8002003F1FF33CCBF01321F
:102F20000122002BCBF80020C0F23183182BA8BF60
:102F30000023226801939A422DD0306805F018FAD8
:102F40000390306805F026FA0290306805F034FAF4
:102F50000446306805F042FA8346306805F062FAAC
:102F60000DF1180E02990EF8081D00F14E0C039A8F
:102F7000019B8DF8112070468DF816C08DF8123027
:102F80008DF815B08DF8144005F060FA08F084F85B
:102F900008F07CF8386005220F490A4809F052FE13
:102FA00008F074F805F02CFA0146064809F05EFEB8
:102FB0002FE600BF10520020E84E002010510020E4
:102FC000E86101009C51002050510020E04E00209B
:102FD000E0610100DC510020D861010004520020B2
:102FE00005F0EAF9C04C034604202360029308F080
:102FF00081F90190032008F07DF9019A029B834634
:10300000002A40F0A882D8F80020B8490120132AED
:10301000087040F352840132C8F800200133BBF13C
:10302000000F40F09F82DFF8ECB2B049DBF80020DF
:103030000120132A087040F34984092BC8BFDBF82C
:10304000002003F1FF33CCBF01320122002BCBF86B
:10305000002040F38D82202BA8BF01232268A44CBE
:103060009A4223602ED0306805F0CAF90390306888
:1030700005F07EF98346306805F08CF902903068DF
:10308000246805F0ABF90190306805F0CBF90DF13B
:10309000180E029A0EF8082D00F14E0C039B0199B0
:1030A0008DF8123070468DF816C08DF815108DF819
:1030B00014408DF811B005F0C9F907F0EDFF07F0E5
:1030C000E5FF386004228B498B4809F0BBFD07F00F
:1030D000DDFF05F071F90146874809F0C7FD98E565
:1030E00005F07CF9854C034604202360029308F028
:1030F00001F90190032008F0FDF8019A029B834634
:10310000002A40F01982D8F8002078490120132ABB
:10311000087040F3E2830132C8F800200133BBF1AC
:10312000000F40F01082DFF8ECB17049DBF80020AE
:103130000120132A087040F3D883092BC8BFDBF89D
:10314000002003F1FF33CCBF01320122002BCBF86A
:10315000002040F3FE810D2BA8BF01232268684C9C
:103160009A4223602ED0306805F04AF90390306807
:1031700005F0FEF88346306805F00CF902903068DF
:1031800005F01AF901903068246805F04BF90DF14B
:10319000180E02990EF8081D00F14E0C039A019BBF
:1031A0008DF8122070468DF816C08DF814308DF809
:1031B00015408DF811B005F049F907F06DFF07F0E3
:1031C00065FF386006224F494B4809F03BFD07F088
:1031D0005DFF05F003F90146474809F047FD18E592
:1031E00005F020F9484C034604202360029308F0C0
:1031F00081F80190032008F07DF8019A029B834634
:10320000002A40F08881D8F8002038490120132A8C
:10321000087040F370830132C8F800200133BBF11D
:10322000000F40F07F81DFF8ECB03049DBF8002080
:103230000120132A087040F36683092BC8BFDBF80E
:10324000002003F1FF33CCBF01320122B3F5FA6F46
:10325000CBF80020C0F26D8140F634029342C8BF23
:103260004FF4FA632268294C9A4223602ED03068CA
:1032700005F0C6F80390306805F07AF883463068A8
:1032800005F088F80190306805F096F802903068F3
:1032900005F0A4F80DF1180E9DF804200EF8082D85
:1032A00023680399029A8DF815004E3370468DF805
:1032B00012108DF816308DF814208DF811B005F02D
:1032C000C5F807F0E9FE07F0E1FE38600522104975
:1032D000094809F0B7FC07F0D9FE05F0A3F801464C
:1032E000054809F0C3FC94E46C510020E84E00202E
:1032F00048520020D06101009C5100204052002023
:1033000014510020C8610100085200204C510020D7
:10331000C061010004520020B54B04201C6807F076
:10332000E9FF0190032007F0E5FF019B8346002B96
:1033300040F0E280D8F80030AE4A0121132B117022
:1033400040F3E7820133C8F800300134BBF1000FCD
:1033500040F0D980DFF8C0B2A64ADBF80030012186
:10336000132B117040F3DB82092CC8BFDBF800304F
:1033700004F1FF34CCBF01330123002CCBF8003023
:10338000C0F2C7809C4B9C42C8BF0024984B9B490D
:103390009B481C60042209F055FC954B41E0994B79
:1033A00004201B68029307F0A5FF0190032007F09B
:1033B000A1FF019A029B8346002A40F08E80D8F834
:1033C00000208C490120132A087040F3AC8201329E
:1033D000C8F800200133BBF1000F40F08580DFF812
:1033E00038B28449DBF800200120132A087040F32A
:1033F000A282092BC8BFDBF8004003F1FF33C8BF2E
:103400000134002BCBF8004073DDB3F5616FC8BF0A
:1034100001237C4C7C497A482360042209F012FC89
:1034200023461968764809F021FC0122774974483F
:1034300009F008FC724809F093FCFFF7EABB6D4CF9
:103440002378002B40F0B6810A2271496C4809F0BC
:10345000F9FB042007F04EFF0446032007F04AFF63
:10346000002C7FF4D6AB00287FF4D3AB644806F081
:1034700043FD0121624805F065FF0221604805F027
:103480005BFF002211465E4805F052FFFEF75AFC32
:103490000A2260495A4809F0D5FB594806F068FFEE
:1034A00040F2DC5007F070FFFEF76EFA07F0EEFD19
:1034B000FFF7E2F9524806F05BFF0A2007F064FFCD
:1034C00007B0BDE8F08F0E2A7FF72EAB002B3FF43C
:1034D0002BAB00232B60FFF727BB0022C8F800208E
:1034E000BBF1000F3FF47BAF4B4A0021002B116072
:1034F0008BDC4FF461638CE70023C8F80030BBF12C
:10350000000F3FF427AF444B0022002C1A60BFF697
:1035100039AF394C3AE70022C8F80020BBF1000F60
:103520003FF481AE3C4A0021B3F5FA6F1160BFF65B
:1035300093AE40F6340395E60022C8F80020BBF1B4
:10354000000F3FF4F0AD344A0021002B11603FF72B
:1035500002AE0C2302E60022C8F80020BBF1000FE7
:103560003FF461AD2C4A0021002B11603FF773AD91
:103570001F2373E50022C8F80020BBF1000F3FF4C1
:10358000BDAC254A0021002B1160BFF6CFAC17233C
:10359000CFE40022C8F80020BBF1000F3FF42EACAE
:1035A0001D4A0021002B1160BFF640AC3B2340E4D4
:1035B0000022C8F80020BBF1000F3FF49EAB164A72
:1035C0000021002B1160BFF6B0AB3B23FFF7B0BB6F
:1035D0000023C8F80030BBF1000F3FF4EDAA0E4BFA
:1035E0000022002C1A60BFF6FFAA0524FFF7FFBADD
:1035F00040FAFF1FE84E002080510100B861010031
:103600009C51002034FAFF1FF0600100B4610100FA
:103610009C610100A86101000452002004F23C40BA
:10362000C4F8008002F024F80121204603F02CFDAC
:10363000002800F0C880DFF8648308F23C4948465F
:10364000414602F04DFA00283FF4FFA998F83C34B7
:1036500013F0700F3FF4F9A9BF4CC04B08F58C6014
:1036600022460921C3F8009004F002F8237813F0F1
:10367000C00300F0B180402B00F063810D21B848F9
:1036800008F01EFE002319460A22B64809F0B8FBCE
:10369000B44809F065FB00240020014600230A22FB
:1036A0003060B14809F0ACFB0122B049AE4809F0E6
:1036B000C9FA00230A222146AB4809F0A1FBAA4817
:1036C00009F04EFBA84806F053FEA94AA94B126820
:1036D0009A427FF6D2A93C23A54AA74C136019460B
:1036E0000020236007F03EFB6178012007F03AFBE1
:1036F000A178022007F036FBE178032007F032FBC7
:103700009E4A9C4B12689A427FF6BDA93C239B4A75
:10371000994C136019460420236007F023FB61785D
:10372000052007F01FFBA178062007F01BFBE178BE
:10373000072007F017FB924B1A78172A7FF6A8A9E3
:103740000022114608201A7007F00CFB8D4B1A78E6
:103750003B2A7FF6A2A90022114609201A7007F021
:1037600001FB894B1A78172A7FF69CA90022114683
:103770000A201A7007F0F6FA844B1A783B2A7FF673
:1037800096A9002211460B201A7007F0EBFAFFF7FA
:103790008EB9042319460E20136007F0E3FAFFF7F1
:1037A0009DB905237A4A19460D20136007F0DAFA0D
:1037B000FFF78FB9FEF7C6FA4FF00003237007F04A
:1037C00065FC386040E60146204603F05DFC0028B9
:1037D0007FF431AFFFF739B9607AA379E27994F8D1
:1037E0000AE06179247A00F00300400003F003034B
:1037F000920040EADE1001F00F0142EA8323084400
:1038000043EA94130738013303FA00F00AF04EFE3E
:1038100060490AF0A3FE0BF08DF80D2104465048D4
:1038200008F04EFD214600230A224E4809F0E8FA2E
:103830004C4809F095FAC72C7FF62EAFA4F1C800CA
:103840002BE7C82007F0A0FD534B1B68FFF7ACB96E
:10385000C82007F099FDFFF7B9B9C820019307F018
:1038600093FD4D4B1A68019BFFF73FBAC8200193A7
:1038700007F08AFD019BFFF74ABAC820019307F0C1
:1038800083FD454B1A68019BFFF7B0BAC82001932E
:1038900007F07AFD019BFFF7BBBAC820019307F040
:1038A00073FD3D4B1A68019BFFF720BBC8200193B5
:1038B00007F06AFD019BFFF72BBBC820019307F0BF
:1038C00063FD354B1A68019BFFF7A5BBC820019328
:1038D00007F05AFD019BFFF7B0BBC820019307F02A
:1038E00053FD2D4B1A68019B15E4C820019307F086
:1038F0004BFD019B21E4C820019307F045FD264BB9
:103900001A68019B87E4C820019307F03DFD019BE5
:1039100093E4C82007F038FD1F4B1B6812E5C82050
:1039200007F032FD20E5C820019307F02DFD1A4B6A
:103930001A68019B4BE5C820019307F025FD019B08
:1039400057E5637A227AE079013303EB022303EB34
:10395000004080025AE700BFE05100203C530020A5
:103960008861010080FFFF1F9C51002098610100C9
:1039700034FAFF1FA08601004851002040FAFF1FC3
:10398000280A00204452002070510020F04E0020F0
:1039900030FAFF1FBD37063AF05100206C4A002074
:1039A0002DE9F04F8FB072B6BF49C04BC0484125DA
:1039B0000E2480220D70047019461A700B78BB4AD1
:1039C0001806FBD5BB49BC4B0D78BC4CBC481D70E0
:1039D0000339247800780978D9705C70987062B6E1
:1039E00072B6B149B24C41260F2580200E70257069
:1039F000114610700A781206FCD5AE4CAF48B0499B
:103A0000B04A2478007809781278DA711C715871FC
:103A1000997162B6AC4DAD4FAD4E4FF4FA7007F0F0
:103A2000B3FC2968AB4800230A2209F0E9F9A94848
:103A300009F096F92968A74800230A2209F0E0F95D
:103A4000A44809F08DF92968A24800230A2200241D
:103A500009F0D6F99F4809F083F964203C6007F02B
:103A600093FC39689B481022234609F0C9F999480C
:103A700009F076F94FF430533B60642007F084FC82
:103A80004FF434533B60642007F07EFC924B914826
:103A900019681022234609F0B3F98E4809F060F93D
:103AA00039688C482346102209F0AAF9894809F0A0
:103AB00057F98A4B874819681022234609F0A0F964
:103AC000844809F04DF92968824823460A2209F002
:103AD00097F9804809F044F94FF47A7007F054FCE4
:103AE00029687C4823460A2209F08AF9794809F0B6
:103AF00037F94FF47A7007F047FC23460A22296809
:103B0000744809F07DF9734809F02AF9744801F006
:103B1000DBF90121022007F0FBFB0121142007F053
:103B2000F7FB2146152007F0F3FB204606F072FF55
:103B30000121022007F0BAFB0121142007F0B6FB97
:103B40000121062007F0E4FB2146062007F0AEFB2A
:103B50002146062007F0DCFB2146042007F0D8FBB5
:103B60002146032007F0D4FB2146082007F0D0FBB4
:103B70000121042007F09AFB0121032007F096FBA6
:103B80000121082007F092FB07F080FA554B3060C6
:103B9000984202DC544807F07FFA01233C220221BC
:103BA0005248534C06F0DAFA8C2007F0EDFB4F48F0
:103BB00006F0A2F901214D4805F0C4FB02214B4853
:103BC00005F0BAFB00221146484805F0B1FB0A2275
:103BD0004849464809F036F8444809F0C1F84348D6
:103BE00006F0C6FB0121062007F092FB002106200B
:103BF00007F05CFB3D4806F07FF901213B4805F0EA
:103C0000A1FB0221394805F097FB002211463748F5
:103C100005F08EFB0A223749344809F013F833487F
:103C200009F09EF8314806F0A3FB0721324801F065
:103C3000FFFB04F58C650E212F4801F057FC284648
:103C400004F26C414FF038430A2203F019FB0028BC
:103C500058D11C21294808F033FB1E4809F080F890
:103C6000224806F049F90121204805F06BFB0221AA
:103C70001E4805F061FB002211461C4805F058FB68
:103C800012221F49194808F0DDFF184809F068F8AA
:103C900007F0FCF9FEF7F0FD144806F069FB4FF45D
:103CA0007A7007F071FBDBE707000240000002407A
:103CB000060002400B000240345100200A0002407E
:103CC000090002400800024000D0034010D0034029
:103CD000E44E002080FFFF1F14D0034018D00340A3
:103CE000245300207FC1855680C185569C510020F9
:103CF0006C4A0020246201004CFAFF1FFC610100A5
:103D00003062010004F23C40256001F0B1FC012169
:103D1000204603F0B9F90146002800F01F81994DB3
:103D200005F23C442046294601F0DAFE002890D0F6
:103D300095F83C3413F0700F8BD0934BDFF8B4A29E
:103D40001C60FDF719FDFEF703FE6E218F4808F099
:103D50000BFC8F4A8F4B176853F8278040460AF0B8
:103D6000A9FB1021CAF800004046FEF74DF88A482A
:103D700001F0AAF83846FEF77BFB204601F078FCFC
:103D8000294620460EAD01F0ABFE844B45F8343D8C
:103D9000002321468DF814308DF815308DF8083049
:103DA0008DF810307E4A462305A84FF47A740394A8
:103DB00001F016FE9DF81430002B40F0D6807948B3
:103DC000DFF8348206F098F80121764805F0BAFA57
:103DD0000221744805F0B0FA00221146714805F03E
:103DE000A7FAD8F800303C2B06DDB3F5967FD4BF98
:103DF0003C244FF4967400E00A2407F047F9DFF8FA
:103E0000FC91694FD9F8003090FBF4F204FB0244B6
:103E1000664A3060E118116018463C600AF04AFBBF
:103E2000DAF80010624D634CDFF8D4A1DFF8D4B1AA
:103E30000AF094FB4FF06E510AF090FB4FF0745172
:103E40000AF08CFB09F0E0FE09F06AFC00225A4BF4
:103E500009F02EFF0AF0DCF9584BD8F80020196859
:103E6000574B2860521A22EAE27583FB05232B4444
:103E7000E817C0EBE32009F0B5FE09F0D9FC0AF021
:103E8000C7F9504BCAF8000004FB005483FB04231D
:103E90002344E017C0EB631009F0A4FE09F0C8FC4E
:103EA0000AF0B6F9484DA0EB001204EB8204034679
:103EB00010214648CBF800302C6008F001FADAF8FF
:103EC0000010434808F0D2FEDBF80010404808F02C
:103ED000CDFE29683E4808F0C9FE3D4808F040FF85
:103EE00008213C4808F0ECF9D9F80010384808F0EF
:103EF000BDFE374808F034FF0821374808F0E0F9E4
:103F0000D8F80010324808F0B1FE314808F028FF18
:103F10000E21324808F0D4F93068FDF76DFE0C210F
:103F20002F4808F0CDF93868FDF766FE3B68346825
:103F30002C481C1B152108F0C3F92146244808F021
:103F400095FE234808F00CFF2749284B00204FF02E
:103F5000FF3208601A600FB0BDE8F08F204603F012
:103F600093F800287FF4DBAE73E62922204905A8E8
:103F700001F0C0FF284608F0F3FE05A801F078FB29
:103F80001DE700BF6C4A00203C5300200082FF1F49
:103F900030FAFF1F14FAFF1F24530020685F01004E
:103FA000DC5F01009C510020EC4E00203C510020C1
:103FB000D4510020F0F1FFFF0000404004FAFF1F41
:103FC000C5B3A29189888888F85100204462010015
:103FD00080FFFF1F586201006462010070620100EF
:103FE0008062010090620100FC0900200C52002058
:103FF00048600100F451002040FAFF1F34FAFF1F0F
:10400000600A00204051002038B504460D46314872
:10401000012105F091F92AB200212E4805F088F916
:10402000204604F0FFF901462A4808F01FFE2D2122
:10403000284805F043F9204604F0D0F90146254808
:1040400008F014FE2D21234805F038F9204604F02D
:10405000B3F901461F4808F009FE02221E491D4817
:1040600008F0F0FD204604F0CBF9092803DC3021EC
:10407000184805F023F9204604F0C2F90146154816
:1040800008F0F4FD204604F073F9012205461349B7
:10409000104808F0D7FD092D03DC30210D4805F04C
:1040A0000DF929460B4808F0E1FD204604F072F9AD
:1040B000012204460949074808F0C4FD092C03DC25
:1040C0003021044805F0FAF821460248BDE838409E
:1040D00008F0CCBD9C5100204861010084610100C2
:1040E0002DE9F041B24D2C6824B1012C68D030BFCD
:1040F000BDE8F08106F0CAFFAE4FAF4E3860AF4862
:1041000005F0FAFE0121AD4805F01CF90221AB488B
:1041100005F012F922462146A84805F009F90A22BD
:10412000A749A64808F08EFDA44808F019FE1421FE
:104130003068FFF769FF3868FEF79EFB9F4806F07E
:1041400017F9A04A3B681268934280F2BC8032683B
:104150009A4232DC9C4F3C68002C50D00D219B4889
:104160009B4C08F0ADF89B4808F0FAFD9A4B9B4A2F
:1041700031681B6812689A480B441A440E21326059
:10418000236008F09DF806F081FFFDF735FD0B2157
:10419000944808F095F82068FDF72EFD0B21924811
:1041A00008F08EF83068FDF727FD0123AE21834823
:1041B0002B6005F0A9FEFDF76BF82C68012C96D159
:1041C000FCF7D6FC042007F095F80646032007F01C
:1041D00091F80EB900282DD0844C854B22681B68BD
:1041E0009A4284DB7D4B1E68002E72D1814801F01B
:1041F0003FFAFCF787FD266030BFBDE8F0810A2159
:104200007D4800F0E3FF21467B4800F0B7FD0E211A
:10421000794800F0B3FD2146774800F0AFFD0A2150
:10422000754800F0ABFD744800F0E2FF4FF0FF333B
:104230003B6093E76D4B714E1B68714A6D485B02A2
:10424000002503F124072946B362A2F8B451776030
:1042500001F060FD31462C22664801F04BFE6548B6
:1042600001F006FA23463C220221544805F076FF6D
:10427000642007F089F8514805F03EFE21464F487A
:1042800005F060F802214D4805F056F82A46294607
:104290004A4805F04DF807225A49484808F0D2FC30
:1042A000464808F05DFD2146444805F045F81022D7
:1042B0005549424808F0C6FC404808F051FD3F48C7
:1042C00006F056F8FEE70121052006F0EFFF3B68F7
:1042D0003DE7FCF7FDFC384B4C4E1C684C4F06F09C
:1042E000D5FE4C4A4C4B1268201A841A24EAE47416
:1042F00083FB04232344E017C0EBE32009F072FCA6
:1043000009F096FA09F084FF444B454A306003FBFC
:10431000004482FB043222448046E017C0EB621066
:1043200009F060FC09F084FA09F072FF0201131A27
:10433000821A04EB82049B004FF4616202FB083393
:104340003C60DFF8EC801C44092CC8F8000011DC4C
:104350000721344807F0B4FF1E4808F001FD01238F
:104360003C220221154805F0F9FE00232B6030BFE6
:10437000BDE8F0810021022006F098FFFEF744F826
:10438000642007F001F83B7898F80020317826483F
:1043900003F086FE254803F049FC0121022006F0C7
:1043A00085FF4FF4967006F0EFFFFDF7F9FFCFE7BA
:1043B000FC090020E44E0020EC4E00209C5100201F
:1043C000A8620100FC510020640A0020B4620100D0
:1043D0003C51002080FFFF1F34FAFF1F40FAFF1FEF
:1043E00070620100C4620100D0620100F44E00203E
:1043F000D45100203C0A00202453002050520020B9
:10440000F84E0020DC620100E4620100600A002036
:10441000F851002004FAFF1FC5B3A291F0F1FFFF8D
:1044200089888888F8620100D0500020000A0020A6
:10443000405100200020704700207047F8B5C34C61
:10444000012605460671204600F03EFD052006F0D7
:104450009BFF297A204600F0E3FD2046002100F072
:104460008DFC2046302100F089FC2046402100F0E0
:1044700085FC6021204600F081FC204600F0B8FE5B
:10448000297A204600F0CCFD2046002100F076FC81
:104490002046262100F072FC2046002100F06EFC30
:1044A0006C21204600F06AFC204600F0A1FE297A2B
:1044B000204600F0B5FD2046002100F05FFC2046BC
:1044C000282100F05BFC3146204600F057FCF22129
:1044D000204600F053FC204600F08AFE297A204650
:1044E00000F09EFD2046002100F048FC20462C21D3
:1044F00000F044FC20460F2100F040FC2221204621
:1045000000F03CFC204600F073FE297A204600F0C3
:1045100087FD2046002100F031FC20463C2100F0C0
:104520002DFC2046442100F029FC4621204600F0C5
:1045300025FC204600F05CFE40F23713EB80297A20
:10454000204600F06DFD2046002100F017FC2046BB
:10455000242100F013FC3146204600F00FFC3721E7
:10456000204600F00BFC204600F042FE297A20464F
:1045700000F056FD2046002100F000FC20463021CE
:1045800000F0FCFB2046402100F0F8FBFF21204614
:1045900000F0F4FB204600F02BFE297A204600F0C4
:1045A0003FFD2046002100F0E9FB2046022100F0FB
:1045B000E5FB2046002100F0E1FB7321204600F0DE
:1045C000DDFB204600F014FE4FF4C87006F0DCFE60
:1045D000297A204600F024FD2046002100F0CEFB81
:1045E00020462E2100F0CAFB20461D2100F0C6FB0C
:1045F0001D21204600F0C2FB204600F0F9FD297A7B
:10460000204600F00DFD2046002100F0B7FB2046BB
:10461000042100F0B3FB2046002100F0AFFB042191
:10462000204600F0ABFB204600F0E2FD297A204650
:1046300000F0F6FC2046002100F0A0FB20460621F9
:1046400000F09CFB3146204600F098FB30212046CC
:1046500000F094FB204600F0CBFD297A204600F0C4
:10466000DFFC2046002100F089FB20460A2100F0F3
:1046700085FB2046002100F081FB1021204600F040
:104680007DFB204600F0B4FD297A204600F0C8FCEE
:104690002046002100F072FB20460E2100F06EFB48
:1046A0002046002100F06AFB0021204600F066FB56
:1046B000204600F09DFD297A204600F0B1FC2046FE
:1046C000002100F05BFB2046102100F057FB204644
:1046D0003C2100F053FB3C21204600F04FFB2046DC
:1046E00000F086FD297A204600F09AFC2046002141
:1046F00000F044FB2046222100F040FB20467F21B1
:1047000000F03CFB7F21204600F038FB3627204696
:1047100000F06EFD297AEF80204600F081FC2046F3
:10472000002100F02BFB2046242100F027FB20462F
:10473000002100F023FB3946204600F01FFB2046F5
:1047400000F056FD6E723046F8BD00BF24530020C5
:104750000B462DE9F04145490546184609F0FEFE95
:10476000434909F0F3FD0AF0E5F8044600284CD06F
:1047700080281FD92B79002426462BBB297A3D4857
:1047800000F04EFC00213B4800F0F8FA22213948A5
:1047900000F0F4FA3146374800F0F0FA2146354887
:1047A00000F0ECFA334800F023FDB0FA80F0400945
:1047B000BDE8F081C0F180042B7944EA0424C4F3FD
:1047C0000726E4B2002BD9D0EF88297A294827F0B0
:1047D00010074FF00008EF8085F8048000F020FCFF
:1047E0004146244800F0CAFA2421224800F0C6FAC3
:1047F000390A204800F0C2FA07F0EF011D4800F026
:10480000BDFA1C4800F0F4FCB8E701232B71297AAB
:10481000184800F005FC2146164800F0AFFA2221A6
:10482000144800F0ABFA7F21124800F0A7FA7F216C
:10483000104800F0A3FA0F4800F0DAFCEE88297A5D
:104840000C4846F01006B6B2EE8000F0E9FB2146B7
:10485000084800F093FA2421064800F08FFA310A44
:10486000044800F08BFAF1B299E700BF0000014361
:10487000EE7CFF3E2453002070B505460C4619B16E
:1048800001293BD0002070BD017A424800F0C8FBEE
:104890002146404800F072FA20213E4800F06EFAAE
:1048A00021463C4800F06AFA55213A4800F066FA81
:1048B000384800F09DFC06460028E3D1EC88297AB0
:1048C000344844F00404A4B2EC8000F0A9FB314663
:1048D000304800F053FA24212E4800F04FFA210A04
:1048E0002C4800F04BFAE1B22A4800F047FA294878
:1048F00000F07EFCB0FA80F0400970BD017A2548D6
:1049000000F08EFB0021234800F038FA2A212148CC
:1049100000F034FA21461F4800F030FA73211D4898
:1049200000F02CFA1B4800F063FC04460028A9D1D3
:10493000297A184800F074FB2146164800F01EFA48
:104940002021144800F01AFA2146124800F016FA05
:104950008821104800F012FA0E4800F049FC044685
:1049600000288FD1EE88297A0A4826F00406EE80C6
:1049700000F056FB2146074800F000FA24210548C4
:1049800000F0FCF9310A034800F0F8F906F0FB01E9
:10499000AAE700BF2453002010B5044607F0C8FF63
:1049A000204610BD024A034903480AF091B900BFEE
:1049B000FCF9FF1F994900007C5200201B4A1C4B48
:1049C00011681C48096970B499421279027009D2C1
:1049D000194A127832B3194A4FF08041116003F539
:1049E000807402E01C46A3F58073154A15491268CD
:1049F0000D68AAB1A5B1144E3088402810D84100E6
:104A00000A444030294402320231308033F9040B29
:104A100022F8020F9C4233F9020C21F8020FF5D85C
:104A200070BC704703F58074DFE700BF8C52002034
:104A3000B8F2FF1F1F8000408652002008E200E00D
:104A4000945200208852002084520020F8B5064677
:104A500007F0BAFD0446E8B107F0B6FD05460028A8
:104A60003AD072B61F4B1A887F2A19D8002C31D041
:104A70001D490A6842B162B6204607F0F9FD284692
:104A8000BDE8F84007F0F4BD18480C601A800560D6
:104A900062B6F8BD054672B6124B1A887F2AE5D970
:104AA000114A12491768146000220C681A800D60C0
:104AB00062B63946304607F005FE384607F0D8FDA5
:104AC00030462146012207F0FDFD2046BDE8F840B2
:104AD00007F0CEBD62B6F8BD204607F0C9FD2C46F2
:104AE000BFE700BF8452002094520020885200206B
:104AF000F8B5284C284E2046012107F07BFE00F037
:104B000083F8264B264A27484FF4806119602368B2
:104B100000211A6099802279186102F1804202F521
:104B2000043240F20110D8809E614FF4807502205B
:104B300006278E26DD82D960DD8398609F83988268
:104B40001170167007F0FCFD1749184B2279184FA9
:104B500008701A7039682279164C174D174E41F0BB
:104B6000124141F00101531139609B00206803F1AB
:104B7000604302F1100703F5614302F01F020121B7
:104B800040F0104001FA02F2206045F827601A60F8
:104B9000F8BD00BF8C52002000FEFFFF14B004409F
:104BA000A0F00240B8F1FF1F865200201B80004099
:104BB00080F0024000F0024000F4FF1FBD490000F9
:104BC000024A034903480AF083B800BFFCF9FF1FFB
:104BD000994900008C520020024A034903480AF018
:104BE00077B800BFFCF9FF1F9949000098520020D8
:104BF000024A034903480AF06BB800BFFCF9FF1FE3
:104C000099490000A0520020284B29491A682948D8
:104C100042F400421A600A6842F002020A601A680E
:104C200042F002021A600368002B3DDB224B1B6836
:104C3000002B39DB214A4FF0864313601368002BA9
:104C4000FCDBF0B51E4C1F48DFF8ACE01E491F4BE3
:104C50001F4A204F204E214D47F2320CC4F800C0AD
:104C6000002404600120CEF80000DFF890E0C1F8D5
:104C700000E04FF480311960194B1360DFF880E0D9
:104C8000184A3A60346028601748CEF80000174C84
:104C9000B9671748174946F8503C4FF4C0632A617A
:104CA000236003600B60F0BD704700BF3C80044090
:104CB0004080044000F0024080F0024000F10240D9
:104CC00004F1024060F0024008F002400CF00240A3
:104CD00010F0024014F00240E0F0024084F0024084
:104CE0001B0F0100000F0F0F0300004708B0044026
:104CF0000CB0044018B0044004F002400300000768
:104D000088F00240024A0349034809F0E1BF00BFAE
:104D1000FCF9FF1F99490000A8520020024A0349EC
:104D2000034809F0D5BF00BFFCF9FF1F99490000F7
:104D3000B0520020024A0349034809F0C9BF00BF2E
:104D4000FCF9FF1F99490000B8520020024A0349AC
:104D5000034809F0BDBF00BFFCF9FF1F99490000DF
:104D6000C0520020024A0349034809F0B1BF00BF06
:104D7000FCF9FF1F99490000C85200200A4B1B781C
:104D800013B90A4B1B786BB1094A1378202B07D84B
:104D900010B4581C074C1070E154012010BC70472F
:104DA000012303710020704736530020F952002080
:104DB00037530020D8520020704700BF024A034BEF
:104DC00010781B78C01A70473553002034530020E8
:104DD000064A074913780978994204D90548591CAD
:104DE000C05C117070474FF0FF30704734530020A3
:104DF00035530020FC520020054B064A1B781278E0
:104E00009A4286BF044AD05C4FF0FF30704700BF23
:104E10003453002035530020FC52002070B50D4B58
:104E20001B78144613B90C4B1B788BB10B4E35789D
:104E3000C5F12103A34202D201221C460271084897
:104E400022462844254405F039FC3570204670BDC3
:104E5000184670BD36530020F95200203753002009
:104E6000D8520020124BDB7803F020034BB1114ADB
:104E700013780133DBB2012B137012D9122006F024
:104E8000C1B810B5122003F0FF0406F0BBF80A4BBE
:104E90001B685BB109490A4A0C701078BDE81040E4
:104EA0001847084B1B78002BE8D0704710BD00BF97
:104EB0000060064020530020D452002034530020CC
:104EC00035530020F95200200D4A0E4BF0B500205A
:104ED0000D4C10702268DFF838E00C4F42F04002B1
:104EE00022604FF41971282603252024802298700F
:104EF000CEF8001039605E709D715C719A70F0BDE3
:104F0000F9520020006006403480044008A00440AC
:104F10000CA0044010B5384CE378DBB2D80623D59A
:104F200010225906E2701ED503F0040303F0FF02BD
:104F3000002B33D0314B32491A68324C00230B70AE
:104F40002370002A3BD090472378002B37D02E4B7C
:104F50001B78294A2D49D02494701371264B0120C7
:104F600002220870DA7010BD5A06DDD4A27802F071
:104F7000100202F0FF0042B313F001031BD12349DA
:104F800020480A780078904281BF1F4B501C9B5CE0
:104F900008702371184BD0229A7008E01C48164BF9
:104FA000174902700120C02208709A701B79124BB9
:104FB0000222DA7010BDC023A3702379F7E71249EB
:104FC000002301220B702270C3E7124B12491870A4
:104FD0000322122005F096FF0D4923790A781F2A33
:104FE000DBB2E4D8064800780028E0D00B4C501C17
:104FF000A3540870DBE700BF006006401C5300208C
:10500000D052002037530020D852002038530020BF
:105010003553002020530020654E0000FC52002034
:105020000548064A10B40123054C0370490013706B
:10503000217010BC704700BF36530020375300204A
:10504000D85200202DE9F043594C1223E370A37885
:1050500003F0200383B0002B55D0B423DFF8688120
:10506000A370D8F80030524D1C460020EA78D2B226
:105070009A421CBF1446012096061346F6D5002816
:1050800040F08C804B4B1B78002B33D003F1FF3E5C
:105090005FFA8EFE0026D8F80040474F444D0EF1CF
:1050A000010E30464FF0020C17F8013F2B715FFAEA
:1050B00086F902E013F0200F09D0EB78DBB29342BF
:1050C0001CBF1C46012013F0020F1A46F2D085F8CF
:1050D00003C0EA78D2B293421CBF14460120D30623
:1050E00033D4930631D5D30744D401367645DBD18A
:1050F00000284AD1002000292ED1304B00221A70FE
:1051000003B0BDE8F0832E4DDFF8BC8003F0FF0252
:105110002B680093009ED8F8000005E02B680193EF
:10512000019B9B1B0F2B1BD8E378DBB2834218BF7C
:10513000012213F0200F1846F0D192BB21481C4BDE
:105140000024B02204709A708BE708BB184B8022B1
:105150009A7004200029D0D0154B80229A70CCE799
:10516000CAB9134B00218022042099709A7003B0B1
:10517000BDE8F083C0B90E4BB9F1000F4FF08002CB
:105180000CBF022003209A70B7E7C8F80040B1E7CF
:10519000C8F80040DAE7C8F80000E2E7C8F80040C5
:1051A00070E7C8F80030C9E7C8F80040E3E700BF7F
:1051B0000060064037530020D752002036530020AD
:1051C00098530020F952002048FAFF1F0548064A6C
:1051D00010B40123054C037049001370217010BCFA
:1051E000704700BF3653002037530020D8520020AC
:1051F0000121FFF727BF00BF044B054A1A604FF497
:105200007A71002299601A711A7370472453002032
:105210003063010010B4047F4160022CC26002D0F0
:1052200010BC07F09FBB836810BC1847F0B4464B16
:10523000464A186BDC6A01791170454922790A7077
:105240009A6A00790870002A46D05968C9688A426B
:105250003ED82168CC8B240402F1FF3065D4C0F322
:105260000E00C883C88B80B2C882196B0968C88BCE
:10527000000452D4C2F30E00C883C88B002480B24D
:1052800012F1FF32C88218BF01229C62D96A2E48EF
:1052900009680D6800F12404A54236D00068C4688E
:1052A00014F0804F0C680D6815BF248824780235EF
:1052B000013544F000440D604463196B254B0979B6
:1052C0001970214912B1CA6A12791A70F0BC70477C
:1052D000521A9A620122D9E7586B196805681E4C68
:1052E0000A63CC62CC682D681C4E24F080440327EE
:1052F000B542CC6083F825701FD1037F4260022B3A
:10530000C2601ED0F0BC07F02DBB016890F82400ED
:10531000CC6840F000404863CFE7CC8BC2F3080074
:1053200004F47E442043C883A7E7CC8BC0F3080075
:1053300004F47E442043C88394E72B461146F0BC16
:1053400018478368F0BC18474CFAFF1F1F800040C5
:105350001C8000401B80004000000FFF1552000021
:1053600090E80C00F0B41C6859682568164F174E79
:1053700029432160164D17491760D66015611160E9
:10538000417A154A5C180A3194F8244053F82150A8
:1053900002EBC40149680D60017A5C1803EB8101DE
:1053A000247ECD6902EBC40149680D60817A5818EA
:1053B00003EB810390F83000596B02EBC002F0BCA4
:1053C00053681960704700BF01401F00011000388A
:1053D0000110007800001F80A46901004268036882
:1053E00005CA10B4046822430260D868840100F042
:1053F000E06205D5080900F4706021F470410143B2
:10540000D8681143814209D01A68500408D407486B
:10541000186041F08040D96018611A6010BC704774
:1054200041F08042D96010BC1A61704701401F00F2
:105430004268437A134493F824308B4209D0F0B485
:1054400092F824408C4205D092F825408C421AD024
:10545000F0BC7047002421461668556836682E4215
:105460000FD00A4D05EBC30300275E685318376061
:1054700093F8243005EBC3050A316B6852F82120FC
:105480001A604472E4E701242146E5E7A4690100BB
:105490004268037A13441B7E8B4207D0F0B4147E1B
:1054A0008C4204D0547E8C421AD0F0BC7047002449
:1054B00021461668556836682E420FD00A4D05EB16
:1054C000C30300275E68531837601B7E063105EB67
:1054D000C30502EB81026B6852681A600472E4E74C
:1054E00001242146E5E700BFA46901004268837AF0
:1054F000134493F830308B4209D0F0B492F8304026
:105500008C4205D092F831408C421BD0F0BC7047E1
:10551000002421461668556836682E4210D00B4D7F
:1055200005EBC30300275E685318376093F83030EB
:105530000C3105EBC30502EB81026B6852681A60FF
:105540008472E3E701242146E4E700BFA469010077
:1055500038B590F90230002B044612DBA56805F13E
:10556000240001F0FDF928B9637843F0010363706A
:10557000002038BD05F50C7001F0F2F90028F3D0D9
:1055800038BD8068A1692430012201F0A3F9002808
:10559000EAD0A38803F00F035B01C518E4D0C35C15
:1055A000E52BE1D023780B4A1B0744BFE369EB618D
:1055B000236A12686B831B0CAB8232B105F11601B2
:1055C00005F1180090472B8B6B82A37803F07F03C3
:1055D000A370C3E7405300202DE9F041037803F0A6
:1055E00020032BB903F0FF044269204B9A4203D9F0
:1055F00000263046BDE8F08183780169054663F0F6
:105600007F038068AB7005F1100201F01DFB0646B8
:105610000028EDD02969A86801F0CAF90746A868F2
:1056200039462430052201F055F980460028DFD0A4
:105630004FF40072214609F069FFAB681A79012A1C
:105640000FD9012403E0AB681A79A24209D9E11904
:105650001868424602F040F80134E4B20028F2D162
:10566000C6E76B6903EB42226A61C2E7FFFD1F00D8
:1056700038B5037804461BB900232370012038BDD8
:1056800090F90230002B14DBA56805F1240001F02D
:1056900067F938B9637843F001036370002323701E
:1056A000002038BD05F50C7001F05AF90028F1D042
:1056B000E2E78068A1692430012201F00BF900289B
:1056C000E8D0A38803F00F035B01C518E2D0C35CE8
:1056D000E52BDFD023780B4A1B0744BFE369EB615E
:1056E000236A12686B831B0CAB8232B105F1160181
:1056F00005F1180090472B8B6B82A37803F07F0392
:10570000A370C1E7405300202DE9F0470D7815F054
:10571000700F88B003D1002008B0BDE8F087C32324
:1057200004460D4600F07EFE0028F4D05D4B626911
:10573000012610219A42A6702170ECD881236218AC
:10574000A3702169A06801F07FFA0028E3D02169E5
:10575000A06801F02DF90746A068394624300522DB
:1057600001F0B8F880460028D5D04FF4007200212F
:1057700009F0CCFE08E0F1190068424601F0ACFFE8
:105780000136F6B20028C6D0A0680279B242F2D83B
:10579000636921782669266203EB4223636100294D
:1057A00074D124300122A16901F094F80028B2D00C
:1057B000A68806F00F0610EB4616ACD01023F37245
:1057C000B26830687168F368B6F81490B6F81AA039
:1057D0006F460FC730697169B269F36908AE0FC7C8
:1057E0004FF02E084FF02033216AA06806F8208D74
:1057F000CDF80530CDF80130ADF8093001F0D8F81A
:10580000A3680146012203F1240001F063F88646F3
:10581000002880D03746ADF81490ADF81AA00FCF0D
:10582000CEF80000CEF80410CEF80820CEF80C30E8
:105830000FCFCEF81000CEF81410CEF81820CEF806
:105840001C302B6A8DF801801A0C3546ADF81A30E1
:10585000ADF814200FCD0EF12006CEF820007160B7
:10586000B260F3600FCD30617161B261F361A46821
:1058700004F1240001F074F800283FF44CAF04F563
:105880000C7008B0BDE8F04701F06AB813B100230E
:10589000236163612046FFF75BFE00283FF43BAFC6
:1058A000A0687EE7FFFD1F002DE9F041064692B09B
:1058B0003478019200208DF824008DF8250024B959
:1058C0000D46097811F0700F03D1002012B0BDE829
:1058D000F081144612782F2A2DD00DF1040803AF61
:1058E000002B53D042463946204600F0F5FB3A469D
:1058F000294601230028E8D0019C24783046002C5A
:1059000061D000F08FFD3A46294620B93046FFF7B6
:10591000FBFE0028D9D035460FCD09AC0FC40FCD02
:105920000FC433782A682260002B48D100233370DB
:10593000019C09ADD6E70134019422782F2AFAD0D0
:10594000AD680093242209A8002109F0DFFD0B9522
:10595000EA79009B102A3ED0202AB6D140228DF849
:105960002420012209AD8DF826200DF1040803AF93
:1059700063B1B7E70FCD0FC40FCD0FC433782A68DA
:105980002260C3B90023019C337009AD42463946F9
:10599000204600F0A1FB3A4629460123002894D076
:1059A000019C2478304674B100F03CFD354609ACCA
:1059B00000288AD0DEE73046FFF7CAFDE2E730462E
:1059C000FFF7C6FDB2E73A4629463046FFF79CFE90
:1059D00012B0BDE8F08120228DF82420C1E700BF7D
:1059E0002DE9F041064692B03478019200208DF8FE
:1059F00024008DF825002CB91F460B7813F0700F8A
:105A00000D4603D1002012B0BDE8F08113782F2B92
:105A1000144624D10134019494F80080B8F12F0F7A
:105A2000F8D0B8F1000F45D0AD6809A824220021B4
:105A300009F06CFD0B95EB79102B37D0202BE1D1C1
:105A400040238DF82430012309AD8DF8263006E07F
:105A50003046FFF77DFD0023019C337009AD01AA9C
:105A600003A9204600F038FB03AA29460123002899
:105A7000C8D0019C247830467CB100F0D3FC354678
:105A800009AC0028BED00FCD0FC40FCD0FC43378A2
:105A90002A682260002BDED0DAE73B4603AA2946BB
:105AA000304600F0BFFC12B0BDE8F08120238DF835
:105AB0002430C8E7AC6824224146304609F026FD70
:105AC000B460E379102B06D0202B07D1402333702C
:105AD0000120B07097E720233370F9E7404692E742
