:1000000000800020BD0100009D72000055720000BC
:1000100055720000557200005572000055720000C4
:100020005572000055720000557200009D7200006C
:100030009D7200005572000071890000758A0000F1
:100040009D7200009D7200009D7200009D72000074
:100050009D7200009D7200009D7200009D72000064
:100060009D7200009D7200009D7200009D72000054
:100070009D7200009D7200009D7200009D72000044
:100080009D7200009D7200009D7200009D72000034
:100090009D7200009D7200009D7200009D72000024
:1000A000813800009D7200009D7200009D7200006A
:1000B0009D7200009D7200009D7200009D72000004
:1000C0009D7200009D7200009D7200009D720000F4
:1000D0009D7200009D7200009D7200009D720000E4
:1000E0009D7200009D7200009D7200009D720000D4
:1000F0009D720000558E00009D720000818F0000EF
:100100009D720000AD9000009D7200009D72000085
:100110009D7200009D7200009D7200009D720000A3
:100120009D7200009D7200009D7200009D72000093
:100130009D7200009D7200009D7200009D72000083
:100140009D7200009D7200009D7200009D72000073
:100150009D7200009D7200009D7200009D72000063
:100160009D720000B57800009D7200009D72000035
:100170009D7200009D7200009D7200009D72000043
:100180009D7200009D7200009D7200009D72000033
:100190009D7200009D7200009D7200009D72000023
:1001A0009D7200009D7200009D7200009D72000013
:1001B0009D7200009D7200002D870000564B4CF28E
:1001C000205210B51A804DF628121A8000BF00BFC9
:1001D00000F08AFB514B4FF010621A60504A9A604F
:1001E000504ADA60504A136813F4807304D14F49BF
:1001F0000B604FF4A85313604D4B1A78110703D5C9
:100200001A7842F008021A704A4B4B492A221A7097
:100210004A4A4B4B8B4204D252F8040F43F8040B6A
:10022000F8E7484B484900228B4202D243F8042B9E
:10023000FAE74649464A002352F8230041F82300D2
:1002400001336F2BF8D1434B434A802103F8011B44
:100250009342FBD1414B3D4A1A60414B8A221A70AE
:10026000A3F5805324225A70A0221A709A7992071B
:10027000FCD59A79D406FCD43A4A937903F00C035E
:10028000082B384BF9D103221A7140225A719A79FE
:100290009006FCD5334A9179324B4906FBD5324A58
:1002A000324911600221516020221A709A7902F0BD
:1002B0000C020C2AFAD12E4B2E4A1A602E4B4BF60A
:1002C0007F321A6000225A60072243F8042C2B4A1E
:1002D000C3F80C2D62B607F0C5F9144B1B68DA079A
:1002E00005D5274807F044F9264B274A1A60274BC3
:1002F0001B785B0609D5234C234B22689A4204D114
:100300001F4807F035F9002323600AF0ADF906F025
:10031000C9FF08F0FDFCFEE70E20054030800440D8
:10032000823F04000100002B10D0034014D0034092
:1003300002D0074000E00740B8FFFF1FE0270100A0
:1003400020EFFF1FB8FFFF1FE40B002000EAFF1F94
:100350000000000000E400E05FE400E008ED00E0E1
:100360000050064000400640448004400000131145
:1003700004800440C010050014E000E000002020CC
:10038000A7D9975A1CE00340A5C3945A00F0074030
:10039000FFFFFFFFFFFFFFFFFFFFFFFFFFFFFFFF6D
:1003A000FFFFFFFFFFFFFFFFFFFFFFFFFFFFFFFF5D
:1003B000FFFFFFFFFFFFFFFFFFFFFFFFFFFFFFFF4D
:1003C000FFFFFFFFFFFFFFFFFFFFFFFFFFFFFFFF3D
:1003D000FFFFFFFFFFFFFFFFFFFFFFFFFFFFFFFF2D
:1003E000FFFFFFFFFFFFFFFFFFFFFFFFFFFFFFFF1D
:1003F000FFFFFFFFFFFFFFFFFFFFFFFFFFFFFFFF0D
:10040000FFFFFFFFFFFFFFFFFFFFFFFFDEF9FFFF23
:1004100010B5054C237833B9044B13B10448AFF33E
:1004200000800123237010BDB8FFFF1F00000000F3
:10043000DC270100084B10B51BB108490848AFF391
:1004400000800848036803B910BD074B002BFBD0A0
:10045000BDE81040184700BF00000000BCFFFF1FB0
:10046000DC270100B8FFFF1F0000000000207047DC
:10047000704700BF027C02F0080202F0FF0332B1B5
:10048000C36A406A181A48BF6FF0004070471846A8
:10049000704700BFF8B55548554D564C297803783C
:1004A0002278DFF868E1544F544E120442EA0323E5
:1004B000FF222A700270802022708EF800003870AF
:1004C000B2794F480B4312F00C0FC36002D1B379DD
:1004D000DC063DD4494A9379C3F38103032B40D012
:1004E000464B9A79C2F38102022A42D0434A937959
:1004F000C3F38103022B53D0404A9379C3F38103A2
:10050000022B61D03D4A9379C3F38103012B51D073
:100510003A4A9379C3F38103012B5CD0374B9A7924
:1005200012F00C0F03D19A79D20600D49B79354D85
:10053000354B2A7853F82240D4B1236820469B6873
:1005400098472B7804EB83046468002CF5D1F8BD40
:10055000B3799806EBD5294A9379C3F38103032B2A
:10056000BED19379D906BBD493799B06DFD4B7E784
:10057000F8BD9A79D706B9D49A799606B6D559783E
:1005800001F0020101F0FF020029AFD120211A7011
:100590001A461970937903F00C030C2BFAD1C6E7B5
:1005A0009379DD06A8D493799C06A5D4537898074F
:1005B000BDD5A1E79379DF06AAD593799E06A7D486
:1005C00053789D07B3D4A3E79379D9069AD4537887
:1005D0009B07ACD496E79379DC069FD59379980670
:1005E0009CD453789907A2D598E700BF06C007406E
:1005F00005C0074007C0074009C00740004006404B
:10060000BC0B0020940800205408002008C00740BC
:1006100090F92410104B03604B1C06D0F0B40F4E21
:1006200056F82130984201D0F0BC70470C4F57F873
:10063000213033B18D0000245A1953685460002BC7
:10064000FAD1084C23780022013B237047F821207F
:1006500046F82120E8E700BF3418010074080020A4
:10066000540800209508002038B590F924506B1CE0
:100670001BD00E4B0E4953F825400E4BEDB24FF0F8
:10068000FF320D701A6084B1AD0002E02C44646842
:100690005CB194F82530002BF8D0236820462C4418
:1006A0001B6898476468002CF3D138BD54080020BB
:1006B0009408002090E9FF1F704700BF90F92410B4
:1006C000104B03604B1C06D0F0B40F4E56F821308F
:1006D000984201D0F0BC70470C4F57F8213033B12D
:1006E0008D0000245A1953685460002BFAD1084C2D
:1006F00023780022013B237047F8212046F821206F
:10070000E8E700BF341801007408002054080020F6
:100710009508002090F92410104B03604B1C06D064
:10072000F0B40F4E56F82130984201D0F0BC70471B
:100730000C4F57F8213033B18D0000245A195368FB
:100740005460002BFAD1084C23780022013B23701F
:1007500047F8212046F82120E8E700BF34180100BF
:10076000740800205408002095080020083003F089
:10077000BFBD00BF103003F0BBBD00BF00B583B0EC
:1007800002AB012203F8011D0830194603F0B0FD49
:1007900003B05DF804FB00BF00B583B002AB0122DB
:1007A00003F8011D1030194603F0A2FD03B05DF8F7
:1007B00004FB00BF2DE9F0410E46804606F0D2FE54
:1007C000174D286005F0FCFA0746286805F0EAFA9C
:1007D0000446286805F0D8FA6401C0B204F4FF5456
:1007E000BFB20443A7F2BC7744EA4724A8F800400C
:1007F000286805F09FFA0746286805F0A9FA04461C
:10080000286805F0B3FAFF02640107F4FF2704F437
:10081000FF54C0F346003C4304433480BDE8F081FC
:10082000C4040020103003F085BC00BF00B583B0C5
:1008300001220DF10701103003F0B6FB01280CBFB7
:100840009DF807004FF0FF3003B05DF804FB00BFD8
:10085000103003F047BD00BF083003F043BD00BFB8
:1008600000B51B48ADF5017D02F0A2FD4FF480728A
:100870000146684606F014FA154802F0B7FD144820
:1008800002F096FD4FF4807201460DEB020006F077
:1008900007FA0F4802F0AAFD69464FF400720D48AE
:1008A00003F026FD01300BD00B480C4902680B68A1
:1008B0000132013302600B600DF5017D5DF804FB30
:1008C0000121142006F09EFC054B064A1A60EBE756
:1008D000D80400208C040020D40400201807002035
:1008E0000CED00E00400FA05404A414B1020108056
:1008F0001B781B072CD5F0B53E4E3F4D3F4C317851
:100900002B7822783E4FDFF810E1824042EA032341
:100910000B43FF22802132702A7022708EF8001063
:100920003970DF07374A0CD51A239360364D374CA0
:100930003748384900232B70D360237003700B7045
:10094000F0BD1E0705D4DD0606D504239360EDE750
:10095000704721239360E9E79C0604D4590604D527
:1009600016239360E2E79060E0E71F0602D50923B3
:100970009360DBE7DE0502D50A239360D6E79D0589
:1009800002D50D239360D1E75C0502D50B2393605C
:10099000CCE7180502D51E239360C7E7D90402D51A
:1009A00002239360C2E79F0402D507239360BDE74B
:1009B0005E0402D506239360B8E71D0402D5152313
:1009C0009360B3E7DC0302D524239360AEE798037A
:1009D00002D522239360A9E7D90202D5252393608B
:1009E000A4E79B0244BF232393609FE700200540B8
:1009F00002D0074005C0074006C0074007C00740B7
:100A000009C00740BC0B002000C0074001C00740E0
:100A100002C0074003C0074008C00740002976D045
:100A20002DE9F04F0C469100631883B05D68002DEE
:100A300057D06B185E68002E50D073185F68002F77
:100A400049D07B18D3F80480B8F1000F3CD008EBF4
:100A50000103D3F80490B9F1000F32D009EB010380
:100A6000D3F804A0BAF1000F27D00AEB0103D3F8A2
:100A700004B0BBF1000F18D00BEB01035B6863B14E
:100A8000194401934968FFF7C9FF019B93F825209A
:100A90001AB11A681846536898479BF8253023B155
:100AA000DBF8003058465B6898479AF8253023B148
:100AB000DAF8003050465B68984799F82530002BEB
:100AC00035D198F8253063BB97F825301BB13B68CA
:100AD00038465B68984796F82530CBB995F82530AD
:100AE00063B994F8253013B903B0BDE8F08F2368DB
:100AF0005B68204603B0BDE8F04F18472B682846D6
:100B00005B68984794F82530002BEDD0EFE77047ED
:100B1000336830465B68984795F82530002BE0D065
:100B2000ECE7D8F8003040465B689847CCE7D9F846
:100B3000003048465B689847C3E700BF90F924201F
:100B4000531C26D01B4B2DE9F04153F82240D2B262
:100B5000ECB19300E1184D68B5B1E9184E6866B183
:100B6000F1184F6837B13B445968FFF757FF97F8C2
:100B70002530A3B996F8253063B995F825301BB117
:100B80002B6828465B68984794F8253063B9BDE820
:100B9000F0817047336830465B689847EDE73B6803
:100BA00038465B689847E5E7236820465B68BDE800
:100BB000F04118475408002008B5054802F0C6FB6C
:100BC000012803DDBDE80840FFF74ABE08BD00BFAD
:100BD000D804002008B50849084A094B0988118043
:100BE0000848002283F8F62003F07AF86420BDE874
:100BF000084006F0E9BC00BFD4090020AC09002081
:100C0000D80400208C04002070B58EB00EAD124BBD
:100C100045F8343D00244623104A11498DF814400C
:100C200005A84FF47A768DF815408DF808408DF8B8
:100C30001040039603F058F99DF8143053B129225F
:100C4000084905A803F054FB284607F02FFF05A824
:100C500003F046F80EB070BDF81701004C18010003
:100C60001004002054180100F0B5214BB0F90860C1
:100C700059689A68054685B0186801AC07C406F142
:100C80001E03B2074FEAA307297929D04FF0000EBF
:100C9000184E194ADC1B06FB07F302FB043301293B
:100CA00003EB0E0209DD01AB481E144C184413F887
:100CB000011B984204FB0122F9D16B78AE782C78A5
:100CC000E9780E48C3EB03134FF461659B0005FB05
:100CD00006332344013900FB0130104405B0F0BD58
:100CE000064A032934BF4FF0000E9646D0E700BFF6
:100CF000401801000085E2018033E10180510100CC
:100D000070B472B61B491C4B1C4841250E2480222E
:100D10000D70047019461A700B78174A1806FBD527
:100D2000174B18481D78184C18490570033B247858
:100D300009781B78C3704470817062B672B60D4931
:100D40000E4C41260F2580230E702570114613701E
:100D50000B781B06FCD50A4C0B490C4A0C4B24782B
:100D6000097812781B78C37104714171827162B67F
:100D700070BC7047070002400000024006000240BD
:100D80000B000240440600200A0002400900024015
:100D90000800024038B500250824152006F052F955
:100DA00009F07CF84FF06A5109F0CCF8014628466A
:100DB00008F0C0FF0546022006F006FC013CECD11D
:100DC0002846044909F0BEF84FF0785109F0BAF806
:100DD00038BD00BFCDCCBC402DE9F04F93B006F03C
:100DE000C1FB964C964D206004F0DCFF2B689842C6
:100DF00000F0B5812068934E934F04F0D3FF286034
:100E0000206804F0DDFF2B689049024690480AF004
:100E100091FA002501238E4A8E49376005A88DF886
:100E200014508DF8155003F005F80021152006F038
:100E3000C5FB2068DFF8649204F0A6FF0546206831
:100E400004F078FF8246206804F082FF8046206824
:100E500004F08CFF2B467E4A7F490290CDF800A01B
:100E6000CDF804807D480AF065FA3760FFF792FFFD
:100E7000002146238DF824108DF825108DF81810C8
:100E80008DF8201006464FF47A7409A8744A714907
:100E90000794CDF8149003F027F89DF82430002B28
:100EA00040F000810121142006F0ACF96D4B6E4A30
:100EB0001A604FF47A750024C223684A6549079581
:100EC00009A809AD8DF824408DF825408DF818400B
:100ED0008DF82040CDF8149003F006F80FCDDFF820
:100EE000C0819DF8184088F8044008F110040FC430
:100EF0000FCD0FC4079A9DF820302968C8F8082044
:100F000088F80C30554821600AF07AFA01465348B7
:100F1000564FDFF850B1DFF850A107F0FFF9544801
:100F200007F0C4FD642006F04FFB46463AE03B68FC
:100F300001331A464FF47A753B600AF0FBF9C2237D
:100F4000464A4449079509A809AD8DF824408DF813
:100F500025408DF818408DF82040CDF8149002F00F
:100F6000C3FF0FCD434C9DF818E086F804E00FC492
:100F70000FCD0FC49DF82030079A33732968B260F3
:100F8000364821600AF03CFA0146344807F0C6F9B9
:100F9000374807F08BFD0A2006F016FB3B68B3F5D7
:100FA0007A7F44DC98F8104033492C48002CBED09E
:100FB000324833490768334C334A344B344D03C904
:100FC000206092E80300A06093E80300102601234C
:100FD000A382E382E0602661384609F09FF9394632
:100FE000A061384608F0A6FE09F098F9294AE061A8
:100FF0002B68668492E803005B0203F124062C222E
:101000006062214602271B48A3622784666003F0C2
:101010006FF90921204807F081F92968144807F081
:1010200095FD134807F042FD13B0BDE8F08F012194
:10103000142006F0E7F8CBF800A0B3E7C4040020C2
:101040002407002050080020B50700008018010088
:10105000D4050020100400208C1801008406002014
:101060004C1801000CED00E00400FA05D00500204A
:1010700058F5FF1F8C040020D018010010F0FF1F4E
:10108000DC18010060070020E4180100EC180100E2
:10109000D8060020F4180100FC180100F817010020
:1010A0007C0400203B483C4C0AF0AAF9394902462E
:1010B00009A803F01DF912A92C2301F8383D0122DB
:1010C00009A803F015F904F1080514F8011F00231D
:1010D0000A2205A807F0FAFCA542F6D112A92C2491
:1010E000012201F8354D09A803F002F92B4B1868CD
:1010F00008F07EFA02250B460246009505A807F087
:101100002FFD12A9012201F8364D09A803F0F0F8CD
:10111000304608F06DFA00950B46024605A807F028
:101120001FFD05A807F0C2FC12A9012201F8374DE6
:1011300009A803F0DDF81A480AF062F918490246D6
:1011400009A803F0D5F805A807F0B0FC304615490A
:1011500009F096F830B909A802F0C2FDA9E6124ECE
:10116000124F62E62822124909A803F0C1F805A827
:1011700007F09CFC09A802F0B3FD03E047F23050F1
:1011800006F022FAFFF706FE064909F079F8002872
:10119000F4D1E0E784060020430600205406002036
:1011A00004F0FF1F0000404050080020B507000079
:1011B000A418010010B5064CFFF70EFE054B0022E7
:1011C00020461A6002F0CEF8012384F8F63010BDF4
:1011D000D8040020D404002070B58EB004460AF074
:1011E0000FF900B201281BDDB4F9003044F253724C
:1011F000934200F0A08016DD44F65452934260D032
:1012000045F25322934227D044F65212934207D11B
:101210000BAAE01C4D490AF0B3F84D4B0B9A1A602B
:1012200001200EB070BD44F24E4293420ED044F203
:1012300052429342F4D10BAAE01C44490AF0A0F8B0
:10124000444B0B9A1A6001200EB070BD424B012234
:1012500001201A600EB070BD0AAD09A908AA05AB3D
:10126000039502910192009307AA06ABE01C3B494B
:101270003B4C0AF085F8079B0A98069A0599099E47
:10128000089D8DF82C00A3F5FA630BA8ADF8343057
:101290008DF830208DF82F108DF82D608DF82E50A0
:1012A000FFF7E2FC122120602E4807F037F8216892
:1012B0002D4807F04BFC2C4807F0F8FB01200EB03E
:1012C00070BD0AAD09A908AA05AB03950291019268
:1012D000009307AA06ABE01C20490AF051F8079BCF
:1012E0000A98069A0599089C099D8DF82C00A3F58B
:1012F000FA630BA88DF830208DF82F10ADF834303C
:101300008DF82E408DF82D50FFF7AEFC144B04469F
:10131000186006F02DF90B21144806F0FFFF214656
:1013200000230A22104807F0D1FB0F4807F0BEFB4C
:1013300001200EB070BD0BAAE01C04490AF020F891
:101340000B4B0B9A1A6001200EB070BD28190100DA
:1013500018F0FF1F14F0FF1FB4040020081901004B
:10136000CC0400202C19010058F5FF1F1C190100A6
:101370001CF0FF1F2DE9F043A3B000254FF47A764F
:101380006E4F6F4A6F490A96012319A817968DF878
:1013900030508DF831508DF824508DF82C508DF848
:1013A00064508DF865508DF858508DF8605008974E
:1013B000159702F099FD0DF1640EBEE80F000CAE1A
:1013C0000FC6BEE80F000FC69DF83080DEF8001093
:1013D0009DF85800179A9DF8603031608DF8240010
:1013E0000A928DF82C30B8F1000F46D02E468DF8B9
:1013F00000604FF000094FF0FF08012215A90CA86A
:1014000002F0D2FD09F1010322AA01284A441BB2CD
:1014100024D01D2B02F8888C05DC9946EDE71D2BA6
:1014200001DC0A2AF9D1013B9BB222AA1A4402F834
:10143000886C9DF800202F2A04D0012B02D9684621
:10144000FFF7CAFE9DF830301B0711D40CA802F03C
:1014500047FC2DBB012023B0BDE8F0839DF854204C
:101460000D2A08BF4B465AD11D2BDCDC9946C4E738
:10147000139A119B9A42BAD1E8E71421324806F038
:101480004DFF324807F012FB0D223149314807F079
:10149000F9FA304807F00AFB404623B0BDE8F08374
:1014A0000B212D4806F03AFF214600230A22274847
:1014B00007F00CFB0025254807F0F8FA4FF47A7680
:1014C0008DF864508DF865508DF858508DF8605047
:1014D00063231B4A1B49179619A819AD159702F0EB
:1014E00003FD0FCD0CAE0FC60FCD0FC62968179A9E
:1014F0009DF860309DF8585031600CA821460A9242
:101500008DF82C308DF8245002F048FE0222134949
:101510000CA802F0EDFE0CA802F0E2FB9AE722AB69
:1015200003EB0901542A09F1010301F8882C1BB2CD
:101530007FF475AF119C0546013C95E7F817010053
:1015400040190100100400205C19010058F5FF1F2C
:1015500074190100A00600204C190100581901005F
:1015600030B583B002AD079C05F8082D8DF8020058
:10157000069A8DF804304E3428468DF801108DF807
:1015800005208DF8064004F02BFC05F0F1FF05F076
:10159000E9FF024B186003B030BD00BFBC0400205F
:1015A0002DE9F041044604200D46164605F0F8FFEB
:1015B0008046032005F0F4FF0746B8F1000F2ED156
:1015C000DFF888801F4AD8F800300121132B1170F2
:1015D0002DDD0133C8F800300134BFB91A4F194A64
:1015E0003B680121132B11701DDD092CC8BF3B681E
:1015F00004F1FF34CCBF01330123AC423B600ADB72
:10160000B442C8BF2C462046BDE8F0810E4B0022F4
:10161000AC421A60F4DA34462046BDE8F0810B4B48
:1016200000221A60D9E7C82005F0CEFFDDE7C82008
:1016300005F0CAFFD8F800300133C8F80030013493
:10164000CBE700BFC80400201C070020E8060020EC
:1016500010B5094C204605F0E1F82046012104F0C0
:1016600033FE2046022104F029FE002220461146C6
:10167000BDE8104004F01EBEA006002038B50546A7
:1016800004F09EFB1E4C0146204607F05FFA2D2019
:1016900006F0C8FE284604F085FB0146204607F008
:1016A00055FA2D2006F0BEFE284604F06DFB0146DB
:1016B000204607F04BFA0121124806F02FFE28467B
:1016C00004F038FB0146204607F040FA3A2006F0C5
:1016D000A9FE284604F03CFB0146204607F036FAF6
:1016E0003A2006F09FFE284604F040FB01462046C3
:1016F00007F02CFA2046BDE8384007F0D7B900BF04
:1017000058F5FF1F0419010038B5054605F060FDC6
:10171000074C2070681C05F05BFD6070A81C05F08C
:1017200057FDA070E81C05F053FDE070206838BD3F
:101730005806002008B50020FFF7E6FF104B1860A0
:101740000420FFF7E1FF0F4B1860082005F040FD73
:101750000D4B1870092005F03BFD0C4B18700A204A
:1017600005F036FD0A4B18700B2005F031FD094BD2
:1017700018700C2005F02CFD074B186008BD00BF49
:1017800014F0FF1F18F0FF1F7804002058070020F6
:1017900080060020D0040020DC06002038B50A4C6A
:1017A0000B460546C9B2236005F02CFD6178681C24
:1017B00005F028FDA178A81C05F024FDE178E81CBF
:1017C000BDE8384005F01EBD5806002008B5124B94
:1017D00000201968FFF7E2FF104B04201968FFF79B
:1017E000DDFF0F4B0820197805F00CFD0D4B09208B
:1017F000197805F007FD0C4B0A20197805F002FD59
:101800000A4B0B20197805F0FDFC094B0C201978C8
:10181000BDE8084005F0F6BC14F0FF1F18F0FF1FEC
:10182000780400205807002080060020D004002003
:10183000DC0600202DE9F04F0546934E934FDFF86C
:101840005C8296F800E02F60FF2085F82400DFF826
:10185000509298F80000BEF1060F59F820E04FF0C2
:1018600000038DB00C4685F8253085F8263098BFEA
:101870003370BEF1000F00F0AD808E455ED0734630
:10188000810001E09C4259D00B445B68002BF9D1E8
:10189000734600E053460B44D3F804A0BAF1000F9E
:1018A000F8D15C603478029705EB010B4FFA80FCAD
:1018B000FF23062CCBF804A08DF82DA08DF82EA0C8
:1018C00085F824C08DF82C30744604D8002333707A
:1018D000002C00F0B480A24229D0234601E09342BC
:1018E00025D00B445B68002BF9D104EB010EDEF828
:1018F0000440002CF9D1CEF804200CAB1944BCF103
:10190000FF3F00F101034FF0000041F8240C88F87C
:1019100000308DF82CC0029705D05D4951F82C207D
:1019200002AB9A4276D028460DB0BDE8F08F013068
:1019300088F8000028460DB0BDE8F08F3178029796
:10194000FF24002306298DF82C408DF82D308DF8CA
:101950002E304D4C00D823709645E8D07346810058
:1019600001E09A42E3D00B445B68002BF9D18E442E
:10197000DEF804402CB1A6468E44DEF80440002C6C
:10198000F9D10CAB46B219440130731CCEF80420D7
:1019900088F8000041F8244C02978DF82C60C2D0E2
:1019A0003B4951F8262002AB9A42BCD159F8263067
:1019B000B00023B11A1853685460002BFAD198F87C
:1019C00000300022013B88F8003049F8262041F819
:1019D0002620A8E700283AD02D4B96F800E043F8DF
:1019E0002050810005EB010C002349F820408DF8C0
:1019F0002D30CCF804308DF82E304FFA80FCFF23C8
:101A0000BEF1060F029785F824C08DF82C307FF6C2
:101A10005DAF5DE759F82C304FEA8C0423B11A19F9
:101A200053685060002BFAD198F800300022013B37
:101A300088F8003049F82C2041F82C2073E798B141
:101A4000134B49F8202002AA43F8202055E71149FA
:101A50000192152005F0BEFC0F4B019A4FF40011C6
:101A6000196098F80000B7E70A490192152005F0BF
:101A7000B1FC094B019A4FF40011196098F800006D
:101A80004FFA80FC8100DBE794E9FF1F3418010066
:101A9000740800209504000000E100E09508002093
:101AA000540800202DE9F0415A4D5B4C5B4E05F087
:101AB00047FB04215A4804F09DFE2A682660002353
:101AC000637223612372E3600AB99EE01A46536988
:101AD000002BFBD154610027524B4F486761A78010
:101AE000E780236001F0CCFA4F4A4FF0010E02F17B
:101AF00018013B4638461772D760166082F809E035
:101B00001161174600E0396941F82300517A464EC9
:101B100001339942F7DC29683E4B09B977E0194651
:101B20004B69002BFBD14A61404B41491C600024AA
:101B3000184654619480D48082F8F4405A6082F848
:101B4000F5401160C2F8F04082F8F6401C725C72F9
:101B5000DC6006F0BBFD374A374B1168374A1A6024
:101B60000A221A724FF0874008F0A0FA344D354B24
:101B7000354E18604FF0FF08344B354A354985F82B
:101B800025400127284685F824802B6085F826709B
:101B90006C63AC6385F83C4008F054FD2E4B2C4A36
:101BA0002E4986F82480304686F82540336086F832
:101BB000267008F047FD2A4631462948294F2A4D0C
:101BC000FFF738FE224A2949254808F03BFD284AFC
:101BD000284B2949294814744FF47A769660642674
:101BE000547414711473DC7183F83C4483F83D44DD
:101BF00083F86A4483F860640C724C720C7117604D
:101C0000C3F86C540860BDE8F0812C6063E71E6087
:101C10008AE700BFA809002064060020EC17010035
:101C2000A0060020601B0100D80400202806002028
:101C30006C1B010010F0FF1F38060020441B010040
:101C4000DC0500201C0600202C070020141C0100CD
:101C5000FCEFFF1FBD060000281C01001507000057
:101C600050040020F817010001100138110600008F
:101C70007C040020D4FFFF1FEC0600201C1801008C
:101C800070B5104C06460D4620460A2101F052FF61
:101C9000C6F30721204601F027FDF1B2204601F0EE
:101CA00023FDC5F30721204601F01EFDE9B22046C1
:101CB00001F01AFD204601F04FFFB0FA80F0400914
:101CC00070BD00BF3408002008B500213020FFF7A8
:101CD000D7FF00210220BDE80840FFF7D1BF00BFB9
:101CE00008B5A2213020FFF7CBFF43210220BDE839
:101CF0000840FFF7C5BF00BF08B544F260013020BF
:101D0000FFF7BEFF6C212620FFF7BAFF4FF4F871F2
:101D10002820FFF7B5FF00212A20FFF7B1FF40F68A
:101D200022712C20FFF7ACFF44F246413C20FFF724
:101D3000A7FF40F237112420FFF7A2FFFFF7D0FFE3
:101D40004FF4C87005F040FC41F619112E20FFF742
:101D500097FF04210846FFF793FF4FF49871062080
:101D6000FFF78EFF00210A20FFF78AFF08210E20CF
:101D7000FFF786FF4FF63C711020FFF781FF47F613
:101D80007F712220FFF77CFF00214FF49270FFF754
:101D900077FF14212420FFF773FF00212A20FFF78B
:101DA0006FFF00212020FFF76BFF012008BD00BF5F
:101DB00010B52A4CFFF7A0FF22782948114601F000
:101DC0002FF823680F2B0CD8DFE803F00C10141841
:101DD0001C2024282C3034383C404408214B224A13
:101DE0001A6010BD1F4B214A1A6010BD1D4B204ABE
:101DF0001A6010BD1B4B1F4A1A6010BD194B1E4ABA
:101E00001A6010BD174B1D4A1A6010BD154B1C4AB5
:101E10001A6010BD134B1B4A1A6010BD114B1A4AB1
:101E20001A6010BD0F4B194A1A6010BD0D4B184AAD
:101E30001A6010BD0B4B174A1A6010BD094B164AA9
:101E40001A6010BD074B154A1A6010BD054B144AA5
:101E50001A6010BD034B134A1A6010BD1CF0FF1F1F
:101E60003806002054060020BD549341103377C03B
:101E7000993918C0BE0D68BFCE71153F8D0903405A
:101E8000CCC9624009A7A3407DDBD140C416014103
:101E900054FC1741D0E83041195546419FAB5F4192
:101EA000A04176415E2E86413021014804F0C8B938
:101EB000A006002010B5012204460749074806F095
:101EC000E1FD092C01DCFFF7EFFF21460348BDE8E7
:101ED000104006F03BBE00BFF0190100A006002034
:101EE00010B505F03FFB344B01211860334804F076
:101EF000E5F90121314804F0E7F9122200212F48C9
:101F000004F0D8F904222E492C4806F0BBFD2D4BD5
:101F10002A48196806F01AFE01222B49274806F0C4
:101F2000B1FD264806F0C2FD06222849234806F0E6
:101F3000A9FD274B2148196806F008FE0122224915
:101F40001E4806F09FFD1D4806F0B0FD214B1B68A2
:101F5000012B00D010BD204C20491848082206F063
:101F600091FD217809291FDD0A22002313481C4C0A
:101F700006F0ACFD1B4B1878FFF79CFF1A490F4881
:101F8000012206F07FFD2178092911DD00230A22B4
:101F90000A4806F09BFD154B1878FFF78BFF0748A2
:101FA000BDE8104006F082BDFFF77EFF2178DBE739
:101FB000FFF77AFF2178E9E7C4040020A00600209B
:101FC000A419010014F0FF1FAC190100B0190100A1
:101FD00018F0FF1FDC06002078040020B81901006B
:101FE0008006002058070020C4190100D0040020FA
:101FF00038B504460D462248012104F05FF92AB2A3
:1020000000211F4804F056F9204603F0D9FE01468E
:102010001B4806F09BFD2D21194804F011F92046BC
:1020200003F0C0FE0146164806F090FD2D2114482D
:1020300004F006F9204603F0A7FE0146104806F01A
:1020400085FD02220F490E4806F01CFD204603F0D4
:1020500071FE092801DCFFF727FF204603F06AFE26
:102060000146074806F072FD204603F071FEFFF7B7
:1020700021FF204603F07AFEBDE83840FFF71ABF83
:10208000A0060020C81901002DE9F04F87B0FFF726
:1020900051FB05F067FAB34BB34F1A68B34B386086
:1020A0009A4202D9AF4A3C231360DFF8F892AF4B53
:1020B000D9F80020DFF8F082AD4EAE4D9A4284BFD1
:1020C0003C23C9F80030AC4B1A78172A84BF002291
:1020D0001A70AA4B1A783B2A84BF00221A70A84BA8
:1020E0001A78172A84BF00221A70A64B1A783B2A46
:1020F00084BF00221A70D8F80030012B84BF00235F
:10210000C8F80030082005F04BFAA0B93368013355
:10211000336002E00A2005F057FA082005F040FA83
:102120000028F7D0D8F800302BB93368082B02DD2F
:102130008F4A00231360FFF78BFA05F013FA3C680F
:1021400033682860041B082B44D8DFE813F0D10162
:102150000A02B60177013901CD009400560009004A
:1021600003F004FE884B3B2200211860FFF718FAA9
:10217000854B864A1B68106098421ED0286803F081
:10218000D9FD8246286803F0E3FD804B83461A6838
:102190002868059203F0F8FD0490286803F002FE19
:1021A0000390286803F00CFE039900910190049BB2
:1021B000059A59465046FFF7D3F9754975480722E5
:1021C00006F060FC05F0CEF903F0D0FD0146714841
:1021D00006F0BCFCFFF784FE05F0C4F93721FFF7D9
:1021E00007FF6C4804F094FC0A2005F0EDF9B4F503
:1021F000167F87DD07B0BDE8F08F03F0A9FDDFF89B
:10220000ACB1DFF8ACA1CBF800003B220021FFF716
:10221000C7F9DBF80030CAF8000098421DD02868E2
:1022200003F088FD83462868DAF800A003F09EFDDD
:102230000590286803F0A8FD0490286803F0B2FD1B
:102240000390286803F0BCFD039900910190049B62
:10225000059A51465846FFF783F907224E494D48E3
:1022600006F010FC05F07EF903F072FD01464948C6
:1022700006F06CFCAEE703F05DFDDFF838A1172235
:102280000021CAF80000FFF78BF9DAF80030984215
:1022900083461BD0286803F05BFD8246286803F064
:1022A00065FD0590286803F06FFD0490286803F031
:1022B00079FD0390286803F083FD03990091019054
:1022C000049B059A51465846FFF74AF905223349BF
:1022D000304806F0D7FB05F045F903F02BFD014629
:1022E0002C4806F033FC75E703F04EFDDFF8C8B06C
:1022F000DFF8C8A0CBF800001F220121FFF750F93A
:10230000DBF80030CAF8000098421DD0286803F0BE
:1023100011FD8346286803F01BFD0590286803F033
:1023200025FD04902868DAF800A003F03BFD039037
:10233000286803F045FD039B009301905346049ADF
:1023400005995846FFF70CF904221549114806F083
:1023500099FB05F007F903F017FD01460D4806F05B
:10236000F5FB37E714F0FF1FBC040020A086010036
:10237000E4060020C4040020780400205807002050
:1023800080060020D004002028070020200600201E
:10239000141A0100A00600200C1A0100041A010002
:1023A000FC19010018F0FF1FDC0600206006002069
:1023B000C0040020E00600207C0600205C0700200E
:1023C00003F0F0FCDFF8F8B1DFF8F8A1CBF800007B
:1023D0000C220121FFF7E4F8DBF80030CAF8000016
:1023E00098421DD0286803F0A5FC8346286803F0B6
:1023F000AFFC0590286803F0B9FC0490286803F04E
:10240000C3FC03902868DAF800A003F0D9FCCDF8EB
:1024100000A00190039B049A05995846FFF7A0F885
:1024200006225D495D4806F02DFB05F09BF803F0A0
:10243000B9FC0146594806F089FBCBE603F0C0FC25
:10244000DFF884B1DFF884A1CBF8000040F6340255
:102450004FF4FA61FFF7A4F8DBF80030CAF8000087
:1024600098421CD0286803F065FC8346286803F076
:102470006FFC0590286803F079FC0490286803F04D
:1024800083FC0390286803F08DFCDAF80030049A8E
:1024900005998DE80900039B5846FFF761F805226E
:1024A0003F493E4806F0EEFA05F05CF803F088FC80
:1024B00001463A4806F04AFB8CE63A4AD9F8000051
:1024C0000021FFF76DF83849C9F8000004223348AD
:1024D00006F0D8FAD9F80010304806F037FB012290
:1024E00032492E4806F0CEFA2C4806F0DFFA71E6A3
:1024F000DFF8DCA09AF80030002B43D10A222C49E7
:10250000264806F0BFFA042005F04AF88246032068
:1025100005F046F8BAF1000F7FF45CAE00287FF4B6
:1025200059AEFFF795F8FFF751F90A2221491B48E8
:1025300006F0A8FA194804F0EBFA40F2DC5005F076
:1025400043F8FFF7CDFC05F00DF83721FFF750FDFC
:10255000124804F0DDFA0A2007B0BDE8F04F05F09C
:1025600033B8154B4FF4616201211868FFF718F872
:10257000114B124918600422084806F083FA0E4BEA
:102580001968A9E7FFF722F900238AF8003004F060
:10259000E9FF3860B2E700BFF4190100A00600208F
:1025A000EC19010080510100E4190100AC1901008F
:1025B000CC190100D819010014F0FF1FA419010063
:1025C0005407002024060020200700205C0600207D
:1025D000C80400202DE9F047974D2C681CB1012C50
:1025E00066D0BDE8F08704F0BDFF944F944E38608C
:1025F000FFF72EF80A229349934806F043FA9248CF
:1026000006F054FA30681421FFF7F2FC37213868DD
:10261000FFF7EEFC8C4804F07BFA04F0A3FF23469E
:1026200001460A22894806F051FA884806F03EFA27
:10263000874A3B681268934280F2E78032689A4288
:1026400033DC844C2368002B00F0ED800D218248A0
:10265000824C05F063FE7D4806F028FA804B814AE3
:1026600031681B68126880480B441A440E2132609E
:10267000236005F053FE04F075FFFEF7FFFF0B210A
:102680007A4805F04BFE2068FEF7F8FF0B217848EA
:1026900005F044FE3068FEF7F1FF0123AE216A48E1
:1026A0002B6004F0C3F8FEF785FD2C68012C98D14F
:1026B000FEF782FA6F4E704B32681B689A4290DBCD
:1026C000684B1F68002F00F0A680FEF783FA5C4B72
:1026D000DFF8D8911E68DFF8D881684F04F042FF18
:1026E000674A684B1268301A861A26EAE67683FB38
:1026F00006233344F017C0EBE32006F067FF06F033
:102700008BFD07F079FA604A604BC9F8000002FBC4
:10271000006683FB062333448246F017C0EB631048
:1027200006F054FF06F078FD07F066FAA0EB001201
:10273000034606EB8206514644483B60C8F80060F9
:1027400006F004FA414806F0B1F939683F4806F04E
:10275000FDF93E4806F0AAF9D8F800103B4806F00B
:10276000F5F93A4806F0A2F93B68D9F80010D8F814
:102770000020C3EB03139B004FF4616000FB0133A7
:102780001A44092A38DD1221414805F0C7FD2F48B7
:1027900006F08CF90021022004F0FCFE0E213D48D9
:1027A00005F0BCFD294806F081F9FFF78DFA1021EC
:1027B000394805F0B3FD254806F078F9642004F0A7
:1027C00003FF0E21354805F0A9FD204806F06EF9FB
:1027D000642004F0F9FE98F800303A7899F8001077
:1027E0002F4803F09DF92F4802F080FF2146022078
:1027F00004F0D0FEFFF774FA01233C2202211248B4
:1028000004F07CF800232B60EBE60121052004F0A6
:10281000C1FE3B6812E7244801F062FAFEF7DCFAD9
:102820003760BDE8F0870A210E20FFF729FA4FF044
:10283000FF3323600AE700BF4C040020C4040020DB
:10284000CC0400201C1A0100A006002058F5FF1F30
:10285000B8040020B4040020281A01004C0600200F
:1028600014F0FF1F18F0FF1F381A0100481A01006A
:10287000541A0100D4040020D8060020500600207D
:1028800000F0FF1FC5B3A291F0F1FFFF898888888F
:10289000601A0100741A0100841A0100981A0100DC
:1028A000DC050020500400208C040020B00400202F
:1028B000480400202DE9F84F6A4D6B4CFEF720FAD2
:1028C0004FF4FA7004F080FE2968684800230A2259
:1028D00006F0FCF8654806F0E9F84FF47A7004F069
:1028E00073FE2968614800230A2206F0EFF85F486A
:1028F00006F0DCF84FF47A7004F066FE00230A223A
:1029000029685A4806F0E2F8584806F0CFF85848C7
:1029100000F090FF0121022004F050FE012114205C
:1029200004F04CFE0021152004F048FE002004F0C5
:1029300063FB0121022004F02DFE0121142004F08C
:1029400029FE0121062004F039FE0021062004F0B2
:1029500021FE0021062004F031FE0021042004F0B5
:102960002DFE0021032004F029FE0021082004F0A0
:1029700025FE0121042004F00DFE0121032004F0B6
:1029800009FE0121082004F005FE4FF4FA7004F05E
:102990001BFE04F0E7FD374B2060984202DC36480E
:1029A00004F0E6FD01233C2202213448344D03F0BB
:1029B000A5FF642004F008FEFEF74AFE0A22314912
:1029C0002E4806F05FF82D4806F070F82B4804F00A
:1029D0009FF80121062004F0F1FD0021062004F0FB
:1029E000D9FDFEF735FE0A222649244806F04AF8AA
:1029F000224806F05BF8214804F08AF8C82004F069
:102A0000E3FD0721204800F00DFE05F58C660E2140
:102A10001D4800F037FE304605F26C414FF0384358
:102A20000A2202F01DFBA8BB1C21184805F076FC09
:102A30000E4806F03BF8FEF70BFE122214490F4831
:102A400006F020F80D4806F031F804F08BFD372130
:102A5000FFF7CEFA094804F05BF84FF47A7004F0FF
:102A6000B3FDE8E700D00340C404002058F5FF1F81
:102A7000340800207FC1855680C18556A0060020FD
:102A8000D4FFFF1FA81A010020F0FF1F1C1B01002C
:102A9000081B010005F23C402E6001F021F90121E4
:102AA000284602F091F90146002800F0E680764DB4
:102AB00005F23C463046294601F070FA0028B3D0B2
:102AC00095F83C3413F0700FAED0704BDFF81082E5
:102AD0001E60FEF74FFC64216D486E4D6E4EDFF8B0
:102AE00004926E4FDFF800A2DFF800B205F01AFD85
:102AF000FFF75EF9FFF7C8FAFEF786F80021042019
:102B000004F048FD0021032004F044FD00210820CA
:102B100004F040FD0121042004F050FD01210320B8
:102B200004F04CFD0121082004F048FDFEF790FD63
:102B300004F018FD5A4A034682FB0321DA17C2EB60
:102B400061124FF4967101FB1232D8F80000236035
:102B50009B1A0B44534A2B600344136007F09EF901
:102B6000514B196807F0EEF94FF06E5107F0EAF992
:102B700007F0AEFB4D4B31681A68C9F800004C4BAA
:102B8000C2EB010929EAE97983FB09234B444FEAA7
:102B9000E970C0EBE32006F019FD06F03DFB07F0FD
:102BA0002BF8444B386003FB0099434B83FB09230C
:102BB0004B444FEAE970C0EB631006F007FD06F0E6
:102BC0002BFB07F019F8A0EB0013024609EB830377
:102BD00010213A48CBF80020CAF8003005F09EFBDF
:102BE0003968374805F0B2FFDBF80010344805F0CB
:102BF000ADFFDAF80010324805F0A8FF304805F0C4
:102C000055FF08212F4805F089FBD8F800102C4803
:102C100005F09CFF2A4805F049FF08212A4805F0E5
:102C20007DFB3168264805F091FF254805F03EFF01
:102C30000E21264805F072FB2068FEF71FFD0C21CF
:102C4000234805F06BFB2868FEF718FD2B68246805
:102C500020481C1B152105F061FB2146184805F092
:102C600075FF174805F022FF1B491C4B00204FF051
:102C7000FF3208601A60BDE8F88F284602F0A4F819
:102C800000287FF414AFCFE6D4FFFF1F4C080020CC
:102C90000082FF1FCC04002018F0FF1FB0040020AA
:102CA000B5814E1B4C06002010F0FF1F00F0FF1FE7
:102CB000C5B3A291F0F1FFFF89888888B41A01009A
:102CC00058F5FF1FC81A0100D41A0100381A010074
:102CD000E01A0100F01A01004C0400202407002033
:102CE00014F0FF1FD80600204804002050060020E2
:102CF000002070470020704738B5242908BFC280E3
:102D00000C46017A0E48154600F040FEC4F3072138
:102D10000B4800F0E9FCE1B2094800F0E5FCC5F31E
:102D20000721074800F0E0FCE9B2054800F0DCFCB0
:102D3000034800F011FFB0FA80F0400938BD00BF31
:102D40003408002038B5012504460571334800F0E9
:102D500071FD052004F038FC204644F26002302169
:102D6000FFF7CAFF20466C222621FFF7C5FF204649
:102D70004FF4F9722821FFF7BFFF204640F6227278
:102D80002C21FFF7B9FF204644F246423C21FFF7D1
:102D9000B3FF204640F237122421FFF7ADFF204653
:102DA00044F2FF023021FFF7A7FF732202212046E1
:102DB000FFF7A2FF4FF4C87004F006FC204641F66E
:102DC0001D522E21FFF798FF042211462046FFF7DF
:102DD00093FF20464FF498720621FFF78DFF20469F
:102DE00010220A21FFF788FF204600220E21FFF75C
:102DF00083FF204643F63C421021FFF77DFF20462B
:102E000047F67F722221FFF777FF204636222421E2
:102E1000FFF772FF6572284638BD00BF34080020F6
:102E20000F2928BF0F210F2A28BF0F2242EA0112C3
:102E30002021FFF761BF00BF38B50546F1B18029F9
:102E400003799ABFC1F1800444EA0424002433B911
:102E5000224628462221BDE83840FFF74DBFC288F0
:102E6000002322F0100203712421FFF745FF2246C0
:102E700028462221BDE83840FFF73EBF01230371F9
:102E800047F67F722221FFF737FFEA8842F01002EF
:102E9000284692B22421BDE83840FFF72DBF00BF7D
:102EA0000B4610B507490446184607F04BF806498B
:102EB00006F040FF07F032FA01462046BDE8104018
:102EC000FFF7BABF00000143EE7CFF3E10B5044699
:102ED00019B1012911D0002010BD55222021FFF782
:102EE0000BFF0028F7D0E28842F00402204692B29D
:102EF0002421BDE81040FFF7FFBE40F273122A21E3
:102F0000FFF7FAFE0028E6D0882220212046FFF7AE
:102F1000F3FE0028DFD0E288204622F004022421BC
:102F2000BDE81040FFF7E8BE10B5044605F0A4FC6C
:102F3000204610BD024A0349034807F083BB00BF87
:102F4000FCEFFF1F292F00008C0700201B4A1C4BA1
:102F500011681C48096970B499421279027009D24B
:102F6000194A127832B3194A4FF08041116003F5C3
:102F7000807402E01C46A3F58073154A1549126857
:102F80000D68AAB1A5B1144E3088402810D8410070
:102F90000A444030294402320231308033F9040BB4
:102FA00022F8020F9C4233F9020C21F8020FF5D8E7
:102FB00070BC704703F58074DFE700BF9C070020FA
:102FC00090E8FF1F1F8000409607002008E200E005
:102FD000A40700209807002094070020F8B50646B3
:102FE00005F0D0FA0446E8B105F0CCFA0546002811
:102FF0003AD072B61F4B1A887F2A19D8002C31D0CC
:103000001D490A6842B162B6204605F00FFB28460A
:10301000BDE8F84005F00ABB18480C601A8005604E
:1030200062B6F8BD054672B6124B1A887F2AE5D9FA
:10303000114A12491768146000220C681A800D604A
:1030400062B63946304605F01BFB384605F0EEFA0D
:1030500030462146012205F013FB2046BDE8F8402A
:1030600005F0E4BA62B6F8BD204605F0DFFA2C465A
:10307000BFE700BF94070020A407002098070020A6
:10308000F8B5284C284E2046012105F091FB00F0B0
:1030900083F8264B264A27484FF48061196023683D
:1030A00000211A6099802279186102F1804202F5AC
:1030B000043240F20110D8809E614FF480750220E6
:1030C00006278E26DD82D960DD8398609F839882F3
:1030D0001170167005F012FB1749184B2279184F22
:1030E00008701A7039682279164C174D174E41F046
:1030F000124141F00101531139609B00206803F136
:10310000604302F1100703F5614302F01F02012141
:1031100040F0104001FA02F2206045F827601A6082
:10312000F8BD00BF9C07002000FEFFFF14B0044064
:10313000A0F0024090E7FF1F960700201B80004090
:1031400080F0024000F0024000EAFF1F4D2F000017
:10315000024A0349034807F075BA00BFFCEFFF1F9E
:10316000292F00009C070020024A0349034807F06A
:1031700069BA00BFFCEFFF1F292F0000A80700203D
:10318000024A0349034807F05DBA00BFFCEFFF1F86
:10319000292F0000B0070020284B29491A68294828
:1031A00042F400421A600A6842F002020A601A6899
:1031B00042F002021A600368002B3DDB224B1B68C1
:1031C000002B39DB214A4FF0864313601368002B34
:1031D000FCDBF0B51E4C1F48DFF8ACE01E491F4B6E
:1031E0001F4A204F204E214D41F2100CC4F800C060
:1031F000002404600120CEF80000DFF890E0C1F860
:1032000000E04FF480311960194B1360DFF880E063
:10321000184A3A60346028601748CEF80000174C0E
:10322000B9671748174946F8503C4FF4C0632A6104
:10323000236003600B60F0BD704700BF3C8004401A
:103240004080044000F0024080F0024000F1024063
:1032500004F1024060F0024008F002400CF002402D
:1032600010F0024014F00240E0F0024084F002400E
:103270001B0F0100000F0F0F0300004708B00440B0
:103280000CB0044018B0044004F0024003000007F2
:1032900088F00240024A0349034807F0D3B900BF4F
:1032A000FCEFFF1F292F0000B8070020024A034946
:1032B000034807F0C7B900BFFCEFFF1F292F00002C
:1032C000C0070020024A0349034807F0BBB900BF0A
:1032D000FCEFFF1F292F0000C8070020024A034906
:1032E000034807F0AFB900BFFCEFFF1F292F000014
:1032F000D0070020024A0349034807F0A3B900BFE2
:10330000FCEFFF1F292F0000D807002010B5002177
:10331000044605F0CFF998B194F8F6308BB194F8E3
:10332000F43094F8F5200133342BC8BF00239342C6
:1033300007D09A1D04EB8202DBB2506084F8F430AF
:1033400010BDBDE8104005F071B900BF90F8F42041
:1033500090F8F530D0B2DBB2984238BF3530C01AA1
:10336000704700BF38B50546D0F8F00020B105F031
:103370005DF90023C5F8F03095F8F54095F8F43084
:10338000E4B2DBB29C420ED00134352C28BF0024BD
:10339000A31D05EB8303586805F048F995F8F43050
:1033A000DBB29C42F0D1DBB285F8F53038BD00BF0E
:1033B0000246D0F8F000B0B992F8F53092F8F41067
:1033C000DBB28B4210D00133342B86BF01460B4653
:1033D000D9B2063302EB83035868C2F8F00082F8D2
:1033E000F510043070470020704700BFD0F8F0306F
:1033F00043B110B50446184605F018F90023C4F887
:10340000F03010BD704700BF10B4047F4160022C43
:10341000C26002D010BC05F049BA836810BC1847DE
:10342000F0B4464B464A186BDC6A01791170454985
:1034300022790A709A6A00790870002A46D0596881
:10344000C9688A423ED82168CC8B240402F1FF303F
:1034500065D4C0F30E00C883C88B80B2C882196BD4
:103460000968C88B000452D4C2F30E00C883C88B0D
:10347000002480B212F1FF32C88218BF01229C6280
:10348000D96A2E4809680D6800F12404A54236D097
:103490000068C46814F0804F0C680D6815BF24885C
:1034A00024780235013544F000440D604463196B03
:1034B000254B09791970214912B1CA6A12791A701B
:1034C000F0BC7047521A9A620122D9E7586B19680A
:1034D00005681E4C0A63CC62CC682D681C4E24F033
:1034E00080440327B542CC6083F825701FD1037F49
:1034F0004260022BC2601ED0F0BC05F0D7B9016853
:1035000090F82400CC6840F000404863CFE7CC8BB3
:10351000C2F3080004F47E442043C883A7E7CC8BA1
:10352000C0F3080004F47E442043C88394E72B468C
:103530001146F0BC18478368F0BC184720F0FF1F05
:103540001F8000401C8000401B80004000000FFFD7
:103550000934000090E80C00F0B41C685968256834
:10356000164F174E29432160164D17491760D66034
:1035700015611160417A154A5C180A3194F82440AB
:1035800053F8215002EBC40149680D60017A5C18C0
:1035900003EB8101247ECD6902EBC40149680D6013
:1035A000817A581803EB810390F83000596B02EBD5
:1035B000C002F0BC53681960704700BF01401F0093
:1035C000011000380110007800001F80EC2101007C
:1035D0004268036805CA10B4046822430260D868D0
:1035E000840100F0E06205D5080900F4706021F460
:1035F00070410143D8681143814209D01A685004D0
:1036000008D40748186041F08040D96018611A60FA
:1036100010BC704741F08042D96010BC1A617047FD
:1036200001401F004268437A134493F824308B42D0
:1036300009D0F0B492F824408C4205D092F825408D
:103640008C421AD0F0BC7047002421461668556899
:1036500036682E420FD00A4D05EBC30300275E6883
:103660005318376093F8243005EBC3050A316B68B3
:1036700052F821201A604472E4E701242146E5E76C
:10368000EC2101004268837A134493F830308B4276
:1036900009D0F0B492F830408C4205D092F8314015
:1036A0008C421BD0F0BC7047002421461668556838
:1036B00036682E4210D00B4D05EBC30300275E6821
:1036C0005318376093F830300C3105EBC30502EB2B
:1036D00081026B6852681A608472E3E70124214614
:1036E000E4E700BFEC2101000A4B1B7813B90A4B39
:1036F0001B786BB1094A1378202B07D810B4581CDB
:10370000074C1070E154012010BC70470123037175
:1037100000207047460800200908002047080020C4
:10372000E8070020704700BF024A034B10781B785F
:10373000C01A70474508002044080020064A07497F
:1037400013780978994204D90548591CC05C117056
:1037500070474FF0FF3070474408002045080020B4
:103760000C080020054B064A1B7812789A4286BF47
:10377000044AD05C4FF0FF30704700BF440800207F
:10378000450800200C08002070B50D4B1B7814462E
:1037900013B90C4B1B788BB10B4E3578C5F1210357
:1037A000A34202D201221C46027108482246284444
:1037B000254403F075FA3570204670BD184670BD7B
:1037C000460800200908002047080020E8070020DC
:1037D000124BDB7803F020034BB1114A137801330D
:1037E000DBB2012B137012D9122003F077BE10B593
:1037F000122003F0FF0403F071FE0A4B1B685BB15B
:1038000009490A4A0C701078BDE810401847084B67
:103810001B78002BE8D0704710BD00BF0060064049
:1038200030080020E407002044080020450800205C
:10383000090800200D4A0E4BF0B500200D4C107009
:103840002268DFF838E00C4F42F0400222604FF46B
:10385000197127260425202480229870CEF80010A4
:1038600039605E709D715C719A70F0BD090800202E
:10387000006006403480044008A004400CA00440CE
:1038800010B5384CE378DBB2D80623D510225906A0
:10389000E2701ED503F0040303F0FF02002B33D0C7
:1038A000314B32491A68324C00230B702370002AC6
:1038B0003BD090472378002B37D02E4B1B78294ADA
:1038C0002D49D02494701371264B012002220870D8
:1038D000DA7010BD5A06DDD4A27802F0100202F0B0
:1038E000FF0042B313F001031BD1234920480A789B
:1038F0000078904281BF1F4B501C9B5C0870237165
:10390000184BD0229A7008E01C48164B17490270D9
:103910000120C02208709A701B79124B0222DA70C3
:1039200010BDC023A3702379F7E7124900230122B9
:103930000B702270C3E7124B124918700322122039
:1039400003F050FD0D4923790A781F2ADBB2E4D831
:10395000064800780028E0D00B4C501CA354087097
:10396000DBE700BF006006402C080020E0070020D5
:1039700047080020E80700204808002045080020EC
:1039800030080020D13700000C0800200548064A06
:1039900010B40123054C037049001370217010BC52
:1039A000704700BF4608002047080020E8070020B5
:1039B0002DE9F047584C1223E370A37803F020035D
:1039C00082B0002B54D0B423DFF860A1A370DAF8E2
:1039D0000020514C0020E378DBB2934218BF012055
:1039E0009F061A46F7D5002840F08D804B4B1B7878
:1039F000002B34D003F1FF3C5FFA8CFC0027DAF88F
:103A00000020DFF82CE1444D0CF1010C3C464FF056
:103A100002081EF8013F2B715FFA87F9104601E09A
:103A20009E0608D5EB78DBB293421CBF18460124F2
:103A30009E071A46F4D585F80380EE78F6B2B342B5
:103A40000EBF024632460124F30633D4B30631D505
:103A5000F30744D401376745DBD1002C4AD100205D
:103A600000292ED12E4B00221A7002B0BDE8F0873B
:103A70002C4DDFF8B8A003F0FF022B680093009EE6
:103A8000DAF8000005E02B680193019B9B1B0F2BCC
:103A90001BD8E378DBB2834218BF012213F0200F5A
:103AA0001846F0D192BB20481B4B0024B022047072
:103AB0009A708CE70CBB184B80229A700420002966
:103AC000D0D0154B80229A70CCE7CAB9124B002196
:103AD0008022042099709A7002B0BDE8F087C4B9C2
:103AE0000D4BB9F1000F4FF080020CBF02200320F4
:103AF0009A70B7E7CAF80020B1E7CAF80020DAE701
:103B0000CAF80000E2E7CAF800306FE7CAF80030F0
:103B1000C9E7CAF80020E3E7006006404708002034
:103B200046080020A80800200908002058F0FF1FC0
:103B3000E70700200548064A10B40123054C03702E
:103B400049001370217010BC704700BF4608002068
:103B500047080020E80700200121FFF729BF00BF28
:103B6000044B054A1A604FF47A71002299601A7169
:103B70001A73704734080020F01B010038B5044662
:103B80000D462422002107F081F9A560EB79102B66
:103B900008D0202B04D1402301202370A07038BD11
:103BA000002038BD202301202370A07038BD00BF45
:103BB0002DE9F041037803F020032BB903F0FF0453
:103BC0004269204B9A4203D900263046BDE8F08175
:103BD00083780169054663F07F038068AB7005F167
:103BE000100201F099F806460028EDD02969A8686E
:103BF00001F02EF80746A86839462430052200F067
:103C0000F1FF80460028DFD04FF40072214607F014
:103C10003DF9AB681A79012A0FD9012403E0AB689A
:103C20001A79A24209D9E1191868424601F074FBD9
:103C30000134E4B20028F2D1C6E76B6903EB4222FB
:103C40006A61C2E7FFFD1F0010B5044680680A469E
:103C50002430A16900F0C6FF20B1A38803F00F0350
:103C600000EB431010BD00BF38B590F90230002BB7
:103C7000044612DBA56805F1240000F0E1FF28B935
:103C8000637843F001036370002038BD05F50C70C4
:103C900000F0D6FF0028F3D038BD0121FFF7D4FF94
:103CA00005460028ECD00378E52BE9D023780B4AB1
:103CB0001B0744BFE369C361236A126843831B0C7B
:103CC00083822AB100F11601183090472B8B6B824A
:103CD000A37803F07F03A370CCE700BF5008002057
:103CE00010B5037804461BB900232370012010BDD2
:103CF000FFF7BAFF0023237010BD00BF2DE9F0438A
:103D00000D7815F0700F89B003D1002009B0BDE81F
:103D1000F083C32304460D4600F05EFD0028F4D076
:103D200001221023A27023702046FFF741FF0028D4
:103D3000EBD0237822692262002B6ED1012120462C
:103D4000FFF782FF06460028DFD01023C372826887
:103D50007168F3680068B6F81480B6F81A906F4678
:103D60000FC77169B269F369306908AE0FC72E23B6
:103D700006F8203D0DF10A013346202203F8012FF9
:103D80008B42FBD1216AA06800F062FFA368014664
:103D9000012203F1240000F025FF86460028B4D05C
:103DA0003746ADF81480ADF81A900FCFCEF800006A
:103DB000CEF80410CEF80820CEF80C300FCFCEF895
:103DC0001000CEF81410CEF81820CEF81C302B6A54
:103DD000ADF81A302E221B0C3546ADF814308DF894
:103DE00001200FCD0EF12006CEF820007160B260E8
:103DF000F3600FCD30617161B261F361A46804F1C9
:103E0000240000F01DFF00283FF47FAF04F50C7084
:103E100009B0BDE8F04300F013BF636913B100239C
:103E2000236163612046FFF71FFF00283FF46DAF59
:103E300084E700BFF0B5064693B0357801920020C4
:103E40008DF824008DF825002DB91F460B7813F04E
:103E5000700F0C4602D1002013B0F0BD13782F2B49
:103E6000104628D001AA03A900F034FB03AA21467A
:103E700001230028EFD0019D2D783046002D2CD055
:103E800000F0AAFC40B9002FE5D0214603AA304635
:103E9000FFF734FF0028DED035460FCD09AC0FC444
:103EA0000FCD0FC433782A68226093B90023337092
:103EB000019809ACD6E70130019003782F2BFAD096
:103EC000A16809A8FFF75AFE0028C4D0019809ACE0
:103ED000C8E73046FFF7C8FEE8E703AA21463046A8
:103EE000FFF70CFF13B0F0BDF0B5064693B0357880
:103EF000019200208DF824008DF825002DB91F4671
:103F00000B7813F0700F0C4602D1002013B0F0BDF7
:103F100013782F2B104616D10130019003782F2BE8
:103F2000FAD0002B34D0A16809A8FFF727FE00289B
:103F3000EBD0019809AC06E03046FFF795FE002370
:103F40000198337009AC01AA03A900F0C3FA03AACF
:103F5000214601230028D8D0019D2D7830467DB11F
:103F600000F03AFC354609AC0028CED00FCD0FC486
:103F70000FCD0FC433782A682260002BDFD0DBE737
:103F80003B4603AA2146304600F026FC13B0F0BDA4
:103F9000A1683046FFF7F2FDB8E700BF03780BB128
:103FA00000207047FFF7EABD2DE9F04F0F4601787A
:103FB00083B0054611B18378DC0708D46B784FF0E5
:103FC000FF3043F002036B7003B0BDE8F08F0B07C6
:103FD000914600F18580880608D5AA686B69128928
:103FE000C3EB42139BB2994528BF9946B9F1000F24
:103FF00000F094806B698A064E464FF0000805F188
:10400000100AC3F3080B3DD5AA68116A01EB5321CE
:10401000BBF1000F50D1B6F5007F4DD3D36A994262
:104020004AD0B6F5806F64D328788006C6F3472B54
:1040300006D41079C8EB0000C0B2834528BF834680
:1040400099424FEA4B240BD85B44994208D202F1C3
:104050002400019100F0F4FD0028AFD0AA68019976
:1040600010685B463A4601F00FF90028A6D06B694C
:10407000361B234427446B6150D029788A06C3F34A
:10408000080BC1D4A86890F8058008EA5328BBF152
:10409000000F2CD1B8F1000F29D1002B33D14C06E1
:1040A0004CBF016A296A296100F0D2FDAA6808EBB9
:1040B0000001BBF1000FAED002F12400002200F09D
:1040C00091FD00283FF47AAFCBF50074B44228BFCD
:1040D000344600EB0B012246384602F0E1FDC6E70C
:1040E000EB696A699B1A994528BF99467EE7296959
:1040F000DAE710683A4601F06DF800283FF45EAF49
:104100004FF40074B3E75246296900F0A7FD002878
:10411000FFF654AF08D0A8682969C5E70026C6EBAA
:10412000090003B0BDE8F08F2B7813F0700FF6D1C3
:1041300044E700BF70B582B001220DF107010446CB
:1041400046690569FFF730FF012805BF9DF80700A4
:1041500066614FF0FF30256102B070BD30B5436934
:10416000C3F3431583B0044605B189B901220DF1AB
:1041700007012046FFF718FF40B201280BD1636901
:104180001F336361A068303000EB451003B030BDD1
:1041900020334361F6E7002003B030BD2DE9F04144
:1041A00003780769044693B142698A420E4636D0C5
:1041B00021B9216166610120BDE8F08118070AD4A8
:1041C00099060BD5A3681B89B6EB431FF2D927616B
:1041D0000020BDE8F081E1698E42F8D8D4F808E00B
:1041E0009EF80650511E05F10900751EC140C540DC
:1041F000A94200D8B2B95B064CBFDEF82030236A72
:10420000236104F110084246002DD3D02169A06833
:1042100000F024FD002805F1FF35F4DCD7E701208C
:10422000BDE8F0816D1AECE72DE9F04188461546AE
:104230000021242204461E469DF8187006F026FE32
:10424000D8F80800D8F82030E36005F00F025201DA
:1042500000F130011144A060A580CB7A1B0714D473
:10426000831893F83B3003F017032370C97AE77083
:1042700011F0180F04BF43F00803237016F0320F3B
:1042800007D0237813F0110F03D000202070BDE871
:10429000F08106F00F05A5700244C36AA361B2F86D
:1042A0004410B2F84A30F70643EA014107D42162CC
:1042B000D36CE361B30607D40120BDE8F08151B9A6
:1042C00065F07F05A570F5E7E1692046FFF766FF19
:1042D0000028F1D1D9E700F05BFD0028D5D0A57802
:1042E000EEE700BF03780BB1FFF7BEBC01207047BB
:1042F0002DE9F84F03781E0704466ED583789D0795
:104300006BD55B070F46904600F1CB806369DA43BB
:10431000904562D8B8F1000F00F0B48046464FF0E7
:10432000000932E0002940F08180216A002900F074
:104330008880216100F08CFC0146B6F5007F54D3E3
:10434000B6F5806F65D3A2681379D06A5B1BDBB2C8
:10435000C6F34725AB4228BF2B4681424FEA43258F
:1043600008D81844814205D282F824904FF0FF30DB
:10437000D062A26810683A4601F046F868B36369F3
:10438000761B2B442F4463617CD0A068216945795A
:1043900015EA5325C3F3080A34D1BAF1000FC1D08E
:1043A00000F056FC0146CAF50075B54228BF3546F7
:1043B0000122A068243000F015FC70B150442A4658
:1043C0003946AA4402F06CFCBAF5007FD7D1A06848
:1043D000243000F035FC0028D1D1637843F001038C
:1043E00063704FF0FF30BDE8F88F6369E269B6F59E
:1043F000007F354628BF4FF40075934234BF012239
:104400000522D6E700F024FC2918BAF1000F94D059
:10441000C9E7A368DA6A914221D018683A4600F0E9
:104420007BFF0028D9D04FF40075A8E704F1100BEA
:104430005A4600F013FC0028CFDB17D0A068216992
:1044400078E7A37863F07F03A37004F1100200F013
:1044500063FC0028C1D021692162A0686AE783F863
:1044600024904FF0FF32DA62A368D6E7A37821697F
:10447000A06863F07F035A46A37000F04DFC00284B
:10448000DCD1AAE7E2699A4212D2A278E36142F053
:104490008003A3701A0701D523788BB94046BDE885
:1044A000F88FE169FFF77AFE00287FF42FAF94E7D9
:1044B000074B1B6853B1A37843F08003A370E9E76F
:1044C0002046FFF7D1FB0028E8D186E7A378E1E793
:1044D000500800202DE9F04F0378202B03D110F86D
:1044E000013F202BFBD088600378002B00F0078170
:1044F0002F2B2FD05C2B22D0A3F12204E4B21D2C51
:1045000020D9DFF818E2461C00247C2BA3F12005FB
:10451000374614D05E2D12D816F8013BA3F12205C0
:10452000EDB20134002B00F0D3802F2B13D05C2B85
:104530002EFA05F703D01D2DE7D8FF07E5D500209B
:10454000BDE8F08F754D25FA04F4E407D9D50020B5
:10455000BDE8F08F002407193E4625462F2302E0D0
:1045600016F8013F0135202BFAD02F2BF8D0054447
:1045700015604CB13A4612F8013D2E2B02D0202B8B
:1045800040F0A980013CF6D14FF0FF3523464B6047
:1045900001F1170601F10C03202203F8012FB342A9
:1045A000FBD1461E002200E0013216F8013F2E2BFF
:1045B000FAD0202BF8D0B2FA82FC6E1C4FEA5C1CB9
:1045C0000CD0475D2E2F00EB050604D106E016F84F
:1045D000017D2E2F02D015F1FF35F8D2A2424FF007
:1045E000000980F291804E46CA4607274FF008081E
:1045F00025E02E2B47D0222B0BD07C2B09D0A3F10A
:104600002A0EBEF1050F48D9A3F13A0EBEF1050FEF
:1046100058D8954239D0B74229D34FF0000C5F23C8
:1046200006F1010E01EB060B5FFA8EF6062E8BF8F3
:104630000D3000D80E730132A24207DA835C202BC2
:10464000D7D10132A2424FF0000CF7DB4B7B202B7D
:104650003FF475AFBCF1000F47D01AEA090F18BF3D
:104660004FF0020981F800900120BDE8F08F0A2F79
:1046700037D0954235DB2A460A2708264FF0100826
:104680004FF0000CD7E79542DBD10A2F29D02A46FC
:104690000A2708264FF01008CDE72D2BB9D1A3F13A
:1046A000210EBEF15D0FB4D89542EED0B742DED3F5
:1046B000A3F1610EBEF1190F28D8203BDBB248EA06
:1046C0000909ADE7A3F15B0EBEF1020FA1D9E6E740
:1046D000176007194EE7FF2C3FF731AF651E2346E1
:1046E00055E74B7B202B3FF42AAF0B7B0B4401207B
:1046F0007E24312208705C739A73BDE8F08F1060DD
:104700001C464FF0FF3542E7CA469FE7A3F1410E32
:10471000BEF1190F98BF48EA0A0A81E70101003586
:104720002DE9F8430F7B0E46044601F10D054FF0CD
:1047300002084FF07E097068B16808EB00039BB275
:1047400040B1084411F8012B03EB43135340884256
:104750009BB2F7D1032F28BF03273A1DD2B203F033
:104760000F01B018013A0929D2B294BF3031373164
:1047700097424FEA13134173F1D3F319002183F8E1
:104780000D902046FFF70AFD01212046FFF7E6FCC9
:104790000B2203460146A8B193F800E02846BEF17B
:1047A000000F15D0DB7A1B07EED406F0D9FA0028EB
:1047B000EAD108F101081FFA88F8B8F1640FBAD1FC
:1047C000BDE8F8836078B0FA80F04009BDE8F8836E
:1047D0000120BDE8F88300BF2DE9F04F0C7814F0FC
:1047E000700F8BB001D004781CB100200BB0BDE875
:1047F000F08F1478D2F804B0A40740D14FF001092B
:104800000E4692460990002130460F460893FFF766
:10481000C5FC0AF10D03079703973C46B846069777
:104820000593756901213046C5F34F15FFF796FCD6
:10483000002800F0A1800378E52B39D0002B37D079
:104840004C4538BF00242E2B2FD0C27A0F2A3DD0E2
:1048500002F0080202F0FF033ABBB8F1000F40F08B
:1048600066810B22059906F07BFA0028D9D19AF8C7
:104870000030DB0740F16F8101230693D1E7BF4D84
:104880000BF10C04A5FB04494FEA990909F1010950
:104890005FFA89F9B4E7039A013AD2B293420392DC
:1048A00003D1437B079A9A421BD04FF00008B8E728
:1048B000002C08BF2F464C453CBF0134E4B2002B0E
:1048C0005ED0E52BBFD14FF00008AAE7B8F1000F8A
:1048D000E1D15A06A5D503F01F08437BCDF80C8023
:1048E0000793039B013B03EB430503EB8505AB45B6
:1048F000DBD9C5EB0B0C0023049018E0DAF80800B4
:10490000D2B2A2F1410E415CBEF1190F98BF203224
:10491000A1F1410E98BFD2B2BEF1190F9CBF203158
:10492000C9B29142C1D101330D2B3FF47AAFDAB253
:10493000042A05EB03010DD90A2A17D904985A1C39
:1049400000EB420292889C450BD0FF2AD6D94FF04B
:10495000000866E7049A02EB43029C45B2F8012086
:10496000F3D1002A18BF4FF000085AE704985A1EE6
:1049700000EB4202D288E6E77378002B7FF435AF74
:10498000089B03F04203422B7FF42FAF002C18BF8B
:104990003D464C4503D31AE0DCB2A14517D90021AE
:1049A0003046FFF7DBFB631C0028F5D1737823B199
:1049B0001BE7B3681B79012B09D8A14507D93046FD
:1049C000FFF7F6F81034E4B20028F2D10DE7069BA9
:1049D00033B151463046FFF7A3FE00283FF405AF40
:1049E00069013046FFF7DAFB00283FF4FEAE09F11B
:1049F000FF3818F0FF0866D048F04003DBB203939D
:104A00004446002500213046FFF7A8FB00283FF46C
:104A1000ECAEB268039992F82430A04543F001034C
:104A200008BF8E464FF00F0718BFA64682F8243005
:104A30000AF10C01C772057380F800E00AF117074C
:104A4000002311F801CF5A0842EAC3135CFA83F33A
:104A50008F42DBB2F5D10EF01F0E0EF1FF3E437315
:104A6000DAF8083085760EEB4E020EEB820203EB8D
:104A70000209C57600230FE0042B19F8031000EBA0
:104A8000430EDFB214D90A2F72D8AEF804100133E6
:104A90000D2B02F1010212D09345EDD814BF4FF057
:104AA000FF310021042B89B200EB430EDFB2EAD8BC
:104AB00001330D2BAEF8011002F10102ECD1013CE3
:104AC00014F0FF049ED1002130467569FFF746FBC4
:104AD000C5F34F15044600283FF487AE202200217D
:104AE00006F0D4F95346264953F80D2F58686060F4
:104AF00022601A899B7AA37222819AF800200B689F
:104B000002F018022273002B3CD004F10E0104F1D4
:104B100010009847238AE189B26863822383E18287
:104B200092F8243043F0010382F8243017E0039A0E
:104B3000012A7FF45AAE441E0A3014F8011F5A08A5
:104B400042EAC31351FA83F3A042DBB2F5D1079ACC
:104B50009A427FF44AAE089B1F063FF546AECDF859
:104B60000080089B09982A463146FFF75DFB3DE629
:104B7000013300EB4307B9808AE700BF4FECC44E16
:104B80005008002021212822A37308232174E373F5
:104B900062744FF4006142F62103BDE7F8B5436843
:104BA000816800F10C0604463246186800F0B4FB38
:104BB00040B123789A07054607D423F001032370F8
:104BC0002846F8BD00252846F8BD6368A76819691E
:104BD00018683246394400F09FFB0028F2D0237851
:104BE000EBE700BFF8B583688B42064614460FD04A
:104BF0000378DA070F4612D4630716D506F10C05C1
:104C0000002304F003041C4334702846B760F8BD49
:104C100010F90C3B04F003041C433470F8BDFFF79B
:104C2000BDFF0028E8D10020F8BD736806F10C052F
:104C300018682A46394600F0CDFA0028E0D1F2E79C
:104C40000378DB0701D401207047FFF7A7BF00BF3F
:104C500083794069023999400844704770B5C37937
:104C6000202B04460D46164618D0102B13D183690D
:104C7000C1F307211944022200F50C70FFF7B2FFBF
:104C800048B1EDB230F81530E26993429ABF012085
:104C90003360002070BD4FF0FF3070BD816902228B
:104CA00001EBD51100F50C70FFF79CFF0028F2D046
:104CB00005F07F0550F8253023F07043E4E700BF8E
:104CC00038B5C379202B0C46154614D0102B01D0D3
:104CD000002038BD8369C1F30721194400F50C7029
:104CE0000322FFF77FFF03460028F1D0E4B2012042
:104CF00023F8145038BD8169032200F50C7001EBD4
:104D0000D411FFF76FFF03460028E1D004F07F04C1
:104D1000012043F8245038BD2DE9F041054682B00A
:104D200090460F46C1B9C668344604E001D0019BE5
:104D3000A3B1B4420BD0EB6901349C4288BF02247A
:104D4000214601AA2846FFF789FF0028EEDA00264F
:104D5000304602B0BDE8F0810E46E5E76FF07042E4
:104D600021462846FFF7ACFF06460028EFD037B9AA
:104D7000EC603046C8F8004002B0BDE8F08139462A
:104D800028462246FFF79CFF0028F2D1DFE700BF4C
:104D900070B5054682B00C4608E0FFF791FF80B180
:104DA000EB689C4238BFEC60019C5EB101AA2146D1
:104DB0002846FFF753FF061E21464FF00002284603
:104DC000EBDA002002B070BDF8B5044600224FF0C7
:104DD000FF330120A462C4F83442E060E27184F839
:104DE000242084F83022E362C4F838320D46C1B181
:104DF000042901D90020F8BD04F1240630461146EB
:104E0000FFF7F0FE0028F5D000EB051393F8AE3164
:104E10005B06EFD11B3500EB0515D5F8065015B92B
:104E2000E8E704F12406304600222946FFF7DAFEBF
:104E30000028DFD0B0F80B30B3F5007FDAD1037C67
:104E4000022BD7D1C389002BD4D0467B2671731E89
:104E50000021012E6371A1710ED001210A4600E0EC
:104E600019465200D2B24B1C9642DBB203D0092B3A
:104E7000F6D1A171BEE7A171C38A4BB31F4627616A
:104E8000C6892E44A661B0F8113023815A0102F27E
:104E9000FF1206EB470303EB622262612362B0F864
:104EA000133003B9036AAD1A1D4425FA01F140F627
:104EB000F4734A1C9942E2610CD94FF6F47399429B
:104EC00085BFC36A236210232023E3710120F8BD4C
:104ED000476AD4E70C23E3718CE700BF10B50446A2
:104EE000406800F0B3FA63680021187902F052FBC1
:104EF0000123237210BD00BF10B543680446012191
:104F0000187902F047FB6068FF2100F087FB6068BA
:104F100000F0ECFA0023237210BD00BF2DE9F04130
:104F2000214D82B02B680093009C80460E461746A8
:104F3000A4B207E02B680193019B9BB21B1BB3F546
:104F4000967F16DCD8F8040000F0EEFAFF2888F807
:104F50000900EFD0FE2810D0502388F8003098F8D0
:104F6000080018B14046FFF7C7FF002002B0BDE8B7
:104F7000F081542388F80030F1E73A463146D8F8FA
:104F8000040000F0E7FA88F8090018B1602388F8F7
:104F90000030E4E7D8F8040000F0C6FAD8F80400BE
:104FA00000F0C2FA0120E1E7A8080020F0B50D4D9D
:104FB00083B02B680093009C06460F46A4B206E01F
:104FC0002B680193019B9BB21B1BBB4207DC7068E3
:104FD00000F0AAFAFF28F3D1012003B0F0BD0020B1
:104FE00003B0F0BDA8080020F0B5037A83B00446F2
:104FF0000F4601920BB9FFF771FF4FF4167120466F
:10500000FFF7D4FF47F04001606800F007FB01AEF6
:1050100002AD15F8011D606800F000FBB542F8D143
:10502000A7B18721606800F0F9FA0C2F13D0002592
:10503000606800F079FA0306607201D403B0F0BD35
:105040000135B5F5807FF3D103B0F0BD95216068DF
:1050500000F0E4FAEBE7606800F066FAE7E700BF0B
:105060002DE9F0410024594E0470054684B037689C
:105070004160009708462C721146AC729846009F1A
:1050800000F022FA6B682A7A51491960002A4CD044
:105090001879012102F07EFA0A24FF21686800F0E5
:1050A000BDFA611E11F0FF04F7D16B682146187933
:1050B00002F070FABCB207E033680193019B9BB227
:1050C0001B1BB3F5FA6F25DC002211462846FFF7BB
:1050D0008BFF0128F0D14FF4D57208212846FFF745
:1050E00083FF052826D00424686800F01DFA631E9B
:1050F00013F0FF046872F7D1AA2843D033680293F3
:10510000029ABBB292B2D31AB3F5FA6FE3DD25234C
:105110002B7001E020232B70287A18B12846FFF766
:10512000EBFE002004B0BDE8F0812846FFF7D6FE74
:105130006B68ADE70123AB72002407E0336803938B
:10514000039B9BB29B1AB3F5FA6F20DC0022372138
:105150002846FFF749FF224629212846FFF744FF4A
:10516000BAB20028EAD1AB7A022B13D02B7A13B152
:105170002846FFF7C1FE6B680120C3F8008004B029
:10518000BDE8F0810223AB724FF08044DEE7432399
:105190002B70C1E702463A212846FFF725FF10B1E0
:1051A00037232B70B8E7686800F0BEF900F0C00044
:1051B000C02804BF0323AB72686800F0B5F96868C3
:1051C00000F0B2F9686800F0AFF9CFE7A808002056
:1051D0000650013838B5837A032B18BF49021546AB
:1051E0000A4611210446FFF7FFFE40B13023237029
:1051F000207A18B12046FFF77FFE002038BD2946EF
:105200004FF400722046FFF789FE0028F0D0257A7F
:10521000002DF3D02046FFF76FFE284638BD00BFB3
:1052200010B5837A032B0A4618BF4A02122104469E
:10523000FFF7DAFE48B1207A3123237000B910BDA0
:105240002046FFF759FE002010BD012010BD00BF11
:1052500038B500220C210546FFF7C6FE2C7A20B196
:1052600028232B7054B9204638BD14B90124204698
:1052700038BD2846FFF740FE204638BD28460024AA
:10528000FFF73AFE204638BDF8B515461F460646DC
:10529000FFF7C6FF80B1002417B90FE0BC420DD262
:1052A00029464FF400723046FFF738FE0134A4B2AD
:1052B00005F500750028F1D10020F8BD3046BDE8A5
:1052C000F840FFF7C5BF00BF38B504461546406833
:1052D00000F0A4F94FF400722946606800F0AEF9BE
:1052E0006068FF2100F09AF96068FF2100F096F9EC
:1052F000606800F019F900F01F03052B607209D0F7
:10530000207A5623237000B938BD2046FFF7F4FDFC
:10531000002038BD012038BD38B5837A032B18BF73
:10532000490215460A4618210446FFF75DFE40B1C2
:1053300032232370207A18B12046FFF7DDFD0020CC
:1053400038BD2A46FE212046FFF7BEFF0028F1D0D7
:10535000257A002DF4D02046FFF7CEFD284638BD33
:1053600038B50D464FF416710446FFF71FFE40B9DD
:1053700059232370207A18B12046FFF7BDFD002085
:1053800038BD2A46FC212046FFF79EFF0028F1D0B9
:1053900038BD00BF10B5837A032B0A4618BF4A02F6
:1053A00019210446FFF720FE48B1207A33232370E9
:1053B00000B910BD2046FFF79FFD002010BD012061
:1053C00010BD00BF70B54FF416710546FFF7EEFD36
:1053D000064658B92C7A55232B700CB9204670BD5F
:1053E00028463446FFF788FD204670BDFD216868D9
:1053F00000F014F92C7A14B93446204670BD2846C2
:10540000FFF77AFDEAE700BFF8B514461F460646E7
:10541000FFF7C0FF88B1002537B93046BDE8F84036
:10542000FFF7D0BFAF42F8D021463046FFF798FFD4
:10543000013504F500740028F4D1337A0BB900204B
:10544000F8BD3046FFF758FD0020F8BD30B4184BCA
:105450000268D97AB9B172B6D97ACD07084606D5AD
:10546000144CD868256828409861206008468C074D
:1054700006D5114C19692568D87A2940D96121606F
:1054800041070ED462B61B68D968914207D00B4819
:1054900018600B49DA6042F080401861196030BC36
:1054A0007047084859690468214019620160E9E7BA
:1054B00020F0FF1F80E100E084E100E001401F00D8
:1054C00000001F8088E100E010B504460171084625
:1054D000012102F073F82079012102F05BF8024803
:1054E000BDE81040FEF736B820F0FF1F0A4AD37A15
:1054F000194683B1D80703D5084990690860194651
:10550000980703D5064BD069D17A18604B0702D5AE
:10551000044B126A1A60704720F0FF1F00E100E0A0
:1055200004E100E008E100E0094B1A6810B442F41D
:1055300080624FF00044FF201A601946DC62586315
:10554000CB6A034A002BFBDA906B10BCC0B27047E9
:1055500000C002402E4B2F48F0B51860D00712D57E
:1055600018684FF0004540F48060FF2618601C4624
:10557000DD624D1C5E63E36A2548002BFBDA836B1A
:105580000B70013A2946052A0AD853083ED0204814
:10559000214C4463012B4FEA430E08D0446306E0DC
:1055A0001B4B1D4858634FF0060E58635863CEEBF3
:1055B00002028C18A14216D2154A174F154608460A
:1055C000D36A13F0F00FFBD06F63AB6B1E1200F8C1
:1055D000026BA04200F8013CF2D3CB43234423F0FA
:1055E00001030233194474448C420DD9084A15460C
:1055F000D36A13F0F00FFBD0AB6B181201F8020B5B
:105600008C4201F8013CF3D80020F0BD9E46CEE765
:1056100000C0024000041F80FFFF0090064B1A6884
:105620004FF0004042F480621A60D8621A46596313
:10563000D36A002BFCDA704700C00240294B2A488D
:1056400070B41860D0070ED518680C7840F48060EC
:105650004FF0004518600131DD6218465C63C36A93
:10566000002BFCDA013A052A01EB020633D8540874
:1056700033D01C4D8A1C002012F8021C12F8013C89
:10568000013043EA012343F01043A04211466B630B
:1056900002F10202F0DB8E4212D9124A154611F8CD
:1056A000020B11F8013C43EA0020D36A13F0F00F1B
:1056B000FBD040F010436B638E42AB6BEFD844B12C
:1056C000084A1146D36A13F0F00FFBD0013C8B6BF4
:1056D000F8D170BC70470324CBE7B142DDD370BC76
:1056E000704700BF00C0024000041F8038B5036847
:1056F000A04C1B6803222270054698479E4B9A795E
:1057000012F00C0F03D19A79D10600F1B4809A49B6
:105710008B79C3F38103032B00F0B880964A937909
:10572000C3F38103022B00F0E780934A9379C3F31C
:105730008103022B00F0ED808F4A9379C3F381033C
:10574000022B00F000818C4A9379C3F38103012B73
:1057500000F0EC80884A9379C3F38103012B00F0B9
:10576000FB80854B9A7912F00C0F03D19A79D206FF
:1057700000D49B79814A137803F0040303F0FF01FE
:105780008BB97F4B19701B781378DB07FCD57C4BEA
:105790007C4A402119701B7813785807FCD4774A4B
:1057A00013785907FCD5784B1A6822F002021A6068
:1057B000EFF3108272B6BFF35F8FBFF34F8FBFF36B
:1057C0006F8F30BF82F31088BFF35F8FBFF34F8FAF
:1057D000BFF36F8FBFF35F8FBFF34F8FBFF36F8F39
:1057E0001A68664942F002021A600B785A070BD514
:1057F000634B644A002119701B7813785B07FCD552
:105800005E4A1378D807FCD55B4B5A78A02102F08A
:10581000FD025A701A46197093799907FCD5564AB9
:105820009379DB06FCD454498B79534A03F00C037B
:10583000082BF9D1032140231171114653718B7943
:105840009806FCD54C498A794B4B5206FBD54F4AFA
:105850004F49116020221A701A46937903F00C0305
:105860000C2BFAD12B6828465B689847494A0023DD
:105870001068237038BD9B799A067FF57BAF3E494F
:105880008B79C3F38103032B7FF448AF8B79DB065D
:105890003FF544AF8B7998067FF540AFA0230B709E
:1058A0008B79354A03F00C03082BF9D1537903F0B7
:1058B000BF035371937930499B06FBD44B78642026
:1058C00043F001034B700A4608709379D806FCD563
:1058D000294A9379D907FCD527498B79264A03F0C1
:1058E0000C03042BF9D15378284943F002034FF4F9
:1058F0008030537008603DE79379D9063FF515AFC6
:1059000093799B067FF511AF537898077FF532AFF7
:105910000BE79379D9063FF50FAF93799B063FF5D7
:105920000BAF537898077FF525AF05E79379D80635
:105930007FF510AF937999063FF50CAF53789A072E
:105940003FF518AF06E79379D9063FF5FCAE5378DB
:105950009B073FF50FAFF6E69379DB067FF501AFC6
:10596000937998063FF5FDAE537899077FF502AF1E
:10597000F7E600BF94E9FF1F0040064003E0074040
:1059800001E0074002D0074010E000E044800440FE
:105990000000131190E9FF1F114B1B78012B1DD044
:1059A000032B10B5044605D0052B03D00D4BA26B7D
:1059B0001A6010BD94F8313013B90B4B04221A60F1
:1059C0000A4B94F830201A7072B64220A16A01F096
:1059D00001FD62B6034BA26B1A6010BD704700BF99
:1059E00094E9FF1F1CD0034088E100E042E400E09E
:1059F00038B52C4D2B78012B21D0032B044630D009
:105A0000052B2ED0284A1168890019D41168032B60
:105A100041F00051116018D0052B16D0234A13799C
:105A200043F020031371224D2B68A36301F09AFD0C
:105A3000E36A204A013B1844042310602B6038BD00
:105A40000122032B84F83C20E6D11B4A136803F0A3
:105A50000403DBB284F83130002BE4D1042313605B
:105A6000E1E7164B1B7884F8303001F035FCA0F1EB
:105A70001103EE2B98BF1038104B94BFC0B280209A
:105A8000187072B60E4B0F49D3F84831A36242200A
:105A900001F0A0FC62B6044A2B7811688900B5D5E4
:105AA000CEE700BF94E9FF1F3C800440BC0B002000
:105AB0001CD0034008D0034008E100E042E400E0CD
:105AC00000EAFF1FF95A0000074B08491B68084A03
:105AD00001330B601378032B02D0052B00D07047E5
