:1000000000800020BD01000051AF000009AF0000DA
:1000100009AF000009AF000009AF000009AF000000
:1000200009AF000009AF000009AF000051AF0000A8
:1000300051AF000009AF0000B9CB000009CE0000AD
:1000400051AF000051AF000051AF000051AF0000B0
:1000500051AF000051AF000051AF000051AF0000A0
:1000600051AF000051AF000051AF000051AF000090
:1000700051AF000051AF000051AF000051AF000080
:1000800051AF000051AF000051AF000051AF000070
:1000900051AF000051AF000051AF000051AF000060
:1000A000654F000051AF000051AF000051AF00009C
:1000B00051AF000051AF000051AF000051AF000040
:1000C00051AF000051AF000051AF000051AF000030
:1000D00051AF000051AF000051AF000051AF000020
:1000E00051AF000051AF000051AF000051AF000010
:1000F00051AF000009D3000051AF000035D400001B
:1001000051AF000061D5000051AF000051AF0000B9
:1001100051AF000051AF000051AF000051AF0000DF
:1001200051AF000051AF000051AF000051AF0000CF
:1001300051AF000051AF000051AF000051AF0000BF
:1001400051AF000051AF000051AF000051AF0000AF
:1001500051AF000051AF000051AF000051AF00009F
:1001600051AF0000B5B6000051AF000051AF000024
:1001700051AF000051AF000051AF000051AF00007F
:1001800051AF000051AF000051AF000051AF00006F
:1001900051AF000051AF000051AF000051AF00005F
:1001A00051AF000051AF000051AF000051AF00004F
:1001B00051AF000051AF000045C90000564B4CF252
:1001C000205210B51A804DF628121A8000BF00BFC9
:1001D00000F068FB514B4FF010621A60504A9A6071
:1001E000504ADA60504A136813F4807304D14F49BF
:1001F0000B604FF4A85313604D4B1A78110703D5C9
:100200001A7842F008021A704A4B4B492A221A7097
:100210004A4A4B4B8B4204D252F8040F43F8040B6A
:10022000F8E7484B484900228B4202D243F8042B9E
:10023000FAE74649464A002352F8230041F82300D2
:1002400001336F2BF8D1434B434A802103F8011B44
:100250009342FBD1414B3D4A1A60414B8A221A70AE
:10026000A3F5805324225A70A0221A709A7992071B
:10027000FCD59A79D406FCD43A4A937903F00C035E
:10028000082B384BF9D105221A7143225A719A79F9
:100290009006FCD5334A9179324B4906FBD5324A58
:1002A0004FF0817111600521516020221A709A79F6
:1002B00002F00C020C2AFAD12C4B2D4A1A602D4B5D
:1002C0002D4A1A6000225A60072243F8042C2B4A58
:1002D000C3F80C2D62B60AF05DFF144B1B68DA07F9
:1002E00005D527480AF044FF264B274A1A60274BBA
:1002F0001B785B0609D5234C234B22689A4204D114
:100300001F480AF035FF002323600EF0F7FC0AF0C7
:1003100023FE0CF057FFFEE70E200540308004401E
:10032000823F04000100002B10D0034014D0034092
:1003300002D0074000E00740E00900200070010003
:1003400020F9FF1FE0090020E856002000F4FF1FFD
:100350000000000000E400E05FE400E008ED00E0E1
:1003600000500640004006404480044004800440A1
:10037000C010050014E000E03F190100000020203B
:10038000D474315F1CE00340A5C3945A00F00740C9
:10039000FFFFFFFFFFFFFFFFFFFFFFFFFFFFFFFF6D
:1003A000FFFFFFFFFFFFFFFFFFFFFFFFFFFFFFFF5D
:1003B000FFFFFFFFFFFFFFFFFFFFFFFFFFFFFFFF4D
:1003C000FFFFFFFFFFFFFFFFFFFFFFFFFFFFFFFF3D
:1003D000FFFFFFFFFFFFFFFFFFFFFFFFFFFFFFFF2D
:1003E000FFFFFFFFFFFFFFFFFFFFFFFFFFFFFFFF1D
:1003F000FFFFFFFFFFFFFFFFFFFFFFFFFFFFFFFF0D
:10040000FFFFFFFFFFFFFFFFFFFFFFFFDEF9FFFF23
:1004100010B5054C237833B9044B13B10448AFF33E
:1004200000800123237010BDE009002000000000BF
:10043000FC6F0100084B10B51BB108490848AFF329
:1004400000800848036803B910BD074B002BFBD0A0
:10045000BDE81040184700BF00000000E40900207C
:10046000FC6F0100E0090020000000000020704740
:10047000704700BF027C02F0080202F0FF0332B1B5
:10048000C36A406A181A48BF6FF0004070471846A8
:10049000704700BFF8B55548554D564C297803783C
:1004A0002278DFF868E1544F544E120442EA0323E5
:1004B000FF222A700270802022708EF800003870AF
:1004C000B2794F480B4312F00C0FC36002D1B379DD
:1004D000DC063DD4494A9379C3F38103032B40D012
:1004E000464B9A79C2F38102022A42D0434A937959
:1004F000C3F38103022B53D0404A9379C3F38103A2
:10050000022B61D03D4A9379C3F38103012B51D073
:100510003A4A9379C3F38103012B5CD0374B9A7924
:1005200012F00C0F03D19A79D20600D49B79354D85
:10053000354B2A7853F82240D4B1236820469B6873
:1005400098472B7804EB83046468002CF5D1F8BD40
:10055000B3799806EBD5294A9379C3F38103032B2A
:10056000BED19379D906BBD493799B06DFD4B7E784
:10057000F8BD9A79D706B9D49A799606B6D559783E
:1005800001F0020101F0FF020029AFD120211A7011
:100590001A461970937903F00C030C2BFAD1C6E7B5
:1005A0009379DD06A8D493799C06A5D4537898074F
:1005B000BDD5A1E79379DF06AAD593799E06A7D486
:1005C00053789D07B3D4A3E79379D9069AD4537887
:1005D0009B07ACD496E79379DC069FD59379980670
:1005E0009CD453789907A2D598E700BF06C007406E
:1005F00005C0074007C0074009C00740004006404B
:10060000C0560020985300205853002008C00740CF
:1006100090F92410104B03604B1C06D0F0B40F4E21
:1006200056F82130984201D0F0BC70470C4F57F873
:10063000213033B18D0000245A1953685460002BC7
:10064000FAD1084C23780022013B237047F821207F
:1006500046F82120E8E700BF8C5F010078530020B6
:10066000585300209953002038B590F924506B1C42
:100670001BD00E4B0E4953F825400E4BEDB24FF0F8
:10068000FF320D701A6084B1AD0002E02C44646842
:100690005CB194F82530002BF8D0236820462C4418
:1006A0001B6898476468002CF3D138BD585300206C
:1006B00098530020B8F3FF1F704700BF90F9241033
:1006C000104B03604B1C06D0F0B40F4E56F821308F
:1006D000984201D0F0BC70470C4F57F8213033B12D
:1006E0008D0000245A1953685460002BFAD1084C2D
:1006F00023780022013B237047F8212046F821206F
:10070000E8E700BF8C5F01007853002058530020B9
:100710009953002090F92410104B03604B1C06D015
:10072000F0B40F4E56F82130984201D0F0BC70471B
:100730000C4F57F8213033B18D0000245A195368FB
:100740005460002BFAD1084C23780022013B23701F
:1007500047F8212046F82120E8E700BF8C5F010020
:1007600078530020585300209953002010B50021E1
:1007700004460CF02DF8B0B1B4F8B4319BB2C3B15B
:10078000B4F8B031B4F8B2219BB20133632BC8BFC7
:10079000002392B2934207D09A1D04EB82029BB2CF
:1007A0005060A4F8B03110BDD4F8B8310133C4F8AA
:1007B000B831BDE810400BF0C7BF00BF103005F0E6
:1007C00005BC00BF00B583B002AB012203F8011DD8
:1007D0001030194605F0FAFB03B05DF804FB00BFCA
:1007E000103005F0CFBA00BF00B583B001220DF183
:1007F0000701103005F000FA01280CBF9DF8070032
:100800004FF0FF3003B05DF804FB00BF103005F07F
:100810008FBB00BF2DE9F0410E4680460AF0A2FCD6
:10082000174D286007F06AFE0746286807F042FE69
:100830000446286807F02CFE6401C0B204F4FF549B
:10084000BFB20443A7F2BC7744EA4724A8F80040AB
:10085000286807F041FE0746286807F0F5FD0446C2
:10086000286807F003FEFF02640107F4FF2704F481
:10087000FF54C0F346003C4304433480BDE8F0819C
:10088000E44E002010B504460BF0E2FF204610BDF8
:1008900038B505460CF0D6FA044628460CF02AFB7B
:1008A000204438BD464A474B102010801B781B0758
:1008B00034D5F0B5444E454D454C31782B782278EF
:1008C000DFF82CE1434F824042EA03230B43FF222F
:1008D000802132702A7022708EF800103970D9078A
:1008E0003D4A14D51A2393603C4F3D4E3D4D3E4C3E
:1008F0003E49107900233B7053709370D370D360DE
:10090000337013712B70237013700870F0BD1F07C4
:1009100005D4DE0606D504239360E5E7704721235E
:100920009360E1E79D0604D45C0604D5162393602A
:10093000DAE79060D8E7180602D509239360D3E779
:10094000D90502D50A239360CEE79F0502D50D2372
:100950009360C9E75E0502D50B239360C4E71D05CC
:1009600002D51E239360BFE7DC0402D50223936007
:10097000BAE7980402D507239360B5E7590402D576
:1009800006239360B0E71F0402D515239360ABE7FD
:10099000DE0302D524239360A6E79D0302D522231C
:1009A0009360A1E7DC0202D5252393609CE718033E
:1009B000F5D45903F3D49B0244BF2323936093E7F8
:1009C0000020054002D0074005C0074006C0074090
:1009D00007C0074009C00740C056002000C00740BC
:1009E00001C0074002C0074003C0074004C00740E1
:1009F00008C00740002976D02DE9F04F0C46910041
:100A0000631883B05D68002D57D06B185E68002EA8
:100A100050D073185F68002F49D07B18D3F804803A
:100A2000B8F1000F3CD008EB0103D3F80490B9F102
:100A3000000F32D009EB0103D3F804A0BAF1000F84
:100A400027D00AEB0103D3F804B0BBF1000F18D094
:100A50000BEB01035B6863B1194401934968FFF72D
:100A6000C9FF019B93F825201AB11A6818465368EC
:100A700098479BF8253023B1DBF8003058465B6877
:100A800098479AF8253023B1DAF8003050465B6871
:100A9000984799F82530002B35D198F8253063BB5D
:100AA00097F825301BB13B6838465B68984796F845
:100AB0002530CBB995F8253063B994F8253013B9B2
:100AC00003B0BDE8F08F23685B68204603B0BDE843
:100AD000F04F18472B6828465B68984794F82530F4
:100AE000002BEDD0EFE77047336830465B689847DE
:100AF00095F82530002BE0D0ECE7D8F800304046E0
:100B00005B689847CCE7D9F8003048465B6898475F
:100B1000C3E700BF90F92420531C26D01B4B2DE9BE
:100B2000F04153F82240D2B2ECB19300E1184D6885
:100B3000B5B1E9184E6866B1F1184F6837B13B445A
:100B40005968FFF757FF97F82530A3B996F8253075
:100B500063B995F825301BB12B6828465B68984728
:100B600094F8253063B9BDE8F081704733683046AA
:100B70005B689847EDE73B6838465B689847E5E770
:100B8000236820465B68BDE8F041184758530020B1
:100B90002DE9F843534CB4F8B021B4F8B23192B215
:100BA0009BB29A4238BF6432D31A3F2B01DCBDE8B6
:100BB000F8834D4DDFF82C81012111200AF0E2FB72
:100BC00005F58047D4F8AC91002637E04FF48072E9
:100BD000002109F0DFFD48460BF0B6FDC4F8AC611A
:100BE000B4F8B231B4F8B0219BB292B293424CD077
:100BF0000133632B86BF4FF0000E73461FFA83FE4E
:100C0000063304EB83034FF48072D3F80490C4F8E6
:100C1000AC9109F104012846A4F8B2E109F0BAFD4B
:100C2000B9F1000F04D048460BF08EFDC8F8AC6156
:100C300005F50075BD424FF0000932D0A5F5807072
:100C4000B9F1000FC2D1B4F8B231B4F8B0219BB2FF
:100C500092B293423FD00133632B86BFCE46734698
:100C60001FFA83FE063304EB83034FF48072D3F83C
:100C70000490C4F8AC9109F10401A4F8B2E109F0C0
:100C800089FDB9F1000FABD0A5E728464FF480727B
:100C9000002105F5007509F07DFDBD424FF000090A
:100CA000CCD1494611200AF06DFB4FF480420F4928
:100CB0000F4805F08BF9013005D00E4A1368203338
:100CC0001360BDE8F883012114200AF0B7F80A4B3D
:100CD0000A4A1A60F1E749464FF4807209F05AFD5A
:100CE0007EE700BFF84E0020680B0020680A002055
:100CF0003C0A0020F44E00200CED00E00400FA0550
:100D000070B5124C124D13480D210BF045FB2046D7
:100D10000CF0F0F82E88104810210BF03DFB314606
:100D200020460CF08FF820460CF0E4F80B4A0C4BF0
:100D300012882A800B480022A3F8B42104F004FD95
:100D40006420BDE870400AF08BBB00BF80FFFF1F2E
:100D5000B0540020B05F0100C05F0100D8540020F3
:100D6000F84E00203C0A00202DE9F04F9BB00AF01D
:100D7000F9F98F4F8F4D386007F09CFB2B68984234
:100D800000F055820A218C48DFF86882DFF868920B
:100D90000BF002FB89480CF0ADF8386807F08AFBCD
:100DA0002860386807F0AAFB0DAC02462B6884491E
:100DB00084480EF007FE002520460123814A82491F
:100DC000C8F800908DF834508DF8355004F0D8FDF7
:100DD0007C4D002115200AF007FB2A7800232F2ADA
:100DE0008DF834308DF8353000F0D4810123754A08
:100DF0007549204604F060FE78B19DF8343013F058
:100E0000700F0AD0A646BEE80F006F4E0FC6BEE8B0
:100E10000F000FC6DEF800303360386807F06EFB55
:100E20000B90386807F046FB8246386807F030FBC5
:100E30000990386807F050FB8346386807F004FBD8
:100E40000A90386807F012FB6049074608680CF002
:100E5000DFFECDE906015E4B099A009258681968D9
:100E60000A9B0397029305900491CDF804B0534672
:100E70000B9A584958480EF0A5FD00260827C8F8D7
:100E80000090152009F0BEFE0DF018FB4FF06A51DE
:100E90000DF068FB014630460DF05CFA013F064656
:100EA000EFD14948DFF8549104F04EFC4B4901F270
:100EB0003C4004F081FE4FF47A7E462311A8484A54
:100EC00041498DF844708DF845708DF838708DF873
:100ED0004070CDF83CE0CDF8349004F0EDFD9DF885
:100EE0004430002B40F063810E213E480BF054FA51
:100EF0000121142009F0A2FF3B4B3C4A1A602A78DA
:100F0000304900232F2A8DF834308DF8353000F029
:100F1000348101232B4A2C49204604F0CDFD60B1D9
:100F20009DF8343013F0700F07D027460FCF264EB0
:100F30000FC60FCF0FC63B68336000264FF47A7799
:100F4000C223254A20498DF8446011A88DF84560D8
:100F50008DF838608DF840600F97CDF8349004F02C
:100F6000ABFD0DF1440EBEE80F00214F9DF8386037
:100F70003E7107F110060FC6BEE80F000FC60F9AAC
:100F80009DF84030DEF80010BA603B7312483160C3
:100F90000EF076FD01461048DFF86480DFF848B0B7
:100FA000DFF848A00BF0F8F904480BF0A3FF78E055
:100FB000E44E002020520020D45F010080FFFF1F7C
:100FC000E05F0100B8500020A84E002048510020EA
:100FD00038510020EC5F0100785100206C4A00205D
:100FE000186001004C6001000CED00E00400FA05FF
:100FF0002C0A00205453002015080000685F0100EF
:10100000B450002004F058FD78B19DF83430A54E5E
:1010100013F0700FA64608D0BEE80F000FC6BEE85A
:101020000F000FC6DEF80030336000264FF47A7EE2
:10103000C2239D4A9B498DF8446011A88DF84560F4
:101040008DF838608DF84060CDF83CE0CDF83490F4
:1010500004F032FD0DF1440EBEE80F00934E9DF8F2
:1010600038C087F804C00FC6BEE80F000FC69DF851
:1010700040300F9ADEF800103B73BA608A48316046
:101080000EF0FEFC014688480BF086F988480BF00C
:1010900031FF0A200AF0E4F9D8F80030B3F57A7F7E
:1010A00064DC3E7C834980480EBBD8F800300133B5
:1010B0001A46C8F800300EF085FC95F800E07E4A2C
:1010C00078498DF83460BEF12F0F4FF001032046B0
:1010D0008DF8356096D15678002E93D1084604F0ED
:1010E00033FB764901F23C4004F066FD9DE774480D
:1010F00074490768744C754A754B764D03C9206076
:1011000092E80300A06093E8030010260123A38265
:10111000E382E060266138460DF010FC3946A0619C
:1011200038460DF017F90DF009FC6B4AE0612B68A9
:10113000668492E803005B0203F124062C226062BD
:10114000214602275948A3622784666004F03EFFC7
:10115000092162480BF020F9296855480BF072FE0E
:1011600053480BF0C7FE1BB0BDE8F08F01211420DF
:1011700009F064FECBF800A093E74B78002B7FF4D6
:10118000C8AE484804F0E0FA4C4901F23C4004F093
:1011900013FDD2E66B78002B7FF428AE414804F0B3
:1011A000D3FA464901F23C4004F006FD35E63046EC
:1011B0004B490DF0D7F94FF078510DF0D3F90646B1
:1011C00039480EF05DFC3849024611A804F0FEFED5
:1011D0001AA92C27012201F8357D11A804F0F6FE8A
:1011E00030460CF015FD4FF0020E0B46CDF800E036
:1011F000024620460BF0E4FE1AA9012201F8367DD2
:1012000011A804F0E3FE37480EF03AFC35490246D7
:1012100011A804F0DBFE20460BF06CFE304632498C
:101220000DF03EFB48B911A804F08EFA67E6DFF82E
:10123000CC80DFF8CC900DACCAE528222B4911A850
:1012400004F0C4FE20460BF055FE11A804F07CFA11
:1012500000270826152009F0D5FC0DF02FF94FF0D6
:101260006A510DF07FF9014638460DF073F8013EE2
:101270000746EFD11A490DF075F94FF078510DF08E
:1012800071F91B490DF00CFB20B147F230500AF008
:10129000E7F8DDE70121142009F0D0FD154B164ACF
:1012A0001A60C0E7A84E0020785100203C0A0020B8
:1012B00080FFFF1F5C600100B85000206C4A0020D6
:1012C0000C52002068600100645200207060010030
:1012D00078600100EC51002080600100886001000E
:1012E000CDCCBC4008FAFF1F000040402060010048
:1012F000333353400CED00E00400FA055453002052
:101300001508000038B50E211C481D4D0BF044F89F
:101310001C480BF0EFFDFFF727FD1B4BD5F8AC0188
:1013200000241C6018B10BF00FFAC5F8AC41B5F8F9
:10133000B241B5F8B031A4B29BB2A3420ED0013491
:10134000642C28BF0024A31D05EB830358680BF011
:10135000FBF9B5F8B0319BB2A342F0D10123A4B29E
:101360000B210A48A5F8B241A5F8B4310BF014F8E6
:101370000448BDE838400BF0BDBD00BF94600100DB
:10138000F84E002080FFFF1FF44E0020A4600100F3
:10139000264B1B680F2B0CD8DFE803F00C10141839
:1013A0001C2024282C3034383C404408204B214A4F
:1013B0001A6070471E4B204A1A6070471C4B1F4A28
:1013C0001A6070471A4B1E4A1A607047184B1D4A24
:1013D0001A607047164B1C4A1A607047144B1B4A20
:1013E0001A607047124B1A4A1A607047104B194A1C
:1013F0001A6070470E4B184A1A6070470C4B174A18
:101400001A6070470A4B164A1A607047084B154A13
:101410001A607047064B144A1A607047044B134A0F
:101420001A607047024B124A1A60704700FAFF1F99
:1014300048510020BD549341103377C0993918C0EA
:10144000BE0D68BFCE71153F8D090340CCC9624007
:1014500009A7A3407DDBD140C416014154FC1741CC
:10146000D0E83041195546419FAB5F41A0417641DC
:101470005E2E86412DE9F0438FB004460EF000FB4E
:1014800000B201281CDDB4F9003044F253729342DB
:1014900000F0878118DD44F65452934200F0D58065
:1014A00045F2532293422AD044F65212934207D176
:1014B0000BAAE01CC4490EF0ABFAC44B0B9A1A609D
:1014C00001200FB0BDE8F08344F24E4293420FD0AA
:1014D00044F252429342F3D10BAAE01CBA490EF0F7
:1014E00097FABB4B0B9A1A6001200FB0BDE8F0834E
:1014F000B84B012201201A600FB0BDE8F0830AAD9D
:1015000009A908AA05ABE01C03950291019200937A
:1015100007AA06ABB0490EF07BFAB04B079D59689D
:1015200018689A680A9EDDF824E0DDF820C0A5F569
:10153000FA65ADB20BAF2CB207C7069F05991E34F2
:1015400015F0030F4FEAA408FDB240F05C81A44BF4
:10155000022D8CBF1F460027A248A34BC8EB0404F2
:1015600000FB08F06A1E03FB0400002A00EB0703DF
:1015700047DD9DF82C409A48012A00FB043340D0F7
:101580009DF82D40022A00FB04333AD09DF82E40EE
:10159000032A00FB043334D09DF82F40042A00FBBB
:1015A00004332ED09DF83040052A00FB043328D0A8
:1015B0009DF83140062A00FB043322D09DF83240CA
:1015C000072A00FB04331CD09DF83340082A00FB97
:1015D000043316D09DF83440092A00FB043310D0A0
:1015E0009DF835400A2A00FB04330AD00B2A9DF8E7
:1015F000364018BF9DF8372000FB043318BF00FBAE
:1016000002335FFA8EF2C2EB02125FFA8CF04FF4F3
:101610006164920004FB0022714D744C7448C9B29D
:10162000013952FA86F205FB01221344122123608C
:101630000AF0B2FE21686F480BF004FC6D480BF015
:1016400059FC01200FB0BDE8F0830AAD09A908AA32
:1016500005ABE01C039502910192009307AA06AB2B
:101660005D490EF0D5F95D4B079F9A681868596877
:101670000A9EDDF824E0DDF820C0A7F5FA67BFB2C6
:101680000BAC3DB207C4069A059C1E3517F0030F3C
:101690004FEAA508D7B240F0B380514B022F8CBF60
:1016A00099464FF000094F494F4BC8EB050501FB28
:1016B00008F17A1E03FB0510002A00EB090347DD41
:1016C0009DF82C004649012A01FB003340D09DF8CB
:1016D0002D00022A01FB00333AD09DF82E00032A88
:1016E00001FB003334D09DF82F00042A01FB0033A6
:1016F0002ED09DF83000052A01FB003328D09DF83C
:101700003100062A01FB003322D09DF83200072A5F
:1017100001FB00331CD09DF83300082A01FB003385
:1017200016D09DF83400092A01FB003310D09DF833
:1017300035000A2A01FB00330AD00B2A9DF8360037
:1017400018BF9DF8372001FB003318BF01FB02339F
:101750005FFA8EF2C2EB02125FFA8CF04FF4616511
:10176000920005FB0022E1B21D4C204D52FA86F298
:10177000013904FB01241C4420462C6009F0F8FCCC
:101780000B211D480AF008FE214600230A221948B1
:101790000BF0D6FB17480BF0ADFB01200FB0BDE8F6
:1017A000F083E01C0BAA08490EF032F90B9B0F2BBB
:1017B0002BD9124B042119600E2009F03FFB0120A8
:1017C0000FB0BDE8F08300BFEC60010040FAFF1FDE
:1017D00034FAFF1F640A0020CC600100985F01000A
:1017E000805101000085E2018033E101EC4E0020D0
:1017F000F060010080FFFF1FE060010000FAFF1FA2
:101800004FF000094FE70027A6E6024AD9B213605D
:10181000D2E700BF00FAFF1F2DE9F043A3B0002577
:101820004FF47A76764F77480A968DF830508DF8D7
:1018300031508DF824508DF82C50089703F084FF18
:10184000714901F23C4004F0B7F901236F4A6D4938
:10185000179619A88DF864508DF865508DF858507A
:101860008DF86050159704F027F90DF1640EBEE86D
:101870000F000CAE0FC6BEE80F000FC69DF83080FB
:10188000DEF800109DF85800179A9DF8603031601E
:101890008DF824000A928DF82C30B8F1000F46D054
:1018A0002E468DF800604FF000094FF0FF0801222E
:1018B00015A90CA804F0A0F909F1010322AA012836
:1018C0004A441BB224D01D2B02F8888C05DC9946B3
:1018D000EDE71D2B01DC0A2AF9D1013B9BB222AABC
:1018E0001A4402F8886C9DF800202F2A04D0012B9E
:1018F00002D96846FFF7BEFD9DF830301B0711D4B2
:101900000CA803F021FF2DBB012023B0BDE8F0831C
:101910009DF854200D2A08BF4B4662D11D2BDCDCFC
:101920009946C4E7139A119B9A42BAD1E8E7142169
:1019300037480AF031FD37480BF0DCFA0D22364902
:1019400036480BF069FA35480BF0D4FA404623B01C
:10195000BDE8F0830B2132480AF01EFD00230A2265
:1019600021462C480BF0ECFA2A480BF0C3FA254824
:1019700003F0EAFE2449002501F23C4004F01CF982
:101980004FF47A768DF864508DF865508DF8585084
:101990008DF8605063231D4A1A49179619A819AD8E
:1019A000159704F089F80FCD0CAE0FC60FCD0FC6FA
:1019B0002968179A9DF860309DF8585031600CA83E
:1019C00021460A928DF82C308DF8245004F00EFA3E
:1019D000022214490CA804F0F9FA0CA803F0B4FE92
:1019E00092E722AB03EB0901542A09F1010301F844
:1019F000882C1BB27FF46DAF119C0546013C8DE72E
:101A0000685F0100A84E00206C4A002004610100BC
:101A10002061010080FFFF1F38610100B4510020E8
:101A2000106101001C6101002DE9F04383B009F051
:101A300099FB7E4B7E4D186001217E487E4C7F4F86
:101A40007F4EDFF84C92DFF84C8207F0E1FC012179
:101A5000784807F0E3FC12220021764807F0D4FC16
:101A60000422784973480BF0D7F9296871480BF0C4
:101A7000E9F9022274496F480BF0CEF96D480BF07A
:101A800039FA062271496B480BF0C6F9216869489A
:101A90000BF0D8F903226E4966480BF0BDF9654892
:101AA0000BF028FA3B6856F823000CF007FD694953
:101AB0000CF00CFE0CF0ACF80B46024666495D4893
:101AC0000BF030FA012265495A480BF0A5F9644B36
:101AD00018680CF09DF80B460246624955480BF019
:101AE00021FA0722604953480BF096F90121514829
:101AF00007F08EFC2D683B68284656F823700CF0E2
:101B0000DDFC0646206828440CF0D8FC014630462F
:101B10000CF0DCFD014604464FF07E500CF018FC42
:101B2000524B19680CF01EFD514B064619682046B1
:101B30000CF018FD014630460CF00CFC0146D9F8BB
:101B400000000CF0C3FD4B490CF00CFD0CF0F6FE50
:101B5000494B064618680023C8F8003000284ED0CC
:101B60000CF0A8FC8146680007FB00F02C300CF05C
:101B7000A5FC4FF08E410CF0EDFB36490CF0A6FDB4
:101B800034490CF0A3FD014648460CF09FFD0CF0D3
:101B90003FF80BF051FE0CF067FB034600FB05F02D
:101BA000C8F800300CF086FC21460CF08FFD04468E
:101BB00030460CF07FFC014620460CF08FFE00BB47
:101BC00001462E221B4807F01FFC0D222B49194805
:101BD0000BF022F920462A490CF078FD0CF018F899
:101BE000022402460B46009412480BF0E9F92549FD
:101BF0001048012203B0BDE8F0430BF00DB90020FE
:101C0000D2E72E2200210B4807F0FEFB0E221E49D0
:101C100008480BF001F91D490648A1FB0631090CE3
:101C200000230A220BF08CF9E1E700BFE44E00200C
:101C300034FAFF1FB451002040FAFF1F30FAFF1F93
:101C400014FAFF1F48610100506101005461010056
:101C50005C61010000007A4460610100EC610100F8
:101C6000485100204C6201006C61010038FAFF1FEE
:101C700044FAFF1F000061456052002084610100AA
:101C800000C0A847DC6001007461010007452EC256
:101C90003CFAFF1F1452002038B5054606F02EFC12
:101CA0001E4C014620460BF0CDF82D200AF048FCD2
:101CB000284606F0FFFB014620460BF0C3F82D2016
:101CC0000AF03EFC284606F0E3FB014620460BF0F6
:101CD000B9F8012112480AF05FFB284606F0FCFB28
:101CE000014620460BF0AEF83A200AF029FC2846BF
:101CF00006F0AAFB014620460BF0A4F83A200AF0B1
:101D00001FFC284606F0B2FB014620460BF09AF86D
:101D10002046BDE838400BF0EDB800BF80FFFF1F44
:101D2000EC61010010B5002009F032F8234C20705E
:101D3000012009F02DF86070022009F029F8A07048
:101D4000032009F025F81E4BE07022681A60042079
:101D500009F01EF82070052009F01AF860700620BE
:101D600009F016F8A070072009F012F8154BE07082
:101D700022681A60082009F00BF8134B187009202C
:101D800009F006F8114B18700A2009F001F8104B01
:101D900018700B2008F0FCFF0E4B18700C2008F098
:101DA000F7FF0D4B18600D2008F0F2FF0B4B186089
:101DB0000E2008F0EDFF0A4B186010BD4C510020BA
:101DC00034FAFF1F40FAFF1F280A00205852002053
:101DD00074510020F04E0020F051002030FAFF1F17
:101DE00000FAFF1F264B10B51968264C0020216011
:101DF000C9B209F023F86178012009F01FF8A17831
:101E0000022009F01BF8E178032009F017F81E4BB7
:101E1000196821600420C9B209F010F86178052022
:101E200009F00CF8A178062009F008F8E1780720FD
:101E300009F004F8154B0820197808F0FFFF144B3F
:101E40000920197808F0FAFF124B0A20197808F0D7
:101E5000F5FF114B0B20197808F0F0FF0F4B0C2009
:101E6000197808F0EBFF0E4B0D20197808F0E6FF0B
:101E70000C4B0E201978BDE8104008F0DFBF00BF02
:101E800034FAFF1F4C51002040FAFF1F280A00209F
:101E90005852002074510020F04E0020F0510020D4
:101EA00030FAFF1F00FAFF1F2DE9F04F102983B011
:101EB0000C4606467FD0202976D04FF0000A5FFA04
:101EC0008AFA4AF0E0630021009301204AF08E4331
:101ED00001930CF009FB01463A480CF0F7FB07466A
:101EE00020460CF0E7FA01460CF034FA044630467E
:101EF0000CF0E0FA014620460CF034FB014638466F
:101F00000CF0E4FB4FF001084FF07E550746C14648
:101F10004FF0010A4FF0000B50460CF0CFFA394653
:101F20000CF020FB04460CF0E3FC0CF0C7FA014671
:101F300020460CF00DFA294606460CF0B1FC4FF095
:101F4000874148B120460CF0ABFC28B120460CF08C
:101F500015FD35468046D1461AF1010A4BF1000BBA
:101F6000BBF1000F08BFBAF1400FD5D11649174C8D
:101F70000D681748174E09F1FF3208F1FF331203BD
:101F800002F47F22C3F30B03134325F010420A60CF
:101F90002360009B0360019B33600B6843F0104398
:101FA0000B6003B0BDE8F08F0B4B019303F140438E
:101FB0000A4F009394E70A4B019303F14043094F02
:101FC00000938DE74054094C80F0024004F1024038
:101FD00008F0024088F00240010000474054894B5D
:101FE000030000474054094B2DE9F04F0546DFF848
:101FF0007C82974E974F98F800E02E60FF2085F87E
:102000002400DFF86C92387859F820C00023BEF124
:10201000060F8DB00C4685F8253085F826309CBF1C
:1020200088F800309E46BCF1000F00F0A8808C4577
:102030005BD06346810001E09C4256D00B445B6854
:10204000002BF9D1634603EB010ADAF80430002BC8
:10205000F9D105EB010BCAF80440BEF1060F4FF0B1
:10206000FF044FFA80FACBF804308DF82C4002962A
:102070008DF82D308DF82E3085F824A0644605D8D3
:10208000002388F80030002C00F0A980A24226D05E
:10209000234601E0934222D00B445B68002BF9D128
:1020A00004EB010CDCF80440002CF9D1CCF804203E
:1020B0000CAB19440024431CBAF1FF3F41F8244CF7
:1020C0003B708DF82CA0029605D0634951F82A3058
:1020D00002AA934272D028460DB0BDE8F08F0130BD
:1020E000387028460DB0BDE8F08F0023FF21BEF107
:1020F000060F02968DF82C108DF82D308DF82E30AD
:1021000001D888F800309445E9D06346810001E0A9
:102110009A42E4D00B445B68002BF9D18C44DCF884
:1021200004402CB1A4468C44DCF80440002CF9D1C6
:102130000CAB19444FFA80FE431CBEF1FF3FCCF8B4
:1021400004203B7041F8244C02968DF82CE0C2D05C
:10215000414951F82E3002AA9342BCD159F82E3091
:102160004FEA8E0623B19A1953685460002BFAD1B6
:102170000023387049F82E3041F82E30ABE7B0B369
:102180008100DFF8D4A049F8204005EB010C0023C2
:102190004AF82050BEF1060FCCF804304FFA80FA0E
:1021A0004FF0FF0C02968DF82D308DF82E3085F80B
:1021B00024A08DF82CC07FF663AF64E759F82A306D
:1021C0004FEA8A0623B19A1953685460002BFAD15A
:1021D0000023387049F82A3041F82A307BE7F0B103
:1021E0001D4B49F8202002AA43F8202060E71B4934
:1021F0001B480B68019243F080630B600368194928
:1022000023F080430360152008F0E0FE164B98F899
:1022100000E0019A4FF4001119603878B0E70F4CD4
:102220000F482368019243F08063236003680D49DF
:1022300023F080430360152008F0C8FE0A4B019A82
:102240004FF40011196038784FFA80FA8100C7E71F
:102250008C5F0100995300207853002004700440E3
:10226000007004409504000000E100E0BCF3FF1F93
:10227000585300202DE9F0415C4D5D4C5D4E08F057
:102280003FFD4FF0FF315C4807F08EFE2A68266064
:102290000023637223612372E3600AB9A2E01A4645
:1022A0005369002BFBD154610027544B50486761A0
:1022B000A780E780A772236002F042FC504A4FF0EB
:1022C000010E02F118013B4638461772D7601660BE
:1022D00082F809E01161174600E0396941F82300EE
:1022E000517A474E01339942F7DC29683F4B09B9CF
:1022F0007AE019464B69002BFBD14A61414D424BB4
:102300002C600024284654619480D4809472A2F8F2
:10231000B0411360A2F8B2416A60C2F8AC41A2F8C1
:10232000B441C2F8B8412C726C72EC602C740AF0A3
:102330005BFA3649364A374F374E28460CF0CCFC0C
:10234000364A374B5069374A1A600CF0B7F8364DA9
:1023500038604FF0FF08354B2D4A354985F8254048
:102360002846012785F824802B606C63AC6385F8D0
:102370003C4085F826700CF0AFFC2E4B244A2E49C9
:1023800086F82480304686F82540336086F827405A
:1023900086F8284086F826700CF09EFC2A463146C6
:1023A0002648274DFFF720FE194A264923480CF0FE
:1023B00093FC254A254B2649147464204FF47A7601
:1023C000547414711473DC7183F83C4483F83D44F5
:1023D00083F86A4483F8600496601560C3F86C144F
:1023E000BDE8F0812C605FE71E6087E7AC540020F9
:1023F000585100205C5F0100B45100208863010047
:10240000F84E002018510020AC5F01008508000044
:10241000FCF9FF1F0C5200202852002014FAFF1F65
:102420002C5100206C630100D0500020306401006A
:10243000BD0600004464010015070000000A0020EA
:10244000685F0100110600002C0A00206C4A002081
:102450000000023810B5184C0A21204602F0DEFEBA
:102460002046002102F0B2FC2046302102F0AEFCF2
:102470002046002102F0AAFC0021204602F0A6FC22
:10248000204602F0DDFE20460A2102F0C7FE20466B
:10249000002102F09BFC2046022102F097FC20461E
:1024A000002102F093FC2046002102F08FFC204620
:1024B000BDE8104002F0C4BE3853002010B5184CDF
:1024C0000A21204602F0AAFE2046002102F07EFCEE
:1024D0002046302102F07AFC2046002102F076FCF2
:1024E000A221204602F072FC204602F0A9FE2046FE
:1024F0000A2102F093FE2046002102F067FC2046EC
:10250000022102F063FC2046002102F05FFC20461D
:10251000432102F05BFC2046BDE8104002F090BE73
:10252000385300200238032838B504DC002880F234
:10253000F481002400E00C240A21CA48CA4D02F0AC
:102540006DFE0021C74802F041FC3021C54802F071
:102550003DFC4021C34802F039FC6021C14802F033
:1025600035FCC04802F06CFE0A21BE4802F056FE5F
:102570000021BC4802F02AFC2621BA4802F026FCC1
:102580000021B84802F022FC6C21B64802F01EFC83
:10259000B44802F055FE0A21B24802F03FFE002185
:1025A000B04802F013FC2821AE4802F00FFC0121D4
:1025B000AC4802F00BFCF021AA4802F007FCA94845
:1025C00002F03EFE0A21A74802F028FE0021A5489D
:1025D00002F0FCFB2A21A34802F0F8FB0021A148ED
:1025E00002F0F4FB00219F4802F0F0FB9D4802F04E
:1025F00027FE0A219B4802F011FE0021994802F0B3
:10260000E5FB2C21974802F0E1FB0F21954802F0F1
:10261000DDFB2221934802F0D9FB924802F010FE24
:102620000A21904802F0FAFD00218E4802F0CEFB0C
:102630003C218C4802F0CAFB44218A4802F0C6FBC8
:102640004621884802F0C2FB864802F0F9FD0A21C3
:10265000844802F0E3FD0021824802F0B7FB242108
:10266000804802F0B3FB01217E4802F0AFFB372126
:102670007C4802F0ABFB7B4802F0E2FD0A2179487E
:1026800002F0CCFD0021774802F0A0FB3021754814
:1026900002F09CFB0021734802F098FBA2217148D4
:1026A00002F094FB6F4802F0CBFD0A216D4802F066
:1026B000B5FD00216B4802F089FB0221694802F058
:1026C00085FB0021674802F081FB4321654802F049
:1026D0007DFB644802F0B4FD4FF4C87008F0C0FE02
:1026E0000A21604802F09AFD00215E4802F06EFB6C
:1026F0002E215C4802F06AFB19215A4802F066FB61
:102700001921584802F062FB564802F099FD0A214F
:10271000544802F083FD0021524802F057FB042187
:10272000504802F053FB00214E4802F04FFB214677
:102730004C4802F04BFB4B4802F082FD0A2149480D
:1027400002F06CFD0021474802F040FB062145489D
:1027500002F03CFB0121434802F038FB30214148A4
:1027600002F034FB3F4802F06BFD0A213D4802F0C5
:1027700055FD00213B4802F029FB0A21394802F0AF
:1027800025FB0021374802F021FB0021354802F0EB
:102790001DFB344802F054FD0A21324802F03EFD90
:1027A0000021304802F012FB0E212E4802F00EFBF1
:1027B00000212C4802F00AFB08212A4802F006FBFF
:1027C000284802F03DFD0A21264802F027FD00219D
:1027D000244802F0FBFA1021224802F0F7FAFF2108
:1027E000204802F0F3FA3C211E4802F0EFFA1D489F
:1027F00002F026FD0A211B4802F010FD00211948B5
:1028000002F0E4FA2221174802F0E0FA7F2115488D
:1028100002F0DCFA7F21134802F0D8FA114802F0E6
:102820000FFD0A210F4802F0F9FC01210D4802F0CA
:10283000CDFA24210B4802F0C9FA0021094802F020
:10284000C5FA0021074802F0C1FA064802F0F8FC78
:102850000A21044802F0E2FC0021024802F0B6FA24
:1028600004E000BF3853002000FAFF1F24212C4849
:1028700002F0ACFA00212A4802F0A8FA14212848F4
:1028800002F0A4FA264802F0DBFC0A21244802F0F8
:10289000C5FC0021224802F099FA2A21204802F0C2
:1028A00095FA00211E4802F091FA00211C4802F01E
:1028B0008DFA1B4802F0C4FC09211A4809F06CFD8E
:1028C00000230A22296818480AF03AFB16480AF041
:1028D00011FB0A2112482C6802F0A0FC00211048CC
:1028E00002F074FA20210E4802F070FAC4F30721B6
:1028F0000B4802F06BFAE1B2094802F067FA0848A7
:1029000002F09EFCB0FA80F1490907480AF09AFAF1
:1029100005480AF0EFFA012038BD8000C4B20BE68A
:10292000385300209461010080FFFF1F38B501215A
:102930000446314806F06CFD372200212E4806F08F
:1029400063FD204605F0DAFD01462B480AF07AFACD
:102950002D21294806F01EFD204605F0ABFD01465D
:1029600025480AF06FFA2D21234806F013FD204672
:1029700005F08EFD014620480AF064FA02221F4944
:102980001D480AF049FA204605F0A6FD092803DC97
:102990003021194806F0FEFC204605F09DFD014659
:1029A00015480AF04FFA204605F04EFD0122054673
:1029B000134911480AF030FA092D03DC30210E4882
:1029C00006F0E8FC29460C480AF03CFA204605F0DF
:1029D0004DFD012204460A4907480AF01DFA092C58
:1029E00003DC3021044806F0D5FC21460248BDE84E
:1029F00038400AF027BA00BFB4510020A06101009E
:102A0000DC6101002DE9F04FB84DB948B94FBA4E1D
:102A1000BA4C87B0052109F0BFFC00230A222968BF
:102A2000B7480AF08DFAB6480AF064FA0B21B548A7
:102A300009F0B2FCB2480AF05DFAFFF773F9FEF74D
:102A4000A7FC0521AA4809F0A7FC00230A2229684F
:102A5000AB480AF075FAAA480AF04CFA08F082FB73
:102A60003860A94807F0B4FA0121A74806F0D6FC5F
:102A70000221A54806F0CCFC00221146A24806F02F
:102A8000C3FC0922A149A0480AF0C6F901219E48C9
:102A900006F0BEFC102200219B4806F0B5FC122275
:102AA0009B4999480AF0B8F997480AF023FA00239D
:102AB000934833600AF01EFA91480AF01BFA052188
:102AC000944809F069FC904807F0BEFC0721924841
:102AD00002F0D6FC0E21904802F05EFD04F58C68F1
:102AE0000C218D4802F014FD404604F26C414FF079
:102AF00038430A2204F030FC002840F0E9851C210C
:102B0000864809F049FC7E480AF0F4F90622844917
:102B10007D480AF081F97C480AF0ECF97A4807F020
:102B200093FC804A804B12689A4200F22E867F4ABC
:102B30007D4B12689A4200F243867D4B1A78172A21
:102B400000F258867B4B1A783B2A00F25E867A4B5D
:102B50001A78172A00F26486784B1A783B2A00F21A
:102B60006A86DFF8F8A1DAF80030012B06D90023D5
:102B700019460C20CAF8003008F060F9704B1B6849
:102B8000042B00F268862B68584A0F2B00F25B86F4
:102B90006C4DDFF8CC816C4E082008F017FCE8B9CA
:102BA0002B6801332B6002E00A2008F059FC082052
:102BB00008F00CFC0028F7D02A68DAF80030A2F1FF
:102BC0000901B3FA83F304294FEA531300F2D584C1
:102BD000002B00F0D2845B4A0E2313604A4807F0B2
:102BE000F7F90121484806F019FC0221464806F091
:102BF0000FFC00221146444806F006FC08F0B2FA29
:102C00003B682C683060C3EB00090E2C5BD8DFE812
:102C100014F070042004DD034103C1024102AC0141
:102C20002C01AB005A005A005A005A005A000F00FB
:102C3000434B04201C6808F0C9FB0190032008F0F6
:102C4000C5FB019B8346002B40F01C85D8F8003063
:102C50003E4A0121132B117040F34D860133C8F811
:102C600000300134BBF1000F40F01385DFF8F4B001
:102C7000364ADBF800300121132B117040F34286F5
:102C8000092CC8BFDBF8003004F1FF34CCBF01339E
:102C90000123002CCBF80030C0F20185062CA8BF20
:102CA00000242B4B264A53F8240014600BF006FC3A
:102CB00028490BF00BFD0AF0ABFF02460B46124809
:102CC00025490AF02FF9FEF7AFFE08F04BFAFFF79F
:102CD0002DFE0D4807F0B8FB0A2008F0C1FBB9F53E
:102CE000167F7FF759AF07B0BDE8F08F00FAFF1FDE
:102CF000A4610100684A0020605200206C4A002054
:102D000080FFFF1FAC610100B4510020B8610100D9
:102D1000C4610100D86101004CFAFF1F5462010038
:102D20007462010034FAFF1FA086010040FAFF1F01
:102D3000280A00205852002074510020F04E002034
:102D400030FAFF1FCC500020E44E0020E84E002057
:102D500014FAFF1F00007A4448620100F05100207D
:102D6000085200201852002005F080FBBE4C03469C
:102D700004202360029308F029FB0190032008F04F
:102D800025FB019A029B8346002A40F06B84D8F809
:102D90000020B6490120132A087040F3B88501329B
:102DA000C8F800200133BBF1000F40F06284DFF867
:102DB000E0B2AE49DBF800200120132A087040F38E
:102DC000AF85092BC8BFDBF8002003F1FF33CCBF70
:102DD00001320122002BCBF80020C0F250843C2BA2
:102DE000A8BF00232268A24C9A4223602FD03068EB
:102DF00005F072FB0390306805F026FB2168029114
:102E00008346306805F044FB0446306805F052FB09
:102E10000190306805F072FB0DF1180E02990EF862
:102E2000081D00F14E0C039A019B8DF8122070468C
:102E30008DF816C08DF815308DF814408DF811B04E
:102E400005F070FB08F094F908F08CF9386007225F
:102E50008849894809F0E0FF08F084F905F006FB8D
:102E60000146854809F0EEFF2DE705F0EDFA834CA9
:102E7000034604202360029308F0A8FA019003207F
:102E800008F0A4FA019A029B8346002A40F0DB83F3
:102E9000D8F8002075490120132A087040F34785AF
:102EA0000132C8F800200133BBF1000F40F0D2839B
:102EB000DFF8DCB16D49DBF800200120132A08702F
:102EC00040F33E85092BC8BFDBF8002003F1FF3338
:102ED000CCBF01320122002BCBF80020C0F2C0830E
:102EE0003C2BA8BF00232268654C9A4223602ED059
:102EF000306805F0F1FA03903068246805F0B6FAFE
:102F00000290306805F0C4FA8346306805F0D2FAC2
:102F10000190306805F0F2FA0DF1180E02990EF8E2
:102F2000081D00F14E0C039A019B8DF8122070468B
:102F30008DF816C08DF815308DF814B08DF811404D
:102F400005F0F0FA08F014F908F00CF938600722DF
:102F50004C49494809F060FF08F004F905F074FA9B
:102F60000146454809F06EFFADE605F0B5FA464C5E
:102F7000034604202360029308F028FA01900320FE
:102F800008F024FA019A029B8346002A40F04C8301
:102F9000D8F8002035490120132A087040F3D7845F
:102FA0000132C8F800200133BBF1000F40F0438329
:102FB000DFF8DCB02D49DBF800200120132A08706F
:102FC00040F3CE84092BC8BFDBF8002003F1FF33A8
:102FD000CCBF01320122002BCBF80020C0F231839C
:102FE000182BA8BF0023226801939A422DD0306885
:102FF00005F02AFA0390306805F038FA029030683C
:1030000005F046FA0446306805F054FA8346306805
:1030100005F074FA0DF1180E02990EF8081D00F172
:103020004E0C039A019B8DF8112070468DF816C046
:103030008DF812308DF815B08DF8144005F072FA45
:1030400008F096F808F08EF8386005220F490A4813
:1030500009F0E2FE08F086F805F03EFA014606485F
:1030600009F0F0FE2FE600BF24520020E84E0020B9
:103070001051002040620100B45100205451002042
:10308000E04E002038620100F4510020306201005F
:103090001852002005F0FCF9C04C034604202360C0
:1030A000029308F093F90190032008F08FF9019A38
:1030B000029B8346002A40F0A882D8F80020B84935
:1030C0000120132A087040F352840132C8F800200E
:1030D0000133BBF1000F40F09F82DFF8ECB2B04942
:1030E000DBF800200120132A087040F34984092BE3
:1030F000C8BFDBF8002003F1FF33CCBF013201224F
:10310000002BCBF8002040F38D82202BA8BF012399
:103110002268A44C9A4223602ED0306805F0DCF976
:103120000390306805F090F98346306805F09EF909
:1031300002903068246805F0BDF90190306805F010
:10314000DDF90DF1180E029A0EF8082D00F14E0C63
:10315000039B01998DF8123070468DF816C08DF8DA
:1031600015108DF814408DF811B005F0DBF907F05B
:10317000FFFF07F0F7FF386004228B498B4809F006
:103180004BFE07F0EFFF05F083F90146874809F091
:1031900059FE98E505F08EF9854C0346042023601E
:1031A000029308F013F90190032008F00FF9019A37
:1031B000029B8346002A40F01982D8F80020784903
:1031C0000120132A087040F3E2830132C8F800207E
:1031D0000133BBF1000F40F01082DFF8ECB1704911
:1031E000DBF800200120132A087040F3D883092B54
:1031F000C8BFDBF8002003F1FF33CCBF013201224E
:10320000002BCBF8002040F3FE810D2BA8BF01233B
:103210002268684C9A4223602ED0306805F05CF931
:103220000390306805F010F98346306805F01EF908
:103230000290306805F02CF901903068246805F0A0
:103240005DF90DF1180E02990EF8081D00F14E0CF3
:10325000039A019B8DF8122070468DF816C08DF8E8
:1032600014308DF815408DF811B005F05BF907F0BA
:103270007FFF07F077FF386006224F494B4809F07F
:10328000CBFD07F06FFF05F015F90146474809F03F
:10329000D9FD18E505F032F9484C034604202360B7
:1032A000029308F093F80190032008F08FF8019A38
:1032B000029B8346002A40F08881D8F800203849D4
:1032C0000120132A087040F370830132C8F80020EF
:1032D0000133BBF1000F40F07F81DFF8ECB03049E3
:1032E000DBF800200120132A087040F36683092BC5
:1032F000C8BFDBF8002003F1FF33CCBF013201224D
:10330000B3F5FA6FCBF80020C0F26D8140F63402BD
:103310009342C8BF4FF4FA632268294C9A42236053
:103320002ED0306805F0D8F80390306805F08CF89E
:103330008346306805F09AF80190306805F0A8F8E7
:103340000290306805F0B6F80DF1180E9DF80420D3
:103350000EF8082D23680399029A8DF815004E3354
:1033600070468DF812108DF816308DF814208DF8F7
:1033700011B005F0D7F807F0FBFE07F0F3FE386058
:1033800005221049094809F047FD07F0EBFE05F05A
:10339000B5F80146054809F055FD94E47051002048
:1033A000E84E00205C52002028620100B451002049
:1033B0005452002014510020206201001C520020B1
:1033C000505100201862010018520020B54B042013
:1033D0001C6807F0FBFF0190032007F0F7FF019B3B
:1033E0008346002B40F0E280D8F80030AE4A01213D
:1033F000132B117040F3E7820133C8F80030013419
:10340000BBF1000F40F0D980DFF8C0B2A64ADBF86C
:1034100000300121132B117040F3DB82092CC8BF4F
:10342000DBF8003004F1FF34CCBF01330123002C62
:10343000CBF80030C0F2C7809C4B9C42C8BF002430
:10344000984B9B499B481C60042209F0E5FC954B76
:1034500041E0994B04201B68029307F0B7FF0190ED
:10346000032007F0B3FF019A029B8346002A40F035
:103470008E80D8F800208C490120132A087040F370
:10348000AC820132C8F800200133BBF1000F40F0DC
:103490008580DFF838B28449DBF800200120132A48
:1034A000087040F3A282092BC8BFDBF8004003F18B
:1034B000FF33C8BF0134002BCBF8004073DDB3F5F8
:1034C000616FC8BF01237C4C7C497A482360042289
:1034D00009F0A2FC23461968764809F0B3FC0122E2
:1034E0007749744809F098FC724809F003FDFFF72A
:1034F000EABB6D4C2378002B40F0B6810A2271495B
:103500006C4809F089FC042007F060FF04460320A2
:1035100007F05CFF002C7FF4D6AB00287FF4D3AB20
:10352000644806F055FD0121624805F077FF02214D
:10353000604805F06DFF002211465E4805F064FF0B
:10354000FEF750FC0A2260495A4809F065FC5948C8
:1035500006F07AFF40F2DC5007F082FFFEF764FAD3
:1035600007F000FEFFF7E2F9524806F06DFF0A206F
:1035700007F076FF07B0BDE8F08F0E2A7FF72EAB7D
:10358000002B3FF42BAB00232B60FFF727BB00225F
:10359000C8F80020BBF1000F3FF47BAF4B4A00217D
:1035A000002B11608BDC4FF461638CE70023C8F8BB
:1035B0000030BBF1000F3FF427AF444B0022002C3A
:1035C0001A60BFF639AF394C3AE70022C8F800203C
:1035D000BBF1000F3FF481AE3C4A0021B3F5FA6F16
:1035E0001160BFF693AE40F6340395E60022C8F8AA
:1035F0000020BBF1000F3FF4F0AD344A0021002B56
:1036000011603FF702AE0C2302E60022C8F800204A
:10361000BBF1000F3FF461AD2C4A0021002B11607B
:103620003FF773AD1F2373E50022C8F80020BBF1FC
:10363000000F3FF4BDAC254A0021002B1160BFF6FE
:10364000CFAC1723CFE40022C8F80020BBF1000F55
:103650003FF42EAC1D4A0021002B1160BFF640AC98
:103660003B2340E40022C8F80020BBF1000F3FF4E8
:103670009EAB164A0021002B1160BFF6B0AB3B2376
:10368000FFF7B0BB0023C8F80030BBF1000F3FF4D8
:10369000EDAA0E4B0022002C1A60BFF6FFAA0524EB
:1036A000FFF7FFBA40FAFF1FE84E002080510100EB
:1036B00010620100B451002034FAFF1F486101007C
:1036C0000C620100F4610100006201001852002048
:1036D00004F23C40C4F8008002F036F80121204694
:1036E00003F03EFD002800F0C880DFF8648308F294
:1036F0003C494846414602F05FFA00283FF4FFA9E2
:1037000098F83C3413F0700F3FF4F9A9BF4CC04B4C
:1037100008F58C6022460921C3F8009004F014F8E3
:10372000237813F0C00300F0B180402B00F06381D8
:103730000D21B84808F030FE002319460A22B64889
:1037400009F0FEFBB44809F0D5FB00240020014637
:1037500000230A223060B14809F0F2FB0122B0498F
:10376000AE4809F059FB00230A222146AB4809F074
:10377000E7FBAA4809F0BEFBA84806F065FEA94A87
:10378000A94B12689A427FF6D2A93C23A54AA74CBE
:10379000136019460020236007F050FB6178012078
:1037A00007F04CFBA178022007F048FBE1780320EA
:1037B00007F044FB9E4A9C4B12689A427FF6BDA9D3
:1037C0003C239B4A994C136019460420236007F060
:1037D00035FB6178052007F031FBA178062007F062
:1037E0002DFBE178072007F029FB924B1A78172A66
:1037F0007FF6A8A90022114608201A7007F01EFBC8
:103800008D4B1A783B2A7FF6A2A900221146092087
:103810001A7007F013FB894B1A78172A7FF69CA9B8
:10382000002211460A201A7007F008FB844B1A7810
:103830003B2A7FF696A9002211460B201A7007F04A
:10384000FDFAFFF78EB9042319460E20136007F026
:10385000F5FAFFF79DB903237A4A19460D20136044
:1038600007F0ECFAFFF78FB9FEF7BCFA4FF0000350
:10387000237007F077FC386040E60146204603F0ED
:103880006FFC00287FF431AFFFF739B9607AA37974
:10389000E27994F80AE06179247A00F003004000AC
:1038A00003F00303920040EADE1001F00F0142EA48
:1038B0008323084443EA94130738013303FA00F0E2
:1038C0000AF0F8FD60490AF04DFE0BF037F80D21C3
:1038D0000446504808F060FD214600230A224E4865
:1038E00009F02EFB4C4809F005FBC72C7FF62EAFE4
:1038F000A4F1C8002BE7C82007F0B2FD534B1B68AA
:10390000FFF7ACB9C82007F0ABFDFFF7B9B9C82085
:10391000019307F0A5FD4D4B1A68019BFFF73FBAD5
:10392000C820019307F09CFD019BFFF74ABAC8200D
:10393000019307F095FD454B1A68019BFFF7B0BA5C
:10394000C820019307F08CFD019BFFF7BBBAC8208C
:10395000019307F085FD3D4B1A68019BFFF720BBE3
:10396000C820019307F07CFD019BFFF72BBBC8200B
:10397000019307F075FD354B1A68019BFFF7A5BB56
:10398000C820019307F06CFD019BFFF7B0BBC82076
:10399000019307F065FD2D4B1A68019B15E4C820C3
:1039A000019307F05DFD019B21E4C820019307F01E
:1039B00057FD264B1A68019B87E4C820019307F046
:1039C0004FFD019B93E4C82007F04AFD1F4B1B6885
:1039D00012E5C82007F044FD20E5C820019307F058
:1039E0003FFD1A4B1A68019B4BE5C820019307F075
:1039F00037FD019B57E5637A227AE079013303EBC7
:103A0000022303EB004080025AE700BFF851002078
:103A100050530020E061010080FFFF1FB4510020DF
:103A2000F061010034FAFF1FA08601004C51002014
:103A300040FAFF1F280A002058520020745100202D
:103A4000F04E002030FAFF1FBD37063A0852002022
:103A50006C4A00202DE9F04FA04DA14FA14E8FB030
:103A60004FF4FA7007F0FCFC29689F4800230A22F3
:103A700009F066FA9C4809F03DFA29689A48002343
:103A80000A2209F05DFA984809F034FA2968964844
:103A900000230A22002409F053FA934809F02AFA75
:103AA00064203C6007F0DCFC39688F481022234614
:103AB00009F046FA8C4809F01DFA4FF430533B6088
:103AC000642007F0CDFC4FF434533B60642007F0D2
:103AD000C7FC864B844819681022234609F030FA47
:103AE000814809F007FA39687F482346102209F017
:103AF00027FA7D4809F0FEF97D4B7B4819681022B2
:103B0000234609F01DFA784809F0F4F92968764847
:103B100023460A2209F014FA734809F0EBF94FF42E
:103B20007A7007F09DFC29686F4823460A2209F045
:103B300007FA6D4809F0DEF94FF47A7007F090FC4F
:103B40002968694823460A2209F0FAF9664809F00B
:103B5000D1F9684A684B11681960043267481268E5
:103B60005A6001F0D9F90121022007F03DFC012142
:103B7000142007F039FC0121062007F035FC21460E
:103B8000152007F031FC204606F0B0FF012102208D
:103B900007F0F8FB0121142007F0F4FB01210620B7
:103BA00007F0F0FB0221042007F01EFC0221032095
:103BB00007F01AFC0221082007F016FC07F0D2FAE1
:103BC0004F4B3060984202DC4E4807F0D1FA012397
:103BD0003C2202214C484D4C06F02CFB8C2007F077
:103BE0003FFC494806F0F4F90121474805F016FC6E
:103BF0000221454805F00CFC00221146424805F020
:103C000003FC0A224249404809F006F93E4809F0FF
:103C100071F93D4806F018FC0121112007F0E4FB82
:103C20000121112007F0AEFB374806F0D1F9012140
:103C3000354805F0F3FB0221334805F0E9FB00228B
:103C40001146314805F0E0FB0A2231492E4809F0BF
:103C5000E3F82D4809F04EF92B4806F0F5FB072153
:103C60002C4801F00DFC04F58C650E21294801F06B
:103C700093FC284604F26C414FF038430A2203F0CB
:103C80006BFB00284CD11C21234808F085FB16480B
:103C900009F030F91C4806F09BF901211A4805F09B
:103CA000BDFB0221184805F0B3FB0022114616485F
:103CB00005F0AAFB12221949134809F0ADF8124881
:103CC00009F018F907F04EFAFEF730FE0E4806F03C
:103CD000BBFB4FF47A7007F0C3FBDBE700D0034077
:103CE00010D00340E44E002080FFFF1F14D003409B
:103CF00018D0034058800440385100203853002029
:103D00007FC1855680C18556B45100206C4A002081
:103D10007C6201004CFAFF1F5462010088620100BE
:103D200004F23C40256001F00FFD0121204603F024
:103D300017FA0146002800F01F81994D05F23C4416
:103D40002046294601F038FF00289CD095F83C34E5
:103D500013F0700F97D0934BDFF8B4A21C60FDF7FF
:103D60005BFDFEF74FFE6E218F4808F069FC8F4A1D
:103D70008F4B176853F8278040460AF09FFB1021AD
:103D8000CAF800004046FEF78FF88A4801F0C4F8F0
:103D90003846FEF7C7FB204601F0D6FC29462046F0
:103DA0000EAD01F009FF844B45F8343D0023214658
:103DB0008DF814308DF815308DF808308DF81030EE
:103DC0007E4A462305A84FF47A74039401F074FEEA
:103DD0009DF81430002B40F0D6807948DFF834820B
:103DE00006F0F6F80121764805F018FB0221744828
:103DF00005F00EFB00221146714805F005FBD8F8CE
:103E000000303C2B06DDB3F5967FD4BF3C244FF445
:103E1000967400E00A2407F0A5F9DFF8FC91694FD9
:103E2000D9F8003090FBF4F204FB0244664A30609B
:103E3000E118116018463C600AF040FBDAF8001007
:103E4000624D634CDFF8D4A1DFF8D4B10AF08AFBED
:103E50004FF06E510AF086FB4FF074510AF082FB6E
:103E600009F0D6FE09F060FC00225A4B09F024FF4D
:103E70000AF0D2F9584BD8F800201968574B28603F
:103E8000521A22EAE27583FB05232B44E817C0EBA4
:103E9000E32009F0ABFE09F0CFFC0AF0BDF9504B6E
:103EA000CAF8000004FB005483FB04232344E017FA
:103EB000C0EB631009F09AFE09F0BEFC0AF0ACF901
:103EC000484DA0EB001204EB820403461021464843
:103ED000CBF800302C6008F05FFADAF800104348A5
:103EE00008F0B0FFDBF80010404808F0ABFF29688D
:103EF0003E4808F0A7FF3D4808F0FCFF08213C4879
:103F000008F04AFAD9F80010384808F09BFF374803
:103F100008F0F0FF0821374808F03EFAD8F8001002
:103F2000324808F08FFF314808F0E4FF0E21324894
:103F300008F032FA3068FDF7AFFE0C212F4808F088
:103F40002BFA3868FDF7A8FE3B6834682C481C1B28
:103F5000152108F021FA2146244808F073FF234870
:103F600008F0C8FF2749284B00204FF0FF320860B7
:103F70001A600FB0BDE8F08F204603F0F1F800287A
:103F80007FF4DBAE7FE61A22204905A802F01EF876
:103F9000284608F0AFFF05A801F0D6FB1DE700BFDB
:103FA0006C4A0020505300200082FF1F30FAFF1F90
:103FB00014FAFF1F38530020685F010018600100E9
:103FC000B4510020EC4E002040510020EC51002064
:103FD000F0F1FFFF0000404004FAFF1FC5B3A291BB
:103FE00089888888105200209C62010080FFFF1F92
:103FF000B0620100BC620100C8620100D862010029
:10400000E8620100FC09002020520020B06001009D
:104010000C52002040FAFF1F34FAFF1F600A0020F4
:104020004451002038B504460D463148012105F0C1
:10403000EFF92AB200212E4805F0E6F9204604F0F7
:104040005DFA01462A4808F0FDFE2D21284805F0BA
:10405000A1F9204604F02EFA0146254808F0F2FEA8
:104060002D21234805F096F9204604F011FA014667
:104070001F4808F0E7FE02221E491D4808F0CCFE4A
:10408000204604F029FA092803DC3021184805F0FD
:1040900081F9204604F020FA0146154808F0D2FEC6
:1040A000204604F0D1F9012205461349104808F0D2
:1040B000B3FE092D03DC30210D4805F06BF92946CC
:1040C0000B4808F0BFFE204604F0D0F90122044658
:1040D0000949074808F0A0FE092C03DC30210448F8
:1040E00005F058F921460248BDE8384008F0AABE5C
:1040F000B4510020A0610100DC6101002DE9F04114
:10410000BD4D2C6824B1012C63D030BFBDE8F081D7
:1041100007F028F8B94FBA4E3860BA4805F058FF92
:104120000121B84805F07AF90221B64805F070F986
:1041300022462146B34805F067F90A22B249B14840
:1041400008F06AFEAF4808F0D5FE14213068FFF78A
:1041500069FF3868FEF7EAFBAA4806F075F93A6885
:1041600033689A4232DBA94F3C68002C59D00D21AC
:10417000A748A84C08F010F9A74808F0BBFEA74BC9
:10418000A74A31681B681268A6480B441A440E21DE
:104190003260236008F000F906F0E4FFFDF77CFDD3
:1041A0000B21A14808F0F8F82068FDF775FD0B21F8
:1041B0009E4808F0F1F83068FDF76EFD0123AE214E
:1041C00090482B6005F00CFFFDF79CF82C68012C43
:1041D0009BD1FCF7DDFC042007F0F8F8064603202D
:1041E00007F0F4F80EB9002836D0914C914B2268B4
:1041F0001B689A4289DB8A4B1E68002E79D18E4853
:1042000001F0A2FAFCF7B0FD0B218C48266008F003
:10421000C3F88B4B80481988FCF73AFB30BFBDE8E8
:10422000F0810A21874800F0F9FF2146854800F017
:10423000CDFD0E21834800F0C9FD2146814800F0E4
:10424000C5FD0A217F4800F0C1FD7E4800F0F8FF5F
:104250004FF0FF333B608AE72146112007F092F8C8
:10426000734B794E1B68794A73485B02002503F152
:1042700024072946B362A2F8B451776001F0B6FD75
:1042800031462C226C4801F0A1FE6B4801F05CFA2B
:1042900023463C2202215B4805F0CCFF642007F056
:1042A000DFF8584805F094FE2146564805F0B6F868
:1042B0000221544805F0ACF82A462946514805F039
:1042C000A3F8072262494F4808F0A6FD4D4808F0C0
:1042D00011FE21464B4805F09BF810225D494948E4
:1042E00008F09AFD474808F005FE464806F0ACF88D
:1042F000FEE7FCF705FD424B574E1C68574F06F092
:1043000031FF574A574B1268201A841A24EAE47482
:1043100083FB04232344E017C0EBE32009F066FC91
:1043200009F08AFA09F078FF4F4B504A306003FBDE
:10433000004482FB043222448046E017C0EB621046
:1043400009F054FC09F078FA09F066FF0201131A2B
:10435000821A04EB82049B004FF4616202FB083373
:104360003C60DFF81C811C44092CC8F8000011DCFB
:1043700007213F4808F010F8274808F0BBFD01234B
:104380003C2202211F4805F055FF00232B6030BF5F
:10439000BDE8F0810021022006F0F4FFFEF75AF894
:1043A0001021344807F0F8FF31681B4808F04AFD37
:1043B000D8F80010184808F045FD39681648FCF791
:1043C00067FA08F0EDF8642007F04AF83B7898F8AF
:1043D00000203178284803F0CFFE284803F092FCF3
:1043E0000121022006F0CEFF4FF4967007F038F856
:1043F000FEF764F8BCE700BFFC090020E44E002093
:10440000EC4E0020B451002000630100640A00203B
:104410000C6301004051002080FFFF1F34FAFF1F92
:1044200040FAFF1FC86201001C63010028630100FD
:10443000F44E0020EC5100203C0A002050630100A3
:10444000B05400203853002064520020F84E002061
:10445000346301003C630100600A00201052002018
:1044600004FAFF1FC5B3A291F0F1FFFF8988888885
:104470005C6301009C620100D0500020000A002013
:10448000445100200020704700207047F8B5C34C0D
:10449000012605460671204600F03EFD052006F087
:1044A000DFFF297A204600F0E3FD2046002100F0DE
:1044B0008DFC2046302100F089FC2046402100F090
:1044C00085FC6021204600F081FC204600F0B8FE0B
:1044D000297A204600F0CCFD2046002100F076FC31
:1044E0002046262100F072FC2046002100F06EFCE0
:1044F0006C21204600F06AFC204600F0A1FE297ADB
:10450000204600F0B5FD2046002100F05FFC20466B
:10451000282100F05BFC3146204600F057FCF221D8
:10452000204600F053FC204600F08AFE297A2046FF
:1045300000F09EFD2046002100F048FC20462C2182
:1045400000F044FC20460F2100F040FC22212046D0
:1045500000F03CFC204600F073FE297A204600F073
:1045600087FD2046002100F031FC20463C2100F070
:104570002DFC2046442100F029FC4621204600F075
:1045800025FC204600F05CFE40F23713EB80297AD0
:10459000204600F06DFD2046002100F017FC20466B
:1045A000242100F013FC3146204600F00FFC372197
:1045B000204600F00BFC204600F042FE297A2046FF
:1045C00000F056FD2046002100F000FC204630217E
:1045D00000F0FCFB2046402100F0F8FBFF212046C4
:1045E00000F0F4FB204600F02BFE297A204600F074
:1045F0003FFD2046002100F0E9FB2046022100F0AB
:10460000E5FB2046002100F0E1FB7321204600F08D
:10461000DDFB204600F014FE4FF4C87006F020FFCA
:10462000297A204600F024FD2046002100F0CEFB30
:1046300020462E2100F0CAFB20461D2100F0C6FBBB
:104640001D21204600F0C2FB204600F0F9FD297A2A
:10465000204600F00DFD2046002100F0B7FB20466B
:10466000042100F0B3FB2046002100F0AFFB042141
:10467000204600F0ABFB204600F0E2FD297A204600
:1046800000F0F6FC2046002100F0A0FB20460621A9
:1046900000F09CFB3146204600F098FB302120467C
:1046A00000F094FB204600F0CBFD297A204600F074
:1046B000DFFC2046002100F089FB20460A2100F0A3
:1046C00085FB2046002100F081FB1021204600F0F0
:1046D0007DFB204600F0B4FD297A204600F0C8FC9E
:1046E0002046002100F072FB20460E2100F06EFBF8
:1046F0002046002100F06AFB0021204600F066FB06
:10470000204600F09DFD297A204600F0B1FC2046AD
:10471000002100F05BFB2046102100F057FB2046F3
:104720003C2100F053FB3C21204600F04FFB20468B
:1047300000F086FD297A204600F09AFC20460021F0
:1047400000F044FB2046222100F040FB20467F2160
:1047500000F03CFB7F21204600F038FB3627204646
:1047600000F06EFD297AEF80204600F081FC2046A3
:10477000002100F02BFB2046242100F027FB2046DF
:10478000002100F023FB3946204600F01FFB2046A5
:1047900000F056FD6E723046F8BD00BF3853002061
:1047A0000B462DE9F04145490546184609F0DAFE69
:1047B000434909F0CFFD0AF0C1F8044600284CD067
:1047C00080281FD92B79002426462BBB297A3D4807
:1047D00000F04EFC00213B4800F0F8FA2221394855
:1047E00000F0F4FA3146374800F0F0FA2146354837
:1047F00000F0ECFA334800F023FDB0FA80F04009F5
:10480000BDE8F081C0F180042B7944EA0424C4F3AC
:104810000726E4B2002BD9D0EF88297A294827F05F
:1048200010074FF00008EF8085F8048000F020FCAE
:104830004146244800F0CAFA2421224800F0C6FA72
:10484000390A204800F0C2FA07F0EF011D4800F0D5
:10485000BDFA1C4800F0F4FCB8E701232B71297A5B
:10486000184800F005FC2146164800F0AFFA222156
:10487000144800F0ABFA7F21124800F0A7FA7F211C
:10488000104800F0A3FA0F4800F0DAFCEE88297A0D
:104890000C4846F01006B6B2EE8000F0E9FB214667
:1048A000084800F093FA2421064800F08FFA310AF4
:1048B000044800F08BFAF1B299E700BF0000014311
:1048C000EE7CFF3E3853002070B505460C4619B10A
:1048D00001293BD0002070BD017A424800F0C8FB9E
:1048E0002146404800F072FA20213E4800F06EFA5E
:1048F00021463C4800F06AFA55213A4800F066FA31
:10490000384800F09DFC06460028E3D1EC88297A5F
:10491000344844F00404A4B2EC8000F0A9FB314612
:10492000304800F053FA24212E4800F04FFA210AB3
:104930002C4800F04BFAE1B22A4800F047FA294827
:1049400000F07EFCB0FA80F0400970BD017A254885
:1049500000F08EFB0021234800F038FA2A2121487C
:1049600000F034FA21461F4800F030FA73211D4848
:1049700000F02CFA1B4800F063FC04460028A9D183
:10498000297A184800F074FB2146164800F01EFAF8
:104990002021144800F01AFA2146124800F016FAB5
:1049A0008821104800F012FA0E4800F049FC044635
:1049B00000288FD1EE88297A0A4826F00406EE8076
:1049C00000F056FB2146074800F000FA2421054874
:1049D00000F0FCF9310A034800F0F8F906F0FB0199
:1049E000AAE700BF3853002010B5044608F08AF843
:1049F000204610BD024A034903480AF06DB900BFC2
:104A0000FCF9FF1FE9490000905200201B4A1C4B93
:104A100011681C48096970B499421279027009D270
:104A2000194A127832B3194A4FF08041116003F5E8
:104A3000807402E01C46A3F58073154A154912687C
:104A40000D68AAB1A5B1144E3088402810D8410095
:104A50000A444030294402320231308033F9040BD9
:104A600022F8020F9C4233F9020C21F8020FF5D80C
:104A700070BC704703F58074DFE700BFA0520020D0
:104A8000B8F2FF1F1F8000409A52002008E200E0A9
:104A9000A85200209C52002098520020F8B50646EB
:104AA00007F0FEFD0446E8B107F0FAFD05460028D0
:104AB0003AD072B61F4B1A887F2A19D8002C31D0F1
:104AC0001D490A6842B162B6204607F03DFE2846FD
:104AD000BDE8F84007F038BE18480C601A80056041
:104AE00062B6F8BD054672B6124B1A887F2AE5D920
:104AF000114A12491768146000220C681A800D6070
:104B000062B63946304607F049FE384607F01CFECB
:104B100030462146012207F041FE2046BDE8F8401C
:104B200007F012BE62B6F8BD204607F00DFE2C4617
:104B3000BFE700BF98520020A85200209C520020DE
:104B4000F8B5284C284E2046012107F03DFF00F023
:104B500083F8264B264A27484FF480611960236862
:104B600000211A6099802279186102F1804202F5D1
:104B7000043240F20110D8809E614FF4807502200B
:104B800006278E26DD82D960DD8398609F83988218
:104B90001170167007F0BEFE1749184B2279184F96
:104BA00008701A7039682279164C174D174E41F06B
:104BB000124141F00101531139609B00206803F15B
:104BC000604302F1100703F5614302F01F02012167
:104BD00040F0104001FA02F2206045F827601A60A8
:104BE000F8BD00BFA052002000FEFFFF14B004403B
:104BF000A0F00240B8F1FF1F9A5200201B80004035
:104C000080F0024000F0024000F4FF1F0D4A000057
:104C1000024A034903480AF05FB800BFFCF9FF1FCE
:104C2000E9490000A0520020024A034903480AF063
:104C300053B800BFFCF9FF1FE9490000AC52002047
:104C4000024A034903480AF047B800BFFCF9FF1FB6
:104C5000E9490000B4520020284B29491A68294824
:104C600042F400421A600A6842F002020A601A68BE
:104C700042F002021A600368002B3DDB224B1B68E6
:104C8000002B39DB214A4FF0864313601368002B59
:104C9000FCDBF0B51E4C1F48DFF8ACE01E491F4B93
:104CA0001F4A204F204E214D47F2320CC4F800C05D
:104CB000002404600120CEF80000DFF890E0C1F885
:104CC00000E04FF480311960194B1360DFF880E089
:104CD000184A3A60346028601748CEF80000174C34
:104CE000B9671748174946F8503C4FF4C0632A612A
:104CF000236003600B60F0BD704700BF3C80044040
:104D00004080044000F0024080F0024000F1024088
:104D100004F1024060F0024008F002400CF0024052
:104D200010F0024014F00240E0F0024084F0024033
:104D30001B0F0100000F0F0F0300004708B00440D5
:104D40000CB0044018B0044004F002400300000717
:104D500088F00240024A0349034809F0BDBF00BF82
:104D6000FCF9FF1FE9490000BC520020024A034938
:104D7000034809F0B1BF00BFFCF9FF1FE94900007B
:104D8000C4520020024A0349034809F0A5BF00BFEE
:104D9000FCF9FF1FE9490000CC520020024A0349F8
:104DA000034809F099BF00BFFCF9FF1FE949000063
:104DB000D4520020024A0349034809F08DBF00BFC6
:104DC000FCF9FF1FE9490000DC5200200A4B1B7868
:104DD00013B90A4B1B786BB1094A1378202B07D8FB
:104DE00010B4581C074C1070E154012010BC7047DF
:104DF00001230371002070474A5300200D53002007
:104E00004B530020EC520020704700BF024A034B76
:104E100010781B78C01A704749530020485300206F
:104E2000064A074913780978994204D90548591C5C
:104E3000C05C117070474FF0FF307047485300203E
:104E40004953002010530020054B064A1B78127866
:104E50009A4286BF044AD05C4FF0FF30704700BFD3
:104E600048530020495300201053002070B50D4BCB
:104E70001B78144613B90C4B1B788BB10B4E35784D
:104E8000C5F12103A34202D201221C460271084847
:104E900022462844254405F07DFC3570204670BD2F
:104EA000184670BD4A5300200D5300204B5300207C
:104EB000EC520020124BDB7803F020034BB1114A77
:104EC00013780133DBB2012B137012D9122006F0D4
:104ED00005B910B5122003F0FF0406F0FFF80A4BE5
:104EE0001B685BB109490A4A0C701078BDE8104094
:104EF0001847084B1B78002BE8D0704710BD00BF47
:104F00000060064034530020E8520020485300203F
:104F1000495300200D5300200D4A0E4BF0B50020E0
:104F20000D4C10702268DFF838E00C4F42F0400260
:104F300022604FF4197128260325202480229870BE
:104F4000CEF8001039605E709D715C719A70F0BD92
:104F50000D530020006006403480044008A0044047
:104F60000CA0044010B5384CE378DBB2D80623D54A
:104F700010225906E2701ED503F0040303F0FF026D
:104F8000002B33D0314B32491A68324C00230B705E
:104F90002370002A3BD090472378002B37D02E4B2C
:104FA0001B78294A2D49D02494701371264B012077
:104FB00002220870DA7010BD5A06DDD4A27802F021
:104FC000100202F0FF0042B313F001031BD123498A
:104FD00020480A780078904281BF1F4B501C9B5C90
:104FE00008702371184BD0229A7008E01C48164BA9
:104FF000174902700120C02208709A701B79124B69
:105000000222DA7010BDC023A3702379F7E712499A
:10501000002301220B702270C3E7124B1249187053
:105020000322122005F0DAFF0D4923790A781F2A9E
:10503000DBB2E4D8064800780028E0D00B4C501CC6
:10504000A3540870DBE700BF006006403053002027
:10505000E45200204B530020EC5200204C5300201F
:105060004953002034530020B54E00001053002057
:105070000548064A10B40123054C0370490013701B
:10508000217010BC704700BF4A5300204B530020D2
:10509000EC5200202DE9F043594C1223E370A37821
:1050A00003F0200383B0002B55D0B423DFF86881D0
:1050B000A370D8F80030524D1C460020EA78D2B2D6
:1050C0009A421CBF1446012096061346F6D50028C6
:1050D00040F08C804B4B1B78002B33D003F1FF3E0C
:1050E0005FFA8EFE0026D8F80040474F444D0EF17F
:1050F000010E30464FF0020C17F8013F2B715FFA9A
:1051000086F902E013F0200F09D0EB78DBB293426E
:105110001CBF1C46012013F0020F1A46F2D085F87E
:1051200003C0EA78D2B293421CBF14460120D306D2
:1051300033D4930631D5D30744D401367645DBD139
:1051400000284AD1002000292ED1304B00221A70AD
:1051500003B0BDE8F0832E4DDFF8BC8003F0FF0202
:105160002B680093009ED8F8000005E02B6801939F
:10517000019B9B1B0F2B1BD8E378DBB2834218BF2C
:10518000012213F0200F1846F0D192BB21481C4B8E
:105190000024B02204709A708BE708BB184B802261
:1051A0009A7004200029D0D0154B80229A70CCE749
:1051B000CAB9134B00218022042099709A7003B061
:1051C000BDE8F083C0B90E4BB9F1000F4FF080027B
:1051D0000CBF022003209A70B7E7C8F80040B1E77F
:1051E000C8F80040DAE7C8F80000E2E7C8F8004075
:1051F00070E7C8F80030C9E7C8F80040E3E700BF2F
:10520000006006404B530020EB5200204A53002020
:10521000AC5300200D53002048FAFF1F0548064AF2
:1052200010B40123054C037049001370217010BCA9
:10523000704700BF4A5300204B530020EC5200201F
:105240000121FFF727BF00BF044B054A1A604FF446
:105250007A71002299601A711A73704738530020CE
:105260009463010010B4047F4160022CC26002D03C
:1052700010BC07F061BC836810BC1847F0B4464B03
:10528000464A186BDC6A01791170454922790A7027
:105290009A6A00790870002A46D05968C9688A421B
:1052A0003ED82168CC8B240402F1FF3065D4C0F3D2
:1052B0000E00C883C88B80B2C882196B0968C88B7E
:1052C000000452D4C2F30E00C883C88B002480B2FD
:1052D00012F1FF32C88218BF01229C62D96A2E489F
:1052E00009680D6800F12404A54236D00068C4683E
:1052F00014F0804F0C680D6815BF2488247802359F
:10530000013544F000440D604463196B254B097965
:105310001970214912B1CA6A12791A70F0BC70472B
:10532000521A9A620122D9E7586B196805681E4C17
:105330000A63CC62CC682D681C4E24F0804403279D
:10534000B542CC6083F825701FD1037F4260022BE9
:10535000C2601ED0F0BC07F0EFBB016890F82400DB
:10536000CC6840F000404863CFE7CC8BC2F3080024
:1053700004F47E442043C883A7E7CC8BC0F3080025
:1053800004F47E442043C88394E72B461146F0BCC6
:1053900018478368F0BC18474CFAFF1F1F80004075
:1053A0001C8000401B80004000000FFF6552000081
:1053B00090E80C00F0B41C6859682568164F174E29
:1053C00029432160164D17491760D6601561116099
:1053D000417A154A5C180A3194F8244053F8215058
:1053E00002EBC40149680D60017A5C1803EB81018E
:1053F000247ECD6902EBC40149680D60817A58189A
:1054000003EB810390F83000596B02EBC002F0BC53
:1054100053681960704700BF01401F000110003839
:105420000110007800001F80086A010042680368CC
:1054300005CA10B4046822430260D868840100F0F1
:10544000E06205D5080900F4706021F47041014361
:10545000D8681143814209D01A68500408D407481B
:10546000186041F08040D96018611A6010BC704724
:1054700041F08042D96010BC1A61704701401F00A2
:10548000204A43689A42F0B40FD0427A1A4492F804
:105490002420914207D093F824408C4215D093F8F1
:1054A00025408C422AD0F0BC70470B2907D0072931
:1054B000EBD1154C227842F001022270E5E7124C44
:1054C000227822F001022270DFE7002421461E68C4
:1054D0005D6836682E420FD00C4D05EBC2020027E6
:1054E00056685A18376092F8242005EBC2050A3135
:1054F0006A6853F8213013604472D4E701242146CE
:10550000E5E700BFB0630100FC540020086A010019
:105510001E4A43689A42F0B40CD0027A1A44127EB2
:10552000914205D01C7E8C4214D05C7E8C422AD0E5
:10553000F0BC70470C2907D00829EED1144C227812
:1055400042F002022270E8E7114C227822F00202B7
:105550002270E2E7002421461E685D6836682E420C
:105560000FD00C4D05EBC202002756685A18376061
:10557000127E063105EBC20503EB81036A685B68A6
:1055800013600472D4E701242146E5E7B06301000B
:10559000FC540020086A0100204A43689A42F0B493
:1055A0000FD0827A1A4492F83020914207D093F8B3
:1055B00030408C4215D093F831408C422BD0F0BC57
:1055C00070470D2907D00E29EBD1154C227842F0F7
:1055D00004022270E5E7124C227822F004022270C5
:1055E000DFE7002421461E685D6836682E4210D031
:1055F0000C4D05EBC202002756685A18376092F826
:1056000030200C3105EBC20503EB81036A685B684F
:1056100013608472D3E701242146E4E7B0630100FC
:10562000FC540020086A010038B590F90230002BC4
:10563000044612DBA56805F1240001F0FDF928B944
:10564000637843F001036370002038BD05F50C70EA
:1056500001F0F2F90028F3D038BD8068A169243048
:10566000012201F0A3F90028EAD0A38803F00F0378
:105670005B01C518E4D0C35CE52BE1D023780B4A6D
:105680001B0744BFE369EB61236A12686B831B0C41
:10569000AB8232B105F1160105F1180090472B8B52
:1056A0006B82A37803F07F03A370C3E754530020F9
:1056B0002DE9F041037803F020032BB903F0FF0438
:1056C0004269204B9A4203D900263046BDE8F0815A
:1056D00083780169054663F07F038068AB7005F14C
:1056E000100201F01DFB06460028EDD02969A868CC
:1056F00001F0CAF90746A86839462430052201F0AE
:1057000055F980460028DFD04FF40072214609F099
:1057100005FFAB681A79012A0FD9012403E0AB68B1
:105720001A79A24209D9E1191868424602F040F8F4
:105730000134E4B20028F2D1C6E76B6903EB4222E0
:105740006A61C2E7FFFD1F0038B5037804461BB944
:1057500000232370012038BD90F90230002B14DBA8
:10576000A56805F1240001F067F938B9637843F0C2
:105770000103637000232370002038BD05F50C7011
:1057800001F05AF90028F1D0E2E78068A1692430DD
:10579000012201F00BF90028E8D0A38803F00F03E1
:1057A0005B01C518E2D0C35CE52BDFD023780B4A40
:1057B0001B0744BFE369EB61236A12686B831B0C10
:1057C000AB8232B105F1160105F1180090472B8B21
:1057D0006B82A37803F07F03A370C1E754530020CA
:1057E0002DE9F0470D7815F0700F88B003D1002037
:1057F00008B0BDE8F087C32304460D4600F07EFEE6
:105800000028F4D05D4B6269012610219A42A670EF
:105810002170ECD881236218A3702169A06801F07F
:105820007FFA0028E3D02169A06801F02DF907462E
:10583000A06839462430052201F0B8F880460028D7
:10584000D5D04FF40072002109F068FE08E0F1198C
:105850000068424601F0ACFF0136F6B20028C6D01F
:10586000A0680279B242F2D863692178266926627B
:1058700003EB42236361002974D124300122A16922
:1058800001F094F80028B2D0A68806F00F0610EBBD
:105890004616ACD01023F372B26830687168F368B2
:1058A000B6F81490B6F81AA06F460FC73069716940
:1058B000B269F36908AE0FC74FF02E084FF02033DE
:1058C000216AA06806F8208DCDF80530CDF80130AA
:1058D000ADF8093001F0D8F8A3680146012203F1C0
:1058E000240001F063F88646002880D03746ADF8E2
:1058F0001490ADF81AA00FCFCEF80000CEF8041027
:10590000CEF80820CEF80C300FCFCEF81000CEF82D
:105910001410CEF81820CEF81C302B6A8DF80180B8
:105920001A0C3546ADF81A30ADF814200FCD0EF133
:105930002006CEF820007160B260F3600FCD3061B8
:105940007161B261F361A46804F1240001F074F89C
:1059500000283FF44CAF04F50C7008B0BDE8F047E8
:1059600001F06AB813B10023236163612046FFF799
:105970005BFE00283FF43BAFA0687EE7FFFD1F0001
:105980002DE9F041064692B03478019200208DF85E
:1059900024008DF8250024B90D46097811F0700F08
:1059A00003D1002012B0BDE8F081144612782F2AEE
:1059B0002DD00DF1040803AF002B53D042463946D9
:1059C000204600F0F5FB3A46294601230028E8D09E
:1059D000019C24783046002C61D000F08FFD3A46BF
:1059E000294620B93046FFF7FBFE0028D9D03546BE
:1059F0000FCD09AC0FC40FCD0FC433782A682260D5
:105A0000002B48D100233370019C09ADD6E7013447
:105A1000019422782F2AFAD0AD680093242209A895
:105A2000002109F07BFD0B95EA79009B102A3ED0FE
:105A3000202AB6D140228DF82420012209AD8DF80C
:105A400026200DF1040803AF63B1B7E70FCD0FC4F3
:105A50000FCD0FC433782A682260C3B90023019C9C
:105A6000337009AD42463946204600F0A1FB3A4664
:105A700029460123002894D0019C2478304674B133
:105A800000F03CFD354609AC00288AD0DEE7304600
:105A9000FFF7CAFDE2E73046FFF7C6FDB2E73A4638
:105AA00029463046FFF79CFE12B0BDE8F081202267
:105AB0008DF82420C1E700BF2DE9F041064692B0E1
:105AC0003478019200208DF824008DF825002CB93F
:105AD0001F460B7813F0700F0D4603D1002012B053
