:1000000000800020BD01000081AC000039AC000080
:1000100039AC000039AC000039AC000039AC00004C
:1000200039AC000039AC000039AC000081AC0000F4
:1000300081AC000039AC0000E1C7000031CA00000B
:1000400081AC000081AC000081AC000081AC0000FC
:1000500081AC000081AC000081AC000081AC0000EC
:1000600081AC000081AC000081AC000081AC0000DC
:1000700081AC000081AC000081AC000081AC0000CC
:1000800081AC000081AC000081AC000081AC0000BC
:1000900081AC000081AC000081AC000081AC0000AC
:1000A0005D50000081AC000081AC000081AC00001C
:1000B00081AC000081AC000081AC000081AC00008C
:1000C00081AC000081AC000081AC000081AC00007C
:1000D00081AC000081AC000081AC000081AC00006C
:1000E00081AC000081AC000081AC000081AC00005C
:1000F00081AC000005D1000081AC000031D20000CD
:1001000081AC00005DD3000081AC000081AC000038
:1001100081AC000081AC000081AC000081AC00002B
:1001200081AC000081AC000081AC000081AC00001B
:1001300081AC000081AC000081AC000081AC00000B
:1001400081AC000081AC000081AC000081AC0000FB
:1001500081AC000081AC000081AC000081AC0000EB
:1001600081AC0000D9B3000081AC000081AC00007C
:1001700081AC000081AC000081AC000081AC0000CB
:1001800081AC000081AC000081AC000081AC0000BB
:1001900081AC000081AC000081AC000081AC0000AB
:1001A00081AC000081AC000081AC000081AC00009B
:1001B00081AC000081AC00006DC50000564B4CF2D4
:1001C000205210B51A804DF628121A8000BF00BFC9
:1001D00000F068FB514B4FF010621A60504A9A6071
:1001E000504ADA60504A136813F4807304D14F49BF
:1001F0000B604FF4A85313604D4B1A78110703D5C9
:100200001A7842F008021A704A4B4B492A221A7097
:100210004A4A4B4B8B4204D252F8040F43F8040B6A
:10022000F8E7484B484900228B4202D243F8042B9E
:10023000FAE74649464A002352F8230041F82300D2
:1002400001336F2BF8D1434B434A802103F8011B44
:100250009342FBD1414B3D4A1A60414B8A221A70AE
:10026000A3F5805324225A70A0221A709A7992071B
:10027000FCD59A79D406FCD43A4A937903F00C035E
:10028000082B384BF9D103221A7140225A719A79FE
:100290009006FCD5334A9179324B4906FBD5324A58
:1002A000324911600221516020221A709A7902F0BD
:1002B0000C020C2AFAD12E4B2E4A1A602E4B4BF60A
:1002C0007F321A6000225A60072243F8042C2B4A1E
:1002D000C3F80C2D62B60AF0F5FD144B1B68DA0763
:1002E00005D527480AF0DCFD264B274A1A60274B24
:1002F0001B785B0609D5234C234B22689A4204D114
:100300001F480AF0CDFD002323600EF0F3FB0AF036
:10031000BBFC0CF055FEFEE70E200540308004408B
:10032000823F04000100002B10D0034014D0034092
:1003300002D0074000E00740D8090020B06D01005E
:1003400020F9FF1FD8090020CC56002000F4FF1F21
:100350000000000000E400E05FE400E008ED00E0E1
:100360000050064000400640448004400000131145
:1003700004800440C010050014E000E000002020CC
:100380002DB8275B1CE00340A5C3945A00F007403A
:10039000FFFFFFFFFFFFFFFFFFFFFFFFFFFFFFFF6D
:1003A000FFFFFFFFFFFFFFFFFFFFFFFFFFFFFFFF5D
:1003B000FFFFFFFFFFFFFFFFFFFFFFFFFFFFFFFF4D
:1003C000FFFFFFFFFFFFFFFFFFFFFFFFFFFFFFFF3D
:1003D000FFFFFFFFFFFFFFFFFFFFFFFFFFFFFFFF2D
:1003E000FFFFFFFFFFFFFFFFFFFFFFFFFFFFFFFF1D
:1003F000FFFFFFFFFFFFFFFFFFFFFFFFFFFFFFFF0D
:10040000FFFFFFFFFFFFFFFFFFFFFFFFDEF9FFFF23
:1004100010B5054C237833B9044B13B10448AFF33E
:1004200000800123237010BDD809002000000000C7
:10043000AC6D0100084B10B51BB108490848AFF37B
:1004400000800848036803B910BD074B002BFBD0A0
:10045000BDE81040184700BF00000000DC09002084
:10046000AC6D0100D809002000000000002070479A
:10047000704700BF027C02F0080202F0FF0332B1B5
:10048000C36A406A181A48BF6FF0004070471846A8
:10049000704700BFF8B55548554D564C297803783C
:1004A0002278DFF868E1544F544E120442EA0323E5
:1004B000FF222A700270802022708EF800003870AF
:1004C000B2794F480B4312F00C0FC36002D1B379DD
:1004D000DC063DD4494A9379C3F38103032B40D012
:1004E000464B9A79C2F38102022A42D0434A937959
:1004F000C3F38103022B53D0404A9379C3F38103A2
:10050000022B61D03D4A9379C3F38103012B51D073
:100510003A4A9379C3F38103012B5CD0374B9A7924
:1005200012F00C0F03D19A79D20600D49B79354D85
:10053000354B2A7853F82240D4B1236820469B6873
:1005400098472B7804EB83046468002CF5D1F8BD40
:10055000B3799806EBD5294A9379C3F38103032B2A
:10056000BED19379D906BBD493799B06DFD4B7E784
:10057000F8BD9A79D706B9D49A799606B6D559783E
:1005800001F0020101F0FF020029AFD120211A7011
:100590001A461970937903F00C030C2BFAD1C6E7B5
:1005A0009379DD06A8D493799C06A5D4537898074F
:1005B000BDD5A1E79379DF06AAD593799E06A7D486
:1005C00053789D07B3D4A3E79379D9069AD4537887
:1005D0009B07ACD496E79379DC069FD59379980670
:1005E0009CD453789907A2D598E700BF06C007406E
:1005F00005C0074007C0074009C00740004006404B
:10060000A45600207C5300203C53002008C0074023
:1006100090F92410104B03604B1C06D0F0B40F4E21
:1006200056F82130984201D0F0BC70470C4F57F873
:10063000213033B18D0000245A1953685460002BC7
:10064000FAD1084C23780022013B237047F821207F
:1006500046F82120E8E700BF8C5D01005C530020D4
:100660003C5300207D53002038B590F924506B1C7A
:100670001BD00E4B0E4953F825400E4BEDB24FF0F8
:10068000FF320D701A6084B1AD0002E02C44646842
:100690005CB194F82530002BF8D0236820462C4418
:1006A0001B6898476468002CF3D138BD3C53002088
:1006B0007C530020B8F3FF1F704700BF90F924104F
:1006C000104B03604B1C06D0F0B40F4E56F821308F
:1006D000984201D0F0BC70470C4F57F8213033B12D
:1006E0008D0000245A1953685460002BFAD1084C2D
:1006F00023780022013B237047F8212046F821206F
:10070000E8E700BF8C5D01005C5300203C530020F3
:100710007D53002090F92410104B03604B1C06D031
:10072000F0B40F4E56F82130984201D0F0BC70471B
:100730000C4F57F8213033B18D0000245A195368FB
:100740005460002BFAD1084C23780022013B23701F
:1007500047F8212046F82120E8E700BF8C5D010022
:100760005C5300203C5300207D53002010B5002135
:1007700004460BF0BFFEB0B1B4F8B4319BB2C3B1C4
:10078000B4F8B031B4F8B2219BB20133632BC8BFC7
:10079000002392B2934207D09A1D04EB82029BB2CF
:1007A0005060A4F8B03110BDD4F8B8310133C4F8AA
:1007B000B831BDE810400BF059BE00BF103005F055
:1007C0009FBA00BF00B583B002AB012203F8011D40
:1007D0001030194605F094FA03B05DF804FB00BF31
:1007E000103005F069B900BF00B583B001220DF1EA
:1007F0000701103005F09AF801280CBF9DF807009A
:100800004FF0FF3003B05DF804FB00BF103005F07F
:1008100029BA00BF2DE9F0410E4680460AF03AFBA6
:10082000174D286007F002FD0746286807F0DAFC3C
:100830000446286807F0C4FC6401C0B204F4FF5405
:10084000BFB20443A7F2BC7744EA4724A8F80040AB
:10085000286807F0D9FC0746286807F08DFC044695
:10086000286807F09BFCFF02640107F4FF2704F4EB
:10087000FF54C0F346003C4304433480BDE8F0819C
:10088000DC4E002010B504460EF0FAFF014620466B
:100890000BF014FC044602480CF060F9204410BD33
:1008A00078FFFF1F464A474B102010801B781B071C
:1008B00034D5F0B5444E454D454C31782B782278EF
:1008C000DFF82CE1434F824042EA03230B43FF222F
:1008D000802132702A7022708EF800103970D9078A
:1008E0003D4A14D51A2393603C4F3D4E3D4D3E4C3E
:1008F0003E49107900233B7053709370D370D360DE
:10090000337013712B70237013700870F0BD1F07C4
:1009100005D4DE0606D504239360E5E7704721235E
:100920009360E1E79D0604D45C0604D5162393602A
:10093000DAE79060D8E7180602D509239360D3E779
:10094000D90502D50A239360CEE79F0502D50D2372
:100950009360C9E75E0502D50B239360C4E71D05CC
:1009600002D51E239360BFE7DC0402D50223936007
:10097000BAE7980402D507239360B5E7590402D576
:1009800006239360B0E71F0402D515239360ABE7FD
:10099000DE0302D524239360A6E79D0302D522231C
:1009A0009360A1E7DC0202D5252393609CE718033E
:1009B000F5D45903F3D49B0244BF2323936093E7F8
:1009C0000020054002D0074005C0074006C0074090
:1009D00007C0074009C00740A456002000C00740D8
:1009E00001C0074002C0074003C0074004C00740E1
:1009F00008C00740002976D02DE9F04F0C46910041
:100A0000631883B05D68002D57D06B185E68002EA8
:100A100050D073185F68002F49D07B18D3F804803A
:100A2000B8F1000F3CD008EB0103D3F80490B9F102
:100A3000000F32D009EB0103D3F804A0BAF1000F84
:100A400027D00AEB0103D3F804B0BBF1000F18D094
:100A50000BEB01035B6863B1194401934968FFF72D
:100A6000C9FF019B93F825201AB11A6818465368EC
:100A700098479BF8253023B1DBF8003058465B6877
:100A800098479AF8253023B1DAF8003050465B6871
:100A9000984799F82530002B35D198F8253063BB5D
:100AA00097F825301BB13B6838465B68984796F845
:100AB0002530CBB995F8253063B994F8253013B9B2
:100AC00003B0BDE8F08F23685B68204603B0BDE843
:100AD000F04F18472B6828465B68984794F82530F4
:100AE000002BEDD0EFE77047336830465B689847DE
:100AF00095F82530002BE0D0ECE7D8F800304046E0
:100B00005B689847CCE7D9F8003048465B6898475F
:100B1000C3E700BF90F92420531C26D01B4B2DE9BE
:100B2000F04153F82240D2B2ECB19300E1184D6885
:100B3000B5B1E9184E6866B1F1184F6837B13B445A
:100B40005968FFF757FF97F82530A3B996F8253075
:100B500063B995F825301BB12B6828465B68984728
:100B600094F8253063B9BDE8F081704733683046AA
:100B70005B689847EDE73B6838465B689847E5E770
:100B8000236820465B68BDE8F04118473C530020CD
:100B90002DE9F8434F4CB4F8B021B4F8B23192B219
:100BA0009BB29A4238BF6432D31A3F2B67DD4A4D5D
:100BB000D4F8AC91DFF81C8105F58047002637E0BA
:100BC0004FF48072002109F07DFC48460BF04EFC8A
:100BD000C4F8AC61B4F8B231B4F8B0219BB292B2AF
:100BE00093424ED00133632B86BF4FF0000E734605
:100BF0001FFA83FE063304EB83034FF48072D3F8AD
:100C00000490C4F8AC9109F104012846A4F8B2E1BB
:100C100009F058FCB9F1000F04D048460BF026FC4F
:100C2000C8F8AC6105F50075BD424FF0000934D03D
:100C3000A5F58070B9F1000FC2D1B4F8B231B4F8A3
:100C4000B0219BB292B293423DD00133632B86BF59
:100C5000CE4673461FFA83FE063304EB83034FF43C
:100C60008072D3F80490C4F8AC9109F10401A4F89F
:100C7000B2E109F027FCB9F1000FABD0A5E7BDE860
:100C8000F88328464FF48072002105F5007509F0BD
:100C900019FCBD424FF00009CAD14FF480420F4900
:100CA0000F4805F02DF8013005D00E4A13682033A7
:100CB0001360BDE8F8830121142009F057FF0A4BA7
:100CC0000A4A1A60F1E749464FF4807209F0FAFBCC
:100CD00080E700BFF04E0020600B0020600A00207B
:100CE000340A0020EC4E00200CED00E00400FA0570
:100CF00008B50849084A094B0988118008480022AC
:100D0000A3F8B42104F0BAFB6420BDE808400AF05F
:100D10003BBA00BFBC54002094540020F04E002089
:100D2000340A00202DE9F04F95B00AF0B3F8DFF84F
:100D30002893B84CC9F8000007F054FA2368984289
:100D400000F05882D9F80000B34EB44F07F04AFAC9
:100D50002060D9F8000007F069FA2368B04902461C
:100D6000B0480EF027FD00240123AE4AAE4937609B
:100D700007A88DF81C408DF81D4004F09BFCDFF89F
:100D8000A482002115200AF0C3F998F8002000235E
:100D90002F2A8DF81C308DF81D3000F0B48107AC7F
:100DA000204601239F4AA04904F020FD58B19DF838
:100DB0001C3013F0700F06D00FCC9B4D0FC50FCC1D
:100DC0000FC523682B60D9F8000007F02FFA0446FE
:100DD000D9F8000007F006FA8246D9F8000007F0BB
:100DE000EFF90590D9F8000007F00EFA8346D9F81C
:100DF000000007F0C1F90490D9F8000007F0CEF91F
:100E0000059A049B0092039002932246CDF804B009
:100E10005346864986480EF0CDFC002508243760ED
:100E2000152009F087FD0DF045FA4FF06A510DF0DD
:100E300095FA014628460DF089F9013C0546EFD1A7
:100E40007948DFF8189204F019FB7A4901F23C4026
:100E500004F04CFD4FF47A7646230BA8764A72498B
:100E60008DF82C408DF82D408DF820408DF82840CD
:100E70000996CDF81C9004F0B9FC9DF82C30002B9D
:100E800040F04F810121142009F070FE6B4B6C4A39
:100E90001A6098F80020634900232F2A8DF81C302F
:100EA0008DF81D3000F0228107A801235D4A5E49BC
:100EB00004F09CFC60B19DF81C3013F0700F07D05B
:100EC00007AC0FCC584D0FC50FCC0FC523682B6056
:100ED0004FF47A7500240995C223554A52498DF87A
:100EE0002C400BA80BAD8DF82D408DF820408DF8CF
:100EF0002840CDF81C9004F079FC0FCD514E9DF8A0
:100F00002040347106F110040FC40FCD0FC4099AAC
:100F10009DF828302968B2603373454821600EF08F
:100F2000AFFC01464248484FDFF810B1DFF810A18E
:100F30000BF0C4F845480BF011FE46E004F056FCF7
:100F400060B19DF81C30384D13F0700F07AC05D020
:100F50000FCC0FC50FCC0FC523682B604FF47A75EB
:100F60000024C223324A304909950BA80BAD8DF8F5
:100F70002C408DF82D408DF820408DF82840CDF87C
:100F80001C9004F033FC0FCD314C9DF820E086F826
:100F900004E00FC40FCD0FC49DF82830099A3373B5
:100FA0002968B260224821600EF06AFC01462048A0
:100FB0000BF084F825480BF0D1FD0A200AF0E4F884
:100FC0003B68B3F57A7F00F38A80347C2149184866
:100FD000002C45D13B6801331A463B600EF0EAFB1A
:100FE00098F800500F4A10498DF81C402F2D4FF0F3
:100FF000010307A88DF81D40A0D15478002C9DD185
:10100000084604F03BFA0B4901F23C4004F06EFC48
:10101000A4E700BF04520020385300201508000048
:10102000B05D0100B0500020A04E0020BC5D01006A
:101030006C510020644A0020DC5D01000CED00E0F2
:101040000400FA05240A0020AC50002078FFFF1F9E
:10105000340A0020105E0100DC4E0020685D0100B3
:101060007E487F4907687F4C7F4A804B804D03C98B
:10107000206092E80300A06093E80300102601239B
:10108000A382E382E060266138460DF053FB3946C7
:10109000A06138460DF05AF80DF04CFB754AE0613E
:1010A0002B68668492E803005B0203F124062C227D
:1010B0006062214602277048A3622784666004F0BC
:1010C0001FFE09216D480AF0F9FF29686C480BF0F2
:1010D000CBFC6B480BF042FD15B0BDE8F08F012151
:1010E000142009F043FDCBF800A06EE74B78002BED
:1010F0007FF4DAAE634804F0C1F9634901F23C4081
:1011000004F0F4FBE4E698F80130002B7FF447AEDE
:101110005C4804F0B3F95C4901F23C4004F0E6FBA2
:1011200051E65A485A4E0EF0ABFB584902460BA8FE
:1011300004F0E6FD14A92C2301F8383D01220DEB43
:10114000030004F0DDFD06F1080707AC16F8011FE7
:1011500000230A2220460BF051FDB742F6D1284663
:101160004C490DF0FBF84FF078510DF0F7F814A949
:101170002C250646012201F8355D0DEB050004F033
:10118000BFFD454B18680CF03FFC02270B4602469A
:10119000009720460BF090FD14A9012201F8365D5E
:1011A0000DEB050004F0ACFD30460CF02DFC009773
:1011B0000B46024620460BF07FFD14A9012201F8E0
:1011C000375D0DEB050004F09BFD34480EF058FB35
:1011D000324902460DEB050004F092FD20460BF06B
:1011E000BDFC30462E490DF057FA30B90BA804F07B
:1011F00045F94EE62B4E2C4FC1E528222B490DEB2D
:10120000050004F07DFD20460BF0A8FC0DEB050069
:1012100004F034F900250824152009F08BFB0DF0AB
:1012200049F84FF06A510DF099F8014628460CF044
:101230008DFF013C0546EFD116490DF08FF84FF0B8
:1012400078510DF08BF816490DF026FA0028CDD014
:1012500047F2305009F098FFDCE700BFEC51002066
:101260001C5E010048520020245E01002C5E01003B
:10127000CC510020345E0100340A00203C5E0100A5
:1012800078FFFF1FA04E0020644A00206C51002010
:101290002B510020CDCCBC403C51002008FAFF1F50
:1012A000000040403853002015080000E45D0100B4
:1012B00038B5154DFFF736FD144BD5F8AC010024B9
:1012C0001C6018B10BF0D2F8C5F8AC41B5F8B241CA
:1012D000B5F8B031A4B29BB29C420ED00134642C5C
:1012E00028BF0024A31D05EB830358680BF0BEF84C
:1012F000B5F8B0319BB2A342F0D1A4B20123A5F856
:10130000B241A5F8B43138BDF04E0020EC4E0020BB
:101310002DE9F0438FB004460EF0B2FA00B2012876
:101320001CDDB4F9003044F25372934200F087811F
:1013300018DD44F65452934200F0D58045F2532212
:1013400093422AD044F65212934207D10BAAE01CD2
:10135000C3490EF055FAC34B0B9A1A6001200FB027
:10136000BDE8F08344F24E4293420FD044F2524221
:101370009342F3D10BAAE01CB9490EF041FABA4BE3
:101380000B9A1A6001200FB0BDE8F083B74B012221
:1013900001201A600FB0BDE8F0830AAD09A908AAC0
:1013A00005ABE01C039502910192009307AA06ABDE
:1013B000AF490EF025FAAF4B079D596818689A6837
:1013C0000A9EDDF824E0DDF820C0A5F5FA65ADB28F
:1013D0000BAF2CB207C7069F05991E3415F0030FFB
:1013E0004FEAA408FDB240F03981A34B022D8CBF17
:1013F0001F460027A148A24BC8EB040400FB08F0DD
:101400006A1E03FB0400002A00EB070347DD9DF87A
:101410002C409948012A00FB043340D09DF82D4010
:10142000022A00FB04333AD09DF82E40032A00FB29
:10143000043334D09DF82F40042A00FB04332ED00F
:101440009DF83040052A00FB043328D09DF8314038
:10145000062A00FB043322D09DF83240072A00FB05
:1014600004331CD09DF83340082A00FB043316D007
:101470009DF83440092A00FB043310D09DF8354014
:101480000A2A00FB04330AD00B2A9DF8364018BF05
:101490009DF8372000FB043318BF00FB02335FFACE
:1014A0008EF2C2EB02125FFA8CF04FF4616492008C
:1014B00004FB0022704D734C7348C9B2013952FAD3
:1014C00086F205FB01221344122123600AF0F6FD87
:1014D00021686E480BF0C8FA6C480BF03FFB012006
:1014E0000FB0BDE8F0830AAD09A908AA05ABE01C5E
:1014F000039502910192009307AA06AB5C490EF096
:101500007FF95C4B079F9A68186859680A9EDDF856
:1015100024E0DDF820C0A7F5FA67BFB20BAC3DB2FE
:1015200007C4069A059C1E3517F0030F4FEAA5085D
:10153000D7B240F09080504B022F8CBF99464FF0AD
:1015400000094E494E4BC8EB050501FB08F17A1E18
:1015500003FB0510002A00EB090347DD9DF82C0072
:101560004549012A01FB003340D09DF82D00022A95
:1015700001FB00333AD09DF82E00032A01FB003313
:1015800034D09DF82F00042A01FB00332ED09DF8A3
:101590003000052A01FB003328D09DF83100062ACF
:1015A00001FB003322D09DF83200072A01FB0033F3
:1015B0001CD09DF83300082A01FB003316D09DF89B
:1015C0003400092A01FB003310D09DF835000A2AA7
:1015D00001FB00330AD00B2A9DF8360018BF9DF896
:1015E000372001FB003318BF01FB02335FFA8EF294
:1015F000C2EB02125FFA8CF04FF46165920005FBBA
:101600000022E1B21C4C1F4D52FA86F2013904FB54
:1016100001241C4420462C6009F042FC0B211C488C
:101620000AF04CFD214600230A2218480BF0E6FA86
:1016300016480BF093FA01200FB0BDE8F0830BAA17
:10164000E01C07490EF0DCF8124B0B9A1A600120DF
:101650000FB0BDE8F0834FF0000972E70027C9E63C
:10166000945E010038FAFF1F2CFAFF1F5C0A00206D
:10167000745E0100985D0100805101000085E20167
:101680008033E101E44E0020985E010078FFFF1FE7
:10169000885E010000FAFF1F2DE9F043A3B000258A
:1016A0004FF47A76764F77480A968DF830508DF859
:1016B00031508DF824508DF82C50089703F0DEFE41
:1016C000714901F23C4004F011F901236F4A6D4960
:1016D000179619A88DF864508DF865508DF85850FC
:1016E0008DF86050159704F081F80DF1640EBEE896
:1016F0000F000CAE0FC6BEE80F000FC69DF830807D
:10170000DEF800109DF85800179A9DF8603031609F
:101710008DF824000A928DF82C30B8F1000F46D0D5
:101720002E468DF800604FF000094FF0FF080122AF
:1017300015A90CA804F0FAF809F1010322AA01285E
:101740004A441BB224D01D2B02F8888C05DC994634
:10175000EDE71D2B01DC0A2AF9D1013B9BB222AA3D
:101760001A4402F8886C9DF800202F2A04D0012B1F
:1017700002D96846FFF7CCFD9DF830301B0711D425
:101780000CA803F07BFE2DBB012023B0BDE8F08345
:101790009DF854200D2A08BF4B4662D11D2BDCDC7E
:1017A0009946C4E7139A119B9A42BAD1E8E71421EB
:1017B00037480AF083FC37480BF0D0F90D22364940
:1017C00036480BF03DF935480BF0C8F9404623B0D8
:1017D000BDE8F0830B2132480AF070FC00230A2296
:1017E00021462C480BF00AFA2A480BF0B7F9254895
:1017F00003F044FE2449002501F23C4004F076F851
:101800004FF47A768DF864508DF865508DF8585005
:101810008DF8605063231D4A1A49179619A819AD0F
:10182000159703F0E3FF0FCD0CAE0FC60FCD0FC61B
:101830002968179A9DF860309DF8585031600CA8BF
:1018400021460A928DF82C308DF8245004F068F966
:10185000022214490CA804F053FA0CA803F00EFE5F
:1018600092E722AB03EB0901542A09F1010301F8C5
:10187000882C1BB27FF46DAF119C0546013C8DE7AF
:10188000685D0100A04E0020644A0020AC5E0100AB
:10189000C85E010078FFFF1FE05E01009451002048
:1018A000B85E0100C45E01002DE9F04383B009F089
:1018B000F1FA744B744D186001217448744C754FE3
:1018C000754EDFF81492DFF8148207F039FC01211D
:1018D0006E4807F03BFC122200216C4807F02CFCFC
:1018E00004226E4969480BF0ABF8296867480BF091
:1018F000BBF802226A4965480BF0A2F863480BF076
:101900002DF90622674961480BF09AF821685F4873
:101910000BF0AAF8032264495C480BF091F85B488D
:101920000BF01CF93B6856F823000CF0C3FC5F4930
:101930000CF0C8FD0CF068F802460B4653485C49B1
:101940000BF04EF90121514807F0FAFB2D683B6876
:10195000284656F823700CF0ADFC06462068284453
:101960000CF0A8FC014630460CF0ACFD01460446E4
:101970004FF07E500CF0E8FB4E4B19680CF0EEFC7B
:101980004D4B0646196820460CF0E8FC01463046EF
:101990000CF0DCFB0146D9F800000CF093FD474940
:1019A0000CF0DCFC0CF0C6FE454B06461868002324
:1019B000C8F8003000284ED00CF078FC8146680052
:1019C00007FB00F02C300CF075FC4FF08E410CF052
:1019D000BDFB36490CF076FD34490CF073FD014631
:1019E00048460CF06FFD0CF00FF80BF021FE0CF0E8
:1019F00037FB034600FB05F0C8F800300CF056FC3E
:101A000021460CF05FFD044630460CF04FFC0146C9
:101A100020460CF05FFE00BB01462E221B4807F05B
:101A20008BFB0D22274919480BF00AF8204626495E
:101A30000CF048FD0BF0E8FF022402460B46009430
:101A400012480BF039F921491048012203B0BDE8D2
:101A5000F0430AF0F5BF0020D2E72E2200210B4808
:101A600007F06AFB0E221A4908480AF0E9FF1949F3
:101A70000648A1FB0631090C00230A220BF0BEF830
:101A8000E1E700BFDC4E00202CFAFF1F945100203C
:101A900038FAFF1F28FAFF1F14FAFF1FF05E01003B
:101AA000F85E0100FC5E0100045F010000007A4462
:101AB000085F010030FAFF1F3CFAFF1F000061457C
:101AC00044520020245F010000C0A847845E01004A
:101AD000145F010007452EC234FAFF1FF8510020A1
:101AE00038B5054606F0A2FB1E4C014620460AF01A
:101AF000BBFF2D200AF0B6FB284606F073FB01461B
:101B000020460AF0B1FF2D200AF0ACFB284606F073
:101B100057FB014620460AF0A7FF012112480AF0B0
:101B2000CDFA284606F070FB014620460AF09CFFDD
:101B30003A200AF097FB284606F01EFB0146204695
:101B40000AF092FF3A200AF08DFB284606F026FBA9
:101B5000014620460AF088FF2046BDE838400AF0DA
:101B6000FDBF00BF78FFFF1F6C5F010010B50020B4
:101B700008F0A6FF214C2070012008F0A1FF607042
:101B8000022008F09DFFA070032008F099FF1C4B75
:101B9000E07022681A60042008F092FF207005208F
:101BA00008F08EFF6070062008F08AFFA070072002
:101BB00008F086FF134BE07022681A60082008F0D6
:101BC0007FFF114B1870092008F07AFF0F4B187037
:101BD0000A2008F075FF0E4B18700B2008F070FFFC
:101BE0000C4B18700C2008F06BFF0B4B18600D208D
:101BF00008F066FF094B186010BD00BF405100207F
:101C00002CFAFF1F38FAFF1F200A00203C52002048
:101C100068510020E84E0020D051002028FAFF1F14
:101C2000234B10B51968234C00202160C9B208F07D
:101C30009DFF6178012008F099FFA178022008F04B
:101C400095FFE178032008F091FF1B4B1968216094
:101C50000420C9B208F08AFF6178052008F086FFE9
:101C6000A178062008F082FFE178072008F07EFFC7
:101C7000124B0820197808F079FF114B09201978C8
:101C800008F074FF0F4B0A20197808F06FFF0E4B15
:101C90000B20197808F06AFF0C4B0C20197808F01B
:101CA00065FF0B4B0D201978BDE8104008F05EBFB2
:101CB0002CFAFF1F4051002038FAFF1F200A002095
:101CC0003C52002068510020E84E0020D0510020F6
:101CD00028FAFF1F2DE9F04F102983B00C46064665
:101CE0007FD0202976D04FF0000A5FFA8AFA4AF0B6
:101CF000E0630021009301204AF08E4301930CF031
:101D0000EFFA01463A480CF0DDFB074620460CF09E
:101D1000CDFA01460CF01AFA044630460CF0C6FA29
:101D2000014620460CF01AFB014638460CF0CAFB6F
:101D30004FF001084FF07E550746C1464FF0010AAB
:101D40004FF0000B50460CF0B5FA39460CF006FB8C
:101D500004460CF0C9FC0CF0ADFA014620460CF02C
:101D6000F3F9294606460CF097FC4FF0874148B13D
:101D700020460CF091FC28B120460CF0FBFC3546C7
:101D80008046D1461AF1010A4BF1000BBBF1000F5E
:101D900008BFBAF1400FD5D11649174C0D68174846
:101DA000174E09F1FF3208F1FF33120302F47F22CC
:101DB000C3F30B03134325F010420A602360009B1A
:101DC0000360019B33600B6843F010430B6003B06A
:101DD000BDE8F08F0B4B019303F140430A4F009392
:101DE00094E70A4B019303F14043094F00938DE7B9
:101DF000001B374C80F0024004F1024008F0024022
:101E000088F0024001000047001BB74B0300004769
:101E1000001B374B2DE9F04F0546DFF87C82974ECB
:101E2000974F98F800E02E60FF2085F82400DFF837
:101E30006C92387859F820C00023BEF1060F8DB09F
:101E40000C4685F8253085F826309CBF88F8003090
:101E50009E46BCF1000F00F0A8808C455BD0634625
:101E6000810001E09C4256D00B445B68002BF9D105
:101E7000634603EB010ADAF80430002BF9D105EBD5
:101E8000010BCAF80440BEF1060F4FF0FF044FFAF1
:101E900080FACBF804308DF82C4002968DF82D3066
:101EA0008DF82E3085F824A0644605D8002388F8E4
:101EB0000030002C00F0A980A24226D0234601E089
:101EC000934222D00B445B68002BF9D104EB010C48
:101ED000DCF80440002CF9D1CCF804200CAB1944F8
:101EE0000024431CBAF1FF3F41F8244C3B708DF8AD
:101EF0002CA0029605D0634951F82A3002AA9342D9
:101F000072D028460DB0BDE8F08F013038702846F9
:101F10000DB0BDE8F08F0023FF21BEF1060F029641
:101F20008DF82C108DF82D308DF82E3001D888F8D2
:101F300000309445E9D06346810001E09A42E4D044
:101F40000B445B68002BF9D18C44DCF804402CB1C5
:101F5000A4468C44DCF80440002CF9D10CAB1944A5
:101F60004FFA80FE431CBEF1FF3FCCF804203B70CB
:101F700041F8244C02968DF82CE0C2D0414951F82A
:101F80002E3002AA9342BCD159F82E304FEA8E0669
:101F900023B19A1953685460002BFAD1002338708A
:101FA00049F82E3041F82E30ABE7B0B38100DFF8AE
:101FB000D4A049F8204005EB010C00234AF820503A
:101FC000BEF1060FCCF804304FFA80FA4FF0FF0C48
:101FD00002968DF82D308DF82E3085F824A08DF8DE
:101FE0002CC07FF663AF64E759F82A304FEA8A06BF
:101FF00023B19A1953685460002BFAD1002338702A
:1020000049F82A3041F82A307BE7F0B11D4B49F8F6
:10201000202002AA43F8202060E71B491B480B68D8
:10202000019243F080630B600368194923F08043F9
:102030000360152008F062FE164B98F800E0019A44
:102040004FF4001119603878B0E70F4C0F4823683F
:10205000019243F08063236003680D4923F08043BD
:102060000360152008F04AFE0A4B019A4FF4001154
:10207000196038784FFA80FA8100C7E78C5D01005B
:102080007D5300205C530020047004400070044025
:102090009504000000E100E0BCF3FF1F3C5300206A
:1020A0002DE9F041584D594C594E08F0C1FC04211E
:1020B000584807F011FE2A682660002363722361E6
:1020C0002372E3600AB99AE01A465369002BFBD1E8
:1020D00054610027504B4D486761A780E78023601B
:1020E00002F00CFC4D4A4FF0010E02F118013B4684
:1020F00038461772D760166082F809E011611746FA
:1021000000E0396941F82300517A444E0133994285
:10211000F7DC29683C4B09B973E019464B69002B81
:10212000FBD14A613E4B3F491C6000241846546174
:102130009480D480A2F8B0411160A2F8B2415A60F4
:10214000C2F8AC41A2F8B441C2F8B8411C725C724A
:10215000DC600AF0DBF9344A344BD068344A1A6048
:102160000CF0A8F8334D344B344E18604FF0FF0894
:10217000334B344A344985F825402846012785F8F1
:1021800024802B606C63AC6385F83C4085F8267036
:102190000CF09EFC2D4B2B4A2D4986F824803046AE
:1021A00086F82540336086F8274086F8284086F870
:1021B00026700CF08DFC2A4631462648264DFFF746
:1021C00029FE204A254923480CF082FC244A254B4D
:1021D0002549147464204FF47A765474147114737E
:1021E000DC7183F83C4483F83D4483F86A4483F807
:1021F000600496601560C3F86C14BDE8F0812C6033
:1022000067E71E608EE700BF905400204C5100200D
:102210005C5D0100945100203C610100F04E002003
:1022200010510020AC5D010014FAFF1F2051002066
:1022300020610100C8500020EC5100200C52002009
:10224000E4610100FCF9FF1FBD060000F861010018
:1022500015070000F8090020685D01001106000064
:10226000240A0020644A00200110013810B5184CDF
:102270000A21204603F04EF82046002102F022FEFB
:102280002046302102F01EFE2046002102F01AFEF8
:102290000021204602F016FE204603F04DF82046AD
:1022A0000A2103F037F82046002102F00BFE2046F9
:1022B000022102F007FE2046002102F003FE204624
:1022C000002102F0FFFD2046BDE8104003F034B8C5
:1022D0001C53002010B5184C0A21204603F01AF8B0
:1022E0002046002102F0EEFD2046302102F0EAFDFA
:1022F0002046002102F0E6FDA221204602F0E2FD88
:10230000204603F019F820460A2103F003F820467E
:10231000002102F0D7FD2046022102F0D3FD204625
:10232000002102F0CFFD2046432102F0CBFD2046E4
:10233000BDE8104003F000B81C53002038B5ED4C48
:1023400005460A21204602F0E5FF2046002102F062
:10235000B9FD2046302102F0B5FD2046402102F0B3
:10236000B1FD6021204602F0ADFD204602F0E4FF01
:1023700020460A2102F0CEFF2046002102F0A2FDF5
:102380002046262102F09EFD2046002102F09AFD03
:102390006C21204602F096FD204602F0CDFF20463B
:1023A0000A2102F0B7FF2046002102F08BFD2046F3
:1023B000282102F087FD2046012102F083FDF02153
:1023C000204602F07FFD204602F0B6FF20460A219B
:1023D00002F0A0FF2046002102F074FD20462A21D1
:1023E00002F070FD2046002102F06CFD0021204625
:1023F00002F068FD204602F09FFF20460A2102F00D
:1024000089FF2046002102F05DFD20462C2102F0CC
:1024100059FD20460F2102F055FD2221204602F0F1
:1024200051FD204602F088FF20460A2102F072FF8B
:102430002046002102F046FD20463C2102F042FDEC
:102440002046442102F03EFD4621204602F03AFD9E
:10245000204602F071FF20460A2102F05BFF204671
:10246000002102F02FFD2046242102F02BFD204602
:10247000012102F027FD3721204602F023FD2046EE
:1024800002F05AFF20460A2102F044FF20460021B4
:1024900002F018FD2046302102F014FD20460021F4
:1024A00002F010FDA221204602F00CFD204602F0B1
:1024B00043FF20460A2102F02DFF2046002102F0B2
:1024C00001FD2046022102F0FDFC2046002102F021
:1024D000F9FC4321204602F0F5FC204602F02CFFD7
:1024E0004FF4C87008F050FE20460A2102F012FF97
:1024F0002046002102F0E6FC20462E2102F0E2FCFC
:102500002046192102F0DEFC1921204602F0DAFCF7
:10251000204602F011FF032D20464FF00A01A8BF0C
:10252000032502F0F7FE2046002102F0CBFCAD00AF
:102530002046042102F0C6FCC5F30721204602F024
:10254000C1FC05F0FC01204602F0BCFC204602F074
:10255000F3FE20460A2102F0DDFE2046002102F0B3
:10256000B1FC2046062102F0ADFC2046012102F01C
:10257000A9FC3021204602F0A5FC204602F0DCFE3A
:1025800020460A2102F0C6FE2046002102F09AFCF5
:1025900020460A2102F096FC2046002102F092FC1F
:1025A0000021204602F08EFC204602F0C5FE2046A7
:1025B0000A2102F0AFFE2046002102F083FC2046F3
:1025C0000E2102F07FFC2046002102F07BFC082156
:1025D000204602F077FC204602F0AEFE20460A219B
:1025E00002F098FE2046002102F06CFC20461021EB
:1025F00002F068FC2046FF2102F064FC3C212046EA
:1026000002F060FC204602F097FE20460A2102F00C
:1026100081FE2046002102F055FC2046222102F0D6
:1026200051FC20467F2102F04DFC7F21204602F024
:1026300049FC204602F080FE20460A2102F06AFE94
:102640002046012102F03EFC2046242102F03AFC03
:102650002046002102F036FC0021204602F032FC28
:10266000204602F069FE20460A2102F053FE204671
:10267000002102F027FC2046242102F023FC204602
:10268000002102F01FFC1421204602F01BFC204612
:1026900002F052FE20460A2102F03CFE20460021B4
:1026A00002F010FC20462A2102F00CFC20460021FA
:1026B00002F008FC0021204602F004FC204602F053
:1026C0003BFE20460A2102F025FE2046002102F0B2
:1026D000F9FB2046202102F0F5FB2046002102F004
:1026E000F1FB0021204602F0EDFB204602F024FE23
:1026F000012038BD1C53002038B5304B304C102120
:10270000054653F82000FFF7E5FA2E4802F080FC5A
:102710002846FFF713FE22782B48114601F06CFD86
:1027200023680F2B0CD8DFE803F00C1014181C20C2
:1027300024282C3034383C404408244B244A1A6066
:1027400038BD224B234A1A6038BD204B224A1A60FA
:1027500038BD1E4B214A1A6038BD1C4B204A1A60F6
:1027600038BD1A4B1F4A1A6038BD184B1E4A1A60F2
:1027700038BD164B1D4A1A6038BD144B1C4A1A60EE
:1027800038BD124B1B4A1A6038BD104B1A4A1A60EA
:1027900038BD0E4B194A1A6038BD0C4B184A1A60E6
:1027A00038BD0A4B174A1A6038BD084B164A1A60E2
:1027B00038BD064B154A1A6038BD00BF14FAFF1F1A
:1027C00000FAFF1F1C530020205100203C51002024
:1027D000BD549341103377C0993918C0BE0D68BFFE
:1027E000CE71153F8D090340CCC9624009A7A340B3
:1027F0007DDBD140C416014154FC1741D0E8304183
:10280000195546419FAB5F41A04176415E2E8641FE
:1028100038B501210446314806F092FC37220021E8
:102820002E4806F089FC204605F000FD01462B48A5
:102830000AF01AF92D21294806F044FC204605F03B
:10284000D1FC014625480AF00FF92D21234806F056
:1028500039FC204605F0B4FC014620480AF004F992
:1028600002221F491D480AF0EBF8204605F0CCFC77
:10287000092803DC3021194806F024FC204605F025
:10288000C3FC014615480AF0EFF8204605F074FC39
:1028900001220546134911480AF0D2F8092D03DC3C
:1028A00030210E4806F00EFC29460C480AF0DCF8F0
:1028B000204605F073FC012204460A4907480AF045
:1028C000BFF8092C03DC3021044806F0FBFB21464D
:1028D0000248BDE838400AF0C7B800BF9451002054
:1028E000345F01005C5F01002DE9F04F87B0FFF716
:1028F0003DF908F0CFFAA44FA44D3860A448A54C88
:1029000007F0FEF90121A24806F020FC0221A048B0
:1029100006F016FC002211469D4806F00DFC082228
:102920009D499B480AF08CF80121994806F008FC63
:1029300010220021964806F0FFFB12229749944886
:102940000AF07EF892480AF009F9002394482B60B7
:102950000AF004F992480AF001F90521914809F0BA
:10296000ADFB8B4807F008FC07218F4802F01AFAEC
:102970000E218D4802F074FA04F58C660C218A4809
:1029800002F040FA304604F26C414FF038430A221C
:1029900004F07CFB002840F0EB851C21834809F003
:1029A0008DFB7F480AF0DAF80622814978480AF060
:1029B00047F877480AF0D2F8754807F0DDFB7D4A02
:1029C0007D4B12689A4202D97A4A3C2313607B4AB3
:1029D000794B12689A4202D9784A3C231360784BAB
:1029E000DFF808A21A78172A84BF00221A70754BE4
:1029F0001A783B2A84BF00221A70734B1A78172A60
:102A000084BF00221A70714B1A783B2A84BF0022BF
:102A10001A70DAF80030012B84BF0023CAF80030A6
:102A20006B4B1B68032B00F2FA846A4DDFF8C08100
:102A3000694E082008F05EFBE8B92B6801332B6073
:102A400002E00A2008F0A0FB082008F053FB002851
:102A5000F7D02A68DAF80030A2F10901B3FA83F35B
:102A600004294FEA531300F2D084002B00F0CD84E8
:102A7000584A0E231360464807F042F901214448A2
:102A800006F064FB0221424806F05AFB0022114680
:102A90003F4806F051FB08F0FDF93B682C683060B8
:102AA000C3EB00090E2C5BD8DFE814F06B0427049D
:102AB000D8033C03BC023C02A7012701A6005A0030
:102AC0005A005A005A005A000F00414B04201C685B
:102AD00008F010FB0190032008F00CFB019B8346DB
:102AE000002B40F0E184D8F800303C4A0121132B40
:102AF000117040F312860133C8F800300134BBF185
:102B0000000F40F0D884DFF8ECB0344ADBF8003036
:102B10000121132B117040F30786092CC8BFDBF885
:102B2000003004F1FF34CCBF01330123002CCBF87B
:102B30000030C0F2C684042CA8BF0024284B244ACD
:102B400053F8240014600BF0B5FB26490BF0BAFCD7
:102B50000AF05AFF02460B460D4823490AF040F896
:102B6000FEF7A2FE08F096F9FFF752FE084807F0BC
:102B700003FB0A2008F008FBB9F5167F7FF759AF71
:102B800007B0BDE8F08F00BF604A0020445200202B
:102B900094510020644A0020385F0100445F010026
:102BA00078FFFF1F585F010040FAFF1FD45F01004C
:102BB000F45F01002CFAFF1FA086010038FAFF1F06
:102BC000200A00203C52002068510020E84E0020DE
:102BD00028FAFF1FC4500020DC4E0020E04E0020E9
:102BE00014FAFF1F00007A44C85F0100D051002092
:102BF000E8510020FC51002005F0D0FABE4C0346FD
:102C000004202360029308F075FA0190032008F075
:102C100071FA019A029B8346002A40F03584D8F865
:102C20000020B6490120132A087040F38285013242
:102C3000C8F800200133BBF1000F40F02C84DFF80E
:102C4000E0B2AE49DBF800200120132A087040F3FF
:102C50007985092BC8BFDBF8002003F1FF33CCBF17
:102C600001320122002BCBF80020C0F21A843C2B49
:102C7000A8BF00232268A24C9A4223602FD030685C
:102C800005F0C2FA0390306805F076FA21680291E7
:102C90008346306805F094FA0446306805F0A2FADD
:102CA0000190306805F0C2FA0DF1180E02990EF885
:102CB000081D00F14E0C039A019B8DF812207046FE
:102CC0008DF816C08DF815308DF814408DF811B0C0
:102CD00005F0C0FA08F0E4F808F0DCF838600722E4
:102CE0008849894809F0ACFE08F0D4F805F056FA96
:102CF0000146854809F0B8FE32E705F03DFA834CFD
:102D0000034604202360029308F0F4F901900320A5
:102D100008F0F0F9019A029B8346002A40F00184F2
:102D2000D8F8002075490120132A087040F3B984AF
:102D30000132C8F800200133BBF1000F40F0F883E6
:102D4000DFF8DCB16D49DBF800200120132A0870A0
:102D500040F3B084092BC8BFDBF8002003F1FF3338
:102D6000CCBF01320122002BCBF80020C0F2E68359
:102D70003C2BA8BF00232268654C9A4223602ED0CA
:102D8000306805F041FA03903068246805F006FACF
:102D90000290306805F014FA8346306805F022FA94
:102DA0000190306805F042FA0DF1180E02990EF804
:102DB000081D00F14E0C039A019B8DF812207046FD
:102DC0008DF816C08DF815308DF814B08DF81140BF
:102DD00005F040FA08F064F808F05CF83860072263
:102DE0004C49494809F02CFE08F054F805F0C4F9A4
:102DF0000146454809F038FEB2E605F005FA464CB2
:102E0000034604202360029308F074F90190032024
:102E100008F070F9019A029B8346002A40F0728301
:102E2000D8F8002035490120132A087040F349845E
:102E30000132C8F800200133BBF1000F40F0698374
:102E4000DFF8DCB02D49DBF800200120132A0870E0
:102E500040F34084092BC8BFDBF8002003F1FF33A7
:102E6000CCBF01320122002BCBF80020C0F25783E7
:102E7000182BA8BF0023226801939A422DD03068F6
:102E800005F07AF90390306805F088F9029030680F
:102E900005F096F90446306805F0A4F983463068D9
:102EA00005F0C4F90DF1180E02990EF8081D00F195
:102EB0004E0C039A019B8DF8112070468DF816C0B8
:102EC0008DF812308DF815B08DF8144005F0C2F968
:102ED00007F0E6FF07F0DEFF386005220F490A48D9
:102EE00009F0AEFD07F0D6FF05F08EF90146064861
:102EF00009F0BAFD34E600BF08520020E04E002081
:102F000008510020C05F010094510020485100206A
:102F1000D84E0020B85F0100D4510020B05F0100FE
:102F2000FC51002005F04CF9C04C034604202360FE
:102F3000029308F0DFF80190032008F0DBF8019A13
:102F4000029B8346002A40F0CE82D8F80020B84980
:102F50000120132A087040F3C4830132C8F800200E
:102F60000133BBF1000F40F0C582DFF8ECB2B0498D
:102F7000DBF800200120132A087040F3BA83092BE4
:102F8000C8BFDBF8002003F1FF33CCBF01320122C0
:102F9000002BCBF8002040F3B382202BA8BF0123E5
:102FA0002268A44C9A4223602ED0306805F02CF998
:102FB0000390306805F0E0F88346306805F0EEF8DD
:102FC00002903068246805F00DF90190306805F032
:102FD0002DF90DF1180E029A0EF8082D00F14E0C85
:102FE000039B01998DF8123070468DF816C08DF84C
:102FF00015108DF814408DF811B005F02BF907F07D
:103000004FFF07F047FF386004228B498B4809F0D7
:1030100017FD07F03FFF05F0D3F80146874809F098
:1030200023FD9DE505F0DEF8854C03460420236072
:10303000029308F05FF80190032008F05BF8019A12
:10304000029B8346002A40F03F82D8F8002078494E
:103050000120132A087040F352830132C8F800207F
:103060000133BBF1000F40F03682DFF8ECB170495C
:10307000DBF800200120132A087040F34883092B55
:10308000C8BFDBF8002003F1FF33CCBF01320122BF
:10309000002BCBF8002040F324820D2BA8BF012386
:1030A0002268684C9A4223602ED0306805F0ACF854
:1030B0000390306805F060F88346306805F06EF8DC
:1030C0000290306805F07CF801903068246805F0C3
:1030D000ADF80DF1180E02990EF8081D00F14E0C16
:1030E000039A019B8DF8122070468DF816C08DF85A
:1030F00014308DF815408DF811B005F0ABF807F0DD
:10310000CFFE07F0C7FE386006224F494B4809F052
:1031100097FC07F0BFFE05F065F80146474809F047
:10312000A3FC1DE505F082F8484C0346042023600B
:10313000029307F0DFFF0190032007F0DBFF019A05
:10314000029B8346002A40F07E81D8F8002038494F
:103150000120132A087040F30A830132C8F80020C6
:103160000133BBF1000F40F07581DFF8ECB030495E
:10317000DBF800200120132A087040F30083092B9C
:10318000C8BFDBF8002003F1FF33CCBF01320122BE
:10319000B3F5FA6FCBF80020C0F2638140F6340239
:1031A0009342C8BF4FF4FA632268294C9A422360C5
:1031B0002ED0306805F028F80390306804F0DCFF6A
:1031C0008346306804F0EAFF0190306804F0F8FFAD
:1031D0000290306805F006F80DF1180E9DF80420F5
:1031E0000EF8082D23680399029A8DF815004E33C6
:1031F00070468DF812108DF816308DF814208DF869
:1032000011B005F027F807F04BFE07F043FE3860D9
:1032100005221049094809F013FC07F03BFE05F0B0
:1032200005F80146054809F01FFC99E464510020A7
:10323000E04E002040520020A85F01009451002081
:10324000385200200C510020A05F010000520020E5
:1032500044510020985F0100FC510020B84B04202D
:103260001C6807F047FF0190032007F043FF019B14
:103270008346002B40F0D880D8F80030B14A0121B5
:10328000132B117040F381820133C8F800300134F0
:10329000BBF1000F40F0CF80DFF8D0B2A94ADBF8D5
:1032A00000300121132B117040F37582092CC8BF27
:1032B000DBF8003004F1FF34CCBF01330123002CD4
:1032C000CBF80030C0F2BD809F4B9C42C8BF0024A9
:1032D0009B4B9E499E481C60042209F0B1FB984B11
:1032E00019689B4809F0C0FB01229A49984809F0E7
:1032F000A7FB974809F032FC32E4974B04201B6887
:10330000029307F0F7FE0190032007F0F3FE019A05
:10331000029B8346002A40F0A780D8F80020894904
:103320000120132A087040F314820132C8F80020EB
:103330000133BBF1000F40F09E80DFF830B28149CD
:10334000DBF800200120132A087040F30A82092BC1
:10335000C8BFDBF8004003F1FF33C8BF0134002BC6
:10336000CBF8004040F38D80B3F5616FC8BF0123F7
:10337000794C7A4976482360042209F061FB2346A0
:10338000AEE7704C2378002B40F047810A22744945
:103390006F4809F055FB042007F0ACFE04460320FB
:1033A00007F0A8FE002C7FF4DBAB00287FF4D8AB3D
:1033B000674806F0A5FC0121654805F0C7FE02211B
:1033C000634805F0BDFE00221146614805F0B4FED9
:1033D000FEF726FC0A2263495D4809F031FB5C4890
:1033E00006F0CAFE40F2DC5007F0CEFEFEF75CFAB3
:1033F00007F050FDFFF70CFA554806F0BDFE0A2015
:1034000007F0C2FE07B0BDE8F08F0E2A7FF733AB9E
:10341000002B3FF430AB00232B60FFF72CBB524A4C
:1034200003231360FFF701BB0023C8F80030BBF192
:10343000000F3FF431AF4D4B0022002C1A60BFF655
:1034400043AF414C44E70022C8F80020BBF1000F15
:103450003FF48BAE454A0021B3F5FA6F1160BFF619
:103460009DAE40F634039FE60022C8F80020BBF171
:10347000000F3FF462AF3D4A0021002B11603FF77F
:1034800073AF4FF4616373E70022C8F80020BBF10B
:10349000000F3FF4D4AB354A0021002B1160BFF67A
:1034A000E6AB3B23FFF7E6BB0023C8F80030BBF1D7
:1034B000000F3FF428AB2D4B0022002C1A60BFF602
:1034C0003AAB0324FFF73ABB0022C8F80020BBF157
:1034D000000F3FF4CAAD254A0021002B11603FF7D1
:1034E000DCAD0C23DCE50022C8F80020BBF1000FA6
:1034F0003FF43BAD1D4A0021002B11603FF74DAD5D
:103500001F234DE50022C8F80020BBF1000F3FF457
:1035100097AC164A0021002B1160BFF6A9AC172307
:10352000A9E40022C8F80020BBF1000F3FF408AC6A
:103530000E4A0021002B1160BFF61AAC3B231AE49F
:1035400038FAFF1FE04E002080510100905F01001B
:10355000945100208C5F01002CFAFF1FF05E0100E7
:10356000745F0100805F010028FAFF1FFC510020FA
:1035700004F23C40266001F081FF0121204603F067
:1035800089FC002852D08B4E06F23C48404631461A
:1035900002F0ACF900283FF400AA96F83C3413F08E
:1035A000700F3FF4FAA9844C844B06F58C602246D8
:1035B0000921C3F8008003F061FF237813F0C003F2
:1035C0003CD0402B00F0EB800D217D4808F076FDCB
:1035D000002319460A227B4809F010FB794809F0BC
:1035E000BDFA00240026314600230A2276482E60C8
:1035F00009F004FB01227549734809F021FA2146BC
:1036000000230A22704809F0F9FA6F4809F0A6FA77
:103610006D4806F0B1FDFFF7D2B9FEF701FB4FF0A0
:103620000003237007F036FC3860AFE60146204601
:1036300003F030FC0028A6D1FFF7AFB9607AA37978
:10364000E279A67A6179247A00F00300400003F061
:103650000303920040EAD61001F00F0142EA8323EF
:10366000084443EA94130738013303FA00F00AF0E0
:103670001DFE57490AF072FE0BF05CF80D2104465E
:103680004F4808F01BFD214600230A224D4809F04F
:10369000B5FA4C4809F062FAC72CA3D9A4F1C806C0
:1036A000A1E7C820019307F06FFD4A4B1A68019B00
:1036B000FFF73EBBC820019307F066FD019BFFF7B3
:1036C00049BBC820019307F05FFD424B1A68019B7C
:1036D000FFF7AEBBC820019307F056FD019BFFF733
:1036E000B9BBC820019307F04FFD3A4B1A68019B04
:1036F00033E4C820019307F047FD019B3FE4C82055
:10370000019307F041FD334B1A68019BA5E4C820E3
:10371000019307F039FD019BB1E4C82007F034FDA7
:103720002C4B1B68FFF7E7B9C82007F02DFDFFF70A
:10373000F4B9C820019307F027FD264B1A68019BB6
:10374000FFF775BAC820019307F01EFD019BFFF734
:1037500080BAC820019307F017FD1E4B1A68019B21
:10376000E3E5C820019307F00FFD019BEFE5C820BA
:10377000019307F009FD174B1A68019BEDE4C8207F
:10378000019307F001FD019BF9E4C82007F0FCFC60
:10379000104B1B6878E5C82007F0F6FC86E5637AD5
:1037A000227AE079013303EB022303EB004080022D
:1037B0005DE700BF644A0020D85100203453002048
:1037C000605F010078FFFF1F94510020705F0100CF
:1037D000BD37063AE85100202DE9F04F8FB072B6A0
:1037E0009249934B934841250E2480220D7004701A
:1037F00019461A700B788E4A1806FBD58E498F4BE6
:103800000D788F4C8F481D70033924780078097823
:10381000D9705C70987062B672B68449854C412646
:103820000F2580200E702570114610700A78120640
:10383000FCD5814C82488349834A247800780978F2
:103840001278DA711C715871997162B67F4C804E92
:103850004FF4FA7007F098FC21687E4800230A2292
:1038600009F0CCF97B4809F079F9216879480023FF
:103870000A2209F0C3F9774809F070F900230A22F7
:103880002168744809F0BAF9724809F067F972487A
:1038900001F0BEFB0121022007F03AFC01211420B7
:1038A00007F036FC0021152007F032FC002006F05E
:1038B000B5FF0121022007F0F9FB0121142007F0D8
:1038C000F5FB0121062007F023FC0021062007F06C
:1038D000EDFB0021062007F01BFC0021042007F06F
:1038E00017FC0021032007F013FC0021082007F03B
:1038F0000FFC0121042007F0D9FB0121032007F070
:10390000D5FB0121082007F0D1FB07F0C3FA534B88
:103910003060984202DC524807F0C2FA01233C2290
:1039200002215048504C06F01DFB8C2007F02CFC67
:103930004C4806F0E5F901214A4805F007FC022150
:10394000484805F0FDFB00221146464805F0F4FB0F
:103950000A224649434809F073F8424809F0FEF844
:10396000404806F009FC0121062007F0D1FB0021A8
:10397000062007F09BFB3B4806F0C2F901213948BD
:1039800005F0E4FB0221374805F0DAFB002211467E
:10399000344805F0D1FB0A223449324809F050F886
:1039A000304809F0DBF82F4806F0E6FB07213048E5
:1039B00001F0F8F904F58C650E212D4801F050FA5C
:1039C000284604F26C414FF038430A2203F05EFBB4
:1039D000002853D11C21274808F070FB1D4809F02E
:1039E000BDF8204806F08CF901211E4805F0AEFB19
:1039F00002211C4805F0A4FB00221146194805F0DD
:103A00009BFB12221C49174809F01AF8154809F0C7
:103A1000A5F807F03FFAFEF7FBFE124806F0ACFBF4
:103A20004FF47A7007F0B0FBDBE700BF07000240FD
:103A300000000240060002400B0002402C51002012
:103A40000A000240090002400800024000D0034082
:103A5000DC4E002078FFFF1F1C5300207FC18556DD
:103A600080C1855694510020644A0020FC5F01000B
:103A700040FAFF1FD45F01000860010004F23C40DF
:103A8000256001F0FBFC0121204603F003FA01460A
:103A9000002800F01781954D05F23C442046294648
:103AA00001F024FF002895D095F83C3413F0700FF6
:103AB00090D08F4BDFF8A0A21C60FDF7EDFD6E21CA
:103AC0008C4808F04FFCFEF70FFF8B4A8B4B1768B2
:103AD00053F827000AF0EEFBCAF800003846FEF75C
:103AE0000BFE204601F0CAFC294620460EAD01F02F
:103AF000FDFE834B45F8343D002321468DF81430FC
:103B00008DF815308DF808308DF810307D4A462339
:103B100005A84FF47A74039401F068FE9DF8143000
:103B2000002B40F0D6807848DFF8308206F0E8F8C5
:103B30000121754805F00AFB0221734805F000FBDE
:103B400000221146704805F0F7FAD8F800303C2BF7
:103B500006DDB3F5967FD4BF3C244FF4967400E0A5
:103B60000A2407F097F9DFF8F891684FD9F8003088
:103B700090FBF4F204FB0244654A3060E1181160E6
:103B800018463C600AF096FBDAF80010614D624C72
:103B9000DFF8D0A1DFF8D0B10AF0E0FB4FF06E51B2
:103BA0000AF0DCFB4FF074510AF0D8FB09F02CFF4F
:103BB00009F0B6FC0022594B09F07AFF0AF028FA06
:103BC000574BD8F800201968564B2860521A22EA41
:103BD000E27583FB05232B44E817C0EBE32009F0D3
:103BE00001FF09F025FD0AF013FA4F4BCAF8000057
:103BF00004FB005483FB04232344E017C0EB631051
:103C000009F0F0FE09F014FD0AF002FA474DA0EBAE
:103C1000001204EB8204034610214548CBF8003023
:103C20002C6008F04BFADAF80010424808F01CFF4C
:103C3000DBF800103F4808F017FF29683D4808F0FE
:103C400013FF3C4808F08AFF08213B4808F036FA89
:103C5000D9F80010374808F007FF364808F07EFF13
:103C60000821364808F02AFAD8F80010314808F040
:103C7000FBFE304808F072FF0E21314808F01EFAB2
:103C80003068FDF72DFF0C212E4808F017FA386830
:103C9000FDF726FF3B6834682B481C1B152108F0F4
:103CA0000DFA2146234808F0DFFE224808F056FFAF
:103CB0002649274B00204FF0FF3208601A600FB0F2
:103CC000BDE8F08F204603F0E5F800287FF4E3AE6E
:103CD00080E629221F4905A802F012F8284608F0BC
:103CE0003DFF05A801F0CAFB1DE700BF644A0020A4
:103CF000345300200082FF1F28FAFF1F14FAFF1F11
:103D0000685D0100DC5D010094510020E44E00205C
:103D100034510020CC510020F0F1FFFF0000404062
:103D200004FAFF1FC5B3A29189888888F05100204A
:103D30001C60010078FFFF1F306001003C60010043
:103D4000486001005860010068600100F40900202B
:103D500004520020485E0100EC51002038FAFF1F99
:103D60002CFAFF1F580A00203851002038B50446AD
:103D70000D463148012105F0E3F92AB200212E4811
:103D800005F0DAF9204604F051FA01462A4808F015
:103D90006BFE2D21284805F095F9204604F022FA03
:103DA0000146254808F060FE2D21234805F08AF9D8
:103DB000204604F005FA01461F4808F055FE02228D
:103DC0001E491D4808F03CFE204604F01DFA092853
:103DD00003DC3021184805F075F9204604F014FA88
:103DE0000146154808F040FE204604F0C5F90122BE
:103DF00005461349104808F023FE092D03DC302145
:103E00000D4805F05FF929460B4808F02DFE2046C5
:103E100004F0C4F9012204460949074808F010FEDD
:103E2000092C03DC3021044805F04CF921460248F6
:103E3000BDE8384008F018BE94510020345F0100FE
:103E40005C5F01002DE9F8437B4D2C6824B1012C07
:103E500068D030BFBDE8F88307F01CF8774F784E84
:103E60003860784805F04CFF0121764805F06EF97E
:103E70000221744805F064F922462146714805F094
:103E80005BF90A2270496F4808F0DAFD6D4808F0C6
:103E900065FE14213068FFF769FF3868FEF7B8FC4B
:103EA000684806F069F9694A3B681268934280F2F3
:103EB000BD8032689A4232DC654F3C68002C51D09C
:103EC0000D216448644C08F0F9F8644808F046FE97
:103ED000634B644A31681B68126863480B441A4498
:103EE0000E213260236008F0E9F806F0D3FFFDF7F9
:103EF000F7FD0B215D4808F0E1F82068FDF7F0FDC3
:103F00000B215B4808F0DAF83068FDF7E9FD012382
:103F1000AE214C482B6005F0FBFEFDF7C9F92C687B
:103F2000012C96D1FCF734FE042007F0E3F8064696
:103F3000032007F0DFF80EB900282ED04D4C4E4B71
:103F400022681B689A4284DB464B1E68002E40F0B4
:103F5000A1804A4801F092FAFCF7E4FE266030BFE7
:103F6000BDE8F8830A21464801F0D4F921464448C7
:103F700000F0A8FF0E21424800F0A4FF214640486F
:103F800000F0A0FF0A213E4800F09CFF3C4801F0F1
:103F9000D3F94FF0FF333B6092E7364B394E1B6845
:103FA000394A36485B02002503F124072946B362EB
:103FB000A2F8B451776001F0B3FD31462C222F48AE
:103FC00001F09EFE2D4801F059FA23463C220221C1
:103FD0001C4805F0C7FF642007F0D6F8194805F023
:103FE0008FFE2146174805F0B1F80221154805F06B
:103FF000A7F82A462946134805F09EF807222349C8
:10400000104808F01DFD0F4808F0A8FD21460D4896
:1040100005F096F810221E490A4808F011FD0948DB
:1040200008F09CFD074806F0A7F8FEE701210520EF
:1040300007F03CF83B683CE7F4090020DC4E002028
:10404000E44E00209451002080600100F4510020D3
:104050005C0A00208C6001003451002078FFFF1FB3
:104060002CFAFF1F38FAFF1F486001009C60010016
:10407000A8600100EC4E0020CC510020340A002042
:104080001C53002048520020F04E0020B460010074
:10409000BC600100FCF72CFE454BDFF850811C682A
:1040A000444F454E06F0F6FE444A454B1268201A2E
:1040B000841A24EAE47483FB04232344E017C0EB4E
:1040C000E32009F08FFC09F0B3FA09F0A1FF3D4BA2
:1040D0003D4AC8F8000003FB004482FB043222443E
:1040E0008146E017C0EB621009F07CFC09F0A0FAF1
:1040F00009F08EFFA0EB0013024604EB8303494650
:1041000032483B60326008F0AFFC304808F026FDD2
:1041100031682E4808F0A8FC2C4808F01FFD3968CB
:104120002A4808F0A1FC294808F018FD3368D8F89F
:1041300000103A68C3EB03139B004FF4616000FB6F
:1041400001331A44092A27DD2148FCF79BFB002193
:10415000022006F0ABFF1F48FCF794FBFEF786F841
:104160001D48FCF78FFB642007F00EF81B48FCF796
:1041700089FB642007F008F83B78327898F8001043
:10418000174803F091FE174803F056FC0121022066
:1041900006F08CFFFEF79EF801233C220221124814
:1041A00005F0E0FE00232B6030BFBDE8F88300BFC0
:1041B000E44E0020F05100203851002004FAFF1F87
:1041C000C5B3A291F0F1FFFF8988888878FFFF1FAF
:1041D000D0600100E4600100F460010008610100AA
:1041E000C8500020F809002094510020580A0020EF
:1041F000002070470020704738B50F29114C28BFA8
:104200000F210F2A28BF0F220D46017A204642EACD
:10421000051500F0A9FF2046002100F053FE2046BE
:10422000202100F04FFE2046002100F04BFEE9B2B5
:10423000204600F047FE204601F07EF8B0FA80F0FC
:10424000400938BD1C530020F8B5C34C0126054673
:104250000671204600F0DCFE052006F095FF297A65
:10426000204600F081FF2046002100F02BFE204672
:10427000302100F027FE2046402100F023FE60217F
:10428000204600F01FFE204601F056F8297A20460D
:1042900000F06AFF2046002100F014FE204626218F
:1042A00000F010FE2046002100F00CFE6C2120469C
:1042B00000F008FE204601F03FF8297A204600F081
:1042C00053FF2046002100F0FDFD2046282100F08C
:1042D000F9FD3146204600F0F5FDF221204600F0C0
:1042E000F1FD204601F028F8297A204600F03CFF35
:1042F0002046002100F0E6FD20462C2100F0E2FDE2
:1043000020460F2100F0DEFD2221204600F0DAFDDC
:10431000204601F011F8297A204600F025FF2046BA
:10432000002100F0CFFD20463C2100F0CBFD2046CF
:10433000442100F0C7FD4621204600F0C3FD204681
:1043400000F0FAFF40F23713EB80297A204600F0A4
:104350000BFF2046002100F0B5FD2046242100F08F
:10436000B1FD3146204600F0ADFD3721204600F07A
:10437000A9FD204600F0E0FF297A204600F0F4FE77
:104380002046002100F09EFD2046302100F09AFDDD
:104390002046402100F096FDFF21204600F092FDCE
:1043A000204600F0C9FF297A204600F0DDFE2046B5
:1043B000002100F087FD2046022100F083FD204609
:1043C000002100F07FFD7321204600F07BFD204698
:1043D00000F0B2FF4FF4C87006F0D6FE297A2046EE
:1043E00000F0C2FE2046002100F06CFD20462E2188
:1043F00000F068FD20461D2100F064FD1D212046CF
:1044000000F060FD204600F097FF297A204600F07A
:10441000ABFE2046002100F055FD2046042100F0AF
:1044200051FD2046002100F04DFD0421204600F002
:1044300049FD204600F080FF297A204600F094FED6
:104440002046002100F03EFD2046062100F03AFD06
:104450003146204600F036FD3021204600F032FD86
:10446000204600F069FF297A204600F07DFE2046B4
:10447000002100F027FD20460A2100F023FD204600
:10448000002100F01FFD1021204600F01BFD2046FA
:1044900000F052FF297A204600F066FE20460021F7
:1044A00000F010FD20460E2100F00CFD20460021FA
:1044B00000F008FD0021204600F004FD204600F039
:1044C0003BFF297A204600F04FFE2046002100F0F5
:1044D000F9FC2046102100F0F5FC20463C2100F0BC
:1044E000F1FC3C21204600F0EDFC204600F024FFCA
:1044F000297A204600F038FE2046002100F0E2FC38
:104500002046222100F0DEFC20467F2100F0DAFC6C
:104510007F21204600F0D6FC3627204600F00CFF15
:10452000297AEF80204600F01FFE2046002100F08F
:10453000C9FC2046242100F0C5FC2046002100F0E3
:10454000C1FC3946204600F0BDFC204600F0F4FED8
:104550006E723046F8BD00BF1C5300200B462DE99B
:10456000F04145490546184609F0F8FE434909F06F
:10457000EDFD0AF0DFF8044600284CD080281FD952
:104580002B79002426462BBB297A3D4800F0ECFD10
:1045900000213B4800F096FC2221394800F092FCB3
:1045A0003146374800F08EFC2146354800F08AFC41
:1045B000334800F0C1FEB0FA80F04009BDE8F08158
:1045C000C0F180042B7944EA0424C4F30726E4B242
:1045D000002BD9D0EF88297A294827F010074FF00F
:1045E0000008EF8085F8048000F0BEFD41462448B5
:1045F00000F068FC2421224800F064FC390A2048BD
:1046000000F060FC07F0EF011D4800F05BFC1C4867
:1046100000F092FEB8E701232B71297A184800F0C8
:10462000A3FD2146164800F04DFC2221144800F05D
:1046300049FC7F21124800F045FC7F21104800F022
:1046400041FC0F4800F078FEEE88297A0C4846F0CD
:104650001006B6B2EE8000F087FD2146084800F053
:1046600031FC2421064800F02DFC310A044800F0FA
:1046700029FCF1B299E700BF00000143EE7CFF3E48
:104680001C53002070B505460C4619B101293BD0DA
:10469000002070BD017A424800F066FD2146404886
:1046A00000F010FC20213E4800F00CFC21463C4864
:1046B00000F008FC55213A4800F004FC384800F0AE
:1046C0003BFE06460028E3D1EC88297A344844F0C2
:1046D0000404A4B2EC8000F047FD3146304800F0FD
:1046E000F1FB24212E4800F0EDFB210A2C4800F0BC
:1046F000E9FBE1B22A4800F0E5FB294800F01CFE86
:10470000B0FA80F0400970BD017A254800F02CFD18
:104710000021234800F0D6FB2A21214800F0D2FBDB
:1047200021461F4800F0CEFB73211D4800F0CAFB54
:104730001B4800F001FE04460028A9D1297A184838
:1047400000F012FD2146164800F0BCFB2021144861
:1047500000F0B8FB2146124800F0B4FB8821104855
:1047600000F0B0FB0E4800F0E7FD044600288FD1B2
:10477000EE88297A0A4826F00406EE8000F0F4FC60
:104780002146074800F09EFB2421054800F09AFBD3
:10479000310A034800F096FB06F0FB01AAE700BFD0
:1047A0001C53002010B5044607F0C0FF204610BD82
:1047B000024A034903480AF08BB900BFFCF9FF1F06
:1047C000A5470000745200201B4A1C4B11681C486E
:1047D000096970B499421279027009D2194A1278A3
:1047E00032B3194A4FF08041116003F5807402E042
:1047F0001C46A3F58073154A154912680D68AAB1C5
:10480000A5B1144E3088402810D841000A444030E9
:10481000294402320231308033F9040B22F8020FAE
:104820009C4233F9020C21F8020FF5D870BC704796
:1048300003F58074DFE700BF84520020B8F2FF1F49
:104840001F8000407E52002008E200E08C520020D1
:10485000805200207C520020F8B5064607F0B2FDD9
:104860000446E8B107F0AEFD054600283AD072B61E
:104870001F4B1A887F2A19D8002C31D01D490A688D
:1048800042B162B6204607F0F1FD2846BDE8F84087
:1048900007F0ECBD18480C601A80056062B6F8BDE0
:1048A000054672B6124B1A887F2AE5D9114A124979
:1048B0001768146000220C681A800D6062B63946D1
:1048C000304607F0FDFD384607F0D0FD3046214662
:1048D000012207F0F5FD2046BDE8F84007F0C6BD0F
:1048E00062B6F8BD204607F0C1FD2C46BFE700BF09
:1048F0007C5200208C52002080520020F8B5284CB9
:10490000284E2046012107F073FE00F083F8264B65
:10491000264A27484FF480611960236800211A60F5
:1049200099802279186102F1804202F5043240F246
:104930000110D8809E614FF48075022006278E26D4
:10494000DD82D960DD8398609F8398821170167034
:1049500007F0F4FD1749184B2279184F08701A70A8
:1049600039682279164C174D174E41F0124141F02B
:104970000101531139609B00206803F1604302F18B
:10498000100703F5614302F01F02012140F01040BF
:1049900001FA02F2206045F827601A60F8BD00BFF6
:1049A0008452002000FEFFFF14B00440A0F002403B
:1049B000B8F1FF1F7E5200201B80004080F00240B3
:1049C00000F0024000F4FF1FC9470000024A0349FB
:1049D00003480AF07DB800BFFCF9FF1FA54700009F
:1049E00084520020024A034903480AF071B800BF0C
:1049F000FCF9FF1FA547000090520020024A03491E
:104A000003480AF065B800BFFCF9FF1FA547000086
:104A100098520020284B29491A68294842F400423C
:104A20001A600A6842F002020A601A6842F0020242
:104A30001A600368002B3DDB224B1B68002B39DB1F
:104A4000214A4FF0864313601368002BFCDBF0B55E
:104A50001E4C1F48DFF8ACE01E491F4B1F4A204F79
:104A6000204E214D41F2100CC4F800C00024046017
:104A70000120CEF80000DFF890E0C1F800E04FF42C
:104A800080311960194B1360DFF880E0184A3A60F2
:104A9000346028601748CEF80000174CB9671748F3
:104AA000174946F8503C4FF4C0632A612360036005
:104AB0000B60F0BD704700BF3C8004404080044064
:104AC00000F0024080F0024000F1024004F1024098
:104AD00060F0024008F002400CF0024010F002408A
:104AE00014F00240E0F0024084F002401B0F01008D
:104AF000000F0F0F0300004708B004400CB0044043
:104B000018B0044004F002400300000788F002409F
:104B1000024A0349034809F0DBBF00BFFCF9FF1F4D
:104B2000A5470000A0520020024A0349034809F0AB
:104B3000CFBF00BFFCF9FF1FA5470000A85200200F
:104B4000024A0349034809F0C3BF00BFFCF9FF1F35
:104B5000A5470000B0520020024A0349034809F06B
:104B6000B7BF00BFFCF9FF1FA5470000B8520020E7
:104B7000024A0349034809F0ABBF00BFFCF9FF1F1D
:104B8000A5470000C052002010B4047F4160022CF1
:104B9000C26002D010BC07F0E3BD836810BC1847A8
:104BA000F0B4464B464A186BDC6A017911704549EE
:104BB00022790A709A6A00790870002A46D05968EA
:104BC000C9688A423ED82168CC8B240402F1FF30A8
:104BD00065D4C0F30E00C883C88B80B2C882196B3D
:104BE0000968C88B000452D4C2F30E00C883C88B76
:104BF000002480B212F1FF32C88218BF01229C62E9
:104C0000D96A2E4809680D6800F12404A54236D0FF
:104C10000068C46814F0804F0C680D6815BF2488C4
:104C200024780235013544F000440D604463196B6B
:104C3000254B09791970214912B1CA6A12791A7083
:104C4000F0BC7047521A9A620122D9E7586B196872
:104C500005681E4C0A63CC62CC682D681C4E24F09B
:104C600080440327B542CC6083F825701FD1037FB1
:104C70004260022BC2601ED0F0BC07F071BD01681B
:104C800090F82400CC6840F000404863CFE7CC8B1C
:104C9000C2F3080004F47E442043C883A7E7CC8B0A
:104CA000C0F3080004F47E442043C88394E72B46F5
:104CB0001146F0BC18478368F0BC184740FAFF1F44
:104CC0001F8000401C8000401B80004000000FFF40
:104CD000894B000090E80C00F0B41C685968256806
:104CE000164F174E29432160164D17491760D6609D
:104CF00015611160417A154A5C180A3194F8244014
:104D000053F8215002EBC40149680D60017A5C1828
:104D100003EB8101247ECD6902EBC40149680D607B
:104D2000817A581803EB810390F83000596B02EB3D
:104D3000C002F0BC53681960704700BF01401F00FB
:104D4000011000380110007800001F80BC670100CE
:104D50004268036805CA10B4046822430260D86838
:104D6000840100F0E06205D5080900F4706021F4C8
:104D700070410143D8681143814209D01A68500438
:104D800008D40748186041F08040D96018611A6063
:104D900010BC704741F08042D96010BC1A61704766
:104DA00001401F004268437A134493F824308B4239
:104DB00009D0F0B492F824408C4205D092F82540F6
:104DC0008C421AD0F0BC7047002421461668556802
:104DD00036682E420FD00A4D05EBC30300275E68EC
:104DE0005318376093F8243005EBC3050A316B681C
:104DF00052F821201A604472E4E701242146E5E7D5
:104E0000BC6701004268037A13441B7E8B4207D0C3
:104E1000F0B4147E8C4204D0547E8C421AD0F0BC84
:104E20007047002421461668556836682E420FD018
:104E30000A4D05EBC30300275E68531837601B7EDD
:104E4000063105EBC30502EB81026B6852681A60FC
:104E50000472E4E701242146E5E700BFBC670100D6
:104E60004268837A134493F830308B4209D0F0B40F
:104E700092F830408C4205D092F831408C421BD0E1
:104E8000F0BC7047002421461668556836682E42EB
:104E900010D00B4D05EBC30300275E685318376035
:104EA00093F830300C3105EBC30502EB81026B68DF
:104EB00052681A608472E3E701242146E4E700BFE8
:104EC000BC6701000A4B1B7813B90A4B1B786BB106
:104ED000094A1378202B07D810B4581C074C1070BF
:104EE000E154012010BC704701230371002070477A
:104EF0002E530020F15200202F530020D0520020CA
:104F0000704700BF024A034B10781B78C01A7047E5
:104F10002D5300202C530020064A074913780978A6
:104F2000994204D90548591CC05C117070474FF074
:104F3000FF3070472C5300202D530020F4520020E6
:104F4000054B064A1B7812789A4286BF044AD05C09
:104F50004FF0FF30704700BF2C5300202D5300202E
:104F6000F452002070B50D4B1B78144613B90C4B4E
:104F70001B788BB10B4E3578C5F12103A34202D2C9
:104F800001221C460271084822462844254405F0A7
:104F900099FA3570204670BD184670BD2E5300201A
:104FA000F15200202F530020D0520020124BDB780A
:104FB00003F020034BB1114A13780133DBB2012B0C
:104FC000137012D9122005F021BF10B5122003F082
:104FD000FF0405F01BFF0A4B1B685BB109490A4A35
:104FE0000C701078BDE810401847084B1B78002B58
:104FF000E8D0704710BD00BF006006401853002085
:10500000CC5200202C5300202D530020F1520020C0
:105010000D4A0E4BF0B500200D4C10702268DFF8E1
:1050200038E00C4F42F0400222604FF419712726FD
:105030000425202480229870CEF8001039605E701C
:105040009D715C719A70F0BDF152002000600640C5
:105050003480044008A004400CA0044010B5384C33
:10506000E378DBB2D80623D510225906E2701ED5AC
:1050700003F0040303F0FF02002B33D0314B32491D
:105080001A68324C00230B702370002A3BD09047E3
:105090002378002B37D02E4B1B78294A2D49D0245A
:1050A00094701371264B012002220870DA7010BD33
:1050B0005A06DDD4A27802F0100202F0FF0042B3DB
:1050C00013F001031BD1234920480A78007890424D
:1050D00081BF1F4B501C9B5C08702371184BD02262
:1050E0009A7008E01C48164B174902700120C02234
:1050F00008709A701B79124B0222DA7010BDC0231F
:10510000A3702379F7E71249002301220B70227064
:10511000C3E7124B124918700322122005F0F6FD66
:105120000D4923790A781F2ADBB2E4D806480078B3
:105130000028E0D00B4C501CA3540870DBE700BFE4
:105140000060064014530020C85200202F53002056
:10515000D0520020305300202D530020185300203F
:10516000AD4F0000F45200200548064A10B4012358
:10517000054C037049001370217010BC704700BFCC
:105180002E5300202F530020D05200202DE9F04351
:10519000594C1223E370A37803F0200383B0002B53
:1051A00055D0B423DFF86881A370D8F80030524D91
:1051B0001C460020EA78D2B29A421CBF1446012055
:1051C00096061346F6D5002840F08C804B4B1B7892
:1051D000002B33D003F1FF3E5FFA8EFE0026D8F895
:1051E0000040474F444D0EF1010E30464FF0020C87
:1051F00017F8013F2B715FFA86F902E013F0200FD8
:1052000009D0EB78DBB293421CBF1C46012013F09F
:10521000020F1A46F2D085F803C0EA78D2B2934260
:105220001CBF14460120D30633D4930631D5D307CF
:1052300044D401367645DBD100284AD1002000292C
:105240002ED1304B00221A7003B0BDE8F0832E4DF2
:10525000DFF8BC8003F0FF022B680093009ED8F8B3
:10526000000005E02B680193019B9B1B0F2B1BD8B3
:10527000E378DBB2834218BF012213F0200F1846F7
:10528000F0D192BB21481C4B0024B02204709A70CC
:105290008BE708BB184B80229A7004200029D0D0DD
:1052A000154B80229A70CCE7CAB9134B002180229B
:1052B000042099709A7003B0BDE8F083C0B90E4B1A
:1052C000B9F1000F4FF080020CBF022003209A704A
:1052D000B7E7C8F80040B1E7C8F80040DAE7C8F817
:1052E0000000E2E7C8F8004070E7C8F80030C9E7FE
:1052F000C8F80040E3E700BF006006402F530020DD
:10530000CF5200202E53002090530020F152002055
:1053100078FAFF1F0548064A10B40123054C0370B4
:1053200049001370217010BC704700BF2E5300203D
:105330002F530020D05200200121FFF727BF00BFCC
:10534000044B054A1A604FF47A71002299601A7171
:105350001A7370471C530020C061010038B590F9E2
:105360000230002B044612DBA56805F1240001F091
:10537000FDF928B9637843F001036370002038BD5C
:1053800005F50C7001F0F2F90028F3D038BD806803
:10539000A1692430012201F0A3F90028EAD0A388F2
:1053A00003F00F035B01C518E4D0C35CE52BE1D02B
:1053B00023780B4A1B0744BFE369EB61236A126839
:1053C0006B831B0CAB8232B105F1160105F118009D
:1053D00090472B8B6B82A37803F07F03A370C3E706
:1053E000385300202DE9F041037803F020032BB956
:1053F00003F0FF044269204B9A4203D9002630464D
:10540000BDE8F08183780169054663F07F03806819
:10541000AB7005F1100201F01DFB06460028EDD02F
:105420002969A86801F0CAF90746A86839462430F6
:10543000052201F055F980460028DFD04FF40072B4
:10544000214609F063FFAB681A79012A0FD90124BC
:1054500003E0AB681A79A24209D9E11918684246FB
:1054600002F040F80134E4B20028F2D1C6E76B69DB
:1054700003EB42226A61C2E7FFFD1F0038B50378E3
:1054800004461BB900232370012038BD90F9023077
:10549000002B14DBA56805F1240001F067F938B989
:1054A000637843F00103637000232370002038BD4C
:1054B00005F50C7001F05AF90028F1D0E2E7806898
:1054C000A1692430012201F00BF90028E8D0A3885B
:1054D00003F00F035B01C518E2D0C35CE52BDFD0FE
:1054E00023780B4A1B0744BFE369EB61236A126808
:1054F0006B831B0CAB8232B105F1160105F118006C
:1055000090472B8B6B82A37803F07F03A370C1E7D6
:10551000385300202DE9F0470D7815F0700F88B052
:1055200003D1002008B0BDE8F087C32304460D4630
:1055300000F07EFE0028F4D05D4B62690126102148
:105540009A42A6702170ECD881236218A370216959
:10555000A06801F07FFA0028E3D02169A06801F07B
:105560002DF90746A06839462430052201F0B8F825
:1055700080460028D5D04FF40072002109F0C6FE05
:1055800008E0F1190068424601F0ACFF0136F6B2BE
:105590000028C6D0A0680279B242F2D863692178A7
:1055A0002669266203EB42236361002974D124300B
:1055B0000122A16901F094F80028B2D0A68806F073
:1055C0000F0610EB4616ACD01023F372B2683068A9
:1055D0007168F368B6F81490B6F81AA06F460FC752
:1055E00030697169B269F36908AE0FC74FF02E08D0
:1055F0004FF02033216AA06806F8208DCDF80530E1
:10560000CDF80130ADF8093001F0D8F8A3680146B3
:10561000012203F1240001F063F88646002880D0BF
:105620003746ADF81490ADF81AA00FCFCEF80000B1
:10563000CEF80410CEF80820CEF80C300FCFCEF8FC
:105640001000CEF81410CEF81820CEF81C302B6ABB
:105650008DF801801A0C3546ADF81A30ADF81420DB
:105660000FCD0EF12006CEF820007160B260F3601D
:105670000FCD30617161B261F361A46804F124005F
:1056800001F074F800283FF44CAF04F50C7008B03A
:10569000BDE8F04701F06AB813B1002323616361EC
:1056A0002046FFF75BFE00283FF43BAFA0687EE793
:1056B000FFFD1F002DE9F041064692B034780192BB
:1056C00000208DF824008DF8250024B90D460978B6
:1056D00011F0700F03D1002012B0BDE8F081144624
:1056E00012782F2A2DD00DF1040803AF002B53D0D0
:1056F00042463946204600F0F5FB3A46294601234A
:105700000028E8D0019C24783046002C61D000F0BD
:105710008FFD3A46294620B93046FFF7FBFE0028A8
:10572000D9D035460FCD09AC0FC40FCD0FC4337897
:105730002A682260002B48D100233370019C09ADF8
:10574000D6E70134019422782F2AFAD0AD6800936D
:10575000242209A8002109F0D9FD0B95EA79009BC4
:10576000102A3ED0202AB6D140228DF824200122D2
:1057700009AD8DF826200DF1040803AF63B1B7E73A
:105780000FCD0FC40FCD0FC433782A682260C3B980
:105790000023019C337009AD42463946204600F093
:1057A000A1FB3A4629460123002894D0019C247885
:1057B000304674B100F03CFD354609AC00288AD073
:1057C000DEE73046FFF7CAFDE2E73046FFF7C6FDE9
:1057D000B2E73A4629463046FFF79CFE12B0BDE8D4
:1057E000F08120228DF82420C1E700BF2DE9F0418F
:1057F000064692B03478019200208DF824008DF88E
:1058000025002CB91F460B7813F0700F0D4603D1FD
:10581000002012B0BDE8F08113782F2B144624D15C
:105820000134019494F80080B8F12F0FF8D0B8F14A
:10583000000F45D0AD6809A82422002109F066FDBB
:105840000B95EB79102B37D0202BE1D140238DF82D
:105850002430012309AD8DF8263006E03046FFF7ED
:105860007DFD0023019C337009AD01AA03A92046E8
:1058700000F038FB03AA294601230028C8D0019C68
:10588000247830467CB100F0D3FC354609AC0028C2
:10589000BED00FCD0FC40FCD0FC433782A6822605D
:1058A000002BDED0DAE73B4603AA2946304600F05B
:1058B000BFFC12B0BDE8F08120238DF82430C8E78A
:1058C000AC6824224146304609F020FDB460E379FB
:1058D000102B06D0202B07D1402333700120B0704D
:1058E00097E720233370F9E7404692E770B50478D4
:1058F0000CB1002070BD05460E462422214609F059
:1059000005FDAE60F379102B09D0202B05D10124C1
:1059100040232B70AC70204670BD204670BD012422
:1059200020232B70AC70204670BD00BF2DE9F04FD6
:105930000F46017883B0054611B18378DC0708D49F
:105940006B784FF0FF3043F002036B7003B0BDE89B
:10595000F08F0B07914600F18580880608D5AA686C
:105960006B691289C3EB42139BB2994528BF9946D4
:10597000B9F1000F00F094806B698A064E464FF033
:10598000000805F1100AC3F3080B3DD5AA68116A97
:1059900001EB5321BBF1000F50D1B6F5007F4DD381
:1059A000D36A99424AD0B6F5806F64D328788006CE
:1059B000C6F3472B06D41079C8EB0000C0B283456C
:1059C00028BF834699424FEA4B240BD85B44994247
:1059D00008D202F12400019100F0C8FE0028AFD0E7
:1059E000AA68019910685B463A4601F023FC00283A
:1059F000A6D06B69361B234427446B6150D02978AD
:105A00008A06C3F3080BC1D4A86890F8058008EA99
:105A10005328BBF1000F2CD1B8F1000F29D1002B76
:105A200033D14C064CBF016A296A296100F0C6FED9
:105A3000AA6808EB0001BBF1000FAED002F1240010
:105A4000002200F04DFE00283FF47AAFCBF5007441
:105A5000B44228BF344600EB0B012246384604F01E
:105A600031FDC6E7EB696A699B1A994528BF9946DB
:105A70007EE72969DAE710683A4601F0C5FC00289C
:105A80003FF45EAF4FF40074B3E75246296900F06B
:105A90009BFE0028FFF654AF08D0A8682969C5E727
:105AA0000026C6EB090003B0BDE8F08F2B7813F099
:105AB000700FF6D144E700BF70B582B001220DF13E
:105AC0000701044646690569FFF730FF012805BF55
:105AD0009DF8070066614FF0FF30256102B070BD90
