:1000000000800020BD010000D5AA00008DAA0000DC
:100010008DAA00008DAA00008DAA00008DAA000004
:100020008DAA00008DAA00008DAA0000D5AA0000AC
:10003000D5AA00008DAA00007DC2000081C2000088
:10004000D5AA0000D5AA0000D5AA0000D5AA0000B4
:10005000D5AA0000D5AA0000D5AA0000D5AA0000A4
:10006000D5AA0000D5AA0000D5AA0000D5AA000094
:10007000D5AA0000D5AA0000D5AA0000D5AA000084
:10008000D5AA0000D5AA0000D5AA0000D5AA000074
:10009000D5AA0000D5AA0000D5AA0000D5AA000064
:1000A000FD4E0000D5AA0000D5AA0000D5AA000088
:1000B000D5AA0000D5AA0000D5AA0000D5AA000044
:1000C000D5AA0000D5AA0000D5AA0000D5AA000034
:1000D000D5AA0000D5AA0000D5AA0000D5AA000024
:1000E000D5AA0000D5AA0000D5AA0000D5AA000014
:1000F000D5AA0000D5AA0000D5AA0000D5AA000004
:10010000D5AA0000D5AA0000D5AA0000D5AA0000F3
:10011000D5AA0000D5AA0000D5AA0000D5AA0000E3
:10012000D5AA0000D5AA0000D5AA0000D5AA0000D3
:10013000D5AA0000D5AA0000D5AA0000D5AA0000C3
:10014000D5AA0000D5AA0000D5AA0000D5AA0000B3
:10015000D5AA0000D5AA0000D5AA0000D5AA0000A3
:10016000D5AA0000F5B00000D5AA0000D5AA00006D
:10017000D5AA0000D5AA0000D5AA0000D5AA000083
:10018000D5AA0000D5AA0000D5AA0000D5AA000073
:10019000D5AA0000D5AA0000D5AA0000D5AA000063
:1001A000D5AA0000D5AA0000D5AA0000D5AA000053
:1001B000D5AA0000D5AA000039C00000564B4CF269
:1001C000205210B51A804DF628121A8000BF00BFC9
:1001D00000F0FCFB514B4FF010621A60504A9A60DD
:1001E000504ADA60504A136813F4807304D14F49BF
:1001F0000B604FF4A85313604D4B1A78110703D5C9
:100200001A7842F008021A704A4B4B492A221A7097
:100210004A4A4B4B8B4204D252F8040F43F8040B6A
:10022000F8E7484B484900228B4202D243F8042B9E
:10023000FAE74649464A002352F8230041F82300D2
:1002400001336F2BF8D1434B434A802103F8011B44
:100250009342FBD1414B3D4A1A60414B8A221A70AE
:10026000A3F5805324225A70A0221A709A7992071B
:10027000FCD59A79D406FCD43A4A937903F00C035E
:10028000082B384BF9D103221A7140225A719A79FE
:100290009006FCD5334A9179324B4906FBD5324A58
:1002A000324911600221516020221A709A7902F0BD
:1002B0000C020C2AFAD12E4B2E4A1A602E4B2F4AD2
:1002C0001A6000225A60072243F8042C2C4AC3F813
:1002D0000C2D62B60AF0E4FD144B1B68DA0705D555
:1002E00028480AF061FD284B284A1A60284B1B78E1
:1002F0005B0609D5244C254B22689A4204D121483B
:100300000AF052FD002323600AF0E8FB0DF01EFD09
:100310000CF01EF9FEE700BF0E20054030800440BF
:10032000823F04000100002B10D0034014D0034092
:1003300002D0074000E00740880A002094620100D4
:1003400020F9FF1F880A00209058002000F4FF1FAA
:100350000000000000E400E05FE400E008ED00E0E1
:100360000050064000400640448004400000030165
:1003700004800440C010050014E000E0FF76010096
:100380000000202008D6A0661CE00340A5C3945AB4
:1003900000F00740FFFFFFFFFFFFFFFFFFFFFFFF32
:1003A000FFFFFFFFFFFFFFFFFFFFFFFFFFFFFFFF5D
:1003B000FFFFFFFFFFFFFFFFFFFFFFFFFFFFFFFF4D
:1003C000FFFFFFFFFFFFFFFFFFFFFFFFFFFFFFFF3D
:1003D000FFFFFFFFFFFFFFFFFFFFFFFFFFFFFFFF2D
:1003E000FFFFFFFFFFFFFFFFFFFFFFFFFFFFFFFF1D
:1003F000FFFFFFFFFFFFFFFFFFFFFFFFFFFFFFFF0D
:10040000FFFFFFFFFFFFFFFFFFFFFFFFDEF9FFFF23
:1004100010B5054C237833B9044B13B10448AFF33E
:1004200000800123237010BD880A00200000000016
:1004300090620100084B10B51BB108490848AFF3A2
:1004400000800848036803B910BD074B002BFBD0A0
:10045000BDE81040184700BF000000008C0A0020D3
:1004600090620100880A0020000000000020704710
:10047000704700BFF8B55548554D564C297803785C
:100480002278DFF868E1544F544E120442EA032305
:10049000FF222A700270802022708EF800003870CF
:1004A000B2794F480B4312F00C0FC36002D1B379FD
:1004B000DC063DD4494A9379C3F38103032B40D032
:1004C000464B9A79C2F38102022A42D0434A937979
:1004D000C3F38103022B53D0404A9379C3F38103C2
:1004E000022B61D03D4A9379C3F38103012B51D094
:1004F0003A4A9379C3F38103012B5CD0374B9A7945
:1005000012F00C0F03D19A79D20600D49B79354DA5
:10051000354B2A7853F82240D4B1236820469B6893
:1005200098472B7804EB83046468002CF5D1F8BD60
:10053000B3799806EBD5294A9379C3F38103032B4A
:10054000BED19379D906BBD493799B06DFD4B7E7A4
:10055000F8BD9A79D706B9D49A799606B6D559785E
:1005600001F0020101F0FF020029AFD120211A7031
:100570001A461970937903F00C030C2BFAD1C6E7D5
:100580009379DD06A8D493799C06A5D4537898076F
:10059000BDD5A1E79379DF06AAD593799E06A7D4A6
:1005A00053789D07B3D4A3E79379D9069AD45378A7
:1005B0009B07ACD496E79379DC069FD59379980690
:1005C0009CD453789907A2D598E700BF06C007408E
:1005D00005C0074007C0074009C00740004006406B
:1005E00068580020C85600208856002008C00740E0
:1005F00090F92410104B03604B1C06D0F0B40F4E42
:1006000056F82130984201D0F0BC70470C4F57F893
:10061000213033B18D0000245A1953685460002BE7
:10062000FAD1084C23780022013B237047F821209F
:1006300046F82120E8E700BFC04F0100A85600207F
:1006400088560020C956002038B590F924506B1CFC
:100650001BD00E4B0E4953F825400E4BEDB24FF018
:10066000FF320D701A6084B1AD0002E02C44646862
:100670005CB194F82530002BF8D0236820462C4438
:100680001B6898476468002CF3D138BD8856002059
:10069000C8560020B8F3FF1F704700BF90F9241020
:1006A000104B03604B1C06D0F0B40F4E56F82130AF
:1006B000984201D0F0BC70470C4F57F8213033B14D
:1006C0008D0000245A1953685460002BFAD1084C4D
:1006D00023780022013B237047F8212046F821208F
:1006E000E8E700BFC04F0100A85600208856002050
:1006F000C956002090F92410104B03604B1C06D003
:10070000F0B40F4E56F82130984201D0F0BC70473B
:100710000C4F57F8213033B18D0000245A1953681B
:100720005460002BFAD1084C23780022013B23703F
:1007300047F8212046F82120E8E700BFC04F01001C
:10074000A856002088560020C9560020704700BFD8
:1007500010B5002104460BF0D9FBB0B1B4F8B431A8
:100760009BB2C3B1B4F8B031B4F8B2219BB201333B
:10077000632BC8BF002392B2934207D09A1D04EBAB
:1007800082029BB25060A4F8B03110BDD4F8B831E9
:100790000133C4F8B831BDE810400BF073BB00BFA3
:1007A00010B5044B044640F8103B07F093FE20467A
:1007B00010BD00BF784F010010B504460BF0E6FBFA
:1007C000204610BDB0F8B231B0F8B0119BB289B27A
:1007D0008B4202460FD00133632B86BF00210B46AC
:1007E00099B2063300EB83035868C2F8AC01A2F853
:1007F000B211043070470020704700BF826C62B1B4
:10080000137803F0080303F0FF0003B3D3695069C2
:10081000181A48BF6FF000407047C16CC1B191F821
:10082000313003F0080303F0FF0083B1D1E9042362
:10083000D1E90001101A30B463EB010100256FF01B
:1008400000448D4208BF844200D2204630BC70472D
:1008500008467047836C13B1184606F0B5BFC06CEC
:1008600008B105F0C7BD704700B5836C83B063B1B4
:10087000184601220DF1070106F0F0FD01280CD108
:100880009DF8070003B05DF804FBC06C28B101229D
:100890000DF1070105F0EEF8F0E74FF0FF30F1E75A
:1008A000836C13B1184606F0A3BEC06C08B105F006
:1008B000B1B94FF0FF307047836C13B1184606F0A2
:1008C00089BFC06C08B105F033BF704700B5836CB9
:1008D00083B08DF8071043B1184601220DF10701CE
:1008E00006F078FF03B05DF804FBC06C0028F9D077
:1008F00001220DF1070105F01BFF03B05DF804FBB9
:1009000070B5044608460D460EF0DAF82368024634
:10091000294620465B68BDE87040184738B5054653
:100920000BF036FD044628460BF0C8FC204438BDC9
:10093000002310B4104C4172026104600372C36062
:1009400041B1194600E0026942F82310427A0133AE
:100950009A42F8DC094B1A680AB90BE01A46536947
:10096000002BFBD15061002343618380C3808372DD
:1009700010BC70471860F6E76C4F0100DC57002090
:1009800038B50546D0F8AC0120B10BF07BFA002356
:10099000C5F8AC31B5F8B241B5F8B031A4B29BB2EC
:1009A0009C420ED00134642C28BF0024A31D05EB0B
:1009B000830358680BF066FAB5F8B0319BB29C42DD
:1009C000F0D19BB2A5F8B23138BD00BF464A474BC3
:1009D000102010801B781B0734D5F0B5444E454DD0
:1009E000454C31782B782278DFF82CE1434F824058
:1009F00042EA03230B43FF22802132702A702270C7
:100A00008EF800103970D9073D4A14D51A23936027
:100A10003C4F3D4E3D4D3E4C3E49107900233B70CE
:100A200053709370D370D360337013712B70237035
:100A300013700870F0BD1F0705D4DE0606D5042329
:100A40009360E5E7704721239360E1E79D0604D4B6
:100A50005C0604D516239360DAE79060D8E71806A1
:100A600002D509239360D3E7D90502D50A23936001
:100A7000CEE79F0502D50D239360C9E75E0502D539
:100A80000B239360C4E71D0502D51E239360BFE7C7
:100A9000DC0402D502239360BAE7980402D5072349
:100AA0009360B5E7590402D506239360B0E71F04AD
:100AB00002D515239360ABE7DE0302D524239360B0
:100AC000A6E79D0302D522239360A1E7DC0202D5AD
:100AD000252393609CE71803F5D45903F3D49B02B4
:100AE00044BF2323936093E70020054002D00740D2
:100AF00005C0074006C0074007C0074009C00740BF
:100B00006858002000C0074001C0074002C00740ED
:100B100003C0074004C0074008C00740002976D042
:100B20002DE9F04F0C469100631883B05D68002DED
:100B300057D06B185E68002E50D073185F68002F76
:100B400049D07B18D3F80480B8F1000F3CD008EBF3
:100B50000103D3F80490B9F1000F32D009EB01037F
:100B6000D3F804A0BAF1000F27D00AEB0103D3F8A1
:100B700004B0BBF1000F18D00BEB01035B6863B14D
:100B8000194401934968FFF7C9FF019B93F8252099
:100B90001AB11A681846536898479BF8253023B154
:100BA000DBF8003058465B6898479AF8253023B147
:100BB000DAF8003050465B68984799F82530002BEA
:100BC00035D198F8253063BB97F825301BB13B68C9
:100BD00038465B68984796F82530CBB995F82530AC
:100BE00063B994F8253013B903B0BDE8F08F2368DA
:100BF0005B68204603B0BDE8F04F18472B682846D5
:100C00005B68984794F82530002BEDD0EFE77047EC
:100C1000336830465B68984795F82530002BE0D064
:100C2000ECE7D8F8003040465B689847CCE7D9F845
:100C3000003048465B689847C3E700BF90F924201E
:100C4000531C26D01B4B2DE9F04153F82240D2B261
:100C5000ECB19300E1184D68B5B1E9184E6866B182
:100C6000F1184F6837B13B445968FFF757FF97F8C1
:100C70002530A3B996F8253063B995F825301BB116
:100C80002B6828465B68984794F8253063B9BDE81F
:100C9000F0817047336830465B689847EDE73B6802
:100CA00038465B689847E5E7236820465B68BDE8FF
:100CB000F04118478856002038B50D21154C1648CC
:100CC0000AF058FF15480BF0F9FA2588144810214E
:100CD0000AF050FF294611480BF05AFB0F480BF061
:100CE000EDFA104B10491A681048022A08BF104A42
:100CF0004FF00003A1F8B43108BFA2F8B4310D4B96
:100D00001B88238007F0E6FB6420BDE838400AF02A
:100D100079B800BFE0570020D84F01002400002020
:100D2000E84F01000CFAFF1F704F0020E054002034
:100D30002C51002008580020264B1B680F2B0CD884
:100D4000DFE803F00C1014181C2024282C30343851
:100D50003C404408204B214A1A6070471E4B204AF1
:100D60001A6070471C4B1F4A1A6070471A4B1E4A84
:100D70001A607047184B1D4A1A607047164B1C4A80
:100D80001A607047144B1B4A1A607047124B1A4A7C
:100D90001A607047104B194A1A6070470E4B184A78
:100DA0001A6070470C4B174A1A6070470A4B164A74
:100DB0001A607047084B154A1A607047064B144A70
:100DC0001A607047044B134A1A607047024B124A6C
:100DD0001A60704700FAFF1FB8540020BD549341B9
:100DE000103377C0993918C0BE0D68BFCE71153F5A
:100DF0008D090340CCC9624009A7A3407DDBD140E7
:100E0000C416014154FC1741D0E830411955464100
:100E10009FAB5F41A04176415E2E864138B50121EE
:100E2000142009F00BFE234B1B68012B3DD0002141
:100E3000072009F0CDFF00210C2009F0C9FF002197
:100E40000E2009F0C5FF0521072009F0D5FF1A4C37
:100E50001A4D05210C2009F0CFFF05210E2009F0C5
:100E6000CBFF2078002109F0B3FF2878002109F09A
:100E7000AFFF0521287809F0BFFF4FF4FA6009F0B1
:100E8000C1FF0121207809F0A3FF4FF4FA6009F0B7
:100E9000B9FF2078002109F09BFF4FF4FA6009F0B8
:100EA000B1FF074B074A1A6038BD074807F012FB2D
:100EB000BDE700BFA80A00208C530020E0530020AB
:100EC0000CED00E00400FA05E05400202DE9F84F95
:100ED0006D4F3B68012B5ED0022B01D0BDE8F88F2F
:100EE0006A4DB5F8B031B5F8B22199B293B29942D2
:100EF00038BF6431CB1A1F2BF0DDDFF8A8A1DFF873
:100F00009CB1DFF888910AF58047D8460026D5F8CD
:100F1000AC310024002B39D0DBF8AC3100208BB38E
:100F200004F58071534634F9022B23F8042C30F970
:100F3000022B23F8022C8C4203F10403F3D1D5F8E1
:100F4000AC0118B10AF09EFFC9F8AC61DBF8AC0146
:100F500018B10AF097FFC8F8AC610AF5007A574556
:100F6000D5D14B4B986C002875D04FF4804249493D
:100F700006F030FC013077D0474A13682033136005
:100F8000BDE8F88F4548FFF71DFCC9E73F48FFF76C
:100F900019FC0446C0E73D4DB5F8B031B5F8B221B3
:100FA00099B293B2994238BF6431CB1A3F2B95DD89
:100FB0003B4CDFF8D8A00121112009F009FF04F50E
:100FC00080494FF000081AE009F04EFA30460AF066
:100FD00059FFC5F8AC812D48FFF7F4FB4FF4807240
:100FE0000146204609F040FAD5F8AC0118B10AF0E4
:100FF00049FFCAF8AC8104F500744C4517D0D5F808
:10100000AC61A4F5807B4FF4807200215846002E1D
:10101000DAD11E48FFF7D6FBDAF8AC6101464FF48F
:101020008072584609F020FA002ED4D0CEE7112065
:10103000002109F0CDFE164B986CD8B14FF48042D8
:10104000144906F0C7FB013011D013493B680A6808
:1010500020320A6040E7D86C00288DD04FF48042DF
:101060000C4905F065FB85E7FFF7D8FE84E7FFF73D
:10107000D5FEEAE7D86C0028E7D04FF48042054956
:1010800005F056FBDFE700BF0CFAFF1F704F002092
:10109000D0540020B40A00206C4F00202C510020B6
:1010A000B40B0020B80A002038B50025082415200C
:1010B00009F0E6FB0CF018FA4FF06A510CF068FAF0
:1010C000014628460CF05CF9013C0546EFD1044985
:1010D0000CF05EFA4FF078510CF05AFA38BD00BFB0
:1010E0009A99994038B50F4D0F4C2B6854F823301E
:1010F000B3B12A680D4954F822300D48013B44F839
:101100002230FFF7FDFB2B68094854F823100A2210
:1011100000230BF0FDF80648BDE838400BF0CEB8D0
:10112000FEE700BF845500202C550020FC4F010035
:101130002400002010B582B004460DF0C1FC00B2BE
:10114000012816DDB4F9003044F25242934233D004
:1011500012DD44F2537293421DD044F65212934270
:1011600007D101AAE01C1C490DF07AFC1B4B019A27
:101170001A60012002B010BD44F24E429342F8D1F1
:1011800001AAE01C14490DF06BFC154B019A1A6082
:10119000012002B010BDE01C01AA0F490DF060FC57
:1011A000019B0F2B13D90F4B042119600F2009F05D
:1011B00045FC012002B010BD01AAE01C06490DF05B
:1011C0004FFC094B019A1A60012002B010BD054A7C
:1011D000D9B21360EAE700BF1050010098FAFF1F70
:1011E000B00A002000FAFF1F90FAFF1F2DE9F04F10
:1011F000DFF89882A04BD8F878549FB04FF47A72F9
:101200000A9300238DF82C308DF834301C931D93F5
:101210000C92002D00F0CF8005F23C46304605F0E0
:10122000B3FF2946304606F013F9DFF87492D9F877
:1012300000100EAF21B138460023904A07F05EF946
:101240001C98002800F0D48000252E468DF80860F8
:101250004FF0000B4FF0FF0A98B101220DF107018A
:1012600006F0FCF8012817D00BF101031EAA9344E5
:101270001BB21D2B0BF870AC17DC1C989B4600288A
:10128000EBD11D9B002B55D0184601220DF1070113
:1012900004F0F0FB0128E7D19DF807200D2A08BFD4
:1012A0005B4640F0C9801D2BE7DD013B9BB21EAAC7
:1012B0001A4402F8706C9DF808202F2A04D0012BE4
:1012C00002D902A8FFF736FF1C98C0B103781907AE
:1012D0000ED4384607F0FEF8002D36D10124684BB5
:1012E0000A93384607F0F6F820461FB0BDE8F08FA5
:1012F000C36942699A1AA9D4002AA7D1E9E71D9BBC
:10130000002BE6D093F831201207E2D5D3E904ABE5
:10131000D3E90023BAEB02026BEB03034FF0000B9F
:101320006FF0004A9B4508BF924538BF5246002ADD
:101330008CD1CEE70BF101031EAA93441BB21D2BE7
:101340000BF870ACB1DC9B4699E70B214D480AF0D5
:1013500011FC00230A2221464B480AF0D9FF4A48D3
:101360000AF0ACFFD8F87854484B9DB305F23C46E0
:10137000304605F009FF2946304606F069F8D9F8ED
:10138000001029B144F202233C4A384607F0B6F86F
:101390001C9B002B49D02146184606F05FF91C988B
:1013A00000283AD002223A4906F014FA384607F0EB
:1013B00091F8012493E7D8F87C54002D3FF435AF21
:1013C00005F58866304604F0D5FA2946304604F023
:1013D000DBFA2AE7D3F87C54002DD0D005F58866D7
:1013E000304604F0C7FA2946304604F0CDFAC6E785
:1013F0001D9D002D7FF428AF142126480AF0BAFB6A
:1014000021480AF05BFF0D22234924480AF040FFDF
:1014100022482C460AF052FF61E71D980028C5D0EB
:1014200002221B4905F084F9C0E71D980028BDD0B1
:10143000224604F007FCB2E71EAB03EB0B01542A73
:101440000BF1010301F8702C1BB20DD11C9818B1DF
:101450004469013C012526E71D9A12B11468013C3C
:10146000F8E74FF0FF34F5E71D2B3FF71EAF0A2AD0
:101470003FF41BAF01E700BF9C4F01001450010077
:10148000784F01002050010024000020B84A0020BD
:101490002C5001003050010048500100145300202E
:1014A0007C5600202DE9F041044604200D461646E6
:1014B00009F094FC8046032009F090FC0746B8F13F
:1014C000000F2AD1DFF89C80244AD8F8003001218F
:1014D000132B117039DD0133642BC8F800303ADD6D
:1014E000C82BD4BF05343C3467B91D4F1B4A3B6839
:1014F0000121132B117022DD3C2C16DC01233B60F3
:10150000013C02E0164B00221A60AC4209DBB442F7
:10151000C8BF2C462046BDE8F081124B00221A605D
:10152000E2E734462046BDE8F0813B680133642B96
:101530003B60E5DDC82BD4BF053C3C3CE5E7C8205B
:1015400009F060FC3C2CD9DDEFE7C82009F05AFC1B
:10155000D8F80030BFE70134C6E700BF604F002075
:101560003C550020C854002010B5094C204608F016
:1015700037FD2046012108F089FA2046022108F0B3
:101580007FFA002220461146BDE8104008F074BAE8
:101590001453002038B5054607F0F4FF1E4C0146F1
:1015A00020460AF0F5FE2D200AF068FB284607F0D9
:1015B000DBFF014620460AF0EBFE2D200AF05EFB21
:1015C000284607F0C3FF014620460AF0E1FE01214C
:1015D00012480AF0CFFA284607F08EFF014620464F
:1015E0000AF0D6FE3A200AF049FB284607F092FF9F
:1015F000014620460AF0CCFE3A200AF03FFB28467E
:1016000007F096FF014620460AF0C2FE2046BDE8DC
:1016100038400AF053BE00BF240000209852010059
:1016200038B5054609F0F0F9074C2070681C09F040
:10163000EBF96070A81C09F0E7F9A070E81C09F04C
:10164000E3F9E070206838BD7453002008B500202D
:10165000FFF7E6FF1D4B18600420FFF7E1FF1C4B6E
:101660001860082009F0D0F91A4B1870092009F009
:10167000CBF9194B18700A2009F0C6F9174B1870EE
:101680000B2009F0C1F9164B18700C2009F0BCF9B9
:10169000144B18600D2009F0B7F9134B18600E2099
:1016A00009F0B2F9114B18700F2009F0ADF9104B89
:1016B0001860102009F0A8F90E4B18601220FFF7EF
:1016C000AFFF0D4B80B2188008BD00BF90FAFF1F1E
:1016D00098FAFF1FAC0A00208055002028540020F3
:1016E000684F0020BC54002080FAFF1F8CFAFF1FB7
:1016F00000FAFF1F0CFAFF1FAE0A002038B50A4C93
:101700000B460546C9B2236009F098F96178681C58
:1017100009F094F9A178A81C09F090F9E178E81C87
:10172000BDE8384009F08AB97453002008B51F4B52
:1017300000201968FFF7E2FF1D4B04201968FFF72E
:10174000DDFF1C4B0820197809F078F91A4B0920A5
:10175000197809F073F9194B0A20197809F06EF914
:10176000174B0B20197809F069F9164B0C201978E2
:1017700009F064F9144B0D20197809F05FF9134B47
:101780000E20197809F05AF9114B0F20197809F039
:1017900055F9104B1020197809F050F90E4B1988A3
:1017A000122089B2BDE80840FFF7A8BF90FAFF1FDA
:1017B00098FAFF1FAC0A0020805500202854002012
:1017C000684F0020BC54002080FAFF1F8CFAFF1FD6
:1017D00000FAFF1F0CFAFF1FAE0A002070B5154C6F
:1017E000154D2046022108F04BF9144B2A6853F896
:1017F000226030460DF064F93146024620460AF078
:1018000047FD20460AF05AFD2046012108F038F92C
:101810002A680B4B53F8225028460DF051F92946FF
:10182000024620460AF034FD2046BDE870400AF02A
:1018300045BD00BF145300208853002060FAFF1FED
:10184000C4FAFF1F30B50F4C83B02046012108F0C9
:1018500017F900222046642108F00EF9FFF724FC56
:101860000BF0ECF9012502460B46009520460AF0E4
:1018700097FD05492A46204603B0BDE830400AF0EE
:1018800007BD00BF145300205850010008B50121C6
:101890000F4808F0F5F8082264210D4808F0ECF82C
:1018A0000C4B1B68012B0BD008225A21084808F06A
:1018B000E3F8062208490648BDE808400AF0E8BCFB
:1018C000042206490248BDE808400AF0E1BC00BF16
:1018D000145300200CFAFF1F645001005C500100FB
:1018E0002DE9F04F83B00F46019080680021013050
:1018F00016460BF00FFE014629480BF0FDFE04468C
:1019000030460BF0EDFD01460BF03AFD0646384639
:101910000BF0E6FD014630460BF03AFE014620464C
:101920000BF0EAFE4FF001084FF07E550746C14626
:101930004FF0010A4FF0000B50460BF0D5FD394631
:101940000BF026FE04460BF0E9FF0BF0CDFD01463F
:1019500020460BF013FD294606460BF0B7FF4FF06B
:10196000874148B120460BF0B1FF28B120460CF06A
:1019700033F835468046D1461AF1010A4BF1000B87
:10198000BBF1000F08BFBAF1400FD5D1019809F1A2
:10199000FF3208F1FF3380E80C0003B0BDE8F08FA0
:1019A000001B374C2DE9F04110298AB00C46074640
:1019B00063D0202904BF012309932246394607A892
:1019C000FFF78EFF0798089E099D0294431C01367D
:1019D00001350393049605950BF082FD4FF07E517F
:1019E0000BF0CEFC26490BF0D3FD804630460BF0C1
:1019F00077FD014640460BF07FFE4FF07C510BF027
:101A0000C7FD064628460BF06BFD014630460BF03D
:101A100073FE054660000BF067FD014628460BF09B
:101A20006BFE0BF07BFF174B01901A46009716498F
:101A30001648174D174C0AF05DFC174917480B68FC
:101A400023F010430B60079A089B120302F47F22D5
:101A5000C3F30B0313432B609DF8243043F0E06382
:101A600023609DF8243043F08E4303600B6843F0FD
:101A700010430B600AB0BDE8F081032309939CE793
:101A8000001BB74C00D8B8056C50010024000020A2
:101A900004F1024008F0024080F0024088F0024069
:101AA0002DE9F04F05469D4E9D4FDFF88C8296F84C
:101AB00000E02F60FF2085F82400DFF8809298F87E
:101AC0000000BEF1060F59F820E04FF000038DB082
:101AD0000C4685F8253085F8263098BF3370BEF166
:101AE000000F00F0AD808E455ED07346810001E0AE
:101AF0009C4259D00B445B68002BF9D1734600E03F
:101B000053460B44D3F804A0BAF1000FF8D15C603F
:101B10003478029705EB010B4FFA80FCFF23062C6B
:101B2000CBF804A08DF82DA08DF82EA085F824C048
:101B30008DF82C30744604D800233370002C00F04C
:101B4000B480A24229D0234601E0934225D00B4421
:101B50005B68002BF9D104EB010EDEF80440002C89
:101B6000F9D1CEF804200CAB1944BCF1FF3F00F1D1
:101B700001034FF0000041F8240C88F800308DF884
:101B80002CC0029705D0674951F82C2002AB9A422D
:101B900076D028460DB0BDE8F08F013088F80000FF
:101BA00028460DB0BDE8F08F31780297FF2400235E
:101BB00006298DF82C408DF82D308DF82E30574C9D
:101BC00000D823709645E8D07346810001E09A4220
:101BD000E3D00B445B68002BF9D18E44DEF804405F
:101BE0002CB1A6468E44DEF80440002CF9D10CAB93
:101BF00046B219440130731CCEF8042088F8000066
:101C000041F8244C02978DF82C60C2D0454951F818
:101C1000262002AB9A42BCD159F82630B00023B13D
:101C20001A1853685460002BFAD198F8003000223B
:101C3000013B88F8003049F8262041F82620A8E723
:101C400000283AD0374B96F800E043F82050810046
:101C500005EB010C002349F820408DF82D30CCF81D
:101C600004308DF82E304FFA80FCFF23BEF1060FB2
:101C7000029785F824C08DF82C307FF65DAF5DE7C4
:101C800059F82C304FEA8C0423B11A19536850606C
:101C9000002BFAD198F800300022013B88F8003080
:101CA00049F82C2041F82C2073E7E8B11D4B49F886
:101CB000202002AA43F8202055E71B491B480B6847
:101CC000019243F080630B600368194923F080435D
:101CD0000360152008F09AFF164B019A4FF400118B
:101CE000196098F80000ADE70F4C10482368019286
:101CF00043F08063236003680D4923F08043036051
:101D0000152008F083FF0B4B019A4FF40011196066
:101D100098F800004FFA80FC8100C7E7BCF3FF1F72
:101D2000C04F0100A8560020047004400070044019
:101D30007504000000E100E0C9560020885600202C
:101D40002DE9F04708F01AFE4FF0FF316448654D69
:101D500008F032F96449654B0A682B6000236B7206
:101D60002B612B72EB600AB9B7E01A465369002B5E
:101D7000FBD1556100245E4E5E4F5F4B6C61AC80C1
:101D8000EC80AC7257482B60DFF8B481DFF8B4A167
:101D9000DFF8B49102F0A0FE06F1180230460121EE
:101DA000FEF7C6FD07F1180201213846A6F8B0413A
:101DB000C6F8AC41A6F8B241C6F8B841A6F8B4419D
:101DC000C6F800A0FEF7B4FD4046A7F8B04188E889
:101DD0006000C7F800A0A7F8B24188F8084088F86A
:101DE0000940C8F80C4088F81040C7F8AC41C7F863
:101DF000B841A7F8B4410AF095F8404A4049414E2D
:101E000040460AF0B1FD4FF0010A484689E8A000BB
:101E100089F80940C9F80C4089F8104089F808A0F1
:101E20000AF080F84846354A3549374DDFF81C81BD
:101E30000AF09AFD354B3560354986F82540FF2577
:101E400086F8245019602D4A324974633046B463D1
:101E500086F83C4086F826A00AF086FD2E4B88F8CE
:101E60002450264A2D4988F825404046C8F80030BD
:101E700088F826A088F8274088F828400AF074FDE2
:101E8000324641462648274DFFF70AFE1B4A26499F
:101E900023480AF069FD254B184AC3F878442826E0
:101EA000C3F87C4483F8984483F89564C3F8A0543D
:101EB0001F49204D18460AF057FD1F4B0F4A1C7151
:101EC0004FF47A761C739C64DC649E601D601B4931
:101ED0001846BDE8F0470AF047BD0D604AE700BF6D
:101EE00014530020F8530020DC5700206C4F0100F1
:101EF000704F00202C51002088550100FCF9FF1F75
:101F0000B90700009C530020C4560100685300200C
:101F10006C5501009D060000D8560100F506000032
:101F20009054002001100138F1050000B84A00204B
:101F30004D0700009C4F0100D0540020A107000075
:101F4000E8520020D44F0100FC5200204C550020E4
:101F50002DE9F84F424C434FDFF80C810A9E0B9D50
:101F600081468A462046396893461F4603F0FCF9AD
:101F70002046002102F0F6FE88FB0B314FEAEB739E
:101F8000C3EBA10101EB8102ABEB420B0BF00F0B9A
:101F90004BEA0111C9B2204602F0E4FE88FB0A3187
:101FA0004FEAEA73C3EBA10101EB8103AAEB430AF9
:101FB0000AF00F0A4AEA0111C9B2204602F0D2FE25
:101FC00088FB09314FEAE973C3EBA10303EB8301FB
:101FD000A9EB41011B0103F0300301F00F0119438C
:101FE000204602F0BFFE2046012102F0BBFE88FB26
:101FF0000731FB17C3EBA10101EB8103A7EB4307FB
:1020000007F00F0747EA0111C9B2204602F0AAFE05
:1020100088FB0631F317C3EBA10101EB8103A6EBAB
:10202000430606F00F0646EA0111C9B2204602F047
:1020300099FE88FB0538E917C1EBA80808EB880171
:10204000A5EB410505F00F0545EA08112046C9B288
:1020500002F088FE2046BDE8F84F03F097B900BFB4
:1020600064560020E4FAFF1F6766666670B5104C80
:1020700006460D4620460A2103F076F9C6F30721ED
:10208000204602F06FFEF1B2204602F06BFEC5F36F
:102090000721204602F066FEE9B2204602F062FE09
:1020A000204603F073F9B0FA80F0400970BD00BF1C
:1020B0006456002008B500213020FFF7D7FF00212B
:1020C0000220BDE80840FFF7D1BF00BF08B5E221FC
:1020D0003020FFF7CBFF43210220BDE80840FFF787
:1020E000C5BF00BF0238032810B503DC00285FDA43
:1020F000002400E00C2444F260013020FFF7B6FF1A
:102100006C212620FFF7B2FF4FF4F8712820FFF76B
:10211000ADFF40F622712C20FFF7A8FF00213C20E4
:10212000FFF7A4FFFFF7D2FF21460420FFF79EFF31
:102130004FF498710620FFF799FF00210A20FFF75E
:1021400095FF08210E20FFF791FF4FF6FF71102039
:10215000FFF78CFF47F67F712220FFF787FF0021F2
:102160004FF49270FFF782FF4FF48A712420FFF73B
:102170007DFF104C00212A20FFF778FF09210E482F
:1021800009F0F8FC21680D480AF002F90B480AF042
:1021900095F82168202041EA0111FFF767FF014609
:1021A00006480AF0F5F805480AF088F8012010BD45
:1021B0008400A0E700FAFF1F8850010024000020DF
:1021C00010B5074B0446102153F82000FFF7EAFB37
:1021D000044802F06DFE2046BDE81040FFF782BFC4
:1021E0003CFAFF1F64560020F0B54F4C4F48216861
:1021F00085B003F0B9F800214C4802F0B3FD00218E
:102200004A4802F013FF216848480023072203F0E0
:10221000A5F8464802F0C6FD0DF1FF36002504E0A2
:1022200002F0CAFD06F8010F0135404802F0BAFD80
:1022300004463E48002CF3D103F0A8F8072D09D03E
:102240000F213B4809F096FC3A480AF037F820463F
:1022500005B0F0BD9DF800509DF801409DF80400C8
:102260009DF805109DF802209DF80630324FDFF8EA
:10227000E0C02E1106EB860605F00F0505EB4606BD
:10228000251105EB850504F00F0404EB4505041149
:1022900004EB840400F00F0000EB4404081100EB91
:1022A000800001F00F0101EB400EF6B2C2F3011104
:1022B0003E70181101EB8101204E02F00F0202EB7B
:1022C000410200EB8000EDB203F00F038CF80050E8
:1022D00003EB400332701A4D1A4A1B485FFA8EF125
:1022E000E4B2DBB22C700170137097F800E09CF838
:1022F000007036782C78017813788DF80C401E33F6
:1023000002A88DF80E308DF808E08DF809708DF870
:102310000A608DF80D1007F045F90C4B0124186088
:10232000204605B0F0BD00BFE4FAFF1F6456002050
:102330009450010024000020105300202855002054
:10234000B855002011530020614F00205C4F002041
:10235000785300202DE9F04383B00446FFF744FF93
:1023600050B324B9174C206803B0BDE8F083154C76
:10237000206807F0C1F80546206807F0CBF806464C
:10238000206807F0D5F80746206807F0DFF8804698
:10239000206807F0E9F88146206807F0F3F8CDF8E7
:1023A00000900190434628463A46314600F0D2FA62
:1023B000206803B0BDE8F08303B0BDE8F04308F047
:1023C000EDBC00BF5C4F00202DE9F04F01209DB017
:1023D000FFF7C0FFA54CA64D206007F0C5F82B689D
:1023E000834233D0A34B1B6883B30A21A248A34E78
:1023F00009F0C0FBA24809F061FF206807F0B4F8BB
:102400002860206807F0BEF82B689E4902469E4867
:102410000CF000FBD6F87854002D00F0FD8005F29A
:102420003C4101230025984A8DF838500EA88DF8BC
:1024300039508DF83A5004F041FFD6F878048F4BAC
:10244000002800F00181904906F01EF800211520B7
:1024500008F0D2FCFEF728FE80468C488C4D06F032
:1024600001FD206807F08EF80646206807F07CF82A
:102470000746206807F06AF88346206807F03CF8B2
:102480000D90206807F046F881462068814C07F0DF
:102490004FF8814A0A92824640460AF0CFFBCDE9C6
:1024A00008017E4B18680AF0C9FBCDE90601CDF89A
:1024B00000B0606821680D9B019332463B46059051
:1024C0000491CDF80CA07649CDF8089075480CF031
:1024D000A1FA74480CF0F4FA0146724809F04AFB7C
:1024E000674809F0EBFE1AE0674905F0CDFF29685F
:1024F00029B140F601236B4A6B4805F0FFFF69489C
:102500000CF0DEFA0146674809F034FB5C4809F03C
:10251000D5FE0A2008F076FC2368142B75D82968AC
:1025200041B1624C5F4A04F1100040F6012305F00E
:10253000E5FFA8B95E4C5F4923685A4801331A4643
:1025400023600CF067FA4D4BD3F878040028CBD108
:10255000D3F87C040028CAD04B4904F0D1FCC6E76C
:1025600055485649D0F800A0554D564A564B574E3F
:10257000DFF86481D6F8009003C9286092E8030070
:10258000A86093E80300102701231FFA89F6AB82A5
:10259000E860EE8250462F610BF0E6F95146A861E3
:1025A00050460AF0EDFE824648460AF09DFF01467D
:1025B00050460AF0EDFF0BF0D7F9454AD8F8003045
:1025C000E86192E803005B02A26C6F84760003F17D
:1025D00024012E846862AB626960002A3DD01046F7
:1025E00029462C2205F0F6F809213A4809F0C2FAEA
:1025F000D8F80010224800230A2209F089FE20485A
:1026000009F05CFE1DB0BDE8F08FFEF707FC4FF44B
:102610007A7008F0F7FB82E7D6F87C1400293FF4C3
:1026200015AF012301F58861174A8DF869500EA88E
:102630008DF86A508DF86B5003F0AEFFD6F8780431
:102640000E4B00287FF4FFAED3F87C0400283FF443
:10265000FDAE0D4904F054FCF8E6E06C0028C3D050
:1026600029462C2204F064F8BEE700BF5C4F00202E
:102670004455002098FAFF1FA4500100B84A0020DA
:1026800024000020B0500100105400204927000011
:102690007C5600207C53002034FAFF1FB8540020E1
:1026A000BC5001002C540020E0540020D0540020E5
:1026B000885500202451010088FAFF1F04510100B1
:1026C0008C5500200C510100145101000CFAFF1F21
:1026D0001C510100F85001005453002038B50E2160
:1026E0001248134C09F046FA124809F0E7FDFFF7CB
:1026F0006BFE114B002220461A60FEF741F90F4B8A
:102700001B680125022BA4F8B45108D00B210C48FA
:1027100009F030FA0748BDE8384009F0CFBD094C50
:102720002046FEF72DF9A4F8B451EFE7305101002F
:10273000704F0020240000206C4F00200CFAFF1F77
:10274000405101002C5100202DE9F041804601202C
:102750000E46FFF7FFFD244C206006F013FF0546F0
:10276000206806F001FF0746206806F0EFFEA5F29C
:10277000BC739BB27F2B02D8FAB20C2A28D9002353
:10278000A8F80030206806F0B7FE0746206806F07B
:10279000C1FE0546206806F0CBFEFBB2172B13D80E
:1027A000EBB23B2B10D8C3B23B2B0DD8FB026D0113
:1027B00003F4FF2305F4FF552B43C0F34600034306
:1027C0009BB23380BDE8F08100233380BDE8F08107
:1027D000C0B21F28D3D87F0107F4FF57384340EA1F
:1027E00043239BB2CCE700BF5C4F00202DE9F043B0
:1027F0004F4A504BDFF85491DFF854814E4F117817
:1028000098F800401A7899F80060386883B03C2343
:1028100013FB064613FB012406F06EFE05463868DE
:1028200006F078FEC5EB051500EB8505386806F067
:10283000A9FE00F14E0338688DF8063006F094FECC
:102840008DF80500386806F081FEA6428DF8040078
:102850000AD2AE4249D8AC4247D3A41BC4EB0414FD
:10286000364D3748A40010E0AE4201D9AC421AD32D
:10287000C4EB0414A300A6EB061403EB840404F5D4
:10288000A8342E4D2E4804F5C07410212C6009F098
:1028900071F929682B4809F07BFD2A4809F00EFDE3
:1028A00003B0BDE8F08302A8002598F8003099F83D
:1028B000002000F8085D8DF801308DF8022006F048
:1028C00071FE38602846FFF745FD3B68984204DDFD
:1028D00003F5A83303F5C0733B600F211A4809F0D4
:1028E00049F93868FEF756FEC2E702A8002599F8B4
:1028F000002098F8003000F8085D8DF802208DF86F
:10290000013006F04FFE38602846FFF723FD3B6894
:10291000094A984204DD03F5A83303F5C073136038
:102920000F21094809F026F93868FEF733FE94E7CD
:1029300028540020684F0020644F0020505300208E
:102940005C510100240000204C510100AC0A002021
:102950008055002030B583B002AD079C05F8082DE6
:102960008DF80200069A8DF804304E3428468DF812
:1029700001108DF805208DF8064006F013FE08F0D2
:1029800013FA0020FFF7E6FC014B186003B030BDDE
:10299000B44A00202DE9F04F002083B0FFF7DAFCA5
:1029A000B84BB94E18600121B848DFF85083B84FD2
:1029B000B84D07F065F80121B44807F067F8262202
:1029C0000021B24807F058F80322B349AF4809F094
:1029D0005FFC26221921AD4807F04EF80322AF49CB
:1029E000AA4809F055FC26223221A84807F044F8ED
:1029F0000322AB49A54809F04BFC26224B21A348F2
:102A000007F03AF80222A749A04809F041FC2E221B
:102A100000219E4807F030F8002331689B480A22C5
:102A200009F076FC2E221921984807F025F800239A
:102A3000D8F8001095480A2209F06AFC2E223221AB
:102A4000924807F019F83B6855F823000AF04CFD4E
:102A500095490AF051FE0AF0F1F80B4602469349F7
:102A60008A4809F047FC2E224B21884807F004F8D9
:102A70008F4B18680AF0E2F80B4602468B498348F0
:102A800009F038FC8B4B1C68012C00F05E81022C95
:102A900000F0D380884B3F68D3F80090D6F800A0B0
:102AA00050460AF01DFD834620460AF01DFD0146F2
:102AB0000AF066FC59460AF06BFD044655F82700FB
:102AC0000AF012FD014620460AF062FD7B490AF039
:102AD00057FC4FF08E410AF053FC73490AF00CFE8C
:102AE00071490AF009FE764B764A1B681060012B8B
:102AF000054600F005814FF07E5059460AF048FD2A
:102B00008346D8F80000704C704F50440AF0E8FC3F
:102B1000014658460AF0F0FD6D4B00908346187848
:102B20000AF0E2FC6B4B19680AF032FD5946804608
:102B30004FF07E500AF022FC674B19680AF028FD1E
:102B40004946019058460AF023FD019B014618466C
:102B50000AF016FC014640460AF0CEFD5F490AF035
:102B600017FD0AF001FF0026019004F110094FF053
:102B7000000857F8040B44F8048B0AF0B1FC014636
:102B8000834628460AF0B6FE294600285DD15846FD
:102B90000AF0B2FD0AF052F809F05EFE0AF07AFB84
:102BA000034644F8043C00FB0AF00AF099FC014695
:102BB00030460AF0E5FBA1450646DAD100990AF055
:102BC0009BFD019D044628460AF08AFC01462046EA
:102BD0000AF09AFE26225C21002838D02B4806F005
:102BE0004BFF05223E49294809F052FB2E225C2169
:102BF000264806F041FF3B4B24482A4683FB02232C
:102C00002B44E917C1EB234109F0C2FB01223649ED
:102C10001E4809F03DFB732137221C4806F02CFFAB
:102C2000274B1A481A68012A0EBF30493049012241
:102C300003B0BDE8F04F09F02BBB3F682D4A1E4B97
:102C400052F82790C3F8009028E70021B0E70F481A
:102C500006F012FF052228490C4809F019FB2E2224
:102C60005C210A4806F008FF20460AF057FE1D497D
:102C7000034681FB03211944DB170448C3EB2141C0
:102C8000C2E700BF5C4F002090FAFF1F14530020E2
:102C900080FAFF1F3CFAFF1F7051010074510100C0
:102CA000785101007C51010000007A4480510100FC
:102CB000B85400200CFAFF1FE8FAFF1F0000304252
:102CC000BC540020245500202C55002058530020CF
:102CD0008CFAFF1F94FAFF1F08FAFF1F00006145DE
:102CE0008851010007452EC2905101009C510100FE
:102CF000A05101009CFAFF1F9451010098FAFF1F98
:102D0000164A174B10781B78834286BFC3F118030D
:102D1000C018C01A0AF0E8FB124A134B06461B788B
:102D20001078834286BFC3F13C03C018C01A0AF072
:102D3000DBFB0E49044630460AF02AFC21460AF025
:102D40001FFB0B490AF0D8FCD7E63F68094A0A4B3B
:102D500052F82790C3F80090A0E600BF2854002046
:102D6000AC0A0020684F002080550020000070420F
:102D70000000B44410FAFF1FE8FAFF1F10B501224B
:102D800004460849084809F083FA092C03DC30217D
:102D9000054806F037FE21460348BDE8104009F01B
:102DA000F7BA00BFB85101001453002038B50446EB
:102DB0000D462348012106F063FE2AB20021204877
:102DC00006F05AFE204606F0DDFB01461C4809F0DD
:102DD000DFFA2D211A4806F015FE204606F0C4FB46
:102DE0000146174809F0D4FA2D21154806F00AFECD
:102DF000204606F0ABFB0146114809F0C9FA022251
:102E000010490F4809F044FA204606F075FB0928DE
:102E100003DC30210A4806F0F5FD204606F06CFB85
:102E20000146074809F0B4FA204606F073FBFFF7A5
:102E3000A5FF204606F07CFBBDE83840FFF79EBFAB
:102E400014530020A45101002DE9F047B54D2C6822
:102E50002CB1012C00F0828030BFBDE8F087204605
:102E6000FFF778FAB04FDFF83C833860FEF77CFB61
:102E70000A22AE49AE48AF4E09F00AFAAC4809F052
:102E80001DFA0121AA4806F0FBFD12222146A8489E
:102E900006F0F2FD0522A849A54809F0F9F9D8F88D
:102EA0000010A348013109F073FA0122A349A04898
:102EB00009F0EEF9D8F80020A14B9D4853F82210F4
:102EC00023460A2209F024FA30682821FFF76EFF12
:102ED00038683721FFF76AFF954807F0FBF93A6831
:102EE00033689A4236DB974C2368002B00F0FC8055
:102EF000022B00F0AF810D21934808F03BFE934870
:102F000009F0DCF9924B1B68002B00F0E280012BEA
:102F100000F0F0808F4C90480E2108F02BFE00202E
:102F2000FFF718FAFEF736FB0B218C4808F022FE5B
:102F30002068FEF72FFB0B21894808F01BFE306844
:102F4000FEF728FB0123AE2179482B6007F050F8EB
:102F5000FFF7C4FB2C68012C7FF47EAFFDF7B6FFB2
:102F6000042007F03BFF0446032007F037FF14B9A5
:102F7000002800F01D817B4F7B4B3A681B689A420A
:102F8000FFF46AAF794B724A1B681468B3FA83F393
:102F90005B090020844214BF002603F00106012CC7
:102FA00014BF002403F00104FFF7D4F9694B1B6838
:102FB0009842ACBF002004F00100002840F04F818F
:102FC000002E40F04C81FDF777FEFEF78BF8594B51
:102FD000674F1C68DFF8D081DFF8D0A13046FFF7DB
:102FE000B9F9644A644B1268201A841A24EAE4741A
:102FF00083FB04232344E017C0EBE32009F00CFE1D
:1030000009F02AFC0AF01EF95C4A5D4B386002FBAD
:10301000004483FB042323448146E017C0EB631084
:1030200009F0FAFD09F018FC0AF00CF903011A1A6C
:10303000C31A04EB830492004FF4616303FB092974
:10304000C8F800404C44092CCAF8000038DD31466D
:10305000022007F0BDFEFFF72DF84A4A4A491368DF
:103060003A4823F010431360FDF74AFC39683748AB
:1030700009F08EF9DAF80010344809F089F9D8F827
:1030800000103248FDF74AFC08F028FE642007F0E3
:10309000B9FE98F800309AF8002039783B4806F0DD
:1030A00017F93B4805F0EAFE0121022007F090FEE7
:1030B0004FF4967007F0A6FE364B1868FFF780F8BD
:1030C00001233C2202211A4806F0FAFF00232B605C
:1030D000C2E6314B254A31681B6812681D4C0B440F
:1030E0001A443260236016E70A210E20FEF7BEFF65
:1030F0002368FDE61D4B1A68002A40F0C380274A6A
:1031000033681768134C2649104803F5A83202F5B6
:10311000C0723B4432602360FDF7F2FB2068FEF78B
:1031200039FAF8E6A80A00205C4F0020A8510100F7
:1031300014530020644F0020B45101009852010044
:103140002C550020B00A0020BC51010024000020B2
:10315000BC54002084530020DC510100EC510100DC
:10316000F85101006C4F00205453002098FAFF1FC3
:10317000C054002004FAFF1FC5B3A291F0F1FFFF75
:103180008988888880F002402C5201009C530020DE
:103190009054002080FAFF1F90FAFF1F5053002028
:1031A000CC510100845500202055002024540020DB
:1031B0003A4B3B4C1B683B4A3B4E3C4DA06C5B0280
:1031C000002103F12407A6F8B41157609362A5F813
:1031D000B411002836D004F041FAA06C304B48B34B
:1031E0002C22304904F0F6FA314805F073F9012336
:1031F0003C2202212F4806F063FF642007F002FE04
:10320000FEF7B2F907222C492A4809F041F829486B
:1032100009F054F80121274806F032FC1022274912
:10322000244809F035F8234809F048F8214807F008
:1032300051F8FEE7D86C0028D6D02C22194903F0AB
:1032400077FAD1E7E06C0028CED00022002302F00C
:10325000F9FCC2E70B210E20FEF708FF4BE61448ED
:1032600005F038F9FDF73EFFFFF7AEF800231449EB
:1032700014483B60FDF744FB134B12481988FDF7D7
:103280004DFBE9E5114B31681B68114C0B441A44A6
:1032900032602360FFF7AAFA3DE600BF6C4F0020C2
:1032A000D05400208C550020704F00202C5100205D
:1032B000E054002014530020045201000C5201007D
:1032C0002052010024000020E057002090FAFF1F48
:1032D000845300202DE9F04F91B0FEF7B7F9FDF7C8
:1032E0002BFD0821B148DFF84CB3B14EB14C08F0CA
:1032F00041FCB14808F0E2FF0020FFF72BF8CBF8C3
:103300000000FEF731F90622AC49AD4808F0C0FFD5
:103310000121AB4806F0B4FB10220021A84806F0BA
:10332000ABFB1222A749A64808F0B2FFA44808F058
:10333000C5FFA54B0121187807F04AFD4FF47A70BC
:1033400007F060FD0721A14802F03CFA0E219F48DA
:1033500002F0C4FA0C219D4802F07CFA9C4B96487E
:1033600000251D6008F0AAFF934808F0A7FF05217B
:10337000984808F0FFFB01218F4809F009F88E48B2
:1033800008F09CFF01218E4809F002F804229249BE
:103390008B4808F07DFF8A4806F09CFF642007F008
:1033A00031FD8E4B8DF81D501F7809958DF81C70DE
:1033B000089607AB93E807000AAB83E807008DF88F
:1033C00029500C958DF828700B9693E807000DABEB
:1033D00083E807000F9A009204F591650CCB28460C
:1033E00004F29C4105F0E8F994F89534C4F884544B
:1033F0007BB11C217A4808F0BDFB6F4808F05EFFE6
:10340000092278496E4808F043FF6D4806F062FFD4
:10341000FEE72946204605F0B3F80028E9D0D4F8A5
:103420007804002800F0FF8504F04CFF05460821D1
:103430006D4808F09FFB29465F4808F0A9FF5E48E9
:1034400008F03CFF28460AF04FF868490AF0A0F857
:10345000D4F87834574A0546002B00F05086187986
:103460000AF03EF8014628460AF092F80AF07CFA83
:103470000546D4F8840405F079FB0AF031F85B497D
:103480000AF086F80AF070FA0A210446584808F053
:1034900071FB214600230A22474808F039FF4648BD
:1034A00008F00CFFC72D00F2B985494A00231360CC
:1034B0001121504808F05EFB45493F480968002348
:1034C0000A2208F025FF3C4808F0F8FE40493C4835
:1034D000096800230A2208F01BFF012246493848E8
:1034E00008F0D6FE00230A222146354808F010FFD6
:1034F000334808F0E3FE324806F0ECFE4FF47A70F1
:1035000007F080FCFDF772FEFDF716FCFEF70EF9E2
:103510003A4B1A683A4B9A4200F2C385394A384B03
:1035200012689A4200F28885374B1A78172A00F2FF
:103530008F85364B1A783B2A00F29585344B1A78E2
:10354000172A00F29B85334B1A783B2A00F2A1859B
:10355000314B1A68012A05D9002211460C201A6045
:1035600007F06CFA2D4B1B68082B00F2BF852C4B23
:103570001B780C2B00F2B1852A4B1B680F2B00F235
:10358000A385294A1368013B012B05D9012319465C
:103590001020136007F052FA244B1B889BB2B3F53E
:1035A000B77F80F08785224E354668E040520100A3
:1035B00080F0FA02B84A0020240000204C5201009A
:1035C00014530020545201008C530020F0FAFF1FC6
:1035D00058530020B451010068520100E05300200C
:1035E000A0520100C052010070520100BD37063ADE
:1035F0007C520100885201009C52010090FAFF1F8A
:10360000A086010098FAFF1FAC0A00208055002018
:1036100028540020684F0020BC54002080FAFF1F6F
:103620008CFAFF1F00FAFF1F0CFAFF1FAE0A0020E2
:103630005C4F0020B44A0020032007F0CFFB002895
:1036400060D0082007F0CAFB002844D0FDF78CFFAB
:10365000FEF7C4F8FFF79EF9FEF7F4F8FEF716F947
:103660000020FEF777FE3721FFF7A0FB9A4806F00F
:1036700031FE0A2007F0C6FB002C40F0CC8400206D
:10368000FEF768FEDBF800403060041BB4F5167FDF
:103690004FF00400D4BF0024012407F09FFB002852
:1036A000CAD1042007F09AFB38B90A2007F0AAFB18
:1036B000042007F093FB0028F7D0884A8849136854
:1036C000096801338B421360A4BF00231360B3E782
:1036D0000A2007F097FB082007F080FB0028F7D0AE
:1036E0007E4B1B68072B00F28584DFE813F025046E
:1036F00044003C01DF00C0035101A00072000A2019
:1037000007F080FB032007F069FB0028F7D0734A1D
:103710001368013B002B136093DA714B1B68013B6C
:1037200013608EE76F4B1868FDF7BCFE6D4B186099
:10373000FDF71AFF07226C49674808F0A9FD6648A3
:1037400008F0BCFD67496448096800230A2208F0B4
:10375000DFFD3A466549604808F09AFD5E4808F08A
:10376000ADFDFFF717F9FEF76DF85B4806F0B2FD07
:10377000022007F047FB082007F030FB012807462E
:1037800001464FF46162CDD0082007F027FB0028E6
:10379000FAD0524B00221A6000F02CBC544B18880F
:1037A00080B2FDF77FFE524B80B21880FDF7DCFE41
:1037B0000A225049484808F06BFD4D4B464819888D
:1037C00089B208F0E5FD444806F084FD022007F0C8
:1037D00019FB082007F002FB012840F26D124FF0A0
:1037E0000001DBD0082007F0F9FA0028D1D1082029
:1037F00007F0F4FA0028F5D0CBE73F4B1878FDF737
:1038000051FE3D4B1870FDF7AFFE09223B4932488F
:1038100008F03EFD38493048097800230A2208F0B4
:1038200077FD2D4806F056FD022007F0EBFA082040
:1038300007F0D4FA012801464FF00C02DDD0082031
:1038400007F0CCFA0028A4D1082007F0C7FA002816
:10385000F5D09EE72A4B1868FDF724FE284B186028
:10386000FDF782FE27491C48042208F011FD1A4882
:1038700008F024FD224A244B126853F8220009F074
:1038800033FE224909F038FF09F0D8F902460B4609
:1038900011481F4908F02EFDFFF77CF8FDF7D2FF15
:1038A0000D4806F017FD022007F0ACFA082007F0DB
:1038B00095FA01284FF008024FF00001CAD0082005
:1038C00007F08CFA00287FF464AF082007F086FA2E
:1038D0000028F4D05DE700BF145300208853002077
:1038E000C0FAFF1F90FAFF1F285301003053010058
:1038F000AE0A0020885301008CFAFF1F9453010088
:1039000080FAFF1F3C5301003CFAFF1F00007A447D
:1039100044530100B64B1868FDF7C4FDB44B186062
:10392000FDF722FE0622B349B34808F0B1FCB248C5
:1039300008F0C4FCAE49B048096800230A2208F028
:10394000E7FC3A46AD49AC4808F0A2FCAA4808F0AA
:10395000B5FCFFF71FF8FDF775FFA74806F0BAFCA6
:10396000022007F04FFA082007F038FA012807462E
:10397000A34A4FF00001CDD0082007F02FFA00280D
:103980007FF407AF082007F029FA0028F4D000E7F9
:103990009C4FDFF88882049450E0306805F0F2FD17
:1039A00040F634024FF4FA613860FDF77BFD3B6866
:1039B000C8F80000984224D0286805F09DFD814693
:1039C000286805F0A7FD8246286805F0B1FD044689
:1039D000286805F0BBFD0390286805F0C5FD009040
:1039E000D8F80030A3F5FA6E2246039BCDF804E028
:1039F00051464846FEF7ACFA0020FEF7ABFCCBF888
:103A00000000FDF7B1FD05227F497B4808F040FC2E
:103A1000794808F053FC0020FEF79CFC05F0B2FD4D
:103A20000146754808F0B4FCFEF7B4FFFDF70AFF45
:103A3000714806F04FFC022007F0E4F9082007F077
:103A4000CDF90128A9D0049C082007F0C7F9002867
:103A5000FAD0022007F0D6F96C4FDFF8C481059444
:103A60004FE0306805F080FD49460C223860FDF7D4
:103A700019FD3B68C8F80000984225D0286805F079
:103A80003BFD8146286805F045FD8246286805F023
:103A90004FFD0446286805F059FDD8F80010049041
:103AA0002868039105F06EFD03990091A0F5FA6076
:103AB0000190049B224651464846FEF749FA0020F1
:103AC000FEF748FCCBF80000FDF74EFD06225049FA
:103AD000494808F0DDFB484808F0F0FB0020FEF7FD
:103AE00039FC05F041FD0146434808F051FCFEF762
:103AF00051FFFDF7A7FE404806F0ECFB022007F05F
:103B000081F9082007F06AF901288146A9D0059CAF
:103B1000082007F063F90028FAD0022007F072F9B4
:103B20003C4FDFF8008105944FE0306805F00EFD52
:103B300049461F223860FDF7B5FC3B68C8F8000015
:103B4000984225D0286805F0D7FC8146286805F002
:103B5000E1FC8246286805F0EBFCD8F800300493BD
:103B60000446286805F000FD0390286805F00AFD6A
:103B700003990091A0F5FA600190049B22465146FA
:103B80004846FEF7E5F90020FEF7E4FBCBF800001D
:103B9000FDF7EAFC04222049174808F079FB164893
:103BA00008F08CFB0020FEF7D5FB05F0CFFC0146AA
:103BB000114808F0EDFBFEF7EDFEFDF743FE0E4861
:103BC00006F088FB022007F01DF9082007F006F92F
:103BD00001288146A9D0059C082007F0FFF800289D
:103BE000FAD0022007F00EF9DFF83C8004946BE075
:103BF00098FAFF1F34530100145300203053010082
:103C00008051010040550020585301007855002094
:103C100060530100C454002068530100F053002099
:103C20007C550020DC530020A40A0020306805F0F9
:103C300063FC17220021C8F80000FDF733FCD8F818
:103C400000309842074622D0286805F063FC814680
:103C5000286805F06DFC8246286805F077FC04466C
:103C6000286805F081FC0390286805F08BFC039A16
:103C70000092A0F5FA600190234652464946384624
:103C8000FEF766F90020FEF765FBCBF80000FDF7B4
:103C90006BFC05229B499C4808F0FAFA9A4808F008
:103CA0000DFB0020FEF756FB05F026FC014696486A
:103CB00008F06EFBFEF76EFEFDF7C4FD924806F0BD
:103CC00009FB022007F09EF8082007F087F801287A
:103CD000ACD0049C082007F081F80028FAD002201C
:103CE00007F090F8894FDFF8448205944EE0306881
:103CF00005F010FC3B2200213860FDF7D3FB3B6848
:103D0000C8F80000984224D0286805F0F5FB8146E9
:103D10002868D8F800A005F00BFC0446286805F0D8
:103D200015FC0490286805F01FFC0390286805F036
:103D300029FC03990091A0F5FA600190049B2246AA
:103D400051464846FEF704F90020FEF703FBCBF886
:103D50000000FDF709FC07226D496B4808F098FA4E
:103D6000694808F0ABFA0020FEF7F4FA05F0D2FB40
:103D70000146654808F00CFBFEF70CFEFDF762FDFE
:103D8000614806F0A7FA022007F03CF8082007F087
:103D900025F80128ABD0059C082007F01FF8002863
:103DA000FAD0022007F02EF85A4FDFF884810594EC
:103DB0004EE0306805F0BCFB3B2200213860FDF787
:103DC00071FB3B68C8F80000984224D0286805F0D1
:103DD00093FB8146286805F09DFB82462868D8F849
:103DE000004005F0B3FB0490286805F0BDFB03908C
:103DF000286805F0C7FB03990091A0F5FA600190CF
:103E0000049B224651464846FEF7A2F80020FEF7E2
:103E1000A1FACBF80000FDF7A7FB07223E493A487C
:103E200008F036FA384808F049FA0020FEF792FA0E
:103E300005F07EFB0146344808F0AAFAFEF7AAFD19
:103E4000FDF700FD304806F045FA022006F0DAFFE3
:103E5000082006F0C3FF0128ABD0059C082006F01F
:103E6000BDFF0028FAD02D4B00221A60C2E0DFF817
:103E7000C4802FE02A4B1868FDF714FB284B18600C
:103E8000FCF75AFFFDF770FB052226491E4808F093
:103E9000FFF9234B1C48196808F07AFA1A4808F011
:103EA0000DFAD8F8000008F0C9FE00970B4602464C
:103EB000154808F075FA3A461B49134808F0E8F926
:103EC000FEF768FDFDF7BEFC0F4806F003FA384622
:103ED00006F098FF082006F081FF01284FF0020746
:103EE0004FF00F024FF00001C4D0082006F076FF1B
:103EF00000287FF44EAC082006F070FF0028F4D0B4
:103F000047E400BF7053010014530020F453002015
:103F10007853010048550020805301008853002049
:103F200000FAFF1F505301007C510100CC540020C7
:103F30004C530020B85400207A4CFDF715FBFDF7D8
:103F4000F5FB0D21784807F015FE2168774808F049
:103F50001FFA764808F0B2F90821754807F00AFE02
:103F6000744B186808F06AFE022702460B46009759
:103F70006E4808F015FA6D4808F0A0F908216E485F
:103F800007F0F8FD23686D4A684852F823100023B3
:103F90000A2208F0BDF9654808F090F91321684835
:103FA00007F0E8FD2268674B604853F822100023B1
:103FB0000A2208F0ADF95D4808F080F90A2262494A
:103FC000624808F065F9614808F078F901215F4816
:103FD00005F056FD13225E495C4808F059F95B482C
:103FE00006F078F90120FEF7B5F94FF4FA6006F013
:103FF00009FF0124574F3B78002B3FF427ABFDF717
:1040000095FB4FF0000300203B70FEF7A3F9CBF8BF
:104010000000FFF71BBB11B0BDE8F08F474BC83D58
:104020001D60FFF745BAD4F87C04002873D002F075
:1040300021FF0546FFF7FBB93C23474A19460420F8
:104040001360FDF75BFB454B1A78172A7FF671AAC0
:104050000022114608201A7006F0F0FC404B1A7836
:104060003B2A7FF66BAA0022114609201A7006F03F
:10407000E5FC3C4B1A78172A7FF665AA0022114608
:104080000A201A7006F0DAFC374B1A783B2A7FF6C2
:104090005FAA002211460B201A7006F0CFFCFFF732
:1040A00057BA3C23314A194600201360FDF726FB1E
:1040B000FFF734BA2E4A002313801188122089B2E8
:1040C000FDF71CFBFFF76FBA04232A4A19460F209D
:1040D000136006F0B3FCFFF754BA0123264A1946D1
:1040E0000E20137006F0AAFCFFF746BA0423234AF9
:1040F00019460D20136006F0A1FCFFF738BAD2F87C
:104100007C345BB193F83D340120984009F0E8F924
:104110000146FFF7A8B90546FFF789B90021FFF767
:10412000A2B900BF84550020CC5201002400002019
:10413000DC52010024550020E852010058530020B1
:10414000F45201002C5500200853010014530020A4
:1041500014530100604F002098FAFF1FAC0A0020A2
:104160008055002028540020684F002090FAFF1F3F
:10417000AE0A002000FAFF1F8CFAFF1F80FAFF1F13
:10418000CE4ACF4B1168CF482DE9F04F19605768E0
:10419000CD4ECE495F600468CD4ACE4DDFF8A0E336
:1041A0000A27142337608FB00B6040F2EE27137894
:1041B00043B12B78DB0705D50368DEF800105B1AE6
:1041C0000E2B08D8036811781B1B002900F0E18131
:1041D000B3F5FA6FEBD94FF4FA7006F013FEBE4F49
:1041E000BE4DDFF860A3DFF86093DFF86083012144
:1041F0001120002406F000FE0121112006F0E8FD48
:104200003C60642006F0FEFD4FF430533B606420B8
:1042100006F0F8FD4FF434533B60642006F0F2FDE5
:104220002968AF48AF4F23460A2208F071F8AC481E
:1042300008F044F84FF47A7006F0E4FD2968A848C5
:1042400023460A2208F064F8A54808F037F84FF42E
:104250007A7006F0D7FD23460A222968A048A24DAD
:1042600008F056F89E4808F029F8A04800F020FE13
:104270002146152006F0C0FD022006F0DBFA0121E0
:10428000022006F0B9FD0121022006F0A1FD012166
:10429000142006F0B1FD0121062006F0ADFD2146F7
:1042A000142006F095FD0121062006F091FD022163
:1042B000042006F0A1FD0221032006F09DFD02214D
:1042C000082006F099FD01233C220221884805F0D0
:1042D000F7FE8C2006F096FDFDF746F90A22854987
:1042E000834807F0D5FF824807F0E8FF804805F0D3
:1042F000F1FF6E21804807F041FDDAF8004057F8E1
:10430000240009F0F1F8C9F800002046FDF758FF35
:10431000FEF7E0FFDAF8004057F8240009F0E4F86F
:10432000C9F800002046FDF74BFFFDF71DF9D8F84E
:1043300000303B2B06D9B3F5967F34BF3C234FF4B6
:1043400096732B606D4C6E4F0120FEF703F82968C1
:1043500022886C4D90FBF1F392B201FB031105FB37
:104360000213B4F800E03968674CDFF8E4C1674D28
:10437000206019441FFA8EF2CCF800102B60002A3E
:1043800040F00B8100211220FDF7B8F93868604E2B
:10439000DFF8C0A1DFF8C0B109F0A2F8D9F8001029
:1043A00009F0F6F84FF06E5109F0F2F84FF0745141
:1043B00009F0EEF808F042FC08F0C6F90022554B6F
:1043C00008F090FC08F03EFF534AD8F8003011681E
:1043D000524AC1EB0309524B126829EAE97983FB7F
:1043E000091302FB00F24B444FEAE9703260C0EB64
:1043F000E32008F011FC08F02FFA08F023FF494EE3
:10440000494BCAF8000006FB009683FB06233344A1
:10441000F017C0EB631008F0FFFB08F01DFA08F07E
:1044200011FFDFF83891A0EB0012034606EB82067D
:1044300010213E48CBF80030C9F8006007F09AFB25
:10444000DAF80010264807F0A3FFDBF80010244834
:1044500007F09EFFD9F80010214807F099FF204887
:1044600007F02CFF0821324807F084FB39681C480C
:1044700000230A2207F04CFF194807F01FFF08210C
:104480002C4807F077FB0A220023D8F800101448C4
:1044900007F03EFF124807F011FF0E21264807F0F3
:1044A00069FB2068FDF776F80C21244807F062FBD1
:1044B0002868FDF76FF82B6852E000BF5880044071
:1044C0007C530020DC560020E05300208C53002059
:1044D000C0570020D857002010D0034000D0034020
:1044E000240000203CFAFF1F84FAFF1F64560020BE
:1044F00014530020A05301000082FF1FAE0A0020C9
:1045000090FAFF1F805101005C4F0020644F002093
:10451000545300200000404004FAFF1F0CFAFF1F14
:10452000C5B3A291F0F1FFFF898888882C52010061
:10453000D4530100E0530100DC510100EC530100B1
:104540008858002080FAFF1F88FAFF1F98FAFF1F83
:1045500084530020C0540020245400202055002003
:10456000246873481C1B152107F004FB2146714881
:1045700007F00EFF6F4807F0A1FE6F496F4B002058
:104580004FF0FF3208601A600FB0BDE8F04FFCF743
:10459000A9BDBB427FF60BAE1DE60021022006F04E
:1045A00017FC0021142006F013FC2A6823686048D9
:1045B000D31A1521039307F0DDFA03995D4807F03C
:1045C000E7FE5C4807F07AFE4FF01E0BFCF7CCFFCD
:1045D00005225B495B4807F05BFE5A4807F06EFE18
:1045E0000120FDF7B7FE01212060564805F048FA8A
:1045F00005225549534807F04BFE524807F05EFE2E
:104600001A212868FEF7D2FB37212068FEF7CEFB7F
:104610004C4805F05FFE4FF47A7006F0F3FBBBF1F7
:10462000010BD3D1039B3C2B28DDAE21454805F07F
:10463000DFFC0121112006F0CBFB002211461423E0
:10464000424804F045FE0A2006F0DCFB0021112060
:1046500006F0BEFB3E4804F011FC0121062006F0E6
:10466000B7FB0120FDF776FE00212060062006F052
:10467000AFFB2B6822689B1A3C2BD6DC0121022061
:1046800006F0A6FB0121142006F0A2FB0121062062
:1046900006F09EFB4FF47A7006F0B4FB07212D481C
:1046A000DFF8B4B001F08EF80E212A4801F016F9B7
:1046B0000C21284801F0CEF896F800C0DFF89CE005
:1046C0008DF814C000268DF815600796CDF818E017
:1046D00005AB93E8070008AB83E807008DF821607D
:1046E0000A968DF820C0CDF824E093E807000BABC4
:1046F00083E807000D9A00920BF591660CCB3046CB
:104700000BF29C4104F058F89BF89534CBF8846484
:1047100023B1DAF80000FDF753FD33E63146584681
:1047200003F02EFFDAF80000FDF74AFD2AE600BF8D
:10473000AC53010024000020A80A002044550020AA
:10474000C453010014530020CC5301009C5300209B
:1047500090540020F0FAFF1FB84A002080F0FA02BF
:10476000002070470020704738B5242908BFC28058
:104770000C46017A0E48154600F046FCC4F30721AA
:104780000B4800F0EFFAE1B2094800F0EBFAC5F38C
:104790000721074800F0E6FAE9B2054800F0E2FA1E
:1047A000034800F0F3FDB0FA80F0400938BD00BFC7
:1047B0006456002038B5012504460571334800F0E1
:1047C00077FB052006F01EFB204644F260023021F4
:1047D000FFF7CAFF20466C222621FFF7C5FF2046BF
:1047E0004FF4F9722821FFF7BFFF204640F62272EE
:1047F0002C21FFF7B9FF204644F246423C21FFF747
:10480000B3FF204640F237122421FFF7ADFF2046C8
:1048100044F2FF023021FFF7A7FF73220221204656
:10482000FFF7A2FF4FF4C87006F0ECFA204641F6FD
:104830001D522E21FFF798FF042211462046FFF754
:1048400093FF20464FF498720621FFF78DFF204614
:1048500010220A21FFF788FF204600220E21FFF7D1
:1048600083FF204643F63C421021FFF77DFF2046A0
:1048700047F67F722221FFF777FF20463622242158
:10488000FFF772FF6572284638BD00BF64560020EE
:1048900038B50546F1B1802903799ABFC1F180048A
:1048A00044EA0424002433B9224628462221BDE8E4
:1048B0003840FFF759BFC288002322F0100203716D
:1048C0002421FFF751FF224628462221BDE8384027
:1048D000FFF74ABF0123037147F67F722221FFF7DA
:1048E00043FFEA8842F01002284692B22421BDE834
:1048F0003840FFF739BF00BF0B4610B507490446E3
:10490000184608F045FE064908F03AFD09F02CF873
:1049100001462046BDE81040FFF7BABF0000014342
:10492000EE7CFF3E10B5044619B1012911D00020DC
:1049300010BD55222021FFF717FF0028F7D0E2888D
:1049400042F00402204692B22421BDE81040FFF755
:104950000BBF40F273122A21FFF706FF0028E6D0B2
:10496000882220212046FFF7FFFE0028DFD0E288C2
:10497000204622F004022421BDE81040FFF7F4BED7
:1049800010B5044607F0FEFB204610BD024A03495D
:10499000034807F0E9BF00BFFCF9FF1F8149000091
:1049A000BC5500201B4A1C4B11681C48096970B497
:1049B00099421279027009D2194A127832B3194A0F
:1049C0004FF08041116003F5807402E01C46A3F5AE
:1049D0008073154A154912680D68AAB1A5B1144E25
:1049E0003088402810D841000A444030294402321F
:1049F0000231308033F9040B22F8020F9C4233F964
:104A0000020C21F8020FF5D870BC704703F58074D2
:104A1000DFE700BFCC550020B8F2FF1F1F80004029
:104A2000C655002008E200E0D4550020C8550020FB
:104A3000C4550020F8B5064607F0D0F90446E8B1A1
:104A400007F0CCF9054600283AD072B61F4B1A88F9
:104A50007F2A19D8002C31D01D490A6842B162B6AC
:104A6000204607F00FFA2846BDE8F84007F00ABADA
:104A700018480C601A80056062B6F8BD054672B62B
:104A8000124B1A887F2AE5D9114A12491768146017
:104A900000220C681A800D6062B63946304607F075
:104AA0001BFA384607F0EEF930462146012207F09E
:104AB00013FA2046BDE8F84007F0E4B962B6F8BD45
:104AC000204607F0DFF92C46BFE700BFC4550020A1
:104AD000D4550020C8550020F8B5284C284E204653
:104AE000012107F0EBFA00F083F8264B264A27480D
:104AF0004FF480611960236800211A60998022793F
:104B0000186102F1804202F5043240F20110D880AF
:104B10009E614FF48075022006278E26DD82D960C3
:104B2000DD8398609F8398821170167007F06CFA8D
:104B30001749184B2279184F08701A703968227972
:104B4000164C174D174E41F0124141F0010153111F
:104B500039609B00206803F1604302F1100703F500
:104B6000614302F01F02012140F0104001FA02F2FD
:104B7000206045F827601A60F8BD00BFCC550020C2
:104B800000FEFFFF14B00440A0F00240B8F1FF1F88
:104B9000C65500201B80004080F0024000F002401B
:104BA00000F4FF1FA5490000024A0349034807F02B
:104BB000DBBE00BFFCF9FF1F81490000CC5500207F
:104BC000024A0349034807F0CFBE00BFFCF9FF1FAC
:104BD00081490000D8550020024A0349034807F0E4
:104BE000C3BE00BFFCF9FF1F81490000E055002053
:104BF000284B29491A68294842F400421A600A6879
:104C000042F002020A601A6842F002021A60036867
:104C1000002B3DDB224B1B68002B39DB214A4FF078
:104C2000864313601368002BFCDBF0B51E4C1F4855
:104C3000DFF8ACE01E491F4B1F4A204F204E214D8C
:104C400041F2100CC4F800C0002404600120CEF82A
:104C50000000DFF890E0C1F800E04FF48031196007
:104C6000194B1360DFF880E0184A3A60346028601E
:104C70001748CEF80000174CB9671748174946F88F
:104C8000503C4FF4C0632A61236003600B60F0BDA9
:104C9000704700BF3C8004404080044000F0024068
:104CA00080F0024000F1024004F1024060F0024056
:104CB00008F002400CF0024010F0024014F00240F4
:104CC000E0F0024084F002401B0F0100000F0F0FC4
:104CD0000300004708B004400CB0044018B0044082
:104CE00004F002400300000788F00240024A034932
:104CF000034807F039BE00BFFCF9FF1F81490000DF
:104D0000E8550020024A0349034807F02DBE00BFC2
:104D1000FCF9FF1F81490000F0550020024A0349B9
:104D2000034807F021BE00BFFCF9FF1F81490000C6
:104D3000F8550020024A0349034807F015BE00BF9A
:104D4000FCF9FF1F8149000000560020024A034978
:104D5000034807F009BE00BFFCF9FF1F81490000AE
:104D6000085600200A4B1B7813B90A4B1B786BB10D
:104D7000094A1378202B07D810B4581C074C107020
:104D8000E154012010BC70470123037100207047DB
:104D900076560020395600207756002018560020FD
:104DA000704700BF024A034B10781B78C01A704747
:104DB0007556002074560020064A07491378097872
:104DC000994204D90548591CC05C117070474FF0D6
:104DD000FF30704774560020755600203C56002066
:104DE000054B064A1B7812789A4286BF044AD05C6B
:104DF0004FF0FF30704700BF7456002075560020FA
:104E00003C56002070B50D4B1B78144613B90C4B63
:104E10001B788BB10B4E3578C5F12103A34202D22A
:104E200001221C460271084822462844254405F008
:104E30001BFB3570204670BD184670BD76560020AD
:104E4000395600207756002018560020124BDB7888
:104E500003F020034BB1114A13780133DBB2012B6D
:104E6000137012D9122005F055BF10B5122003F0AF
:104E7000FF0405F04FFF0A4B1B685BB109490A4A62
:104E80000C701078BDE810401847084B1B78002BB9
:104E9000E8D0704710BD00BF00600640605600209B
:104EA00014560020745600207556002039560020F4
:104EB0000D4A0E4BF0B500200D4C10702268DFF843
:104EC00038E00C4F42F0400222604FF4197127265F
:104ED0000425202480229870CEF8001039605E707E
:104EE0009D715C719A70F0BD3956002000600640DB
:104EF0003480044008A004400CA0044010B5384C95
:104F0000E378DBB2D80623D510225906E2701ED50D
:104F100003F0040303F0FF02002B33D0314B32497E
:104F20001A68324C00230B702370002A3BD0904744
:104F30002378002B37D02E4B1B78294A2D49D024BB
:104F400094701371264B012002220870DA7010BD94
:104F50005A06DDD4A27802F0100202F0FF0042B33C
:104F600013F001031BD1234920480A7800789042AE
:104F700081BF1F4B501C9B5C08702371184BD022C3
:104F80009A7008E01C48164B174902700120C02295
:104F900008709A701B79124B0222DA7010BDC02380
:104FA000A3702379F7E71249002301220B702270C6
:104FB000C3E7124B124918700322122005F02EFE8F
:104FC0000D4923790A781F2ADBB2E4D80648007815
:104FD0000028E0D00B4C501CA3540870DBE700BF46
:104FE000006006405C5600201056002077560020D6
:104FF0001856002078560020755600206056002074
:105000004D4E00003C5600200548064A10B40123CE
:10501000054C037049001370217010BC704700BF2D
:105020007656002077560020185600202DE9F047CC
:10503000584C1223E370A37803F0200382B0002BB6
:1050400054D0B423DFF860A1A370DAF80020514CEB
:105050000020E378DBB2934218BF01209F061A4676
:10506000F7D5002840F08D804B4B1B78002B34D0B7
:1050700003F1FF3C5FFA8CFC0027DAF80020DFF830
:105080002CE1444D0CF1010C3C464FF002081EF897
:10509000013F2B715FFA87F9104601E09E0608D5A3
:1050A000EB78DBB293421CBF184601249E071A46D8
:1050B000F4D585F80380EE78F6B2B3420EBF02460F
:1050C00032460124F30633D4B30631D5F30744D472
:1050D00001376745DBD1002C4AD1002000292ED1B1
:1050E0002E4B00221A7002B0BDE8F0872C4DDFF87D
:1050F000B8A003F0FF022B680093009EDAF80000CE
:1051000005E02B680193019B9B1B0F2B1BD8E378B9
:10511000DBB2834218BF012213F0200F1846F0D1F2
:1051200092BB20481B4B0024B02204709A708CE77D
:105130000CBB184B80229A7004200029D0D0154B4C
:1051400080229A70CCE7CAB9124B00218022042039
:1051500099709A7002B0BDE8F087C4B90D4BB9F1EF
:10516000000F4FF080020CBF022003209A70B7E7B7
:10517000CAF80020B1E7CAF80020DAE7CAF8000050
:10518000E2E7CAF800306FE7CAF80030C9E7CAF8AA
:105190000020E3E7006006407756002076560020A6
:1051A000DC56002039560020ECFAFF1F175600206D
:1051B0002DE9F04F624E634DDFF8989100201224E4
:1051C000287089F80000F470B07800F02000002802
:1051D00055D0B420DFF880A1B070490041F0010142
:1051E000574EC9B23171DAF8000000240546F17853
:1051F000C9B281421CBF0D4601248F070846F6D56F
:10520000002C40F091804E480224C470C078C0B297
:10521000884218BFCAF8000010F0110076D1002AA9
:1052200044D0012A78D0464D474FA021A97002F101
:10523000FF3BA2F1020E2979DAF8004006465FFA38
:105240008BFC5FFA8EFE4FF00208E978C9B2A142EA
:1052500018BF01200C46A107F7D5711CB64585F88B
:105260000380CEB22AD0297907F8011F6645ECD118
:1052700008B1CAF80040354EE34610462AE0DFF890
:10528000D8A0DAF8004000F0FF05F078C0B2A042E4
:1052900018BF01250446A006F7D4002D47D12C4C99
:1052A000274800252570B024847096E7002B244BF6
:1052B0000CBFA02280229A70BDE8F08F002839D15F
:1052C0001F49224EA8208870097906F80E105FFA4F
:1052D0008BFB1046DAF80040194F0025F978C9B267
:1052E0008C4218BF01250C46A107F7D52DBB1449E8
:1052F000B0240225CD708C700C7906F80B400BB1F0
:1053000080238B7089F80020BDE8F08F0C4B802241
:105310009A700020BDE8F08F09490C4EA8248C70CB
:10532000834609791046D5E7CAF800506BE7CAF8FA
:105330000040B4E7CAF80040C2E7CAF80040D6E728
:1053400000600640745600203B5600203C5600206A
:105350003956002075560020ECFAFF1FDBB2D2B29E
:10536000C9B2FFF725BF00BF0548064A10B40123A4
:10537000054C037049001370217010BC704700BFCA
:105380007656002077560020185600200121FFF79E
:105390004DBE00BF044B054A1A604FF47A710022DB
:1053A00099601A711A737047645600209455010071
:1053B00010B4047F4160022CC26002D010BC06F021
:1053C000FBBE836810BC18472DE9F0410468E5680E
:1053D00015F0807F794D256052D1DF0740F1B38011
:1053E000002900F0E3800D78012B18BF45F000453F
:1053F0006563013190F8248003F1FF3C48EA0828F6
:10540000BCF1000F00F0A88021B14D7811F8028B9B
:1054100045EA082845682E7ABCF1020F06F1FF36EE
:105420004FEA06360CBF48F0805548F01045B6B23A
:105430006563ACF1020C08E00AB114700132013B63
:1054400005F47045B54216D90468E56A15F0F00F09
:10545000F6D0A46B13F0010F17464FEA242EEBD1C0
:105460001AB107F802EB54703A4605F47045B5429C
:10547000A3F10203E8D8BCF1000F6DD00468C3E7C4
:10548000DD074CD5002900F089800D78012B18BF6D
:1054900045F000456563013103F1FF3E90F824C0FB
:1054A000BEF1000F41D029B191F801C00D78023151
:1054B00045EA0C2C45682E7ABEF1020F06F1FF3644
:1054C0004FEA06360CBF4CF080554CF01045B6B292
:1054D0006563AEF1020E08E00AB114700132013BBF
:1054E00005F47045B54215D90468E56A15F0F00F6A
:1054F000F6D013F0010F1746A46BEDD122B107F8D7
:10550000024B241254703A4605F47045B542A3F19B
:105510000203E9D8BEF1000F07D00468C3E79E4636
:1055200090F824C0BEF1000FBDD11BB30468E16A3E
:1055300011F0F00FFBD0A16BDC071DD50AB1117083
:105540000132013BF1E790F824809C4648EA0828A4
:10555000BCF1000F7FF458AF63B10468E16A11F049
:10556000F00FFBD0DE07A16B0FD50AB1117001322D
:10557000013BF1E7BDE8F0812AB114460D1204F8B1
:10558000021B55702246023BCFE72AB114460D128A
:1055900004F8025B51702246023BDDE790F824508C
:1055A000012B18BF45F00045656375E790F824505E
:1055B000012B18BF45F0004565631BE700041F8001
:1055C000F0B4464B464A186BDC6A017911704549C4
:1055D00022790A709A6A00790870002A46D05968C0
:1055E000C9688A423ED82168CC8B240402F1FF307E
:1055F00065D4C0F30E00C883C88B80B2C882196B13
:105600000968C88B000452D4C2F30E00C883C88B4B
:10561000002480B212F1FF32C88218BF01229C62BE
:10562000D96A2E4809680D6800F12404A54236D0D5
:105630000068C46814F0804F0C680D6815BF24889A
:1056400024780235013544F000440D604463196B41
:10565000254B09791970214912B1CA6A12791A7059
:10566000F0BC7047521A9A620122D9E7586B196848
:1056700005681E4C0A63CC62CC682D681C4E24F071
:1056800080440327B542CC6083F825701FD1037F87
:105690004260022BC2601ED0F0BC06F08DBD0168D6
:1056A00090F82400CC6840F000404863CFE7CC8BF2
:1056B000C2F3080004F47E442043C883A7E7CC8BE0
:1056C000C0F3080004F47E442043C88394E72B46CB
:1056D0001146F0BC18478368F0BC1847F0FAFF1F6A
:1056E0001F8000401C8000401B80004000000FFF16
:1056F000B153000090E80C00F0B41C6859682568AC
:10570000164F174E29432160164D17491760D66072
:1057100015611160417A154A5C180A3194F82440E9
:1057200053F8215002EBC40149680D60017A5C18FE
:1057300003EB8101247ECD6902EBC40149680D6051
:10574000817A581803EB810390F83000596B02EB13
:10575000C002F0BC53681960704700BF01401F00D1
:10576000011000380110007800001F809C5C0100CF
:105770004268036805CA10B4046822430260D8680E
:10578000840100F0E06205D5080900F4706021F49E
:1057900070410143D8681143814209D01A6850040E
:1057A00008D40748186041F08040D96018611A6039
:1057B00010BC704741F08042D96010BC1A6170473C
:1057C00001401F00204A43689A42F0B40FD0427A49
:1057D0001A4492F82420914207D093F824408C4236
:1057E00015D093F825408C422AD0F0BC70470B2985
:1057F00007D00729EBD1154C227842F00102227024
:10580000E5E7124C227822F001022270DFE7002443
:1058100021461E685D6836682E420FD00C4D05EBA0
:10582000C202002756685A18376092F8242005EB08
:10583000C2050A316A6853F8213013604472D4E714
:1058400001242146E5E700BF3C5601002158002015
:105850009C5C01001E4A43689A42F0B40CD0027A64
:105860001A44127E914205D01C7E8C4214D05C7E7C
:105870008C422AD0F0BC70470C2907D00829EED101
:10588000144C227842F002022270E8E7114C227890
:1058900022F002022270E2E7002421461E685D68C1
:1058A00036682E420FD00C4D05EBC2020027566819
:1058B0005A183760127E063105EBC20503EB8103EF
:1058C0006A685B6813600472D4E701242146E5E747
:1058D0003C560100215800209C5C0100204A43688E
:1058E0009A42F0B40FD0827A1A4492F83020914252
:1058F00007D093F830408C4215D093F831408C4259
:105900002BD0F0BC70470D2907D00E29EBD1154CD8
:10591000227842F004022270E5E7124C227822F04D
:1059200004022270DFE7002421461E685D683668A5
:105930002E4210D00C4D05EBC202002756685A18B3
:10594000376092F830200C3105EBC20503EB810380
:105950006A685B6813608472D3E701242146E4E738
:105960003C560100215800209C5C01000BB1FFF760
:105970002BBD704710B5044600F03CFD002384F8B1
:10598000313084F8333010BD90F831200AB1002056
:10599000704738B504460D461146382208F0E6FD3A
:1059A0004023012084F8313084F83300256238BD6B
:1059B000F0B50878202803D111F8010F2028FBD07A
:1059C00051600878002851D02F282BD05C2820D097
:1059D000A0F12204E4B21D2C1DD9DFF894E04E1C86
:1059E00000247C28A0F12005374612D05E2D10D867
:1059F00016F8010BA0F12205EDB2013478B32F287F
:105A000011D05C282EFA05F703D01D2DE9D8FD072B
:105A1000E7D50020F0BD164D25FA04F4E607DCD5E5
:105A20000020F0BD00240F193E4625462F2002E03D
:105A300016F8010F01352028FAD02F28F8D0294474
:105A4000196044B1394611F8013D2E2B01D0202BAD
:105A500008D1013CF7D1204610600120F0BD1F6045
:105A60000F19EFE7FF2CF6DD0020F0BD1960F3E71A
:105A7000010100352DE9F04790F83330DD0782B0A1
:105A8000044640F1AD8058060D46164640F1B380FD
:105A9000D4E90001D4E9042310EB060841F1000920
:105AA0004B4508BF4245C0F0AC80002E00F0AB80F3
:105AB000A146F9E80623B04650E013436CD194F8B0
:105AC00031305A064CBFD0F82C14E169A16190F82E
:105AD0003DC4D0F8242402397F0A01FA0CFEB9181B
